{"contracts/Marketplace.sol":{"Marketplace":{"abi":[{"inputs":[{"internalType":"address","name":"_feeRecipient","type":"address"},{"internalType":"address","name":"_assetTransferAgent","type":"address"},{"internalType":"address","name":"_auctionVault","type":"address"},{"internalType":"uint256","name":"_feeBps","type":"uint256"}],"stateMutability":"nonpayable","type":"constructor"},{"inputs":[],"name":"InvalidShortString","type":"error"},{"inputs":[{"internalType":"string","name":"str","type":"string"}],"name":"StringTooLong","type":"error"},{"anonymous":false,"inputs":[{"indexed":true,"internalType":"address","name":"oldAgent","type":"address"},{"indexed":true,"internalType":"address","name":"newAgent","type":"address"}],"name":"AssetTransferAgentUpdated","type":"event"},{"anonymous":false,"inputs":[{"indexed":true,"internalType":"bytes32","name":"auctionHash","type":"bytes32"},{"indexed":true,"internalType":"address","name":"bidder","type":"address"},{"indexed":false,"internalType":"uint256","name":"amount","type":"uint256"},{"indexed":false,"internalType":"uint256","name":"timestamp","type":"uint256"}],"name":"AuctionBidSubmitted","type":"event"},{"anonymous":false,"inputs":[{"indexed":true,"internalType":"bytes32","name":"auctionHash","type":"bytes32"},{"indexed":true,"internalType":"address","name":"winner","type":"address"},{"indexed":false,"internalType":"uint256","name":"amount","type":"uint256"}],"name":"AuctionFinalized","type":"event"},{"anonymous":false,"inputs":[{"indexed":true,"internalType":"address","name":"oldAuctionVault","type":"address"},{"indexed":true,"internalType":"address","name":"newAuctionVault","type":"address"}],"name":"AuctionVaultUpdated","type":"event"},{"anonymous":false,"inputs":[{"indexed":true,"internalType":"bytes32","name":"orderHash","type":"bytes32"},{"indexed":true,"internalType":"address","name":"maker","type":"address"},{"indexed":false,"internalType":"uint256","name":"orderItemIndex","type":"uint256"}],"name":"CancelOrder","type":"event"},{"anonymous":false,"inputs":[],"name":"EIP712DomainChanged","type":"event"},{"anonymous":false,"inputs":[{"indexed":true,"internalType":"address","name":"recipient","type":"address"},{"indexed":false,"internalType":"uint256","name":"amount","type":"uint256"}],"name":"EmergencyWithdrawal","type":"event"},{"anonymous":false,"inputs":[{"indexed":false,"internalType":"uint256","name":"oldFeeBps","type":"uint256"},{"indexed":false,"internalType":"uint256","name":"newFeeBps","type":"uint256"}],"name":"FeeBpsUpdated","type":"event"},{"anonymous":false,"inputs":[{"indexed":true,"internalType":"address","name":"oldRecipient","type":"address"},{"indexed":true,"internalType":"address","name":"newRecipient","type":"address"}],"name":"FeeRecipientUpdated","type":"event"},{"anonymous":false,"inputs":[{"indexed":true,"internalType":"address","name":"operator","type":"address"}],"name":"MarketplacePaused","type":"event"},{"anonymous":false,"inputs":[{"indexed":true,"internalType":"address","name":"operator","type":"address"}],"name":"MarketplaceUnpaused","type":"event"},{"anonymous":false,"inputs":[{"indexed":true,"internalType":"bytes32","name":"orderHash","type":"bytes32"},{"indexed":true,"internalType":"address","name":"maker","type":"address"},{"indexed":true,"internalType":"address","name":"taker","type":"address"},{"indexed":false,"internalType":"uint256","name":"fillAmount","type":"uint256"}],"name":"OrderMatched","type":"event"},{"anonymous":false,"inputs":[{"indexed":true,"internalType":"address","name":"previousOwner","type":"address"},{"indexed":true,"internalType":"address","name":"newOwner","type":"address"}],"name":"OwnershipTransferred","type":"event"},{"anonymous":false,"inputs":[{"indexed":false,"internalType":"address","name":"account","type":"address"}],"name":"Paused","type":"event"},{"anonymous":false,"inputs":[{"indexed":false,"internalType":"address","name":"account","type":"address"}],"name":"Unpaused","type":"event"},{"inputs":[],"name":"MAX_AUCTION_DURATION","outputs":[{"internalType":"uint256","name":"","type":"uint256"}],"stateMutability":"view","type":"function"},{"inputs":[],"name":"MAX_FEE_BPS","outputs":[{"internalType":"uint256","name":"","type":"uint256"}],"stateMutability":"view","type":"function"},{"inputs":[],"name":"MIN_AUCTION_DURATION","outputs":[{"internalType":"uint256","name":"","type":"uint256"}],"stateMutability":"view","type":"function"},{"inputs":[],"name":"MIN_BID_INCREMENT_BPS","outputs":[{"internalType":"uint256","name":"","type":"uint256"}],"stateMutability":"view","type":"function"},{"inputs":[{"components":[{"internalType":"enum LibOrder.OrderType","name":"orderType","type":"uint8"},{"components":[{"components":[{"internalType":"enum LibAsset.AssetType","name":"assetType","type":"uint8"},{"internalType":"address","name":"contractAddress","type":"address"},{"internalType":"uint256","name":"assetId","type":"uint256"},{"internalType":"uint256","name":"assetAmount","type":"uint256"}],"internalType":"struct LibAsset.Asset","name":"makeAsset","type":"tuple"},{"components":[{"internalType":"enum LibAsset.AssetType","name":"assetType","type":"uint8"},{"internalType":"address","name":"contractAddress","type":"address"},{"internalType":"uint256","name":"assetId","type":"uint256"},{"internalType":"uint256","name":"assetAmount","type":"uint256"}],"internalType":"struct LibAsset.Asset","name":"takeAsset","type":"tuple"},{"internalType":"uint256","name":"start","type":"uint256"},{"internalType":"uint256","name":"end","type":"uint256"}],"internalType":"struct LibOrder.OrderItem[]","name":"items","type":"tuple[]"},{"internalType":"address","name":"maker","type":"address"},{"internalType":"address","name":"taker","type":"address"},{"internalType":"bytes32","name":"root","type":"bytes32"},{"internalType":"uint256","name":"salt","type":"uint256"},{"internalType":"bytes","name":"signature","type":"bytes"}],"internalType":"struct LibOrder.Order","name":"bidOrder","type":"tuple"},{"internalType":"uint256","name":"orderItemIndex","type":"uint256"},{"internalType":"uint256","name":"sellAmount","type":"uint256"}],"name":"acceptBid","outputs":[],"stateMutability":"nonpayable","type":"function"},{"inputs":[{"components":[{"internalType":"address","name":"bidder","type":"address"},{"components":[{"internalType":"enum LibAsset.AssetType","name":"assetType","type":"uint8"},{"internalType":"address","name":"contractAddress","type":"address"},{"internalType":"uint256","name":"assetId","type":"uint256"},{"internalType":"uint256","name":"assetAmount","type":"uint256"}],"internalType":"struct LibAsset.Asset","name":"makeAssetPerItem","type":"tuple"},{"internalType":"address","name":"collectionAddress","type":"address"},{"internalType":"uint256","name":"maxQuantity","type":"uint256"},{"internalType":"uint256","name":"start","type":"uint256"},{"internalType":"uint256","name":"end","type":"uint256"},{"internalType":"uint256","name":"salt","type":"uint256"},{"internalType":"bytes","name":"signature","type":"bytes"}],"internalType":"struct LibCollectionBid.CollectionBid","name":"bid","type":"tuple"},{"internalType":"uint256","name":"tokenId","type":"uint256"}],"name":"acceptCollectionBid","outputs":[],"stateMutability":"nonpayable","type":"function"},{"inputs":[],"name":"assetTransferAgent","outputs":[{"internalType":"address","name":"","type":"address"}],"stateMutability":"view","type":"function"},{"inputs":[{"internalType":"bytes32","name":"","type":"bytes32"}],"name":"auctionFinalized","outputs":[{"internalType":"bool","name":"","type":"bool"}],"stateMutability":"view","type":"function"},{"inputs":[],"name":"auctionVault","outputs":[{"internalType":"address","name":"","type":"address"}],"stateMutability":"view","type":"function"},{"inputs":[{"components":[{"internalType":"enum LibOrder.OrderType","name":"orderType","type":"uint8"},{"components":[{"components":[{"internalType":"enum LibAsset.AssetType","name":"assetType","type":"uint8"},{"internalType":"address","name":"contractAddress","type":"address"},{"internalType":"uint256","name":"assetId","type":"uint256"},{"internalType":"uint256","name":"assetAmount","type":"uint256"}],"internalType":"struct LibAsset.Asset","name":"makeAsset","type":"tuple"},{"components":[{"internalType":"enum LibAsset.AssetType","name":"assetType","type":"uint8"},{"internalType":"address","name":"contractAddress","type":"address"},{"internalType":"uint256","name":"assetId","type":"uint256"},{"internalType":"uint256","name":"assetAmount","type":"uint256"}],"internalType":"struct LibAsset.Asset","name":"takeAsset","type":"tuple"},{"internalType":"uint256","name":"start","type":"uint256"},{"internalType":"uint256","name":"end","type":"uint256"}],"internalType":"struct LibOrder.OrderItem[]","name":"items","type":"tuple[]"},{"internalType":"address","name":"maker","type":"address"},{"internalType":"address","name":"taker","type":"address"},{"internalType":"bytes32","name":"root","type":"bytes32"},{"internalType":"uint256","name":"salt","type":"uint256"},{"internalType":"bytes","name":"signature","type":"bytes"}],"internalType":"struct LibOrder.Order[]","name":"makerOrders","type":"tuple[]"},{"components":[{"internalType":"enum LibOrder.OrderType","name":"orderType","type":"uint8"},{"components":[{"components":[{"internalType":"enum LibAsset.AssetType","name":"assetType","type":"uint8"},{"internalType":"address","name":"contractAddress","type":"address"},{"internalType":"uint256","name":"assetId","type":"uint256"},{"internalType":"uint256","name":"assetAmount","type":"uint256"}],"internalType":"struct LibAsset.Asset","name":"makeAsset","type":"tuple"},{"components":[{"internalType":"enum LibAsset.AssetType","name":"assetType","type":"uint8"},{"internalType":"address","name":"contractAddress","type":"address"},{"internalType":"uint256","name":"assetId","type":"uint256"},{"internalType":"uint256","name":"assetAmount","type":"uint256"}],"internalType":"struct LibAsset.Asset","name":"takeAsset","type":"tuple"},{"internalType":"uint256","name":"start","type":"uint256"},{"internalType":"uint256","name":"end","type":"uint256"}],"internalType":"struct LibOrder.OrderItem[]","name":"items","type":"tuple[]"},{"internalType":"address","name":"maker","type":"address"},{"internalType":"address","name":"taker","type":"address"},{"internalType":"bytes32","name":"root","type":"bytes32"},{"internalType":"uint256","name":"salt","type":"uint256"},{"internalType":"bytes","name":"signature","type":"bytes"}],"internalType":"struct LibOrder.Order","name":"takerOrder","type":"tuple"},{"internalType":"uint256[]","name":"orderItemIndices","type":"uint256[]"},{"internalType":"bytes32[][]","name":"proofs","type":"bytes32[][]"}],"name":"batchMatchOrders","outputs":[],"stateMutability":"payable","type":"function"},{"inputs":[{"components":[{"internalType":"enum LibOrder.OrderType","name":"orderType","type":"uint8"},{"components":[{"components":[{"internalType":"enum LibAsset.AssetType","name":"assetType","type":"uint8"},{"internalType":"address","name":"contractAddress","type":"address"},{"internalType":"uint256","name":"assetId","type":"uint256"},{"internalType":"uint256","name":"assetAmount","type":"uint256"}],"internalType":"struct LibAsset.Asset","name":"makeAsset","type":"tuple"},{"components":[{"internalType":"enum LibAsset.AssetType","name":"assetType","type":"uint8"},{"internalType":"address","name":"contractAddress","type":"address"},{"internalType":"uint256","name":"assetId","type":"uint256"},{"internalType":"uint256","name":"assetAmount","type":"uint256"}],"internalType":"struct LibAsset.Asset","name":"takeAsset","type":"tuple"},{"internalType":"uint256","name":"start","type":"uint256"},{"internalType":"uint256","name":"end","type":"uint256"}],"internalType":"struct LibOrder.OrderItem[]","name":"items","type":"tuple[]"},{"internalType":"address","name":"maker","type":"address"},{"internalType":"address","name":"taker","type":"address"},{"internalType":"bytes32","name":"root","type":"bytes32"},{"internalType":"uint256","name":"salt","type":"uint256"},{"internalType":"bytes","name":"signature","type":"bytes"}],"internalType":"struct LibOrder.Order","name":"order","type":"tuple"},{"internalType":"uint256","name":"orderItemIndex","type":"uint256"}],"name":"cancelOrder","outputs":[],"stateMutability":"nonpayable","type":"function"},{"inputs":[{"internalType":"bytes32","name":"","type":"bytes32"}],"name":"collectionBidFillAmount","outputs":[{"internalType":"uint256","name":"","type":"uint256"}],"stateMutability":"view","type":"function"},{"inputs":[],"name":"eip712Domain","outputs":[{"internalType":"bytes1","name":"fields","type":"bytes1"},{"internalType":"string","name":"name","type":"string"},{"internalType":"string","name":"version","type":"string"},{"internalType":"uint256","name":"chainId","type":"uint256"},{"internalType":"address","name":"verifyingContract","type":"address"},{"internalType":"bytes32","name":"salt","type":"bytes32"},{"internalType":"uint256[]","name":"extensions","type":"uint256[]"}],"stateMutability":"view","type":"function"},{"inputs":[],"name":"emergencyWithdraw","outputs":[],"stateMutability":"nonpayable","type":"function"},{"inputs":[],"name":"feeBps","outputs":[{"internalType":"uint256","name":"","type":"uint256"}],"stateMutability":"view","type":"function"},{"inputs":[],"name":"feeRecipient","outputs":[{"internalType":"address","name":"","type":"address"}],"stateMutability":"view","type":"function"},{"inputs":[{"components":[{"internalType":"address","name":"maker","type":"address"},{"components":[{"internalType":"enum LibAsset.AssetType","name":"assetType","type":"uint8"},{"internalType":"address","name":"contractAddress","type":"address"},{"internalType":"uint256","name":"assetId","type":"uint256"},{"internalType":"uint256","name":"assetAmount","type":"uint256"}],"internalType":"struct LibAsset.Asset","name":"asset","type":"tuple"},{"internalType":"uint256","name":"startPrice","type":"uint256"},{"internalType":"uint256","name":"buyNowPrice","type":"uint256"},{"internalType":"uint256","name":"startTime","type":"uint256"},{"internalType":"uint256","name":"endTime","type":"uint256"},{"internalType":"uint256","name":"salt","type":"uint256"},{"internalType":"bytes","name":"signature","type":"bytes"}],"internalType":"struct LibAuction.Auction","name":"auction","type":"tuple"},{"internalType":"bytes","name":"signature","type":"bytes"}],"name":"finalizeAuction","outputs":[],"stateMutability":"nonpayable","type":"function"},{"inputs":[{"internalType":"bytes32","name":"","type":"bytes32"}],"name":"highestBids","outputs":[{"internalType":"address","name":"bidder","type":"address"},{"internalType":"uint256","name":"amount","type":"uint256"},{"internalType":"uint256","name":"timestamp","type":"uint256"}],"stateMutability":"view","type":"function"},{"inputs":[{"components":[{"internalType":"enum LibOrder.OrderType","name":"orderType","type":"uint8"},{"components":[{"components":[{"internalType":"enum LibAsset.AssetType","name":"assetType","type":"uint8"},{"internalType":"address","name":"contractAddress","type":"address"},{"internalType":"uint256","name":"assetId","type":"uint256"},{"internalType":"uint256","name":"assetAmount","type":"uint256"}],"internalType":"struct LibAsset.Asset","name":"makeAsset","type":"tuple"},{"components":[{"internalType":"enum LibAsset.AssetType","name":"assetType","type":"uint8"},{"internalType":"address","name":"contractAddress","type":"address"},{"internalType":"uint256","name":"assetId","type":"uint256"},{"internalType":"uint256","name":"assetAmount","type":"uint256"}],"internalType":"struct LibAsset.Asset","name":"takeAsset","type":"tuple"},{"internalType":"uint256","name":"start","type":"uint256"},{"internalType":"uint256","name":"end","type":"uint256"}],"internalType":"struct LibOrder.OrderItem[]","name":"items","type":"tuple[]"},{"internalType":"address","name":"maker","type":"address"},{"internalType":"address","name":"taker","type":"address"},{"internalType":"bytes32","name":"root","type":"bytes32"},{"internalType":"uint256","name":"salt","type":"uint256"},{"internalType":"bytes","name":"signature","type":"bytes"}],"internalType":"struct LibOrder.Order","name":"order","type":"tuple"},{"internalType":"uint256","name":"orderItemIndex","type":"uint256"}],"name":"isOrderCancelled","outputs":[{"internalType":"bool","name":"","type":"bool"}],"stateMutability":"view","type":"function"},{"inputs":[{"components":[{"internalType":"enum LibOrder.OrderType","name":"orderType","type":"uint8"},{"components":[{"components":[{"internalType":"enum LibAsset.AssetType","name":"assetType","type":"uint8"},{"internalType":"address","name":"contractAddress","type":"address"},{"internalType":"uint256","name":"assetId","type":"uint256"},{"internalType":"uint256","name":"assetAmount","type":"uint256"}],"internalType":"struct LibAsset.Asset","name":"makeAsset","type":"tuple"},{"components":[{"internalType":"enum LibAsset.AssetType","name":"assetType","type":"uint8"},{"internalType":"address","name":"contractAddress","type":"address"},{"internalType":"uint256","name":"assetId","type":"uint256"},{"internalType":"uint256","name":"assetAmount","type":"uint256"}],"internalType":"struct LibAsset.Asset","name":"takeAsset","type":"tuple"},{"internalType":"uint256","name":"start","type":"uint256"},{"internalType":"uint256","name":"end","type":"uint256"}],"internalType":"struct LibOrder.OrderItem[]","name":"items","type":"tuple[]"},{"internalType":"address","name":"maker","type":"address"},{"internalType":"address","name":"taker","type":"address"},{"internalType":"bytes32","name":"root","type":"bytes32"},{"internalType":"uint256","name":"salt","type":"uint256"},{"internalType":"bytes","name":"signature","type":"bytes"}],"internalType":"struct LibOrder.Order","name":"order","type":"tuple"},{"internalType":"uint256","name":"orderItemIndex","type":"uint256"}],"name":"isOrderFullyFilled","outputs":[{"internalType":"bool","name":"","type":"bool"}],"stateMutability":"view","type":"function"},{"inputs":[{"components":[{"internalType":"enum LibOrder.OrderType","name":"orderType","type":"uint8"},{"components":[{"components":[{"internalType":"enum LibAsset.AssetType","name":"assetType","type":"uint8"},{"internalType":"address","name":"contractAddress","type":"address"},{"internalType":"uint256","name":"assetId","type":"uint256"},{"internalType":"uint256","name":"assetAmount","type":"uint256"}],"internalType":"struct LibAsset.Asset","name":"makeAsset","type":"tuple"},{"components":[{"internalType":"enum LibAsset.AssetType","name":"assetType","type":"uint8"},{"internalType":"address","name":"contractAddress","type":"address"},{"internalType":"uint256","name":"assetId","type":"uint256"},{"internalType":"uint256","name":"assetAmount","type":"uint256"}],"internalType":"struct LibAsset.Asset","name":"takeAsset","type":"tuple"},{"internalType":"uint256","name":"start","type":"uint256"},{"internalType":"uint256","name":"end","type":"uint256"}],"internalType":"struct LibOrder.OrderItem[]","name":"items","type":"tuple[]"},{"internalType":"address","name":"maker","type":"address"},{"internalType":"address","name":"taker","type":"address"},{"internalType":"bytes32","name":"root","type":"bytes32"},{"internalType":"uint256","name":"salt","type":"uint256"},{"internalType":"bytes","name":"signature","type":"bytes"}],"internalType":"struct LibOrder.Order","name":"makerOrder","type":"tuple"},{"components":[{"internalType":"enum LibOrder.OrderType","name":"orderType","type":"uint8"},{"components":[{"components":[{"internalType":"enum LibAsset.AssetType","name":"assetType","type":"uint8"},{"internalType":"address","name":"contractAddress","type":"address"},{"internalType":"uint256","name":"assetId","type":"uint256"},{"internalType":"uint256","name":"assetAmount","type":"uint256"}],"internalType":"struct LibAsset.Asset","name":"makeAsset","type":"tuple"},{"components":[{"internalType":"enum LibAsset.AssetType","name":"assetType","type":"uint8"},{"internalType":"address","name":"contractAddress","type":"address"},{"internalType":"uint256","name":"assetId","type":"uint256"},{"internalType":"uint256","name":"assetAmount","type":"uint256"}],"internalType":"struct LibAsset.Asset","name":"takeAsset","type":"tuple"},{"internalType":"uint256","name":"start","type":"uint256"},{"internalType":"uint256","name":"end","type":"uint256"}],"internalType":"struct LibOrder.OrderItem[]","name":"items","type":"tuple[]"},{"internalType":"address","name":"maker","type":"address"},{"internalType":"address","name":"taker","type":"address"},{"internalType":"bytes32","name":"root","type":"bytes32"},{"internalType":"uint256","name":"salt","type":"uint256"},{"internalType":"bytes","name":"signature","type":"bytes"}],"internalType":"struct LibOrder.Order","name":"takerOrder","type":"tuple"},{"internalType":"uint256","name":"orderItemIndex","type":"uint256"},{"internalType":"bytes32[]","name":"proof","type":"bytes32[]"}],"name":"matchOrders","outputs":[],"stateMutability":"payable","type":"function"},{"inputs":[{"internalType":"bytes32","name":"","type":"bytes32"},{"internalType":"uint256","name":"","type":"uint256"}],"name":"orderFillAmount","outputs":[{"internalType":"uint256","name":"","type":"uint256"}],"stateMutability":"view","type":"function"},{"inputs":[],"name":"owner","outputs":[{"internalType":"address","name":"","type":"address"}],"stateMutability":"view","type":"function"},{"inputs":[],"name":"pause","outputs":[],"stateMutability":"nonpayable","type":"function"},{"inputs":[],"name":"paused","outputs":[{"internalType":"bool","name":"","type":"bool"}],"stateMutability":"view","type":"function"},{"inputs":[],"name":"renounceOwnership","outputs":[],"stateMutability":"nonpayable","type":"function"},{"inputs":[{"internalType":"address","name":"_agent","type":"address"}],"name":"setAssetTransferAgent","outputs":[],"stateMutability":"nonpayable","type":"function"},{"inputs":[{"internalType":"address","name":"_auctionVault","type":"address"}],"name":"setAuctionVault","outputs":[],"stateMutability":"nonpayable","type":"function"},{"inputs":[{"internalType":"uint256","name":"_feeBps","type":"uint256"}],"name":"setFeeBps","outputs":[],"stateMutability":"nonpayable","type":"function"},{"inputs":[{"internalType":"address","name":"_feeRecipient","type":"address"}],"name":"setFeeRecipient","outputs":[],"stateMutability":"nonpayable","type":"function"},{"inputs":[{"components":[{"internalType":"address","name":"maker","type":"address"},{"components":[{"internalType":"enum LibAsset.AssetType","name":"assetType","type":"uint8"},{"internalType":"address","name":"contractAddress","type":"address"},{"internalType":"uint256","name":"assetId","type":"uint256"},{"internalType":"uint256","name":"assetAmount","type":"uint256"}],"internalType":"struct LibAsset.Asset","name":"asset","type":"tuple"},{"internalType":"uint256","name":"startPrice","type":"uint256"},{"internalType":"uint256","name":"buyNowPrice","type":"uint256"},{"internalType":"uint256","name":"startTime","type":"uint256"},{"internalType":"uint256","name":"endTime","type":"uint256"},{"internalType":"uint256","name":"salt","type":"uint256"},{"internalType":"bytes","name":"signature","type":"bytes"}],"internalType":"struct LibAuction.Auction","name":"auction","type":"tuple"}],"name":"submitAuctionBid","outputs":[],"stateMutability":"payable","type":"function"},{"inputs":[{"internalType":"address","name":"newOwner","type":"address"}],"name":"transferOwnership","outputs":[],"stateMutability":"nonpayable","type":"function"},{"inputs":[],"name":"unpause","outputs":[],"stateMutability":"nonpayable","type":"function"},{"inputs":[{"internalType":"bytes32[]","name":"proof","type":"bytes32[]"},{"internalType":"bytes32","name":"root","type":"bytes32"},{"internalType":"bytes32","name":"leaf","type":"bytes32"}],"name":"verifyMerkleProof","outputs":[{"internalType":"bool","name":"","type":"bool"}],"stateMutability":"pure","type":"function"},{"stateMutability":"payable","type":"receive"}],"evm":{"bytecode":{"linkReferences":{"contracts/libraries/LibAuction.sol":{"LibAuction":[{"length":20,"start":6268},{"length":20,"start":16486}]}},"object":"6101608060405234610338576080816153cb8038038091610020828561033d565b8339810103126103385761003381610376565b61003f60208301610376565b91606061004e60408301610376565b9101519160405161006060408261033d565b601181526020810190704c61796572474d61726b6574506c61636560781b82526040519161008f60408461033d565b600183526020830191603160f81b835260016000556001543360018060a01b0382167f8be0079c531659141344cd1fd0a4f28419497f9722a3daafe3b4186f6b6457e0600080a36001600160a81b0319163360ff60a01b1916176001556100f58161038a565b610120526101028461054e565b61014052519020918260e05251902080610100524660a0526040519060208201927f8b73c3c69bb8fe3d512ecc4cf759cc79239f7b179b0ffacaa9a75d522b39400f8452604083015260608201524660808201523060a082015260a0815261016b60c08261033d565b5190206080523060c0526001600160a01b03169283156102f3576001600160a01b03169081156102ae576001600160a01b03169283156102695761271083116102325760018060a01b0319600454161760045560018060a01b0319600554161760055560075560018060a01b03196006541617600655604051614cde90816106ed8239608051816149e9015260a05181614aa0015260c051816149b3015260e05181614a3801526101005181614a5e015261012051816108dd015261014051816109060152f35b60405162461bcd60e51b815260206004820152600f60248201526e496e76616c6964206665652042505360881b6044820152606490fd5b60405162461bcd60e51b815260206004820152601560248201527f496e76616c69642061756374696f6e207661756c7400000000000000000000006044820152606490fd5b60405162461bcd60e51b815260206004820152601c60248201527f496e76616c6964206173736574207472616e73666572206167656e74000000006044820152606490fd5b60405162461bcd60e51b815260206004820152601560248201527f496e76616c69642066656520726563697069656e7400000000000000000000006044820152606490fd5b600080fd5b601f909101601f19168101906001600160401b0382119082101761036057604052565b634e487b7160e01b600052604160045260246000fd5b51906001600160a01b038216820361033857565b90815160208110600014610422575090601f8151116103c65760208151910151602082106103b6571790565b6000198260200360031b1b161790565b6040519063305a27a960e01b8252602060048301528181519182602483015260005b83811061040a5750508160006044809484010152601f80199101168101030190fd5b602082820181015160448784010152859350016103e8565b6001600160401b03811161036057600254600181811c91168015610544575b602082101461052e57601f81116104f8575b50602092601f82116001146104935792819293600092610488575b50508160011b916000199060031b1c19161760025560ff90565b01519050388061046e565b601f198216936002600052806000209160005b8681106104e057508360019596106104c7575b505050811b0160025560ff90565b015160001960f88460031b161c191690553880806104b9565b919260206001819286850151815501940192016104a6565b6002600052601f6020600020910160051c810190601f830160051c015b8181106105225750610453565b60008155600101610515565b634e487b7160e01b600052602260045260246000fd5b90607f1690610441565b908151602081106000146105d6575090601f81511161057a5760208151910151602082106103b6571790565b6040519063305a27a960e01b8252602060048301528181519182602483015260005b8381106105be5750508160006044809484010152601f80199101168101030190fd5b6020828201810151604487840101528593500161059c565b6001600160401b03811161036057600354600181811c911680156106e2575b602082101461052e57601f81116106ac575b50602092601f8211600114610647579281929360009261063c575b50508160011b916000199060031b1c19161760035560ff90565b015190503880610622565b601f198216936003600052806000209160005b868110610694575083600195961061067b575b505050811b0160035560ff90565b015160001960f88460031b161c1916905538808061066d565b9192602060018192868501518155019401920161065a565b6003600052601f6020600020910160051c810190601f830160051c015b8181106106d65750610607565b600081556001016106c9565b90607f16906105f556fe6080604052600436101561001b575b361561001957600080fd5b005b60003560e01c806314414cc01461023b5780631ef1c7d21461023657806324a9d853146102315780632e1cbea21461022c57806336bacfd5146102275780633a9fae7c146102225780633f4ba83a1461021d5780633fb351781461021857806346904840146102135780634715399c1461020e57806348a220a4146102095780635c975abb146102045780635d704aea146101ff5780636199d280146101fa578063703cebfe146101f5578063715018a6146101f057806372c27b62146101eb5780638456cb59146101e657806384b0196e146101e1578063892987b5146101dc5780638da5cb5b146101d7578063a83fb54f146101d2578063ada4fa18146101cd578063bc2db5c4146101c8578063bf76c032146101c3578063c2f50a7a146101be578063ca200ad8146101b9578063d418fc42146101b4578063d55be8c6146101af578063db2e21bc146101aa578063e74b981b146101a5578063ecf66145146101a0578063eded1f001461019b5763f2fde38b0361000e576118bb565b61187f565b6116cd565b611618565b611551565b611534565b611132565b611075565b611058565b610e1c565b610bf7565b610baa565b610a39565b610a10565b6109c5565b6108c4565b6107fb565b610762565b610705565b6106ec565b610672565b610637565b610611565b6105e8565b6105bf565b610596565b610578565b6104b6565b610485565b6103d0565b61038f565b610340565b6102aa565b610250565b600091031261024b57565b600080fd5b3461024b57600036600319011261024b57602060405160648152f35b9181601f8401121561024b578235916001600160401b03831161024b576020808501948460051b01011161024b57565b908160e091031261024b5790565b608036600319011261024b576004356001600160401b03811161024b576102d590369060040161026c565b6024356001600160401b03811161024b576102f490369060040161029c565b916044356001600160401b03811161024b5761031490369060040161026c565b90606435946001600160401b03861161024b5761033861001996369060040161026c565b95909461198c565b3461024b57600036600319011261024b576020600754604051908152f35b604060031982011261024b57600435906001600160401b03821161024b576103889160040161029c565b9060243590565b3461024b5760206103a86103a23661035e565b9061208c565b6040519015158152f35b6001600160a01b0381160361024b57565b35906103ce826103b2565b565b3461024b57602036600319011261024b576004356103ed816103b2565b6103f56138fd565b6001600160a01b0316801561044857600680546001600160a01b0319811683179091556001600160a01b03167ffff6ec843c076928bdba3d6b453f492a57d829b973c56036b5f7d30955d7b01b600080a3005b60405162461bcd60e51b8152602060048201526015602482015274125b9d985b1a5908185d58dd1a5bdb881d985d5b1d605a1b6044820152606490fd5b3461024b57602036600319011261024b57600435600052600b602052602060ff604060002054166040519015158152f35b3461024b57600036600319011261024b576104cf6138fd565b60015460ff8160a01c161561053c5760ff60a01b19166001556040513381527f5db9ee0a495bf2e6ff9c91a7834c1ba4fdd244a5e8aa4e537bd38aeae4b073aa90602090a1337f385a28cf4754bd62fde01bcce82b673bd45cb357f835cf679a756de5d8e93bcd600080a2005b60405162461bcd60e51b815260206004820152601460248201527314185d5cd8589b194e881b9bdd081c185d5cd95960621b6044820152606490fd5b3461024b57600036600319011261024b57602060405162278d008152f35b3461024b57600036600319011261024b576004546040516001600160a01b039091168152602090f35b3461024b57600036600319011261024b576005546040516001600160a01b039091168152602090f35b3461024b57600036600319011261024b576006546040516001600160a01b039091168152602090f35b3461024b57600036600319011261024b57602060ff60015460a01c166040519015158152f35b3461024b57602036600319011261024b57600435600052600c6020526020604060002054604051908152f35b908161016091031261024b5790565b3461024b57604036600319011261024b576004356001600160401b03811161024b576106a2903690600401610663565b602435906001600160401b03821161024b573660238301121561024b578160040135906001600160401b03821161024b57366024838501011161024b5760246100199301906120b5565b3461024b5760206103a86106ff3661035e565b90612498565b3461024b57600036600319011261024b5761071e6138fd565b600180546001600160a01b031981169091556000906001600160a01b03167f8be0079c531659141344cd1fd0a4f28419497f9722a3daafe3b4186f6b6457e08280a3005b3461024b57602036600319011261024b5760043561077e6138fd565b61271081116107c45760078054908290556040805191825260208201929092527f5ec5620e288c4be955ccb6cfb3d55431a8fed5c4c96ffacc4b9506360695f64e9190a1005b60405162461bcd60e51b815260206004820152600f60248201526e496e76616c6964206665652042505360881b6044820152606490fd5b3461024b57600036600319011261024b576108146138fd565b61081c612de4565b6001805460ff60a01b1916600160a01b1790556040513381527f62e78cea01bee320cd4e420270b5ea74000d11b0c9f74754ebdbfc544b05a25890602090a1337f720419d686e04979382078792dce127b7417b1f1b934573e9ae7a7d40eb86e87600080a2005b919082519283825260005b8481106108af575050826000602080949584010152601f8019910116010190565b8060208092840101518282860101520161088e565b3461024b57600036600319011261024b5761096a6109017f00000000000000000000000000000000000000000000000000000000000000006140e2565b61092a7f00000000000000000000000000000000000000000000000000000000000000006141cc565b60206040516109398282611eff565b600081528161097881830194601f198301368737604051978897600f60f81b895260e0858a015260e0890190610883565b908782036040890152610883565b91466060870152306080870152600060a087015285830360c0870152519182815201929160005b8281106109ae57505050500390f35b83518552869550938101939281019260010161099f565b3461024b57602036600319011261024b57600435600052600a6020526060604060002060018060a01b0381541690600260018201549101549060405192835260208301526040820152f35b3461024b57600036600319011261024b576001546040516001600160a01b039091168152602090f35b3461024b57610a473661035e565b90610a50612d8e565b610a58612de4565b610a89610a6482613292565b610a6c6149b0565b6042916040519161190160f01b8352600283015260228201522090565b90610a938161437e565b60408101908135610aa3816103b2565b6001600160a01b03163303610b6d577f86fb430316545beabd846d7b2eb3e7238960c028d31125164851a3f2305f7c9b91610b05610b00610af28785610afb610af6610af284610b609a612498565b1590565b6124ee565b61208c565b612531565b610b3c610b2f86610b20876000526009602052604060002090565b90600052602052604060002090565b805460ff19166001179055565b6001600160a01b0390610b4e90611d3c565b60405195865216939081906020820190565b0390a36100196001600055565b60405162461bcd60e51b815260206004820152601560248201527413db9b1e481b585ad95c8818d85b8818d85b98d95b605a1b6044820152606490fd5b3461024b57606036600319011261024b576004356001600160401b03811161024b576103a8610bdf602092369060040161026c565b90610bf26024359160443593369161257d565b614466565b3461024b57606036600319011261024b576004356001600160401b03811161024b57610c2790369060040161029c565b60243560443591610c36612d8e565b610c3e612de4565b610c59610c4a82611ea1565b610c5381611e92565b156125c9565b610dd4610cf96040610c6a84613292565b93610c748161437e565b610ce6610c96610c9188610c8b6020860186611d9d565b90611e61565b612658565b96610cd2610cc260608a510151610cbb84610b208c6000526008602052604060002090565b5490611ff8565b8a15159081610e11575b50612663565b610b20876000526008602052604060002090565b610cf1888254611f9f565b905501611d3c565b6001600160a01b0381169390610d108515156126a5565b610d1b3315156126ea565b610dce6020610d2a8451611f69565b845182810151919591610d68906040906001600160a01b031692015191610d59610d52611f20565b9889611f5d565b6001600160a01b031687850152565b60408601528860608601520192610d7f8451611f69565b93516020810151610dbc906040906001600160a01b031692015191610dac610da5611f20565b9788611f5d565b6001600160a01b03166020870152565b604085015287606085015233836135bb565b336135bb565b60405192835233927f2b2be5bdc62aaf8dbe8a0ffac99e7335c8d1245aa56d1d50e01fc21177fb22779080602081015b0390a46100196001600055565b90508a111538610ccc565b608036600319011261024b576004356001600160401b03811161024b57610e4790369060040161029c565b6024356001600160401b03811161024b57610e6690369060040161029c565b9060443590606435906001600160401b03821161024b57610e0484611011610f486040610f41817f2b2be5bdc62aaf8dbe8a0ffac99e7335c8d1245aa56d1d50e01fc21177fb227797610ebe879a369060040161026c565b610ec6612d8e565b610ece612de4565b610f018d610efa610ef4610ee983610c8b60208a018a611d9d565b9c6020810190611d9d565b90611e58565b9d85613048565b6002610f0c84611ea1565b610f1581611e92565b14611042575b5050610f3b60e0610f2b83613292565b9b01359b60608901358d8d613364565b01611d3c565b9801611d3c565b9161100a610f5582611ebf565b91610f6260208201611d3c565b610f8d604083013591610f7d610f76611f20565b9687611f5d565b6001600160a01b03166020860152565b6040840152886060840152610fa460808201611ebf565b90610fdc60c0610fb660a08401611d3c565b92013591610fcc610fc5611f20565b9485611f5d565b6001600160a01b03166020840152565b6040820152606081018981528151610ff381611eb5565b610ffc81611eb5565b1561102f575b5089856135bb565b82886135bb565b6040519485526001600160a01b039081169516939081906020820190565b61103c905134101561272f565b38611002565b6110519160808401358a613158565b3880610f1b565b3461024b57600036600319011261024b576020604051610e108152f35b3461024b57602036600319011261024b57600435611092816103b2565b61109a6138fd565b6001600160a01b031680156110ed57600580546001600160a01b0319811683179091556001600160a01b03167f6488517f0ed01887d76eb198684456f20dab9ab4dad305bd0c0247c7eaafdcf7600080a3005b60405162461bcd60e51b815260206004820152601c60248201527f496e76616c6964206173736574207472616e73666572206167656e74000000006044820152606490fd5b602036600319011261024b576004356001600160401b03811161024b5761115d903690600401610663565b611165612d8e565b61116d612de4565b604051631344d6d960e11b81526020818061118b8560048301612827565b038173__$9bf758efd8785ea888de3f7a696bc2dc09$__5af490811561146057600091611505575b506111d06001600160a01b036111c884611d3c565b16151561229c565b6111db3315156126a5565b6111fe6111f66111ea84611d3c565b6001600160a01b031690565b3314156128bc565b61125862278d0061125160e085013561121981421015612908565b61010086013561122a81421061294a565b611235828211612986565b61124c610e106112458484611ff8565b10156129d2565b611ff8565b1115612a12565b61128161127c610af261127584600052600b602052604060002090565b5460ff1690565b612a51565b61128a8261451f565b61129a60a0830135341015612a9d565b6112b96112a683611d3c565b6112b336602086016123a2565b90613b74565b6112cd81600052600a602052604060002090565b6112ee60018201549182151592836114d6575b50546001600160a01b031690565b90611465575b5060065461130c906111ea906001600160a01b031681565b61131583611d3c565b90803b1561024b5760405163397ae56160e21b8152600481018490526001600160a01b03929092166024830152336044830152346064830181905260009183916084918391905af1801561146057611445575b506113cc611374611f2f565b33815234602082015242604082015261139783600052600a602052604060002090565b815181546001600160a01b0319166001600160a01b039190911617815560208201516001820155604090910151600290910155565b60408051348152426020820152339183917fa9d1969315752a4d63387f7972393f147be8c4662b0a2af2db8a4b0f0a953c659190a360c0820135801515908161143a575b50611420575b6100196001600055565b61142e61143392369061240b565b613e1e565b3880611416565b905034101538611410565b80611454600061145a93611eff565b80610240565b38611368565b6128b0565b60065461147c906111ea906001600160a01b031681565b803b1561024b5760405163116d00cb60e21b8152600481018490526001600160a01b039290921660248301526000908290604490829084905af1801561146057156112f4578061145460006114d093611eff565b386112f4565b6114f7816114f16114e96114ff94612ae1565b612710900490565b90611f9f565b341015612b0a565b386112e0565b611527915060203d60201161152d575b61151f8183611eff565b810190612774565b386111b3565b503d611515565b3461024b57600036600319011261024b5760206040516127108152f35b3461024b57600036600319011261024b5761156a6138fd565b4780156115dc576115a16000808080856115916111ea6111ea60015460018060a01b031690565b5af161159b612020565b50612b56565b6001546040519182526001600160a01b0316907f23d6711a1d031134a36921253c75aa59e967d38e369ac625992824315e204f2090602090a2005b60405162461bcd60e51b81526020600482015260146024820152734e6f2066756e647320746f20776974686472617760601b6044820152606490fd5b3461024b57602036600319011261024b57600435611635816103b2565b61163d6138fd565b6001600160a01b0316801561169057600480546001600160a01b0319811683179091556001600160a01b03167faaebcf1bfa00580e41d966056b48521fa9f202645c86d4ddf28113e617c1b1d3600080a3005b60405162461bcd60e51b8152602060048201526015602482015274125b9d985b1a5908199959481c9958da5c1a595b9d605a1b6044820152606490fd5b3461024b57604036600319011261024b576004356001600160401b03811161024b576116fd903690600401610663565b60243590611709612d8e565b611744610dd461171883611d3c565b9360a0840194610dce61172a87611d3c565b9561174961173c610140830183612ba2565b9790986145c5565b612bd4565b61176a611765610af261175c3685612c20565b60a00151421190565b612cad565b6001600160a01b038316966117f5906117d8906117d29061178d338c1415612ce7565b61179e61179986614748565b6146e5565b996117cb6117bf6117b98d600052600c602052604060002090565b54611f8c565b60c08801351015612d33565b3691612225565b886146f1565b6117e46111ea84611d3c565b6001600160a01b039091161461225c565b611803608082013598611d3c565b9361181961180f611f20565b6003815295610dac565b60408501526001606085015261183160208201611ebf565b906118436060610fb660408401611d3c565b60408201528760608201526118588433613b74565b61186c86600052600c602052604060002090565b6118768154612d7f565b905533836135bb565b3461024b57604036600319011261024b576004356024359060005260086020526040600020906000526020526020604060002054604051908152f35b3461024b57602036600319011261024b576004356118d8816103b2565b6118e06138fd565b6001600160a01b0381161561193857600180546001600160a01b039283166001600160a01b0319821681179092559091167f8be0079c531659141344cd1fd0a4f28419497f9722a3daafe3b4186f6b6457e0600080a3005b60405162461bcd60e51b815260206004820152602660248201527f4f776e61626c653a206e6577206f776e657220697320746865207a65726f206160448201526564647265737360d01b6064820152608490fd5b91939295909461199a612d8e565b6119a2612de4565b6119ad848714611c3b565b6119b8828714611c79565b6119c3861515611cbe565b6000966020860193885b888110611a2a57505050505050505050806119ee575b506103ce6001600055565b806119fe611a0492341015611fac565b34611ff8565b80156119e3576000808080611a2494335af1611a1e612020565b50612050565b386119e3565b611a47611a406111ea6040610f3b858e88611d15565b1515611d49565b611a77611a55828986611d8d565b35611a6e611a64848d87611d15565b6020810190611d9d565b91905010611dd3565b85611a83828b85611d15565b89611b056040611a94868d8a611d8d565b3593611aa1878c8c611e14565b611acb87611ac48b610c8b611abd84610c8b60208b018b611d9d565b9c8b611d9d565b9785613048565b6002611ad684611ea1565b611adf81611e92565b14611c25575b5050610f3b60e0611af583613292565b9501359560608801358787613364565b92611b1260408d01611d3c565b90611b1c81611ebf565b90611b2960208201611d3c565b611b54604083013591611b44611b3d611f20565b9586611f5d565b6001600160a01b03166020850152565b6040830152846060830152611b6b60808201611ebf565b90611b7d60c0610fb660a08401611d3c565b60408201528460608201528051611b9381611eb5565b611b9c81611eb5565b15611c03575b82611bdc7f2b2be5bdc62aaf8dbe8a0ffac99e7335c8d1245aa56d1d50e01fc21177fb22779361100a611bfa948a60019c9b9a99986135bb565b60405194855260a088901b8890039081169516939081906020820190565b0390a4016119cd565b9e8f6060909796959493970151611c1991611f9f565b9e959192939495611ba2565b611c3491608084013589613158565b3880611ae5565b15611c4257565b60405162461bcd60e51b815260206004820152600f60248201526e098cadccee8d040dad2e6dac2e8c6d608b1b6044820152606490fd5b15611c8057565b60405162461bcd60e51b81526020600482015260166024820152750a0e4dedecce640d8cadccee8d040dad2e6dac2e8c6d60531b6044820152606490fd5b15611cc557565b60405162461bcd60e51b8152602060048201526012602482015271456d707479206f726465727320617272617960701b6044820152606490fd5b634e487b7160e01b600052603260045260246000fd5b9190811015611d375760051b8101359060de198136030182121561024b570190565b611cff565b35611d46816103b2565b90565b15611d5057565b60405162461bcd60e51b8152602060048201526015602482015274496e76616c6964206d616b6572206164647265737360581b6044820152606490fd5b9190811015611d375760051b0190565b903590601e198136030182121561024b57018035906001600160401b03821161024b576020019161014082023603831361024b57565b15611dda57565b60405162461bcd60e51b8152602060048201526012602482015271092dcecc2d8d2c840d2e8cada40d2dcc8caf60731b6044820152606490fd5b9190811015611d375760051b81013590601e198136030182121561024b5701908135916001600160401b03831161024b576020018260051b3603811361024b579190565b9015611d375790565b9190811015611d3757610140020190565b6003111561024b57565b634e487b7160e01b600052602160045260246000fd5b60031115611e9c57565b611e7c565b35611d4681611e72565b6004111561024b57565b60041115611e9c57565b35611d4681611eab565b634e487b7160e01b600052604160045260246000fd5b608081019081106001600160401b03821117611efa57604052565b611ec9565b90601f801991011681019081106001600160401b03821117611efa57604052565b604051906103ce608083611eff565b604051906103ce606083611eff565b604051906103ce61010083611eff565b604051906103ce60e083611eff565b6004821015611e9c5752565b516004811015611e9c5790565b634e487b7160e01b600052601160045260246000fd5b9060018201809211611f9a57565b611f76565b91908201809211611f9a57565b15611fb357565b60405162461bcd60e51b815260206004820152601c60248201527f496e73756666696369656e7420746f74616c206d73672e76616c7565000000006044820152606490fd5b91908203918211611f9a57565b6001600160401b038111611efa57601f01601f191660200190565b3d1561204b573d9061203182612005565b9161203f6040519384611eff565b82523d6000602084013e565b606090565b1561205757565b60405162461bcd60e51b815260206004820152600d60248201526c1499599d5b990819985a5b1959609a1b6044820152606490fd5b61209590613292565b600052600960205260406000209060005260205260ff6040600020541690565b61142e9061211f61211a61211461219b96956120cf612d8e565b6120d7612de4565b6120e085613955565b966121036120fe610af26112758b600052600b602052604060002090565b6121a5565b6117cb6101008701354210156121e5565b836139c8565b61225c565b6121336001600160a01b036111c883611d3c565b61217b6121746111ea61215861215387600052600a602052604060002090565b6122e0565b61216760208201511515612320565b516001600160a01b031690565b151561235d565b61219461218782611d3c565b6112b336602085016123a2565b369061240b565b6103ce6001600055565b156121ac57565b60405162461bcd60e51b8152602060048201526011602482015270105b1c9958591e48199a5b985b1a5e9959607a1b6044820152606490fd5b156121ec57565b60405162461bcd60e51b8152602060048201526011602482015270105d58dd1a5bdb881b9bdd08195b991959607a1b6044820152606490fd5b92919261223182612005565b9161223f6040519384611eff565b82948184528183011161024b578281602093846000960137010152565b1561226357565b60405162461bcd60e51b8152602060048201526011602482015270496e76616c6964207369676e617475726560781b6044820152606490fd5b156122a357565b60405162461bcd60e51b815260206004820152601560248201527424b73b30b634b21030bab1ba34b7b71036b0b5b2b960591b6044820152606490fd5b90604051606081018181106001600160401b03821117611efa5760405260406002829460018060a01b038154168452600181015460208501520154910152565b1561232757565b60405162461bcd60e51b815260206004820152600e60248201526d139bc8189a591cc81c1b1858d95960921b6044820152606490fd5b1561236457565b60405162461bcd60e51b815260206004820152601660248201527524b73b30b634b2103bb4b73734b733903134b23232b960511b6044820152606490fd5b919082608091031261024b576040516123ba81611edf565b606080829480356123ca81611eab565b845260208101356123da816103b2565b6020850152604081013560408501520135910152565b9080601f8301121561024b57816020611d4693359101612225565b9190916101608184031261024b57612421611f3e565b9261242b826103c3565b845261243a81602084016123a2565b602085015260a0820135604085015260c0820135606085015260e0820135608085015261010082013560a085015261012082013560c08501526101408201356001600160401b03811161024b5761249192016123f0565b60e0830152565b906124d06060916124a884613292565b6000526008602052604060002081600052602052610c8b604060002054946020810190611d9d565b0135111590565b6001600160401b038111611efa5760051b60200190565b156124f557565b60405162461bcd60e51b815260206004820152601460248201527313dc99195c88185b1c9958591e48199a5b1b195960621b6044820152606490fd5b1561253857565b60405162461bcd60e51b815260206004820152601760248201527f4f7264657220616c72656164792063616e63656c6c65640000000000000000006044820152606490fd5b929190612589816124d7565b936125976040519586611eff565b602085838152019160051b810192831161024b57905b8282106125b957505050565b81358152602091820191016125ad565b156125d057565b60405162461bcd60e51b815260206004820152600f60248201526e2737ba1030903134b21037b93232b960891b6044820152606490fd5b9190916101408184031261024b5760606101206040519261262784611edf565b612641849661263681846123a2565b8652608083016123a2565b602085015261010081013560408501520135910152565b611d46903690612607565b1561266a57565b60405162461bcd60e51b8152602060048201526013602482015272125b9d985b1a59081cd95b1b08185b5bdd5b9d606a1b6044820152606490fd5b156126ac57565b60405162461bcd60e51b8152602060048201526016602482015275496e76616c696420626964646572206164647265737360501b6044820152606490fd5b156126f157565b60405162461bcd60e51b8152602060048201526016602482015275496e76616c69642073656c6c6572206164647265737360501b6044820152606490fd5b1561273657565b60405162461bcd60e51b8152602060048201526016602482015275496e73756666696369656e74206d73672e76616c756560501b6044820152606490fd5b9081602091031261024b575190565b906004821015611e9c5752565b606080916127a88482356127a381611eab565b612783565b60208101356127b6816103b2565b6001600160a01b03166020850152604081810135908501520135910152565b9035601e198236030181121561024b5701602081359101916001600160401b03821161024b57813603831361024b57565b908060209392818452848401376000828201840152601f01601f1916010190565b61018061289f611d4693602084528035612840816103b2565b60018060a01b0316602085015261285d6040850160208301612790565b60a081013560c085015260c081013560e085015260e08101356101008501526101008101356101208501526101208101356101408501526101408101906127d5565b919092610160808201520191612806565b6040513d6000823e3d90fd5b156128c357565b60405162461bcd60e51b815260206004820152601f60248201527f4d616b65722063616e6e6f7420626964206f6e206f776e2061756374696f6e006044820152606490fd5b1561290f57565b60405162461bcd60e51b8152602060048201526013602482015272105d58dd1a5bdb881b9bdd081cdd185c9d1959606a1b6044820152606490fd5b1561295157565b60405162461bcd60e51b815260206004820152600d60248201526c105d58dd1a5bdb88195b991959609a1b6044820152606490fd5b1561298d57565b60405162461bcd60e51b815260206004820152601860248201527f496e76616c69642061756374696f6e206475726174696f6e00000000000000006044820152606490fd5b156129d957565b60405162461bcd60e51b8152602060048201526011602482015270105d58dd1a5bdb881d1bdbc81cda1bdc9d607a1b6044820152606490fd5b15612a1957565b60405162461bcd60e51b815260206004820152601060248201526f41756374696f6e20746f6f206c6f6e6760801b6044820152606490fd5b15612a5857565b60405162461bcd60e51b815260206004820152601960248201527f41756374696f6e20616c72656164792066696e616c697a6564000000000000006044820152606490fd5b15612aa457565b60405162461bcd60e51b81526020600482015260156024820152744269642062656c6f7720737461727420707269636560581b6044820152606490fd5b90606482029180830460641490151715611f9a57565b81810292918115918404141715611f9a57565b15612b1157565b60405162461bcd60e51b815260206004820152601760248201527f42696420696e6372656d656e7420746f6f20736d616c6c0000000000000000006044820152606490fd5b15612b5d57565b60405162461bcd60e51b815260206004820152601b60248201527f456d657267656e6379207769746864726177616c206661696c656400000000006044820152606490fd5b903590601e198136030182121561024b57018035906001600160401b03821161024b5760200191813603831361024b57565b15612bdb57565b60405162461bcd60e51b815260206004820152601c60248201527f42696420636f6c6c656374696f6e206973206e6f7420455243373231000000006044820152606490fd5b9190916101608184031261024b57612c36611f3e565b92612c40826103c3565b8452612c4f81602084016123a2565b6020850152612c6060a083016103c3565b604085015260c0820135606085015260e0820135608085015261010082013560a085015261012082013560c08501526101408201356001600160401b03811161024b5761249192016123f0565b15612cb457565b60405162461bcd60e51b815260206004820152600b60248201526a109a5908195e1c1a5c995960aa1b6044820152606490fd5b15612cee57565b60405162461bcd60e51b815260206004820152601c60248201527f4269646465722063616e6e6f7420616363657074206f776e20626964000000006044820152606490fd5b15612d3a57565b60405162461bcd60e51b815260206004820152601960248201527f426964206d6178207175616e74697479206578636565646564000000000000006044820152606490fd5b6000198114611f9a5760010190565b600260005414612d9f576002600055565b60405162461bcd60e51b815260206004820152601f60248201527f5265656e7472616e637947756172643a207265656e7472616e742063616c6c006044820152606490fd5b60ff60015460a01c16612df357565b60405162461bcd60e51b815260206004820152601060248201526f14185d5cd8589b194e881c185d5cd95960821b6044820152606490fd5b15612e3257565b60405162461bcd60e51b815260206004820152601360248201527229b2b73232b91034b9903737ba103a30b5b2b960691b6044820152606490fd5b15612e7457565b60405162461bcd60e51b815260206004820152601260248201527113585ad95c881bdc99195c88199a5b1b195960721b6044820152606490fd5b15612eb557565b60405162461bcd60e51b815260206004820152601560248201527413585ad95c881bdc99195c8818d85b98d95b1b1959605a1b6044820152606490fd5b35906103ce82611e72565b81601f8201121561024b578035612f13816124d7565b92612f216040519485611eff565b818452602061014081860193028401019281841161024b57602001915b838310612f4c575050505090565b602061014091612f5c8486612607565b815201920191612f3e565b91909160e08184031261024b57612f7c611f4e565b92612f8682612ef2565b845260208201356001600160401b03811161024b5781612fa7918401612efd565b6020850152612fb8604083016103c3565b6040850152612fc9606083016103c3565b60608501526080820135608085015260a082013560a085015260c08201356001600160401b03811161024b57612fff92016123f0565b60c0830152565b1561300d57565b60405162461bcd60e51b815260206004820152601360248201527213585ad95c881bdc99195c88195e1c1a5c9959606a1b6044820152606490fd5b91906130538361437e565b61306482610c8b6020860186611d9d565b916130726020830183611d9d565b15611d37576040850135613085816103b2565b6060840135613093816103b2565b6001600160a01b0390811691160361311a576103ce946130df6130d86111ea6040610af297610f3b8a6080896130d16131109b6131159f8401614889565b0190614889565b3314612e2b565b6130f46130ef610af28584612498565b612e6d565b613109613104610af2858461208c565b612eae565b3690612f67565b61464d565b613006565b60405162461bcd60e51b81526020600482015260166024820152752a30b5b2b91036bab9ba1036b0ba31b41036b0b5b2b960511b6044820152606490fd5b6131719392613169610bf292614665565b93369161257d565b1561317857565b60405162461bcd60e51b815260206004820152601460248201527324b73b30b634b21026b2b935b63290383937b7b360611b6044820152606490fd5b906131be826124d7565b6131cb6040519182611eff565b82815280926131dc601f19916124d7565b0190602036910137565b8051821015611d375760209160051b010190565b805160209091019060005b8181106132125750505090565b8251845260209384019390920191600101613205565b92969594919693909360e08401977f06c8ffd199dde1e3c1f0d71dae647c455e0da36831ccd370e21bb7d22d37095985526003861015611e9c5760c0956020860152604085015260018060a01b0316606084015260018060a01b0316608083015260a08201520152565b9060208201916132ac6132a58483611d9d565b90506131b4565b9060005b6132ba8583611d9d565b90508110156132ed57806132dc6132d7600193610c8b8987611d9d565b614665565b6132e682866131e6565b52016132b0565b50919250604051613314816133066020820180956131fa565b03601f198101835282611eff565b5190209061335e61332482611ea1565b9261330661333460408501611d3c565b9361334160608201611d3c565b9060a060808201359101359160405196879560208701998a613228565b51902090565b92908360005260086020526040600020826000526020526040600020549281151590816133ea575b50156133b6576133a2610b20916133b394611f9f565b936000526008602052604060002090565b55565b60405162461bcd60e51b815260206004820152600c60248201526b125b9d985b1a5908199a5b1b60a21b6044820152606490fd5b9050818401808511611f9a5711153861338c565b1561340557565b60405162461bcd60e51b8152602060048201526015602482015274119959481c9958da5c1a595b9d081b9bdd081cd95d605a1b6044820152606490fd5b1561344957565b60405162461bcd60e51b8152602060048201526016602482015275151c985b9cd9995c881859d95b9d081b9bdd081cd95d60521b6044820152606490fd5b1561348e57565b60405162461bcd60e51b8152602060048201526011602482015270125b9d985b1a59081c9958da5c1a595b9d607a1b6044820152606490fd5b6001600160a01b039182168152918116602083015290911660408201526060810191909152608081019190915260c060a0820181905260009082015260e00190565b6001600160a01b03918216815291811660208301529091166040820152606081019190915260800190565b1561353b57565b60405162461bcd60e51b8152602060048201526013602482015272119959481d1c985b9cd9995c8819985a5b1959606a1b6044820152606490fd5b1561357d57565b60405162461bcd60e51b815260206004820152601660248201527513985d1a5d99481d1c985b9cd9995c8819985a5b195960521b6044820152606490fd5b600454919290916135d6906001600160a01b031615156133fe565b6005546135eb906001600160a01b03166111ea565b926135f7841515613442565b6001600160a01b0381169261360d841515613487565b60608301916136236114e9845160075490612af7565b9361362f858551611ff8565b96815161363b81611eb5565b61364481611eb5565b6136b0575050505060006103ce948194829461366484955134101561272f565b8061367b575b505af1613675612020565b50613576565b838080806136aa9461369a6111ea6111ea60045460018060a01b031690565b5af16136a4612020565b50613534565b3861366a565b90939194929550600184516136c481611eb5565b6136cd81611eb5565b036137d957505080613754575b50600554613708906020906136f9906111ea906001600160a01b031681565b9201516001600160a01b031690565b92813b1561024b57600080946137346040519788968795869463368fa33960e21b865260048601613509565b03925af18015611460576137455750565b8061145460006103ce93611eff565b60055461376b906111ea906001600160a01b031681565b60208301516001600160a01b03166004549091906001600160a01b031690803b1561024b5786600080946137b56040519788968795869463368fa33960e21b865260048601613509565b03925af1801561146057156136da578061145460006137d393611eff565b386136da565b915091939450600384516137ec81611eb5565b6137f581611eb5565b03613853575050600554613813906111ea906001600160a01b031681565b60208301516040906001600160a01b031693015193813b1561024b576000809461373460405197889687958694633c4fc9fb60e11b865260048601613509565b6002849592955161386381611eb5565b61386c81611eb5565b036138bf576001600160a01b031660208401519091906040906001600160a01b03169401519451823b1561024b57600094613734869260405198899788968795633ab9e1f760e21b8752600487016134c7565b60405162461bcd60e51b8152602060048201526016602482015275556e737570706f72746564206173736574207479706560501b6044820152606490fd5b6001546001600160a01b0316330361391157565b606460405162461bcd60e51b815260206004820152602060248201527f4f776e61626c653a2063616c6c6572206973206e6f7420746865206f776e65726044820152fd5b60206139759160405180938192631344d6d960e11b835260048301612827565b038173__$9bf758efd8785ea888de3f7a696bc2dc09$__5af4801561146057611d46916000916139a9575b50610a6c6149b0565b6139c2915060203d60201161152d5761151f8183611eff565b386139a0565b6139dd6139e5926139d883613955565b614ac6565b929092614b08565b356139ef816103b2565b6001600160a01b0391821691161490565b15613a0757565b60405162461bcd60e51b815260206004820152600d60248201526c24b73b30b634b21037bbb732b960991b6044820152606490fd5b15613a4357565b60405162461bcd60e51b815260206004820152601b60248201527f496e73756666696369656e74206e61746976652062616c616e636500000000006044820152606490fd5b15613a8f57565b60405162461bcd60e51b815260206004820152601a60248201527f496e73756666696369656e742045524332302062616c616e63650000000000006044820152606490fd5b15613adb57565b60405162461bcd60e51b815260206004820152601c60248201527f496e73756666696369656e7420455243313135352062616c616e6365000000006044820152606490fd5b9081602091031261024b5751611d46816103b2565b15613b3c57565b60405162461bcd60e51b815260206004820152601060248201526f2737ba1022a9219b99189037bbb732b960811b6044820152606490fd5b6001600160a01b0381169190613b8b831515613a00565b60038251613b9881611eb5565b613ba181611eb5565b03613c435750602080820151613bee939290604090613bca906111ea906001600160a01b031681565b9101519060405180809681946331a9108f60e11b8352600483019190602083019252565b03915afa8015611460576103ce92600091613c14575b506001600160a01b031614613b35565b613c36915060203d602011613c3c575b613c2e8183611eff565b810190613b20565b38613c04565b503d613c24565b915060028151613c5281611eb5565b613c5b81611eb5565b03613cfc57602081810151613cb59390613c7f906111ea906001600160a01b031681565b6040848101519051627eeac760e11b81526001600160a01b03909316600484015260248301529093849190829081906044820190565b03915afa908115611460576103ce92600092613cd8575b50606001511115613ad4565b6060919250613cf59060203d60201161152d5761151f8183611eff565b9190613ccc565b60018151613d0981611eb5565b613d1281611eb5565b03613da957602081810151613d639390613d36906111ea906001600160a01b031681565b6040516370a0823160e01b81526001600160a01b0390921660048301529093849190829081906024820190565b03915afa908115611460576103ce92600092613d85575b506060015114613a88565b6060919250613da29060203d60201161152d5761151f8183611eff565b9190613d7a565b8051613db481611eb5565b613dbd81611eb5565b6138bf5760606103ce92319101511115613a3c565b15613dd957565b60405162461bcd60e51b815260206004820152601760248201527f5061796d656e74207472616e73666572206661696c65640000000000000000006044820152606490fd5b90613e36610b2f82600052600b602052604060002090565b613e4d61215382600052600a602052604060002090565b916020830192613e5f84511515612320565b8051613e75906001600160a01b0316151561235d565b60208201906003613e868351611f69565b613e8f81611eb5565b03613fe557600554613eab906111ea906001600160a01b031681565b9151602081015184518351604090930151946001600160a01b0392831693831692909116813b1561024b5760008094613efa60405198899687958694633c4fc9fb60e11b865260048601613509565b03925af19081156114605761216760008080808a613f796111ea6111ea7fd5e3e604def17bd0c5b7b35a53a73dd0f20a6855f5672e207c4dade80e8b7b959c613fa79c613f899c613fd1575b505b613f64613f5c6114e9875160075490612af7565b809651611ff8565b9480613fac575b50516001600160a01b031690565b5af1613f83612020565b50613dd2565b93516040519081526001600160a01b03909416939081906020820190565b0390a3565b86808080613fcb9461369a6111ea6111ea60045460018060a01b031690565b38613f6b565b8061145488613fdf93611eff565b38613f46565b6002613ff18351611f69565b613ffa81611eb5565b036138bf57600554614016906111ea906001600160a01b031681565b915160208101519092906001600160a01b031684519091906001600160a01b031683519091906001600160a01b03169160606040870151960151823b1561024b5760009461407c8692604051998a9788968795633ab9e1f760e21b8752600487016134c7565b03925af19081156114605761216760008080808a613f796111ea6111ea7fd5e3e604def17bd0c5b7b35a53a73dd0f20a6855f5672e207c4dade80e8b7b959c613fa79c613f899c6140ce575b50613f48565b80611454886140dc93611eff565b386140c8565b60ff81146140f357611d4690614706565b506040516000600254908160011c91600181169081156141c2575b6020841082146141ae5783855284929160208401918115614195575060011461413f575b50611d4692500382611eff565b6002600090815291507f405787fa12a823e0f2b7631cc41b3ba8828b3321ca811111fa75cd3aa3bb5ace5b84831061417e5750611d4693500138614132565b80548284015285935060209092019160010161416a565b60ff1916825250611d4693151560051b01905038614132565b634e487b7160e01b83526022600452602483fd5b92607f169261410e565b60ff81146141dd57611d4690614706565b506040516000600354908160011c916001811690811561427e575b6020841082146141ae578385528492916020840191811561419557506001146142285750611d4692500382611eff565b6003600090815291507fc2575a0e9e593c00f959f8c92f12db2869c3395a3b0502d05e2516446f71f85b5b8483106142675750611d4693500138614132565b805482840152859350602090920191600101614253565b92607f16926141f8565b1561428f57565b60405162461bcd60e51b815260206004820152602a60248201527f496e76616c6964207369676e61747572652e204d616b6572206973206e6f74206044820152693a34329039b4b3b732b960b11b6064820152608490fd5b9081602091031261024b57516001600160e01b03198116810361024b5790565b604090611d46949281528160208201520191612806565b1561432557565b60405162461bcd60e51b815260206004820152602b60248201527f636f6e7472616374206f72646572207369676e6174757265207665726966696360448201526a30ba34b7b71032b93937b960a91b6064820152608490fd5b61438a60408201611d3c565b6143a461439961179984613292565b9260c0810190612ba2565b92823b1561443957604051630b135d3f60e11b81529360209385939092849283926143d29260048501614307565b03916001600160a01b03165afa8015611460576103ce9160009161440a575b506001600160e01b031916630b135d3f60e11b1461431e565b61442c915060203d602011614432575b6144248183611eff565b8101906142e7565b386143f1565b503d61441a565b6111ea9061444f614455936103ce963691612225565b906146f1565b6001600160a01b0390911614614288565b929091906000915b84518310156144b55761448183866131e6565b51906000828210156144a45750600052602052600160406000205b92019161446e565b60409160019382526020522061449c565b915092501490565b156144c457565b60405162461bcd60e51b815260206004820152602d60248201527f636f6e74726163742061756374696f6e207369676e617475726520766572696660448201526c34b1b0ba34b7b71032b93937b960991b6064820152608490fd5b61452881611d3c565b61454061453483613955565b92610140810190612ba2565b92823b1561443957604051630b135d3f60e11b815293602093859390928492839261456e9260048501614307565b03916001600160a01b03165afa8015611460576103ce916000916145a6575b506001600160e01b031916630b135d3f60e11b146144bd565b6145bf915060203d602011614432576144248183611eff565b3861458d565b6040516301ffc9a760e01b81526380ac58cd60e01b600482015290602090829060249082906001600160a01b03165afa809160009161460b575b5090611d465750600090565b6020813d602011614645575b8161462460209383611eff565b81010312614641575190811515820361463e5750386145ff565b80fd5b5080fd5b3d9150614617565b606091602061465d9201516131e6565b510151421190565b61467761467236836123a2565b614934565b9061468861467236608084016123a2565b90610120610100820135910135906040519260208401947fe28cfd2e1bcec04840c1ddb765a2c756cf3e42aef44e48ddda10af78ed9a1c44865260408501526060840152608083015260a082015260a0815261335e60c082611eff565b611d4690610a6c6149b0565b611d46916146fe91614ac6565b919091614b08565b60ff811690601f82116147375760408051926147228285611eff565b6020808552840191601f190136833783525290565b632cd44ac360e21b60005260046000fd5b803590614754826103b2565b61476461467236602084016123a2565b9060a081013590614774826103b2565b60c081013560e082013590610120610100840135930135936040519560208701977fa9d4367585bdf5ac5ed4070abdbb7c7b175c44ff9a30373a11d40e8c2ab95e86895260018060a01b03166040880152606087015260018060a01b0316608086015260a085015260c084015260e0830152610100820152610100815261335e61012082611eff565b1561480457565b60405162461bcd60e51b815260206004820152601960248201527f436f6e74726163742061646472657373206d69736d61746368000000000000006044820152606490fd5b1561485057565b60405162461bcd60e51b8152602060048201526011602482015270082e6e6cae840928840dad2e6dac2e8c6d607b1b6044820152606490fd5b90813561489581611eab565b8135906148a182611eab565b6004821015611e9c576004811015611e9c57036148f957604080836148ee6148ce60206103ce9701611d3c565b6148dd6111ea60208801611d3c565b6001600160a01b03909116146147fd565b013591013514614849565b60405162461bcd60e51b8152602060048201526013602482015272082e6e6cae840e8f2e0ca40dad2e6dac2e8c6d606b1b6044820152606490fd5b8051906004821015611e9c5760018060a01b036020820151169060606040820151910151906040519261499260208501957f6e4f52e5739dbefd226dcbefef0e563115bc2b92726a648e213cb8cde30b11a687526040860190612783565b6060840152608083015260a082015260a0815261335e60c082611eff565b307f00000000000000000000000000000000000000000000000000000000000000006001600160a01b03161480614a9d575b15614a0b577f000000000000000000000000000000000000000000000000000000000000000090565b60405160208101907f8b73c3c69bb8fe3d512ecc4cf759cc79239f7b179b0ffacaa9a75d522b39400f82527f000000000000000000000000000000000000000000000000000000000000000060408201527f000000000000000000000000000000000000000000000000000000000000000060608201524660808201523060a082015260a0815261335e60c082611eff565b507f000000000000000000000000000000000000000000000000000000000000000046146149e2565b906041815114600014614af457614af0916020820151906060604084015193015160001a90614c28565b9091565b5050600090600290565b60051115611e9c57565b614b1181614afe565b80614b195750565b614b2281614afe565b60018103614b6f5760405162461bcd60e51b815260206004820152601860248201527f45434453413a20696e76616c6964207369676e617475726500000000000000006044820152606490fd5b614b7881614afe565b60028103614bc55760405162461bcd60e51b815260206004820152601f60248201527f45434453413a20696e76616c6964207369676e6174757265206c656e677468006044820152606490fd5b80614bd1600392614afe565b14614bd857565b60405162461bcd60e51b815260206004820152602260248201527f45434453413a20696e76616c6964207369676e6174757265202773272076616c604482015261756560f01b6064820152608490fd5b7f7fffffffffffffffffffffffffffffff5d576e7357a4501ddfe92f46681b20a08411614c9c5760209360009360ff60809460405194855216868401526040830152606082015282805260015afa15611460576000516001600160a01b03811615614c935790600090565b50600090600190565b5050505060009060039056fea2646970667358221220b895951224b648017c40178b0bcd465f68651c39d025ee073cac736906b692a064736f6c634300081c0033","opcodes":"PUSH2 0x160 DUP1 PUSH1 0x40 MSTORE CALLVALUE PUSH2 0x338 JUMPI PUSH1 0x80 DUP2 PUSH2 0x53CB DUP1 CODESIZE SUB DUP1 SWAP2 PUSH2 0x20 DUP3 DUP6 PUSH2 0x33D JUMP JUMPDEST DUP4 CODECOPY DUP2 ADD SUB SLT PUSH2 0x338 JUMPI PUSH2 0x33 DUP2 PUSH2 0x376 JUMP JUMPDEST PUSH2 0x3F PUSH1 0x20 DUP4 ADD PUSH2 0x376 JUMP JUMPDEST SWAP2 PUSH1 0x60 PUSH2 0x4E PUSH1 0x40 DUP4 ADD PUSH2 0x376 JUMP JUMPDEST SWAP2 ADD MLOAD SWAP2 PUSH1 0x40 MLOAD PUSH2 0x60 PUSH1 0x40 DUP3 PUSH2 0x33D JUMP JUMPDEST PUSH1 0x11 DUP2 MSTORE PUSH1 0x20 DUP2 ADD SWAP1 PUSH17 0x4C61796572474D61726B6574506C616365 PUSH1 0x78 SHL DUP3 MSTORE PUSH1 0x40 MLOAD SWAP2 PUSH2 0x8F PUSH1 0x40 DUP5 PUSH2 0x33D JUMP JUMPDEST PUSH1 0x1 DUP4 MSTORE PUSH1 0x20 DUP4 ADD SWAP2 PUSH1 0x31 PUSH1 0xF8 SHL DUP4 MSTORE PUSH1 0x1 PUSH1 0x0 SSTORE PUSH1 0x1 SLOAD CALLER PUSH1 0x1 DUP1 PUSH1 0xA0 SHL SUB DUP3 AND PUSH32 0x8BE0079C531659141344CD1FD0A4F28419497F9722A3DAAFE3B4186F6B6457E0 PUSH1 0x0 DUP1 LOG3 PUSH1 0x1 PUSH1 0x1 PUSH1 0xA8 SHL SUB NOT AND CALLER PUSH1 0xFF PUSH1 0xA0 SHL NOT AND OR PUSH1 0x1 SSTORE PUSH2 0xF5 DUP2 PUSH2 0x38A JUMP JUMPDEST PUSH2 0x120 MSTORE PUSH2 0x102 DUP5 PUSH2 0x54E JUMP JUMPDEST PUSH2 0x140 MSTORE MLOAD SWAP1 KECCAK256 SWAP2 DUP3 PUSH1 0xE0 MSTORE MLOAD SWAP1 KECCAK256 DUP1 PUSH2 0x100 MSTORE CHAINID PUSH1 0xA0 MSTORE PUSH1 0x40 MLOAD SWAP1 PUSH1 0x20 DUP3 ADD SWAP3 PUSH32 0x8B73C3C69BB8FE3D512ECC4CF759CC79239F7B179B0FFACAA9A75D522B39400F DUP5 MSTORE PUSH1 0x40 DUP4 ADD MSTORE PUSH1 0x60 DUP3 ADD MSTORE CHAINID PUSH1 0x80 DUP3 ADD MSTORE ADDRESS PUSH1 0xA0 DUP3 ADD MSTORE PUSH1 0xA0 DUP2 MSTORE PUSH2 0x16B PUSH1 0xC0 DUP3 PUSH2 0x33D JUMP JUMPDEST MLOAD SWAP1 KECCAK256 PUSH1 0x80 MSTORE ADDRESS PUSH1 0xC0 MSTORE PUSH1 0x1 PUSH1 0x1 PUSH1 0xA0 SHL SUB AND SWAP3 DUP4 ISZERO PUSH2 0x2F3 JUMPI PUSH1 0x1 PUSH1 0x1 PUSH1 0xA0 SHL SUB AND SWAP1 DUP2 ISZERO PUSH2 0x2AE JUMPI PUSH1 0x1 PUSH1 0x1 PUSH1 0xA0 SHL SUB AND SWAP3 DUP4 ISZERO PUSH2 0x269 JUMPI PUSH2 0x2710 DUP4 GT PUSH2 0x232 JUMPI PUSH1 0x1 DUP1 PUSH1 0xA0 SHL SUB NOT PUSH1 0x4 SLOAD AND OR PUSH1 0x4 SSTORE PUSH1 0x1 DUP1 PUSH1 0xA0 SHL SUB NOT PUSH1 0x5 SLOAD AND OR PUSH1 0x5 SSTORE PUSH1 0x7 SSTORE PUSH1 0x1 DUP1 PUSH1 0xA0 SHL SUB NOT PUSH1 0x6 SLOAD AND OR PUSH1 0x6 SSTORE PUSH1 0x40 MLOAD PUSH2 0x4CDE SWAP1 DUP2 PUSH2 0x6ED DUP3 CODECOPY PUSH1 0x80 MLOAD DUP2 PUSH2 0x49E9 ADD MSTORE PUSH1 0xA0 MLOAD DUP2 PUSH2 0x4AA0 ADD MSTORE PUSH1 0xC0 MLOAD DUP2 PUSH2 0x49B3 ADD MSTORE PUSH1 0xE0 MLOAD DUP2 PUSH2 0x4A38 ADD MSTORE PUSH2 0x100 MLOAD DUP2 PUSH2 0x4A5E ADD MSTORE PUSH2 0x120 MLOAD DUP2 PUSH2 0x8DD ADD MSTORE PUSH2 0x140 MLOAD DUP2 PUSH2 0x906 ADD MSTORE RETURN JUMPDEST PUSH1 0x40 MLOAD PUSH3 0x461BCD PUSH1 0xE5 SHL DUP2 MSTORE PUSH1 0x20 PUSH1 0x4 DUP3 ADD MSTORE PUSH1 0xF PUSH1 0x24 DUP3 ADD MSTORE PUSH15 0x496E76616C69642066656520425053 PUSH1 0x88 SHL PUSH1 0x44 DUP3 ADD MSTORE PUSH1 0x64 SWAP1 REVERT JUMPDEST PUSH1 0x40 MLOAD PUSH3 0x461BCD PUSH1 0xE5 SHL DUP2 MSTORE PUSH1 0x20 PUSH1 0x4 DUP3 ADD MSTORE PUSH1 0x15 PUSH1 0x24 DUP3 ADD MSTORE PUSH32 0x496E76616C69642061756374696F6E207661756C740000000000000000000000 PUSH1 0x44 DUP3 ADD MSTORE PUSH1 0x64 SWAP1 REVERT JUMPDEST PUSH1 0x40 MLOAD PUSH3 0x461BCD PUSH1 0xE5 SHL DUP2 MSTORE PUSH1 0x20 PUSH1 0x4 DUP3 ADD MSTORE PUSH1 0x1C PUSH1 0x24 DUP3 ADD MSTORE PUSH32 0x496E76616C6964206173736574207472616E73666572206167656E7400000000 PUSH1 0x44 DUP3 ADD MSTORE PUSH1 0x64 SWAP1 REVERT JUMPDEST PUSH1 0x40 MLOAD PUSH3 0x461BCD PUSH1 0xE5 SHL DUP2 MSTORE PUSH1 0x20 PUSH1 0x4 DUP3 ADD MSTORE PUSH1 0x15 PUSH1 0x24 DUP3 ADD MSTORE PUSH32 0x496E76616C69642066656520726563697069656E740000000000000000000000 PUSH1 0x44 DUP3 ADD MSTORE PUSH1 0x64 SWAP1 REVERT JUMPDEST PUSH1 0x0 DUP1 REVERT JUMPDEST PUSH1 0x1F SWAP1 SWAP2 ADD PUSH1 0x1F NOT AND DUP2 ADD SWAP1 PUSH1 0x1 PUSH1 0x1 PUSH1 0x40 SHL SUB DUP3 GT SWAP1 DUP3 LT OR PUSH2 0x360 JUMPI PUSH1 0x40 MSTORE JUMP JUMPDEST PUSH4 0x4E487B71 PUSH1 0xE0 SHL PUSH1 0x0 MSTORE PUSH1 0x41 PUSH1 0x4 MSTORE PUSH1 0x24 PUSH1 0x0 REVERT JUMPDEST MLOAD SWAP1 PUSH1 0x1 PUSH1 0x1 PUSH1 0xA0 SHL SUB DUP3 AND DUP3 SUB PUSH2 0x338 JUMPI JUMP JUMPDEST SWAP1 DUP2 MLOAD PUSH1 0x20 DUP2 LT PUSH1 0x0 EQ PUSH2 0x422 JUMPI POP SWAP1 PUSH1 0x1F DUP2 MLOAD GT PUSH2 0x3C6 JUMPI PUSH1 0x20 DUP2 MLOAD SWAP2 ADD MLOAD PUSH1 0x20 DUP3 LT PUSH2 0x3B6 JUMPI OR SWAP1 JUMP JUMPDEST PUSH1 0x0 NOT DUP3 PUSH1 0x20 SUB PUSH1 0x3 SHL SHL AND OR SWAP1 JUMP JUMPDEST PUSH1 0x40 MLOAD SWAP1 PUSH4 0x305A27A9 PUSH1 0xE0 SHL DUP3 MSTORE PUSH1 0x20 PUSH1 0x4 DUP4 ADD MSTORE DUP2 DUP2 MLOAD SWAP2 DUP3 PUSH1 0x24 DUP4 ADD MSTORE PUSH1 0x0 JUMPDEST DUP4 DUP2 LT PUSH2 0x40A JUMPI POP POP DUP2 PUSH1 0x0 PUSH1 0x44 DUP1 SWAP5 DUP5 ADD ADD MSTORE PUSH1 0x1F DUP1 NOT SWAP2 ADD AND DUP2 ADD SUB ADD SWAP1 REVERT JUMPDEST PUSH1 0x20 DUP3 DUP3 ADD DUP2 ADD MLOAD PUSH1 0x44 DUP8 DUP5 ADD ADD MSTORE DUP6 SWAP4 POP ADD PUSH2 0x3E8 JUMP JUMPDEST PUSH1 0x1 PUSH1 0x1 PUSH1 0x40 SHL SUB DUP2 GT PUSH2 0x360 JUMPI PUSH1 0x2 SLOAD PUSH1 0x1 DUP2 DUP2 SHR SWAP2 AND DUP1 ISZERO PUSH2 0x544 JUMPI JUMPDEST PUSH1 0x20 DUP3 LT EQ PUSH2 0x52E JUMPI PUSH1 0x1F DUP2 GT PUSH2 0x4F8 JUMPI JUMPDEST POP PUSH1 0x20 SWAP3 PUSH1 0x1F DUP3 GT PUSH1 0x1 EQ PUSH2 0x493 JUMPI SWAP3 DUP2 SWAP3 SWAP4 PUSH1 0x0 SWAP3 PUSH2 0x488 JUMPI JUMPDEST POP POP DUP2 PUSH1 0x1 SHL SWAP2 PUSH1 0x0 NOT SWAP1 PUSH1 0x3 SHL SHR NOT AND OR PUSH1 0x2 SSTORE PUSH1 0xFF SWAP1 JUMP JUMPDEST ADD MLOAD SWAP1 POP CODESIZE DUP1 PUSH2 0x46E JUMP JUMPDEST PUSH1 0x1F NOT DUP3 AND SWAP4 PUSH1 0x2 PUSH1 0x0 MSTORE DUP1 PUSH1 0x0 KECCAK256 SWAP2 PUSH1 0x0 JUMPDEST DUP7 DUP2 LT PUSH2 0x4E0 JUMPI POP DUP4 PUSH1 0x1 SWAP6 SWAP7 LT PUSH2 0x4C7 JUMPI JUMPDEST POP POP POP DUP2 SHL ADD PUSH1 0x2 SSTORE PUSH1 0xFF SWAP1 JUMP JUMPDEST ADD MLOAD PUSH1 0x0 NOT PUSH1 0xF8 DUP5 PUSH1 0x3 SHL AND SHR NOT AND SWAP1 SSTORE CODESIZE DUP1 DUP1 PUSH2 0x4B9 JUMP JUMPDEST SWAP2 SWAP3 PUSH1 0x20 PUSH1 0x1 DUP2 SWAP3 DUP7 DUP6 ADD MLOAD DUP2 SSTORE ADD SWAP5 ADD SWAP3 ADD PUSH2 0x4A6 JUMP JUMPDEST PUSH1 0x2 PUSH1 0x0 MSTORE PUSH1 0x1F PUSH1 0x20 PUSH1 0x0 KECCAK256 SWAP2 ADD PUSH1 0x5 SHR DUP2 ADD SWAP1 PUSH1 0x1F DUP4 ADD PUSH1 0x5 SHR ADD JUMPDEST DUP2 DUP2 LT PUSH2 0x522 JUMPI POP PUSH2 0x453 JUMP JUMPDEST PUSH1 0x0 DUP2 SSTORE PUSH1 0x1 ADD PUSH2 0x515 JUMP JUMPDEST PUSH4 0x4E487B71 PUSH1 0xE0 SHL PUSH1 0x0 MSTORE PUSH1 0x22 PUSH1 0x4 MSTORE PUSH1 0x24 PUSH1 0x0 REVERT JUMPDEST SWAP1 PUSH1 0x7F AND SWAP1 PUSH2 0x441 JUMP JUMPDEST SWAP1 DUP2 MLOAD PUSH1 0x20 DUP2 LT PUSH1 0x0 EQ PUSH2 0x5D6 JUMPI POP SWAP1 PUSH1 0x1F DUP2 MLOAD GT PUSH2 0x57A JUMPI PUSH1 0x20 DUP2 MLOAD SWAP2 ADD MLOAD PUSH1 0x20 DUP3 LT PUSH2 0x3B6 JUMPI OR SWAP1 JUMP JUMPDEST PUSH1 0x40 MLOAD SWAP1 PUSH4 0x305A27A9 PUSH1 0xE0 SHL DUP3 MSTORE PUSH1 0x20 PUSH1 0x4 DUP4 ADD MSTORE DUP2 DUP2 MLOAD SWAP2 DUP3 PUSH1 0x24 DUP4 ADD MSTORE PUSH1 0x0 JUMPDEST DUP4 DUP2 LT PUSH2 0x5BE JUMPI POP POP DUP2 PUSH1 0x0 PUSH1 0x44 DUP1 SWAP5 DUP5 ADD ADD MSTORE PUSH1 0x1F DUP1 NOT SWAP2 ADD AND DUP2 ADD SUB ADD SWAP1 REVERT JUMPDEST PUSH1 0x20 DUP3 DUP3 ADD DUP2 ADD MLOAD PUSH1 0x44 DUP8 DUP5 ADD ADD MSTORE DUP6 SWAP4 POP ADD PUSH2 0x59C JUMP JUMPDEST PUSH1 0x1 PUSH1 0x1 PUSH1 0x40 SHL SUB DUP2 GT PUSH2 0x360 JUMPI PUSH1 0x3 SLOAD PUSH1 0x1 DUP2 DUP2 SHR SWAP2 AND DUP1 ISZERO PUSH2 0x6E2 JUMPI JUMPDEST PUSH1 0x20 DUP3 LT EQ PUSH2 0x52E JUMPI PUSH1 0x1F DUP2 GT PUSH2 0x6AC JUMPI JUMPDEST POP PUSH1 0x20 SWAP3 PUSH1 0x1F DUP3 GT PUSH1 0x1 EQ PUSH2 0x647 JUMPI SWAP3 DUP2 SWAP3 SWAP4 PUSH1 0x0 SWAP3 PUSH2 0x63C JUMPI JUMPDEST POP POP DUP2 PUSH1 0x1 SHL SWAP2 PUSH1 0x0 NOT SWAP1 PUSH1 0x3 SHL SHR NOT AND OR PUSH1 0x3 SSTORE PUSH1 0xFF SWAP1 JUMP JUMPDEST ADD MLOAD SWAP1 POP CODESIZE DUP1 PUSH2 0x622 JUMP JUMPDEST PUSH1 0x1F NOT DUP3 AND SWAP4 PUSH1 0x3 PUSH1 0x0 MSTORE DUP1 PUSH1 0x0 KECCAK256 SWAP2 PUSH1 0x0 JUMPDEST DUP7 DUP2 LT PUSH2 0x694 JUMPI POP DUP4 PUSH1 0x1 SWAP6 SWAP7 LT PUSH2 0x67B JUMPI JUMPDEST POP POP POP DUP2 SHL ADD PUSH1 0x3 SSTORE PUSH1 0xFF SWAP1 JUMP JUMPDEST ADD MLOAD PUSH1 0x0 NOT PUSH1 0xF8 DUP5 PUSH1 0x3 SHL AND SHR NOT AND SWAP1 SSTORE CODESIZE DUP1 DUP1 PUSH2 0x66D JUMP JUMPDEST SWAP2 SWAP3 PUSH1 0x20 PUSH1 0x1 DUP2 SWAP3 DUP7 DUP6 ADD MLOAD DUP2 SSTORE ADD SWAP5 ADD SWAP3 ADD PUSH2 0x65A JUMP JUMPDEST PUSH1 0x3 PUSH1 0x0 MSTORE PUSH1 0x1F PUSH1 0x20 PUSH1 0x0 KECCAK256 SWAP2 ADD PUSH1 0x5 SHR DUP2 ADD SWAP1 PUSH1 0x1F DUP4 ADD PUSH1 0x5 SHR ADD JUMPDEST DUP2 DUP2 LT PUSH2 0x6D6 JUMPI POP PUSH2 0x607 JUMP JUMPDEST PUSH1 0x0 DUP2 SSTORE PUSH1 0x1 ADD PUSH2 0x6C9 JUMP JUMPDEST SWAP1 PUSH1 0x7F AND SWAP1 PUSH2 0x5F5 JUMP INVALID PUSH1 0x80 PUSH1 0x40 MSTORE PUSH1 0x4 CALLDATASIZE LT ISZERO PUSH2 0x1B JUMPI JUMPDEST CALLDATASIZE ISZERO PUSH2 0x19 JUMPI PUSH1 0x0 DUP1 REVERT JUMPDEST STOP JUMPDEST PUSH1 0x0 CALLDATALOAD PUSH1 0xE0 SHR DUP1 PUSH4 0x14414CC0 EQ PUSH2 0x23B JUMPI DUP1 PUSH4 0x1EF1C7D2 EQ PUSH2 0x236 JUMPI DUP1 PUSH4 0x24A9D853 EQ PUSH2 0x231 JUMPI DUP1 PUSH4 0x2E1CBEA2 EQ PUSH2 0x22C JUMPI DUP1 PUSH4 0x36BACFD5 EQ PUSH2 0x227 JUMPI DUP1 PUSH4 0x3A9FAE7C EQ PUSH2 0x222 JUMPI DUP1 PUSH4 0x3F4BA83A EQ PUSH2 0x21D JUMPI DUP1 PUSH4 0x3FB35178 EQ PUSH2 0x218 JUMPI DUP1 PUSH4 0x46904840 EQ PUSH2 0x213 JUMPI DUP1 PUSH4 0x4715399C EQ PUSH2 0x20E JUMPI DUP1 PUSH4 0x48A220A4 EQ PUSH2 0x209 JUMPI DUP1 PUSH4 0x5C975ABB EQ PUSH2 0x204 JUMPI DUP1 PUSH4 0x5D704AEA EQ PUSH2 0x1FF JUMPI DUP1 PUSH4 0x6199D280 EQ PUSH2 0x1FA JUMPI DUP1 PUSH4 0x703CEBFE EQ PUSH2 0x1F5 JUMPI DUP1 PUSH4 0x715018A6 EQ PUSH2 0x1F0 JUMPI DUP1 PUSH4 0x72C27B62 EQ PUSH2 0x1EB JUMPI DUP1 PUSH4 0x8456CB59 EQ PUSH2 0x1E6 JUMPI DUP1 PUSH4 0x84B0196E EQ PUSH2 0x1E1 JUMPI DUP1 PUSH4 0x892987B5 EQ PUSH2 0x1DC JUMPI DUP1 PUSH4 0x8DA5CB5B EQ PUSH2 0x1D7 JUMPI DUP1 PUSH4 0xA83FB54F EQ PUSH2 0x1D2 JUMPI DUP1 PUSH4 0xADA4FA18 EQ PUSH2 0x1CD JUMPI DUP1 PUSH4 0xBC2DB5C4 EQ PUSH2 0x1C8 JUMPI DUP1 PUSH4 0xBF76C032 EQ PUSH2 0x1C3 JUMPI DUP1 PUSH4 0xC2F50A7A EQ PUSH2 0x1BE JUMPI DUP1 PUSH4 0xCA200AD8 EQ PUSH2 0x1B9 JUMPI DUP1 PUSH4 0xD418FC42 EQ PUSH2 0x1B4 JUMPI DUP1 PUSH4 0xD55BE8C6 EQ PUSH2 0x1AF JUMPI DUP1 PUSH4 0xDB2E21BC EQ PUSH2 0x1AA JUMPI DUP1 PUSH4 0xE74B981B EQ PUSH2 0x1A5 JUMPI DUP1 PUSH4 0xECF66145 EQ PUSH2 0x1A0 JUMPI DUP1 PUSH4 0xEDED1F00 EQ PUSH2 0x19B JUMPI PUSH4 0xF2FDE38B SUB PUSH2 0xE JUMPI PUSH2 0x18BB JUMP JUMPDEST PUSH2 0x187F JUMP JUMPDEST PUSH2 0x16CD JUMP JUMPDEST PUSH2 0x1618 JUMP JUMPDEST PUSH2 0x1551 JUMP JUMPDEST PUSH2 0x1534 JUMP JUMPDEST PUSH2 0x1132 JUMP JUMPDEST PUSH2 0x1075 JUMP JUMPDEST PUSH2 0x1058 JUMP JUMPDEST PUSH2 0xE1C JUMP JUMPDEST PUSH2 0xBF7 JUMP JUMPDEST PUSH2 0xBAA JUMP JUMPDEST PUSH2 0xA39 JUMP JUMPDEST PUSH2 0xA10 JUMP JUMPDEST PUSH2 0x9C5 JUMP JUMPDEST PUSH2 0x8C4 JUMP JUMPDEST PUSH2 0x7FB JUMP JUMPDEST PUSH2 0x762 JUMP JUMPDEST PUSH2 0x705 JUMP JUMPDEST PUSH2 0x6EC JUMP JUMPDEST PUSH2 0x672 JUMP JUMPDEST PUSH2 0x637 JUMP JUMPDEST PUSH2 0x611 JUMP JUMPDEST PUSH2 0x5E8 JUMP JUMPDEST PUSH2 0x5BF JUMP JUMPDEST PUSH2 0x596 JUMP JUMPDEST PUSH2 0x578 JUMP JUMPDEST PUSH2 0x4B6 JUMP JUMPDEST PUSH2 0x485 JUMP JUMPDEST PUSH2 0x3D0 JUMP JUMPDEST PUSH2 0x38F JUMP JUMPDEST PUSH2 0x340 JUMP JUMPDEST PUSH2 0x2AA JUMP JUMPDEST PUSH2 0x250 JUMP JUMPDEST PUSH1 0x0 SWAP2 SUB SLT PUSH2 0x24B JUMPI JUMP JUMPDEST PUSH1 0x0 DUP1 REVERT JUMPDEST CALLVALUE PUSH2 0x24B JUMPI PUSH1 0x0 CALLDATASIZE PUSH1 0x3 NOT ADD SLT PUSH2 0x24B JUMPI PUSH1 0x20 PUSH1 0x40 MLOAD PUSH1 0x64 DUP2 MSTORE RETURN JUMPDEST SWAP2 DUP2 PUSH1 0x1F DUP5 ADD SLT ISZERO PUSH2 0x24B JUMPI DUP3 CALLDATALOAD SWAP2 PUSH1 0x1 PUSH1 0x1 PUSH1 0x40 SHL SUB DUP4 GT PUSH2 0x24B JUMPI PUSH1 0x20 DUP1 DUP6 ADD SWAP5 DUP5 PUSH1 0x5 SHL ADD ADD GT PUSH2 0x24B JUMPI JUMP JUMPDEST SWAP1 DUP2 PUSH1 0xE0 SWAP2 SUB SLT PUSH2 0x24B JUMPI SWAP1 JUMP JUMPDEST PUSH1 0x80 CALLDATASIZE PUSH1 0x3 NOT ADD SLT PUSH2 0x24B JUMPI PUSH1 0x4 CALLDATALOAD PUSH1 0x1 PUSH1 0x1 PUSH1 0x40 SHL SUB DUP2 GT PUSH2 0x24B JUMPI PUSH2 0x2D5 SWAP1 CALLDATASIZE SWAP1 PUSH1 0x4 ADD PUSH2 0x26C JUMP JUMPDEST PUSH1 0x24 CALLDATALOAD PUSH1 0x1 PUSH1 0x1 PUSH1 0x40 SHL SUB DUP2 GT PUSH2 0x24B JUMPI PUSH2 0x2F4 SWAP1 CALLDATASIZE SWAP1 PUSH1 0x4 ADD PUSH2 0x29C JUMP JUMPDEST SWAP2 PUSH1 0x44 CALLDATALOAD PUSH1 0x1 PUSH1 0x1 PUSH1 0x40 SHL SUB DUP2 GT PUSH2 0x24B JUMPI PUSH2 0x314 SWAP1 CALLDATASIZE SWAP1 PUSH1 0x4 ADD PUSH2 0x26C JUMP JUMPDEST SWAP1 PUSH1 0x64 CALLDATALOAD SWAP5 PUSH1 0x1 PUSH1 0x1 PUSH1 0x40 SHL SUB DUP7 GT PUSH2 0x24B JUMPI PUSH2 0x338 PUSH2 0x19 SWAP7 CALLDATASIZE SWAP1 PUSH1 0x4 ADD PUSH2 0x26C JUMP JUMPDEST SWAP6 SWAP1 SWAP5 PUSH2 0x198C JUMP JUMPDEST CALLVALUE PUSH2 0x24B JUMPI PUSH1 0x0 CALLDATASIZE PUSH1 0x3 NOT ADD SLT PUSH2 0x24B JUMPI PUSH1 0x20 PUSH1 0x7 SLOAD PUSH1 0x40 MLOAD SWAP1 DUP2 MSTORE RETURN JUMPDEST PUSH1 0x40 PUSH1 0x3 NOT DUP3 ADD SLT PUSH2 0x24B JUMPI PUSH1 0x4 CALLDATALOAD SWAP1 PUSH1 0x1 PUSH1 0x1 PUSH1 0x40 SHL SUB DUP3 GT PUSH2 0x24B JUMPI PUSH2 0x388 SWAP2 PUSH1 0x4 ADD PUSH2 0x29C JUMP JUMPDEST SWAP1 PUSH1 0x24 CALLDATALOAD SWAP1 JUMP JUMPDEST CALLVALUE PUSH2 0x24B JUMPI PUSH1 0x20 PUSH2 0x3A8 PUSH2 0x3A2 CALLDATASIZE PUSH2 0x35E JUMP JUMPDEST SWAP1 PUSH2 0x208C JUMP JUMPDEST PUSH1 0x40 MLOAD SWAP1 ISZERO ISZERO DUP2 MSTORE RETURN JUMPDEST PUSH1 0x1 PUSH1 0x1 PUSH1 0xA0 SHL SUB DUP2 AND SUB PUSH2 0x24B JUMPI JUMP JUMPDEST CALLDATALOAD SWAP1 PUSH2 0x3CE DUP3 PUSH2 0x3B2 JUMP JUMPDEST JUMP JUMPDEST CALLVALUE PUSH2 0x24B JUMPI PUSH1 0x20 CALLDATASIZE PUSH1 0x3 NOT ADD SLT PUSH2 0x24B JUMPI PUSH1 0x4 CALLDATALOAD PUSH2 0x3ED DUP2 PUSH2 0x3B2 JUMP JUMPDEST PUSH2 0x3F5 PUSH2 0x38FD JUMP JUMPDEST PUSH1 0x1 PUSH1 0x1 PUSH1 0xA0 SHL SUB AND DUP1 ISZERO PUSH2 0x448 JUMPI PUSH1 0x6 DUP1 SLOAD PUSH1 0x1 PUSH1 0x1 PUSH1 0xA0 SHL SUB NOT DUP2 AND DUP4 OR SWAP1 SWAP2 SSTORE PUSH1 0x1 PUSH1 0x1 PUSH1 0xA0 SHL SUB AND PUSH32 0xFFF6EC843C076928BDBA3D6B453F492A57D829B973C56036B5F7D30955D7B01B PUSH1 0x0 DUP1 LOG3 STOP JUMPDEST PUSH1 0x40 MLOAD PUSH3 0x461BCD PUSH1 0xE5 SHL DUP2 MSTORE PUSH1 0x20 PUSH1 0x4 DUP3 ADD MSTORE PUSH1 0x15 PUSH1 0x24 DUP3 ADD MSTORE PUSH21 0x125B9D985B1A5908185D58DD1A5BDB881D985D5B1D PUSH1 0x5A SHL PUSH1 0x44 DUP3 ADD MSTORE PUSH1 0x64 SWAP1 REVERT JUMPDEST CALLVALUE PUSH2 0x24B JUMPI PUSH1 0x20 CALLDATASIZE PUSH1 0x3 NOT ADD SLT PUSH2 0x24B JUMPI PUSH1 0x4 CALLDATALOAD PUSH1 0x0 MSTORE PUSH1 0xB PUSH1 0x20 MSTORE PUSH1 0x20 PUSH1 0xFF PUSH1 0x40 PUSH1 0x0 KECCAK256 SLOAD AND PUSH1 0x40 MLOAD SWAP1 ISZERO ISZERO DUP2 MSTORE RETURN JUMPDEST CALLVALUE PUSH2 0x24B JUMPI PUSH1 0x0 CALLDATASIZE PUSH1 0x3 NOT ADD SLT PUSH2 0x24B JUMPI PUSH2 0x4CF PUSH2 0x38FD JUMP JUMPDEST PUSH1 0x1 SLOAD PUSH1 0xFF DUP2 PUSH1 0xA0 SHR AND ISZERO PUSH2 0x53C JUMPI PUSH1 0xFF PUSH1 0xA0 SHL NOT AND PUSH1 0x1 SSTORE PUSH1 0x40 MLOAD CALLER DUP2 MSTORE PUSH32 0x5DB9EE0A495BF2E6FF9C91A7834C1BA4FDD244A5E8AA4E537BD38AEAE4B073AA SWAP1 PUSH1 0x20 SWAP1 LOG1 CALLER PUSH32 0x385A28CF4754BD62FDE01BCCE82B673BD45CB357F835CF679A756DE5D8E93BCD PUSH1 0x0 DUP1 LOG2 STOP JUMPDEST PUSH1 0x40 MLOAD PUSH3 0x461BCD PUSH1 0xE5 SHL DUP2 MSTORE PUSH1 0x20 PUSH1 0x4 DUP3 ADD MSTORE PUSH1 0x14 PUSH1 0x24 DUP3 ADD MSTORE PUSH20 0x14185D5CD8589B194E881B9BDD081C185D5CD959 PUSH1 0x62 SHL PUSH1 0x44 DUP3 ADD MSTORE PUSH1 0x64 SWAP1 REVERT JUMPDEST CALLVALUE PUSH2 0x24B JUMPI PUSH1 0x0 CALLDATASIZE PUSH1 0x3 NOT ADD SLT PUSH2 0x24B JUMPI PUSH1 0x20 PUSH1 0x40 MLOAD PUSH3 0x278D00 DUP2 MSTORE RETURN JUMPDEST CALLVALUE PUSH2 0x24B JUMPI PUSH1 0x0 CALLDATASIZE PUSH1 0x3 NOT ADD SLT PUSH2 0x24B JUMPI PUSH1 0x4 SLOAD PUSH1 0x40 MLOAD PUSH1 0x1 PUSH1 0x1 PUSH1 0xA0 SHL SUB SWAP1 SWAP2 AND DUP2 MSTORE PUSH1 0x20 SWAP1 RETURN JUMPDEST CALLVALUE PUSH2 0x24B JUMPI PUSH1 0x0 CALLDATASIZE PUSH1 0x3 NOT ADD SLT PUSH2 0x24B JUMPI PUSH1 0x5 SLOAD PUSH1 0x40 MLOAD PUSH1 0x1 PUSH1 0x1 PUSH1 0xA0 SHL SUB SWAP1 SWAP2 AND DUP2 MSTORE PUSH1 0x20 SWAP1 RETURN JUMPDEST CALLVALUE PUSH2 0x24B JUMPI PUSH1 0x0 CALLDATASIZE PUSH1 0x3 NOT ADD SLT PUSH2 0x24B JUMPI PUSH1 0x6 SLOAD PUSH1 0x40 MLOAD PUSH1 0x1 PUSH1 0x1 PUSH1 0xA0 SHL SUB SWAP1 SWAP2 AND DUP2 MSTORE PUSH1 0x20 SWAP1 RETURN JUMPDEST CALLVALUE PUSH2 0x24B JUMPI PUSH1 0x0 CALLDATASIZE PUSH1 0x3 NOT ADD SLT PUSH2 0x24B JUMPI PUSH1 0x20 PUSH1 0xFF PUSH1 0x1 SLOAD PUSH1 0xA0 SHR AND PUSH1 0x40 MLOAD SWAP1 ISZERO ISZERO DUP2 MSTORE RETURN JUMPDEST CALLVALUE PUSH2 0x24B JUMPI PUSH1 0x20 CALLDATASIZE PUSH1 0x3 NOT ADD SLT PUSH2 0x24B JUMPI PUSH1 0x4 CALLDATALOAD PUSH1 0x0 MSTORE PUSH1 0xC PUSH1 0x20 MSTORE PUSH1 0x20 PUSH1 0x40 PUSH1 0x0 KECCAK256 SLOAD PUSH1 0x40 MLOAD SWAP1 DUP2 MSTORE RETURN JUMPDEST SWAP1 DUP2 PUSH2 0x160 SWAP2 SUB SLT PUSH2 0x24B JUMPI SWAP1 JUMP JUMPDEST CALLVALUE PUSH2 0x24B JUMPI PUSH1 0x40 CALLDATASIZE PUSH1 0x3 NOT ADD SLT PUSH2 0x24B JUMPI PUSH1 0x4 CALLDATALOAD PUSH1 0x1 PUSH1 0x1 PUSH1 0x40 SHL SUB DUP2 GT PUSH2 0x24B JUMPI PUSH2 0x6A2 SWAP1 CALLDATASIZE SWAP1 PUSH1 0x4 ADD PUSH2 0x663 JUMP JUMPDEST PUSH1 0x24 CALLDATALOAD SWAP1 PUSH1 0x1 PUSH1 0x1 PUSH1 0x40 SHL SUB DUP3 GT PUSH2 0x24B JUMPI CALLDATASIZE PUSH1 0x23 DUP4 ADD SLT ISZERO PUSH2 0x24B JUMPI DUP2 PUSH1 0x4 ADD CALLDATALOAD SWAP1 PUSH1 0x1 PUSH1 0x1 PUSH1 0x40 SHL SUB DUP3 GT PUSH2 0x24B JUMPI CALLDATASIZE PUSH1 0x24 DUP4 DUP6 ADD ADD GT PUSH2 0x24B JUMPI PUSH1 0x24 PUSH2 0x19 SWAP4 ADD SWAP1 PUSH2 0x20B5 JUMP JUMPDEST CALLVALUE PUSH2 0x24B JUMPI PUSH1 0x20 PUSH2 0x3A8 PUSH2 0x6FF CALLDATASIZE PUSH2 0x35E JUMP JUMPDEST SWAP1 PUSH2 0x2498 JUMP JUMPDEST CALLVALUE PUSH2 0x24B JUMPI PUSH1 0x0 CALLDATASIZE PUSH1 0x3 NOT ADD SLT PUSH2 0x24B JUMPI PUSH2 0x71E PUSH2 0x38FD JUMP JUMPDEST PUSH1 0x1 DUP1 SLOAD PUSH1 0x1 PUSH1 0x1 PUSH1 0xA0 SHL SUB NOT DUP2 AND SWAP1 SWAP2 SSTORE PUSH1 0x0 SWAP1 PUSH1 0x1 PUSH1 0x1 PUSH1 0xA0 SHL SUB AND PUSH32 0x8BE0079C531659141344CD1FD0A4F28419497F9722A3DAAFE3B4186F6B6457E0 DUP3 DUP1 LOG3 STOP JUMPDEST CALLVALUE PUSH2 0x24B JUMPI PUSH1 0x20 CALLDATASIZE PUSH1 0x3 NOT ADD SLT PUSH2 0x24B JUMPI PUSH1 0x4 CALLDATALOAD PUSH2 0x77E PUSH2 0x38FD JUMP JUMPDEST PUSH2 0x2710 DUP2 GT PUSH2 0x7C4 JUMPI PUSH1 0x7 DUP1 SLOAD SWAP1 DUP3 SWAP1 SSTORE PUSH1 0x40 DUP1 MLOAD SWAP2 DUP3 MSTORE PUSH1 0x20 DUP3 ADD SWAP3 SWAP1 SWAP3 MSTORE PUSH32 0x5EC5620E288C4BE955CCB6CFB3D55431A8FED5C4C96FFACC4B9506360695F64E SWAP2 SWAP1 LOG1 STOP JUMPDEST PUSH1 0x40 MLOAD PUSH3 0x461BCD PUSH1 0xE5 SHL DUP2 MSTORE PUSH1 0x20 PUSH1 0x4 DUP3 ADD MSTORE PUSH1 0xF PUSH1 0x24 DUP3 ADD MSTORE PUSH15 0x496E76616C69642066656520425053 PUSH1 0x88 SHL PUSH1 0x44 DUP3 ADD MSTORE PUSH1 0x64 SWAP1 REVERT JUMPDEST CALLVALUE PUSH2 0x24B JUMPI PUSH1 0x0 CALLDATASIZE PUSH1 0x3 NOT ADD SLT PUSH2 0x24B JUMPI PUSH2 0x814 PUSH2 0x38FD JUMP JUMPDEST PUSH2 0x81C PUSH2 0x2DE4 JUMP JUMPDEST PUSH1 0x1 DUP1 SLOAD PUSH1 0xFF PUSH1 0xA0 SHL NOT AND PUSH1 0x1 PUSH1 0xA0 SHL OR SWAP1 SSTORE PUSH1 0x40 MLOAD CALLER DUP2 MSTORE PUSH32 0x62E78CEA01BEE320CD4E420270B5EA74000D11B0C9F74754EBDBFC544B05A258 SWAP1 PUSH1 0x20 SWAP1 LOG1 CALLER PUSH32 0x720419D686E04979382078792DCE127B7417B1F1B934573E9AE7A7D40EB86E87 PUSH1 0x0 DUP1 LOG2 STOP JUMPDEST SWAP2 SWAP1 DUP3 MLOAD SWAP3 DUP4 DUP3 MSTORE PUSH1 0x0 JUMPDEST DUP5 DUP2 LT PUSH2 0x8AF JUMPI POP POP DUP3 PUSH1 0x0 PUSH1 0x20 DUP1 SWAP5 SWAP6 DUP5 ADD ADD MSTORE PUSH1 0x1F DUP1 NOT SWAP2 ADD AND ADD ADD SWAP1 JUMP JUMPDEST DUP1 PUSH1 0x20 DUP1 SWAP3 DUP5 ADD ADD MLOAD DUP3 DUP3 DUP7 ADD ADD MSTORE ADD PUSH2 0x88E JUMP JUMPDEST CALLVALUE PUSH2 0x24B JUMPI PUSH1 0x0 CALLDATASIZE PUSH1 0x3 NOT ADD SLT PUSH2 0x24B JUMPI PUSH2 0x96A PUSH2 0x901 PUSH32 0x0 PUSH2 0x40E2 JUMP JUMPDEST PUSH2 0x92A PUSH32 0x0 PUSH2 0x41CC JUMP JUMPDEST PUSH1 0x20 PUSH1 0x40 MLOAD PUSH2 0x939 DUP3 DUP3 PUSH2 0x1EFF JUMP JUMPDEST PUSH1 0x0 DUP2 MSTORE DUP2 PUSH2 0x978 DUP2 DUP4 ADD SWAP5 PUSH1 0x1F NOT DUP4 ADD CALLDATASIZE DUP8 CALLDATACOPY PUSH1 0x40 MLOAD SWAP8 DUP9 SWAP8 PUSH1 0xF PUSH1 0xF8 SHL DUP10 MSTORE PUSH1 0xE0 DUP6 DUP11 ADD MSTORE PUSH1 0xE0 DUP10 ADD SWAP1 PUSH2 0x883 JUMP JUMPDEST SWAP1 DUP8 DUP3 SUB PUSH1 0x40 DUP10 ADD MSTORE PUSH2 0x883 JUMP JUMPDEST SWAP2 CHAINID PUSH1 0x60 DUP8 ADD MSTORE ADDRESS PUSH1 0x80 DUP8 ADD MSTORE PUSH1 0x0 PUSH1 0xA0 DUP8 ADD MSTORE DUP6 DUP4 SUB PUSH1 0xC0 DUP8 ADD MSTORE MLOAD SWAP2 DUP3 DUP2 MSTORE ADD SWAP3 SWAP2 PUSH1 0x0 JUMPDEST DUP3 DUP2 LT PUSH2 0x9AE JUMPI POP POP POP POP SUB SWAP1 RETURN JUMPDEST DUP4 MLOAD DUP6 MSTORE DUP7 SWAP6 POP SWAP4 DUP2 ADD SWAP4 SWAP3 DUP2 ADD SWAP3 PUSH1 0x1 ADD PUSH2 0x99F JUMP JUMPDEST CALLVALUE PUSH2 0x24B JUMPI PUSH1 0x20 CALLDATASIZE PUSH1 0x3 NOT ADD SLT PUSH2 0x24B JUMPI PUSH1 0x4 CALLDATALOAD PUSH1 0x0 MSTORE PUSH1 0xA PUSH1 0x20 MSTORE PUSH1 0x60 PUSH1 0x40 PUSH1 0x0 KECCAK256 PUSH1 0x1 DUP1 PUSH1 0xA0 SHL SUB DUP2 SLOAD AND SWAP1 PUSH1 0x2 PUSH1 0x1 DUP3 ADD SLOAD SWAP2 ADD SLOAD SWAP1 PUSH1 0x40 MLOAD SWAP3 DUP4 MSTORE PUSH1 0x20 DUP4 ADD MSTORE PUSH1 0x40 DUP3 ADD MSTORE RETURN JUMPDEST CALLVALUE PUSH2 0x24B JUMPI PUSH1 0x0 CALLDATASIZE PUSH1 0x3 NOT ADD SLT PUSH2 0x24B JUMPI PUSH1 0x1 SLOAD PUSH1 0x40 MLOAD PUSH1 0x1 PUSH1 0x1 PUSH1 0xA0 SHL SUB SWAP1 SWAP2 AND DUP2 MSTORE PUSH1 0x20 SWAP1 RETURN JUMPDEST CALLVALUE PUSH2 0x24B JUMPI PUSH2 0xA47 CALLDATASIZE PUSH2 0x35E JUMP JUMPDEST SWAP1 PUSH2 0xA50 PUSH2 0x2D8E JUMP JUMPDEST PUSH2 0xA58 PUSH2 0x2DE4 JUMP JUMPDEST PUSH2 0xA89 PUSH2 0xA64 DUP3 PUSH2 0x3292 JUMP JUMPDEST PUSH2 0xA6C PUSH2 0x49B0 JUMP JUMPDEST PUSH1 0x42 SWAP2 PUSH1 0x40 MLOAD SWAP2 PUSH2 0x1901 PUSH1 0xF0 SHL DUP4 MSTORE PUSH1 0x2 DUP4 ADD MSTORE PUSH1 0x22 DUP3 ADD MSTORE KECCAK256 SWAP1 JUMP JUMPDEST SWAP1 PUSH2 0xA93 DUP2 PUSH2 0x437E JUMP JUMPDEST PUSH1 0x40 DUP2 ADD SWAP1 DUP2 CALLDATALOAD PUSH2 0xAA3 DUP2 PUSH2 0x3B2 JUMP JUMPDEST PUSH1 0x1 PUSH1 0x1 PUSH1 0xA0 SHL SUB AND CALLER SUB PUSH2 0xB6D JUMPI PUSH32 0x86FB430316545BEABD846D7B2EB3E7238960C028D31125164851A3F2305F7C9B SWAP2 PUSH2 0xB05 PUSH2 0xB00 PUSH2 0xAF2 DUP8 DUP6 PUSH2 0xAFB PUSH2 0xAF6 PUSH2 0xAF2 DUP5 PUSH2 0xB60 SWAP11 PUSH2 0x2498 JUMP JUMPDEST ISZERO SWAP1 JUMP JUMPDEST PUSH2 0x24EE JUMP JUMPDEST PUSH2 0x208C JUMP JUMPDEST PUSH2 0x2531 JUMP JUMPDEST PUSH2 0xB3C PUSH2 0xB2F DUP7 PUSH2 0xB20 DUP8 PUSH1 0x0 MSTORE PUSH1 0x9 PUSH1 0x20 MSTORE PUSH1 0x40 PUSH1 0x0 KECCAK256 SWAP1 JUMP JUMPDEST SWAP1 PUSH1 0x0 MSTORE PUSH1 0x20 MSTORE PUSH1 0x40 PUSH1 0x0 KECCAK256 SWAP1 JUMP JUMPDEST DUP1 SLOAD PUSH1 0xFF NOT AND PUSH1 0x1 OR SWAP1 SSTORE JUMP JUMPDEST PUSH1 0x1 PUSH1 0x1 PUSH1 0xA0 SHL SUB SWAP1 PUSH2 0xB4E SWAP1 PUSH2 0x1D3C JUMP JUMPDEST PUSH1 0x40 MLOAD SWAP6 DUP7 MSTORE AND SWAP4 SWAP1 DUP2 SWAP1 PUSH1 0x20 DUP3 ADD SWAP1 JUMP JUMPDEST SUB SWAP1 LOG3 PUSH2 0x19 PUSH1 0x1 PUSH1 0x0 SSTORE JUMP JUMPDEST PUSH1 0x40 MLOAD PUSH3 0x461BCD PUSH1 0xE5 SHL DUP2 MSTORE PUSH1 0x20 PUSH1 0x4 DUP3 ADD MSTORE PUSH1 0x15 PUSH1 0x24 DUP3 ADD MSTORE PUSH21 0x13DB9B1E481B585AD95C8818D85B8818D85B98D95B PUSH1 0x5A SHL PUSH1 0x44 DUP3 ADD MSTORE PUSH1 0x64 SWAP1 REVERT JUMPDEST CALLVALUE PUSH2 0x24B JUMPI PUSH1 0x60 CALLDATASIZE PUSH1 0x3 NOT ADD SLT PUSH2 0x24B JUMPI PUSH1 0x4 CALLDATALOAD PUSH1 0x1 PUSH1 0x1 PUSH1 0x40 SHL SUB DUP2 GT PUSH2 0x24B JUMPI PUSH2 0x3A8 PUSH2 0xBDF PUSH1 0x20 SWAP3 CALLDATASIZE SWAP1 PUSH1 0x4 ADD PUSH2 0x26C JUMP JUMPDEST SWAP1 PUSH2 0xBF2 PUSH1 0x24 CALLDATALOAD SWAP2 PUSH1 0x44 CALLDATALOAD SWAP4 CALLDATASIZE SWAP2 PUSH2 0x257D JUMP JUMPDEST PUSH2 0x4466 JUMP JUMPDEST CALLVALUE PUSH2 0x24B JUMPI PUSH1 0x60 CALLDATASIZE PUSH1 0x3 NOT ADD SLT PUSH2 0x24B JUMPI PUSH1 0x4 CALLDATALOAD PUSH1 0x1 PUSH1 0x1 PUSH1 0x40 SHL SUB DUP2 GT PUSH2 0x24B JUMPI PUSH2 0xC27 SWAP1 CALLDATASIZE SWAP1 PUSH1 0x4 ADD PUSH2 0x29C JUMP JUMPDEST PUSH1 0x24 CALLDATALOAD PUSH1 0x44 CALLDATALOAD SWAP2 PUSH2 0xC36 PUSH2 0x2D8E JUMP JUMPDEST PUSH2 0xC3E PUSH2 0x2DE4 JUMP JUMPDEST PUSH2 0xC59 PUSH2 0xC4A DUP3 PUSH2 0x1EA1 JUMP JUMPDEST PUSH2 0xC53 DUP2 PUSH2 0x1E92 JUMP JUMPDEST ISZERO PUSH2 0x25C9 JUMP JUMPDEST PUSH2 0xDD4 PUSH2 0xCF9 PUSH1 0x40 PUSH2 0xC6A DUP5 PUSH2 0x3292 JUMP JUMPDEST SWAP4 PUSH2 0xC74 DUP2 PUSH2 0x437E JUMP JUMPDEST PUSH2 0xCE6 PUSH2 0xC96 PUSH2 0xC91 DUP9 PUSH2 0xC8B PUSH1 0x20 DUP7 ADD DUP7 PUSH2 0x1D9D JUMP JUMPDEST SWAP1 PUSH2 0x1E61 JUMP JUMPDEST PUSH2 0x2658 JUMP JUMPDEST SWAP7 PUSH2 0xCD2 PUSH2 0xCC2 PUSH1 0x60 DUP11 MLOAD ADD MLOAD PUSH2 0xCBB DUP5 PUSH2 0xB20 DUP13 PUSH1 0x0 MSTORE PUSH1 0x8 PUSH1 0x20 MSTORE PUSH1 0x40 PUSH1 0x0 KECCAK256 SWAP1 JUMP JUMPDEST SLOAD SWAP1 PUSH2 0x1FF8 JUMP JUMPDEST DUP11 ISZERO ISZERO SWAP1 DUP2 PUSH2 0xE11 JUMPI JUMPDEST POP PUSH2 0x2663 JUMP JUMPDEST PUSH2 0xB20 DUP8 PUSH1 0x0 MSTORE PUSH1 0x8 PUSH1 0x20 MSTORE PUSH1 0x40 PUSH1 0x0 KECCAK256 SWAP1 JUMP JUMPDEST PUSH2 0xCF1 DUP9 DUP3 SLOAD PUSH2 0x1F9F JUMP JUMPDEST SWAP1 SSTORE ADD PUSH2 0x1D3C JUMP JUMPDEST PUSH1 0x1 PUSH1 0x1 PUSH1 0xA0 SHL SUB DUP2 AND SWAP4 SWAP1 PUSH2 0xD10 DUP6 ISZERO ISZERO PUSH2 0x26A5 JUMP JUMPDEST PUSH2 0xD1B CALLER ISZERO ISZERO PUSH2 0x26EA JUMP JUMPDEST PUSH2 0xDCE PUSH1 0x20 PUSH2 0xD2A DUP5 MLOAD PUSH2 0x1F69 JUMP JUMPDEST DUP5 MLOAD DUP3 DUP2 ADD MLOAD SWAP2 SWAP6 SWAP2 PUSH2 0xD68 SWAP1 PUSH1 0x40 SWAP1 PUSH1 0x1 PUSH1 0x1 PUSH1 0xA0 SHL SUB AND SWAP3 ADD MLOAD SWAP2 PUSH2 0xD59 PUSH2 0xD52 PUSH2 0x1F20 JUMP JUMPDEST SWAP9 DUP10 PUSH2 0x1F5D JUMP JUMPDEST PUSH1 0x1 PUSH1 0x1 PUSH1 0xA0 SHL SUB AND DUP8 DUP6 ADD MSTORE JUMP JUMPDEST PUSH1 0x40 DUP7 ADD MSTORE DUP9 PUSH1 0x60 DUP7 ADD MSTORE ADD SWAP3 PUSH2 0xD7F DUP5 MLOAD PUSH2 0x1F69 JUMP JUMPDEST SWAP4 MLOAD PUSH1 0x20 DUP2 ADD MLOAD PUSH2 0xDBC SWAP1 PUSH1 0x40 SWAP1 PUSH1 0x1 PUSH1 0x1 PUSH1 0xA0 SHL SUB AND SWAP3 ADD MLOAD SWAP2 PUSH2 0xDAC PUSH2 0xDA5 PUSH2 0x1F20 JUMP JUMPDEST SWAP8 DUP9 PUSH2 0x1F5D JUMP JUMPDEST PUSH1 0x1 PUSH1 0x1 PUSH1 0xA0 SHL SUB AND PUSH1 0x20 DUP8 ADD MSTORE JUMP JUMPDEST PUSH1 0x40 DUP6 ADD MSTORE DUP8 PUSH1 0x60 DUP6 ADD MSTORE CALLER DUP4 PUSH2 0x35BB JUMP JUMPDEST CALLER PUSH2 0x35BB JUMP JUMPDEST PUSH1 0x40 MLOAD SWAP3 DUP4 MSTORE CALLER SWAP3 PUSH32 0x2B2BE5BDC62AAF8DBE8A0FFAC99E7335C8D1245AA56D1D50E01FC21177FB2277 SWAP1 DUP1 PUSH1 0x20 DUP2 ADD JUMPDEST SUB SWAP1 LOG4 PUSH2 0x19 PUSH1 0x1 PUSH1 0x0 SSTORE JUMP JUMPDEST SWAP1 POP DUP11 GT ISZERO CODESIZE PUSH2 0xCCC JUMP JUMPDEST PUSH1 0x80 CALLDATASIZE PUSH1 0x3 NOT ADD SLT PUSH2 0x24B JUMPI PUSH1 0x4 CALLDATALOAD PUSH1 0x1 PUSH1 0x1 PUSH1 0x40 SHL SUB DUP2 GT PUSH2 0x24B JUMPI PUSH2 0xE47 SWAP1 CALLDATASIZE SWAP1 PUSH1 0x4 ADD PUSH2 0x29C JUMP JUMPDEST PUSH1 0x24 CALLDATALOAD PUSH1 0x1 PUSH1 0x1 PUSH1 0x40 SHL SUB DUP2 GT PUSH2 0x24B JUMPI PUSH2 0xE66 SWAP1 CALLDATASIZE SWAP1 PUSH1 0x4 ADD PUSH2 0x29C JUMP JUMPDEST SWAP1 PUSH1 0x44 CALLDATALOAD SWAP1 PUSH1 0x64 CALLDATALOAD SWAP1 PUSH1 0x1 PUSH1 0x1 PUSH1 0x40 SHL SUB DUP3 GT PUSH2 0x24B JUMPI PUSH2 0xE04 DUP5 PUSH2 0x1011 PUSH2 0xF48 PUSH1 0x40 PUSH2 0xF41 DUP2 PUSH32 0x2B2BE5BDC62AAF8DBE8A0FFAC99E7335C8D1245AA56D1D50E01FC21177FB2277 SWAP8 PUSH2 0xEBE DUP8 SWAP11 CALLDATASIZE SWAP1 PUSH1 0x4 ADD PUSH2 0x26C JUMP JUMPDEST PUSH2 0xEC6 PUSH2 0x2D8E JUMP JUMPDEST PUSH2 0xECE PUSH2 0x2DE4 JUMP JUMPDEST PUSH2 0xF01 DUP14 PUSH2 0xEFA PUSH2 0xEF4 PUSH2 0xEE9 DUP4 PUSH2 0xC8B PUSH1 0x20 DUP11 ADD DUP11 PUSH2 0x1D9D JUMP JUMPDEST SWAP13 PUSH1 0x20 DUP2 ADD SWAP1 PUSH2 0x1D9D JUMP JUMPDEST SWAP1 PUSH2 0x1E58 JUMP JUMPDEST SWAP14 DUP6 PUSH2 0x3048 JUMP JUMPDEST PUSH1 0x2 PUSH2 0xF0C DUP5 PUSH2 0x1EA1 JUMP JUMPDEST PUSH2 0xF15 DUP2 PUSH2 0x1E92 JUMP JUMPDEST EQ PUSH2 0x1042 JUMPI JUMPDEST POP POP PUSH2 0xF3B PUSH1 0xE0 PUSH2 0xF2B DUP4 PUSH2 0x3292 JUMP JUMPDEST SWAP12 ADD CALLDATALOAD SWAP12 PUSH1 0x60 DUP10 ADD CALLDATALOAD DUP14 DUP14 PUSH2 0x3364 JUMP JUMPDEST ADD PUSH2 0x1D3C JUMP JUMPDEST SWAP9 ADD PUSH2 0x1D3C JUMP JUMPDEST SWAP2 PUSH2 0x100A PUSH2 0xF55 DUP3 PUSH2 0x1EBF JUMP JUMPDEST SWAP2 PUSH2 0xF62 PUSH1 0x20 DUP3 ADD PUSH2 0x1D3C JUMP JUMPDEST PUSH2 0xF8D PUSH1 0x40 DUP4 ADD CALLDATALOAD SWAP2 PUSH2 0xF7D PUSH2 0xF76 PUSH2 0x1F20 JUMP JUMPDEST SWAP7 DUP8 PUSH2 0x1F5D JUMP JUMPDEST PUSH1 0x1 PUSH1 0x1 PUSH1 0xA0 SHL SUB AND PUSH1 0x20 DUP7 ADD MSTORE JUMP JUMPDEST PUSH1 0x40 DUP5 ADD MSTORE DUP9 PUSH1 0x60 DUP5 ADD MSTORE PUSH2 0xFA4 PUSH1 0x80 DUP3 ADD PUSH2 0x1EBF JUMP JUMPDEST SWAP1 PUSH2 0xFDC PUSH1 0xC0 PUSH2 0xFB6 PUSH1 0xA0 DUP5 ADD PUSH2 0x1D3C JUMP JUMPDEST SWAP3 ADD CALLDATALOAD SWAP2 PUSH2 0xFCC PUSH2 0xFC5 PUSH2 0x1F20 JUMP JUMPDEST SWAP5 DUP6 PUSH2 0x1F5D JUMP JUMPDEST PUSH1 0x1 PUSH1 0x1 PUSH1 0xA0 SHL SUB AND PUSH1 0x20 DUP5 ADD MSTORE JUMP JUMPDEST PUSH1 0x40 DUP3 ADD MSTORE PUSH1 0x60 DUP2 ADD DUP10 DUP2 MSTORE DUP2 MLOAD PUSH2 0xFF3 DUP2 PUSH2 0x1EB5 JUMP JUMPDEST PUSH2 0xFFC DUP2 PUSH2 0x1EB5 JUMP JUMPDEST ISZERO PUSH2 0x102F JUMPI JUMPDEST POP DUP10 DUP6 PUSH2 0x35BB JUMP JUMPDEST DUP3 DUP9 PUSH2 0x35BB JUMP JUMPDEST PUSH1 0x40 MLOAD SWAP5 DUP6 MSTORE PUSH1 0x1 PUSH1 0x1 PUSH1 0xA0 SHL SUB SWAP1 DUP2 AND SWAP6 AND SWAP4 SWAP1 DUP2 SWAP1 PUSH1 0x20 DUP3 ADD SWAP1 JUMP JUMPDEST PUSH2 0x103C SWAP1 MLOAD CALLVALUE LT ISZERO PUSH2 0x272F JUMP JUMPDEST CODESIZE PUSH2 0x1002 JUMP JUMPDEST PUSH2 0x1051 SWAP2 PUSH1 0x80 DUP5 ADD CALLDATALOAD DUP11 PUSH2 0x3158 JUMP JUMPDEST CODESIZE DUP1 PUSH2 0xF1B JUMP JUMPDEST CALLVALUE PUSH2 0x24B JUMPI PUSH1 0x0 CALLDATASIZE PUSH1 0x3 NOT ADD SLT PUSH2 0x24B JUMPI PUSH1 0x20 PUSH1 0x40 MLOAD PUSH2 0xE10 DUP2 MSTORE RETURN JUMPDEST CALLVALUE PUSH2 0x24B JUMPI PUSH1 0x20 CALLDATASIZE PUSH1 0x3 NOT ADD SLT PUSH2 0x24B JUMPI PUSH1 0x4 CALLDATALOAD PUSH2 0x1092 DUP2 PUSH2 0x3B2 JUMP JUMPDEST PUSH2 0x109A PUSH2 0x38FD JUMP JUMPDEST PUSH1 0x1 PUSH1 0x1 PUSH1 0xA0 SHL SUB AND DUP1 ISZERO PUSH2 0x10ED JUMPI PUSH1 0x5 DUP1 SLOAD PUSH1 0x1 PUSH1 0x1 PUSH1 0xA0 SHL SUB NOT DUP2 AND DUP4 OR SWAP1 SWAP2 SSTORE PUSH1 0x1 PUSH1 0x1 PUSH1 0xA0 SHL SUB AND PUSH32 0x6488517F0ED01887D76EB198684456F20DAB9AB4DAD305BD0C0247C7EAAFDCF7 PUSH1 0x0 DUP1 LOG3 STOP JUMPDEST PUSH1 0x40 MLOAD PUSH3 0x461BCD PUSH1 0xE5 SHL DUP2 MSTORE PUSH1 0x20 PUSH1 0x4 DUP3 ADD MSTORE PUSH1 0x1C PUSH1 0x24 DUP3 ADD MSTORE PUSH32 0x496E76616C6964206173736574207472616E73666572206167656E7400000000 PUSH1 0x44 DUP3 ADD MSTORE PUSH1 0x64 SWAP1 REVERT JUMPDEST PUSH1 0x20 CALLDATASIZE PUSH1 0x3 NOT ADD SLT PUSH2 0x24B JUMPI PUSH1 0x4 CALLDATALOAD PUSH1 0x1 PUSH1 0x1 PUSH1 0x40 SHL SUB DUP2 GT PUSH2 0x24B JUMPI PUSH2 0x115D SWAP1 CALLDATASIZE SWAP1 PUSH1 0x4 ADD PUSH2 0x663 JUMP JUMPDEST PUSH2 0x1165 PUSH2 0x2D8E JUMP JUMPDEST PUSH2 0x116D PUSH2 0x2DE4 JUMP JUMPDEST PUSH1 0x40 MLOAD PUSH4 0x1344D6D9 PUSH1 0xE1 SHL DUP2 MSTORE PUSH1 0x20 DUP2 DUP1 PUSH2 0x118B DUP6 PUSH1 0x4 DUP4 ADD PUSH2 0x2827 JUMP JUMPDEST SUB DUP2 PUSH20 0x0 GAS DELEGATECALL SWAP1 DUP2 ISZERO PUSH2 0x1460 JUMPI PUSH1 0x0 SWAP2 PUSH2 0x1505 JUMPI JUMPDEST POP PUSH2 0x11D0 PUSH1 0x1 PUSH1 0x1 PUSH1 0xA0 SHL SUB PUSH2 0x11C8 DUP5 PUSH2 0x1D3C JUMP JUMPDEST AND ISZERO ISZERO PUSH2 0x229C JUMP JUMPDEST PUSH2 0x11DB CALLER ISZERO ISZERO PUSH2 0x26A5 JUMP JUMPDEST PUSH2 0x11FE PUSH2 0x11F6 PUSH2 0x11EA DUP5 PUSH2 0x1D3C JUMP JUMPDEST PUSH1 0x1 PUSH1 0x1 PUSH1 0xA0 SHL SUB AND SWAP1 JUMP JUMPDEST CALLER EQ ISZERO PUSH2 0x28BC JUMP JUMPDEST PUSH2 0x1258 PUSH3 0x278D00 PUSH2 0x1251 PUSH1 0xE0 DUP6 ADD CALLDATALOAD PUSH2 0x1219 DUP2 TIMESTAMP LT ISZERO PUSH2 0x2908 JUMP JUMPDEST PUSH2 0x100 DUP7 ADD CALLDATALOAD PUSH2 0x122A DUP2 TIMESTAMP LT PUSH2 0x294A JUMP JUMPDEST PUSH2 0x1235 DUP3 DUP3 GT PUSH2 0x2986 JUMP JUMPDEST PUSH2 0x124C PUSH2 0xE10 PUSH2 0x1245 DUP5 DUP5 PUSH2 0x1FF8 JUMP JUMPDEST LT ISZERO PUSH2 0x29D2 JUMP JUMPDEST PUSH2 0x1FF8 JUMP JUMPDEST GT ISZERO PUSH2 0x2A12 JUMP JUMPDEST PUSH2 0x1281 PUSH2 0x127C PUSH2 0xAF2 PUSH2 0x1275 DUP5 PUSH1 0x0 MSTORE PUSH1 0xB PUSH1 0x20 MSTORE PUSH1 0x40 PUSH1 0x0 KECCAK256 SWAP1 JUMP JUMPDEST SLOAD PUSH1 0xFF AND SWAP1 JUMP JUMPDEST PUSH2 0x2A51 JUMP JUMPDEST PUSH2 0x128A DUP3 PUSH2 0x451F JUMP JUMPDEST PUSH2 0x129A PUSH1 0xA0 DUP4 ADD CALLDATALOAD CALLVALUE LT ISZERO PUSH2 0x2A9D JUMP JUMPDEST PUSH2 0x12B9 PUSH2 0x12A6 DUP4 PUSH2 0x1D3C JUMP JUMPDEST PUSH2 0x12B3 CALLDATASIZE PUSH1 0x20 DUP7 ADD PUSH2 0x23A2 JUMP JUMPDEST SWAP1 PUSH2 0x3B74 JUMP JUMPDEST PUSH2 0x12CD DUP2 PUSH1 0x0 MSTORE PUSH1 0xA PUSH1 0x20 MSTORE PUSH1 0x40 PUSH1 0x0 KECCAK256 SWAP1 JUMP JUMPDEST PUSH2 0x12EE PUSH1 0x1 DUP3 ADD SLOAD SWAP2 DUP3 ISZERO ISZERO SWAP3 DUP4 PUSH2 0x14D6 JUMPI JUMPDEST POP SLOAD PUSH1 0x1 PUSH1 0x1 PUSH1 0xA0 SHL SUB AND SWAP1 JUMP JUMPDEST SWAP1 PUSH2 0x1465 JUMPI JUMPDEST POP PUSH1 0x6 SLOAD PUSH2 0x130C SWAP1 PUSH2 0x11EA SWAP1 PUSH1 0x1 PUSH1 0x1 PUSH1 0xA0 SHL SUB AND DUP2 JUMP JUMPDEST PUSH2 0x1315 DUP4 PUSH2 0x1D3C JUMP JUMPDEST SWAP1 DUP1 EXTCODESIZE ISZERO PUSH2 0x24B JUMPI PUSH1 0x40 MLOAD PUSH4 0x397AE561 PUSH1 0xE2 SHL DUP2 MSTORE PUSH1 0x4 DUP2 ADD DUP5 SWAP1 MSTORE PUSH1 0x1 PUSH1 0x1 PUSH1 0xA0 SHL SUB SWAP3 SWAP1 SWAP3 AND PUSH1 0x24 DUP4 ADD MSTORE CALLER PUSH1 0x44 DUP4 ADD MSTORE CALLVALUE PUSH1 0x64 DUP4 ADD DUP2 SWAP1 MSTORE PUSH1 0x0 SWAP2 DUP4 SWAP2 PUSH1 0x84 SWAP2 DUP4 SWAP2 SWAP1 GAS CALL DUP1 ISZERO PUSH2 0x1460 JUMPI PUSH2 0x1445 JUMPI JUMPDEST POP PUSH2 0x13CC PUSH2 0x1374 PUSH2 0x1F2F JUMP JUMPDEST CALLER DUP2 MSTORE CALLVALUE PUSH1 0x20 DUP3 ADD MSTORE TIMESTAMP PUSH1 0x40 DUP3 ADD MSTORE PUSH2 0x1397 DUP4 PUSH1 0x0 MSTORE PUSH1 0xA PUSH1 0x20 MSTORE PUSH1 0x40 PUSH1 0x0 KECCAK256 SWAP1 JUMP JUMPDEST DUP2 MLOAD DUP2 SLOAD PUSH1 0x1 PUSH1 0x1 PUSH1 0xA0 SHL SUB NOT AND PUSH1 0x1 PUSH1 0x1 PUSH1 0xA0 SHL SUB SWAP2 SWAP1 SWAP2 AND OR DUP2 SSTORE PUSH1 0x20 DUP3 ADD MLOAD PUSH1 0x1 DUP3 ADD SSTORE PUSH1 0x40 SWAP1 SWAP2 ADD MLOAD PUSH1 0x2 SWAP1 SWAP2 ADD SSTORE JUMP JUMPDEST PUSH1 0x40 DUP1 MLOAD CALLVALUE DUP2 MSTORE TIMESTAMP PUSH1 0x20 DUP3 ADD MSTORE CALLER SWAP2 DUP4 SWAP2 PUSH32 0xA9D1969315752A4D63387F7972393F147BE8C4662B0A2AF2DB8A4B0F0A953C65 SWAP2 SWAP1 LOG3 PUSH1 0xC0 DUP3 ADD CALLDATALOAD DUP1 ISZERO ISZERO SWAP1 DUP2 PUSH2 0x143A JUMPI JUMPDEST POP PUSH2 0x1420 JUMPI JUMPDEST PUSH2 0x19 PUSH1 0x1 PUSH1 0x0 SSTORE JUMP JUMPDEST PUSH2 0x142E PUSH2 0x1433 SWAP3 CALLDATASIZE SWAP1 PUSH2 0x240B JUMP JUMPDEST PUSH2 0x3E1E JUMP JUMPDEST CODESIZE DUP1 PUSH2 0x1416 JUMP JUMPDEST SWAP1 POP CALLVALUE LT ISZERO CODESIZE PUSH2 0x1410 JUMP JUMPDEST DUP1 PUSH2 0x1454 PUSH1 0x0 PUSH2 0x145A SWAP4 PUSH2 0x1EFF JUMP JUMPDEST DUP1 PUSH2 0x240 JUMP JUMPDEST CODESIZE PUSH2 0x1368 JUMP JUMPDEST PUSH2 0x28B0 JUMP JUMPDEST PUSH1 0x6 SLOAD PUSH2 0x147C SWAP1 PUSH2 0x11EA SWAP1 PUSH1 0x1 PUSH1 0x1 PUSH1 0xA0 SHL SUB AND DUP2 JUMP JUMPDEST DUP1 EXTCODESIZE ISZERO PUSH2 0x24B JUMPI PUSH1 0x40 MLOAD PUSH4 0x116D00CB PUSH1 0xE2 SHL DUP2 MSTORE PUSH1 0x4 DUP2 ADD DUP5 SWAP1 MSTORE PUSH1 0x1 PUSH1 0x1 PUSH1 0xA0 SHL SUB SWAP3 SWAP1 SWAP3 AND PUSH1 0x24 DUP4 ADD MSTORE PUSH1 0x0 SWAP1 DUP3 SWAP1 PUSH1 0x44 SWAP1 DUP3 SWAP1 DUP5 SWAP1 GAS CALL DUP1 ISZERO PUSH2 0x1460 JUMPI ISZERO PUSH2 0x12F4 JUMPI DUP1 PUSH2 0x1454 PUSH1 0x0 PUSH2 0x14D0 SWAP4 PUSH2 0x1EFF JUMP JUMPDEST CODESIZE PUSH2 0x12F4 JUMP JUMPDEST PUSH2 0x14F7 DUP2 PUSH2 0x14F1 PUSH2 0x14E9 PUSH2 0x14FF SWAP5 PUSH2 0x2AE1 JUMP JUMPDEST PUSH2 0x2710 SWAP1 DIV SWAP1 JUMP JUMPDEST SWAP1 PUSH2 0x1F9F JUMP JUMPDEST CALLVALUE LT ISZERO PUSH2 0x2B0A JUMP JUMPDEST CODESIZE PUSH2 0x12E0 JUMP JUMPDEST PUSH2 0x1527 SWAP2 POP PUSH1 0x20 RETURNDATASIZE PUSH1 0x20 GT PUSH2 0x152D JUMPI JUMPDEST PUSH2 0x151F DUP2 DUP4 PUSH2 0x1EFF JUMP JUMPDEST DUP2 ADD SWAP1 PUSH2 0x2774 JUMP JUMPDEST CODESIZE PUSH2 0x11B3 JUMP JUMPDEST POP RETURNDATASIZE PUSH2 0x1515 JUMP JUMPDEST CALLVALUE PUSH2 0x24B JUMPI PUSH1 0x0 CALLDATASIZE PUSH1 0x3 NOT ADD SLT PUSH2 0x24B JUMPI PUSH1 0x20 PUSH1 0x40 MLOAD PUSH2 0x2710 DUP2 MSTORE RETURN JUMPDEST CALLVALUE PUSH2 0x24B JUMPI PUSH1 0x0 CALLDATASIZE PUSH1 0x3 NOT ADD SLT PUSH2 0x24B JUMPI PUSH2 0x156A PUSH2 0x38FD JUMP JUMPDEST SELFBALANCE DUP1 ISZERO PUSH2 0x15DC JUMPI PUSH2 0x15A1 PUSH1 0x0 DUP1 DUP1 DUP1 DUP6 PUSH2 0x1591 PUSH2 0x11EA PUSH2 0x11EA PUSH1 0x1 SLOAD PUSH1 0x1 DUP1 PUSH1 0xA0 SHL SUB AND SWAP1 JUMP JUMPDEST GAS CALL PUSH2 0x159B PUSH2 0x2020 JUMP JUMPDEST POP PUSH2 0x2B56 JUMP JUMPDEST PUSH1 0x1 SLOAD PUSH1 0x40 MLOAD SWAP2 DUP3 MSTORE PUSH1 0x1 PUSH1 0x1 PUSH1 0xA0 SHL SUB AND SWAP1 PUSH32 0x23D6711A1D031134A36921253C75AA59E967D38E369AC625992824315E204F20 SWAP1 PUSH1 0x20 SWAP1 LOG2 STOP JUMPDEST PUSH1 0x40 MLOAD PUSH3 0x461BCD PUSH1 0xE5 SHL DUP2 MSTORE PUSH1 0x20 PUSH1 0x4 DUP3 ADD MSTORE PUSH1 0x14 PUSH1 0x24 DUP3 ADD MSTORE PUSH20 0x4E6F2066756E647320746F207769746864726177 PUSH1 0x60 SHL PUSH1 0x44 DUP3 ADD MSTORE PUSH1 0x64 SWAP1 REVERT JUMPDEST CALLVALUE PUSH2 0x24B JUMPI PUSH1 0x20 CALLDATASIZE PUSH1 0x3 NOT ADD SLT PUSH2 0x24B JUMPI PUSH1 0x4 CALLDATALOAD PUSH2 0x1635 DUP2 PUSH2 0x3B2 JUMP JUMPDEST PUSH2 0x163D PUSH2 0x38FD JUMP JUMPDEST PUSH1 0x1 PUSH1 0x1 PUSH1 0xA0 SHL SUB AND DUP1 ISZERO PUSH2 0x1690 JUMPI PUSH1 0x4 DUP1 SLOAD PUSH1 0x1 PUSH1 0x1 PUSH1 0xA0 SHL SUB NOT DUP2 AND DUP4 OR SWAP1 SWAP2 SSTORE PUSH1 0x1 PUSH1 0x1 PUSH1 0xA0 SHL SUB AND PUSH32 0xAAEBCF1BFA00580E41D966056B48521FA9F202645C86D4DDF28113E617C1B1D3 PUSH1 0x0 DUP1 LOG3 STOP JUMPDEST PUSH1 0x40 MLOAD PUSH3 0x461BCD PUSH1 0xE5 SHL DUP2 MSTORE PUSH1 0x20 PUSH1 0x4 DUP3 ADD MSTORE PUSH1 0x15 PUSH1 0x24 DUP3 ADD MSTORE PUSH21 0x125B9D985B1A5908199959481C9958DA5C1A595B9D PUSH1 0x5A SHL PUSH1 0x44 DUP3 ADD MSTORE PUSH1 0x64 SWAP1 REVERT JUMPDEST CALLVALUE PUSH2 0x24B JUMPI PUSH1 0x40 CALLDATASIZE PUSH1 0x3 NOT ADD SLT PUSH2 0x24B JUMPI PUSH1 0x4 CALLDATALOAD PUSH1 0x1 PUSH1 0x1 PUSH1 0x40 SHL SUB DUP2 GT PUSH2 0x24B JUMPI PUSH2 0x16FD SWAP1 CALLDATASIZE SWAP1 PUSH1 0x4 ADD PUSH2 0x663 JUMP JUMPDEST PUSH1 0x24 CALLDATALOAD SWAP1 PUSH2 0x1709 PUSH2 0x2D8E JUMP JUMPDEST PUSH2 0x1744 PUSH2 0xDD4 PUSH2 0x1718 DUP4 PUSH2 0x1D3C JUMP JUMPDEST SWAP4 PUSH1 0xA0 DUP5 ADD SWAP5 PUSH2 0xDCE PUSH2 0x172A DUP8 PUSH2 0x1D3C JUMP JUMPDEST SWAP6 PUSH2 0x1749 PUSH2 0x173C PUSH2 0x140 DUP4 ADD DUP4 PUSH2 0x2BA2 JUMP JUMPDEST SWAP8 SWAP1 SWAP9 PUSH2 0x45C5 JUMP JUMPDEST PUSH2 0x2BD4 JUMP JUMPDEST PUSH2 0x176A PUSH2 0x1765 PUSH2 0xAF2 PUSH2 0x175C CALLDATASIZE DUP6 PUSH2 0x2C20 JUMP JUMPDEST PUSH1 0xA0 ADD MLOAD TIMESTAMP GT SWAP1 JUMP JUMPDEST PUSH2 0x2CAD JUMP JUMPDEST PUSH1 0x1 PUSH1 0x1 PUSH1 0xA0 SHL SUB DUP4 AND SWAP7 PUSH2 0x17F5 SWAP1 PUSH2 0x17D8 SWAP1 PUSH2 0x17D2 SWAP1 PUSH2 0x178D CALLER DUP13 EQ ISZERO PUSH2 0x2CE7 JUMP JUMPDEST PUSH2 0x179E PUSH2 0x1799 DUP7 PUSH2 0x4748 JUMP JUMPDEST PUSH2 0x46E5 JUMP JUMPDEST SWAP10 PUSH2 0x17CB PUSH2 0x17BF PUSH2 0x17B9 DUP14 PUSH1 0x0 MSTORE PUSH1 0xC PUSH1 0x20 MSTORE PUSH1 0x40 PUSH1 0x0 KECCAK256 SWAP1 JUMP JUMPDEST SLOAD PUSH2 0x1F8C JUMP JUMPDEST PUSH1 0xC0 DUP9 ADD CALLDATALOAD LT ISZERO PUSH2 0x2D33 JUMP JUMPDEST CALLDATASIZE SWAP2 PUSH2 0x2225 JUMP JUMPDEST DUP9 PUSH2 0x46F1 JUMP JUMPDEST PUSH2 0x17E4 PUSH2 0x11EA DUP5 PUSH2 0x1D3C JUMP JUMPDEST PUSH1 0x1 PUSH1 0x1 PUSH1 0xA0 SHL SUB SWAP1 SWAP2 AND EQ PUSH2 0x225C JUMP JUMPDEST PUSH2 0x1803 PUSH1 0x80 DUP3 ADD CALLDATALOAD SWAP9 PUSH2 0x1D3C JUMP JUMPDEST SWAP4 PUSH2 0x1819 PUSH2 0x180F PUSH2 0x1F20 JUMP JUMPDEST PUSH1 0x3 DUP2 MSTORE SWAP6 PUSH2 0xDAC JUMP JUMPDEST PUSH1 0x40 DUP6 ADD MSTORE PUSH1 0x1 PUSH1 0x60 DUP6 ADD MSTORE PUSH2 0x1831 PUSH1 0x20 DUP3 ADD PUSH2 0x1EBF JUMP JUMPDEST SWAP1 PUSH2 0x1843 PUSH1 0x60 PUSH2 0xFB6 PUSH1 0x40 DUP5 ADD PUSH2 0x1D3C JUMP JUMPDEST PUSH1 0x40 DUP3 ADD MSTORE DUP8 PUSH1 0x60 DUP3 ADD MSTORE PUSH2 0x1858 DUP5 CALLER PUSH2 0x3B74 JUMP JUMPDEST PUSH2 0x186C DUP7 PUSH1 0x0 MSTORE PUSH1 0xC PUSH1 0x20 MSTORE PUSH1 0x40 PUSH1 0x0 KECCAK256 SWAP1 JUMP JUMPDEST PUSH2 0x1876 DUP2 SLOAD PUSH2 0x2D7F JUMP JUMPDEST SWAP1 SSTORE CALLER DUP4 PUSH2 0x35BB JUMP JUMPDEST CALLVALUE PUSH2 0x24B JUMPI PUSH1 0x40 CALLDATASIZE PUSH1 0x3 NOT ADD SLT PUSH2 0x24B JUMPI PUSH1 0x4 CALLDATALOAD PUSH1 0x24 CALLDATALOAD SWAP1 PUSH1 0x0 MSTORE PUSH1 0x8 PUSH1 0x20 MSTORE PUSH1 0x40 PUSH1 0x0 KECCAK256 SWAP1 PUSH1 0x0 MSTORE PUSH1 0x20 MSTORE PUSH1 0x20 PUSH1 0x40 PUSH1 0x0 KECCAK256 SLOAD PUSH1 0x40 MLOAD SWAP1 DUP2 MSTORE RETURN JUMPDEST CALLVALUE PUSH2 0x24B JUMPI PUSH1 0x20 CALLDATASIZE PUSH1 0x3 NOT ADD SLT PUSH2 0x24B JUMPI PUSH1 0x4 CALLDATALOAD PUSH2 0x18D8 DUP2 PUSH2 0x3B2 JUMP JUMPDEST PUSH2 0x18E0 PUSH2 0x38FD JUMP JUMPDEST PUSH1 0x1 PUSH1 0x1 PUSH1 0xA0 SHL SUB DUP2 AND ISZERO PUSH2 0x1938 JUMPI PUSH1 0x1 DUP1 SLOAD PUSH1 0x1 PUSH1 0x1 PUSH1 0xA0 SHL SUB SWAP3 DUP4 AND PUSH1 0x1 PUSH1 0x1 PUSH1 0xA0 SHL SUB NOT DUP3 AND DUP2 OR SWAP1 SWAP3 SSTORE SWAP1 SWAP2 AND PUSH32 0x8BE0079C531659141344CD1FD0A4F28419497F9722A3DAAFE3B4186F6B6457E0 PUSH1 0x0 DUP1 LOG3 STOP JUMPDEST PUSH1 0x40 MLOAD PUSH3 0x461BCD PUSH1 0xE5 SHL DUP2 MSTORE PUSH1 0x20 PUSH1 0x4 DUP3 ADD MSTORE PUSH1 0x26 PUSH1 0x24 DUP3 ADD MSTORE PUSH32 0x4F776E61626C653A206E6577206F776E657220697320746865207A65726F2061 PUSH1 0x44 DUP3 ADD MSTORE PUSH6 0x646472657373 PUSH1 0xD0 SHL PUSH1 0x64 DUP3 ADD MSTORE PUSH1 0x84 SWAP1 REVERT JUMPDEST SWAP2 SWAP4 SWAP3 SWAP6 SWAP1 SWAP5 PUSH2 0x199A PUSH2 0x2D8E JUMP JUMPDEST PUSH2 0x19A2 PUSH2 0x2DE4 JUMP JUMPDEST PUSH2 0x19AD DUP5 DUP8 EQ PUSH2 0x1C3B JUMP JUMPDEST PUSH2 0x19B8 DUP3 DUP8 EQ PUSH2 0x1C79 JUMP JUMPDEST PUSH2 0x19C3 DUP7 ISZERO ISZERO PUSH2 0x1CBE JUMP JUMPDEST PUSH1 0x0 SWAP7 PUSH1 0x20 DUP7 ADD SWAP4 DUP9 JUMPDEST DUP9 DUP2 LT PUSH2 0x1A2A JUMPI POP POP POP POP POP POP POP POP POP DUP1 PUSH2 0x19EE JUMPI JUMPDEST POP PUSH2 0x3CE PUSH1 0x1 PUSH1 0x0 SSTORE JUMP JUMPDEST DUP1 PUSH2 0x19FE PUSH2 0x1A04 SWAP3 CALLVALUE LT ISZERO PUSH2 0x1FAC JUMP JUMPDEST CALLVALUE PUSH2 0x1FF8 JUMP JUMPDEST DUP1 ISZERO PUSH2 0x19E3 JUMPI PUSH1 0x0 DUP1 DUP1 DUP1 PUSH2 0x1A24 SWAP5 CALLER GAS CALL PUSH2 0x1A1E PUSH2 0x2020 JUMP JUMPDEST POP PUSH2 0x2050 JUMP JUMPDEST CODESIZE PUSH2 0x19E3 JUMP JUMPDEST PUSH2 0x1A47 PUSH2 0x1A40 PUSH2 0x11EA PUSH1 0x40 PUSH2 0xF3B DUP6 DUP15 DUP9 PUSH2 0x1D15 JUMP JUMPDEST ISZERO ISZERO PUSH2 0x1D49 JUMP JUMPDEST PUSH2 0x1A77 PUSH2 0x1A55 DUP3 DUP10 DUP7 PUSH2 0x1D8D JUMP JUMPDEST CALLDATALOAD PUSH2 0x1A6E PUSH2 0x1A64 DUP5 DUP14 DUP8 PUSH2 0x1D15 JUMP JUMPDEST PUSH1 0x20 DUP2 ADD SWAP1 PUSH2 0x1D9D JUMP JUMPDEST SWAP2 SWAP1 POP LT PUSH2 0x1DD3 JUMP JUMPDEST DUP6 PUSH2 0x1A83 DUP3 DUP12 DUP6 PUSH2 0x1D15 JUMP JUMPDEST DUP10 PUSH2 0x1B05 PUSH1 0x40 PUSH2 0x1A94 DUP7 DUP14 DUP11 PUSH2 0x1D8D JUMP JUMPDEST CALLDATALOAD SWAP4 PUSH2 0x1AA1 DUP8 DUP13 DUP13 PUSH2 0x1E14 JUMP JUMPDEST PUSH2 0x1ACB DUP8 PUSH2 0x1AC4 DUP12 PUSH2 0xC8B PUSH2 0x1ABD DUP5 PUSH2 0xC8B PUSH1 0x20 DUP12 ADD DUP12 PUSH2 0x1D9D JUMP JUMPDEST SWAP13 DUP12 PUSH2 0x1D9D JUMP JUMPDEST SWAP8 DUP6 PUSH2 0x3048 JUMP JUMPDEST PUSH1 0x2 PUSH2 0x1AD6 DUP5 PUSH2 0x1EA1 JUMP JUMPDEST PUSH2 0x1ADF DUP2 PUSH2 0x1E92 JUMP JUMPDEST EQ PUSH2 0x1C25 JUMPI JUMPDEST POP POP PUSH2 0xF3B PUSH1 0xE0 PUSH2 0x1AF5 DUP4 PUSH2 0x3292 JUMP JUMPDEST SWAP6 ADD CALLDATALOAD SWAP6 PUSH1 0x60 DUP9 ADD CALLDATALOAD DUP8 DUP8 PUSH2 0x3364 JUMP JUMPDEST SWAP3 PUSH2 0x1B12 PUSH1 0x40 DUP14 ADD PUSH2 0x1D3C JUMP JUMPDEST SWAP1 PUSH2 0x1B1C DUP2 PUSH2 0x1EBF JUMP JUMPDEST SWAP1 PUSH2 0x1B29 PUSH1 0x20 DUP3 ADD PUSH2 0x1D3C JUMP JUMPDEST PUSH2 0x1B54 PUSH1 0x40 DUP4 ADD CALLDATALOAD SWAP2 PUSH2 0x1B44 PUSH2 0x1B3D PUSH2 0x1F20 JUMP JUMPDEST SWAP6 DUP7 PUSH2 0x1F5D JUMP JUMPDEST PUSH1 0x1 PUSH1 0x1 PUSH1 0xA0 SHL SUB AND PUSH1 0x20 DUP6 ADD MSTORE JUMP JUMPDEST PUSH1 0x40 DUP4 ADD MSTORE DUP5 PUSH1 0x60 DUP4 ADD MSTORE PUSH2 0x1B6B PUSH1 0x80 DUP3 ADD PUSH2 0x1EBF JUMP JUMPDEST SWAP1 PUSH2 0x1B7D PUSH1 0xC0 PUSH2 0xFB6 PUSH1 0xA0 DUP5 ADD PUSH2 0x1D3C JUMP JUMPDEST PUSH1 0x40 DUP3 ADD MSTORE DUP5 PUSH1 0x60 DUP3 ADD MSTORE DUP1 MLOAD PUSH2 0x1B93 DUP2 PUSH2 0x1EB5 JUMP JUMPDEST PUSH2 0x1B9C DUP2 PUSH2 0x1EB5 JUMP JUMPDEST ISZERO PUSH2 0x1C03 JUMPI JUMPDEST DUP3 PUSH2 0x1BDC PUSH32 0x2B2BE5BDC62AAF8DBE8A0FFAC99E7335C8D1245AA56D1D50E01FC21177FB2277 SWAP4 PUSH2 0x100A PUSH2 0x1BFA SWAP5 DUP11 PUSH1 0x1 SWAP13 SWAP12 SWAP11 SWAP10 SWAP9 PUSH2 0x35BB JUMP JUMPDEST PUSH1 0x40 MLOAD SWAP5 DUP6 MSTORE PUSH1 0xA0 DUP9 SWAP1 SHL DUP9 SWAP1 SUB SWAP1 DUP2 AND SWAP6 AND SWAP4 SWAP1 DUP2 SWAP1 PUSH1 0x20 DUP3 ADD SWAP1 JUMP JUMPDEST SUB SWAP1 LOG4 ADD PUSH2 0x19CD JUMP JUMPDEST SWAP15 DUP16 PUSH1 0x60 SWAP1 SWAP8 SWAP7 SWAP6 SWAP5 SWAP4 SWAP8 ADD MLOAD PUSH2 0x1C19 SWAP2 PUSH2 0x1F9F JUMP JUMPDEST SWAP15 SWAP6 SWAP2 SWAP3 SWAP4 SWAP5 SWAP6 PUSH2 0x1BA2 JUMP JUMPDEST PUSH2 0x1C34 SWAP2 PUSH1 0x80 DUP5 ADD CALLDATALOAD DUP10 PUSH2 0x3158 JUMP JUMPDEST CODESIZE DUP1 PUSH2 0x1AE5 JUMP JUMPDEST ISZERO PUSH2 0x1C42 JUMPI JUMP JUMPDEST PUSH1 0x40 MLOAD PUSH3 0x461BCD PUSH1 0xE5 SHL DUP2 MSTORE PUSH1 0x20 PUSH1 0x4 DUP3 ADD MSTORE PUSH1 0xF PUSH1 0x24 DUP3 ADD MSTORE PUSH15 0x98CADCCEE8D040DAD2E6DAC2E8C6D PUSH1 0x8B SHL PUSH1 0x44 DUP3 ADD MSTORE PUSH1 0x64 SWAP1 REVERT JUMPDEST ISZERO PUSH2 0x1C80 JUMPI JUMP JUMPDEST PUSH1 0x40 MLOAD PUSH3 0x461BCD PUSH1 0xE5 SHL DUP2 MSTORE PUSH1 0x20 PUSH1 0x4 DUP3 ADD MSTORE PUSH1 0x16 PUSH1 0x24 DUP3 ADD MSTORE PUSH22 0xA0E4DEDECCE640D8CADCCEE8D040DAD2E6DAC2E8C6D PUSH1 0x53 SHL PUSH1 0x44 DUP3 ADD MSTORE PUSH1 0x64 SWAP1 REVERT JUMPDEST ISZERO PUSH2 0x1CC5 JUMPI JUMP JUMPDEST PUSH1 0x40 MLOAD PUSH3 0x461BCD PUSH1 0xE5 SHL DUP2 MSTORE PUSH1 0x20 PUSH1 0x4 DUP3 ADD MSTORE PUSH1 0x12 PUSH1 0x24 DUP3 ADD MSTORE PUSH18 0x456D707479206F7264657273206172726179 PUSH1 0x70 SHL PUSH1 0x44 DUP3 ADD MSTORE PUSH1 0x64 SWAP1 REVERT JUMPDEST PUSH4 0x4E487B71 PUSH1 0xE0 SHL PUSH1 0x0 MSTORE PUSH1 0x32 PUSH1 0x4 MSTORE PUSH1 0x24 PUSH1 0x0 REVERT JUMPDEST SWAP2 SWAP1 DUP2 LT ISZERO PUSH2 0x1D37 JUMPI PUSH1 0x5 SHL DUP2 ADD CALLDATALOAD SWAP1 PUSH1 0xDE NOT DUP2 CALLDATASIZE SUB ADD DUP3 SLT ISZERO PUSH2 0x24B JUMPI ADD SWAP1 JUMP JUMPDEST PUSH2 0x1CFF JUMP JUMPDEST CALLDATALOAD PUSH2 0x1D46 DUP2 PUSH2 0x3B2 JUMP JUMPDEST SWAP1 JUMP JUMPDEST ISZERO PUSH2 0x1D50 JUMPI JUMP JUMPDEST PUSH1 0x40 MLOAD PUSH3 0x461BCD PUSH1 0xE5 SHL DUP2 MSTORE PUSH1 0x20 PUSH1 0x4 DUP3 ADD MSTORE PUSH1 0x15 PUSH1 0x24 DUP3 ADD MSTORE PUSH21 0x496E76616C6964206D616B65722061646472657373 PUSH1 0x58 SHL PUSH1 0x44 DUP3 ADD MSTORE PUSH1 0x64 SWAP1 REVERT JUMPDEST SWAP2 SWAP1 DUP2 LT ISZERO PUSH2 0x1D37 JUMPI PUSH1 0x5 SHL ADD SWAP1 JUMP JUMPDEST SWAP1 CALLDATALOAD SWAP1 PUSH1 0x1E NOT DUP2 CALLDATASIZE SUB ADD DUP3 SLT ISZERO PUSH2 0x24B JUMPI ADD DUP1 CALLDATALOAD SWAP1 PUSH1 0x1 PUSH1 0x1 PUSH1 0x40 SHL SUB DUP3 GT PUSH2 0x24B JUMPI PUSH1 0x20 ADD SWAP2 PUSH2 0x140 DUP3 MUL CALLDATASIZE SUB DUP4 SGT PUSH2 0x24B JUMPI JUMP JUMPDEST ISZERO PUSH2 0x1DDA JUMPI JUMP JUMPDEST PUSH1 0x40 MLOAD PUSH3 0x461BCD PUSH1 0xE5 SHL DUP2 MSTORE PUSH1 0x20 PUSH1 0x4 DUP3 ADD MSTORE PUSH1 0x12 PUSH1 0x24 DUP3 ADD MSTORE PUSH18 0x92DCECC2D8D2C840D2E8CADA40D2DCC8CAF PUSH1 0x73 SHL PUSH1 0x44 DUP3 ADD MSTORE PUSH1 0x64 SWAP1 REVERT JUMPDEST SWAP2 SWAP1 DUP2 LT ISZERO PUSH2 0x1D37 JUMPI PUSH1 0x5 SHL DUP2 ADD CALLDATALOAD SWAP1 PUSH1 0x1E NOT DUP2 CALLDATASIZE SUB ADD DUP3 SLT ISZERO PUSH2 0x24B JUMPI ADD SWAP1 DUP2 CALLDATALOAD SWAP2 PUSH1 0x1 PUSH1 0x1 PUSH1 0x40 SHL SUB DUP4 GT PUSH2 0x24B JUMPI PUSH1 0x20 ADD DUP3 PUSH1 0x5 SHL CALLDATASIZE SUB DUP2 SGT PUSH2 0x24B JUMPI SWAP2 SWAP1 JUMP JUMPDEST SWAP1 ISZERO PUSH2 0x1D37 JUMPI SWAP1 JUMP JUMPDEST SWAP2 SWAP1 DUP2 LT ISZERO PUSH2 0x1D37 JUMPI PUSH2 0x140 MUL ADD SWAP1 JUMP JUMPDEST PUSH1 0x3 GT ISZERO PUSH2 0x24B JUMPI JUMP JUMPDEST PUSH4 0x4E487B71 PUSH1 0xE0 SHL PUSH1 0x0 MSTORE PUSH1 0x21 PUSH1 0x4 MSTORE PUSH1 0x24 PUSH1 0x0 REVERT JUMPDEST PUSH1 0x3 GT ISZERO PUSH2 0x1E9C JUMPI JUMP JUMPDEST PUSH2 0x1E7C JUMP JUMPDEST CALLDATALOAD PUSH2 0x1D46 DUP2 PUSH2 0x1E72 JUMP JUMPDEST PUSH1 0x4 GT ISZERO PUSH2 0x24B JUMPI JUMP JUMPDEST PUSH1 0x4 GT ISZERO PUSH2 0x1E9C JUMPI JUMP JUMPDEST CALLDATALOAD PUSH2 0x1D46 DUP2 PUSH2 0x1EAB JUMP JUMPDEST PUSH4 0x4E487B71 PUSH1 0xE0 SHL PUSH1 0x0 MSTORE PUSH1 0x41 PUSH1 0x4 MSTORE PUSH1 0x24 PUSH1 0x0 REVERT JUMPDEST PUSH1 0x80 DUP2 ADD SWAP1 DUP2 LT PUSH1 0x1 PUSH1 0x1 PUSH1 0x40 SHL SUB DUP3 GT OR PUSH2 0x1EFA JUMPI PUSH1 0x40 MSTORE JUMP JUMPDEST PUSH2 0x1EC9 JUMP JUMPDEST SWAP1 PUSH1 0x1F DUP1 NOT SWAP2 ADD AND DUP2 ADD SWAP1 DUP2 LT PUSH1 0x1 PUSH1 0x1 PUSH1 0x40 SHL SUB DUP3 GT OR PUSH2 0x1EFA JUMPI PUSH1 0x40 MSTORE JUMP JUMPDEST PUSH1 0x40 MLOAD SWAP1 PUSH2 0x3CE PUSH1 0x80 DUP4 PUSH2 0x1EFF JUMP JUMPDEST PUSH1 0x40 MLOAD SWAP1 PUSH2 0x3CE PUSH1 0x60 DUP4 PUSH2 0x1EFF JUMP JUMPDEST PUSH1 0x40 MLOAD SWAP1 PUSH2 0x3CE PUSH2 0x100 DUP4 PUSH2 0x1EFF JUMP JUMPDEST PUSH1 0x40 MLOAD SWAP1 PUSH2 0x3CE PUSH1 0xE0 DUP4 PUSH2 0x1EFF JUMP JUMPDEST PUSH1 0x4 DUP3 LT ISZERO PUSH2 0x1E9C JUMPI MSTORE JUMP JUMPDEST MLOAD PUSH1 0x4 DUP2 LT ISZERO PUSH2 0x1E9C JUMPI SWAP1 JUMP JUMPDEST PUSH4 0x4E487B71 PUSH1 0xE0 SHL PUSH1 0x0 MSTORE PUSH1 0x11 PUSH1 0x4 MSTORE PUSH1 0x24 PUSH1 0x0 REVERT JUMPDEST SWAP1 PUSH1 0x1 DUP3 ADD DUP1 SWAP3 GT PUSH2 0x1F9A JUMPI JUMP JUMPDEST PUSH2 0x1F76 JUMP JUMPDEST SWAP2 SWAP1 DUP3 ADD DUP1 SWAP3 GT PUSH2 0x1F9A JUMPI JUMP JUMPDEST ISZERO PUSH2 0x1FB3 JUMPI JUMP JUMPDEST PUSH1 0x40 MLOAD PUSH3 0x461BCD PUSH1 0xE5 SHL DUP2 MSTORE PUSH1 0x20 PUSH1 0x4 DUP3 ADD MSTORE PUSH1 0x1C PUSH1 0x24 DUP3 ADD MSTORE PUSH32 0x496E73756666696369656E7420746F74616C206D73672E76616C756500000000 PUSH1 0x44 DUP3 ADD MSTORE PUSH1 0x64 SWAP1 REVERT JUMPDEST SWAP2 SWAP1 DUP3 SUB SWAP2 DUP3 GT PUSH2 0x1F9A JUMPI JUMP JUMPDEST PUSH1 0x1 PUSH1 0x1 PUSH1 0x40 SHL SUB DUP2 GT PUSH2 0x1EFA JUMPI PUSH1 0x1F ADD PUSH1 0x1F NOT AND PUSH1 0x20 ADD SWAP1 JUMP JUMPDEST RETURNDATASIZE ISZERO PUSH2 0x204B JUMPI RETURNDATASIZE SWAP1 PUSH2 0x2031 DUP3 PUSH2 0x2005 JUMP JUMPDEST SWAP2 PUSH2 0x203F PUSH1 0x40 MLOAD SWAP4 DUP5 PUSH2 0x1EFF JUMP JUMPDEST DUP3 MSTORE RETURNDATASIZE PUSH1 0x0 PUSH1 0x20 DUP5 ADD RETURNDATACOPY JUMP JUMPDEST PUSH1 0x60 SWAP1 JUMP JUMPDEST ISZERO PUSH2 0x2057 JUMPI JUMP JUMPDEST PUSH1 0x40 MLOAD PUSH3 0x461BCD PUSH1 0xE5 SHL DUP2 MSTORE PUSH1 0x20 PUSH1 0x4 DUP3 ADD MSTORE PUSH1 0xD PUSH1 0x24 DUP3 ADD MSTORE PUSH13 0x1499599D5B990819985A5B1959 PUSH1 0x9A SHL PUSH1 0x44 DUP3 ADD MSTORE PUSH1 0x64 SWAP1 REVERT JUMPDEST PUSH2 0x2095 SWAP1 PUSH2 0x3292 JUMP JUMPDEST PUSH1 0x0 MSTORE PUSH1 0x9 PUSH1 0x20 MSTORE PUSH1 0x40 PUSH1 0x0 KECCAK256 SWAP1 PUSH1 0x0 MSTORE PUSH1 0x20 MSTORE PUSH1 0xFF PUSH1 0x40 PUSH1 0x0 KECCAK256 SLOAD AND SWAP1 JUMP JUMPDEST PUSH2 0x142E SWAP1 PUSH2 0x211F PUSH2 0x211A PUSH2 0x2114 PUSH2 0x219B SWAP7 SWAP6 PUSH2 0x20CF PUSH2 0x2D8E JUMP JUMPDEST PUSH2 0x20D7 PUSH2 0x2DE4 JUMP JUMPDEST PUSH2 0x20E0 DUP6 PUSH2 0x3955 JUMP JUMPDEST SWAP7 PUSH2 0x2103 PUSH2 0x20FE PUSH2 0xAF2 PUSH2 0x1275 DUP12 PUSH1 0x0 MSTORE PUSH1 0xB PUSH1 0x20 MSTORE PUSH1 0x40 PUSH1 0x0 KECCAK256 SWAP1 JUMP JUMPDEST PUSH2 0x21A5 JUMP JUMPDEST PUSH2 0x17CB PUSH2 0x100 DUP8 ADD CALLDATALOAD TIMESTAMP LT ISZERO PUSH2 0x21E5 JUMP JUMPDEST DUP4 PUSH2 0x39C8 JUMP JUMPDEST PUSH2 0x225C JUMP JUMPDEST PUSH2 0x2133 PUSH1 0x1 PUSH1 0x1 PUSH1 0xA0 SHL SUB PUSH2 0x11C8 DUP4 PUSH2 0x1D3C JUMP JUMPDEST PUSH2 0x217B PUSH2 0x2174 PUSH2 0x11EA PUSH2 0x2158 PUSH2 0x2153 DUP8 PUSH1 0x0 MSTORE PUSH1 0xA PUSH1 0x20 MSTORE PUSH1 0x40 PUSH1 0x0 KECCAK256 SWAP1 JUMP JUMPDEST PUSH2 0x22E0 JUMP JUMPDEST PUSH2 0x2167 PUSH1 0x20 DUP3 ADD MLOAD ISZERO ISZERO PUSH2 0x2320 JUMP JUMPDEST MLOAD PUSH1 0x1 PUSH1 0x1 PUSH1 0xA0 SHL SUB AND SWAP1 JUMP JUMPDEST ISZERO ISZERO PUSH2 0x235D JUMP JUMPDEST PUSH2 0x2194 PUSH2 0x2187 DUP3 PUSH2 0x1D3C JUMP JUMPDEST PUSH2 0x12B3 CALLDATASIZE PUSH1 0x20 DUP6 ADD PUSH2 0x23A2 JUMP JUMPDEST CALLDATASIZE SWAP1 PUSH2 0x240B JUMP JUMPDEST PUSH2 0x3CE PUSH1 0x1 PUSH1 0x0 SSTORE JUMP JUMPDEST ISZERO PUSH2 0x21AC JUMPI JUMP JUMPDEST PUSH1 0x40 MLOAD PUSH3 0x461BCD PUSH1 0xE5 SHL DUP2 MSTORE PUSH1 0x20 PUSH1 0x4 DUP3 ADD MSTORE PUSH1 0x11 PUSH1 0x24 DUP3 ADD MSTORE PUSH17 0x105B1C9958591E48199A5B985B1A5E9959 PUSH1 0x7A SHL PUSH1 0x44 DUP3 ADD MSTORE PUSH1 0x64 SWAP1 REVERT JUMPDEST ISZERO PUSH2 0x21EC JUMPI JUMP JUMPDEST PUSH1 0x40 MLOAD PUSH3 0x461BCD PUSH1 0xE5 SHL DUP2 MSTORE PUSH1 0x20 PUSH1 0x4 DUP3 ADD MSTORE PUSH1 0x11 PUSH1 0x24 DUP3 ADD MSTORE PUSH17 0x105D58DD1A5BDB881B9BDD08195B991959 PUSH1 0x7A SHL PUSH1 0x44 DUP3 ADD MSTORE PUSH1 0x64 SWAP1 REVERT JUMPDEST SWAP3 SWAP2 SWAP3 PUSH2 0x2231 DUP3 PUSH2 0x2005 JUMP JUMPDEST SWAP2 PUSH2 0x223F PUSH1 0x40 MLOAD SWAP4 DUP5 PUSH2 0x1EFF JUMP JUMPDEST DUP3 SWAP5 DUP2 DUP5 MSTORE DUP2 DUP4 ADD GT PUSH2 0x24B JUMPI DUP3 DUP2 PUSH1 0x20 SWAP4 DUP5 PUSH1 0x0 SWAP7 ADD CALLDATACOPY ADD ADD MSTORE JUMP JUMPDEST ISZERO PUSH2 0x2263 JUMPI JUMP JUMPDEST PUSH1 0x40 MLOAD PUSH3 0x461BCD PUSH1 0xE5 SHL DUP2 MSTORE PUSH1 0x20 PUSH1 0x4 DUP3 ADD MSTORE PUSH1 0x11 PUSH1 0x24 DUP3 ADD MSTORE PUSH17 0x496E76616C6964207369676E6174757265 PUSH1 0x78 SHL PUSH1 0x44 DUP3 ADD MSTORE PUSH1 0x64 SWAP1 REVERT JUMPDEST ISZERO PUSH2 0x22A3 JUMPI JUMP JUMPDEST PUSH1 0x40 MLOAD PUSH3 0x461BCD PUSH1 0xE5 SHL DUP2 MSTORE PUSH1 0x20 PUSH1 0x4 DUP3 ADD MSTORE PUSH1 0x15 PUSH1 0x24 DUP3 ADD MSTORE PUSH21 0x24B73B30B634B21030BAB1BA34B7B71036B0B5B2B9 PUSH1 0x59 SHL PUSH1 0x44 DUP3 ADD MSTORE PUSH1 0x64 SWAP1 REVERT JUMPDEST SWAP1 PUSH1 0x40 MLOAD PUSH1 0x60 DUP2 ADD DUP2 DUP2 LT PUSH1 0x1 PUSH1 0x1 PUSH1 0x40 SHL SUB DUP3 GT OR PUSH2 0x1EFA JUMPI PUSH1 0x40 MSTORE PUSH1 0x40 PUSH1 0x2 DUP3 SWAP5 PUSH1 0x1 DUP1 PUSH1 0xA0 SHL SUB DUP2 SLOAD AND DUP5 MSTORE PUSH1 0x1 DUP2 ADD SLOAD PUSH1 0x20 DUP6 ADD MSTORE ADD SLOAD SWAP2 ADD MSTORE JUMP JUMPDEST ISZERO PUSH2 0x2327 JUMPI JUMP JUMPDEST PUSH1 0x40 MLOAD PUSH3 0x461BCD PUSH1 0xE5 SHL DUP2 MSTORE PUSH1 0x20 PUSH1 0x4 DUP3 ADD MSTORE PUSH1 0xE PUSH1 0x24 DUP3 ADD MSTORE PUSH14 0x139BC8189A591CC81C1B1858D959 PUSH1 0x92 SHL PUSH1 0x44 DUP3 ADD MSTORE PUSH1 0x64 SWAP1 REVERT JUMPDEST ISZERO PUSH2 0x2364 JUMPI JUMP JUMPDEST PUSH1 0x40 MLOAD PUSH3 0x461BCD PUSH1 0xE5 SHL DUP2 MSTORE PUSH1 0x20 PUSH1 0x4 DUP3 ADD MSTORE PUSH1 0x16 PUSH1 0x24 DUP3 ADD MSTORE PUSH22 0x24B73B30B634B2103BB4B73734B733903134B23232B9 PUSH1 0x51 SHL PUSH1 0x44 DUP3 ADD MSTORE PUSH1 0x64 SWAP1 REVERT JUMPDEST SWAP2 SWAP1 DUP3 PUSH1 0x80 SWAP2 SUB SLT PUSH2 0x24B JUMPI PUSH1 0x40 MLOAD PUSH2 0x23BA DUP2 PUSH2 0x1EDF JUMP JUMPDEST PUSH1 0x60 DUP1 DUP3 SWAP5 DUP1 CALLDATALOAD PUSH2 0x23CA DUP2 PUSH2 0x1EAB JUMP JUMPDEST DUP5 MSTORE PUSH1 0x20 DUP2 ADD CALLDATALOAD PUSH2 0x23DA DUP2 PUSH2 0x3B2 JUMP JUMPDEST PUSH1 0x20 DUP6 ADD MSTORE PUSH1 0x40 DUP2 ADD CALLDATALOAD PUSH1 0x40 DUP6 ADD MSTORE ADD CALLDATALOAD SWAP2 ADD MSTORE JUMP JUMPDEST SWAP1 DUP1 PUSH1 0x1F DUP4 ADD SLT ISZERO PUSH2 0x24B JUMPI DUP2 PUSH1 0x20 PUSH2 0x1D46 SWAP4 CALLDATALOAD SWAP2 ADD PUSH2 0x2225 JUMP JUMPDEST SWAP2 SWAP1 SWAP2 PUSH2 0x160 DUP2 DUP5 SUB SLT PUSH2 0x24B JUMPI PUSH2 0x2421 PUSH2 0x1F3E JUMP JUMPDEST SWAP3 PUSH2 0x242B DUP3 PUSH2 0x3C3 JUMP JUMPDEST DUP5 MSTORE PUSH2 0x243A DUP2 PUSH1 0x20 DUP5 ADD PUSH2 0x23A2 JUMP JUMPDEST PUSH1 0x20 DUP6 ADD MSTORE PUSH1 0xA0 DUP3 ADD CALLDATALOAD PUSH1 0x40 DUP6 ADD MSTORE PUSH1 0xC0 DUP3 ADD CALLDATALOAD PUSH1 0x60 DUP6 ADD MSTORE PUSH1 0xE0 DUP3 ADD CALLDATALOAD PUSH1 0x80 DUP6 ADD MSTORE PUSH2 0x100 DUP3 ADD CALLDATALOAD PUSH1 0xA0 DUP6 ADD MSTORE PUSH2 0x120 DUP3 ADD CALLDATALOAD PUSH1 0xC0 DUP6 ADD MSTORE PUSH2 0x140 DUP3 ADD CALLDATALOAD PUSH1 0x1 PUSH1 0x1 PUSH1 0x40 SHL SUB DUP2 GT PUSH2 0x24B JUMPI PUSH2 0x2491 SWAP3 ADD PUSH2 0x23F0 JUMP JUMPDEST PUSH1 0xE0 DUP4 ADD MSTORE JUMP JUMPDEST SWAP1 PUSH2 0x24D0 PUSH1 0x60 SWAP2 PUSH2 0x24A8 DUP5 PUSH2 0x3292 JUMP JUMPDEST PUSH1 0x0 MSTORE PUSH1 0x8 PUSH1 0x20 MSTORE PUSH1 0x40 PUSH1 0x0 KECCAK256 DUP2 PUSH1 0x0 MSTORE PUSH1 0x20 MSTORE PUSH2 0xC8B PUSH1 0x40 PUSH1 0x0 KECCAK256 SLOAD SWAP5 PUSH1 0x20 DUP2 ADD SWAP1 PUSH2 0x1D9D JUMP JUMPDEST ADD CALLDATALOAD GT ISZERO SWAP1 JUMP JUMPDEST PUSH1 0x1 PUSH1 0x1 PUSH1 0x40 SHL SUB DUP2 GT PUSH2 0x1EFA JUMPI PUSH1 0x5 SHL PUSH1 0x20 ADD SWAP1 JUMP JUMPDEST ISZERO PUSH2 0x24F5 JUMPI JUMP JUMPDEST PUSH1 0x40 MLOAD PUSH3 0x461BCD PUSH1 0xE5 SHL DUP2 MSTORE PUSH1 0x20 PUSH1 0x4 DUP3 ADD MSTORE PUSH1 0x14 PUSH1 0x24 DUP3 ADD MSTORE PUSH20 0x13DC99195C88185B1C9958591E48199A5B1B1959 PUSH1 0x62 SHL PUSH1 0x44 DUP3 ADD MSTORE PUSH1 0x64 SWAP1 REVERT JUMPDEST ISZERO PUSH2 0x2538 JUMPI JUMP JUMPDEST PUSH1 0x40 MLOAD PUSH3 0x461BCD PUSH1 0xE5 SHL DUP2 MSTORE PUSH1 0x20 PUSH1 0x4 DUP3 ADD MSTORE PUSH1 0x17 PUSH1 0x24 DUP3 ADD MSTORE PUSH32 0x4F7264657220616C72656164792063616E63656C6C6564000000000000000000 PUSH1 0x44 DUP3 ADD MSTORE PUSH1 0x64 SWAP1 REVERT JUMPDEST SWAP3 SWAP2 SWAP1 PUSH2 0x2589 DUP2 PUSH2 0x24D7 JUMP JUMPDEST SWAP4 PUSH2 0x2597 PUSH1 0x40 MLOAD SWAP6 DUP7 PUSH2 0x1EFF JUMP JUMPDEST PUSH1 0x20 DUP6 DUP4 DUP2 MSTORE ADD SWAP2 PUSH1 0x5 SHL DUP2 ADD SWAP3 DUP4 GT PUSH2 0x24B JUMPI SWAP1 JUMPDEST DUP3 DUP3 LT PUSH2 0x25B9 JUMPI POP POP POP JUMP JUMPDEST DUP2 CALLDATALOAD DUP2 MSTORE PUSH1 0x20 SWAP2 DUP3 ADD SWAP2 ADD PUSH2 0x25AD JUMP JUMPDEST ISZERO PUSH2 0x25D0 JUMPI JUMP JUMPDEST PUSH1 0x40 MLOAD PUSH3 0x461BCD PUSH1 0xE5 SHL DUP2 MSTORE PUSH1 0x20 PUSH1 0x4 DUP3 ADD MSTORE PUSH1 0xF PUSH1 0x24 DUP3 ADD MSTORE PUSH15 0x2737BA1030903134B21037B93232B9 PUSH1 0x89 SHL PUSH1 0x44 DUP3 ADD MSTORE PUSH1 0x64 SWAP1 REVERT JUMPDEST SWAP2 SWAP1 SWAP2 PUSH2 0x140 DUP2 DUP5 SUB SLT PUSH2 0x24B JUMPI PUSH1 0x60 PUSH2 0x120 PUSH1 0x40 MLOAD SWAP3 PUSH2 0x2627 DUP5 PUSH2 0x1EDF JUMP JUMPDEST PUSH2 0x2641 DUP5 SWAP7 PUSH2 0x2636 DUP2 DUP5 PUSH2 0x23A2 JUMP JUMPDEST DUP7 MSTORE PUSH1 0x80 DUP4 ADD PUSH2 0x23A2 JUMP JUMPDEST PUSH1 0x20 DUP6 ADD MSTORE PUSH2 0x100 DUP2 ADD CALLDATALOAD PUSH1 0x40 DUP6 ADD MSTORE ADD CALLDATALOAD SWAP2 ADD MSTORE JUMP JUMPDEST PUSH2 0x1D46 SWAP1 CALLDATASIZE SWAP1 PUSH2 0x2607 JUMP JUMPDEST ISZERO PUSH2 0x266A JUMPI JUMP JUMPDEST PUSH1 0x40 MLOAD PUSH3 0x461BCD PUSH1 0xE5 SHL DUP2 MSTORE PUSH1 0x20 PUSH1 0x4 DUP3 ADD MSTORE PUSH1 0x13 PUSH1 0x24 DUP3 ADD MSTORE PUSH19 0x125B9D985B1A59081CD95B1B08185B5BDD5B9D PUSH1 0x6A SHL PUSH1 0x44 DUP3 ADD MSTORE PUSH1 0x64 SWAP1 REVERT JUMPDEST ISZERO PUSH2 0x26AC JUMPI JUMP JUMPDEST PUSH1 0x40 MLOAD PUSH3 0x461BCD PUSH1 0xE5 SHL DUP2 MSTORE PUSH1 0x20 PUSH1 0x4 DUP3 ADD MSTORE PUSH1 0x16 PUSH1 0x24 DUP3 ADD MSTORE PUSH22 0x496E76616C6964206269646465722061646472657373 PUSH1 0x50 SHL PUSH1 0x44 DUP3 ADD MSTORE PUSH1 0x64 SWAP1 REVERT JUMPDEST ISZERO PUSH2 0x26F1 JUMPI JUMP JUMPDEST PUSH1 0x40 MLOAD PUSH3 0x461BCD PUSH1 0xE5 SHL DUP2 MSTORE PUSH1 0x20 PUSH1 0x4 DUP3 ADD MSTORE PUSH1 0x16 PUSH1 0x24 DUP3 ADD MSTORE PUSH22 0x496E76616C69642073656C6C65722061646472657373 PUSH1 0x50 SHL PUSH1 0x44 DUP3 ADD MSTORE PUSH1 0x64 SWAP1 REVERT JUMPDEST ISZERO PUSH2 0x2736 JUMPI JUMP JUMPDEST PUSH1 0x40 MLOAD PUSH3 0x461BCD PUSH1 0xE5 SHL DUP2 MSTORE PUSH1 0x20 PUSH1 0x4 DUP3 ADD MSTORE PUSH1 0x16 PUSH1 0x24 DUP3 ADD MSTORE PUSH22 0x496E73756666696369656E74206D73672E76616C7565 PUSH1 0x50 SHL PUSH1 0x44 DUP3 ADD MSTORE PUSH1 0x64 SWAP1 REVERT JUMPDEST SWAP1 DUP2 PUSH1 0x20 SWAP2 SUB SLT PUSH2 0x24B JUMPI MLOAD SWAP1 JUMP JUMPDEST SWAP1 PUSH1 0x4 DUP3 LT ISZERO PUSH2 0x1E9C JUMPI MSTORE JUMP JUMPDEST PUSH1 0x60 DUP1 SWAP2 PUSH2 0x27A8 DUP5 DUP3 CALLDATALOAD PUSH2 0x27A3 DUP2 PUSH2 0x1EAB JUMP JUMPDEST PUSH2 0x2783 JUMP JUMPDEST PUSH1 0x20 DUP2 ADD CALLDATALOAD PUSH2 0x27B6 DUP2 PUSH2 0x3B2 JUMP JUMPDEST PUSH1 0x1 PUSH1 0x1 PUSH1 0xA0 SHL SUB AND PUSH1 0x20 DUP6 ADD MSTORE PUSH1 0x40 DUP2 DUP2 ADD CALLDATALOAD SWAP1 DUP6 ADD MSTORE ADD CALLDATALOAD SWAP2 ADD MSTORE JUMP JUMPDEST SWAP1 CALLDATALOAD PUSH1 0x1E NOT DUP3 CALLDATASIZE SUB ADD DUP2 SLT ISZERO PUSH2 0x24B JUMPI ADD PUSH1 0x20 DUP2 CALLDATALOAD SWAP2 ADD SWAP2 PUSH1 0x1 PUSH1 0x1 PUSH1 0x40 SHL SUB DUP3 GT PUSH2 0x24B JUMPI DUP2 CALLDATASIZE SUB DUP4 SGT PUSH2 0x24B JUMPI JUMP JUMPDEST SWAP1 DUP1 PUSH1 0x20 SWAP4 SWAP3 DUP2 DUP5 MSTORE DUP5 DUP5 ADD CALLDATACOPY PUSH1 0x0 DUP3 DUP3 ADD DUP5 ADD MSTORE PUSH1 0x1F ADD PUSH1 0x1F NOT AND ADD ADD SWAP1 JUMP JUMPDEST PUSH2 0x180 PUSH2 0x289F PUSH2 0x1D46 SWAP4 PUSH1 0x20 DUP5 MSTORE DUP1 CALLDATALOAD PUSH2 0x2840 DUP2 PUSH2 0x3B2 JUMP JUMPDEST PUSH1 0x1 DUP1 PUSH1 0xA0 SHL SUB AND PUSH1 0x20 DUP6 ADD MSTORE PUSH2 0x285D PUSH1 0x40 DUP6 ADD PUSH1 0x20 DUP4 ADD PUSH2 0x2790 JUMP JUMPDEST PUSH1 0xA0 DUP2 ADD CALLDATALOAD PUSH1 0xC0 DUP6 ADD MSTORE PUSH1 0xC0 DUP2 ADD CALLDATALOAD PUSH1 0xE0 DUP6 ADD MSTORE PUSH1 0xE0 DUP2 ADD CALLDATALOAD PUSH2 0x100 DUP6 ADD MSTORE PUSH2 0x100 DUP2 ADD CALLDATALOAD PUSH2 0x120 DUP6 ADD MSTORE PUSH2 0x120 DUP2 ADD CALLDATALOAD PUSH2 0x140 DUP6 ADD MSTORE PUSH2 0x140 DUP2 ADD SWAP1 PUSH2 0x27D5 JUMP JUMPDEST SWAP2 SWAP1 SWAP3 PUSH2 0x160 DUP1 DUP3 ADD MSTORE ADD SWAP2 PUSH2 0x2806 JUMP JUMPDEST PUSH1 0x40 MLOAD RETURNDATASIZE PUSH1 0x0 DUP3 RETURNDATACOPY RETURNDATASIZE SWAP1 REVERT JUMPDEST ISZERO PUSH2 0x28C3 JUMPI JUMP JUMPDEST PUSH1 0x40 MLOAD PUSH3 0x461BCD PUSH1 0xE5 SHL DUP2 MSTORE PUSH1 0x20 PUSH1 0x4 DUP3 ADD MSTORE PUSH1 0x1F PUSH1 0x24 DUP3 ADD MSTORE PUSH32 0x4D616B65722063616E6E6F7420626964206F6E206F776E2061756374696F6E00 PUSH1 0x44 DUP3 ADD MSTORE PUSH1 0x64 SWAP1 REVERT JUMPDEST ISZERO PUSH2 0x290F JUMPI JUMP JUMPDEST PUSH1 0x40 MLOAD PUSH3 0x461BCD PUSH1 0xE5 SHL DUP2 MSTORE PUSH1 0x20 PUSH1 0x4 DUP3 ADD MSTORE PUSH1 0x13 PUSH1 0x24 DUP3 ADD MSTORE PUSH19 0x105D58DD1A5BDB881B9BDD081CDD185C9D1959 PUSH1 0x6A SHL PUSH1 0x44 DUP3 ADD MSTORE PUSH1 0x64 SWAP1 REVERT JUMPDEST ISZERO PUSH2 0x2951 JUMPI JUMP JUMPDEST PUSH1 0x40 MLOAD PUSH3 0x461BCD PUSH1 0xE5 SHL DUP2 MSTORE PUSH1 0x20 PUSH1 0x4 DUP3 ADD MSTORE PUSH1 0xD PUSH1 0x24 DUP3 ADD MSTORE PUSH13 0x105D58DD1A5BDB88195B991959 PUSH1 0x9A SHL PUSH1 0x44 DUP3 ADD MSTORE PUSH1 0x64 SWAP1 REVERT JUMPDEST ISZERO PUSH2 0x298D JUMPI JUMP JUMPDEST PUSH1 0x40 MLOAD PUSH3 0x461BCD PUSH1 0xE5 SHL DUP2 MSTORE PUSH1 0x20 PUSH1 0x4 DUP3 ADD MSTORE PUSH1 0x18 PUSH1 0x24 DUP3 ADD MSTORE PUSH32 0x496E76616C69642061756374696F6E206475726174696F6E0000000000000000 PUSH1 0x44 DUP3 ADD MSTORE PUSH1 0x64 SWAP1 REVERT JUMPDEST ISZERO PUSH2 0x29D9 JUMPI JUMP JUMPDEST PUSH1 0x40 MLOAD PUSH3 0x461BCD PUSH1 0xE5 SHL DUP2 MSTORE PUSH1 0x20 PUSH1 0x4 DUP3 ADD MSTORE PUSH1 0x11 PUSH1 0x24 DUP3 ADD MSTORE PUSH17 0x105D58DD1A5BDB881D1BDBC81CDA1BDC9D PUSH1 0x7A SHL PUSH1 0x44 DUP3 ADD MSTORE PUSH1 0x64 SWAP1 REVERT JUMPDEST ISZERO PUSH2 0x2A19 JUMPI JUMP JUMPDEST PUSH1 0x40 MLOAD PUSH3 0x461BCD PUSH1 0xE5 SHL DUP2 MSTORE PUSH1 0x20 PUSH1 0x4 DUP3 ADD MSTORE PUSH1 0x10 PUSH1 0x24 DUP3 ADD MSTORE PUSH16 0x41756374696F6E20746F6F206C6F6E67 PUSH1 0x80 SHL PUSH1 0x44 DUP3 ADD MSTORE PUSH1 0x64 SWAP1 REVERT JUMPDEST ISZERO PUSH2 0x2A58 JUMPI JUMP JUMPDEST PUSH1 0x40 MLOAD PUSH3 0x461BCD PUSH1 0xE5 SHL DUP2 MSTORE PUSH1 0x20 PUSH1 0x4 DUP3 ADD MSTORE PUSH1 0x19 PUSH1 0x24 DUP3 ADD MSTORE PUSH32 0x41756374696F6E20616C72656164792066696E616C697A656400000000000000 PUSH1 0x44 DUP3 ADD MSTORE PUSH1 0x64 SWAP1 REVERT JUMPDEST ISZERO PUSH2 0x2AA4 JUMPI JUMP JUMPDEST PUSH1 0x40 MLOAD PUSH3 0x461BCD PUSH1 0xE5 SHL DUP2 MSTORE PUSH1 0x20 PUSH1 0x4 DUP3 ADD MSTORE PUSH1 0x15 PUSH1 0x24 DUP3 ADD MSTORE PUSH21 0x4269642062656C6F77207374617274207072696365 PUSH1 0x58 SHL PUSH1 0x44 DUP3 ADD MSTORE PUSH1 0x64 SWAP1 REVERT JUMPDEST SWAP1 PUSH1 0x64 DUP3 MUL SWAP2 DUP1 DUP4 DIV PUSH1 0x64 EQ SWAP1 ISZERO OR ISZERO PUSH2 0x1F9A JUMPI JUMP JUMPDEST DUP2 DUP2 MUL SWAP3 SWAP2 DUP2 ISZERO SWAP2 DUP5 DIV EQ OR ISZERO PUSH2 0x1F9A JUMPI JUMP JUMPDEST ISZERO PUSH2 0x2B11 JUMPI JUMP JUMPDEST PUSH1 0x40 MLOAD PUSH3 0x461BCD PUSH1 0xE5 SHL DUP2 MSTORE PUSH1 0x20 PUSH1 0x4 DUP3 ADD MSTORE PUSH1 0x17 PUSH1 0x24 DUP3 ADD MSTORE PUSH32 0x42696420696E6372656D656E7420746F6F20736D616C6C000000000000000000 PUSH1 0x44 DUP3 ADD MSTORE PUSH1 0x64 SWAP1 REVERT JUMPDEST ISZERO PUSH2 0x2B5D JUMPI JUMP JUMPDEST PUSH1 0x40 MLOAD PUSH3 0x461BCD PUSH1 0xE5 SHL DUP2 MSTORE PUSH1 0x20 PUSH1 0x4 DUP3 ADD MSTORE PUSH1 0x1B PUSH1 0x24 DUP3 ADD MSTORE PUSH32 0x456D657267656E6379207769746864726177616C206661696C65640000000000 PUSH1 0x44 DUP3 ADD MSTORE PUSH1 0x64 SWAP1 REVERT JUMPDEST SWAP1 CALLDATALOAD SWAP1 PUSH1 0x1E NOT DUP2 CALLDATASIZE SUB ADD DUP3 SLT ISZERO PUSH2 0x24B JUMPI ADD DUP1 CALLDATALOAD SWAP1 PUSH1 0x1 PUSH1 0x1 PUSH1 0x40 SHL SUB DUP3 GT PUSH2 0x24B JUMPI PUSH1 0x20 ADD SWAP2 DUP2 CALLDATASIZE SUB DUP4 SGT PUSH2 0x24B JUMPI JUMP JUMPDEST ISZERO PUSH2 0x2BDB JUMPI JUMP JUMPDEST PUSH1 0x40 MLOAD PUSH3 0x461BCD PUSH1 0xE5 SHL DUP2 MSTORE PUSH1 0x20 PUSH1 0x4 DUP3 ADD MSTORE PUSH1 0x1C PUSH1 0x24 DUP3 ADD MSTORE PUSH32 0x42696420636F6C6C656374696F6E206973206E6F742045524337323100000000 PUSH1 0x44 DUP3 ADD MSTORE PUSH1 0x64 SWAP1 REVERT JUMPDEST SWAP2 SWAP1 SWAP2 PUSH2 0x160 DUP2 DUP5 SUB SLT PUSH2 0x24B JUMPI PUSH2 0x2C36 PUSH2 0x1F3E JUMP JUMPDEST SWAP3 PUSH2 0x2C40 DUP3 PUSH2 0x3C3 JUMP JUMPDEST DUP5 MSTORE PUSH2 0x2C4F DUP2 PUSH1 0x20 DUP5 ADD PUSH2 0x23A2 JUMP JUMPDEST PUSH1 0x20 DUP6 ADD MSTORE PUSH2 0x2C60 PUSH1 0xA0 DUP4 ADD PUSH2 0x3C3 JUMP JUMPDEST PUSH1 0x40 DUP6 ADD MSTORE PUSH1 0xC0 DUP3 ADD CALLDATALOAD PUSH1 0x60 DUP6 ADD MSTORE PUSH1 0xE0 DUP3 ADD CALLDATALOAD PUSH1 0x80 DUP6 ADD MSTORE PUSH2 0x100 DUP3 ADD CALLDATALOAD PUSH1 0xA0 DUP6 ADD MSTORE PUSH2 0x120 DUP3 ADD CALLDATALOAD PUSH1 0xC0 DUP6 ADD MSTORE PUSH2 0x140 DUP3 ADD CALLDATALOAD PUSH1 0x1 PUSH1 0x1 PUSH1 0x40 SHL SUB DUP2 GT PUSH2 0x24B JUMPI PUSH2 0x2491 SWAP3 ADD PUSH2 0x23F0 JUMP JUMPDEST ISZERO PUSH2 0x2CB4 JUMPI JUMP JUMPDEST PUSH1 0x40 MLOAD PUSH3 0x461BCD PUSH1 0xE5 SHL DUP2 MSTORE PUSH1 0x20 PUSH1 0x4 DUP3 ADD MSTORE PUSH1 0xB PUSH1 0x24 DUP3 ADD MSTORE PUSH11 0x109A5908195E1C1A5C9959 PUSH1 0xAA SHL PUSH1 0x44 DUP3 ADD MSTORE PUSH1 0x64 SWAP1 REVERT JUMPDEST ISZERO PUSH2 0x2CEE JUMPI JUMP JUMPDEST PUSH1 0x40 MLOAD PUSH3 0x461BCD PUSH1 0xE5 SHL DUP2 MSTORE PUSH1 0x20 PUSH1 0x4 DUP3 ADD MSTORE PUSH1 0x1C PUSH1 0x24 DUP3 ADD MSTORE PUSH32 0x4269646465722063616E6E6F7420616363657074206F776E2062696400000000 PUSH1 0x44 DUP3 ADD MSTORE PUSH1 0x64 SWAP1 REVERT JUMPDEST ISZERO PUSH2 0x2D3A JUMPI JUMP JUMPDEST PUSH1 0x40 MLOAD PUSH3 0x461BCD PUSH1 0xE5 SHL DUP2 MSTORE PUSH1 0x20 PUSH1 0x4 DUP3 ADD MSTORE PUSH1 0x19 PUSH1 0x24 DUP3 ADD MSTORE PUSH32 0x426964206D6178207175616E7469747920657863656564656400000000000000 PUSH1 0x44 DUP3 ADD MSTORE PUSH1 0x64 SWAP1 REVERT JUMPDEST PUSH1 0x0 NOT DUP2 EQ PUSH2 0x1F9A JUMPI PUSH1 0x1 ADD SWAP1 JUMP JUMPDEST PUSH1 0x2 PUSH1 0x0 SLOAD EQ PUSH2 0x2D9F JUMPI PUSH1 0x2 PUSH1 0x0 SSTORE JUMP JUMPDEST PUSH1 0x40 MLOAD PUSH3 0x461BCD PUSH1 0xE5 SHL DUP2 MSTORE PUSH1 0x20 PUSH1 0x4 DUP3 ADD MSTORE PUSH1 0x1F PUSH1 0x24 DUP3 ADD MSTORE PUSH32 0x5265656E7472616E637947756172643A207265656E7472616E742063616C6C00 PUSH1 0x44 DUP3 ADD MSTORE PUSH1 0x64 SWAP1 REVERT JUMPDEST PUSH1 0xFF PUSH1 0x1 SLOAD PUSH1 0xA0 SHR AND PUSH2 0x2DF3 JUMPI JUMP JUMPDEST PUSH1 0x40 MLOAD PUSH3 0x461BCD PUSH1 0xE5 SHL DUP2 MSTORE PUSH1 0x20 PUSH1 0x4 DUP3 ADD MSTORE PUSH1 0x10 PUSH1 0x24 DUP3 ADD MSTORE PUSH16 0x14185D5CD8589B194E881C185D5CD959 PUSH1 0x82 SHL PUSH1 0x44 DUP3 ADD MSTORE PUSH1 0x64 SWAP1 REVERT JUMPDEST ISZERO PUSH2 0x2E32 JUMPI JUMP JUMPDEST PUSH1 0x40 MLOAD PUSH3 0x461BCD PUSH1 0xE5 SHL DUP2 MSTORE PUSH1 0x20 PUSH1 0x4 DUP3 ADD MSTORE PUSH1 0x13 PUSH1 0x24 DUP3 ADD MSTORE PUSH19 0x29B2B73232B91034B9903737BA103A30B5B2B9 PUSH1 0x69 SHL PUSH1 0x44 DUP3 ADD MSTORE PUSH1 0x64 SWAP1 REVERT JUMPDEST ISZERO PUSH2 0x2E74 JUMPI JUMP JUMPDEST PUSH1 0x40 MLOAD PUSH3 0x461BCD PUSH1 0xE5 SHL DUP2 MSTORE PUSH1 0x20 PUSH1 0x4 DUP3 ADD MSTORE PUSH1 0x12 PUSH1 0x24 DUP3 ADD MSTORE PUSH18 0x13585AD95C881BDC99195C88199A5B1B1959 PUSH1 0x72 SHL PUSH1 0x44 DUP3 ADD MSTORE PUSH1 0x64 SWAP1 REVERT JUMPDEST ISZERO PUSH2 0x2EB5 JUMPI JUMP JUMPDEST PUSH1 0x40 MLOAD PUSH3 0x461BCD PUSH1 0xE5 SHL DUP2 MSTORE PUSH1 0x20 PUSH1 0x4 DUP3 ADD MSTORE PUSH1 0x15 PUSH1 0x24 DUP3 ADD MSTORE PUSH21 0x13585AD95C881BDC99195C8818D85B98D95B1B1959 PUSH1 0x5A SHL PUSH1 0x44 DUP3 ADD MSTORE PUSH1 0x64 SWAP1 REVERT JUMPDEST CALLDATALOAD SWAP1 PUSH2 0x3CE DUP3 PUSH2 0x1E72 JUMP JUMPDEST DUP2 PUSH1 0x1F DUP3 ADD SLT ISZERO PUSH2 0x24B JUMPI DUP1 CALLDATALOAD PUSH2 0x2F13 DUP2 PUSH2 0x24D7 JUMP JUMPDEST SWAP3 PUSH2 0x2F21 PUSH1 0x40 MLOAD SWAP5 DUP6 PUSH2 0x1EFF JUMP JUMPDEST DUP2 DUP5 MSTORE PUSH1 0x20 PUSH2 0x140 DUP2 DUP7 ADD SWAP4 MUL DUP5 ADD ADD SWAP3 DUP2 DUP5 GT PUSH2 0x24B JUMPI PUSH1 0x20 ADD SWAP2 JUMPDEST DUP4 DUP4 LT PUSH2 0x2F4C JUMPI POP POP POP POP SWAP1 JUMP JUMPDEST PUSH1 0x20 PUSH2 0x140 SWAP2 PUSH2 0x2F5C DUP5 DUP7 PUSH2 0x2607 JUMP JUMPDEST DUP2 MSTORE ADD SWAP3 ADD SWAP2 PUSH2 0x2F3E JUMP JUMPDEST SWAP2 SWAP1 SWAP2 PUSH1 0xE0 DUP2 DUP5 SUB SLT PUSH2 0x24B JUMPI PUSH2 0x2F7C PUSH2 0x1F4E JUMP JUMPDEST SWAP3 PUSH2 0x2F86 DUP3 PUSH2 0x2EF2 JUMP JUMPDEST DUP5 MSTORE PUSH1 0x20 DUP3 ADD CALLDATALOAD PUSH1 0x1 PUSH1 0x1 PUSH1 0x40 SHL SUB DUP2 GT PUSH2 0x24B JUMPI DUP2 PUSH2 0x2FA7 SWAP2 DUP5 ADD PUSH2 0x2EFD JUMP JUMPDEST PUSH1 0x20 DUP6 ADD MSTORE PUSH2 0x2FB8 PUSH1 0x40 DUP4 ADD PUSH2 0x3C3 JUMP JUMPDEST PUSH1 0x40 DUP6 ADD MSTORE PUSH2 0x2FC9 PUSH1 0x60 DUP4 ADD PUSH2 0x3C3 JUMP JUMPDEST PUSH1 0x60 DUP6 ADD MSTORE PUSH1 0x80 DUP3 ADD CALLDATALOAD PUSH1 0x80 DUP6 ADD MSTORE PUSH1 0xA0 DUP3 ADD CALLDATALOAD PUSH1 0xA0 DUP6 ADD MSTORE PUSH1 0xC0 DUP3 ADD CALLDATALOAD PUSH1 0x1 PUSH1 0x1 PUSH1 0x40 SHL SUB DUP2 GT PUSH2 0x24B JUMPI PUSH2 0x2FFF SWAP3 ADD PUSH2 0x23F0 JUMP JUMPDEST PUSH1 0xC0 DUP4 ADD MSTORE JUMP JUMPDEST ISZERO PUSH2 0x300D JUMPI JUMP JUMPDEST PUSH1 0x40 MLOAD PUSH3 0x461BCD PUSH1 0xE5 SHL DUP2 MSTORE PUSH1 0x20 PUSH1 0x4 DUP3 ADD MSTORE PUSH1 0x13 PUSH1 0x24 DUP3 ADD MSTORE PUSH19 0x13585AD95C881BDC99195C88195E1C1A5C9959 PUSH1 0x6A SHL PUSH1 0x44 DUP3 ADD MSTORE PUSH1 0x64 SWAP1 REVERT JUMPDEST SWAP2 SWAP1 PUSH2 0x3053 DUP4 PUSH2 0x437E JUMP JUMPDEST PUSH2 0x3064 DUP3 PUSH2 0xC8B PUSH1 0x20 DUP7 ADD DUP7 PUSH2 0x1D9D JUMP JUMPDEST SWAP2 PUSH2 0x3072 PUSH1 0x20 DUP4 ADD DUP4 PUSH2 0x1D9D JUMP JUMPDEST ISZERO PUSH2 0x1D37 JUMPI PUSH1 0x40 DUP6 ADD CALLDATALOAD PUSH2 0x3085 DUP2 PUSH2 0x3B2 JUMP JUMPDEST PUSH1 0x60 DUP5 ADD CALLDATALOAD PUSH2 0x3093 DUP2 PUSH2 0x3B2 JUMP JUMPDEST PUSH1 0x1 PUSH1 0x1 PUSH1 0xA0 SHL SUB SWAP1 DUP2 AND SWAP2 AND SUB PUSH2 0x311A JUMPI PUSH2 0x3CE SWAP5 PUSH2 0x30DF PUSH2 0x30D8 PUSH2 0x11EA PUSH1 0x40 PUSH2 0xAF2 SWAP8 PUSH2 0xF3B DUP11 PUSH1 0x80 DUP10 PUSH2 0x30D1 PUSH2 0x3110 SWAP12 PUSH2 0x3115 SWAP16 DUP5 ADD PUSH2 0x4889 JUMP JUMPDEST ADD SWAP1 PUSH2 0x4889 JUMP JUMPDEST CALLER EQ PUSH2 0x2E2B JUMP JUMPDEST PUSH2 0x30F4 PUSH2 0x30EF PUSH2 0xAF2 DUP6 DUP5 PUSH2 0x2498 JUMP JUMPDEST PUSH2 0x2E6D JUMP JUMPDEST PUSH2 0x3109 PUSH2 0x3104 PUSH2 0xAF2 DUP6 DUP5 PUSH2 0x208C JUMP JUMPDEST PUSH2 0x2EAE JUMP JUMPDEST CALLDATASIZE SWAP1 PUSH2 0x2F67 JUMP JUMPDEST PUSH2 0x464D JUMP JUMPDEST PUSH2 0x3006 JUMP JUMPDEST PUSH1 0x40 MLOAD PUSH3 0x461BCD PUSH1 0xE5 SHL DUP2 MSTORE PUSH1 0x20 PUSH1 0x4 DUP3 ADD MSTORE PUSH1 0x16 PUSH1 0x24 DUP3 ADD MSTORE PUSH22 0x2A30B5B2B91036BAB9BA1036B0BA31B41036B0B5B2B9 PUSH1 0x51 SHL PUSH1 0x44 DUP3 ADD MSTORE PUSH1 0x64 SWAP1 REVERT JUMPDEST PUSH2 0x3171 SWAP4 SWAP3 PUSH2 0x3169 PUSH2 0xBF2 SWAP3 PUSH2 0x4665 JUMP JUMPDEST SWAP4 CALLDATASIZE SWAP2 PUSH2 0x257D JUMP JUMPDEST ISZERO PUSH2 0x3178 JUMPI JUMP JUMPDEST PUSH1 0x40 MLOAD PUSH3 0x461BCD PUSH1 0xE5 SHL DUP2 MSTORE PUSH1 0x20 PUSH1 0x4 DUP3 ADD MSTORE PUSH1 0x14 PUSH1 0x24 DUP3 ADD MSTORE PUSH20 0x24B73B30B634B21026B2B935B63290383937B7B3 PUSH1 0x61 SHL PUSH1 0x44 DUP3 ADD MSTORE PUSH1 0x64 SWAP1 REVERT JUMPDEST SWAP1 PUSH2 0x31BE DUP3 PUSH2 0x24D7 JUMP JUMPDEST PUSH2 0x31CB PUSH1 0x40 MLOAD SWAP2 DUP3 PUSH2 0x1EFF JUMP JUMPDEST DUP3 DUP2 MSTORE DUP1 SWAP3 PUSH2 0x31DC PUSH1 0x1F NOT SWAP2 PUSH2 0x24D7 JUMP JUMPDEST ADD SWAP1 PUSH1 0x20 CALLDATASIZE SWAP2 ADD CALLDATACOPY JUMP JUMPDEST DUP1 MLOAD DUP3 LT ISZERO PUSH2 0x1D37 JUMPI PUSH1 0x20 SWAP2 PUSH1 0x5 SHL ADD ADD SWAP1 JUMP JUMPDEST DUP1 MLOAD PUSH1 0x20 SWAP1 SWAP2 ADD SWAP1 PUSH1 0x0 JUMPDEST DUP2 DUP2 LT PUSH2 0x3212 JUMPI POP POP POP SWAP1 JUMP JUMPDEST DUP3 MLOAD DUP5 MSTORE PUSH1 0x20 SWAP4 DUP5 ADD SWAP4 SWAP1 SWAP3 ADD SWAP2 PUSH1 0x1 ADD PUSH2 0x3205 JUMP JUMPDEST SWAP3 SWAP7 SWAP6 SWAP5 SWAP2 SWAP7 SWAP4 SWAP1 SWAP4 PUSH1 0xE0 DUP5 ADD SWAP8 PUSH32 0x6C8FFD199DDE1E3C1F0D71DAE647C455E0DA36831CCD370E21BB7D22D370959 DUP6 MSTORE PUSH1 0x3 DUP7 LT ISZERO PUSH2 0x1E9C JUMPI PUSH1 0xC0 SWAP6 PUSH1 0x20 DUP7 ADD MSTORE PUSH1 0x40 DUP6 ADD MSTORE PUSH1 0x1 DUP1 PUSH1 0xA0 SHL SUB AND PUSH1 0x60 DUP5 ADD MSTORE PUSH1 0x1 DUP1 PUSH1 0xA0 SHL SUB AND PUSH1 0x80 DUP4 ADD MSTORE PUSH1 0xA0 DUP3 ADD MSTORE ADD MSTORE JUMP JUMPDEST SWAP1 PUSH1 0x20 DUP3 ADD SWAP2 PUSH2 0x32AC PUSH2 0x32A5 DUP5 DUP4 PUSH2 0x1D9D JUMP JUMPDEST SWAP1 POP PUSH2 0x31B4 JUMP JUMPDEST SWAP1 PUSH1 0x0 JUMPDEST PUSH2 0x32BA DUP6 DUP4 PUSH2 0x1D9D JUMP JUMPDEST SWAP1 POP DUP2 LT ISZERO PUSH2 0x32ED JUMPI DUP1 PUSH2 0x32DC PUSH2 0x32D7 PUSH1 0x1 SWAP4 PUSH2 0xC8B DUP10 DUP8 PUSH2 0x1D9D JUMP JUMPDEST PUSH2 0x4665 JUMP JUMPDEST PUSH2 0x32E6 DUP3 DUP7 PUSH2 0x31E6 JUMP JUMPDEST MSTORE ADD PUSH2 0x32B0 JUMP JUMPDEST POP SWAP2 SWAP3 POP PUSH1 0x40 MLOAD PUSH2 0x3314 DUP2 PUSH2 0x3306 PUSH1 0x20 DUP3 ADD DUP1 SWAP6 PUSH2 0x31FA JUMP JUMPDEST SUB PUSH1 0x1F NOT DUP2 ADD DUP4 MSTORE DUP3 PUSH2 0x1EFF JUMP JUMPDEST MLOAD SWAP1 KECCAK256 SWAP1 PUSH2 0x335E PUSH2 0x3324 DUP3 PUSH2 0x1EA1 JUMP JUMPDEST SWAP3 PUSH2 0x3306 PUSH2 0x3334 PUSH1 0x40 DUP6 ADD PUSH2 0x1D3C JUMP JUMPDEST SWAP4 PUSH2 0x3341 PUSH1 0x60 DUP3 ADD PUSH2 0x1D3C JUMP JUMPDEST SWAP1 PUSH1 0xA0 PUSH1 0x80 DUP3 ADD CALLDATALOAD SWAP2 ADD CALLDATALOAD SWAP2 PUSH1 0x40 MLOAD SWAP7 DUP8 SWAP6 PUSH1 0x20 DUP8 ADD SWAP10 DUP11 PUSH2 0x3228 JUMP JUMPDEST MLOAD SWAP1 KECCAK256 SWAP1 JUMP JUMPDEST SWAP3 SWAP1 DUP4 PUSH1 0x0 MSTORE PUSH1 0x8 PUSH1 0x20 MSTORE PUSH1 0x40 PUSH1 0x0 KECCAK256 DUP3 PUSH1 0x0 MSTORE PUSH1 0x20 MSTORE PUSH1 0x40 PUSH1 0x0 KECCAK256 SLOAD SWAP3 DUP2 ISZERO ISZERO SWAP1 DUP2 PUSH2 0x33EA JUMPI JUMPDEST POP ISZERO PUSH2 0x33B6 JUMPI PUSH2 0x33A2 PUSH2 0xB20 SWAP2 PUSH2 0x33B3 SWAP5 PUSH2 0x1F9F JUMP JUMPDEST SWAP4 PUSH1 0x0 MSTORE PUSH1 0x8 PUSH1 0x20 MSTORE PUSH1 0x40 PUSH1 0x0 KECCAK256 SWAP1 JUMP JUMPDEST SSTORE JUMP JUMPDEST PUSH1 0x40 MLOAD PUSH3 0x461BCD PUSH1 0xE5 SHL DUP2 MSTORE PUSH1 0x20 PUSH1 0x4 DUP3 ADD MSTORE PUSH1 0xC PUSH1 0x24 DUP3 ADD MSTORE PUSH12 0x125B9D985B1A5908199A5B1B PUSH1 0xA2 SHL PUSH1 0x44 DUP3 ADD MSTORE PUSH1 0x64 SWAP1 REVERT JUMPDEST SWAP1 POP DUP2 DUP5 ADD DUP1 DUP6 GT PUSH2 0x1F9A JUMPI GT ISZERO CODESIZE PUSH2 0x338C JUMP JUMPDEST ISZERO PUSH2 0x3405 JUMPI JUMP JUMPDEST PUSH1 0x40 MLOAD PUSH3 0x461BCD PUSH1 0xE5 SHL DUP2 MSTORE PUSH1 0x20 PUSH1 0x4 DUP3 ADD MSTORE PUSH1 0x15 PUSH1 0x24 DUP3 ADD MSTORE PUSH21 0x119959481C9958DA5C1A595B9D081B9BDD081CD95D PUSH1 0x5A SHL PUSH1 0x44 DUP3 ADD MSTORE PUSH1 0x64 SWAP1 REVERT JUMPDEST ISZERO PUSH2 0x3449 JUMPI JUMP JUMPDEST PUSH1 0x40 MLOAD PUSH3 0x461BCD PUSH1 0xE5 SHL DUP2 MSTORE PUSH1 0x20 PUSH1 0x4 DUP3 ADD MSTORE PUSH1 0x16 PUSH1 0x24 DUP3 ADD MSTORE PUSH22 0x151C985B9CD9995C881859D95B9D081B9BDD081CD95D PUSH1 0x52 SHL PUSH1 0x44 DUP3 ADD MSTORE PUSH1 0x64 SWAP1 REVERT JUMPDEST ISZERO PUSH2 0x348E JUMPI JUMP JUMPDEST PUSH1 0x40 MLOAD PUSH3 0x461BCD PUSH1 0xE5 SHL DUP2 MSTORE PUSH1 0x20 PUSH1 0x4 DUP3 ADD MSTORE PUSH1 0x11 PUSH1 0x24 DUP3 ADD MSTORE PUSH17 0x125B9D985B1A59081C9958DA5C1A595B9D PUSH1 0x7A SHL PUSH1 0x44 DUP3 ADD MSTORE PUSH1 0x64 SWAP1 REVERT JUMPDEST PUSH1 0x1 PUSH1 0x1 PUSH1 0xA0 SHL SUB SWAP2 DUP3 AND DUP2 MSTORE SWAP2 DUP2 AND PUSH1 0x20 DUP4 ADD MSTORE SWAP1 SWAP2 AND PUSH1 0x40 DUP3 ADD MSTORE PUSH1 0x60 DUP2 ADD SWAP2 SWAP1 SWAP2 MSTORE PUSH1 0x80 DUP2 ADD SWAP2 SWAP1 SWAP2 MSTORE PUSH1 0xC0 PUSH1 0xA0 DUP3 ADD DUP2 SWAP1 MSTORE PUSH1 0x0 SWAP1 DUP3 ADD MSTORE PUSH1 0xE0 ADD SWAP1 JUMP JUMPDEST PUSH1 0x1 PUSH1 0x1 PUSH1 0xA0 SHL SUB SWAP2 DUP3 AND DUP2 MSTORE SWAP2 DUP2 AND PUSH1 0x20 DUP4 ADD MSTORE SWAP1 SWAP2 AND PUSH1 0x40 DUP3 ADD MSTORE PUSH1 0x60 DUP2 ADD SWAP2 SWAP1 SWAP2 MSTORE PUSH1 0x80 ADD SWAP1 JUMP JUMPDEST ISZERO PUSH2 0x353B JUMPI JUMP JUMPDEST PUSH1 0x40 MLOAD PUSH3 0x461BCD PUSH1 0xE5 SHL DUP2 MSTORE PUSH1 0x20 PUSH1 0x4 DUP3 ADD MSTORE PUSH1 0x13 PUSH1 0x24 DUP3 ADD MSTORE PUSH19 0x119959481D1C985B9CD9995C8819985A5B1959 PUSH1 0x6A SHL PUSH1 0x44 DUP3 ADD MSTORE PUSH1 0x64 SWAP1 REVERT JUMPDEST ISZERO PUSH2 0x357D JUMPI JUMP JUMPDEST PUSH1 0x40 MLOAD PUSH3 0x461BCD PUSH1 0xE5 SHL DUP2 MSTORE PUSH1 0x20 PUSH1 0x4 DUP3 ADD MSTORE PUSH1 0x16 PUSH1 0x24 DUP3 ADD MSTORE PUSH22 0x13985D1A5D99481D1C985B9CD9995C8819985A5B1959 PUSH1 0x52 SHL PUSH1 0x44 DUP3 ADD MSTORE PUSH1 0x64 SWAP1 REVERT JUMPDEST PUSH1 0x4 SLOAD SWAP2 SWAP3 SWAP1 SWAP2 PUSH2 0x35D6 SWAP1 PUSH1 0x1 PUSH1 0x1 PUSH1 0xA0 SHL SUB AND ISZERO ISZERO PUSH2 0x33FE JUMP JUMPDEST PUSH1 0x5 SLOAD PUSH2 0x35EB SWAP1 PUSH1 0x1 PUSH1 0x1 PUSH1 0xA0 SHL SUB AND PUSH2 0x11EA JUMP JUMPDEST SWAP3 PUSH2 0x35F7 DUP5 ISZERO ISZERO PUSH2 0x3442 JUMP JUMPDEST PUSH1 0x1 PUSH1 0x1 PUSH1 0xA0 SHL SUB DUP2 AND SWAP3 PUSH2 0x360D DUP5 ISZERO ISZERO PUSH2 0x3487 JUMP JUMPDEST PUSH1 0x60 DUP4 ADD SWAP2 PUSH2 0x3623 PUSH2 0x14E9 DUP5 MLOAD PUSH1 0x7 SLOAD SWAP1 PUSH2 0x2AF7 JUMP JUMPDEST SWAP4 PUSH2 0x362F DUP6 DUP6 MLOAD PUSH2 0x1FF8 JUMP JUMPDEST SWAP7 DUP2 MLOAD PUSH2 0x363B DUP2 PUSH2 0x1EB5 JUMP JUMPDEST PUSH2 0x3644 DUP2 PUSH2 0x1EB5 JUMP JUMPDEST PUSH2 0x36B0 JUMPI POP POP POP POP PUSH1 0x0 PUSH2 0x3CE SWAP5 DUP2 SWAP5 DUP3 SWAP5 PUSH2 0x3664 DUP5 SWAP6 MLOAD CALLVALUE LT ISZERO PUSH2 0x272F JUMP JUMPDEST DUP1 PUSH2 0x367B JUMPI JUMPDEST POP GAS CALL PUSH2 0x3675 PUSH2 0x2020 JUMP JUMPDEST POP PUSH2 0x3576 JUMP JUMPDEST DUP4 DUP1 DUP1 DUP1 PUSH2 0x36AA SWAP5 PUSH2 0x369A PUSH2 0x11EA PUSH2 0x11EA PUSH1 0x4 SLOAD PUSH1 0x1 DUP1 PUSH1 0xA0 SHL SUB AND SWAP1 JUMP JUMPDEST GAS CALL PUSH2 0x36A4 PUSH2 0x2020 JUMP JUMPDEST POP PUSH2 0x3534 JUMP JUMPDEST CODESIZE PUSH2 0x366A JUMP JUMPDEST SWAP1 SWAP4 SWAP2 SWAP5 SWAP3 SWAP6 POP PUSH1 0x1 DUP5 MLOAD PUSH2 0x36C4 DUP2 PUSH2 0x1EB5 JUMP JUMPDEST PUSH2 0x36CD DUP2 PUSH2 0x1EB5 JUMP JUMPDEST SUB PUSH2 0x37D9 JUMPI POP POP DUP1 PUSH2 0x3754 JUMPI JUMPDEST POP PUSH1 0x5 SLOAD PUSH2 0x3708 SWAP1 PUSH1 0x20 SWAP1 PUSH2 0x36F9 SWAP1 PUSH2 0x11EA SWAP1 PUSH1 0x1 PUSH1 0x1 PUSH1 0xA0 SHL SUB AND DUP2 JUMP JUMPDEST SWAP3 ADD MLOAD PUSH1 0x1 PUSH1 0x1 PUSH1 0xA0 SHL SUB AND SWAP1 JUMP JUMPDEST SWAP3 DUP2 EXTCODESIZE ISZERO PUSH2 0x24B JUMPI PUSH1 0x0 DUP1 SWAP5 PUSH2 0x3734 PUSH1 0x40 MLOAD SWAP8 DUP9 SWAP7 DUP8 SWAP6 DUP7 SWAP5 PUSH4 0x368FA339 PUSH1 0xE2 SHL DUP7 MSTORE PUSH1 0x4 DUP7 ADD PUSH2 0x3509 JUMP JUMPDEST SUB SWAP3 GAS CALL DUP1 ISZERO PUSH2 0x1460 JUMPI PUSH2 0x3745 JUMPI POP JUMP JUMPDEST DUP1 PUSH2 0x1454 PUSH1 0x0 PUSH2 0x3CE SWAP4 PUSH2 0x1EFF JUMP JUMPDEST PUSH1 0x5 SLOAD PUSH2 0x376B SWAP1 PUSH2 0x11EA SWAP1 PUSH1 0x1 PUSH1 0x1 PUSH1 0xA0 SHL SUB AND DUP2 JUMP JUMPDEST PUSH1 0x20 DUP4 ADD MLOAD PUSH1 0x1 PUSH1 0x1 PUSH1 0xA0 SHL SUB AND PUSH1 0x4 SLOAD SWAP1 SWAP2 SWAP1 PUSH1 0x1 PUSH1 0x1 PUSH1 0xA0 SHL SUB AND SWAP1 DUP1 EXTCODESIZE ISZERO PUSH2 0x24B JUMPI DUP7 PUSH1 0x0 DUP1 SWAP5 PUSH2 0x37B5 PUSH1 0x40 MLOAD SWAP8 DUP9 SWAP7 DUP8 SWAP6 DUP7 SWAP5 PUSH4 0x368FA339 PUSH1 0xE2 SHL DUP7 MSTORE PUSH1 0x4 DUP7 ADD PUSH2 0x3509 JUMP JUMPDEST SUB SWAP3 GAS CALL DUP1 ISZERO PUSH2 0x1460 JUMPI ISZERO PUSH2 0x36DA JUMPI DUP1 PUSH2 0x1454 PUSH1 0x0 PUSH2 0x37D3 SWAP4 PUSH2 0x1EFF JUMP JUMPDEST CODESIZE PUSH2 0x36DA JUMP JUMPDEST SWAP2 POP SWAP2 SWAP4 SWAP5 POP PUSH1 0x3 DUP5 MLOAD PUSH2 0x37EC DUP2 PUSH2 0x1EB5 JUMP JUMPDEST PUSH2 0x37F5 DUP2 PUSH2 0x1EB5 JUMP JUMPDEST SUB PUSH2 0x3853 JUMPI POP POP PUSH1 0x5 SLOAD PUSH2 0x3813 SWAP1 PUSH2 0x11EA SWAP1 PUSH1 0x1 PUSH1 0x1 PUSH1 0xA0 SHL SUB AND DUP2 JUMP JUMPDEST PUSH1 0x20 DUP4 ADD MLOAD PUSH1 0x40 SWAP1 PUSH1 0x1 PUSH1 0x1 PUSH1 0xA0 SHL SUB AND SWAP4 ADD MLOAD SWAP4 DUP2 EXTCODESIZE ISZERO PUSH2 0x24B JUMPI PUSH1 0x0 DUP1 SWAP5 PUSH2 0x3734 PUSH1 0x40 MLOAD SWAP8 DUP9 SWAP7 DUP8 SWAP6 DUP7 SWAP5 PUSH4 0x3C4FC9FB PUSH1 0xE1 SHL DUP7 MSTORE PUSH1 0x4 DUP7 ADD PUSH2 0x3509 JUMP JUMPDEST PUSH1 0x2 DUP5 SWAP6 SWAP3 SWAP6 MLOAD PUSH2 0x3863 DUP2 PUSH2 0x1EB5 JUMP JUMPDEST PUSH2 0x386C DUP2 PUSH2 0x1EB5 JUMP JUMPDEST SUB PUSH2 0x38BF JUMPI PUSH1 0x1 PUSH1 0x1 PUSH1 0xA0 SHL SUB AND PUSH1 0x20 DUP5 ADD MLOAD SWAP1 SWAP2 SWAP1 PUSH1 0x40 SWAP1 PUSH1 0x1 PUSH1 0x1 PUSH1 0xA0 SHL SUB AND SWAP5 ADD MLOAD SWAP5 MLOAD DUP3 EXTCODESIZE ISZERO PUSH2 0x24B JUMPI PUSH1 0x0 SWAP5 PUSH2 0x3734 DUP7 SWAP3 PUSH1 0x40 MLOAD SWAP9 DUP10 SWAP8 DUP9 SWAP7 DUP8 SWAP6 PUSH4 0x3AB9E1F7 PUSH1 0xE2 SHL DUP8 MSTORE PUSH1 0x4 DUP8 ADD PUSH2 0x34C7 JUMP JUMPDEST PUSH1 0x40 MLOAD PUSH3 0x461BCD PUSH1 0xE5 SHL DUP2 MSTORE PUSH1 0x20 PUSH1 0x4 DUP3 ADD MSTORE PUSH1 0x16 PUSH1 0x24 DUP3 ADD MSTORE PUSH22 0x556E737570706F727465642061737365742074797065 PUSH1 0x50 SHL PUSH1 0x44 DUP3 ADD MSTORE PUSH1 0x64 SWAP1 REVERT JUMPDEST PUSH1 0x1 SLOAD PUSH1 0x1 PUSH1 0x1 PUSH1 0xA0 SHL SUB AND CALLER SUB PUSH2 0x3911 JUMPI JUMP JUMPDEST PUSH1 0x64 PUSH1 0x40 MLOAD PUSH3 0x461BCD PUSH1 0xE5 SHL DUP2 MSTORE PUSH1 0x20 PUSH1 0x4 DUP3 ADD MSTORE PUSH1 0x20 PUSH1 0x24 DUP3 ADD MSTORE PUSH32 0x4F776E61626C653A2063616C6C6572206973206E6F7420746865206F776E6572 PUSH1 0x44 DUP3 ADD MSTORE REVERT JUMPDEST PUSH1 0x20 PUSH2 0x3975 SWAP2 PUSH1 0x40 MLOAD DUP1 SWAP4 DUP2 SWAP3 PUSH4 0x1344D6D9 PUSH1 0xE1 SHL DUP4 MSTORE PUSH1 0x4 DUP4 ADD PUSH2 0x2827 JUMP JUMPDEST SUB DUP2 PUSH20 0x0 GAS DELEGATECALL DUP1 ISZERO PUSH2 0x1460 JUMPI PUSH2 0x1D46 SWAP2 PUSH1 0x0 SWAP2 PUSH2 0x39A9 JUMPI JUMPDEST POP PUSH2 0xA6C PUSH2 0x49B0 JUMP JUMPDEST PUSH2 0x39C2 SWAP2 POP PUSH1 0x20 RETURNDATASIZE PUSH1 0x20 GT PUSH2 0x152D JUMPI PUSH2 0x151F DUP2 DUP4 PUSH2 0x1EFF JUMP JUMPDEST CODESIZE PUSH2 0x39A0 JUMP JUMPDEST PUSH2 0x39DD PUSH2 0x39E5 SWAP3 PUSH2 0x39D8 DUP4 PUSH2 0x3955 JUMP JUMPDEST PUSH2 0x4AC6 JUMP JUMPDEST SWAP3 SWAP1 SWAP3 PUSH2 0x4B08 JUMP JUMPDEST CALLDATALOAD PUSH2 0x39EF DUP2 PUSH2 0x3B2 JUMP JUMPDEST PUSH1 0x1 PUSH1 0x1 PUSH1 0xA0 SHL SUB SWAP2 DUP3 AND SWAP2 AND EQ SWAP1 JUMP JUMPDEST ISZERO PUSH2 0x3A07 JUMPI JUMP JUMPDEST PUSH1 0x40 MLOAD PUSH3 0x461BCD PUSH1 0xE5 SHL DUP2 MSTORE PUSH1 0x20 PUSH1 0x4 DUP3 ADD MSTORE PUSH1 0xD PUSH1 0x24 DUP3 ADD MSTORE PUSH13 0x24B73B30B634B21037BBB732B9 PUSH1 0x99 SHL PUSH1 0x44 DUP3 ADD MSTORE PUSH1 0x64 SWAP1 REVERT JUMPDEST ISZERO PUSH2 0x3A43 JUMPI JUMP JUMPDEST PUSH1 0x40 MLOAD PUSH3 0x461BCD PUSH1 0xE5 SHL DUP2 MSTORE PUSH1 0x20 PUSH1 0x4 DUP3 ADD MSTORE PUSH1 0x1B PUSH1 0x24 DUP3 ADD MSTORE PUSH32 0x496E73756666696369656E74206E61746976652062616C616E63650000000000 PUSH1 0x44 DUP3 ADD MSTORE PUSH1 0x64 SWAP1 REVERT JUMPDEST ISZERO PUSH2 0x3A8F JUMPI JUMP JUMPDEST PUSH1 0x40 MLOAD PUSH3 0x461BCD PUSH1 0xE5 SHL DUP2 MSTORE PUSH1 0x20 PUSH1 0x4 DUP3 ADD MSTORE PUSH1 0x1A PUSH1 0x24 DUP3 ADD MSTORE PUSH32 0x496E73756666696369656E742045524332302062616C616E6365000000000000 PUSH1 0x44 DUP3 ADD MSTORE PUSH1 0x64 SWAP1 REVERT JUMPDEST ISZERO PUSH2 0x3ADB JUMPI JUMP JUMPDEST PUSH1 0x40 MLOAD PUSH3 0x461BCD PUSH1 0xE5 SHL DUP2 MSTORE PUSH1 0x20 PUSH1 0x4 DUP3 ADD MSTORE PUSH1 0x1C PUSH1 0x24 DUP3 ADD MSTORE PUSH32 0x496E73756666696369656E7420455243313135352062616C616E636500000000 PUSH1 0x44 DUP3 ADD MSTORE PUSH1 0x64 SWAP1 REVERT JUMPDEST SWAP1 DUP2 PUSH1 0x20 SWAP2 SUB SLT PUSH2 0x24B JUMPI MLOAD PUSH2 0x1D46 DUP2 PUSH2 0x3B2 JUMP JUMPDEST ISZERO PUSH2 0x3B3C JUMPI JUMP JUMPDEST PUSH1 0x40 MLOAD PUSH3 0x461BCD PUSH1 0xE5 SHL DUP2 MSTORE PUSH1 0x20 PUSH1 0x4 DUP3 ADD MSTORE PUSH1 0x10 PUSH1 0x24 DUP3 ADD MSTORE PUSH16 0x2737BA1022A9219B99189037BBB732B9 PUSH1 0x81 SHL PUSH1 0x44 DUP3 ADD MSTORE PUSH1 0x64 SWAP1 REVERT JUMPDEST PUSH1 0x1 PUSH1 0x1 PUSH1 0xA0 SHL SUB DUP2 AND SWAP2 SWAP1 PUSH2 0x3B8B DUP4 ISZERO ISZERO PUSH2 0x3A00 JUMP JUMPDEST PUSH1 0x3 DUP3 MLOAD PUSH2 0x3B98 DUP2 PUSH2 0x1EB5 JUMP JUMPDEST PUSH2 0x3BA1 DUP2 PUSH2 0x1EB5 JUMP JUMPDEST SUB PUSH2 0x3C43 JUMPI POP PUSH1 0x20 DUP1 DUP3 ADD MLOAD PUSH2 0x3BEE SWAP4 SWAP3 SWAP1 PUSH1 0x40 SWAP1 PUSH2 0x3BCA SWAP1 PUSH2 0x11EA SWAP1 PUSH1 0x1 PUSH1 0x1 PUSH1 0xA0 SHL SUB AND DUP2 JUMP JUMPDEST SWAP2 ADD MLOAD SWAP1 PUSH1 0x40 MLOAD DUP1 DUP1 SWAP7 DUP2 SWAP5 PUSH4 0x31A9108F PUSH1 0xE1 SHL DUP4 MSTORE PUSH1 0x4 DUP4 ADD SWAP2 SWAP1 PUSH1 0x20 DUP4 ADD SWAP3 MSTORE JUMP JUMPDEST SUB SWAP2 GAS STATICCALL DUP1 ISZERO PUSH2 0x1460 JUMPI PUSH2 0x3CE SWAP3 PUSH1 0x0 SWAP2 PUSH2 0x3C14 JUMPI JUMPDEST POP PUSH1 0x1 PUSH1 0x1 PUSH1 0xA0 SHL SUB AND EQ PUSH2 0x3B35 JUMP JUMPDEST PUSH2 0x3C36 SWAP2 POP PUSH1 0x20 RETURNDATASIZE PUSH1 0x20 GT PUSH2 0x3C3C JUMPI JUMPDEST PUSH2 0x3C2E DUP2 DUP4 PUSH2 0x1EFF JUMP JUMPDEST DUP2 ADD SWAP1 PUSH2 0x3B20 JUMP JUMPDEST CODESIZE PUSH2 0x3C04 JUMP JUMPDEST POP RETURNDATASIZE PUSH2 0x3C24 JUMP JUMPDEST SWAP2 POP PUSH1 0x2 DUP2 MLOAD PUSH2 0x3C52 DUP2 PUSH2 0x1EB5 JUMP JUMPDEST PUSH2 0x3C5B DUP2 PUSH2 0x1EB5 JUMP JUMPDEST SUB PUSH2 0x3CFC JUMPI PUSH1 0x20 DUP2 DUP2 ADD MLOAD PUSH2 0x3CB5 SWAP4 SWAP1 PUSH2 0x3C7F SWAP1 PUSH2 0x11EA SWAP1 PUSH1 0x1 PUSH1 0x1 PUSH1 0xA0 SHL SUB AND DUP2 JUMP JUMPDEST PUSH1 0x40 DUP5 DUP2 ADD MLOAD SWAP1 MLOAD PUSH3 0x7EEAC7 PUSH1 0xE1 SHL DUP2 MSTORE PUSH1 0x1 PUSH1 0x1 PUSH1 0xA0 SHL SUB SWAP1 SWAP4 AND PUSH1 0x4 DUP5 ADD MSTORE PUSH1 0x24 DUP4 ADD MSTORE SWAP1 SWAP4 DUP5 SWAP2 SWAP1 DUP3 SWAP1 DUP2 SWAP1 PUSH1 0x44 DUP3 ADD SWAP1 JUMP JUMPDEST SUB SWAP2 GAS STATICCALL SWAP1 DUP2 ISZERO PUSH2 0x1460 JUMPI PUSH2 0x3CE SWAP3 PUSH1 0x0 SWAP3 PUSH2 0x3CD8 JUMPI JUMPDEST POP PUSH1 0x60 ADD MLOAD GT ISZERO PUSH2 0x3AD4 JUMP JUMPDEST PUSH1 0x60 SWAP2 SWAP3 POP PUSH2 0x3CF5 SWAP1 PUSH1 0x20 RETURNDATASIZE PUSH1 0x20 GT PUSH2 0x152D JUMPI PUSH2 0x151F DUP2 DUP4 PUSH2 0x1EFF JUMP JUMPDEST SWAP2 SWAP1 PUSH2 0x3CCC JUMP JUMPDEST PUSH1 0x1 DUP2 MLOAD PUSH2 0x3D09 DUP2 PUSH2 0x1EB5 JUMP JUMPDEST PUSH2 0x3D12 DUP2 PUSH2 0x1EB5 JUMP JUMPDEST SUB PUSH2 0x3DA9 JUMPI PUSH1 0x20 DUP2 DUP2 ADD MLOAD PUSH2 0x3D63 SWAP4 SWAP1 PUSH2 0x3D36 SWAP1 PUSH2 0x11EA SWAP1 PUSH1 0x1 PUSH1 0x1 PUSH1 0xA0 SHL SUB AND DUP2 JUMP JUMPDEST PUSH1 0x40 MLOAD PUSH4 0x70A08231 PUSH1 0xE0 SHL DUP2 MSTORE PUSH1 0x1 PUSH1 0x1 PUSH1 0xA0 SHL SUB SWAP1 SWAP3 AND PUSH1 0x4 DUP4 ADD MSTORE SWAP1 SWAP4 DUP5 SWAP2 SWAP1 DUP3 SWAP1 DUP2 SWAP1 PUSH1 0x24 DUP3 ADD SWAP1 JUMP JUMPDEST SUB SWAP2 GAS STATICCALL SWAP1 DUP2 ISZERO PUSH2 0x1460 JUMPI PUSH2 0x3CE SWAP3 PUSH1 0x0 SWAP3 PUSH2 0x3D85 JUMPI JUMPDEST POP PUSH1 0x60 ADD MLOAD EQ PUSH2 0x3A88 JUMP JUMPDEST PUSH1 0x60 SWAP2 SWAP3 POP PUSH2 0x3DA2 SWAP1 PUSH1 0x20 RETURNDATASIZE PUSH1 0x20 GT PUSH2 0x152D JUMPI PUSH2 0x151F DUP2 DUP4 PUSH2 0x1EFF JUMP JUMPDEST SWAP2 SWAP1 PUSH2 0x3D7A JUMP JUMPDEST DUP1 MLOAD PUSH2 0x3DB4 DUP2 PUSH2 0x1EB5 JUMP JUMPDEST PUSH2 0x3DBD DUP2 PUSH2 0x1EB5 JUMP JUMPDEST PUSH2 0x38BF JUMPI PUSH1 0x60 PUSH2 0x3CE SWAP3 BALANCE SWAP2 ADD MLOAD GT ISZERO PUSH2 0x3A3C JUMP JUMPDEST ISZERO PUSH2 0x3DD9 JUMPI JUMP JUMPDEST PUSH1 0x40 MLOAD PUSH3 0x461BCD PUSH1 0xE5 SHL DUP2 MSTORE PUSH1 0x20 PUSH1 0x4 DUP3 ADD MSTORE PUSH1 0x17 PUSH1 0x24 DUP3 ADD MSTORE PUSH32 0x5061796D656E74207472616E73666572206661696C6564000000000000000000 PUSH1 0x44 DUP3 ADD MSTORE PUSH1 0x64 SWAP1 REVERT JUMPDEST SWAP1 PUSH2 0x3E36 PUSH2 0xB2F DUP3 PUSH1 0x0 MSTORE PUSH1 0xB PUSH1 0x20 MSTORE PUSH1 0x40 PUSH1 0x0 KECCAK256 SWAP1 JUMP JUMPDEST PUSH2 0x3E4D PUSH2 0x2153 DUP3 PUSH1 0x0 MSTORE PUSH1 0xA PUSH1 0x20 MSTORE PUSH1 0x40 PUSH1 0x0 KECCAK256 SWAP1 JUMP JUMPDEST SWAP2 PUSH1 0x20 DUP4 ADD SWAP3 PUSH2 0x3E5F DUP5 MLOAD ISZERO ISZERO PUSH2 0x2320 JUMP JUMPDEST DUP1 MLOAD PUSH2 0x3E75 SWAP1 PUSH1 0x1 PUSH1 0x1 PUSH1 0xA0 SHL SUB AND ISZERO ISZERO PUSH2 0x235D JUMP JUMPDEST PUSH1 0x20 DUP3 ADD SWAP1 PUSH1 0x3 PUSH2 0x3E86 DUP4 MLOAD PUSH2 0x1F69 JUMP JUMPDEST PUSH2 0x3E8F DUP2 PUSH2 0x1EB5 JUMP JUMPDEST SUB PUSH2 0x3FE5 JUMPI PUSH1 0x5 SLOAD PUSH2 0x3EAB SWAP1 PUSH2 0x11EA SWAP1 PUSH1 0x1 PUSH1 0x1 PUSH1 0xA0 SHL SUB AND DUP2 JUMP JUMPDEST SWAP2 MLOAD PUSH1 0x20 DUP2 ADD MLOAD DUP5 MLOAD DUP4 MLOAD PUSH1 0x40 SWAP1 SWAP4 ADD MLOAD SWAP5 PUSH1 0x1 PUSH1 0x1 PUSH1 0xA0 SHL SUB SWAP3 DUP4 AND SWAP4 DUP4 AND SWAP3 SWAP1 SWAP2 AND DUP2 EXTCODESIZE ISZERO PUSH2 0x24B JUMPI PUSH1 0x0 DUP1 SWAP5 PUSH2 0x3EFA PUSH1 0x40 MLOAD SWAP9 DUP10 SWAP7 DUP8 SWAP6 DUP7 SWAP5 PUSH4 0x3C4FC9FB PUSH1 0xE1 SHL DUP7 MSTORE PUSH1 0x4 DUP7 ADD PUSH2 0x3509 JUMP JUMPDEST SUB SWAP3 GAS CALL SWAP1 DUP2 ISZERO PUSH2 0x1460 JUMPI PUSH2 0x2167 PUSH1 0x0 DUP1 DUP1 DUP1 DUP11 PUSH2 0x3F79 PUSH2 0x11EA PUSH2 0x11EA PUSH32 0xD5E3E604DEF17BD0C5B7B35A53A73DD0F20A6855F5672E207C4DADE80E8B7B95 SWAP13 PUSH2 0x3FA7 SWAP13 PUSH2 0x3F89 SWAP13 PUSH2 0x3FD1 JUMPI JUMPDEST POP JUMPDEST PUSH2 0x3F64 PUSH2 0x3F5C PUSH2 0x14E9 DUP8 MLOAD PUSH1 0x7 SLOAD SWAP1 PUSH2 0x2AF7 JUMP JUMPDEST DUP1 SWAP7 MLOAD PUSH2 0x1FF8 JUMP JUMPDEST SWAP5 DUP1 PUSH2 0x3FAC JUMPI JUMPDEST POP MLOAD PUSH1 0x1 PUSH1 0x1 PUSH1 0xA0 SHL SUB AND SWAP1 JUMP JUMPDEST GAS CALL PUSH2 0x3F83 PUSH2 0x2020 JUMP JUMPDEST POP PUSH2 0x3DD2 JUMP JUMPDEST SWAP4 MLOAD PUSH1 0x40 MLOAD SWAP1 DUP2 MSTORE PUSH1 0x1 PUSH1 0x1 PUSH1 0xA0 SHL SUB SWAP1 SWAP5 AND SWAP4 SWAP1 DUP2 SWAP1 PUSH1 0x20 DUP3 ADD SWAP1 JUMP JUMPDEST SUB SWAP1 LOG3 JUMP JUMPDEST DUP7 DUP1 DUP1 DUP1 PUSH2 0x3FCB SWAP5 PUSH2 0x369A PUSH2 0x11EA PUSH2 0x11EA PUSH1 0x4 SLOAD PUSH1 0x1 DUP1 PUSH1 0xA0 SHL SUB AND SWAP1 JUMP JUMPDEST CODESIZE PUSH2 0x3F6B JUMP JUMPDEST DUP1 PUSH2 0x1454 DUP9 PUSH2 0x3FDF SWAP4 PUSH2 0x1EFF JUMP JUMPDEST CODESIZE PUSH2 0x3F46 JUMP JUMPDEST PUSH1 0x2 PUSH2 0x3FF1 DUP4 MLOAD PUSH2 0x1F69 JUMP JUMPDEST PUSH2 0x3FFA DUP2 PUSH2 0x1EB5 JUMP JUMPDEST SUB PUSH2 0x38BF JUMPI PUSH1 0x5 SLOAD PUSH2 0x4016 SWAP1 PUSH2 0x11EA SWAP1 PUSH1 0x1 PUSH1 0x1 PUSH1 0xA0 SHL SUB AND DUP2 JUMP JUMPDEST SWAP2 MLOAD PUSH1 0x20 DUP2 ADD MLOAD SWAP1 SWAP3 SWAP1 PUSH1 0x1 PUSH1 0x1 PUSH1 0xA0 SHL SUB AND DUP5 MLOAD SWAP1 SWAP2 SWAP1 PUSH1 0x1 PUSH1 0x1 PUSH1 0xA0 SHL SUB AND DUP4 MLOAD SWAP1 SWAP2 SWAP1 PUSH1 0x1 PUSH1 0x1 PUSH1 0xA0 SHL SUB AND SWAP2 PUSH1 0x60 PUSH1 0x40 DUP8 ADD MLOAD SWAP7 ADD MLOAD DUP3 EXTCODESIZE ISZERO PUSH2 0x24B JUMPI PUSH1 0x0 SWAP5 PUSH2 0x407C DUP7 SWAP3 PUSH1 0x40 MLOAD SWAP10 DUP11 SWAP8 DUP9 SWAP7 DUP8 SWAP6 PUSH4 0x3AB9E1F7 PUSH1 0xE2 SHL DUP8 MSTORE PUSH1 0x4 DUP8 ADD PUSH2 0x34C7 JUMP JUMPDEST SUB SWAP3 GAS CALL SWAP1 DUP2 ISZERO PUSH2 0x1460 JUMPI PUSH2 0x2167 PUSH1 0x0 DUP1 DUP1 DUP1 DUP11 PUSH2 0x3F79 PUSH2 0x11EA PUSH2 0x11EA PUSH32 0xD5E3E604DEF17BD0C5B7B35A53A73DD0F20A6855F5672E207C4DADE80E8B7B95 SWAP13 PUSH2 0x3FA7 SWAP13 PUSH2 0x3F89 SWAP13 PUSH2 0x40CE JUMPI JUMPDEST POP PUSH2 0x3F48 JUMP JUMPDEST DUP1 PUSH2 0x1454 DUP9 PUSH2 0x40DC SWAP4 PUSH2 0x1EFF JUMP JUMPDEST CODESIZE PUSH2 0x40C8 JUMP JUMPDEST PUSH1 0xFF DUP2 EQ PUSH2 0x40F3 JUMPI PUSH2 0x1D46 SWAP1 PUSH2 0x4706 JUMP JUMPDEST POP PUSH1 0x40 MLOAD PUSH1 0x0 PUSH1 0x2 SLOAD SWAP1 DUP2 PUSH1 0x1 SHR SWAP2 PUSH1 0x1 DUP2 AND SWAP1 DUP2 ISZERO PUSH2 0x41C2 JUMPI JUMPDEST PUSH1 0x20 DUP5 LT DUP3 EQ PUSH2 0x41AE JUMPI DUP4 DUP6 MSTORE DUP5 SWAP3 SWAP2 PUSH1 0x20 DUP5 ADD SWAP2 DUP2 ISZERO PUSH2 0x4195 JUMPI POP PUSH1 0x1 EQ PUSH2 0x413F JUMPI JUMPDEST POP PUSH2 0x1D46 SWAP3 POP SUB DUP3 PUSH2 0x1EFF JUMP JUMPDEST PUSH1 0x2 PUSH1 0x0 SWAP1 DUP2 MSTORE SWAP2 POP PUSH32 0x405787FA12A823E0F2B7631CC41B3BA8828B3321CA811111FA75CD3AA3BB5ACE JUMPDEST DUP5 DUP4 LT PUSH2 0x417E JUMPI POP PUSH2 0x1D46 SWAP4 POP ADD CODESIZE PUSH2 0x4132 JUMP JUMPDEST DUP1 SLOAD DUP3 DUP5 ADD MSTORE DUP6 SWAP4 POP PUSH1 0x20 SWAP1 SWAP3 ADD SWAP2 PUSH1 0x1 ADD PUSH2 0x416A JUMP JUMPDEST PUSH1 0xFF NOT AND DUP3 MSTORE POP PUSH2 0x1D46 SWAP4 ISZERO ISZERO PUSH1 0x5 SHL ADD SWAP1 POP CODESIZE PUSH2 0x4132 JUMP JUMPDEST PUSH4 0x4E487B71 PUSH1 0xE0 SHL DUP4 MSTORE PUSH1 0x22 PUSH1 0x4 MSTORE PUSH1 0x24 DUP4 REVERT JUMPDEST SWAP3 PUSH1 0x7F AND SWAP3 PUSH2 0x410E JUMP JUMPDEST PUSH1 0xFF DUP2 EQ PUSH2 0x41DD JUMPI PUSH2 0x1D46 SWAP1 PUSH2 0x4706 JUMP JUMPDEST POP PUSH1 0x40 MLOAD PUSH1 0x0 PUSH1 0x3 SLOAD SWAP1 DUP2 PUSH1 0x1 SHR SWAP2 PUSH1 0x1 DUP2 AND SWAP1 DUP2 ISZERO PUSH2 0x427E JUMPI JUMPDEST PUSH1 0x20 DUP5 LT DUP3 EQ PUSH2 0x41AE JUMPI DUP4 DUP6 MSTORE DUP5 SWAP3 SWAP2 PUSH1 0x20 DUP5 ADD SWAP2 DUP2 ISZERO PUSH2 0x4195 JUMPI POP PUSH1 0x1 EQ PUSH2 0x4228 JUMPI POP PUSH2 0x1D46 SWAP3 POP SUB DUP3 PUSH2 0x1EFF JUMP JUMPDEST PUSH1 0x3 PUSH1 0x0 SWAP1 DUP2 MSTORE SWAP2 POP PUSH32 0xC2575A0E9E593C00F959F8C92F12DB2869C3395A3B0502D05E2516446F71F85B JUMPDEST DUP5 DUP4 LT PUSH2 0x4267 JUMPI POP PUSH2 0x1D46 SWAP4 POP ADD CODESIZE PUSH2 0x4132 JUMP JUMPDEST DUP1 SLOAD DUP3 DUP5 ADD MSTORE DUP6 SWAP4 POP PUSH1 0x20 SWAP1 SWAP3 ADD SWAP2 PUSH1 0x1 ADD PUSH2 0x4253 JUMP JUMPDEST SWAP3 PUSH1 0x7F AND SWAP3 PUSH2 0x41F8 JUMP JUMPDEST ISZERO PUSH2 0x428F JUMPI JUMP JUMPDEST PUSH1 0x40 MLOAD PUSH3 0x461BCD PUSH1 0xE5 SHL DUP2 MSTORE PUSH1 0x20 PUSH1 0x4 DUP3 ADD MSTORE PUSH1 0x2A PUSH1 0x24 DUP3 ADD MSTORE PUSH32 0x496E76616C6964207369676E61747572652E204D616B6572206973206E6F7420 PUSH1 0x44 DUP3 ADD MSTORE PUSH10 0x3A34329039B4B3B732B9 PUSH1 0xB1 SHL PUSH1 0x64 DUP3 ADD MSTORE PUSH1 0x84 SWAP1 REVERT JUMPDEST SWAP1 DUP2 PUSH1 0x20 SWAP2 SUB SLT PUSH2 0x24B JUMPI MLOAD PUSH1 0x1 PUSH1 0x1 PUSH1 0xE0 SHL SUB NOT DUP2 AND DUP2 SUB PUSH2 0x24B JUMPI SWAP1 JUMP JUMPDEST PUSH1 0x40 SWAP1 PUSH2 0x1D46 SWAP5 SWAP3 DUP2 MSTORE DUP2 PUSH1 0x20 DUP3 ADD MSTORE ADD SWAP2 PUSH2 0x2806 JUMP JUMPDEST ISZERO PUSH2 0x4325 JUMPI JUMP JUMPDEST PUSH1 0x40 MLOAD PUSH3 0x461BCD PUSH1 0xE5 SHL DUP2 MSTORE PUSH1 0x20 PUSH1 0x4 DUP3 ADD MSTORE PUSH1 0x2B PUSH1 0x24 DUP3 ADD MSTORE PUSH32 0x636F6E7472616374206F72646572207369676E61747572652076657269666963 PUSH1 0x44 DUP3 ADD MSTORE PUSH11 0x30BA34B7B71032B93937B9 PUSH1 0xA9 SHL PUSH1 0x64 DUP3 ADD MSTORE PUSH1 0x84 SWAP1 REVERT JUMPDEST PUSH2 0x438A PUSH1 0x40 DUP3 ADD PUSH2 0x1D3C JUMP JUMPDEST PUSH2 0x43A4 PUSH2 0x4399 PUSH2 0x1799 DUP5 PUSH2 0x3292 JUMP JUMPDEST SWAP3 PUSH1 0xC0 DUP2 ADD SWAP1 PUSH2 0x2BA2 JUMP JUMPDEST SWAP3 DUP3 EXTCODESIZE ISZERO PUSH2 0x4439 JUMPI PUSH1 0x40 MLOAD PUSH4 0xB135D3F PUSH1 0xE1 SHL DUP2 MSTORE SWAP4 PUSH1 0x20 SWAP4 DUP6 SWAP4 SWAP1 SWAP3 DUP5 SWAP3 DUP4 SWAP3 PUSH2 0x43D2 SWAP3 PUSH1 0x4 DUP6 ADD PUSH2 0x4307 JUMP JUMPDEST SUB SWAP2 PUSH1 0x1 PUSH1 0x1 PUSH1 0xA0 SHL SUB AND GAS STATICCALL DUP1 ISZERO PUSH2 0x1460 JUMPI PUSH2 0x3CE SWAP2 PUSH1 0x0 SWAP2 PUSH2 0x440A JUMPI JUMPDEST POP PUSH1 0x1 PUSH1 0x1 PUSH1 0xE0 SHL SUB NOT AND PUSH4 0xB135D3F PUSH1 0xE1 SHL EQ PUSH2 0x431E JUMP JUMPDEST PUSH2 0x442C SWAP2 POP PUSH1 0x20 RETURNDATASIZE PUSH1 0x20 GT PUSH2 0x4432 JUMPI JUMPDEST PUSH2 0x4424 DUP2 DUP4 PUSH2 0x1EFF JUMP JUMPDEST DUP2 ADD SWAP1 PUSH2 0x42E7 JUMP JUMPDEST CODESIZE PUSH2 0x43F1 JUMP JUMPDEST POP RETURNDATASIZE PUSH2 0x441A JUMP JUMPDEST PUSH2 0x11EA SWAP1 PUSH2 0x444F PUSH2 0x4455 SWAP4 PUSH2 0x3CE SWAP7 CALLDATASIZE SWAP2 PUSH2 0x2225 JUMP JUMPDEST SWAP1 PUSH2 0x46F1 JUMP JUMPDEST PUSH1 0x1 PUSH1 0x1 PUSH1 0xA0 SHL SUB SWAP1 SWAP2 AND EQ PUSH2 0x4288 JUMP JUMPDEST SWAP3 SWAP1 SWAP2 SWAP1 PUSH1 0x0 SWAP2 JUMPDEST DUP5 MLOAD DUP4 LT ISZERO PUSH2 0x44B5 JUMPI PUSH2 0x4481 DUP4 DUP7 PUSH2 0x31E6 JUMP JUMPDEST MLOAD SWAP1 PUSH1 0x0 DUP3 DUP3 LT ISZERO PUSH2 0x44A4 JUMPI POP PUSH1 0x0 MSTORE PUSH1 0x20 MSTORE PUSH1 0x1 PUSH1 0x40 PUSH1 0x0 KECCAK256 JUMPDEST SWAP3 ADD SWAP2 PUSH2 0x446E JUMP JUMPDEST PUSH1 0x40 SWAP2 PUSH1 0x1 SWAP4 DUP3 MSTORE PUSH1 0x20 MSTORE KECCAK256 PUSH2 0x449C JUMP JUMPDEST SWAP2 POP SWAP3 POP EQ SWAP1 JUMP JUMPDEST ISZERO PUSH2 0x44C4 JUMPI JUMP JUMPDEST PUSH1 0x40 MLOAD PUSH3 0x461BCD PUSH1 0xE5 SHL DUP2 MSTORE PUSH1 0x20 PUSH1 0x4 DUP3 ADD MSTORE PUSH1 0x2D PUSH1 0x24 DUP3 ADD MSTORE PUSH32 0x636F6E74726163742061756374696F6E207369676E6174757265207665726966 PUSH1 0x44 DUP3 ADD MSTORE PUSH13 0x34B1B0BA34B7B71032B93937B9 PUSH1 0x99 SHL PUSH1 0x64 DUP3 ADD MSTORE PUSH1 0x84 SWAP1 REVERT JUMPDEST PUSH2 0x4528 DUP2 PUSH2 0x1D3C JUMP JUMPDEST PUSH2 0x4540 PUSH2 0x4534 DUP4 PUSH2 0x3955 JUMP JUMPDEST SWAP3 PUSH2 0x140 DUP2 ADD SWAP1 PUSH2 0x2BA2 JUMP JUMPDEST SWAP3 DUP3 EXTCODESIZE ISZERO PUSH2 0x4439 JUMPI PUSH1 0x40 MLOAD PUSH4 0xB135D3F PUSH1 0xE1 SHL DUP2 MSTORE SWAP4 PUSH1 0x20 SWAP4 DUP6 SWAP4 SWAP1 SWAP3 DUP5 SWAP3 DUP4 SWAP3 PUSH2 0x456E SWAP3 PUSH1 0x4 DUP6 ADD PUSH2 0x4307 JUMP JUMPDEST SUB SWAP2 PUSH1 0x1 PUSH1 0x1 PUSH1 0xA0 SHL SUB AND GAS STATICCALL DUP1 ISZERO PUSH2 0x1460 JUMPI PUSH2 0x3CE SWAP2 PUSH1 0x0 SWAP2 PUSH2 0x45A6 JUMPI JUMPDEST POP PUSH1 0x1 PUSH1 0x1 PUSH1 0xE0 SHL SUB NOT AND PUSH4 0xB135D3F PUSH1 0xE1 SHL EQ PUSH2 0x44BD JUMP JUMPDEST PUSH2 0x45BF SWAP2 POP PUSH1 0x20 RETURNDATASIZE PUSH1 0x20 GT PUSH2 0x4432 JUMPI PUSH2 0x4424 DUP2 DUP4 PUSH2 0x1EFF JUMP JUMPDEST CODESIZE PUSH2 0x458D JUMP JUMPDEST PUSH1 0x40 MLOAD PUSH4 0x1FFC9A7 PUSH1 0xE0 SHL DUP2 MSTORE PUSH4 0x80AC58CD PUSH1 0xE0 SHL PUSH1 0x4 DUP3 ADD MSTORE SWAP1 PUSH1 0x20 SWAP1 DUP3 SWAP1 PUSH1 0x24 SWAP1 DUP3 SWAP1 PUSH1 0x1 PUSH1 0x1 PUSH1 0xA0 SHL SUB AND GAS STATICCALL DUP1 SWAP2 PUSH1 0x0 SWAP2 PUSH2 0x460B JUMPI JUMPDEST POP SWAP1 PUSH2 0x1D46 JUMPI POP PUSH1 0x0 SWAP1 JUMP JUMPDEST PUSH1 0x20 DUP2 RETURNDATASIZE PUSH1 0x20 GT PUSH2 0x4645 JUMPI JUMPDEST DUP2 PUSH2 0x4624 PUSH1 0x20 SWAP4 DUP4 PUSH2 0x1EFF JUMP JUMPDEST DUP2 ADD SUB SLT PUSH2 0x4641 JUMPI MLOAD SWAP1 DUP2 ISZERO ISZERO DUP3 SUB PUSH2 0x463E JUMPI POP CODESIZE PUSH2 0x45FF JUMP JUMPDEST DUP1 REVERT JUMPDEST POP DUP1 REVERT JUMPDEST RETURNDATASIZE SWAP2 POP PUSH2 0x4617 JUMP JUMPDEST PUSH1 0x60 SWAP2 PUSH1 0x20 PUSH2 0x465D SWAP3 ADD MLOAD PUSH2 0x31E6 JUMP JUMPDEST MLOAD ADD MLOAD TIMESTAMP GT SWAP1 JUMP JUMPDEST PUSH2 0x4677 PUSH2 0x4672 CALLDATASIZE DUP4 PUSH2 0x23A2 JUMP JUMPDEST PUSH2 0x4934 JUMP JUMPDEST SWAP1 PUSH2 0x4688 PUSH2 0x4672 CALLDATASIZE PUSH1 0x80 DUP5 ADD PUSH2 0x23A2 JUMP JUMPDEST SWAP1 PUSH2 0x120 PUSH2 0x100 DUP3 ADD CALLDATALOAD SWAP2 ADD CALLDATALOAD SWAP1 PUSH1 0x40 MLOAD SWAP3 PUSH1 0x20 DUP5 ADD SWAP5 PUSH32 0xE28CFD2E1BCEC04840C1DDB765A2C756CF3E42AEF44E48DDDA10AF78ED9A1C44 DUP7 MSTORE PUSH1 0x40 DUP6 ADD MSTORE PUSH1 0x60 DUP5 ADD MSTORE PUSH1 0x80 DUP4 ADD MSTORE PUSH1 0xA0 DUP3 ADD MSTORE PUSH1 0xA0 DUP2 MSTORE PUSH2 0x335E PUSH1 0xC0 DUP3 PUSH2 0x1EFF JUMP JUMPDEST PUSH2 0x1D46 SWAP1 PUSH2 0xA6C PUSH2 0x49B0 JUMP JUMPDEST PUSH2 0x1D46 SWAP2 PUSH2 0x46FE SWAP2 PUSH2 0x4AC6 JUMP JUMPDEST SWAP2 SWAP1 SWAP2 PUSH2 0x4B08 JUMP JUMPDEST PUSH1 0xFF DUP2 AND SWAP1 PUSH1 0x1F DUP3 GT PUSH2 0x4737 JUMPI PUSH1 0x40 DUP1 MLOAD SWAP3 PUSH2 0x4722 DUP3 DUP6 PUSH2 0x1EFF JUMP JUMPDEST PUSH1 0x20 DUP1 DUP6 MSTORE DUP5 ADD SWAP2 PUSH1 0x1F NOT ADD CALLDATASIZE DUP4 CALLDATACOPY DUP4 MSTORE MSTORE SWAP1 JUMP JUMPDEST PUSH4 0x2CD44AC3 PUSH1 0xE2 SHL PUSH1 0x0 MSTORE PUSH1 0x4 PUSH1 0x0 REVERT JUMPDEST DUP1 CALLDATALOAD SWAP1 PUSH2 0x4754 DUP3 PUSH2 0x3B2 JUMP JUMPDEST PUSH2 0x4764 PUSH2 0x4672 CALLDATASIZE PUSH1 0x20 DUP5 ADD PUSH2 0x23A2 JUMP JUMPDEST SWAP1 PUSH1 0xA0 DUP2 ADD CALLDATALOAD SWAP1 PUSH2 0x4774 DUP3 PUSH2 0x3B2 JUMP JUMPDEST PUSH1 0xC0 DUP2 ADD CALLDATALOAD PUSH1 0xE0 DUP3 ADD CALLDATALOAD SWAP1 PUSH2 0x120 PUSH2 0x100 DUP5 ADD CALLDATALOAD SWAP4 ADD CALLDATALOAD SWAP4 PUSH1 0x40 MLOAD SWAP6 PUSH1 0x20 DUP8 ADD SWAP8 PUSH32 0xA9D4367585BDF5AC5ED4070ABDBB7C7B175C44FF9A30373A11D40E8C2AB95E86 DUP10 MSTORE PUSH1 0x1 DUP1 PUSH1 0xA0 SHL SUB AND PUSH1 0x40 DUP9 ADD MSTORE PUSH1 0x60 DUP8 ADD MSTORE PUSH1 0x1 DUP1 PUSH1 0xA0 SHL SUB AND PUSH1 0x80 DUP7 ADD MSTORE PUSH1 0xA0 DUP6 ADD MSTORE PUSH1 0xC0 DUP5 ADD MSTORE PUSH1 0xE0 DUP4 ADD MSTORE PUSH2 0x100 DUP3 ADD MSTORE PUSH2 0x100 DUP2 MSTORE PUSH2 0x335E PUSH2 0x120 DUP3 PUSH2 0x1EFF JUMP JUMPDEST ISZERO PUSH2 0x4804 JUMPI JUMP JUMPDEST PUSH1 0x40 MLOAD PUSH3 0x461BCD PUSH1 0xE5 SHL DUP2 MSTORE PUSH1 0x20 PUSH1 0x4 DUP3 ADD MSTORE PUSH1 0x19 PUSH1 0x24 DUP3 ADD MSTORE PUSH32 0x436F6E74726163742061646472657373206D69736D6174636800000000000000 PUSH1 0x44 DUP3 ADD MSTORE PUSH1 0x64 SWAP1 REVERT JUMPDEST ISZERO PUSH2 0x4850 JUMPI JUMP JUMPDEST PUSH1 0x40 MLOAD PUSH3 0x461BCD PUSH1 0xE5 SHL DUP2 MSTORE PUSH1 0x20 PUSH1 0x4 DUP3 ADD MSTORE PUSH1 0x11 PUSH1 0x24 DUP3 ADD MSTORE PUSH17 0x82E6E6CAE840928840DAD2E6DAC2E8C6D PUSH1 0x7B SHL PUSH1 0x44 DUP3 ADD MSTORE PUSH1 0x64 SWAP1 REVERT JUMPDEST SWAP1 DUP2 CALLDATALOAD PUSH2 0x4895 DUP2 PUSH2 0x1EAB JUMP JUMPDEST DUP2 CALLDATALOAD SWAP1 PUSH2 0x48A1 DUP3 PUSH2 0x1EAB JUMP JUMPDEST PUSH1 0x4 DUP3 LT ISZERO PUSH2 0x1E9C JUMPI PUSH1 0x4 DUP2 LT ISZERO PUSH2 0x1E9C JUMPI SUB PUSH2 0x48F9 JUMPI PUSH1 0x40 DUP1 DUP4 PUSH2 0x48EE PUSH2 0x48CE PUSH1 0x20 PUSH2 0x3CE SWAP8 ADD PUSH2 0x1D3C JUMP JUMPDEST PUSH2 0x48DD PUSH2 0x11EA PUSH1 0x20 DUP9 ADD PUSH2 0x1D3C JUMP JUMPDEST PUSH1 0x1 PUSH1 0x1 PUSH1 0xA0 SHL SUB SWAP1 SWAP2 AND EQ PUSH2 0x47FD JUMP JUMPDEST ADD CALLDATALOAD SWAP2 ADD CALLDATALOAD EQ PUSH2 0x4849 JUMP JUMPDEST PUSH1 0x40 MLOAD PUSH3 0x461BCD PUSH1 0xE5 SHL DUP2 MSTORE PUSH1 0x20 PUSH1 0x4 DUP3 ADD MSTORE PUSH1 0x13 PUSH1 0x24 DUP3 ADD MSTORE PUSH19 0x82E6E6CAE840E8F2E0CA40DAD2E6DAC2E8C6D PUSH1 0x6B SHL PUSH1 0x44 DUP3 ADD MSTORE PUSH1 0x64 SWAP1 REVERT JUMPDEST DUP1 MLOAD SWAP1 PUSH1 0x4 DUP3 LT ISZERO PUSH2 0x1E9C JUMPI PUSH1 0x1 DUP1 PUSH1 0xA0 SHL SUB PUSH1 0x20 DUP3 ADD MLOAD AND SWAP1 PUSH1 0x60 PUSH1 0x40 DUP3 ADD MLOAD SWAP2 ADD MLOAD SWAP1 PUSH1 0x40 MLOAD SWAP3 PUSH2 0x4992 PUSH1 0x20 DUP6 ADD SWAP6 PUSH32 0x6E4F52E5739DBEFD226DCBEFEF0E563115BC2B92726A648E213CB8CDE30B11A6 DUP8 MSTORE PUSH1 0x40 DUP7 ADD SWAP1 PUSH2 0x2783 JUMP JUMPDEST PUSH1 0x60 DUP5 ADD MSTORE PUSH1 0x80 DUP4 ADD MSTORE PUSH1 0xA0 DUP3 ADD MSTORE PUSH1 0xA0 DUP2 MSTORE PUSH2 0x335E PUSH1 0xC0 DUP3 PUSH2 0x1EFF JUMP JUMPDEST ADDRESS PUSH32 0x0 PUSH1 0x1 PUSH1 0x1 PUSH1 0xA0 SHL SUB AND EQ DUP1 PUSH2 0x4A9D JUMPI JUMPDEST ISZERO PUSH2 0x4A0B JUMPI PUSH32 0x0 SWAP1 JUMP JUMPDEST PUSH1 0x40 MLOAD PUSH1 0x20 DUP2 ADD SWAP1 PUSH32 0x8B73C3C69BB8FE3D512ECC4CF759CC79239F7B179B0FFACAA9A75D522B39400F DUP3 MSTORE PUSH32 0x0 PUSH1 0x40 DUP3 ADD MSTORE PUSH32 0x0 PUSH1 0x60 DUP3 ADD MSTORE CHAINID PUSH1 0x80 DUP3 ADD MSTORE ADDRESS PUSH1 0xA0 DUP3 ADD MSTORE PUSH1 0xA0 DUP2 MSTORE PUSH2 0x335E PUSH1 0xC0 DUP3 PUSH2 0x1EFF JUMP JUMPDEST POP PUSH32 0x0 CHAINID EQ PUSH2 0x49E2 JUMP JUMPDEST SWAP1 PUSH1 0x41 DUP2 MLOAD EQ PUSH1 0x0 EQ PUSH2 0x4AF4 JUMPI PUSH2 0x4AF0 SWAP2 PUSH1 0x20 DUP3 ADD MLOAD SWAP1 PUSH1 0x60 PUSH1 0x40 DUP5 ADD MLOAD SWAP4 ADD MLOAD PUSH1 0x0 BYTE SWAP1 PUSH2 0x4C28 JUMP JUMPDEST SWAP1 SWAP2 JUMP JUMPDEST POP POP PUSH1 0x0 SWAP1 PUSH1 0x2 SWAP1 JUMP JUMPDEST PUSH1 0x5 GT ISZERO PUSH2 0x1E9C JUMPI JUMP JUMPDEST PUSH2 0x4B11 DUP2 PUSH2 0x4AFE JUMP JUMPDEST DUP1 PUSH2 0x4B19 JUMPI POP JUMP JUMPDEST PUSH2 0x4B22 DUP2 PUSH2 0x4AFE JUMP JUMPDEST PUSH1 0x1 DUP2 SUB PUSH2 0x4B6F JUMPI PUSH1 0x40 MLOAD PUSH3 0x461BCD PUSH1 0xE5 SHL DUP2 MSTORE PUSH1 0x20 PUSH1 0x4 DUP3 ADD MSTORE PUSH1 0x18 PUSH1 0x24 DUP3 ADD MSTORE PUSH32 0x45434453413A20696E76616C6964207369676E61747572650000000000000000 PUSH1 0x44 DUP3 ADD MSTORE PUSH1 0x64 SWAP1 REVERT JUMPDEST PUSH2 0x4B78 DUP2 PUSH2 0x4AFE JUMP JUMPDEST PUSH1 0x2 DUP2 SUB PUSH2 0x4BC5 JUMPI PUSH1 0x40 MLOAD PUSH3 0x461BCD PUSH1 0xE5 SHL DUP2 MSTORE PUSH1 0x20 PUSH1 0x4 DUP3 ADD MSTORE PUSH1 0x1F PUSH1 0x24 DUP3 ADD MSTORE PUSH32 0x45434453413A20696E76616C6964207369676E6174757265206C656E67746800 PUSH1 0x44 DUP3 ADD MSTORE PUSH1 0x64 SWAP1 REVERT JUMPDEST DUP1 PUSH2 0x4BD1 PUSH1 0x3 SWAP3 PUSH2 0x4AFE JUMP JUMPDEST EQ PUSH2 0x4BD8 JUMPI JUMP JUMPDEST PUSH1 0x40 MLOAD PUSH3 0x461BCD PUSH1 0xE5 SHL DUP2 MSTORE PUSH1 0x20 PUSH1 0x4 DUP3 ADD MSTORE PUSH1 0x22 PUSH1 0x24 DUP3 ADD MSTORE PUSH32 0x45434453413A20696E76616C6964207369676E6174757265202773272076616C PUSH1 0x44 DUP3 ADD MSTORE PUSH2 0x7565 PUSH1 0xF0 SHL PUSH1 0x64 DUP3 ADD MSTORE PUSH1 0x84 SWAP1 REVERT JUMPDEST PUSH32 0x7FFFFFFFFFFFFFFFFFFFFFFFFFFFFFFF5D576E7357A4501DDFE92F46681B20A0 DUP5 GT PUSH2 0x4C9C JUMPI PUSH1 0x20 SWAP4 PUSH1 0x0 SWAP4 PUSH1 0xFF PUSH1 0x80 SWAP5 PUSH1 0x40 MLOAD SWAP5 DUP6 MSTORE AND DUP7 DUP5 ADD MSTORE PUSH1 0x40 DUP4 ADD MSTORE PUSH1 0x60 DUP3 ADD MSTORE DUP3 DUP1 MSTORE PUSH1 0x1 GAS STATICCALL ISZERO PUSH2 0x1460 JUMPI PUSH1 0x0 MLOAD PUSH1 0x1 PUSH1 0x1 PUSH1 0xA0 SHL SUB DUP2 AND ISZERO PUSH2 0x4C93 JUMPI SWAP1 PUSH1 0x0 SWAP1 JUMP JUMPDEST POP PUSH1 0x0 SWAP1 PUSH1 0x1 SWAP1 JUMP JUMPDEST POP POP POP POP PUSH1 0x0 SWAP1 PUSH1 0x3 SWAP1 JUMP INVALID LOG2 PUSH5 0x6970667358 0x22 SLT KECCAK256 0xB8 SWAP6 SWAP6 SLT 0x24 0xB6 BASEFEE ADD PUSH29 0x40178B0BCD465F68651C39D025EE073CAC736906B692A064736F6C6343 STOP ADDMOD SHR STOP CALLER "},"methodIdentifiers":{"MAX_AUCTION_DURATION()":"3fb35178","MAX_FEE_BPS()":"d55be8c6","MIN_AUCTION_DURATION()":"c2f50a7a","MIN_BID_INCREMENT_BPS()":"14414cc0","acceptBid((uint8,((uint8,address,uint256,uint256),(uint8,address,uint256,uint256),uint256,uint256)[],address,address,bytes32,uint256,bytes),uint256,uint256)":"bc2db5c4","acceptCollectionBid((address,(uint8,address,uint256,uint256),address,uint256,uint256,uint256,uint256,bytes),uint256)":"ecf66145","assetTransferAgent()":"4715399c","auctionFinalized(bytes32)":"3a9fae7c","auctionVault()":"48a220a4","batchMatchOrders((uint8,((uint8,address,uint256,uint256),(uint8,address,uint256,uint256),uint256,uint256)[],address,address,bytes32,uint256,bytes)[],(uint8,((uint8,address,uint256,uint256),(uint8,address,uint256,uint256),uint256,uint256)[],address,address,bytes32,uint256,bytes),uint256[],bytes32[][])":"1ef1c7d2","cancelOrder((uint8,((uint8,address,uint256,uint256),(uint8,address,uint256,uint256),uint256,uint256)[],address,address,bytes32,uint256,bytes),uint256)":"a83fb54f","collectionBidFillAmount(bytes32)":"5d704aea","eip712Domain()":"84b0196e","emergencyWithdraw()":"db2e21bc","feeBps()":"24a9d853","feeRecipient()":"46904840","finalizeAuction((address,(uint8,address,uint256,uint256),uint256,uint256,uint256,uint256,uint256,bytes),bytes)":"6199d280","highestBids(bytes32)":"892987b5","isOrderCancelled((uint8,((uint8,address,uint256,uint256),(uint8,address,uint256,uint256),uint256,uint256)[],address,address,bytes32,uint256,bytes),uint256)":"2e1cbea2","isOrderFullyFilled((uint8,((uint8,address,uint256,uint256),(uint8,address,uint256,uint256),uint256,uint256)[],address,address,bytes32,uint256,bytes),uint256)":"703cebfe","matchOrders((uint8,((uint8,address,uint256,uint256),(uint8,address,uint256,uint256),uint256,uint256)[],address,address,bytes32,uint256,bytes),(uint8,((uint8,address,uint256,uint256),(uint8,address,uint256,uint256),uint256,uint256)[],address,address,bytes32,uint256,bytes),uint256,bytes32[])":"bf76c032","orderFillAmount(bytes32,uint256)":"eded1f00","owner()":"8da5cb5b","pause()":"8456cb59","paused()":"5c975abb","renounceOwnership()":"715018a6","setAssetTransferAgent(address)":"ca200ad8","setAuctionVault(address)":"36bacfd5","setFeeBps(uint256)":"72c27b62","setFeeRecipient(address)":"e74b981b","submitAuctionBid((address,(uint8,address,uint256,uint256),uint256,uint256,uint256,uint256,uint256,bytes))":"d418fc42","transferOwnership(address)":"f2fde38b","unpause()":"3f4ba83a","verifyMerkleProof(bytes32[],bytes32,bytes32)":"ada4fa18"}}}}}