{"contracts/AssetTransferAgent.sol":{"AssetTransferAgent":{"abi":[{"inputs":[],"stateMutability":"nonpayable","type":"constructor"},{"anonymous":false,"inputs":[{"indexed":true,"internalType":"address","name":"token","type":"address"},{"indexed":true,"internalType":"address","name":"from","type":"address"},{"indexed":true,"internalType":"address","name":"to","type":"address"},{"indexed":false,"internalType":"uint256[]","name":"tokenIds","type":"uint256[]"},{"indexed":false,"internalType":"uint256[]","name":"amounts","type":"uint256[]"}],"name":"ERC1155BatchTransferred","type":"event"},{"anonymous":false,"inputs":[{"indexed":true,"internalType":"address","name":"token","type":"address"},{"indexed":true,"internalType":"address","name":"from","type":"address"},{"indexed":true,"internalType":"address","name":"to","type":"address"},{"indexed":false,"internalType":"uint256","name":"tokenId","type":"uint256"},{"indexed":false,"internalType":"uint256","name":"amount","type":"uint256"}],"name":"ERC1155Transferred","type":"event"},{"anonymous":false,"inputs":[{"indexed":true,"internalType":"address","name":"token","type":"address"},{"indexed":true,"internalType":"address","name":"from","type":"address"},{"indexed":true,"internalType":"address","name":"to","type":"address"},{"indexed":false,"internalType":"uint256","name":"amount","type":"uint256"}],"name":"ERC20Transferred","type":"event"},{"anonymous":false,"inputs":[{"indexed":true,"internalType":"address","name":"token","type":"address"},{"indexed":true,"internalType":"address","name":"from","type":"address"},{"indexed":true,"internalType":"address","name":"to","type":"address"},{"indexed":false,"internalType":"uint256","name":"tokenId","type":"uint256"}],"name":"ERC721Transferred","type":"event"},{"anonymous":false,"inputs":[{"indexed":true,"internalType":"address","name":"previousOwner","type":"address"},{"indexed":true,"internalType":"address","name":"newOwner","type":"address"}],"name":"OwnershipTransferred","type":"event"},{"inputs":[],"name":"marketplace","outputs":[{"internalType":"address","name":"","type":"address"}],"stateMutability":"view","type":"function"},{"inputs":[],"name":"owner","outputs":[{"internalType":"address","name":"","type":"address"}],"stateMutability":"view","type":"function"},{"inputs":[],"name":"renounceOwnership","outputs":[],"stateMutability":"nonpayable","type":"function"},{"inputs":[{"internalType":"address","name":"_marketplace","type":"address"}],"name":"setMarketplace","outputs":[],"stateMutability":"nonpayable","type":"function"},{"inputs":[{"internalType":"address","name":"token","type":"address"},{"internalType":"address","name":"from","type":"address"},{"internalType":"address","name":"to","type":"address"},{"internalType":"uint256","name":"id","type":"uint256"},{"internalType":"uint256","name":"amount","type":"uint256"},{"internalType":"bytes","name":"data","type":"bytes"}],"name":"transferERC1155","outputs":[],"stateMutability":"nonpayable","type":"function"},{"inputs":[{"internalType":"address","name":"token","type":"address"},{"internalType":"address","name":"from","type":"address"},{"internalType":"address","name":"to","type":"address"},{"internalType":"uint256","name":"amount","type":"uint256"}],"name":"transferERC20","outputs":[],"stateMutability":"nonpayable","type":"function"},{"inputs":[{"internalType":"address","name":"token","type":"address"},{"internalType":"address","name":"from","type":"address"},{"internalType":"address","name":"to","type":"address"},{"internalType":"uint256","name":"tokenId","type":"uint256"}],"name":"transferERC721","outputs":[],"stateMutability":"nonpayable","type":"function"},{"inputs":[{"internalType":"address","name":"newOwner","type":"address"}],"name":"transferOwnership","outputs":[],"stateMutability":"nonpayable","type":"function"}],"evm":{"bytecode":{"linkReferences":{},"object":"60808060405234605a5760008054336001600160a01b0319821681178355916001600160a01b03909116907f8be0079c531659141344cd1fd0a4f28419497f9722a3daafe3b4186f6b6457e09080a361091790816100608239f35b600080fdfe6080604052600436101561001257600080fd5b6000803560e01c8063715018a61461067257806373ad6c2d146105e1578063789f93f6146104e75780638da5cb5b146104c0578063abc8c7af14610497578063da3e8ce4146102b7578063eae787dc1461013d5763f2fde38b1461007557600080fd5b3461013a57602036600319011261013a5761008e6106cc565b6100966107b9565b6001600160a01b031680156100e65781546001600160a01b03198116821783556001600160a01b03167f8be0079c531659141344cd1fd0a4f28419497f9722a3daafe3b4186f6b6457e08380a380f35b60405162461bcd60e51b815260206004820152602660248201527f4f776e61626c653a206e6577206f776e657220697320746865207a65726f206160448201526564647265737360d01b6064820152608490fd5b80fd5b503461013a5760c036600319011261013a576101576106cc565b6024356001600160a01b038116908190036102ab576044356001600160a01b03811692908390036102b3576064356084358560a43567ffffffffffffffff81116102af57366023820112156102af5780600401359467ffffffffffffffff86116102ab5736602487840101116102ab576101dc60018060a01b03600154163314610735565b6001600160a01b031694853b156102ab578760c48883869460246040519788968795637921219560e11b87526004870152828601528b60448601528a606486015260a060848601528260a486015201848401378181018301859052601f01601f1916810103018183895af180156102a057610287575b50507fc9e961ede50ae118725ee30349faceaa91b11400bcd9e190dd3d2a5ad1da6b869160409182519182526020820152a480f35b8161029191610781565b61029c578538610252565b8580fd5b6040513d84823e3d90fd5b8280fd5b5080fd5b8380fd5b503461013a576102c6366106e7565b91926102dd60018060a01b03600154163314610735565b6040516323b872dd60e01b602082019081526001600160a01b03868116602484015284811660448401526064808401879052835292909216929190610323608482610781565b86806040938451936103358686610781565b602085527f5361666545524332303a206c6f772d6c6576656c2063616c6c206661696c65646020860152519082885af13d1561048a573d9067ffffffffffffffff82116104765783516103aa939290919061039a601f8201601f191660200184610781565b82523d8a602084013e5b86610811565b805190811591821561044f575b5050156103f957519283526001600160a01b039081169316917f8dfac83616afc4a99a89fe63243ae807798d10eb5a1449e5472853efc3c022cf90602090a480f35b5162461bcd60e51b815260206004820152602a60248201527f5361666545524332303a204552433230206f7065726174696f6e20646964206e6044820152691bdd081cdd58d8d9595960b21b6064820152608490fd5b8192509060209181010312610472576020015180151581036104725738806103b7565b8680fd5b634e487b7160e01b89526041600452602489fd5b906103aa916060906103a4565b503461013a578060031936011261013a576001546040516001600160a01b039091168152602090f35b503461013a578060031936011261013a57546040516001600160a01b039091168152602090f35b503461013a576104f6366106e7565b919261050d60018060a01b03600154163314610735565b6001600160a01b031690813b156105dd57604051632142170760e11b81526001600160a01b0385811660048301528216602482015260448101849052858160648183875af180156105d25761059b575b506040519283526001600160a01b039081169316917f0d51cb9153ff678c00c10a9a9365be8d1dce6eb4d8a0181a613da760afda4e2890602090a480f35b856105ca7f0d51cb9153ff678c00c10a9a9365be8d1dce6eb4d8a0181a613da760afda4e289397602093610781565b95915061055d565b6040513d88823e3d90fd5b8480fd5b503461013a57602036600319011261013a576105fb6106cc565b6106036107b9565b6001600160a01b0316801561062d576bffffffffffffffffffffffff60a01b600154161760015580f35b60405162461bcd60e51b815260206004820152601b60248201527f496e76616c6964206d61726b6574706c616365206164647265737300000000006044820152606490fd5b503461013a578060031936011261013a5761068b6107b9565b80546001600160a01b03198116825581906001600160a01b03167f8be0079c531659141344cd1fd0a4f28419497f9722a3daafe3b4186f6b6457e08280a380f35b600435906001600160a01b03821682036106e257565b600080fd5b60809060031901126106e2576004356001600160a01b03811681036106e257906024356001600160a01b03811681036106e257906044356001600160a01b03811681036106e2579060643590565b1561073c57565b60405162461bcd60e51b815260206004820152601960248201527f4f6e6c79206d61726b6574706c6163652063616e2063616c6c000000000000006044820152606490fd5b90601f8019910116810190811067ffffffffffffffff8211176107a357604052565b634e487b7160e01b600052604160045260246000fd5b6000546001600160a01b031633036107cd57565b606460405162461bcd60e51b815260206004820152602060248201527f4f776e61626c653a2063616c6c6572206973206e6f7420746865206f776e65726044820152fd5b919290156108735750815115610825575090565b3b1561082e5790565b60405162461bcd60e51b815260206004820152601d60248201527f416464726573733a2063616c6c20746f206e6f6e2d636f6e74726163740000006044820152606490fd5b8251909150156108865750805190602001fd5b6040519062461bcd60e51b8252602060048301528181519182602483015260005b8381106108c95750508160006044809484010152601f80199101168101030190fd5b602082820181015160448784010152859350016108a756fea264697066735822122024ec2bd4625aa7cd17fab12780e0e498671d3df9b2d37d37293db04e695f7f8b64736f6c634300081c0033","opcodes":"PUSH1 0x80 DUP1 PUSH1 0x40 MSTORE CALLVALUE PUSH1 0x5A JUMPI PUSH1 0x0 DUP1 SLOAD CALLER PUSH1 0x1 PUSH1 0x1 PUSH1 0xA0 SHL SUB NOT DUP3 AND DUP2 OR DUP4 SSTORE SWAP2 PUSH1 0x1 PUSH1 0x1 PUSH1 0xA0 SHL SUB SWAP1 SWAP2 AND SWAP1 PUSH32 0x8BE0079C531659141344CD1FD0A4F28419497F9722A3DAAFE3B4186F6B6457E0 SWAP1 DUP1 LOG3 PUSH2 0x917 SWAP1 DUP2 PUSH2 0x60 DUP3 CODECOPY RETURN JUMPDEST PUSH1 0x0 DUP1 REVERT INVALID PUSH1 0x80 PUSH1 0x40 MSTORE PUSH1 0x4 CALLDATASIZE LT ISZERO PUSH2 0x12 JUMPI PUSH1 0x0 DUP1 REVERT JUMPDEST PUSH1 0x0 DUP1 CALLDATALOAD PUSH1 0xE0 SHR DUP1 PUSH4 0x715018A6 EQ PUSH2 0x672 JUMPI DUP1 PUSH4 0x73AD6C2D EQ PUSH2 0x5E1 JUMPI DUP1 PUSH4 0x789F93F6 EQ PUSH2 0x4E7 JUMPI DUP1 PUSH4 0x8DA5CB5B EQ PUSH2 0x4C0 JUMPI DUP1 PUSH4 0xABC8C7AF EQ PUSH2 0x497 JUMPI DUP1 PUSH4 0xDA3E8CE4 EQ PUSH2 0x2B7 JUMPI DUP1 PUSH4 0xEAE787DC EQ PUSH2 0x13D JUMPI PUSH4 0xF2FDE38B EQ PUSH2 0x75 JUMPI PUSH1 0x0 DUP1 REVERT JUMPDEST CALLVALUE PUSH2 0x13A JUMPI PUSH1 0x20 CALLDATASIZE PUSH1 0x3 NOT ADD SLT PUSH2 0x13A JUMPI PUSH2 0x8E PUSH2 0x6CC JUMP JUMPDEST PUSH2 0x96 PUSH2 0x7B9 JUMP JUMPDEST PUSH1 0x1 PUSH1 0x1 PUSH1 0xA0 SHL SUB AND DUP1 ISZERO PUSH2 0xE6 JUMPI DUP2 SLOAD PUSH1 0x1 PUSH1 0x1 PUSH1 0xA0 SHL SUB NOT DUP2 AND DUP3 OR DUP4 SSTORE PUSH1 0x1 PUSH1 0x1 PUSH1 0xA0 SHL SUB AND PUSH32 0x8BE0079C531659141344CD1FD0A4F28419497F9722A3DAAFE3B4186F6B6457E0 DUP4 DUP1 LOG3 DUP1 RETURN JUMPDEST PUSH1 0x40 MLOAD PUSH3 0x461BCD PUSH1 0xE5 SHL DUP2 MSTORE PUSH1 0x20 PUSH1 0x4 DUP3 ADD MSTORE PUSH1 0x26 PUSH1 0x24 DUP3 ADD MSTORE PUSH32 0x4F776E61626C653A206E6577206F776E657220697320746865207A65726F2061 PUSH1 0x44 DUP3 ADD MSTORE PUSH6 0x646472657373 PUSH1 0xD0 SHL PUSH1 0x64 DUP3 ADD MSTORE PUSH1 0x84 SWAP1 REVERT JUMPDEST DUP1 REVERT JUMPDEST POP CALLVALUE PUSH2 0x13A JUMPI PUSH1 0xC0 CALLDATASIZE PUSH1 0x3 NOT ADD SLT PUSH2 0x13A JUMPI PUSH2 0x157 PUSH2 0x6CC JUMP JUMPDEST PUSH1 0x24 CALLDATALOAD PUSH1 0x1 PUSH1 0x1 PUSH1 0xA0 SHL SUB DUP2 AND SWAP1 DUP2 SWAP1 SUB PUSH2 0x2AB JUMPI PUSH1 0x44 CALLDATALOAD PUSH1 0x1 PUSH1 0x1 PUSH1 0xA0 SHL SUB DUP2 AND SWAP3 SWAP1 DUP4 SWAP1 SUB PUSH2 0x2B3 JUMPI PUSH1 0x64 CALLDATALOAD PUSH1 0x84 CALLDATALOAD DUP6 PUSH1 0xA4 CALLDATALOAD PUSH8 0xFFFFFFFFFFFFFFFF DUP2 GT PUSH2 0x2AF JUMPI CALLDATASIZE PUSH1 0x23 DUP3 ADD SLT ISZERO PUSH2 0x2AF JUMPI DUP1 PUSH1 0x4 ADD CALLDATALOAD SWAP5 PUSH8 0xFFFFFFFFFFFFFFFF DUP7 GT PUSH2 0x2AB JUMPI CALLDATASIZE PUSH1 0x24 DUP8 DUP5 ADD ADD GT PUSH2 0x2AB JUMPI PUSH2 0x1DC PUSH1 0x1 DUP1 PUSH1 0xA0 SHL SUB PUSH1 0x1 SLOAD AND CALLER EQ PUSH2 0x735 JUMP JUMPDEST PUSH1 0x1 PUSH1 0x1 PUSH1 0xA0 SHL SUB AND SWAP5 DUP6 EXTCODESIZE ISZERO PUSH2 0x2AB JUMPI DUP8 PUSH1 0xC4 DUP9 DUP4 DUP7 SWAP5 PUSH1 0x24 PUSH1 0x40 MLOAD SWAP8 DUP9 SWAP7 DUP8 SWAP6 PUSH4 0x79212195 PUSH1 0xE1 SHL DUP8 MSTORE PUSH1 0x4 DUP8 ADD MSTORE DUP3 DUP7 ADD MSTORE DUP12 PUSH1 0x44 DUP7 ADD MSTORE DUP11 PUSH1 0x64 DUP7 ADD MSTORE PUSH1 0xA0 PUSH1 0x84 DUP7 ADD MSTORE DUP3 PUSH1 0xA4 DUP7 ADD MSTORE ADD DUP5 DUP5 ADD CALLDATACOPY DUP2 DUP2 ADD DUP4 ADD DUP6 SWAP1 MSTORE PUSH1 0x1F ADD PUSH1 0x1F NOT AND DUP2 ADD SUB ADD DUP2 DUP4 DUP10 GAS CALL DUP1 ISZERO PUSH2 0x2A0 JUMPI PUSH2 0x287 JUMPI JUMPDEST POP POP PUSH32 0xC9E961EDE50AE118725EE30349FACEAA91B11400BCD9E190DD3D2A5AD1DA6B86 SWAP2 PUSH1 0x40 SWAP2 DUP3 MLOAD SWAP2 DUP3 MSTORE PUSH1 0x20 DUP3 ADD MSTORE LOG4 DUP1 RETURN JUMPDEST DUP2 PUSH2 0x291 SWAP2 PUSH2 0x781 JUMP JUMPDEST PUSH2 0x29C JUMPI DUP6 CODESIZE PUSH2 0x252 JUMP JUMPDEST DUP6 DUP1 REVERT JUMPDEST PUSH1 0x40 MLOAD RETURNDATASIZE DUP5 DUP3 RETURNDATACOPY RETURNDATASIZE SWAP1 REVERT JUMPDEST DUP3 DUP1 REVERT JUMPDEST POP DUP1 REVERT JUMPDEST DUP4 DUP1 REVERT JUMPDEST POP CALLVALUE PUSH2 0x13A JUMPI PUSH2 0x2C6 CALLDATASIZE PUSH2 0x6E7 JUMP JUMPDEST SWAP2 SWAP3 PUSH2 0x2DD PUSH1 0x1 DUP1 PUSH1 0xA0 SHL SUB PUSH1 0x1 SLOAD AND CALLER EQ PUSH2 0x735 JUMP JUMPDEST PUSH1 0x40 MLOAD PUSH4 0x23B872DD PUSH1 0xE0 SHL PUSH1 0x20 DUP3 ADD SWAP1 DUP2 MSTORE PUSH1 0x1 PUSH1 0x1 PUSH1 0xA0 SHL SUB DUP7 DUP2 AND PUSH1 0x24 DUP5 ADD MSTORE DUP5 DUP2 AND PUSH1 0x44 DUP5 ADD MSTORE PUSH1 0x64 DUP1 DUP5 ADD DUP8 SWAP1 MSTORE DUP4 MSTORE SWAP3 SWAP1 SWAP3 AND SWAP3 SWAP2 SWAP1 PUSH2 0x323 PUSH1 0x84 DUP3 PUSH2 0x781 JUMP JUMPDEST DUP7 DUP1 PUSH1 0x40 SWAP4 DUP5 MLOAD SWAP4 PUSH2 0x335 DUP7 DUP7 PUSH2 0x781 JUMP JUMPDEST PUSH1 0x20 DUP6 MSTORE PUSH32 0x5361666545524332303A206C6F772D6C6576656C2063616C6C206661696C6564 PUSH1 0x20 DUP7 ADD MSTORE MLOAD SWAP1 DUP3 DUP9 GAS CALL RETURNDATASIZE ISZERO PUSH2 0x48A JUMPI RETURNDATASIZE SWAP1 PUSH8 0xFFFFFFFFFFFFFFFF DUP3 GT PUSH2 0x476 JUMPI DUP4 MLOAD PUSH2 0x3AA SWAP4 SWAP3 SWAP1 SWAP2 SWAP1 PUSH2 0x39A PUSH1 0x1F DUP3 ADD PUSH1 0x1F NOT AND PUSH1 0x20 ADD DUP5 PUSH2 0x781 JUMP JUMPDEST DUP3 MSTORE RETURNDATASIZE DUP11 PUSH1 0x20 DUP5 ADD RETURNDATACOPY JUMPDEST DUP7 PUSH2 0x811 JUMP JUMPDEST DUP1 MLOAD SWAP1 DUP2 ISZERO SWAP2 DUP3 ISZERO PUSH2 0x44F JUMPI JUMPDEST POP POP ISZERO PUSH2 0x3F9 JUMPI MLOAD SWAP3 DUP4 MSTORE PUSH1 0x1 PUSH1 0x1 PUSH1 0xA0 SHL SUB SWAP1 DUP2 AND SWAP4 AND SWAP2 PUSH32 0x8DFAC83616AFC4A99A89FE63243AE807798D10EB5A1449E5472853EFC3C022CF SWAP1 PUSH1 0x20 SWAP1 LOG4 DUP1 RETURN JUMPDEST MLOAD PUSH3 0x461BCD PUSH1 0xE5 SHL DUP2 MSTORE PUSH1 0x20 PUSH1 0x4 DUP3 ADD MSTORE PUSH1 0x2A PUSH1 0x24 DUP3 ADD MSTORE PUSH32 0x5361666545524332303A204552433230206F7065726174696F6E20646964206E PUSH1 0x44 DUP3 ADD MSTORE PUSH10 0x1BDD081CDD58D8D95959 PUSH1 0xB2 SHL PUSH1 0x64 DUP3 ADD MSTORE PUSH1 0x84 SWAP1 REVERT JUMPDEST DUP2 SWAP3 POP SWAP1 PUSH1 0x20 SWAP2 DUP2 ADD SUB SLT PUSH2 0x472 JUMPI PUSH1 0x20 ADD MLOAD DUP1 ISZERO ISZERO DUP2 SUB PUSH2 0x472 JUMPI CODESIZE DUP1 PUSH2 0x3B7 JUMP JUMPDEST DUP7 DUP1 REVERT JUMPDEST PUSH4 0x4E487B71 PUSH1 0xE0 SHL DUP10 MSTORE PUSH1 0x41 PUSH1 0x4 MSTORE PUSH1 0x24 DUP10 REVERT JUMPDEST SWAP1 PUSH2 0x3AA SWAP2 PUSH1 0x60 SWAP1 PUSH2 0x3A4 JUMP JUMPDEST POP CALLVALUE PUSH2 0x13A JUMPI DUP1 PUSH1 0x3 NOT CALLDATASIZE ADD SLT PUSH2 0x13A JUMPI PUSH1 0x1 SLOAD PUSH1 0x40 MLOAD PUSH1 0x1 PUSH1 0x1 PUSH1 0xA0 SHL SUB SWAP1 SWAP2 AND DUP2 MSTORE PUSH1 0x20 SWAP1 RETURN JUMPDEST POP CALLVALUE PUSH2 0x13A JUMPI DUP1 PUSH1 0x3 NOT CALLDATASIZE ADD SLT PUSH2 0x13A JUMPI SLOAD PUSH1 0x40 MLOAD PUSH1 0x1 PUSH1 0x1 PUSH1 0xA0 SHL SUB SWAP1 SWAP2 AND DUP2 MSTORE PUSH1 0x20 SWAP1 RETURN JUMPDEST POP CALLVALUE PUSH2 0x13A JUMPI PUSH2 0x4F6 CALLDATASIZE PUSH2 0x6E7 JUMP JUMPDEST SWAP2 SWAP3 PUSH2 0x50D PUSH1 0x1 DUP1 PUSH1 0xA0 SHL SUB PUSH1 0x1 SLOAD AND CALLER EQ PUSH2 0x735 JUMP JUMPDEST PUSH1 0x1 PUSH1 0x1 PUSH1 0xA0 SHL SUB AND SWAP1 DUP2 EXTCODESIZE ISZERO PUSH2 0x5DD JUMPI PUSH1 0x40 MLOAD PUSH4 0x21421707 PUSH1 0xE1 SHL DUP2 MSTORE PUSH1 0x1 PUSH1 0x1 PUSH1 0xA0 SHL SUB DUP6 DUP2 AND PUSH1 0x4 DUP4 ADD MSTORE DUP3 AND PUSH1 0x24 DUP3 ADD MSTORE PUSH1 0x44 DUP2 ADD DUP5 SWAP1 MSTORE DUP6 DUP2 PUSH1 0x64 DUP2 DUP4 DUP8 GAS CALL DUP1 ISZERO PUSH2 0x5D2 JUMPI PUSH2 0x59B JUMPI JUMPDEST POP PUSH1 0x40 MLOAD SWAP3 DUP4 MSTORE PUSH1 0x1 PUSH1 0x1 PUSH1 0xA0 SHL SUB SWAP1 DUP2 AND SWAP4 AND SWAP2 PUSH32 0xD51CB9153FF678C00C10A9A9365BE8D1DCE6EB4D8A0181A613DA760AFDA4E28 SWAP1 PUSH1 0x20 SWAP1 LOG4 DUP1 RETURN JUMPDEST DUP6 PUSH2 0x5CA PUSH32 0xD51CB9153FF678C00C10A9A9365BE8D1DCE6EB4D8A0181A613DA760AFDA4E28 SWAP4 SWAP8 PUSH1 0x20 SWAP4 PUSH2 0x781 JUMP JUMPDEST SWAP6 SWAP2 POP PUSH2 0x55D JUMP JUMPDEST PUSH1 0x40 MLOAD RETURNDATASIZE DUP9 DUP3 RETURNDATACOPY RETURNDATASIZE SWAP1 REVERT JUMPDEST DUP5 DUP1 REVERT JUMPDEST POP CALLVALUE PUSH2 0x13A JUMPI PUSH1 0x20 CALLDATASIZE PUSH1 0x3 NOT ADD SLT PUSH2 0x13A JUMPI PUSH2 0x5FB PUSH2 0x6CC JUMP JUMPDEST PUSH2 0x603 PUSH2 0x7B9 JUMP JUMPDEST PUSH1 0x1 PUSH1 0x1 PUSH1 0xA0 SHL SUB AND DUP1 ISZERO PUSH2 0x62D JUMPI PUSH12 0xFFFFFFFFFFFFFFFFFFFFFFFF PUSH1 0xA0 SHL PUSH1 0x1 SLOAD AND OR PUSH1 0x1 SSTORE DUP1 RETURN JUMPDEST PUSH1 0x40 MLOAD PUSH3 0x461BCD PUSH1 0xE5 SHL DUP2 MSTORE PUSH1 0x20 PUSH1 0x4 DUP3 ADD MSTORE PUSH1 0x1B PUSH1 0x24 DUP3 ADD MSTORE PUSH32 0x496E76616C6964206D61726B6574706C61636520616464726573730000000000 PUSH1 0x44 DUP3 ADD MSTORE PUSH1 0x64 SWAP1 REVERT JUMPDEST POP CALLVALUE PUSH2 0x13A JUMPI DUP1 PUSH1 0x3 NOT CALLDATASIZE ADD SLT PUSH2 0x13A JUMPI PUSH2 0x68B PUSH2 0x7B9 JUMP JUMPDEST DUP1 SLOAD PUSH1 0x1 PUSH1 0x1 PUSH1 0xA0 SHL SUB NOT DUP2 AND DUP3 SSTORE DUP2 SWAP1 PUSH1 0x1 PUSH1 0x1 PUSH1 0xA0 SHL SUB AND PUSH32 0x8BE0079C531659141344CD1FD0A4F28419497F9722A3DAAFE3B4186F6B6457E0 DUP3 DUP1 LOG3 DUP1 RETURN JUMPDEST PUSH1 0x4 CALLDATALOAD SWAP1 PUSH1 0x1 PUSH1 0x1 PUSH1 0xA0 SHL SUB DUP3 AND DUP3 SUB PUSH2 0x6E2 JUMPI JUMP JUMPDEST PUSH1 0x0 DUP1 REVERT JUMPDEST PUSH1 0x80 SWAP1 PUSH1 0x3 NOT ADD SLT PUSH2 0x6E2 JUMPI PUSH1 0x4 CALLDATALOAD PUSH1 0x1 PUSH1 0x1 PUSH1 0xA0 SHL SUB DUP2 AND DUP2 SUB PUSH2 0x6E2 JUMPI SWAP1 PUSH1 0x24 CALLDATALOAD PUSH1 0x1 PUSH1 0x1 PUSH1 0xA0 SHL SUB DUP2 AND DUP2 SUB PUSH2 0x6E2 JUMPI SWAP1 PUSH1 0x44 CALLDATALOAD PUSH1 0x1 PUSH1 0x1 PUSH1 0xA0 SHL SUB DUP2 AND DUP2 SUB PUSH2 0x6E2 JUMPI SWAP1 PUSH1 0x64 CALLDATALOAD SWAP1 JUMP JUMPDEST ISZERO PUSH2 0x73C JUMPI JUMP JUMPDEST PUSH1 0x40 MLOAD PUSH3 0x461BCD PUSH1 0xE5 SHL DUP2 MSTORE PUSH1 0x20 PUSH1 0x4 DUP3 ADD MSTORE PUSH1 0x19 PUSH1 0x24 DUP3 ADD MSTORE PUSH32 0x4F6E6C79206D61726B6574706C6163652063616E2063616C6C00000000000000 PUSH1 0x44 DUP3 ADD MSTORE PUSH1 0x64 SWAP1 REVERT JUMPDEST SWAP1 PUSH1 0x1F DUP1 NOT SWAP2 ADD AND DUP2 ADD SWAP1 DUP2 LT PUSH8 0xFFFFFFFFFFFFFFFF DUP3 GT OR PUSH2 0x7A3 JUMPI PUSH1 0x40 MSTORE JUMP JUMPDEST PUSH4 0x4E487B71 PUSH1 0xE0 SHL PUSH1 0x0 MSTORE PUSH1 0x41 PUSH1 0x4 MSTORE PUSH1 0x24 PUSH1 0x0 REVERT JUMPDEST PUSH1 0x0 SLOAD PUSH1 0x1 PUSH1 0x1 PUSH1 0xA0 SHL SUB AND CALLER SUB PUSH2 0x7CD JUMPI JUMP JUMPDEST PUSH1 0x64 PUSH1 0x40 MLOAD PUSH3 0x461BCD PUSH1 0xE5 SHL DUP2 MSTORE PUSH1 0x20 PUSH1 0x4 DUP3 ADD MSTORE PUSH1 0x20 PUSH1 0x24 DUP3 ADD MSTORE PUSH32 0x4F776E61626C653A2063616C6C6572206973206E6F7420746865206F776E6572 PUSH1 0x44 DUP3 ADD MSTORE REVERT JUMPDEST SWAP2 SWAP3 SWAP1 ISZERO PUSH2 0x873 JUMPI POP DUP2 MLOAD ISZERO PUSH2 0x825 JUMPI POP SWAP1 JUMP JUMPDEST EXTCODESIZE ISZERO PUSH2 0x82E JUMPI SWAP1 JUMP JUMPDEST PUSH1 0x40 MLOAD PUSH3 0x461BCD PUSH1 0xE5 SHL DUP2 MSTORE PUSH1 0x20 PUSH1 0x4 DUP3 ADD MSTORE PUSH1 0x1D PUSH1 0x24 DUP3 ADD MSTORE PUSH32 0x416464726573733A2063616C6C20746F206E6F6E2D636F6E7472616374000000 PUSH1 0x44 DUP3 ADD MSTORE PUSH1 0x64 SWAP1 REVERT JUMPDEST DUP3 MLOAD SWAP1 SWAP2 POP ISZERO PUSH2 0x886 JUMPI POP DUP1 MLOAD SWAP1 PUSH1 0x20 ADD REVERT JUMPDEST PUSH1 0x40 MLOAD SWAP1 PUSH3 0x461BCD PUSH1 0xE5 SHL DUP3 MSTORE PUSH1 0x20 PUSH1 0x4 DUP4 ADD MSTORE DUP2 DUP2 MLOAD SWAP2 DUP3 PUSH1 0x24 DUP4 ADD MSTORE PUSH1 0x0 JUMPDEST DUP4 DUP2 LT PUSH2 0x8C9 JUMPI POP POP DUP2 PUSH1 0x0 PUSH1 0x44 DUP1 SWAP5 DUP5 ADD ADD MSTORE PUSH1 0x1F DUP1 NOT SWAP2 ADD AND DUP2 ADD SUB ADD SWAP1 REVERT JUMPDEST PUSH1 0x20 DUP3 DUP3 ADD DUP2 ADD MLOAD PUSH1 0x44 DUP8 DUP5 ADD ADD MSTORE DUP6 SWAP4 POP ADD PUSH2 0x8A7 JUMP INVALID LOG2 PUSH5 0x6970667358 0x22 SLT KECCAK256 0x24 0xEC 0x2B 0xD4 PUSH3 0x5AA7CD OR STATICCALL 0xB1 0x27 DUP1 0xE0 0xE4 SWAP9 PUSH8 0x1D3DF9B2D37D3729 RETURNDATASIZE 0xB0 0x4E PUSH10 0x5F7F8B64736F6C634300 ADDMOD SHR STOP CALLER "},"methodIdentifiers":{"marketplace()":"abc8c7af","owner()":"8da5cb5b","renounceOwnership()":"715018a6","setMarketplace(address)":"73ad6c2d","transferERC1155(address,address,address,uint256,uint256,bytes)":"eae787dc","transferERC20(address,address,address,uint256)":"da3e8ce4","transferERC721(address,address,address,uint256)":"789f93f6","transferOwnership(address)":"f2fde38b"}}}}}