{"contracts/Marketplace.sol":{"Marketplace":{"abi":[{"inputs":[{"internalType":"address","name":"_feeRecipient","type":"address"},{"internalType":"address","name":"_assetTransferAgent","type":"address"},{"internalType":"uint256","name":"_feeBps","type":"uint256"}],"stateMutability":"nonpayable","type":"constructor"},{"inputs":[],"name":"InvalidShortString","type":"error"},{"inputs":[{"internalType":"string","name":"str","type":"string"}],"name":"StringTooLong","type":"error"},{"anonymous":false,"inputs":[{"indexed":true,"internalType":"bytes32","name":"orderHash","type":"bytes32"}],"name":"CancelOrder","type":"event"},{"anonymous":false,"inputs":[],"name":"EIP712DomainChanged","type":"event"},{"anonymous":false,"inputs":[{"indexed":true,"internalType":"bytes32","name":"orderHash","type":"bytes32"},{"indexed":true,"internalType":"address","name":"maker","type":"address"},{"indexed":true,"internalType":"address","name":"taker","type":"address"},{"indexed":false,"internalType":"uint256","name":"fillAmount","type":"uint256"}],"name":"OrderMatched","type":"event"},{"anonymous":false,"inputs":[{"indexed":true,"internalType":"address","name":"previousOwner","type":"address"},{"indexed":true,"internalType":"address","name":"newOwner","type":"address"}],"name":"OwnershipTransferred","type":"event"},{"inputs":[],"name":"MAX_FEE_BPS","outputs":[{"internalType":"uint256","name":"","type":"uint256"}],"stateMutability":"view","type":"function"},{"inputs":[{"components":[{"internalType":"enum LibOrder.OrderType","name":"orderType","type":"uint8"},{"components":[{"components":[{"internalType":"enum LibAsset.AssetType","name":"assetType","type":"uint8"},{"internalType":"address","name":"contractAddress","type":"address"},{"internalType":"uint256","name":"assetId","type":"uint256"},{"internalType":"uint256","name":"assetAmount","type":"uint256"}],"internalType":"struct LibAsset.Asset","name":"makeAsset","type":"tuple"},{"components":[{"internalType":"enum LibAsset.AssetType","name":"assetType","type":"uint8"},{"internalType":"address","name":"contractAddress","type":"address"},{"internalType":"uint256","name":"assetId","type":"uint256"},{"internalType":"uint256","name":"assetAmount","type":"uint256"}],"internalType":"struct LibAsset.Asset","name":"takeAsset","type":"tuple"},{"internalType":"uint256","name":"start","type":"uint256"},{"internalType":"uint256","name":"end","type":"uint256"}],"internalType":"struct LibOrder.OrderItem[]","name":"items","type":"tuple[]"},{"internalType":"address","name":"maker","type":"address"},{"internalType":"address","name":"taker","type":"address"},{"internalType":"bytes32","name":"root","type":"bytes32"},{"internalType":"uint256","name":"salt","type":"uint256"},{"internalType":"bytes","name":"signature","type":"bytes"}],"internalType":"struct LibOrder.Order","name":"bidOrder","type":"tuple"},{"internalType":"uint256","name":"orderItemIndex","type":"uint256"},{"internalType":"uint256","name":"sellAmount","type":"uint256"}],"name":"acceptBid","outputs":[],"stateMutability":"payable","type":"function"},{"inputs":[],"name":"assetTransferAgent","outputs":[{"internalType":"address","name":"","type":"address"}],"stateMutability":"view","type":"function"},{"inputs":[{"components":[{"internalType":"enum LibOrder.OrderType","name":"orderType","type":"uint8"},{"components":[{"components":[{"internalType":"enum LibAsset.AssetType","name":"assetType","type":"uint8"},{"internalType":"address","name":"contractAddress","type":"address"},{"internalType":"uint256","name":"assetId","type":"uint256"},{"internalType":"uint256","name":"assetAmount","type":"uint256"}],"internalType":"struct LibAsset.Asset","name":"makeAsset","type":"tuple"},{"components":[{"internalType":"enum LibAsset.AssetType","name":"assetType","type":"uint8"},{"internalType":"address","name":"contractAddress","type":"address"},{"internalType":"uint256","name":"assetId","type":"uint256"},{"internalType":"uint256","name":"assetAmount","type":"uint256"}],"internalType":"struct LibAsset.Asset","name":"takeAsset","type":"tuple"},{"internalType":"uint256","name":"start","type":"uint256"},{"internalType":"uint256","name":"end","type":"uint256"}],"internalType":"struct LibOrder.OrderItem[]","name":"items","type":"tuple[]"},{"internalType":"address","name":"maker","type":"address"},{"internalType":"address","name":"taker","type":"address"},{"internalType":"bytes32","name":"root","type":"bytes32"},{"internalType":"uint256","name":"salt","type":"uint256"},{"internalType":"bytes","name":"signature","type":"bytes"}],"internalType":"struct LibOrder.Order[]","name":"makerOrders","type":"tuple[]"},{"components":[{"internalType":"enum LibOrder.OrderType","name":"orderType","type":"uint8"},{"components":[{"components":[{"internalType":"enum LibAsset.AssetType","name":"assetType","type":"uint8"},{"internalType":"address","name":"contractAddress","type":"address"},{"internalType":"uint256","name":"assetId","type":"uint256"},{"internalType":"uint256","name":"assetAmount","type":"uint256"}],"internalType":"struct LibAsset.Asset","name":"makeAsset","type":"tuple"},{"components":[{"internalType":"enum LibAsset.AssetType","name":"assetType","type":"uint8"},{"internalType":"address","name":"contractAddress","type":"address"},{"internalType":"uint256","name":"assetId","type":"uint256"},{"internalType":"uint256","name":"assetAmount","type":"uint256"}],"internalType":"struct LibAsset.Asset","name":"takeAsset","type":"tuple"},{"internalType":"uint256","name":"start","type":"uint256"},{"internalType":"uint256","name":"end","type":"uint256"}],"internalType":"struct LibOrder.OrderItem[]","name":"items","type":"tuple[]"},{"internalType":"address","name":"maker","type":"address"},{"internalType":"address","name":"taker","type":"address"},{"internalType":"bytes32","name":"root","type":"bytes32"},{"internalType":"uint256","name":"salt","type":"uint256"},{"internalType":"bytes","name":"signature","type":"bytes"}],"internalType":"struct LibOrder.Order","name":"takerOrder","type":"tuple"},{"internalType":"uint256[]","name":"orderItemIndices","type":"uint256[]"},{"internalType":"bytes32[][]","name":"proofs","type":"bytes32[][]"}],"name":"batchMatchOrders","outputs":[],"stateMutability":"payable","type":"function"},{"inputs":[{"components":[{"internalType":"enum LibOrder.OrderType","name":"orderType","type":"uint8"},{"components":[{"components":[{"internalType":"enum LibAsset.AssetType","name":"assetType","type":"uint8"},{"internalType":"address","name":"contractAddress","type":"address"},{"internalType":"uint256","name":"assetId","type":"uint256"},{"internalType":"uint256","name":"assetAmount","type":"uint256"}],"internalType":"struct LibAsset.Asset","name":"makeAsset","type":"tuple"},{"components":[{"internalType":"enum LibAsset.AssetType","name":"assetType","type":"uint8"},{"internalType":"address","name":"contractAddress","type":"address"},{"internalType":"uint256","name":"assetId","type":"uint256"},{"internalType":"uint256","name":"assetAmount","type":"uint256"}],"internalType":"struct LibAsset.Asset","name":"takeAsset","type":"tuple"},{"internalType":"uint256","name":"start","type":"uint256"},{"internalType":"uint256","name":"end","type":"uint256"}],"internalType":"struct LibOrder.OrderItem[]","name":"items","type":"tuple[]"},{"internalType":"address","name":"maker","type":"address"},{"internalType":"address","name":"taker","type":"address"},{"internalType":"bytes32","name":"root","type":"bytes32"},{"internalType":"uint256","name":"salt","type":"uint256"},{"internalType":"bytes","name":"signature","type":"bytes"}],"internalType":"struct LibOrder.Order","name":"order","type":"tuple"},{"internalType":"uint256","name":"orderItemIndex","type":"uint256"}],"name":"cancelOrder","outputs":[],"stateMutability":"nonpayable","type":"function"},{"inputs":[],"name":"eip712Domain","outputs":[{"internalType":"bytes1","name":"fields","type":"bytes1"},{"internalType":"string","name":"name","type":"string"},{"internalType":"string","name":"version","type":"string"},{"internalType":"uint256","name":"chainId","type":"uint256"},{"internalType":"address","name":"verifyingContract","type":"address"},{"internalType":"bytes32","name":"salt","type":"bytes32"},{"internalType":"uint256[]","name":"extensions","type":"uint256[]"}],"stateMutability":"view","type":"function"},{"inputs":[],"name":"feeBps","outputs":[{"internalType":"uint256","name":"","type":"uint256"}],"stateMutability":"view","type":"function"},{"inputs":[],"name":"feeRecipient","outputs":[{"internalType":"address","name":"","type":"address"}],"stateMutability":"view","type":"function"},{"inputs":[{"components":[{"internalType":"enum LibOrder.OrderType","name":"orderType","type":"uint8"},{"components":[{"components":[{"internalType":"enum LibAsset.AssetType","name":"assetType","type":"uint8"},{"internalType":"address","name":"contractAddress","type":"address"},{"internalType":"uint256","name":"assetId","type":"uint256"},{"internalType":"uint256","name":"assetAmount","type":"uint256"}],"internalType":"struct LibAsset.Asset","name":"makeAsset","type":"tuple"},{"components":[{"internalType":"enum LibAsset.AssetType","name":"assetType","type":"uint8"},{"internalType":"address","name":"contractAddress","type":"address"},{"internalType":"uint256","name":"assetId","type":"uint256"},{"internalType":"uint256","name":"assetAmount","type":"uint256"}],"internalType":"struct LibAsset.Asset","name":"takeAsset","type":"tuple"},{"internalType":"uint256","name":"start","type":"uint256"},{"internalType":"uint256","name":"end","type":"uint256"}],"internalType":"struct LibOrder.OrderItem[]","name":"items","type":"tuple[]"},{"internalType":"address","name":"maker","type":"address"},{"internalType":"address","name":"taker","type":"address"},{"internalType":"bytes32","name":"root","type":"bytes32"},{"internalType":"uint256","name":"salt","type":"uint256"},{"internalType":"bytes","name":"signature","type":"bytes"}],"internalType":"struct LibOrder.Order","name":"order","type":"tuple"},{"internalType":"uint256","name":"orderItemIndex","type":"uint256"}],"name":"isOrderCancelled","outputs":[{"internalType":"bool","name":"","type":"bool"}],"stateMutability":"view","type":"function"},{"inputs":[{"components":[{"internalType":"enum LibOrder.OrderType","name":"orderType","type":"uint8"},{"components":[{"components":[{"internalType":"enum LibAsset.AssetType","name":"assetType","type":"uint8"},{"internalType":"address","name":"contractAddress","type":"address"},{"internalType":"uint256","name":"assetId","type":"uint256"},{"internalType":"uint256","name":"assetAmount","type":"uint256"}],"internalType":"struct LibAsset.Asset","name":"makeAsset","type":"tuple"},{"components":[{"internalType":"enum LibAsset.AssetType","name":"assetType","type":"uint8"},{"internalType":"address","name":"contractAddress","type":"address"},{"internalType":"uint256","name":"assetId","type":"uint256"},{"internalType":"uint256","name":"assetAmount","type":"uint256"}],"internalType":"struct LibAsset.Asset","name":"takeAsset","type":"tuple"},{"internalType":"uint256","name":"start","type":"uint256"},{"internalType":"uint256","name":"end","type":"uint256"}],"internalType":"struct LibOrder.OrderItem[]","name":"items","type":"tuple[]"},{"internalType":"address","name":"maker","type":"address"},{"internalType":"address","name":"taker","type":"address"},{"internalType":"bytes32","name":"root","type":"bytes32"},{"internalType":"uint256","name":"salt","type":"uint256"},{"internalType":"bytes","name":"signature","type":"bytes"}],"internalType":"struct LibOrder.Order","name":"order","type":"tuple"},{"internalType":"uint256","name":"orderItemIndex","type":"uint256"}],"name":"isOrderFullyFilled","outputs":[{"internalType":"bool","name":"","type":"bool"}],"stateMutability":"view","type":"function"},{"inputs":[{"components":[{"internalType":"enum LibOrder.OrderType","name":"orderType","type":"uint8"},{"components":[{"components":[{"internalType":"enum LibAsset.AssetType","name":"assetType","type":"uint8"},{"internalType":"address","name":"contractAddress","type":"address"},{"internalType":"uint256","name":"assetId","type":"uint256"},{"internalType":"uint256","name":"assetAmount","type":"uint256"}],"internalType":"struct LibAsset.Asset","name":"makeAsset","type":"tuple"},{"components":[{"internalType":"enum LibAsset.AssetType","name":"assetType","type":"uint8"},{"internalType":"address","name":"contractAddress","type":"address"},{"internalType":"uint256","name":"assetId","type":"uint256"},{"internalType":"uint256","name":"assetAmount","type":"uint256"}],"internalType":"struct LibAsset.Asset","name":"takeAsset","type":"tuple"},{"internalType":"uint256","name":"start","type":"uint256"},{"internalType":"uint256","name":"end","type":"uint256"}],"internalType":"struct LibOrder.OrderItem[]","name":"items","type":"tuple[]"},{"internalType":"address","name":"maker","type":"address"},{"internalType":"address","name":"taker","type":"address"},{"internalType":"bytes32","name":"root","type":"bytes32"},{"internalType":"uint256","name":"salt","type":"uint256"},{"internalType":"bytes","name":"signature","type":"bytes"}],"internalType":"struct LibOrder.Order","name":"makerOrder","type":"tuple"},{"components":[{"internalType":"enum LibOrder.OrderType","name":"orderType","type":"uint8"},{"components":[{"components":[{"internalType":"enum LibAsset.AssetType","name":"assetType","type":"uint8"},{"internalType":"address","name":"contractAddress","type":"address"},{"internalType":"uint256","name":"assetId","type":"uint256"},{"internalType":"uint256","name":"assetAmount","type":"uint256"}],"internalType":"struct LibAsset.Asset","name":"makeAsset","type":"tuple"},{"components":[{"internalType":"enum LibAsset.AssetType","name":"assetType","type":"uint8"},{"internalType":"address","name":"contractAddress","type":"address"},{"internalType":"uint256","name":"assetId","type":"uint256"},{"internalType":"uint256","name":"assetAmount","type":"uint256"}],"internalType":"struct LibAsset.Asset","name":"takeAsset","type":"tuple"},{"internalType":"uint256","name":"start","type":"uint256"},{"internalType":"uint256","name":"end","type":"uint256"}],"internalType":"struct LibOrder.OrderItem[]","name":"items","type":"tuple[]"},{"internalType":"address","name":"maker","type":"address"},{"internalType":"address","name":"taker","type":"address"},{"internalType":"bytes32","name":"root","type":"bytes32"},{"internalType":"uint256","name":"salt","type":"uint256"},{"internalType":"bytes","name":"signature","type":"bytes"}],"internalType":"struct LibOrder.Order","name":"takerOrder","type":"tuple"},{"internalType":"uint256","name":"orderItemIndex","type":"uint256"},{"internalType":"bytes32[]","name":"proof","type":"bytes32[]"}],"name":"matchOrders","outputs":[],"stateMutability":"payable","type":"function"},{"inputs":[{"internalType":"bytes32","name":"","type":"bytes32"},{"internalType":"uint256","name":"","type":"uint256"}],"name":"orderFillAmount","outputs":[{"internalType":"uint256","name":"","type":"uint256"}],"stateMutability":"view","type":"function"},{"inputs":[],"name":"owner","outputs":[{"internalType":"address","name":"","type":"address"}],"stateMutability":"view","type":"function"},{"inputs":[],"name":"renounceOwnership","outputs":[],"stateMutability":"nonpayable","type":"function"},{"inputs":[{"internalType":"address","name":"_agent","type":"address"}],"name":"setAssetTransferAgent","outputs":[],"stateMutability":"nonpayable","type":"function"},{"inputs":[{"internalType":"uint256","name":"_feeBps","type":"uint256"}],"name":"setFeeBps","outputs":[],"stateMutability":"nonpayable","type":"function"},{"inputs":[{"internalType":"address","name":"_feeRecipient","type":"address"}],"name":"setFeeRecipient","outputs":[],"stateMutability":"nonpayable","type":"function"},{"inputs":[{"internalType":"address","name":"newOwner","type":"address"}],"name":"transferOwnership","outputs":[],"stateMutability":"nonpayable","type":"function"},{"inputs":[{"internalType":"bytes32[]","name":"proof","type":"bytes32[]"},{"internalType":"bytes32","name":"root","type":"bytes32"},{"internalType":"bytes32","name":"leaf","type":"bytes32"}],"name":"verifyMerkleProof","outputs":[{"internalType":"bool","name":"","type":"bool"}],"stateMutability":"pure","type":"function"}],"evm":{"bytecode":{"linkReferences":{},"object":"610160806040523461022a5760608161314e8038038091610020828561022f565b83398101031261022a5761003381610268565b90604061004260208301610268565b9101519160405161005460408261022f565b601181526020810190704c61796572474d61726b6574506c61636560781b82526040519161008360408461022f565b6001808452603160f81b6020850190815260008281558254336001600160a01b031982168117909455919492916001600160a01b0316907f8be0079c531659141344cd1fd0a4f28419497f9722a3daafe3b4186f6b6457e09080a36100e78161027c565b610120526100f484610440565b61014052519020918260e05251902080610100524660a0526040519060208201927f8b73c3c69bb8fe3d512ecc4cf759cc79239f7b179b0ffacaa9a75d522b39400f8452604083015260608201524660808201523060a082015260a0815261015d60c08261022f565b5190206080523060c052600480546001600160a01b039283166001600160a01b0319918216179091556005805493909216921691909117905561271081116101f357600655604051612b6f90816105df82396080518161287a015260a05181612931015260c05181612844015260e051816128c9015261010051816128ef01526101205181610427015261014051816104500152f35b60405162461bcd60e51b815260206004820152600f60248201526e496e76616c6964206665652042505360881b6044820152606490fd5b600080fd5b601f909101601f19168101906001600160401b0382119082101761025257604052565b634e487b7160e01b600052604160045260246000fd5b51906001600160a01b038216820361022a57565b90815160208110600014610314575090601f8151116102b85760208151910151602082106102a8571790565b6000198260200360031b1b161790565b6040519063305a27a960e01b8252602060048301528181519182602483015260005b8381106102fc5750508160006044809484010152601f80199101168101030190fd5b602082820181015160448784010152859350016102da565b6001600160401b03811161025257600254600181811c91168015610436575b602082101461042057601f81116103ea575b50602092601f8211600114610385579281929360009261037a575b50508160011b916000199060031b1c19161760025560ff90565b015190503880610360565b601f198216936002600052806000209160005b8681106103d257508360019596106103b9575b505050811b0160025560ff90565b015160001960f88460031b161c191690553880806103ab565b91926020600181928685015181550194019201610398565b6002600052601f6020600020910160051c810190601f830160051c015b8181106104145750610345565b60008155600101610407565b634e487b7160e01b600052602260045260246000fd5b90607f1690610333565b908151602081106000146104c8575090601f81511161046c5760208151910151602082106102a8571790565b6040519063305a27a960e01b8252602060048301528181519182602483015260005b8381106104b05750508160006044809484010152601f80199101168101030190fd5b6020828201810151604487840101528593500161048e565b6001600160401b03811161025257600354600181811c911680156105d4575b602082101461042057601f811161059e575b50602092601f8211600114610539579281929360009261052e575b50508160011b916000199060031b1c19161760035560ff90565b015190503880610514565b601f198216936003600052806000209160005b868110610586575083600195961061056d575b505050811b0160035560ff90565b015160001960f88460031b161c1916905538808061055f565b9192602060018192868501518155019401920161054c565b6003600052601f6020600020910160051c810190601f830160051c015b8181106105c857506104f9565b600081556001016105bb565b90607f16906104e756fe6080604052600436101561001257600080fd5b60003560e01c80631ef1c7d21461014757806324a9d853146101425780632e1cbea21461013d57806346904840146101385780634715399c14610133578063703cebfe1461012e578063715018a61461012957806372c27b621461012457806384b0196e1461011f5780638da5cb5b1461011a578063a83fb54f14610115578063ada4fa1814610110578063bc2db5c41461010b578063bf76c03214610106578063ca200ad814610101578063d55be8c6146100fc578063e74b981b146100f7578063eded1f00146100f25763f2fde38b146100ed57600080fd5b610c30565b610bf4565b610b66565b610b49565b610ab3565b6108a7565b6106a4565b610657565b610538565b61050f565b61040e565b61036c565b61030f565b6102f6565b6102cd565b6102a4565b610281565b610232565b61018f565b9181601f8401121561017c578235916001600160401b03831161017c576020808501948460051b01011161017c57565b600080fd5b908160e091031261017c5790565b608036600319011261017c576004356001600160401b03811161017c576101ba90369060040161014c565b6024356001600160401b03811161017c576101d9903690600401610181565b916044356001600160401b03811161017c576101f990369060040161014c565b90606435946001600160401b03861161017c5761021d61022596369060040161014c565b959094610d01565b005b600091031261017c57565b3461017c57600036600319011261017c576020600654604051908152f35b604060031982011261017c57600435906001600160401b03821161017c5761027a91600401610181565b9060243590565b3461017c57602061029a61029436610250565b906111f1565b6040519015158152f35b3461017c57600036600319011261017c576004546040516001600160a01b039091168152602090f35b3461017c57600036600319011261017c576005546040516001600160a01b039091168152602090f35b3461017c57602061029a61030936610250565b9061121a565b3461017c57600036600319011261017c5761032861206e565b600180546001600160a01b031981169091556000906001600160a01b03167f8be0079c531659141344cd1fd0a4f28419497f9722a3daafe3b4186f6b6457e08280a3005b3461017c57602036600319011261017c5760043561038861206e565b612710811161039657600655005b60405162461bcd60e51b815260206004820152600f60248201526e496e76616c6964206665652042505360881b6044820152606490fd5b919082519283825260005b8481106103f9575050826000602080949584010152601f8019910116010190565b806020809284010151828286010152016103d8565b3461017c57600036600319011261017c576104b461044b7f00000000000000000000000000000000000000000000000000000000000000006120c6565b6104747f00000000000000000000000000000000000000000000000000000000000000006121b0565b60206040516104838282611125565b60008152816104c281830194601f198301368737604051978897600f60f81b895260e0858a015260e08901906103cd565b9087820360408901526103cd565b91466060870152306080870152600060a087015285830360c0870152519182815201929160005b8281106104f857505050500390f35b8351855286955093810193928101926001016104e9565b3461017c57600036600319011261017c576001546040516001600160a01b039091168152602090f35b3461017c5761054636610250565b61054e611482565b61055f61055a836119b8565b6125c4565b91610569816123ab565b604081013561057781610a95565b6001600160a01b0316330361061a57816105bb6105b66105a883856105b16105ac6105a86105eb9a6105de9a61121a565b1590565b611270565b6111f1565b6112b3565b6105cf846000526008602052604060002090565b90600052602052604060002090565b805460ff19166001179055565b7f42c76c81a7cba1b9c861353909a184e20747ab960332628dabcbb5852fc5cbb5600080a26102256001600055565b60405162461bcd60e51b815260206004820152601560248201527413db9b1e481b585ad95c8818d85b8818d85b98d95b605a1b6044820152606490fd5b3461017c57606036600319011261017c576004356001600160401b03811161017c5761029a61068c602092369060040161014c565b9061069f602435916044359336916112ff565b612493565b606036600319011261017c576004356001600160401b03811161017c576106cf903690600401610181565b60243590604435906106df611482565b6106fa6106eb826110ba565b6106f4816110ab565b1561134b565b61085561079a604061070b846119b8565b93610715816123ab565b6107876107376107328961072c602086018661103b565b9061107a565b611428565b9761077361076360608b51015161075c846105cf8c6000526007602052604060002090565b5490611433565b891515908161089c575b50611440565b6105cf876000526007602052604060002090565b610792878254611193565b9055016110c7565b9361084e60206107aa8351611170565b8351828101519194916107e8906040906001600160a01b0316920151916107d96107d2611146565b9788611164565b6001600160a01b031686850152565b604085015286606085015201916107ff8351611170565b9251602081015161083c906040906001600160a01b03169201519161082c610825611146565b9687611164565b6001600160a01b03166020860152565b60408401528560608401523387611cf3565b8433611cf3565b60405191825233926001600160a01b0316917f2b2be5bdc62aaf8dbe8a0ffac99e7335c8d1245aa56d1d50e01fc21177fb22779080602081015b0390a46102256001600055565b90508911153861076d565b608036600319011261017c576004356001600160401b03811161017c576108d2903690600401610181565b6024356001600160401b03811161017c576108f1903690600401610181565b9060443590606435906001600160401b03821161017c5761088f84610a616109cb60406109c4817f2b2be5bdc62aaf8dbe8a0ffac99e7335c8d1245aa56d1d50e01fc21177fb227797610949879a369060040161014c565b610951611482565b6109848d61097d61097761096c8361072c60208a018a61103b565b9c602081019061103b565b90611071565b9d85611762565b600261098f846110ba565b610998816110ab565b14610a7f575b50506109be60e06109ae836119b8565b9b01359b60608901358d8d611a8a565b016110c7565b98016110c7565b91610a5a6109d8826110e5565b916109e5602082016110c7565b6109f960408301359161082c610825611146565b6040840152886060840152610a10608082016110e5565b90610a4860c0610a2260a084016110c7565b92013591610a38610a31611146565b9485611164565b6001600160a01b03166020840152565b60408201528860608201528985611cf3565b8288611cf3565b6040519485526001600160a01b039081169516939081906020820190565b610a8e9160808401358a61187e565b388061099e565b6001600160a01b0381160361017c57565b3590610ab182610a95565b565b3461017c57602036600319011261017c57600435610ad081610a95565b610ad861206e565b6001600160a01b03168015610b04576bffffffffffffffffffffffff60a01b6005541617600555600080f35b60405162461bcd60e51b815260206004820152601c60248201527f496e76616c6964206173736574207472616e73666572206167656e74000000006044820152606490fd5b3461017c57600036600319011261017c5760206040516127108152f35b3461017c57602036600319011261017c57600435610b8381610a95565b610b8b61206e565b6001600160a01b03168015610bb7576bffffffffffffffffffffffff60a01b6004541617600455600080f35b60405162461bcd60e51b8152602060048201526015602482015274125b9d985b1a5908199959481c9958da5c1a595b9d605a1b6044820152606490fd5b3461017c57604036600319011261017c576004356024359060005260076020526040600020906000526020526020604060002054604051908152f35b3461017c57602036600319011261017c57600435610c4d81610a95565b610c5561206e565b6001600160a01b03811615610cad57600180546001600160a01b039283166001600160a01b0319821681179092559091167f8be0079c531659141344cd1fd0a4f28419497f9722a3daafe3b4186f6b6457e0600080a3005b60405162461bcd60e51b815260206004820152602660248201527f4f776e61626c653a206e6577206f776e657220697320746865207a65726f206160448201526564647265737360d01b6064820152608490fd5b94959091939295610d10611482565b610d1b848414610f27565b610d26828414610f65565b6000966020860193885b818110610d635750505050505050505080610d51575b50610ab16001600055565b610d5d903410156111a5565b38610d46565b85610d6f82848c610fc0565b89610df16040610d80868d8a610fe7565b3593610d8d878c8c610ff7565b610db787610db08b61072c610da98461072c60208b018b61103b565b9c8b61103b565b9785611762565b6002610dc2846110ba565b610dcb816110ab565b14610f11575b50506109be60e0610de1836119b8565b9501359560608801358787611a8a565b92610dfe60408d016110c7565b90610e08816110e5565b90610e15602082016110c7565b610e40604083013591610e30610e29611146565b9586611164565b6001600160a01b03166020850152565b6040830152846060830152610e57608082016110e5565b90610e6960c0610a2260a084016110c7565b60408201528460608201528051610e7f816110db565b610e88816110db565b15610eef575b82610ec87f2b2be5bdc62aaf8dbe8a0ffac99e7335c8d1245aa56d1d50e01fc21177fb227793610a5a610ee6948a60019c9b9a9998611cf3565b60405194855260a088901b8890039081169516939081906020820190565b0390a401610d30565b9e8f6060909796959493970151610f0591611193565b9e959192939495610e8e565b610f209160808401358961187e565b3880610dd1565b15610f2e57565b60405162461bcd60e51b815260206004820152600f60248201526e098cadccee8d040dad2e6dac2e8c6d608b1b6044820152606490fd5b15610f6c57565b60405162461bcd60e51b81526020600482015260166024820152750a0e4dedecce640d8cadccee8d040dad2e6dac2e8c6d60531b6044820152606490fd5b634e487b7160e01b600052603260045260246000fd5b9190811015610fe25760051b8101359060de198136030182121561017c570190565b610faa565b9190811015610fe25760051b0190565b9190811015610fe25760051b81013590601e198136030182121561017c5701908135916001600160401b03831161017c576020018260051b3603811361017c579190565b903590601e198136030182121561017c57018035906001600160401b03821161017c576020019161014082023603831361017c57565b9015610fe25790565b9190811015610fe257610140020190565b6003111561017c57565b634e487b7160e01b600052602160045260246000fd5b600311156110b557565b611095565b356110c48161108b565b90565b356110c481610a95565b6004111561017c57565b600411156110b557565b356110c4816110d1565b634e487b7160e01b600052604160045260246000fd5b608081019081106001600160401b0382111761112057604052565b6110ef565b90601f801991011681019081106001600160401b0382111761112057604052565b60405190610ab1608083611125565b60405190610ab160e083611125565b60048210156110b55752565b5160048110156110b55790565b634e487b7160e01b600052601160045260246000fd5b919082018092116111a057565b61117d565b156111ac57565b60405162461bcd60e51b815260206004820152601c60248201527f496e73756666696369656e7420746f74616c206d73672e76616c7565000000006044820152606490fd5b6111fa906119b8565b600052600860205260406000209060005260205260ff6040600020541690565b9061125260609161122a846119b8565b600052600760205260406000208160005260205261072c60406000205494602081019061103b565b0135111590565b6001600160401b0381116111205760051b60200190565b1561127757565b60405162461bcd60e51b815260206004820152601460248201527313dc99195c88185b1c9958591e48199a5b1b195960621b6044820152606490fd5b156112ba57565b60405162461bcd60e51b815260206004820152601760248201527f4f7264657220616c72656164792063616e63656c6c65640000000000000000006044820152606490fd5b92919061130b81611259565b936113196040519586611125565b602085838152019160051b810192831161017c57905b82821061133b57505050565b813581526020918201910161132f565b1561135257565b60405162461bcd60e51b815260206004820152600f60248201526e2737ba1030903134b21037b93232b960891b6044820152606490fd5b919082608091031261017c576040516113a181611105565b606080829480356113b1816110d1565b845260208101356113c181610a95565b6020850152604081013560408501520135910152565b9190916101408184031261017c576060610120604051926113f784611105565b61141184966114068184611389565b865260808301611389565b602085015261010081013560408501520135910152565b6110c49036906113d7565b919082039182116111a057565b1561144757565b60405162461bcd60e51b8152602060048201526013602482015272125b9d985b1a59081cd95b1b08185b5bdd5b9d606a1b6044820152606490fd5b600260005414611493576002600055565b60405162461bcd60e51b815260206004820152601f60248201527f5265656e7472616e637947756172643a207265656e7472616e742063616c6c006044820152606490fd5b156114df57565b60405162461bcd60e51b815260206004820152601360248201527229b2b73232b91034b9903737ba103a30b5b2b960691b6044820152606490fd5b1561152157565b60405162461bcd60e51b815260206004820152601260248201527113585ad95c881bdc99195c88199a5b1b195960721b6044820152606490fd5b1561156257565b60405162461bcd60e51b815260206004820152601560248201527413585ad95c881bdc99195c8818d85b98d95b1b1959605a1b6044820152606490fd5b3590610ab18261108b565b81601f8201121561017c5780356115c081611259565b926115ce6040519485611125565b818452602061014081860193028401019281841161017c57602001915b8383106115f9575050505090565b60206101409161160984866113d7565b8152019201916115eb565b6001600160401b03811161112057601f01601f191660200190565b92919261163b82611614565b916116496040519384611125565b82948184528183011161017c578281602093846000960137010152565b9080601f8301121561017c578160206110c49335910161162f565b91909160e08184031261017c57611696611155565b926116a08261159f565b845260208201356001600160401b03811161017c57816116c19184016115aa565b60208501526116d260408301610aa6565b60408501526116e360608301610aa6565b60608501526080820135608085015260a082013560a085015260c08201356001600160401b03811161017c576117199201611666565b60c0830152565b1561172757565b60405162461bcd60e51b815260206004820152601360248201527213585ad95c881bdc99195c88195e1c1a5c9959606a1b6044820152606490fd5b919061176d836123ab565b61177e8261072c602086018661103b565b9161178c602083018361103b565b15610fe257604085013561179f81610a95565b60608401356117ad81610a95565b6001600160a01b0390811691160361184057610ab1946118056117fe6117f260406105a8976109be8a6080896117eb6118369b61183b9f8401612744565b0190612744565b6001600160a01b031690565b33146114d8565b61181a6118156105a8858461121a565b61151a565b61182f61182a6105a885846111f1565b61155b565b3690611681565b6124ea565b611720565b60405162461bcd60e51b81526020600482015260166024820152752a30b5b2b91036bab9ba1036b0ba31b41036b0b5b2b960511b6044820152606490fd5b611897939261188f61069f92612502565b9336916112ff565b1561189e57565b60405162461bcd60e51b815260206004820152601460248201527324b73b30b634b21026b2b935b63290383937b7b360611b6044820152606490fd5b906118e482611259565b6118f16040519182611125565b8281528092611902601f1991611259565b0190602036910137565b8051821015610fe25760209160051b010190565b805160209091019060005b8181106119385750505090565b825184526020938401939092019160010161192b565b92969594919693909360e08401977f06c8ffd199dde1e3c1f0d71dae647c455e0da36831ccd370e21bb7d22d370959855260038610156110b55760c0956020860152604085015260018060a01b0316606084015260018060a01b0316608083015260a08201520152565b9060208201916119d26119cb848361103b565b90506118da565b9060005b6119e0858361103b565b9050811015611a135780611a026119fd60019361072c898761103b565b612502565b611a0c828661190c565b52016119d6565b50919250604051611a3a81611a2c602082018095611920565b03601f198101835282611125565b51902090611a84611a4a826110ba565b92611a2c611a5a604085016110c7565b93611a67606082016110c7565b9060a060808201359101359160405196879560208701998a61194e565b51902090565b9290836000526007602052604060002082600052602052604060002054928115159081611b10575b5015611adc57611ac86105cf91611ad994611193565b936000526007602052604060002090565b55565b60405162461bcd60e51b815260206004820152600c60248201526b125b9d985b1a5908199a5b1b60a21b6044820152606490fd5b90508184018085116111a057111538611ab2565b15611b2b57565b60405162461bcd60e51b8152602060048201526015602482015274119959481c9958da5c1a595b9d081b9bdd081cd95d605a1b6044820152606490fd5b15611b6f57565b60405162461bcd60e51b8152602060048201526016602482015275151c985b9cd9995c881859d95b9d081b9bdd081cd95d60521b6044820152606490fd5b6040513d6000823e3d90fd5b6001600160a01b03918216815291811660208301529091166040820152606081019190915260800190565b818102929181159184041417156111a057565b15611bfe57565b60405162461bcd60e51b8152602060048201526016602482015275496e73756666696369656e74206d73672e76616c756560501b6044820152606490fd5b3d15611c67573d90611c4d82611614565b91611c5b6040519384611125565b82523d6000602084013e565b606090565b15611c7357565b60405162461bcd60e51b8152602060048201526013602482015272119959481d1c985b9cd9995c8819985a5b1959606a1b6044820152606490fd5b15611cb557565b60405162461bcd60e51b815260206004820152601660248201527513985d1a5d99481d1c985b9cd9995c8819985a5b195960521b6044820152606490fd5b600454611d0a906001600160a01b03161515611b24565b600554611d1f906001600160a01b03166117f2565b611d2a811515611b68565b8351611d35816110db565b611d3e816110db565b611dc95750506000808080936060610ab1960190611d6b611d63835160065490611be4565b612710900490565b611d83611d79828551611433565b9351341015611bf7565b80611d9a575b505af1611d94611c3c565b50611cae565b83808080611dc394611db360045460018060a01b031690565b5af1611dbd611c3c565b50611c6c565b38611d89565b60018493929351611dd9816110db565b611de2816110db565b03611f1a57506060830192611e09611e01611d63865160065490611be4565b809551611433565b9380611e95575b50600554611e3e90602090611e2f906117f2906001600160a01b031681565b9201516001600160a01b031690565b92813b1561017c5760008094611e6a6040519788968795869463368fa33960e21b865260048601611bb9565b03925af18015611e9057611e7b5750565b80611e8a6000610ab193611125565b80610227565b611bad565b600554611eac906117f2906001600160a01b031681565b60208301516001600160a01b03166004549091906001600160a01b031690803b1561017c578660008094611ef66040519788968795869463368fa33960e21b865260048601611bb9565b03925af18015611e905715611e105780611e8a6000611f1493611125565b38611e10565b600384939451611f29816110db565b611f32816110db565b03611f8f5750600554611f4f906117f2906001600160a01b031681565b60208301516040906001600160a01b031693015193813b1561017c5760008094611e6a60405197889687958694633c4fc9fb60e11b865260048601611bb9565b600283949351611f9e816110db565b611fa7816110db565b03612030576001600160a01b031660208401516001600160a01b03169260606040860151950151823b1561017c57604051633ab9e1f760e21b81526001600160a01b03958616600482015291851660248301529290931660448401526064830193909352608482015260c060a4820152600060c482018190529091829081838160e48101611e6a565b60405162461bcd60e51b8152602060048201526016602482015275556e737570706f72746564206173736574207479706560501b6044820152606490fd5b6001546001600160a01b0316330361208257565b606460405162461bcd60e51b815260206004820152602060248201527f4f776e61626c653a2063616c6c6572206973206e6f7420746865206f776e65726044820152fd5b60ff81146120d7576110c490612582565b506040516000600254908160011c91600181169081156121a6575b60208410821461219257838552849291602084019181156121795750600114612123575b506110c492500382611125565b6002600090815291507f405787fa12a823e0f2b7631cc41b3ba8828b3321ca811111fa75cd3aa3bb5ace5b84831061216257506110c493500138612116565b80548284015285935060209092019160010161214e565b60ff19168252506110c493151560051b01905038612116565b634e487b7160e01b83526022600452602483fd5b92607f16926120f2565b60ff81146121c1576110c490612582565b506040516000600354908160011c9160018116908115612262575b6020841082146121925783855284929160208401918115612179575060011461220c57506110c492500382611125565b6003600090815291507fc2575a0e9e593c00f959f8c92f12db2869c3395a3b0502d05e2516446f71f85b5b84831061224b57506110c493500138612116565b805482840152859350602090920191600101612237565b92607f16926121dc565b903590601e198136030182121561017c57018035906001600160401b03821161017c5760200191813603831361017c57565b156122a557565b60405162461bcd60e51b815260206004820152602a60248201527f496e76616c6964207369676e61747572652e204d616b6572206973206e6f74206044820152693a34329039b4b3b732b960b11b6064820152608490fd5b9081602091031261017c57516001600160e01b03198116810361017c5790565b91926060938192845260406020850152816040850152848401376000828201840152601f01601f1916010190565b1561235257565b60405162461bcd60e51b815260206004820152602b60248201527f636f6e7472616374206f72646572207369676e6174757265207665726966696360448201526a30ba34b7b71032b93937b960a91b6064820152608490fd5b6123b7604082016110c7565b6123d16123c661055a846119b8565b9260c081019061226c565b92823b1561246657604051630b135d3f60e11b81529360209385939092849283926123ff926004850161231d565b03916001600160a01b03165afa8015611e9057610ab191600091612437575b506001600160e01b031916630b135d3f60e11b1461234b565b612459915060203d60201161245f575b6124518183611125565b8101906122fd565b3861241e565b503d612447565b6117f29061247c61248293610ab196369161162f565b906125ea565b6001600160a01b039091161461229e565b929091906000915b84518310156124e2576124ae838661190c565b51906000828210156124d15750600052602052600160406000205b92019161249b565b6040916001938252602052206124c9565b915092501490565b60609160206124fa92015161190c565b510151421190565b61251461250f3683611389565b6127cd565b9061252561250f3660808401611389565b90610120610100820135910135906040519260208401947fe28cfd2e1bcec04840c1ddb765a2c756cf3e42aef44e48ddda10af78ed9a1c44865260408501526060840152608083015260a082015260a08152611a8460c082611125565b60ff811690601f82116125b357604080519261259e8285611125565b6020808552840191601f190136833783525290565b632cd44ac360e21b60005260046000fd5b6042906125cf612841565b906040519161190160f01b8352600283015260228201522090565b6110c491612623917f19457468657265756d205369676e6564204d6573736167653a0a333200000000600052601c52603c600020612957565b919091612999565b1561263257565b60405162461bcd60e51b8152602060048201526013602482015272082e6e6cae840e8f2e0ca40dad2e6dac2e8c6d606b1b6044820152606490fd5b1561267457565b60405162461bcd60e51b815260206004820152601960248201527f436f6e74726163742061646472657373206d69736d61746368000000000000006044820152606490fd5b156126c057565b60405162461bcd60e51b8152602060048201526011602482015270082e6e6cae840928840dad2e6dac2e8c6d607b1b6044820152606490fd5b1561270057565b606460405162461bcd60e51b815260206004820152602060248201527f4f66666572656420616d6f756e742065786365656473207265717565737465646044820152fd5b803561274f816110d1565b823561275a816110d1565b60048110156110b55760048210156110b557610ab19361277f6060939284931461262b565b6127ae61278e602086016110c7565b61279d6117f2602085016110c7565b6001600160a01b039091161461266d565b6127c160408501356040830135146126b9565b013591013510156126f9565b80519060048210156110b55760018060a01b036020820151169060606040820151910151906040519260208401947f6e4f52e5739dbefd226dcbefef0e563115bc2b92726a648e213cb8cde30b11a6865260408501526060840152608083015260a082015260a08152611a8460c082611125565b307f00000000000000000000000000000000000000000000000000000000000000006001600160a01b0316148061292e575b1561289c577f000000000000000000000000000000000000000000000000000000000000000090565b60405160208101907f8b73c3c69bb8fe3d512ecc4cf759cc79239f7b179b0ffacaa9a75d522b39400f82527f000000000000000000000000000000000000000000000000000000000000000060408201527f000000000000000000000000000000000000000000000000000000000000000060608201524660808201523060a082015260a08152611a8460c082611125565b507f00000000000000000000000000000000000000000000000000000000000000004614612873565b90604181511460001461298557612981916020820151906060604084015193015160001a90612ab9565b9091565b5050600090600290565b600511156110b557565b6129a28161298f565b806129aa5750565b6129b38161298f565b60018103612a005760405162461bcd60e51b815260206004820152601860248201527f45434453413a20696e76616c6964207369676e617475726500000000000000006044820152606490fd5b612a098161298f565b60028103612a565760405162461bcd60e51b815260206004820152601f60248201527f45434453413a20696e76616c6964207369676e6174757265206c656e677468006044820152606490fd5b80612a6260039261298f565b14612a6957565b60405162461bcd60e51b815260206004820152602260248201527f45434453413a20696e76616c6964207369676e6174757265202773272076616c604482015261756560f01b6064820152608490fd5b7f7fffffffffffffffffffffffffffffff5d576e7357a4501ddfe92f46681b20a08411612b2d5760209360009360ff60809460405194855216868401526040830152606082015282805260015afa15611e90576000516001600160a01b03811615612b245790600090565b50600090600190565b5050505060009060039056fea264697066735822122084985d88def2f0ccbf473a83accfde07249773dc1cff6cc855eb0ae7d683269e64736f6c634300081c0033","opcodes":"PUSH2 0x160 DUP1 PUSH1 0x40 MSTORE CALLVALUE PUSH2 0x22A JUMPI PUSH1 0x60 DUP2 PUSH2 0x314E DUP1 CODESIZE SUB DUP1 SWAP2 PUSH2 0x20 DUP3 DUP6 PUSH2 0x22F JUMP JUMPDEST DUP4 CODECOPY DUP2 ADD SUB SLT PUSH2 0x22A JUMPI PUSH2 0x33 DUP2 PUSH2 0x268 JUMP JUMPDEST SWAP1 PUSH1 0x40 PUSH2 0x42 PUSH1 0x20 DUP4 ADD PUSH2 0x268 JUMP JUMPDEST SWAP2 ADD MLOAD SWAP2 PUSH1 0x40 MLOAD PUSH2 0x54 PUSH1 0x40 DUP3 PUSH2 0x22F JUMP JUMPDEST PUSH1 0x11 DUP2 MSTORE PUSH1 0x20 DUP2 ADD SWAP1 PUSH17 0x4C61796572474D61726B6574506C616365 PUSH1 0x78 SHL DUP3 MSTORE PUSH1 0x40 MLOAD SWAP2 PUSH2 0x83 PUSH1 0x40 DUP5 PUSH2 0x22F JUMP JUMPDEST PUSH1 0x1 DUP1 DUP5 MSTORE PUSH1 0x31 PUSH1 0xF8 SHL PUSH1 0x20 DUP6 ADD SWAP1 DUP2 MSTORE PUSH1 0x0 DUP3 DUP2 SSTORE DUP3 SLOAD CALLER PUSH1 0x1 PUSH1 0x1 PUSH1 0xA0 SHL SUB NOT DUP3 AND DUP2 OR SWAP1 SWAP5 SSTORE SWAP2 SWAP5 SWAP3 SWAP2 PUSH1 0x1 PUSH1 0x1 PUSH1 0xA0 SHL SUB AND SWAP1 PUSH32 0x8BE0079C531659141344CD1FD0A4F28419497F9722A3DAAFE3B4186F6B6457E0 SWAP1 DUP1 LOG3 PUSH2 0xE7 DUP2 PUSH2 0x27C JUMP JUMPDEST PUSH2 0x120 MSTORE PUSH2 0xF4 DUP5 PUSH2 0x440 JUMP JUMPDEST PUSH2 0x140 MSTORE MLOAD SWAP1 KECCAK256 SWAP2 DUP3 PUSH1 0xE0 MSTORE MLOAD SWAP1 KECCAK256 DUP1 PUSH2 0x100 MSTORE CHAINID PUSH1 0xA0 MSTORE PUSH1 0x40 MLOAD SWAP1 PUSH1 0x20 DUP3 ADD SWAP3 PUSH32 0x8B73C3C69BB8FE3D512ECC4CF759CC79239F7B179B0FFACAA9A75D522B39400F DUP5 MSTORE PUSH1 0x40 DUP4 ADD MSTORE PUSH1 0x60 DUP3 ADD MSTORE CHAINID PUSH1 0x80 DUP3 ADD MSTORE ADDRESS PUSH1 0xA0 DUP3 ADD MSTORE PUSH1 0xA0 DUP2 MSTORE PUSH2 0x15D PUSH1 0xC0 DUP3 PUSH2 0x22F JUMP JUMPDEST MLOAD SWAP1 KECCAK256 PUSH1 0x80 MSTORE ADDRESS PUSH1 0xC0 MSTORE PUSH1 0x4 DUP1 SLOAD PUSH1 0x1 PUSH1 0x1 PUSH1 0xA0 SHL SUB SWAP3 DUP4 AND PUSH1 0x1 PUSH1 0x1 PUSH1 0xA0 SHL SUB NOT SWAP2 DUP3 AND OR SWAP1 SWAP2 SSTORE PUSH1 0x5 DUP1 SLOAD SWAP4 SWAP1 SWAP3 AND SWAP3 AND SWAP2 SWAP1 SWAP2 OR SWAP1 SSTORE PUSH2 0x2710 DUP2 GT PUSH2 0x1F3 JUMPI PUSH1 0x6 SSTORE PUSH1 0x40 MLOAD PUSH2 0x2B6F SWAP1 DUP2 PUSH2 0x5DF DUP3 CODECOPY PUSH1 0x80 MLOAD DUP2 PUSH2 0x287A ADD MSTORE PUSH1 0xA0 MLOAD DUP2 PUSH2 0x2931 ADD MSTORE PUSH1 0xC0 MLOAD DUP2 PUSH2 0x2844 ADD MSTORE PUSH1 0xE0 MLOAD DUP2 PUSH2 0x28C9 ADD MSTORE PUSH2 0x100 MLOAD DUP2 PUSH2 0x28EF ADD MSTORE PUSH2 0x120 MLOAD DUP2 PUSH2 0x427 ADD MSTORE PUSH2 0x140 MLOAD DUP2 PUSH2 0x450 ADD MSTORE RETURN JUMPDEST PUSH1 0x40 MLOAD PUSH3 0x461BCD PUSH1 0xE5 SHL DUP2 MSTORE PUSH1 0x20 PUSH1 0x4 DUP3 ADD MSTORE PUSH1 0xF PUSH1 0x24 DUP3 ADD MSTORE PUSH15 0x496E76616C69642066656520425053 PUSH1 0x88 SHL PUSH1 0x44 DUP3 ADD MSTORE PUSH1 0x64 SWAP1 REVERT JUMPDEST PUSH1 0x0 DUP1 REVERT JUMPDEST PUSH1 0x1F SWAP1 SWAP2 ADD PUSH1 0x1F NOT AND DUP2 ADD SWAP1 PUSH1 0x1 PUSH1 0x1 PUSH1 0x40 SHL SUB DUP3 GT SWAP1 DUP3 LT OR PUSH2 0x252 JUMPI PUSH1 0x40 MSTORE JUMP JUMPDEST PUSH4 0x4E487B71 PUSH1 0xE0 SHL PUSH1 0x0 MSTORE PUSH1 0x41 PUSH1 0x4 MSTORE PUSH1 0x24 PUSH1 0x0 REVERT JUMPDEST MLOAD SWAP1 PUSH1 0x1 PUSH1 0x1 PUSH1 0xA0 SHL SUB DUP3 AND DUP3 SUB PUSH2 0x22A JUMPI JUMP JUMPDEST SWAP1 DUP2 MLOAD PUSH1 0x20 DUP2 LT PUSH1 0x0 EQ PUSH2 0x314 JUMPI POP SWAP1 PUSH1 0x1F DUP2 MLOAD GT PUSH2 0x2B8 JUMPI PUSH1 0x20 DUP2 MLOAD SWAP2 ADD MLOAD PUSH1 0x20 DUP3 LT PUSH2 0x2A8 JUMPI OR SWAP1 JUMP JUMPDEST PUSH1 0x0 NOT DUP3 PUSH1 0x20 SUB PUSH1 0x3 SHL SHL AND OR SWAP1 JUMP JUMPDEST PUSH1 0x40 MLOAD SWAP1 PUSH4 0x305A27A9 PUSH1 0xE0 SHL DUP3 MSTORE PUSH1 0x20 PUSH1 0x4 DUP4 ADD MSTORE DUP2 DUP2 MLOAD SWAP2 DUP3 PUSH1 0x24 DUP4 ADD MSTORE PUSH1 0x0 JUMPDEST DUP4 DUP2 LT PUSH2 0x2FC JUMPI POP POP DUP2 PUSH1 0x0 PUSH1 0x44 DUP1 SWAP5 DUP5 ADD ADD MSTORE PUSH1 0x1F DUP1 NOT SWAP2 ADD AND DUP2 ADD SUB ADD SWAP1 REVERT JUMPDEST PUSH1 0x20 DUP3 DUP3 ADD DUP2 ADD MLOAD PUSH1 0x44 DUP8 DUP5 ADD ADD MSTORE DUP6 SWAP4 POP ADD PUSH2 0x2DA JUMP JUMPDEST PUSH1 0x1 PUSH1 0x1 PUSH1 0x40 SHL SUB DUP2 GT PUSH2 0x252 JUMPI PUSH1 0x2 SLOAD PUSH1 0x1 DUP2 DUP2 SHR SWAP2 AND DUP1 ISZERO PUSH2 0x436 JUMPI JUMPDEST PUSH1 0x20 DUP3 LT EQ PUSH2 0x420 JUMPI PUSH1 0x1F DUP2 GT PUSH2 0x3EA JUMPI JUMPDEST POP PUSH1 0x20 SWAP3 PUSH1 0x1F DUP3 GT PUSH1 0x1 EQ PUSH2 0x385 JUMPI SWAP3 DUP2 SWAP3 SWAP4 PUSH1 0x0 SWAP3 PUSH2 0x37A JUMPI JUMPDEST POP POP DUP2 PUSH1 0x1 SHL SWAP2 PUSH1 0x0 NOT SWAP1 PUSH1 0x3 SHL SHR NOT AND OR PUSH1 0x2 SSTORE PUSH1 0xFF SWAP1 JUMP JUMPDEST ADD MLOAD SWAP1 POP CODESIZE DUP1 PUSH2 0x360 JUMP JUMPDEST PUSH1 0x1F NOT DUP3 AND SWAP4 PUSH1 0x2 PUSH1 0x0 MSTORE DUP1 PUSH1 0x0 KECCAK256 SWAP2 PUSH1 0x0 JUMPDEST DUP7 DUP2 LT PUSH2 0x3D2 JUMPI POP DUP4 PUSH1 0x1 SWAP6 SWAP7 LT PUSH2 0x3B9 JUMPI JUMPDEST POP POP POP DUP2 SHL ADD PUSH1 0x2 SSTORE PUSH1 0xFF SWAP1 JUMP JUMPDEST ADD MLOAD PUSH1 0x0 NOT PUSH1 0xF8 DUP5 PUSH1 0x3 SHL AND SHR NOT AND SWAP1 SSTORE CODESIZE DUP1 DUP1 PUSH2 0x3AB JUMP JUMPDEST SWAP2 SWAP3 PUSH1 0x20 PUSH1 0x1 DUP2 SWAP3 DUP7 DUP6 ADD MLOAD DUP2 SSTORE ADD SWAP5 ADD SWAP3 ADD PUSH2 0x398 JUMP JUMPDEST PUSH1 0x2 PUSH1 0x0 MSTORE PUSH1 0x1F PUSH1 0x20 PUSH1 0x0 KECCAK256 SWAP2 ADD PUSH1 0x5 SHR DUP2 ADD SWAP1 PUSH1 0x1F DUP4 ADD PUSH1 0x5 SHR ADD JUMPDEST DUP2 DUP2 LT PUSH2 0x414 JUMPI POP PUSH2 0x345 JUMP JUMPDEST PUSH1 0x0 DUP2 SSTORE PUSH1 0x1 ADD PUSH2 0x407 JUMP JUMPDEST PUSH4 0x4E487B71 PUSH1 0xE0 SHL PUSH1 0x0 MSTORE PUSH1 0x22 PUSH1 0x4 MSTORE PUSH1 0x24 PUSH1 0x0 REVERT JUMPDEST SWAP1 PUSH1 0x7F AND SWAP1 PUSH2 0x333 JUMP JUMPDEST SWAP1 DUP2 MLOAD PUSH1 0x20 DUP2 LT PUSH1 0x0 EQ PUSH2 0x4C8 JUMPI POP SWAP1 PUSH1 0x1F DUP2 MLOAD GT PUSH2 0x46C JUMPI PUSH1 0x20 DUP2 MLOAD SWAP2 ADD MLOAD PUSH1 0x20 DUP3 LT PUSH2 0x2A8 JUMPI OR SWAP1 JUMP JUMPDEST PUSH1 0x40 MLOAD SWAP1 PUSH4 0x305A27A9 PUSH1 0xE0 SHL DUP3 MSTORE PUSH1 0x20 PUSH1 0x4 DUP4 ADD MSTORE DUP2 DUP2 MLOAD SWAP2 DUP3 PUSH1 0x24 DUP4 ADD MSTORE PUSH1 0x0 JUMPDEST DUP4 DUP2 LT PUSH2 0x4B0 JUMPI POP POP DUP2 PUSH1 0x0 PUSH1 0x44 DUP1 SWAP5 DUP5 ADD ADD MSTORE PUSH1 0x1F DUP1 NOT SWAP2 ADD AND DUP2 ADD SUB ADD SWAP1 REVERT JUMPDEST PUSH1 0x20 DUP3 DUP3 ADD DUP2 ADD MLOAD PUSH1 0x44 DUP8 DUP5 ADD ADD MSTORE DUP6 SWAP4 POP ADD PUSH2 0x48E JUMP JUMPDEST PUSH1 0x1 PUSH1 0x1 PUSH1 0x40 SHL SUB DUP2 GT PUSH2 0x252 JUMPI PUSH1 0x3 SLOAD PUSH1 0x1 DUP2 DUP2 SHR SWAP2 AND DUP1 ISZERO PUSH2 0x5D4 JUMPI JUMPDEST PUSH1 0x20 DUP3 LT EQ PUSH2 0x420 JUMPI PUSH1 0x1F DUP2 GT PUSH2 0x59E JUMPI JUMPDEST POP PUSH1 0x20 SWAP3 PUSH1 0x1F DUP3 GT PUSH1 0x1 EQ PUSH2 0x539 JUMPI SWAP3 DUP2 SWAP3 SWAP4 PUSH1 0x0 SWAP3 PUSH2 0x52E JUMPI JUMPDEST POP POP DUP2 PUSH1 0x1 SHL SWAP2 PUSH1 0x0 NOT SWAP1 PUSH1 0x3 SHL SHR NOT AND OR PUSH1 0x3 SSTORE PUSH1 0xFF SWAP1 JUMP JUMPDEST ADD MLOAD SWAP1 POP CODESIZE DUP1 PUSH2 0x514 JUMP JUMPDEST PUSH1 0x1F NOT DUP3 AND SWAP4 PUSH1 0x3 PUSH1 0x0 MSTORE DUP1 PUSH1 0x0 KECCAK256 SWAP2 PUSH1 0x0 JUMPDEST DUP7 DUP2 LT PUSH2 0x586 JUMPI POP DUP4 PUSH1 0x1 SWAP6 SWAP7 LT PUSH2 0x56D JUMPI JUMPDEST POP POP POP DUP2 SHL ADD PUSH1 0x3 SSTORE PUSH1 0xFF SWAP1 JUMP JUMPDEST ADD MLOAD PUSH1 0x0 NOT PUSH1 0xF8 DUP5 PUSH1 0x3 SHL AND SHR NOT AND SWAP1 SSTORE CODESIZE DUP1 DUP1 PUSH2 0x55F JUMP JUMPDEST SWAP2 SWAP3 PUSH1 0x20 PUSH1 0x1 DUP2 SWAP3 DUP7 DUP6 ADD MLOAD DUP2 SSTORE ADD SWAP5 ADD SWAP3 ADD PUSH2 0x54C JUMP JUMPDEST PUSH1 0x3 PUSH1 0x0 MSTORE PUSH1 0x1F PUSH1 0x20 PUSH1 0x0 KECCAK256 SWAP2 ADD PUSH1 0x5 SHR DUP2 ADD SWAP1 PUSH1 0x1F DUP4 ADD PUSH1 0x5 SHR ADD JUMPDEST DUP2 DUP2 LT PUSH2 0x5C8 JUMPI POP PUSH2 0x4F9 JUMP JUMPDEST PUSH1 0x0 DUP2 SSTORE PUSH1 0x1 ADD PUSH2 0x5BB JUMP JUMPDEST SWAP1 PUSH1 0x7F AND SWAP1 PUSH2 0x4E7 JUMP INVALID PUSH1 0x80 PUSH1 0x40 MSTORE PUSH1 0x4 CALLDATASIZE LT ISZERO PUSH2 0x12 JUMPI PUSH1 0x0 DUP1 REVERT JUMPDEST PUSH1 0x0 CALLDATALOAD PUSH1 0xE0 SHR DUP1 PUSH4 0x1EF1C7D2 EQ PUSH2 0x147 JUMPI DUP1 PUSH4 0x24A9D853 EQ PUSH2 0x142 JUMPI DUP1 PUSH4 0x2E1CBEA2 EQ PUSH2 0x13D JUMPI DUP1 PUSH4 0x46904840 EQ PUSH2 0x138 JUMPI DUP1 PUSH4 0x4715399C EQ PUSH2 0x133 JUMPI DUP1 PUSH4 0x703CEBFE EQ PUSH2 0x12E JUMPI DUP1 PUSH4 0x715018A6 EQ PUSH2 0x129 JUMPI DUP1 PUSH4 0x72C27B62 EQ PUSH2 0x124 JUMPI DUP1 PUSH4 0x84B0196E EQ PUSH2 0x11F JUMPI DUP1 PUSH4 0x8DA5CB5B EQ PUSH2 0x11A JUMPI DUP1 PUSH4 0xA83FB54F EQ PUSH2 0x115 JUMPI DUP1 PUSH4 0xADA4FA18 EQ PUSH2 0x110 JUMPI DUP1 PUSH4 0xBC2DB5C4 EQ PUSH2 0x10B JUMPI DUP1 PUSH4 0xBF76C032 EQ PUSH2 0x106 JUMPI DUP1 PUSH4 0xCA200AD8 EQ PUSH2 0x101 JUMPI DUP1 PUSH4 0xD55BE8C6 EQ PUSH2 0xFC JUMPI DUP1 PUSH4 0xE74B981B EQ PUSH2 0xF7 JUMPI DUP1 PUSH4 0xEDED1F00 EQ PUSH2 0xF2 JUMPI PUSH4 0xF2FDE38B EQ PUSH2 0xED JUMPI PUSH1 0x0 DUP1 REVERT JUMPDEST PUSH2 0xC30 JUMP JUMPDEST PUSH2 0xBF4 JUMP JUMPDEST PUSH2 0xB66 JUMP JUMPDEST PUSH2 0xB49 JUMP JUMPDEST PUSH2 0xAB3 JUMP JUMPDEST PUSH2 0x8A7 JUMP JUMPDEST PUSH2 0x6A4 JUMP JUMPDEST PUSH2 0x657 JUMP JUMPDEST PUSH2 0x538 JUMP JUMPDEST PUSH2 0x50F JUMP JUMPDEST PUSH2 0x40E JUMP JUMPDEST PUSH2 0x36C JUMP JUMPDEST PUSH2 0x30F JUMP JUMPDEST PUSH2 0x2F6 JUMP JUMPDEST PUSH2 0x2CD JUMP JUMPDEST PUSH2 0x2A4 JUMP JUMPDEST PUSH2 0x281 JUMP JUMPDEST PUSH2 0x232 JUMP JUMPDEST PUSH2 0x18F JUMP JUMPDEST SWAP2 DUP2 PUSH1 0x1F DUP5 ADD SLT ISZERO PUSH2 0x17C JUMPI DUP3 CALLDATALOAD SWAP2 PUSH1 0x1 PUSH1 0x1 PUSH1 0x40 SHL SUB DUP4 GT PUSH2 0x17C JUMPI PUSH1 0x20 DUP1 DUP6 ADD SWAP5 DUP5 PUSH1 0x5 SHL ADD ADD GT PUSH2 0x17C JUMPI JUMP JUMPDEST PUSH1 0x0 DUP1 REVERT JUMPDEST SWAP1 DUP2 PUSH1 0xE0 SWAP2 SUB SLT PUSH2 0x17C JUMPI SWAP1 JUMP JUMPDEST PUSH1 0x80 CALLDATASIZE PUSH1 0x3 NOT ADD SLT PUSH2 0x17C JUMPI PUSH1 0x4 CALLDATALOAD PUSH1 0x1 PUSH1 0x1 PUSH1 0x40 SHL SUB DUP2 GT PUSH2 0x17C JUMPI PUSH2 0x1BA SWAP1 CALLDATASIZE SWAP1 PUSH1 0x4 ADD PUSH2 0x14C JUMP JUMPDEST PUSH1 0x24 CALLDATALOAD PUSH1 0x1 PUSH1 0x1 PUSH1 0x40 SHL SUB DUP2 GT PUSH2 0x17C JUMPI PUSH2 0x1D9 SWAP1 CALLDATASIZE SWAP1 PUSH1 0x4 ADD PUSH2 0x181 JUMP JUMPDEST SWAP2 PUSH1 0x44 CALLDATALOAD PUSH1 0x1 PUSH1 0x1 PUSH1 0x40 SHL SUB DUP2 GT PUSH2 0x17C JUMPI PUSH2 0x1F9 SWAP1 CALLDATASIZE SWAP1 PUSH1 0x4 ADD PUSH2 0x14C JUMP JUMPDEST SWAP1 PUSH1 0x64 CALLDATALOAD SWAP5 PUSH1 0x1 PUSH1 0x1 PUSH1 0x40 SHL SUB DUP7 GT PUSH2 0x17C JUMPI PUSH2 0x21D PUSH2 0x225 SWAP7 CALLDATASIZE SWAP1 PUSH1 0x4 ADD PUSH2 0x14C JUMP JUMPDEST SWAP6 SWAP1 SWAP5 PUSH2 0xD01 JUMP JUMPDEST STOP JUMPDEST PUSH1 0x0 SWAP2 SUB SLT PUSH2 0x17C JUMPI JUMP JUMPDEST CALLVALUE PUSH2 0x17C JUMPI PUSH1 0x0 CALLDATASIZE PUSH1 0x3 NOT ADD SLT PUSH2 0x17C JUMPI PUSH1 0x20 PUSH1 0x6 SLOAD PUSH1 0x40 MLOAD SWAP1 DUP2 MSTORE RETURN JUMPDEST PUSH1 0x40 PUSH1 0x3 NOT DUP3 ADD SLT PUSH2 0x17C JUMPI PUSH1 0x4 CALLDATALOAD SWAP1 PUSH1 0x1 PUSH1 0x1 PUSH1 0x40 SHL SUB DUP3 GT PUSH2 0x17C JUMPI PUSH2 0x27A SWAP2 PUSH1 0x4 ADD PUSH2 0x181 JUMP JUMPDEST SWAP1 PUSH1 0x24 CALLDATALOAD SWAP1 JUMP JUMPDEST CALLVALUE PUSH2 0x17C JUMPI PUSH1 0x20 PUSH2 0x29A PUSH2 0x294 CALLDATASIZE PUSH2 0x250 JUMP JUMPDEST SWAP1 PUSH2 0x11F1 JUMP JUMPDEST PUSH1 0x40 MLOAD SWAP1 ISZERO ISZERO DUP2 MSTORE RETURN JUMPDEST CALLVALUE PUSH2 0x17C JUMPI PUSH1 0x0 CALLDATASIZE PUSH1 0x3 NOT ADD SLT PUSH2 0x17C JUMPI PUSH1 0x4 SLOAD PUSH1 0x40 MLOAD PUSH1 0x1 PUSH1 0x1 PUSH1 0xA0 SHL SUB SWAP1 SWAP2 AND DUP2 MSTORE PUSH1 0x20 SWAP1 RETURN JUMPDEST CALLVALUE PUSH2 0x17C JUMPI PUSH1 0x0 CALLDATASIZE PUSH1 0x3 NOT ADD SLT PUSH2 0x17C JUMPI PUSH1 0x5 SLOAD PUSH1 0x40 MLOAD PUSH1 0x1 PUSH1 0x1 PUSH1 0xA0 SHL SUB SWAP1 SWAP2 AND DUP2 MSTORE PUSH1 0x20 SWAP1 RETURN JUMPDEST CALLVALUE PUSH2 0x17C JUMPI PUSH1 0x20 PUSH2 0x29A PUSH2 0x309 CALLDATASIZE PUSH2 0x250 JUMP JUMPDEST SWAP1 PUSH2 0x121A JUMP JUMPDEST CALLVALUE PUSH2 0x17C JUMPI PUSH1 0x0 CALLDATASIZE PUSH1 0x3 NOT ADD SLT PUSH2 0x17C JUMPI PUSH2 0x328 PUSH2 0x206E JUMP JUMPDEST PUSH1 0x1 DUP1 SLOAD PUSH1 0x1 PUSH1 0x1 PUSH1 0xA0 SHL SUB NOT DUP2 AND SWAP1 SWAP2 SSTORE PUSH1 0x0 SWAP1 PUSH1 0x1 PUSH1 0x1 PUSH1 0xA0 SHL SUB AND PUSH32 0x8BE0079C531659141344CD1FD0A4F28419497F9722A3DAAFE3B4186F6B6457E0 DUP3 DUP1 LOG3 STOP JUMPDEST CALLVALUE PUSH2 0x17C JUMPI PUSH1 0x20 CALLDATASIZE PUSH1 0x3 NOT ADD SLT PUSH2 0x17C JUMPI PUSH1 0x4 CALLDATALOAD PUSH2 0x388 PUSH2 0x206E JUMP JUMPDEST PUSH2 0x2710 DUP2 GT PUSH2 0x396 JUMPI PUSH1 0x6 SSTORE STOP JUMPDEST PUSH1 0x40 MLOAD PUSH3 0x461BCD PUSH1 0xE5 SHL DUP2 MSTORE PUSH1 0x20 PUSH1 0x4 DUP3 ADD MSTORE PUSH1 0xF PUSH1 0x24 DUP3 ADD MSTORE PUSH15 0x496E76616C69642066656520425053 PUSH1 0x88 SHL PUSH1 0x44 DUP3 ADD MSTORE PUSH1 0x64 SWAP1 REVERT JUMPDEST SWAP2 SWAP1 DUP3 MLOAD SWAP3 DUP4 DUP3 MSTORE PUSH1 0x0 JUMPDEST DUP5 DUP2 LT PUSH2 0x3F9 JUMPI POP POP DUP3 PUSH1 0x0 PUSH1 0x20 DUP1 SWAP5 SWAP6 DUP5 ADD ADD MSTORE PUSH1 0x1F DUP1 NOT SWAP2 ADD AND ADD ADD SWAP1 JUMP JUMPDEST DUP1 PUSH1 0x20 DUP1 SWAP3 DUP5 ADD ADD MLOAD DUP3 DUP3 DUP7 ADD ADD MSTORE ADD PUSH2 0x3D8 JUMP JUMPDEST CALLVALUE PUSH2 0x17C JUMPI PUSH1 0x0 CALLDATASIZE PUSH1 0x3 NOT ADD SLT PUSH2 0x17C JUMPI PUSH2 0x4B4 PUSH2 0x44B PUSH32 0x0 PUSH2 0x20C6 JUMP JUMPDEST PUSH2 0x474 PUSH32 0x0 PUSH2 0x21B0 JUMP JUMPDEST PUSH1 0x20 PUSH1 0x40 MLOAD PUSH2 0x483 DUP3 DUP3 PUSH2 0x1125 JUMP JUMPDEST PUSH1 0x0 DUP2 MSTORE DUP2 PUSH2 0x4C2 DUP2 DUP4 ADD SWAP5 PUSH1 0x1F NOT DUP4 ADD CALLDATASIZE DUP8 CALLDATACOPY PUSH1 0x40 MLOAD SWAP8 DUP9 SWAP8 PUSH1 0xF PUSH1 0xF8 SHL DUP10 MSTORE PUSH1 0xE0 DUP6 DUP11 ADD MSTORE PUSH1 0xE0 DUP10 ADD SWAP1 PUSH2 0x3CD JUMP JUMPDEST SWAP1 DUP8 DUP3 SUB PUSH1 0x40 DUP10 ADD MSTORE PUSH2 0x3CD JUMP JUMPDEST SWAP2 CHAINID PUSH1 0x60 DUP8 ADD MSTORE ADDRESS PUSH1 0x80 DUP8 ADD MSTORE PUSH1 0x0 PUSH1 0xA0 DUP8 ADD MSTORE DUP6 DUP4 SUB PUSH1 0xC0 DUP8 ADD MSTORE MLOAD SWAP2 DUP3 DUP2 MSTORE ADD SWAP3 SWAP2 PUSH1 0x0 JUMPDEST DUP3 DUP2 LT PUSH2 0x4F8 JUMPI POP POP POP POP SUB SWAP1 RETURN JUMPDEST DUP4 MLOAD DUP6 MSTORE DUP7 SWAP6 POP SWAP4 DUP2 ADD SWAP4 SWAP3 DUP2 ADD SWAP3 PUSH1 0x1 ADD PUSH2 0x4E9 JUMP JUMPDEST CALLVALUE PUSH2 0x17C JUMPI PUSH1 0x0 CALLDATASIZE PUSH1 0x3 NOT ADD SLT PUSH2 0x17C JUMPI PUSH1 0x1 SLOAD PUSH1 0x40 MLOAD PUSH1 0x1 PUSH1 0x1 PUSH1 0xA0 SHL SUB SWAP1 SWAP2 AND DUP2 MSTORE PUSH1 0x20 SWAP1 RETURN JUMPDEST CALLVALUE PUSH2 0x17C JUMPI PUSH2 0x546 CALLDATASIZE PUSH2 0x250 JUMP JUMPDEST PUSH2 0x54E PUSH2 0x1482 JUMP JUMPDEST PUSH2 0x55F PUSH2 0x55A DUP4 PUSH2 0x19B8 JUMP JUMPDEST PUSH2 0x25C4 JUMP JUMPDEST SWAP2 PUSH2 0x569 DUP2 PUSH2 0x23AB JUMP JUMPDEST PUSH1 0x40 DUP2 ADD CALLDATALOAD PUSH2 0x577 DUP2 PUSH2 0xA95 JUMP JUMPDEST PUSH1 0x1 PUSH1 0x1 PUSH1 0xA0 SHL SUB AND CALLER SUB PUSH2 0x61A JUMPI DUP2 PUSH2 0x5BB PUSH2 0x5B6 PUSH2 0x5A8 DUP4 DUP6 PUSH2 0x5B1 PUSH2 0x5AC PUSH2 0x5A8 PUSH2 0x5EB SWAP11 PUSH2 0x5DE SWAP11 PUSH2 0x121A JUMP JUMPDEST ISZERO SWAP1 JUMP JUMPDEST PUSH2 0x1270 JUMP JUMPDEST PUSH2 0x11F1 JUMP JUMPDEST PUSH2 0x12B3 JUMP JUMPDEST PUSH2 0x5CF DUP5 PUSH1 0x0 MSTORE PUSH1 0x8 PUSH1 0x20 MSTORE PUSH1 0x40 PUSH1 0x0 KECCAK256 SWAP1 JUMP JUMPDEST SWAP1 PUSH1 0x0 MSTORE PUSH1 0x20 MSTORE PUSH1 0x40 PUSH1 0x0 KECCAK256 SWAP1 JUMP JUMPDEST DUP1 SLOAD PUSH1 0xFF NOT AND PUSH1 0x1 OR SWAP1 SSTORE JUMP JUMPDEST PUSH32 0x42C76C81A7CBA1B9C861353909A184E20747AB960332628DABCBB5852FC5CBB5 PUSH1 0x0 DUP1 LOG2 PUSH2 0x225 PUSH1 0x1 PUSH1 0x0 SSTORE JUMP JUMPDEST PUSH1 0x40 MLOAD PUSH3 0x461BCD PUSH1 0xE5 SHL DUP2 MSTORE PUSH1 0x20 PUSH1 0x4 DUP3 ADD MSTORE PUSH1 0x15 PUSH1 0x24 DUP3 ADD MSTORE PUSH21 0x13DB9B1E481B585AD95C8818D85B8818D85B98D95B PUSH1 0x5A SHL PUSH1 0x44 DUP3 ADD MSTORE PUSH1 0x64 SWAP1 REVERT JUMPDEST CALLVALUE PUSH2 0x17C JUMPI PUSH1 0x60 CALLDATASIZE PUSH1 0x3 NOT ADD SLT PUSH2 0x17C JUMPI PUSH1 0x4 CALLDATALOAD PUSH1 0x1 PUSH1 0x1 PUSH1 0x40 SHL SUB DUP2 GT PUSH2 0x17C JUMPI PUSH2 0x29A PUSH2 0x68C PUSH1 0x20 SWAP3 CALLDATASIZE SWAP1 PUSH1 0x4 ADD PUSH2 0x14C JUMP JUMPDEST SWAP1 PUSH2 0x69F PUSH1 0x24 CALLDATALOAD SWAP2 PUSH1 0x44 CALLDATALOAD SWAP4 CALLDATASIZE SWAP2 PUSH2 0x12FF JUMP JUMPDEST PUSH2 0x2493 JUMP JUMPDEST PUSH1 0x60 CALLDATASIZE PUSH1 0x3 NOT ADD SLT PUSH2 0x17C JUMPI PUSH1 0x4 CALLDATALOAD PUSH1 0x1 PUSH1 0x1 PUSH1 0x40 SHL SUB DUP2 GT PUSH2 0x17C JUMPI PUSH2 0x6CF SWAP1 CALLDATASIZE SWAP1 PUSH1 0x4 ADD PUSH2 0x181 JUMP JUMPDEST PUSH1 0x24 CALLDATALOAD SWAP1 PUSH1 0x44 CALLDATALOAD SWAP1 PUSH2 0x6DF PUSH2 0x1482 JUMP JUMPDEST PUSH2 0x6FA PUSH2 0x6EB DUP3 PUSH2 0x10BA JUMP JUMPDEST PUSH2 0x6F4 DUP2 PUSH2 0x10AB JUMP JUMPDEST ISZERO PUSH2 0x134B JUMP JUMPDEST PUSH2 0x855 PUSH2 0x79A PUSH1 0x40 PUSH2 0x70B DUP5 PUSH2 0x19B8 JUMP JUMPDEST SWAP4 PUSH2 0x715 DUP2 PUSH2 0x23AB JUMP JUMPDEST PUSH2 0x787 PUSH2 0x737 PUSH2 0x732 DUP10 PUSH2 0x72C PUSH1 0x20 DUP7 ADD DUP7 PUSH2 0x103B JUMP JUMPDEST SWAP1 PUSH2 0x107A JUMP JUMPDEST PUSH2 0x1428 JUMP JUMPDEST SWAP8 PUSH2 0x773 PUSH2 0x763 PUSH1 0x60 DUP12 MLOAD ADD MLOAD PUSH2 0x75C DUP5 PUSH2 0x5CF DUP13 PUSH1 0x0 MSTORE PUSH1 0x7 PUSH1 0x20 MSTORE PUSH1 0x40 PUSH1 0x0 KECCAK256 SWAP1 JUMP JUMPDEST SLOAD SWAP1 PUSH2 0x1433 JUMP JUMPDEST DUP10 ISZERO ISZERO SWAP1 DUP2 PUSH2 0x89C JUMPI JUMPDEST POP PUSH2 0x1440 JUMP JUMPDEST PUSH2 0x5CF DUP8 PUSH1 0x0 MSTORE PUSH1 0x7 PUSH1 0x20 MSTORE PUSH1 0x40 PUSH1 0x0 KECCAK256 SWAP1 JUMP JUMPDEST PUSH2 0x792 DUP8 DUP3 SLOAD PUSH2 0x1193 JUMP JUMPDEST SWAP1 SSTORE ADD PUSH2 0x10C7 JUMP JUMPDEST SWAP4 PUSH2 0x84E PUSH1 0x20 PUSH2 0x7AA DUP4 MLOAD PUSH2 0x1170 JUMP JUMPDEST DUP4 MLOAD DUP3 DUP2 ADD MLOAD SWAP2 SWAP5 SWAP2 PUSH2 0x7E8 SWAP1 PUSH1 0x40 SWAP1 PUSH1 0x1 PUSH1 0x1 PUSH1 0xA0 SHL SUB AND SWAP3 ADD MLOAD SWAP2 PUSH2 0x7D9 PUSH2 0x7D2 PUSH2 0x1146 JUMP JUMPDEST SWAP8 DUP9 PUSH2 0x1164 JUMP JUMPDEST PUSH1 0x1 PUSH1 0x1 PUSH1 0xA0 SHL SUB AND DUP7 DUP6 ADD MSTORE JUMP JUMPDEST PUSH1 0x40 DUP6 ADD MSTORE DUP7 PUSH1 0x60 DUP6 ADD MSTORE ADD SWAP2 PUSH2 0x7FF DUP4 MLOAD PUSH2 0x1170 JUMP JUMPDEST SWAP3 MLOAD PUSH1 0x20 DUP2 ADD MLOAD PUSH2 0x83C SWAP1 PUSH1 0x40 SWAP1 PUSH1 0x1 PUSH1 0x1 PUSH1 0xA0 SHL SUB AND SWAP3 ADD MLOAD SWAP2 PUSH2 0x82C PUSH2 0x825 PUSH2 0x1146 JUMP JUMPDEST SWAP7 DUP8 PUSH2 0x1164 JUMP JUMPDEST PUSH1 0x1 PUSH1 0x1 PUSH1 0xA0 SHL SUB AND PUSH1 0x20 DUP7 ADD MSTORE JUMP JUMPDEST PUSH1 0x40 DUP5 ADD MSTORE DUP6 PUSH1 0x60 DUP5 ADD MSTORE CALLER DUP8 PUSH2 0x1CF3 JUMP JUMPDEST DUP5 CALLER PUSH2 0x1CF3 JUMP JUMPDEST PUSH1 0x40 MLOAD SWAP2 DUP3 MSTORE CALLER SWAP3 PUSH1 0x1 PUSH1 0x1 PUSH1 0xA0 SHL SUB AND SWAP2 PUSH32 0x2B2BE5BDC62AAF8DBE8A0FFAC99E7335C8D1245AA56D1D50E01FC21177FB2277 SWAP1 DUP1 PUSH1 0x20 DUP2 ADD JUMPDEST SUB SWAP1 LOG4 PUSH2 0x225 PUSH1 0x1 PUSH1 0x0 SSTORE JUMP JUMPDEST SWAP1 POP DUP10 GT ISZERO CODESIZE PUSH2 0x76D JUMP JUMPDEST PUSH1 0x80 CALLDATASIZE PUSH1 0x3 NOT ADD SLT PUSH2 0x17C JUMPI PUSH1 0x4 CALLDATALOAD PUSH1 0x1 PUSH1 0x1 PUSH1 0x40 SHL SUB DUP2 GT PUSH2 0x17C JUMPI PUSH2 0x8D2 SWAP1 CALLDATASIZE SWAP1 PUSH1 0x4 ADD PUSH2 0x181 JUMP JUMPDEST PUSH1 0x24 CALLDATALOAD PUSH1 0x1 PUSH1 0x1 PUSH1 0x40 SHL SUB DUP2 GT PUSH2 0x17C JUMPI PUSH2 0x8F1 SWAP1 CALLDATASIZE SWAP1 PUSH1 0x4 ADD PUSH2 0x181 JUMP JUMPDEST SWAP1 PUSH1 0x44 CALLDATALOAD SWAP1 PUSH1 0x64 CALLDATALOAD SWAP1 PUSH1 0x1 PUSH1 0x1 PUSH1 0x40 SHL SUB DUP3 GT PUSH2 0x17C JUMPI PUSH2 0x88F DUP5 PUSH2 0xA61 PUSH2 0x9CB PUSH1 0x40 PUSH2 0x9C4 DUP2 PUSH32 0x2B2BE5BDC62AAF8DBE8A0FFAC99E7335C8D1245AA56D1D50E01FC21177FB2277 SWAP8 PUSH2 0x949 DUP8 SWAP11 CALLDATASIZE SWAP1 PUSH1 0x4 ADD PUSH2 0x14C JUMP JUMPDEST PUSH2 0x951 PUSH2 0x1482 JUMP JUMPDEST PUSH2 0x984 DUP14 PUSH2 0x97D PUSH2 0x977 PUSH2 0x96C DUP4 PUSH2 0x72C PUSH1 0x20 DUP11 ADD DUP11 PUSH2 0x103B JUMP JUMPDEST SWAP13 PUSH1 0x20 DUP2 ADD SWAP1 PUSH2 0x103B JUMP JUMPDEST SWAP1 PUSH2 0x1071 JUMP JUMPDEST SWAP14 DUP6 PUSH2 0x1762 JUMP JUMPDEST PUSH1 0x2 PUSH2 0x98F DUP5 PUSH2 0x10BA JUMP JUMPDEST PUSH2 0x998 DUP2 PUSH2 0x10AB JUMP JUMPDEST EQ PUSH2 0xA7F JUMPI JUMPDEST POP POP PUSH2 0x9BE PUSH1 0xE0 PUSH2 0x9AE DUP4 PUSH2 0x19B8 JUMP JUMPDEST SWAP12 ADD CALLDATALOAD SWAP12 PUSH1 0x60 DUP10 ADD CALLDATALOAD DUP14 DUP14 PUSH2 0x1A8A JUMP JUMPDEST ADD PUSH2 0x10C7 JUMP JUMPDEST SWAP9 ADD PUSH2 0x10C7 JUMP JUMPDEST SWAP2 PUSH2 0xA5A PUSH2 0x9D8 DUP3 PUSH2 0x10E5 JUMP JUMPDEST SWAP2 PUSH2 0x9E5 PUSH1 0x20 DUP3 ADD PUSH2 0x10C7 JUMP JUMPDEST PUSH2 0x9F9 PUSH1 0x40 DUP4 ADD CALLDATALOAD SWAP2 PUSH2 0x82C PUSH2 0x825 PUSH2 0x1146 JUMP JUMPDEST PUSH1 0x40 DUP5 ADD MSTORE DUP9 PUSH1 0x60 DUP5 ADD MSTORE PUSH2 0xA10 PUSH1 0x80 DUP3 ADD PUSH2 0x10E5 JUMP JUMPDEST SWAP1 PUSH2 0xA48 PUSH1 0xC0 PUSH2 0xA22 PUSH1 0xA0 DUP5 ADD PUSH2 0x10C7 JUMP JUMPDEST SWAP3 ADD CALLDATALOAD SWAP2 PUSH2 0xA38 PUSH2 0xA31 PUSH2 0x1146 JUMP JUMPDEST SWAP5 DUP6 PUSH2 0x1164 JUMP JUMPDEST PUSH1 0x1 PUSH1 0x1 PUSH1 0xA0 SHL SUB AND PUSH1 0x20 DUP5 ADD MSTORE JUMP JUMPDEST PUSH1 0x40 DUP3 ADD MSTORE DUP9 PUSH1 0x60 DUP3 ADD MSTORE DUP10 DUP6 PUSH2 0x1CF3 JUMP JUMPDEST DUP3 DUP9 PUSH2 0x1CF3 JUMP JUMPDEST PUSH1 0x40 MLOAD SWAP5 DUP6 MSTORE PUSH1 0x1 PUSH1 0x1 PUSH1 0xA0 SHL SUB SWAP1 DUP2 AND SWAP6 AND SWAP4 SWAP1 DUP2 SWAP1 PUSH1 0x20 DUP3 ADD SWAP1 JUMP JUMPDEST PUSH2 0xA8E SWAP2 PUSH1 0x80 DUP5 ADD CALLDATALOAD DUP11 PUSH2 0x187E JUMP JUMPDEST CODESIZE DUP1 PUSH2 0x99E JUMP JUMPDEST PUSH1 0x1 PUSH1 0x1 PUSH1 0xA0 SHL SUB DUP2 AND SUB PUSH2 0x17C JUMPI JUMP JUMPDEST CALLDATALOAD SWAP1 PUSH2 0xAB1 DUP3 PUSH2 0xA95 JUMP JUMPDEST JUMP JUMPDEST CALLVALUE PUSH2 0x17C JUMPI PUSH1 0x20 CALLDATASIZE PUSH1 0x3 NOT ADD SLT PUSH2 0x17C JUMPI PUSH1 0x4 CALLDATALOAD PUSH2 0xAD0 DUP2 PUSH2 0xA95 JUMP JUMPDEST PUSH2 0xAD8 PUSH2 0x206E JUMP JUMPDEST PUSH1 0x1 PUSH1 0x1 PUSH1 0xA0 SHL SUB AND DUP1 ISZERO PUSH2 0xB04 JUMPI PUSH12 0xFFFFFFFFFFFFFFFFFFFFFFFF PUSH1 0xA0 SHL PUSH1 0x5 SLOAD AND OR PUSH1 0x5 SSTORE PUSH1 0x0 DUP1 RETURN JUMPDEST PUSH1 0x40 MLOAD PUSH3 0x461BCD PUSH1 0xE5 SHL DUP2 MSTORE PUSH1 0x20 PUSH1 0x4 DUP3 ADD MSTORE PUSH1 0x1C PUSH1 0x24 DUP3 ADD MSTORE PUSH32 0x496E76616C6964206173736574207472616E73666572206167656E7400000000 PUSH1 0x44 DUP3 ADD MSTORE PUSH1 0x64 SWAP1 REVERT JUMPDEST CALLVALUE PUSH2 0x17C JUMPI PUSH1 0x0 CALLDATASIZE PUSH1 0x3 NOT ADD SLT PUSH2 0x17C JUMPI PUSH1 0x20 PUSH1 0x40 MLOAD PUSH2 0x2710 DUP2 MSTORE RETURN JUMPDEST CALLVALUE PUSH2 0x17C JUMPI PUSH1 0x20 CALLDATASIZE PUSH1 0x3 NOT ADD SLT PUSH2 0x17C JUMPI PUSH1 0x4 CALLDATALOAD PUSH2 0xB83 DUP2 PUSH2 0xA95 JUMP JUMPDEST PUSH2 0xB8B PUSH2 0x206E JUMP JUMPDEST PUSH1 0x1 PUSH1 0x1 PUSH1 0xA0 SHL SUB AND DUP1 ISZERO PUSH2 0xBB7 JUMPI PUSH12 0xFFFFFFFFFFFFFFFFFFFFFFFF PUSH1 0xA0 SHL PUSH1 0x4 SLOAD AND OR PUSH1 0x4 SSTORE PUSH1 0x0 DUP1 RETURN JUMPDEST PUSH1 0x40 MLOAD PUSH3 0x461BCD PUSH1 0xE5 SHL DUP2 MSTORE PUSH1 0x20 PUSH1 0x4 DUP3 ADD MSTORE PUSH1 0x15 PUSH1 0x24 DUP3 ADD MSTORE PUSH21 0x125B9D985B1A5908199959481C9958DA5C1A595B9D PUSH1 0x5A SHL PUSH1 0x44 DUP3 ADD MSTORE PUSH1 0x64 SWAP1 REVERT JUMPDEST CALLVALUE PUSH2 0x17C JUMPI PUSH1 0x40 CALLDATASIZE PUSH1 0x3 NOT ADD SLT PUSH2 0x17C JUMPI PUSH1 0x4 CALLDATALOAD PUSH1 0x24 CALLDATALOAD SWAP1 PUSH1 0x0 MSTORE PUSH1 0x7 PUSH1 0x20 MSTORE PUSH1 0x40 PUSH1 0x0 KECCAK256 SWAP1 PUSH1 0x0 MSTORE PUSH1 0x20 MSTORE PUSH1 0x20 PUSH1 0x40 PUSH1 0x0 KECCAK256 SLOAD PUSH1 0x40 MLOAD SWAP1 DUP2 MSTORE RETURN JUMPDEST CALLVALUE PUSH2 0x17C JUMPI PUSH1 0x20 CALLDATASIZE PUSH1 0x3 NOT ADD SLT PUSH2 0x17C JUMPI PUSH1 0x4 CALLDATALOAD PUSH2 0xC4D DUP2 PUSH2 0xA95 JUMP JUMPDEST PUSH2 0xC55 PUSH2 0x206E JUMP JUMPDEST PUSH1 0x1 PUSH1 0x1 PUSH1 0xA0 SHL SUB DUP2 AND ISZERO PUSH2 0xCAD JUMPI PUSH1 0x1 DUP1 SLOAD PUSH1 0x1 PUSH1 0x1 PUSH1 0xA0 SHL SUB SWAP3 DUP4 AND PUSH1 0x1 PUSH1 0x1 PUSH1 0xA0 SHL SUB NOT DUP3 AND DUP2 OR SWAP1 SWAP3 SSTORE SWAP1 SWAP2 AND PUSH32 0x8BE0079C531659141344CD1FD0A4F28419497F9722A3DAAFE3B4186F6B6457E0 PUSH1 0x0 DUP1 LOG3 STOP JUMPDEST PUSH1 0x40 MLOAD PUSH3 0x461BCD PUSH1 0xE5 SHL DUP2 MSTORE PUSH1 0x20 PUSH1 0x4 DUP3 ADD MSTORE PUSH1 0x26 PUSH1 0x24 DUP3 ADD MSTORE PUSH32 0x4F776E61626C653A206E6577206F776E657220697320746865207A65726F2061 PUSH1 0x44 DUP3 ADD MSTORE PUSH6 0x646472657373 PUSH1 0xD0 SHL PUSH1 0x64 DUP3 ADD MSTORE PUSH1 0x84 SWAP1 REVERT JUMPDEST SWAP5 SWAP6 SWAP1 SWAP2 SWAP4 SWAP3 SWAP6 PUSH2 0xD10 PUSH2 0x1482 JUMP JUMPDEST PUSH2 0xD1B DUP5 DUP5 EQ PUSH2 0xF27 JUMP JUMPDEST PUSH2 0xD26 DUP3 DUP5 EQ PUSH2 0xF65 JUMP JUMPDEST PUSH1 0x0 SWAP7 PUSH1 0x20 DUP7 ADD SWAP4 DUP9 JUMPDEST DUP2 DUP2 LT PUSH2 0xD63 JUMPI POP POP POP POP POP POP POP POP POP DUP1 PUSH2 0xD51 JUMPI JUMPDEST POP PUSH2 0xAB1 PUSH1 0x1 PUSH1 0x0 SSTORE JUMP JUMPDEST PUSH2 0xD5D SWAP1 CALLVALUE LT ISZERO PUSH2 0x11A5 JUMP JUMPDEST CODESIZE PUSH2 0xD46 JUMP JUMPDEST DUP6 PUSH2 0xD6F DUP3 DUP5 DUP13 PUSH2 0xFC0 JUMP JUMPDEST DUP10 PUSH2 0xDF1 PUSH1 0x40 PUSH2 0xD80 DUP7 DUP14 DUP11 PUSH2 0xFE7 JUMP JUMPDEST CALLDATALOAD SWAP4 PUSH2 0xD8D DUP8 DUP13 DUP13 PUSH2 0xFF7 JUMP JUMPDEST PUSH2 0xDB7 DUP8 PUSH2 0xDB0 DUP12 PUSH2 0x72C PUSH2 0xDA9 DUP5 PUSH2 0x72C PUSH1 0x20 DUP12 ADD DUP12 PUSH2 0x103B JUMP JUMPDEST SWAP13 DUP12 PUSH2 0x103B JUMP JUMPDEST SWAP8 DUP6 PUSH2 0x1762 JUMP JUMPDEST PUSH1 0x2 PUSH2 0xDC2 DUP5 PUSH2 0x10BA JUMP JUMPDEST PUSH2 0xDCB DUP2 PUSH2 0x10AB JUMP JUMPDEST EQ PUSH2 0xF11 JUMPI JUMPDEST POP POP PUSH2 0x9BE PUSH1 0xE0 PUSH2 0xDE1 DUP4 PUSH2 0x19B8 JUMP JUMPDEST SWAP6 ADD CALLDATALOAD SWAP6 PUSH1 0x60 DUP9 ADD CALLDATALOAD DUP8 DUP8 PUSH2 0x1A8A JUMP JUMPDEST SWAP3 PUSH2 0xDFE PUSH1 0x40 DUP14 ADD PUSH2 0x10C7 JUMP JUMPDEST SWAP1 PUSH2 0xE08 DUP2 PUSH2 0x10E5 JUMP JUMPDEST SWAP1 PUSH2 0xE15 PUSH1 0x20 DUP3 ADD PUSH2 0x10C7 JUMP JUMPDEST PUSH2 0xE40 PUSH1 0x40 DUP4 ADD CALLDATALOAD SWAP2 PUSH2 0xE30 PUSH2 0xE29 PUSH2 0x1146 JUMP JUMPDEST SWAP6 DUP7 PUSH2 0x1164 JUMP JUMPDEST PUSH1 0x1 PUSH1 0x1 PUSH1 0xA0 SHL SUB AND PUSH1 0x20 DUP6 ADD MSTORE JUMP JUMPDEST PUSH1 0x40 DUP4 ADD MSTORE DUP5 PUSH1 0x60 DUP4 ADD MSTORE PUSH2 0xE57 PUSH1 0x80 DUP3 ADD PUSH2 0x10E5 JUMP JUMPDEST SWAP1 PUSH2 0xE69 PUSH1 0xC0 PUSH2 0xA22 PUSH1 0xA0 DUP5 ADD PUSH2 0x10C7 JUMP JUMPDEST PUSH1 0x40 DUP3 ADD MSTORE DUP5 PUSH1 0x60 DUP3 ADD MSTORE DUP1 MLOAD PUSH2 0xE7F DUP2 PUSH2 0x10DB JUMP JUMPDEST PUSH2 0xE88 DUP2 PUSH2 0x10DB JUMP JUMPDEST ISZERO PUSH2 0xEEF JUMPI JUMPDEST DUP3 PUSH2 0xEC8 PUSH32 0x2B2BE5BDC62AAF8DBE8A0FFAC99E7335C8D1245AA56D1D50E01FC21177FB2277 SWAP4 PUSH2 0xA5A PUSH2 0xEE6 SWAP5 DUP11 PUSH1 0x1 SWAP13 SWAP12 SWAP11 SWAP10 SWAP9 PUSH2 0x1CF3 JUMP JUMPDEST PUSH1 0x40 MLOAD SWAP5 DUP6 MSTORE PUSH1 0xA0 DUP9 SWAP1 SHL DUP9 SWAP1 SUB SWAP1 DUP2 AND SWAP6 AND SWAP4 SWAP1 DUP2 SWAP1 PUSH1 0x20 DUP3 ADD SWAP1 JUMP JUMPDEST SUB SWAP1 LOG4 ADD PUSH2 0xD30 JUMP JUMPDEST SWAP15 DUP16 PUSH1 0x60 SWAP1 SWAP8 SWAP7 SWAP6 SWAP5 SWAP4 SWAP8 ADD MLOAD PUSH2 0xF05 SWAP2 PUSH2 0x1193 JUMP JUMPDEST SWAP15 SWAP6 SWAP2 SWAP3 SWAP4 SWAP5 SWAP6 PUSH2 0xE8E JUMP JUMPDEST PUSH2 0xF20 SWAP2 PUSH1 0x80 DUP5 ADD CALLDATALOAD DUP10 PUSH2 0x187E JUMP JUMPDEST CODESIZE DUP1 PUSH2 0xDD1 JUMP JUMPDEST ISZERO PUSH2 0xF2E JUMPI JUMP JUMPDEST PUSH1 0x40 MLOAD PUSH3 0x461BCD PUSH1 0xE5 SHL DUP2 MSTORE PUSH1 0x20 PUSH1 0x4 DUP3 ADD MSTORE PUSH1 0xF PUSH1 0x24 DUP3 ADD MSTORE PUSH15 0x98CADCCEE8D040DAD2E6DAC2E8C6D PUSH1 0x8B SHL PUSH1 0x44 DUP3 ADD MSTORE PUSH1 0x64 SWAP1 REVERT JUMPDEST ISZERO PUSH2 0xF6C JUMPI JUMP JUMPDEST PUSH1 0x40 MLOAD PUSH3 0x461BCD PUSH1 0xE5 SHL DUP2 MSTORE PUSH1 0x20 PUSH1 0x4 DUP3 ADD MSTORE PUSH1 0x16 PUSH1 0x24 DUP3 ADD MSTORE PUSH22 0xA0E4DEDECCE640D8CADCCEE8D040DAD2E6DAC2E8C6D PUSH1 0x53 SHL PUSH1 0x44 DUP3 ADD MSTORE PUSH1 0x64 SWAP1 REVERT JUMPDEST PUSH4 0x4E487B71 PUSH1 0xE0 SHL PUSH1 0x0 MSTORE PUSH1 0x32 PUSH1 0x4 MSTORE PUSH1 0x24 PUSH1 0x0 REVERT JUMPDEST SWAP2 SWAP1 DUP2 LT ISZERO PUSH2 0xFE2 JUMPI PUSH1 0x5 SHL DUP2 ADD CALLDATALOAD SWAP1 PUSH1 0xDE NOT DUP2 CALLDATASIZE SUB ADD DUP3 SLT ISZERO PUSH2 0x17C JUMPI ADD SWAP1 JUMP JUMPDEST PUSH2 0xFAA JUMP JUMPDEST SWAP2 SWAP1 DUP2 LT ISZERO PUSH2 0xFE2 JUMPI PUSH1 0x5 SHL ADD SWAP1 JUMP JUMPDEST SWAP2 SWAP1 DUP2 LT ISZERO PUSH2 0xFE2 JUMPI PUSH1 0x5 SHL DUP2 ADD CALLDATALOAD SWAP1 PUSH1 0x1E NOT DUP2 CALLDATASIZE SUB ADD DUP3 SLT ISZERO PUSH2 0x17C JUMPI ADD SWAP1 DUP2 CALLDATALOAD SWAP2 PUSH1 0x1 PUSH1 0x1 PUSH1 0x40 SHL SUB DUP4 GT PUSH2 0x17C JUMPI PUSH1 0x20 ADD DUP3 PUSH1 0x5 SHL CALLDATASIZE SUB DUP2 SGT PUSH2 0x17C JUMPI SWAP2 SWAP1 JUMP JUMPDEST SWAP1 CALLDATALOAD SWAP1 PUSH1 0x1E NOT DUP2 CALLDATASIZE SUB ADD DUP3 SLT ISZERO PUSH2 0x17C JUMPI ADD DUP1 CALLDATALOAD SWAP1 PUSH1 0x1 PUSH1 0x1 PUSH1 0x40 SHL SUB DUP3 GT PUSH2 0x17C JUMPI PUSH1 0x20 ADD SWAP2 PUSH2 0x140 DUP3 MUL CALLDATASIZE SUB DUP4 SGT PUSH2 0x17C JUMPI JUMP JUMPDEST SWAP1 ISZERO PUSH2 0xFE2 JUMPI SWAP1 JUMP JUMPDEST SWAP2 SWAP1 DUP2 LT ISZERO PUSH2 0xFE2 JUMPI PUSH2 0x140 MUL ADD SWAP1 JUMP JUMPDEST PUSH1 0x3 GT ISZERO PUSH2 0x17C JUMPI JUMP JUMPDEST PUSH4 0x4E487B71 PUSH1 0xE0 SHL PUSH1 0x0 MSTORE PUSH1 0x21 PUSH1 0x4 MSTORE PUSH1 0x24 PUSH1 0x0 REVERT JUMPDEST PUSH1 0x3 GT ISZERO PUSH2 0x10B5 JUMPI JUMP JUMPDEST PUSH2 0x1095 JUMP JUMPDEST CALLDATALOAD PUSH2 0x10C4 DUP2 PUSH2 0x108B JUMP JUMPDEST SWAP1 JUMP JUMPDEST CALLDATALOAD PUSH2 0x10C4 DUP2 PUSH2 0xA95 JUMP JUMPDEST PUSH1 0x4 GT ISZERO PUSH2 0x17C JUMPI JUMP JUMPDEST PUSH1 0x4 GT ISZERO PUSH2 0x10B5 JUMPI JUMP JUMPDEST CALLDATALOAD PUSH2 0x10C4 DUP2 PUSH2 0x10D1 JUMP JUMPDEST PUSH4 0x4E487B71 PUSH1 0xE0 SHL PUSH1 0x0 MSTORE PUSH1 0x41 PUSH1 0x4 MSTORE PUSH1 0x24 PUSH1 0x0 REVERT JUMPDEST PUSH1 0x80 DUP2 ADD SWAP1 DUP2 LT PUSH1 0x1 PUSH1 0x1 PUSH1 0x40 SHL SUB DUP3 GT OR PUSH2 0x1120 JUMPI PUSH1 0x40 MSTORE JUMP JUMPDEST PUSH2 0x10EF JUMP JUMPDEST SWAP1 PUSH1 0x1F DUP1 NOT SWAP2 ADD AND DUP2 ADD SWAP1 DUP2 LT PUSH1 0x1 PUSH1 0x1 PUSH1 0x40 SHL SUB DUP3 GT OR PUSH2 0x1120 JUMPI PUSH1 0x40 MSTORE JUMP JUMPDEST PUSH1 0x40 MLOAD SWAP1 PUSH2 0xAB1 PUSH1 0x80 DUP4 PUSH2 0x1125 JUMP JUMPDEST PUSH1 0x40 MLOAD SWAP1 PUSH2 0xAB1 PUSH1 0xE0 DUP4 PUSH2 0x1125 JUMP JUMPDEST PUSH1 0x4 DUP3 LT ISZERO PUSH2 0x10B5 JUMPI MSTORE JUMP JUMPDEST MLOAD PUSH1 0x4 DUP2 LT ISZERO PUSH2 0x10B5 JUMPI SWAP1 JUMP JUMPDEST PUSH4 0x4E487B71 PUSH1 0xE0 SHL PUSH1 0x0 MSTORE PUSH1 0x11 PUSH1 0x4 MSTORE PUSH1 0x24 PUSH1 0x0 REVERT JUMPDEST SWAP2 SWAP1 DUP3 ADD DUP1 SWAP3 GT PUSH2 0x11A0 JUMPI JUMP JUMPDEST PUSH2 0x117D JUMP JUMPDEST ISZERO PUSH2 0x11AC JUMPI JUMP JUMPDEST PUSH1 0x40 MLOAD PUSH3 0x461BCD PUSH1 0xE5 SHL DUP2 MSTORE PUSH1 0x20 PUSH1 0x4 DUP3 ADD MSTORE PUSH1 0x1C PUSH1 0x24 DUP3 ADD MSTORE PUSH32 0x496E73756666696369656E7420746F74616C206D73672E76616C756500000000 PUSH1 0x44 DUP3 ADD MSTORE PUSH1 0x64 SWAP1 REVERT JUMPDEST PUSH2 0x11FA SWAP1 PUSH2 0x19B8 JUMP JUMPDEST PUSH1 0x0 MSTORE PUSH1 0x8 PUSH1 0x20 MSTORE PUSH1 0x40 PUSH1 0x0 KECCAK256 SWAP1 PUSH1 0x0 MSTORE PUSH1 0x20 MSTORE PUSH1 0xFF PUSH1 0x40 PUSH1 0x0 KECCAK256 SLOAD AND SWAP1 JUMP JUMPDEST SWAP1 PUSH2 0x1252 PUSH1 0x60 SWAP2 PUSH2 0x122A DUP5 PUSH2 0x19B8 JUMP JUMPDEST PUSH1 0x0 MSTORE PUSH1 0x7 PUSH1 0x20 MSTORE PUSH1 0x40 PUSH1 0x0 KECCAK256 DUP2 PUSH1 0x0 MSTORE PUSH1 0x20 MSTORE PUSH2 0x72C PUSH1 0x40 PUSH1 0x0 KECCAK256 SLOAD SWAP5 PUSH1 0x20 DUP2 ADD SWAP1 PUSH2 0x103B JUMP JUMPDEST ADD CALLDATALOAD GT ISZERO SWAP1 JUMP JUMPDEST PUSH1 0x1 PUSH1 0x1 PUSH1 0x40 SHL SUB DUP2 GT PUSH2 0x1120 JUMPI PUSH1 0x5 SHL PUSH1 0x20 ADD SWAP1 JUMP JUMPDEST ISZERO PUSH2 0x1277 JUMPI JUMP JUMPDEST PUSH1 0x40 MLOAD PUSH3 0x461BCD PUSH1 0xE5 SHL DUP2 MSTORE PUSH1 0x20 PUSH1 0x4 DUP3 ADD MSTORE PUSH1 0x14 PUSH1 0x24 DUP3 ADD MSTORE PUSH20 0x13DC99195C88185B1C9958591E48199A5B1B1959 PUSH1 0x62 SHL PUSH1 0x44 DUP3 ADD MSTORE PUSH1 0x64 SWAP1 REVERT JUMPDEST ISZERO PUSH2 0x12BA JUMPI JUMP JUMPDEST PUSH1 0x40 MLOAD PUSH3 0x461BCD PUSH1 0xE5 SHL DUP2 MSTORE PUSH1 0x20 PUSH1 0x4 DUP3 ADD MSTORE PUSH1 0x17 PUSH1 0x24 DUP3 ADD MSTORE PUSH32 0x4F7264657220616C72656164792063616E63656C6C6564000000000000000000 PUSH1 0x44 DUP3 ADD MSTORE PUSH1 0x64 SWAP1 REVERT JUMPDEST SWAP3 SWAP2 SWAP1 PUSH2 0x130B DUP2 PUSH2 0x1259 JUMP JUMPDEST SWAP4 PUSH2 0x1319 PUSH1 0x40 MLOAD SWAP6 DUP7 PUSH2 0x1125 JUMP JUMPDEST PUSH1 0x20 DUP6 DUP4 DUP2 MSTORE ADD SWAP2 PUSH1 0x5 SHL DUP2 ADD SWAP3 DUP4 GT PUSH2 0x17C JUMPI SWAP1 JUMPDEST DUP3 DUP3 LT PUSH2 0x133B JUMPI POP POP POP JUMP JUMPDEST DUP2 CALLDATALOAD DUP2 MSTORE PUSH1 0x20 SWAP2 DUP3 ADD SWAP2 ADD PUSH2 0x132F JUMP JUMPDEST ISZERO PUSH2 0x1352 JUMPI JUMP JUMPDEST PUSH1 0x40 MLOAD PUSH3 0x461BCD PUSH1 0xE5 SHL DUP2 MSTORE PUSH1 0x20 PUSH1 0x4 DUP3 ADD MSTORE PUSH1 0xF PUSH1 0x24 DUP3 ADD MSTORE PUSH15 0x2737BA1030903134B21037B93232B9 PUSH1 0x89 SHL PUSH1 0x44 DUP3 ADD MSTORE PUSH1 0x64 SWAP1 REVERT JUMPDEST SWAP2 SWAP1 DUP3 PUSH1 0x80 SWAP2 SUB SLT PUSH2 0x17C JUMPI PUSH1 0x40 MLOAD PUSH2 0x13A1 DUP2 PUSH2 0x1105 JUMP JUMPDEST PUSH1 0x60 DUP1 DUP3 SWAP5 DUP1 CALLDATALOAD PUSH2 0x13B1 DUP2 PUSH2 0x10D1 JUMP JUMPDEST DUP5 MSTORE PUSH1 0x20 DUP2 ADD CALLDATALOAD PUSH2 0x13C1 DUP2 PUSH2 0xA95 JUMP JUMPDEST PUSH1 0x20 DUP6 ADD MSTORE PUSH1 0x40 DUP2 ADD CALLDATALOAD PUSH1 0x40 DUP6 ADD MSTORE ADD CALLDATALOAD SWAP2 ADD MSTORE JUMP JUMPDEST SWAP2 SWAP1 SWAP2 PUSH2 0x140 DUP2 DUP5 SUB SLT PUSH2 0x17C JUMPI PUSH1 0x60 PUSH2 0x120 PUSH1 0x40 MLOAD SWAP3 PUSH2 0x13F7 DUP5 PUSH2 0x1105 JUMP JUMPDEST PUSH2 0x1411 DUP5 SWAP7 PUSH2 0x1406 DUP2 DUP5 PUSH2 0x1389 JUMP JUMPDEST DUP7 MSTORE PUSH1 0x80 DUP4 ADD PUSH2 0x1389 JUMP JUMPDEST PUSH1 0x20 DUP6 ADD MSTORE PUSH2 0x100 DUP2 ADD CALLDATALOAD PUSH1 0x40 DUP6 ADD MSTORE ADD CALLDATALOAD SWAP2 ADD MSTORE JUMP JUMPDEST PUSH2 0x10C4 SWAP1 CALLDATASIZE SWAP1 PUSH2 0x13D7 JUMP JUMPDEST SWAP2 SWAP1 DUP3 SUB SWAP2 DUP3 GT PUSH2 0x11A0 JUMPI JUMP JUMPDEST ISZERO PUSH2 0x1447 JUMPI JUMP JUMPDEST PUSH1 0x40 MLOAD PUSH3 0x461BCD PUSH1 0xE5 SHL DUP2 MSTORE PUSH1 0x20 PUSH1 0x4 DUP3 ADD MSTORE PUSH1 0x13 PUSH1 0x24 DUP3 ADD MSTORE PUSH19 0x125B9D985B1A59081CD95B1B08185B5BDD5B9D PUSH1 0x6A SHL PUSH1 0x44 DUP3 ADD MSTORE PUSH1 0x64 SWAP1 REVERT JUMPDEST PUSH1 0x2 PUSH1 0x0 SLOAD EQ PUSH2 0x1493 JUMPI PUSH1 0x2 PUSH1 0x0 SSTORE JUMP JUMPDEST PUSH1 0x40 MLOAD PUSH3 0x461BCD PUSH1 0xE5 SHL DUP2 MSTORE PUSH1 0x20 PUSH1 0x4 DUP3 ADD MSTORE PUSH1 0x1F PUSH1 0x24 DUP3 ADD MSTORE PUSH32 0x5265656E7472616E637947756172643A207265656E7472616E742063616C6C00 PUSH1 0x44 DUP3 ADD MSTORE PUSH1 0x64 SWAP1 REVERT JUMPDEST ISZERO PUSH2 0x14DF JUMPI JUMP JUMPDEST PUSH1 0x40 MLOAD PUSH3 0x461BCD PUSH1 0xE5 SHL DUP2 MSTORE PUSH1 0x20 PUSH1 0x4 DUP3 ADD MSTORE PUSH1 0x13 PUSH1 0x24 DUP3 ADD MSTORE PUSH19 0x29B2B73232B91034B9903737BA103A30B5B2B9 PUSH1 0x69 SHL PUSH1 0x44 DUP3 ADD MSTORE PUSH1 0x64 SWAP1 REVERT JUMPDEST ISZERO PUSH2 0x1521 JUMPI JUMP JUMPDEST PUSH1 0x40 MLOAD PUSH3 0x461BCD PUSH1 0xE5 SHL DUP2 MSTORE PUSH1 0x20 PUSH1 0x4 DUP3 ADD MSTORE PUSH1 0x12 PUSH1 0x24 DUP3 ADD MSTORE PUSH18 0x13585AD95C881BDC99195C88199A5B1B1959 PUSH1 0x72 SHL PUSH1 0x44 DUP3 ADD MSTORE PUSH1 0x64 SWAP1 REVERT JUMPDEST ISZERO PUSH2 0x1562 JUMPI JUMP JUMPDEST PUSH1 0x40 MLOAD PUSH3 0x461BCD PUSH1 0xE5 SHL DUP2 MSTORE PUSH1 0x20 PUSH1 0x4 DUP3 ADD MSTORE PUSH1 0x15 PUSH1 0x24 DUP3 ADD MSTORE PUSH21 0x13585AD95C881BDC99195C8818D85B98D95B1B1959 PUSH1 0x5A SHL PUSH1 0x44 DUP3 ADD MSTORE PUSH1 0x64 SWAP1 REVERT JUMPDEST CALLDATALOAD SWAP1 PUSH2 0xAB1 DUP3 PUSH2 0x108B JUMP JUMPDEST DUP2 PUSH1 0x1F DUP3 ADD SLT ISZERO PUSH2 0x17C JUMPI DUP1 CALLDATALOAD PUSH2 0x15C0 DUP2 PUSH2 0x1259 JUMP JUMPDEST SWAP3 PUSH2 0x15CE PUSH1 0x40 MLOAD SWAP5 DUP6 PUSH2 0x1125 JUMP JUMPDEST DUP2 DUP5 MSTORE PUSH1 0x20 PUSH2 0x140 DUP2 DUP7 ADD SWAP4 MUL DUP5 ADD ADD SWAP3 DUP2 DUP5 GT PUSH2 0x17C JUMPI PUSH1 0x20 ADD SWAP2 JUMPDEST DUP4 DUP4 LT PUSH2 0x15F9 JUMPI POP POP POP POP SWAP1 JUMP JUMPDEST PUSH1 0x20 PUSH2 0x140 SWAP2 PUSH2 0x1609 DUP5 DUP7 PUSH2 0x13D7 JUMP JUMPDEST DUP2 MSTORE ADD SWAP3 ADD SWAP2 PUSH2 0x15EB JUMP JUMPDEST PUSH1 0x1 PUSH1 0x1 PUSH1 0x40 SHL SUB DUP2 GT PUSH2 0x1120 JUMPI PUSH1 0x1F ADD PUSH1 0x1F NOT AND PUSH1 0x20 ADD SWAP1 JUMP JUMPDEST SWAP3 SWAP2 SWAP3 PUSH2 0x163B DUP3 PUSH2 0x1614 JUMP JUMPDEST SWAP2 PUSH2 0x1649 PUSH1 0x40 MLOAD SWAP4 DUP5 PUSH2 0x1125 JUMP JUMPDEST DUP3 SWAP5 DUP2 DUP5 MSTORE DUP2 DUP4 ADD GT PUSH2 0x17C JUMPI DUP3 DUP2 PUSH1 0x20 SWAP4 DUP5 PUSH1 0x0 SWAP7 ADD CALLDATACOPY ADD ADD MSTORE JUMP JUMPDEST SWAP1 DUP1 PUSH1 0x1F DUP4 ADD SLT ISZERO PUSH2 0x17C JUMPI DUP2 PUSH1 0x20 PUSH2 0x10C4 SWAP4 CALLDATALOAD SWAP2 ADD PUSH2 0x162F JUMP JUMPDEST SWAP2 SWAP1 SWAP2 PUSH1 0xE0 DUP2 DUP5 SUB SLT PUSH2 0x17C JUMPI PUSH2 0x1696 PUSH2 0x1155 JUMP JUMPDEST SWAP3 PUSH2 0x16A0 DUP3 PUSH2 0x159F JUMP JUMPDEST DUP5 MSTORE PUSH1 0x20 DUP3 ADD CALLDATALOAD PUSH1 0x1 PUSH1 0x1 PUSH1 0x40 SHL SUB DUP2 GT PUSH2 0x17C JUMPI DUP2 PUSH2 0x16C1 SWAP2 DUP5 ADD PUSH2 0x15AA JUMP JUMPDEST PUSH1 0x20 DUP6 ADD MSTORE PUSH2 0x16D2 PUSH1 0x40 DUP4 ADD PUSH2 0xAA6 JUMP JUMPDEST PUSH1 0x40 DUP6 ADD MSTORE PUSH2 0x16E3 PUSH1 0x60 DUP4 ADD PUSH2 0xAA6 JUMP JUMPDEST PUSH1 0x60 DUP6 ADD MSTORE PUSH1 0x80 DUP3 ADD CALLDATALOAD PUSH1 0x80 DUP6 ADD MSTORE PUSH1 0xA0 DUP3 ADD CALLDATALOAD PUSH1 0xA0 DUP6 ADD MSTORE PUSH1 0xC0 DUP3 ADD CALLDATALOAD PUSH1 0x1 PUSH1 0x1 PUSH1 0x40 SHL SUB DUP2 GT PUSH2 0x17C JUMPI PUSH2 0x1719 SWAP3 ADD PUSH2 0x1666 JUMP JUMPDEST PUSH1 0xC0 DUP4 ADD MSTORE JUMP JUMPDEST ISZERO PUSH2 0x1727 JUMPI JUMP JUMPDEST PUSH1 0x40 MLOAD PUSH3 0x461BCD PUSH1 0xE5 SHL DUP2 MSTORE PUSH1 0x20 PUSH1 0x4 DUP3 ADD MSTORE PUSH1 0x13 PUSH1 0x24 DUP3 ADD MSTORE PUSH19 0x13585AD95C881BDC99195C88195E1C1A5C9959 PUSH1 0x6A SHL PUSH1 0x44 DUP3 ADD MSTORE PUSH1 0x64 SWAP1 REVERT JUMPDEST SWAP2 SWAP1 PUSH2 0x176D DUP4 PUSH2 0x23AB JUMP JUMPDEST PUSH2 0x177E DUP3 PUSH2 0x72C PUSH1 0x20 DUP7 ADD DUP7 PUSH2 0x103B JUMP JUMPDEST SWAP2 PUSH2 0x178C PUSH1 0x20 DUP4 ADD DUP4 PUSH2 0x103B JUMP JUMPDEST ISZERO PUSH2 0xFE2 JUMPI PUSH1 0x40 DUP6 ADD CALLDATALOAD PUSH2 0x179F DUP2 PUSH2 0xA95 JUMP JUMPDEST PUSH1 0x60 DUP5 ADD CALLDATALOAD PUSH2 0x17AD DUP2 PUSH2 0xA95 JUMP JUMPDEST PUSH1 0x1 PUSH1 0x1 PUSH1 0xA0 SHL SUB SWAP1 DUP2 AND SWAP2 AND SUB PUSH2 0x1840 JUMPI PUSH2 0xAB1 SWAP5 PUSH2 0x1805 PUSH2 0x17FE PUSH2 0x17F2 PUSH1 0x40 PUSH2 0x5A8 SWAP8 PUSH2 0x9BE DUP11 PUSH1 0x80 DUP10 PUSH2 0x17EB PUSH2 0x1836 SWAP12 PUSH2 0x183B SWAP16 DUP5 ADD PUSH2 0x2744 JUMP JUMPDEST ADD SWAP1 PUSH2 0x2744 JUMP JUMPDEST PUSH1 0x1 PUSH1 0x1 PUSH1 0xA0 SHL SUB AND SWAP1 JUMP JUMPDEST CALLER EQ PUSH2 0x14D8 JUMP JUMPDEST PUSH2 0x181A PUSH2 0x1815 PUSH2 0x5A8 DUP6 DUP5 PUSH2 0x121A JUMP JUMPDEST PUSH2 0x151A JUMP JUMPDEST PUSH2 0x182F PUSH2 0x182A PUSH2 0x5A8 DUP6 DUP5 PUSH2 0x11F1 JUMP JUMPDEST PUSH2 0x155B JUMP JUMPDEST CALLDATASIZE SWAP1 PUSH2 0x1681 JUMP JUMPDEST PUSH2 0x24EA JUMP JUMPDEST PUSH2 0x1720 JUMP JUMPDEST PUSH1 0x40 MLOAD PUSH3 0x461BCD PUSH1 0xE5 SHL DUP2 MSTORE PUSH1 0x20 PUSH1 0x4 DUP3 ADD MSTORE PUSH1 0x16 PUSH1 0x24 DUP3 ADD MSTORE PUSH22 0x2A30B5B2B91036BAB9BA1036B0BA31B41036B0B5B2B9 PUSH1 0x51 SHL PUSH1 0x44 DUP3 ADD MSTORE PUSH1 0x64 SWAP1 REVERT JUMPDEST PUSH2 0x1897 SWAP4 SWAP3 PUSH2 0x188F PUSH2 0x69F SWAP3 PUSH2 0x2502 JUMP JUMPDEST SWAP4 CALLDATASIZE SWAP2 PUSH2 0x12FF JUMP JUMPDEST ISZERO PUSH2 0x189E JUMPI JUMP JUMPDEST PUSH1 0x40 MLOAD PUSH3 0x461BCD PUSH1 0xE5 SHL DUP2 MSTORE PUSH1 0x20 PUSH1 0x4 DUP3 ADD MSTORE PUSH1 0x14 PUSH1 0x24 DUP3 ADD MSTORE PUSH20 0x24B73B30B634B21026B2B935B63290383937B7B3 PUSH1 0x61 SHL PUSH1 0x44 DUP3 ADD MSTORE PUSH1 0x64 SWAP1 REVERT JUMPDEST SWAP1 PUSH2 0x18E4 DUP3 PUSH2 0x1259 JUMP JUMPDEST PUSH2 0x18F1 PUSH1 0x40 MLOAD SWAP2 DUP3 PUSH2 0x1125 JUMP JUMPDEST DUP3 DUP2 MSTORE DUP1 SWAP3 PUSH2 0x1902 PUSH1 0x1F NOT SWAP2 PUSH2 0x1259 JUMP JUMPDEST ADD SWAP1 PUSH1 0x20 CALLDATASIZE SWAP2 ADD CALLDATACOPY JUMP JUMPDEST DUP1 MLOAD DUP3 LT ISZERO PUSH2 0xFE2 JUMPI PUSH1 0x20 SWAP2 PUSH1 0x5 SHL ADD ADD SWAP1 JUMP JUMPDEST DUP1 MLOAD PUSH1 0x20 SWAP1 SWAP2 ADD SWAP1 PUSH1 0x0 JUMPDEST DUP2 DUP2 LT PUSH2 0x1938 JUMPI POP POP POP SWAP1 JUMP JUMPDEST DUP3 MLOAD DUP5 MSTORE PUSH1 0x20 SWAP4 DUP5 ADD SWAP4 SWAP1 SWAP3 ADD SWAP2 PUSH1 0x1 ADD PUSH2 0x192B JUMP JUMPDEST SWAP3 SWAP7 SWAP6 SWAP5 SWAP2 SWAP7 SWAP4 SWAP1 SWAP4 PUSH1 0xE0 DUP5 ADD SWAP8 PUSH32 0x6C8FFD199DDE1E3C1F0D71DAE647C455E0DA36831CCD370E21BB7D22D370959 DUP6 MSTORE PUSH1 0x3 DUP7 LT ISZERO PUSH2 0x10B5 JUMPI PUSH1 0xC0 SWAP6 PUSH1 0x20 DUP7 ADD MSTORE PUSH1 0x40 DUP6 ADD MSTORE PUSH1 0x1 DUP1 PUSH1 0xA0 SHL SUB AND PUSH1 0x60 DUP5 ADD MSTORE PUSH1 0x1 DUP1 PUSH1 0xA0 SHL SUB AND PUSH1 0x80 DUP4 ADD MSTORE PUSH1 0xA0 DUP3 ADD MSTORE ADD MSTORE JUMP JUMPDEST SWAP1 PUSH1 0x20 DUP3 ADD SWAP2 PUSH2 0x19D2 PUSH2 0x19CB DUP5 DUP4 PUSH2 0x103B JUMP JUMPDEST SWAP1 POP PUSH2 0x18DA JUMP JUMPDEST SWAP1 PUSH1 0x0 JUMPDEST PUSH2 0x19E0 DUP6 DUP4 PUSH2 0x103B JUMP JUMPDEST SWAP1 POP DUP2 LT ISZERO PUSH2 0x1A13 JUMPI DUP1 PUSH2 0x1A02 PUSH2 0x19FD PUSH1 0x1 SWAP4 PUSH2 0x72C DUP10 DUP8 PUSH2 0x103B JUMP JUMPDEST PUSH2 0x2502 JUMP JUMPDEST PUSH2 0x1A0C DUP3 DUP7 PUSH2 0x190C JUMP JUMPDEST MSTORE ADD PUSH2 0x19D6 JUMP JUMPDEST POP SWAP2 SWAP3 POP PUSH1 0x40 MLOAD PUSH2 0x1A3A DUP2 PUSH2 0x1A2C PUSH1 0x20 DUP3 ADD DUP1 SWAP6 PUSH2 0x1920 JUMP JUMPDEST SUB PUSH1 0x1F NOT DUP2 ADD DUP4 MSTORE DUP3 PUSH2 0x1125 JUMP JUMPDEST MLOAD SWAP1 KECCAK256 SWAP1 PUSH2 0x1A84 PUSH2 0x1A4A DUP3 PUSH2 0x10BA JUMP JUMPDEST SWAP3 PUSH2 0x1A2C PUSH2 0x1A5A PUSH1 0x40 DUP6 ADD PUSH2 0x10C7 JUMP JUMPDEST SWAP4 PUSH2 0x1A67 PUSH1 0x60 DUP3 ADD PUSH2 0x10C7 JUMP JUMPDEST SWAP1 PUSH1 0xA0 PUSH1 0x80 DUP3 ADD CALLDATALOAD SWAP2 ADD CALLDATALOAD SWAP2 PUSH1 0x40 MLOAD SWAP7 DUP8 SWAP6 PUSH1 0x20 DUP8 ADD SWAP10 DUP11 PUSH2 0x194E JUMP JUMPDEST MLOAD SWAP1 KECCAK256 SWAP1 JUMP JUMPDEST SWAP3 SWAP1 DUP4 PUSH1 0x0 MSTORE PUSH1 0x7 PUSH1 0x20 MSTORE PUSH1 0x40 PUSH1 0x0 KECCAK256 DUP3 PUSH1 0x0 MSTORE PUSH1 0x20 MSTORE PUSH1 0x40 PUSH1 0x0 KECCAK256 SLOAD SWAP3 DUP2 ISZERO ISZERO SWAP1 DUP2 PUSH2 0x1B10 JUMPI JUMPDEST POP ISZERO PUSH2 0x1ADC JUMPI PUSH2 0x1AC8 PUSH2 0x5CF SWAP2 PUSH2 0x1AD9 SWAP5 PUSH2 0x1193 JUMP JUMPDEST SWAP4 PUSH1 0x0 MSTORE PUSH1 0x7 PUSH1 0x20 MSTORE PUSH1 0x40 PUSH1 0x0 KECCAK256 SWAP1 JUMP JUMPDEST SSTORE JUMP JUMPDEST PUSH1 0x40 MLOAD PUSH3 0x461BCD PUSH1 0xE5 SHL DUP2 MSTORE PUSH1 0x20 PUSH1 0x4 DUP3 ADD MSTORE PUSH1 0xC PUSH1 0x24 DUP3 ADD MSTORE PUSH12 0x125B9D985B1A5908199A5B1B PUSH1 0xA2 SHL PUSH1 0x44 DUP3 ADD MSTORE PUSH1 0x64 SWAP1 REVERT JUMPDEST SWAP1 POP DUP2 DUP5 ADD DUP1 DUP6 GT PUSH2 0x11A0 JUMPI GT ISZERO CODESIZE PUSH2 0x1AB2 JUMP JUMPDEST ISZERO PUSH2 0x1B2B JUMPI JUMP JUMPDEST PUSH1 0x40 MLOAD PUSH3 0x461BCD PUSH1 0xE5 SHL DUP2 MSTORE PUSH1 0x20 PUSH1 0x4 DUP3 ADD MSTORE PUSH1 0x15 PUSH1 0x24 DUP3 ADD MSTORE PUSH21 0x119959481C9958DA5C1A595B9D081B9BDD081CD95D PUSH1 0x5A SHL PUSH1 0x44 DUP3 ADD MSTORE PUSH1 0x64 SWAP1 REVERT JUMPDEST ISZERO PUSH2 0x1B6F JUMPI JUMP JUMPDEST PUSH1 0x40 MLOAD PUSH3 0x461BCD PUSH1 0xE5 SHL DUP2 MSTORE PUSH1 0x20 PUSH1 0x4 DUP3 ADD MSTORE PUSH1 0x16 PUSH1 0x24 DUP3 ADD MSTORE PUSH22 0x151C985B9CD9995C881859D95B9D081B9BDD081CD95D PUSH1 0x52 SHL PUSH1 0x44 DUP3 ADD MSTORE PUSH1 0x64 SWAP1 REVERT JUMPDEST PUSH1 0x40 MLOAD RETURNDATASIZE PUSH1 0x0 DUP3 RETURNDATACOPY RETURNDATASIZE SWAP1 REVERT JUMPDEST PUSH1 0x1 PUSH1 0x1 PUSH1 0xA0 SHL SUB SWAP2 DUP3 AND DUP2 MSTORE SWAP2 DUP2 AND PUSH1 0x20 DUP4 ADD MSTORE SWAP1 SWAP2 AND PUSH1 0x40 DUP3 ADD MSTORE PUSH1 0x60 DUP2 ADD SWAP2 SWAP1 SWAP2 MSTORE PUSH1 0x80 ADD SWAP1 JUMP JUMPDEST DUP2 DUP2 MUL SWAP3 SWAP2 DUP2 ISZERO SWAP2 DUP5 DIV EQ OR ISZERO PUSH2 0x11A0 JUMPI JUMP JUMPDEST ISZERO PUSH2 0x1BFE JUMPI JUMP JUMPDEST PUSH1 0x40 MLOAD PUSH3 0x461BCD PUSH1 0xE5 SHL DUP2 MSTORE PUSH1 0x20 PUSH1 0x4 DUP3 ADD MSTORE PUSH1 0x16 PUSH1 0x24 DUP3 ADD MSTORE PUSH22 0x496E73756666696369656E74206D73672E76616C7565 PUSH1 0x50 SHL PUSH1 0x44 DUP3 ADD MSTORE PUSH1 0x64 SWAP1 REVERT JUMPDEST RETURNDATASIZE ISZERO PUSH2 0x1C67 JUMPI RETURNDATASIZE SWAP1 PUSH2 0x1C4D DUP3 PUSH2 0x1614 JUMP JUMPDEST SWAP2 PUSH2 0x1C5B PUSH1 0x40 MLOAD SWAP4 DUP5 PUSH2 0x1125 JUMP JUMPDEST DUP3 MSTORE RETURNDATASIZE PUSH1 0x0 PUSH1 0x20 DUP5 ADD RETURNDATACOPY JUMP JUMPDEST PUSH1 0x60 SWAP1 JUMP JUMPDEST ISZERO PUSH2 0x1C73 JUMPI JUMP JUMPDEST PUSH1 0x40 MLOAD PUSH3 0x461BCD PUSH1 0xE5 SHL DUP2 MSTORE PUSH1 0x20 PUSH1 0x4 DUP3 ADD MSTORE PUSH1 0x13 PUSH1 0x24 DUP3 ADD MSTORE PUSH19 0x119959481D1C985B9CD9995C8819985A5B1959 PUSH1 0x6A SHL PUSH1 0x44 DUP3 ADD MSTORE PUSH1 0x64 SWAP1 REVERT JUMPDEST ISZERO PUSH2 0x1CB5 JUMPI JUMP JUMPDEST PUSH1 0x40 MLOAD PUSH3 0x461BCD PUSH1 0xE5 SHL DUP2 MSTORE PUSH1 0x20 PUSH1 0x4 DUP3 ADD MSTORE PUSH1 0x16 PUSH1 0x24 DUP3 ADD MSTORE PUSH22 0x13985D1A5D99481D1C985B9CD9995C8819985A5B1959 PUSH1 0x52 SHL PUSH1 0x44 DUP3 ADD MSTORE PUSH1 0x64 SWAP1 REVERT JUMPDEST PUSH1 0x4 SLOAD PUSH2 0x1D0A SWAP1 PUSH1 0x1 PUSH1 0x1 PUSH1 0xA0 SHL SUB AND ISZERO ISZERO PUSH2 0x1B24 JUMP JUMPDEST PUSH1 0x5 SLOAD PUSH2 0x1D1F SWAP1 PUSH1 0x1 PUSH1 0x1 PUSH1 0xA0 SHL SUB AND PUSH2 0x17F2 JUMP JUMPDEST PUSH2 0x1D2A DUP2 ISZERO ISZERO PUSH2 0x1B68 JUMP JUMPDEST DUP4 MLOAD PUSH2 0x1D35 DUP2 PUSH2 0x10DB JUMP JUMPDEST PUSH2 0x1D3E DUP2 PUSH2 0x10DB JUMP JUMPDEST PUSH2 0x1DC9 JUMPI POP POP PUSH1 0x0 DUP1 DUP1 DUP1 SWAP4 PUSH1 0x60 PUSH2 0xAB1 SWAP7 ADD SWAP1 PUSH2 0x1D6B PUSH2 0x1D63 DUP4 MLOAD PUSH1 0x6 SLOAD SWAP1 PUSH2 0x1BE4 JUMP JUMPDEST PUSH2 0x2710 SWAP1 DIV SWAP1 JUMP JUMPDEST PUSH2 0x1D83 PUSH2 0x1D79 DUP3 DUP6 MLOAD PUSH2 0x1433 JUMP JUMPDEST SWAP4 MLOAD CALLVALUE LT ISZERO PUSH2 0x1BF7 JUMP JUMPDEST DUP1 PUSH2 0x1D9A JUMPI JUMPDEST POP GAS CALL PUSH2 0x1D94 PUSH2 0x1C3C JUMP JUMPDEST POP PUSH2 0x1CAE JUMP JUMPDEST DUP4 DUP1 DUP1 DUP1 PUSH2 0x1DC3 SWAP5 PUSH2 0x1DB3 PUSH1 0x4 SLOAD PUSH1 0x1 DUP1 PUSH1 0xA0 SHL SUB AND SWAP1 JUMP JUMPDEST GAS CALL PUSH2 0x1DBD PUSH2 0x1C3C JUMP JUMPDEST POP PUSH2 0x1C6C JUMP JUMPDEST CODESIZE PUSH2 0x1D89 JUMP JUMPDEST PUSH1 0x1 DUP5 SWAP4 SWAP3 SWAP4 MLOAD PUSH2 0x1DD9 DUP2 PUSH2 0x10DB JUMP JUMPDEST PUSH2 0x1DE2 DUP2 PUSH2 0x10DB JUMP JUMPDEST SUB PUSH2 0x1F1A JUMPI POP PUSH1 0x60 DUP4 ADD SWAP3 PUSH2 0x1E09 PUSH2 0x1E01 PUSH2 0x1D63 DUP7 MLOAD PUSH1 0x6 SLOAD SWAP1 PUSH2 0x1BE4 JUMP JUMPDEST DUP1 SWAP6 MLOAD PUSH2 0x1433 JUMP JUMPDEST SWAP4 DUP1 PUSH2 0x1E95 JUMPI JUMPDEST POP PUSH1 0x5 SLOAD PUSH2 0x1E3E SWAP1 PUSH1 0x20 SWAP1 PUSH2 0x1E2F SWAP1 PUSH2 0x17F2 SWAP1 PUSH1 0x1 PUSH1 0x1 PUSH1 0xA0 SHL SUB AND DUP2 JUMP JUMPDEST SWAP3 ADD MLOAD PUSH1 0x1 PUSH1 0x1 PUSH1 0xA0 SHL SUB AND SWAP1 JUMP JUMPDEST SWAP3 DUP2 EXTCODESIZE ISZERO PUSH2 0x17C JUMPI PUSH1 0x0 DUP1 SWAP5 PUSH2 0x1E6A PUSH1 0x40 MLOAD SWAP8 DUP9 SWAP7 DUP8 SWAP6 DUP7 SWAP5 PUSH4 0x368FA339 PUSH1 0xE2 SHL DUP7 MSTORE PUSH1 0x4 DUP7 ADD PUSH2 0x1BB9 JUMP JUMPDEST SUB SWAP3 GAS CALL DUP1 ISZERO PUSH2 0x1E90 JUMPI PUSH2 0x1E7B JUMPI POP JUMP JUMPDEST DUP1 PUSH2 0x1E8A PUSH1 0x0 PUSH2 0xAB1 SWAP4 PUSH2 0x1125 JUMP JUMPDEST DUP1 PUSH2 0x227 JUMP JUMPDEST PUSH2 0x1BAD JUMP JUMPDEST PUSH1 0x5 SLOAD PUSH2 0x1EAC SWAP1 PUSH2 0x17F2 SWAP1 PUSH1 0x1 PUSH1 0x1 PUSH1 0xA0 SHL SUB AND DUP2 JUMP JUMPDEST PUSH1 0x20 DUP4 ADD MLOAD PUSH1 0x1 PUSH1 0x1 PUSH1 0xA0 SHL SUB AND PUSH1 0x4 SLOAD SWAP1 SWAP2 SWAP1 PUSH1 0x1 PUSH1 0x1 PUSH1 0xA0 SHL SUB AND SWAP1 DUP1 EXTCODESIZE ISZERO PUSH2 0x17C JUMPI DUP7 PUSH1 0x0 DUP1 SWAP5 PUSH2 0x1EF6 PUSH1 0x40 MLOAD SWAP8 DUP9 SWAP7 DUP8 SWAP6 DUP7 SWAP5 PUSH4 0x368FA339 PUSH1 0xE2 SHL DUP7 MSTORE PUSH1 0x4 DUP7 ADD PUSH2 0x1BB9 JUMP JUMPDEST SUB SWAP3 GAS CALL DUP1 ISZERO PUSH2 0x1E90 JUMPI ISZERO PUSH2 0x1E10 JUMPI DUP1 PUSH2 0x1E8A PUSH1 0x0 PUSH2 0x1F14 SWAP4 PUSH2 0x1125 JUMP JUMPDEST CODESIZE PUSH2 0x1E10 JUMP JUMPDEST PUSH1 0x3 DUP5 SWAP4 SWAP5 MLOAD PUSH2 0x1F29 DUP2 PUSH2 0x10DB JUMP JUMPDEST PUSH2 0x1F32 DUP2 PUSH2 0x10DB JUMP JUMPDEST SUB PUSH2 0x1F8F JUMPI POP PUSH1 0x5 SLOAD PUSH2 0x1F4F SWAP1 PUSH2 0x17F2 SWAP1 PUSH1 0x1 PUSH1 0x1 PUSH1 0xA0 SHL SUB AND DUP2 JUMP JUMPDEST PUSH1 0x20 DUP4 ADD MLOAD PUSH1 0x40 SWAP1 PUSH1 0x1 PUSH1 0x1 PUSH1 0xA0 SHL SUB AND SWAP4 ADD MLOAD SWAP4 DUP2 EXTCODESIZE ISZERO PUSH2 0x17C JUMPI PUSH1 0x0 DUP1 SWAP5 PUSH2 0x1E6A PUSH1 0x40 MLOAD SWAP8 DUP9 SWAP7 DUP8 SWAP6 DUP7 SWAP5 PUSH4 0x3C4FC9FB PUSH1 0xE1 SHL DUP7 MSTORE PUSH1 0x4 DUP7 ADD PUSH2 0x1BB9 JUMP JUMPDEST PUSH1 0x2 DUP4 SWAP5 SWAP4 MLOAD PUSH2 0x1F9E DUP2 PUSH2 0x10DB JUMP JUMPDEST PUSH2 0x1FA7 DUP2 PUSH2 0x10DB JUMP JUMPDEST SUB PUSH2 0x2030 JUMPI PUSH1 0x1 PUSH1 0x1 PUSH1 0xA0 SHL SUB AND PUSH1 0x20 DUP5 ADD MLOAD PUSH1 0x1 PUSH1 0x1 PUSH1 0xA0 SHL SUB AND SWAP3 PUSH1 0x60 PUSH1 0x40 DUP7 ADD MLOAD SWAP6 ADD MLOAD DUP3 EXTCODESIZE ISZERO PUSH2 0x17C JUMPI PUSH1 0x40 MLOAD PUSH4 0x3AB9E1F7 PUSH1 0xE2 SHL DUP2 MSTORE PUSH1 0x1 PUSH1 0x1 PUSH1 0xA0 SHL SUB SWAP6 DUP7 AND PUSH1 0x4 DUP3 ADD MSTORE SWAP2 DUP6 AND PUSH1 0x24 DUP4 ADD MSTORE SWAP3 SWAP1 SWAP4 AND PUSH1 0x44 DUP5 ADD MSTORE PUSH1 0x64 DUP4 ADD SWAP4 SWAP1 SWAP4 MSTORE PUSH1 0x84 DUP3 ADD MSTORE PUSH1 0xC0 PUSH1 0xA4 DUP3 ADD MSTORE PUSH1 0x0 PUSH1 0xC4 DUP3 ADD DUP2 SWAP1 MSTORE SWAP1 SWAP2 DUP3 SWAP1 DUP2 DUP4 DUP2 PUSH1 0xE4 DUP2 ADD PUSH2 0x1E6A JUMP JUMPDEST PUSH1 0x40 MLOAD PUSH3 0x461BCD PUSH1 0xE5 SHL DUP2 MSTORE PUSH1 0x20 PUSH1 0x4 DUP3 ADD MSTORE PUSH1 0x16 PUSH1 0x24 DUP3 ADD MSTORE PUSH22 0x556E737570706F727465642061737365742074797065 PUSH1 0x50 SHL PUSH1 0x44 DUP3 ADD MSTORE PUSH1 0x64 SWAP1 REVERT JUMPDEST PUSH1 0x1 SLOAD PUSH1 0x1 PUSH1 0x1 PUSH1 0xA0 SHL SUB AND CALLER SUB PUSH2 0x2082 JUMPI JUMP JUMPDEST PUSH1 0x64 PUSH1 0x40 MLOAD PUSH3 0x461BCD PUSH1 0xE5 SHL DUP2 MSTORE PUSH1 0x20 PUSH1 0x4 DUP3 ADD MSTORE PUSH1 0x20 PUSH1 0x24 DUP3 ADD MSTORE PUSH32 0x4F776E61626C653A2063616C6C6572206973206E6F7420746865206F776E6572 PUSH1 0x44 DUP3 ADD MSTORE REVERT JUMPDEST PUSH1 0xFF DUP2 EQ PUSH2 0x20D7 JUMPI PUSH2 0x10C4 SWAP1 PUSH2 0x2582 JUMP JUMPDEST POP PUSH1 0x40 MLOAD PUSH1 0x0 PUSH1 0x2 SLOAD SWAP1 DUP2 PUSH1 0x1 SHR SWAP2 PUSH1 0x1 DUP2 AND SWAP1 DUP2 ISZERO PUSH2 0x21A6 JUMPI JUMPDEST PUSH1 0x20 DUP5 LT DUP3 EQ PUSH2 0x2192 JUMPI DUP4 DUP6 MSTORE DUP5 SWAP3 SWAP2 PUSH1 0x20 DUP5 ADD SWAP2 DUP2 ISZERO PUSH2 0x2179 JUMPI POP PUSH1 0x1 EQ PUSH2 0x2123 JUMPI JUMPDEST POP PUSH2 0x10C4 SWAP3 POP SUB DUP3 PUSH2 0x1125 JUMP JUMPDEST PUSH1 0x2 PUSH1 0x0 SWAP1 DUP2 MSTORE SWAP2 POP PUSH32 0x405787FA12A823E0F2B7631CC41B3BA8828B3321CA811111FA75CD3AA3BB5ACE JUMPDEST DUP5 DUP4 LT PUSH2 0x2162 JUMPI POP PUSH2 0x10C4 SWAP4 POP ADD CODESIZE PUSH2 0x2116 JUMP JUMPDEST DUP1 SLOAD DUP3 DUP5 ADD MSTORE DUP6 SWAP4 POP PUSH1 0x20 SWAP1 SWAP3 ADD SWAP2 PUSH1 0x1 ADD PUSH2 0x214E JUMP JUMPDEST PUSH1 0xFF NOT AND DUP3 MSTORE POP PUSH2 0x10C4 SWAP4 ISZERO ISZERO PUSH1 0x5 SHL ADD SWAP1 POP CODESIZE PUSH2 0x2116 JUMP JUMPDEST PUSH4 0x4E487B71 PUSH1 0xE0 SHL DUP4 MSTORE PUSH1 0x22 PUSH1 0x4 MSTORE PUSH1 0x24 DUP4 REVERT JUMPDEST SWAP3 PUSH1 0x7F AND SWAP3 PUSH2 0x20F2 JUMP JUMPDEST PUSH1 0xFF DUP2 EQ PUSH2 0x21C1 JUMPI PUSH2 0x10C4 SWAP1 PUSH2 0x2582 JUMP JUMPDEST POP PUSH1 0x40 MLOAD PUSH1 0x0 PUSH1 0x3 SLOAD SWAP1 DUP2 PUSH1 0x1 SHR SWAP2 PUSH1 0x1 DUP2 AND SWAP1 DUP2 ISZERO PUSH2 0x2262 JUMPI JUMPDEST PUSH1 0x20 DUP5 LT DUP3 EQ PUSH2 0x2192 JUMPI DUP4 DUP6 MSTORE DUP5 SWAP3 SWAP2 PUSH1 0x20 DUP5 ADD SWAP2 DUP2 ISZERO PUSH2 0x2179 JUMPI POP PUSH1 0x1 EQ PUSH2 0x220C JUMPI POP PUSH2 0x10C4 SWAP3 POP SUB DUP3 PUSH2 0x1125 JUMP JUMPDEST PUSH1 0x3 PUSH1 0x0 SWAP1 DUP2 MSTORE SWAP2 POP PUSH32 0xC2575A0E9E593C00F959F8C92F12DB2869C3395A3B0502D05E2516446F71F85B JUMPDEST DUP5 DUP4 LT PUSH2 0x224B JUMPI POP PUSH2 0x10C4 SWAP4 POP ADD CODESIZE PUSH2 0x2116 JUMP JUMPDEST DUP1 SLOAD DUP3 DUP5 ADD MSTORE DUP6 SWAP4 POP PUSH1 0x20 SWAP1 SWAP3 ADD SWAP2 PUSH1 0x1 ADD PUSH2 0x2237 JUMP JUMPDEST SWAP3 PUSH1 0x7F AND SWAP3 PUSH2 0x21DC JUMP JUMPDEST SWAP1 CALLDATALOAD SWAP1 PUSH1 0x1E NOT DUP2 CALLDATASIZE SUB ADD DUP3 SLT ISZERO PUSH2 0x17C JUMPI ADD DUP1 CALLDATALOAD SWAP1 PUSH1 0x1 PUSH1 0x1 PUSH1 0x40 SHL SUB DUP3 GT PUSH2 0x17C JUMPI PUSH1 0x20 ADD SWAP2 DUP2 CALLDATASIZE SUB DUP4 SGT PUSH2 0x17C JUMPI JUMP JUMPDEST ISZERO PUSH2 0x22A5 JUMPI JUMP JUMPDEST PUSH1 0x40 MLOAD PUSH3 0x461BCD PUSH1 0xE5 SHL DUP2 MSTORE PUSH1 0x20 PUSH1 0x4 DUP3 ADD MSTORE PUSH1 0x2A PUSH1 0x24 DUP3 ADD MSTORE PUSH32 0x496E76616C6964207369676E61747572652E204D616B6572206973206E6F7420 PUSH1 0x44 DUP3 ADD MSTORE PUSH10 0x3A34329039B4B3B732B9 PUSH1 0xB1 SHL PUSH1 0x64 DUP3 ADD MSTORE PUSH1 0x84 SWAP1 REVERT JUMPDEST SWAP1 DUP2 PUSH1 0x20 SWAP2 SUB SLT PUSH2 0x17C JUMPI MLOAD PUSH1 0x1 PUSH1 0x1 PUSH1 0xE0 SHL SUB NOT DUP2 AND DUP2 SUB PUSH2 0x17C JUMPI SWAP1 JUMP JUMPDEST SWAP2 SWAP3 PUSH1 0x60 SWAP4 DUP2 SWAP3 DUP5 MSTORE PUSH1 0x40 PUSH1 0x20 DUP6 ADD MSTORE DUP2 PUSH1 0x40 DUP6 ADD MSTORE DUP5 DUP5 ADD CALLDATACOPY PUSH1 0x0 DUP3 DUP3 ADD DUP5 ADD MSTORE PUSH1 0x1F ADD PUSH1 0x1F NOT AND ADD ADD SWAP1 JUMP JUMPDEST ISZERO PUSH2 0x2352 JUMPI JUMP JUMPDEST PUSH1 0x40 MLOAD PUSH3 0x461BCD PUSH1 0xE5 SHL DUP2 MSTORE PUSH1 0x20 PUSH1 0x4 DUP3 ADD MSTORE PUSH1 0x2B PUSH1 0x24 DUP3 ADD MSTORE PUSH32 0x636F6E7472616374206F72646572207369676E61747572652076657269666963 PUSH1 0x44 DUP3 ADD MSTORE PUSH11 0x30BA34B7B71032B93937B9 PUSH1 0xA9 SHL PUSH1 0x64 DUP3 ADD MSTORE PUSH1 0x84 SWAP1 REVERT JUMPDEST PUSH2 0x23B7 PUSH1 0x40 DUP3 ADD PUSH2 0x10C7 JUMP JUMPDEST PUSH2 0x23D1 PUSH2 0x23C6 PUSH2 0x55A DUP5 PUSH2 0x19B8 JUMP JUMPDEST SWAP3 PUSH1 0xC0 DUP2 ADD SWAP1 PUSH2 0x226C JUMP JUMPDEST SWAP3 DUP3 EXTCODESIZE ISZERO PUSH2 0x2466 JUMPI PUSH1 0x40 MLOAD PUSH4 0xB135D3F PUSH1 0xE1 SHL DUP2 MSTORE SWAP4 PUSH1 0x20 SWAP4 DUP6 SWAP4 SWAP1 SWAP3 DUP5 SWAP3 DUP4 SWAP3 PUSH2 0x23FF SWAP3 PUSH1 0x4 DUP6 ADD PUSH2 0x231D JUMP JUMPDEST SUB SWAP2 PUSH1 0x1 PUSH1 0x1 PUSH1 0xA0 SHL SUB AND GAS STATICCALL DUP1 ISZERO PUSH2 0x1E90 JUMPI PUSH2 0xAB1 SWAP2 PUSH1 0x0 SWAP2 PUSH2 0x2437 JUMPI JUMPDEST POP PUSH1 0x1 PUSH1 0x1 PUSH1 0xE0 SHL SUB NOT AND PUSH4 0xB135D3F PUSH1 0xE1 SHL EQ PUSH2 0x234B JUMP JUMPDEST PUSH2 0x2459 SWAP2 POP PUSH1 0x20 RETURNDATASIZE PUSH1 0x20 GT PUSH2 0x245F JUMPI JUMPDEST PUSH2 0x2451 DUP2 DUP4 PUSH2 0x1125 JUMP JUMPDEST DUP2 ADD SWAP1 PUSH2 0x22FD JUMP JUMPDEST CODESIZE PUSH2 0x241E JUMP JUMPDEST POP RETURNDATASIZE PUSH2 0x2447 JUMP JUMPDEST PUSH2 0x17F2 SWAP1 PUSH2 0x247C PUSH2 0x2482 SWAP4 PUSH2 0xAB1 SWAP7 CALLDATASIZE SWAP2 PUSH2 0x162F JUMP JUMPDEST SWAP1 PUSH2 0x25EA JUMP JUMPDEST PUSH1 0x1 PUSH1 0x1 PUSH1 0xA0 SHL SUB SWAP1 SWAP2 AND EQ PUSH2 0x229E JUMP JUMPDEST SWAP3 SWAP1 SWAP2 SWAP1 PUSH1 0x0 SWAP2 JUMPDEST DUP5 MLOAD DUP4 LT ISZERO PUSH2 0x24E2 JUMPI PUSH2 0x24AE DUP4 DUP7 PUSH2 0x190C JUMP JUMPDEST MLOAD SWAP1 PUSH1 0x0 DUP3 DUP3 LT ISZERO PUSH2 0x24D1 JUMPI POP PUSH1 0x0 MSTORE PUSH1 0x20 MSTORE PUSH1 0x1 PUSH1 0x40 PUSH1 0x0 KECCAK256 JUMPDEST SWAP3 ADD SWAP2 PUSH2 0x249B JUMP JUMPDEST PUSH1 0x40 SWAP2 PUSH1 0x1 SWAP4 DUP3 MSTORE PUSH1 0x20 MSTORE KECCAK256 PUSH2 0x24C9 JUMP JUMPDEST SWAP2 POP SWAP3 POP EQ SWAP1 JUMP JUMPDEST PUSH1 0x60 SWAP2 PUSH1 0x20 PUSH2 0x24FA SWAP3 ADD MLOAD PUSH2 0x190C JUMP JUMPDEST MLOAD ADD MLOAD TIMESTAMP GT SWAP1 JUMP JUMPDEST PUSH2 0x2514 PUSH2 0x250F CALLDATASIZE DUP4 PUSH2 0x1389 JUMP JUMPDEST PUSH2 0x27CD JUMP JUMPDEST SWAP1 PUSH2 0x2525 PUSH2 0x250F CALLDATASIZE PUSH1 0x80 DUP5 ADD PUSH2 0x1389 JUMP JUMPDEST SWAP1 PUSH2 0x120 PUSH2 0x100 DUP3 ADD CALLDATALOAD SWAP2 ADD CALLDATALOAD SWAP1 PUSH1 0x40 MLOAD SWAP3 PUSH1 0x20 DUP5 ADD SWAP5 PUSH32 0xE28CFD2E1BCEC04840C1DDB765A2C756CF3E42AEF44E48DDDA10AF78ED9A1C44 DUP7 MSTORE PUSH1 0x40 DUP6 ADD MSTORE PUSH1 0x60 DUP5 ADD MSTORE PUSH1 0x80 DUP4 ADD MSTORE PUSH1 0xA0 DUP3 ADD MSTORE PUSH1 0xA0 DUP2 MSTORE PUSH2 0x1A84 PUSH1 0xC0 DUP3 PUSH2 0x1125 JUMP JUMPDEST PUSH1 0xFF DUP2 AND SWAP1 PUSH1 0x1F DUP3 GT PUSH2 0x25B3 JUMPI PUSH1 0x40 DUP1 MLOAD SWAP3 PUSH2 0x259E DUP3 DUP6 PUSH2 0x1125 JUMP JUMPDEST PUSH1 0x20 DUP1 DUP6 MSTORE DUP5 ADD SWAP2 PUSH1 0x1F NOT ADD CALLDATASIZE DUP4 CALLDATACOPY DUP4 MSTORE MSTORE SWAP1 JUMP JUMPDEST PUSH4 0x2CD44AC3 PUSH1 0xE2 SHL PUSH1 0x0 MSTORE PUSH1 0x4 PUSH1 0x0 REVERT JUMPDEST PUSH1 0x42 SWAP1 PUSH2 0x25CF PUSH2 0x2841 JUMP JUMPDEST SWAP1 PUSH1 0x40 MLOAD SWAP2 PUSH2 0x1901 PUSH1 0xF0 SHL DUP4 MSTORE PUSH1 0x2 DUP4 ADD MSTORE PUSH1 0x22 DUP3 ADD MSTORE KECCAK256 SWAP1 JUMP JUMPDEST PUSH2 0x10C4 SWAP2 PUSH2 0x2623 SWAP2 PUSH32 0x19457468657265756D205369676E6564204D6573736167653A0A333200000000 PUSH1 0x0 MSTORE PUSH1 0x1C MSTORE PUSH1 0x3C PUSH1 0x0 KECCAK256 PUSH2 0x2957 JUMP JUMPDEST SWAP2 SWAP1 SWAP2 PUSH2 0x2999 JUMP JUMPDEST ISZERO PUSH2 0x2632 JUMPI JUMP JUMPDEST PUSH1 0x40 MLOAD PUSH3 0x461BCD PUSH1 0xE5 SHL DUP2 MSTORE PUSH1 0x20 PUSH1 0x4 DUP3 ADD MSTORE PUSH1 0x13 PUSH1 0x24 DUP3 ADD MSTORE PUSH19 0x82E6E6CAE840E8F2E0CA40DAD2E6DAC2E8C6D PUSH1 0x6B SHL PUSH1 0x44 DUP3 ADD MSTORE PUSH1 0x64 SWAP1 REVERT JUMPDEST ISZERO PUSH2 0x2674 JUMPI JUMP JUMPDEST PUSH1 0x40 MLOAD PUSH3 0x461BCD PUSH1 0xE5 SHL DUP2 MSTORE PUSH1 0x20 PUSH1 0x4 DUP3 ADD MSTORE PUSH1 0x19 PUSH1 0x24 DUP3 ADD MSTORE PUSH32 0x436F6E74726163742061646472657373206D69736D6174636800000000000000 PUSH1 0x44 DUP3 ADD MSTORE PUSH1 0x64 SWAP1 REVERT JUMPDEST ISZERO PUSH2 0x26C0 JUMPI JUMP JUMPDEST PUSH1 0x40 MLOAD PUSH3 0x461BCD PUSH1 0xE5 SHL DUP2 MSTORE PUSH1 0x20 PUSH1 0x4 DUP3 ADD MSTORE PUSH1 0x11 PUSH1 0x24 DUP3 ADD MSTORE PUSH17 0x82E6E6CAE840928840DAD2E6DAC2E8C6D PUSH1 0x7B SHL PUSH1 0x44 DUP3 ADD MSTORE PUSH1 0x64 SWAP1 REVERT JUMPDEST ISZERO PUSH2 0x2700 JUMPI JUMP JUMPDEST PUSH1 0x64 PUSH1 0x40 MLOAD PUSH3 0x461BCD PUSH1 0xE5 SHL DUP2 MSTORE PUSH1 0x20 PUSH1 0x4 DUP3 ADD MSTORE PUSH1 0x20 PUSH1 0x24 DUP3 ADD MSTORE PUSH32 0x4F66666572656420616D6F756E74206578636565647320726571756573746564 PUSH1 0x44 DUP3 ADD MSTORE REVERT JUMPDEST DUP1 CALLDATALOAD PUSH2 0x274F DUP2 PUSH2 0x10D1 JUMP JUMPDEST DUP3 CALLDATALOAD PUSH2 0x275A DUP2 PUSH2 0x10D1 JUMP JUMPDEST PUSH1 0x4 DUP2 LT ISZERO PUSH2 0x10B5 JUMPI PUSH1 0x4 DUP3 LT ISZERO PUSH2 0x10B5 JUMPI PUSH2 0xAB1 SWAP4 PUSH2 0x277F PUSH1 0x60 SWAP4 SWAP3 DUP5 SWAP4 EQ PUSH2 0x262B JUMP JUMPDEST PUSH2 0x27AE PUSH2 0x278E PUSH1 0x20 DUP7 ADD PUSH2 0x10C7 JUMP JUMPDEST PUSH2 0x279D PUSH2 0x17F2 PUSH1 0x20 DUP6 ADD PUSH2 0x10C7 JUMP JUMPDEST PUSH1 0x1 PUSH1 0x1 PUSH1 0xA0 SHL SUB SWAP1 SWAP2 AND EQ PUSH2 0x266D JUMP JUMPDEST PUSH2 0x27C1 PUSH1 0x40 DUP6 ADD CALLDATALOAD PUSH1 0x40 DUP4 ADD CALLDATALOAD EQ PUSH2 0x26B9 JUMP JUMPDEST ADD CALLDATALOAD SWAP2 ADD CALLDATALOAD LT ISZERO PUSH2 0x26F9 JUMP JUMPDEST DUP1 MLOAD SWAP1 PUSH1 0x4 DUP3 LT ISZERO PUSH2 0x10B5 JUMPI PUSH1 0x1 DUP1 PUSH1 0xA0 SHL SUB PUSH1 0x20 DUP3 ADD MLOAD AND SWAP1 PUSH1 0x60 PUSH1 0x40 DUP3 ADD MLOAD SWAP2 ADD MLOAD SWAP1 PUSH1 0x40 MLOAD SWAP3 PUSH1 0x20 DUP5 ADD SWAP5 PUSH32 0x6E4F52E5739DBEFD226DCBEFEF0E563115BC2B92726A648E213CB8CDE30B11A6 DUP7 MSTORE PUSH1 0x40 DUP6 ADD MSTORE PUSH1 0x60 DUP5 ADD MSTORE PUSH1 0x80 DUP4 ADD MSTORE PUSH1 0xA0 DUP3 ADD MSTORE PUSH1 0xA0 DUP2 MSTORE PUSH2 0x1A84 PUSH1 0xC0 DUP3 PUSH2 0x1125 JUMP JUMPDEST ADDRESS PUSH32 0x0 PUSH1 0x1 PUSH1 0x1 PUSH1 0xA0 SHL SUB AND EQ DUP1 PUSH2 0x292E JUMPI JUMPDEST ISZERO PUSH2 0x289C JUMPI PUSH32 0x0 SWAP1 JUMP JUMPDEST PUSH1 0x40 MLOAD PUSH1 0x20 DUP2 ADD SWAP1 PUSH32 0x8B73C3C69BB8FE3D512ECC4CF759CC79239F7B179B0FFACAA9A75D522B39400F DUP3 MSTORE PUSH32 0x0 PUSH1 0x40 DUP3 ADD MSTORE PUSH32 0x0 PUSH1 0x60 DUP3 ADD MSTORE CHAINID PUSH1 0x80 DUP3 ADD MSTORE ADDRESS PUSH1 0xA0 DUP3 ADD MSTORE PUSH1 0xA0 DUP2 MSTORE PUSH2 0x1A84 PUSH1 0xC0 DUP3 PUSH2 0x1125 JUMP JUMPDEST POP PUSH32 0x0 CHAINID EQ PUSH2 0x2873 JUMP JUMPDEST SWAP1 PUSH1 0x41 DUP2 MLOAD EQ PUSH1 0x0 EQ PUSH2 0x2985 JUMPI PUSH2 0x2981 SWAP2 PUSH1 0x20 DUP3 ADD MLOAD SWAP1 PUSH1 0x60 PUSH1 0x40 DUP5 ADD MLOAD SWAP4 ADD MLOAD PUSH1 0x0 BYTE SWAP1 PUSH2 0x2AB9 JUMP JUMPDEST SWAP1 SWAP2 JUMP JUMPDEST POP POP PUSH1 0x0 SWAP1 PUSH1 0x2 SWAP1 JUMP JUMPDEST PUSH1 0x5 GT ISZERO PUSH2 0x10B5 JUMPI JUMP JUMPDEST PUSH2 0x29A2 DUP2 PUSH2 0x298F JUMP JUMPDEST DUP1 PUSH2 0x29AA JUMPI POP JUMP JUMPDEST PUSH2 0x29B3 DUP2 PUSH2 0x298F JUMP JUMPDEST PUSH1 0x1 DUP2 SUB PUSH2 0x2A00 JUMPI PUSH1 0x40 MLOAD PUSH3 0x461BCD PUSH1 0xE5 SHL DUP2 MSTORE PUSH1 0x20 PUSH1 0x4 DUP3 ADD MSTORE PUSH1 0x18 PUSH1 0x24 DUP3 ADD MSTORE PUSH32 0x45434453413A20696E76616C6964207369676E61747572650000000000000000 PUSH1 0x44 DUP3 ADD MSTORE PUSH1 0x64 SWAP1 REVERT JUMPDEST PUSH2 0x2A09 DUP2 PUSH2 0x298F JUMP JUMPDEST PUSH1 0x2 DUP2 SUB PUSH2 0x2A56 JUMPI PUSH1 0x40 MLOAD PUSH3 0x461BCD PUSH1 0xE5 SHL DUP2 MSTORE PUSH1 0x20 PUSH1 0x4 DUP3 ADD MSTORE PUSH1 0x1F PUSH1 0x24 DUP3 ADD MSTORE PUSH32 0x45434453413A20696E76616C6964207369676E6174757265206C656E67746800 PUSH1 0x44 DUP3 ADD MSTORE PUSH1 0x64 SWAP1 REVERT JUMPDEST DUP1 PUSH2 0x2A62 PUSH1 0x3 SWAP3 PUSH2 0x298F JUMP JUMPDEST EQ PUSH2 0x2A69 JUMPI JUMP JUMPDEST PUSH1 0x40 MLOAD PUSH3 0x461BCD PUSH1 0xE5 SHL DUP2 MSTORE PUSH1 0x20 PUSH1 0x4 DUP3 ADD MSTORE PUSH1 0x22 PUSH1 0x24 DUP3 ADD MSTORE PUSH32 0x45434453413A20696E76616C6964207369676E6174757265202773272076616C PUSH1 0x44 DUP3 ADD MSTORE PUSH2 0x7565 PUSH1 0xF0 SHL PUSH1 0x64 DUP3 ADD MSTORE PUSH1 0x84 SWAP1 REVERT JUMPDEST PUSH32 0x7FFFFFFFFFFFFFFFFFFFFFFFFFFFFFFF5D576E7357A4501DDFE92F46681B20A0 DUP5 GT PUSH2 0x2B2D JUMPI PUSH1 0x20 SWAP4 PUSH1 0x0 SWAP4 PUSH1 0xFF PUSH1 0x80 SWAP5 PUSH1 0x40 MLOAD SWAP5 DUP6 MSTORE AND DUP7 DUP5 ADD MSTORE PUSH1 0x40 DUP4 ADD MSTORE PUSH1 0x60 DUP3 ADD MSTORE DUP3 DUP1 MSTORE PUSH1 0x1 GAS STATICCALL ISZERO PUSH2 0x1E90 JUMPI PUSH1 0x0 MLOAD PUSH1 0x1 PUSH1 0x1 PUSH1 0xA0 SHL SUB DUP2 AND ISZERO PUSH2 0x2B24 JUMPI SWAP1 PUSH1 0x0 SWAP1 JUMP JUMPDEST POP PUSH1 0x0 SWAP1 PUSH1 0x1 SWAP1 JUMP JUMPDEST POP POP POP POP PUSH1 0x0 SWAP1 PUSH1 0x3 SWAP1 JUMP INVALID LOG2 PUSH5 0x6970667358 0x22 SLT KECCAK256 DUP5 SWAP9 TSTORE DUP9 0xDE CALLCODE CREATE 0xCC 0xBF SELFBALANCE GASPRICE DUP4 0xAC 0xCF 0xDE SMOD 0x24 SWAP8 PUSH20 0xDC1CFF6CC855EB0AE7D683269E64736F6C634300 ADDMOD SHR STOP CALLER "},"methodIdentifiers":{"MAX_FEE_BPS()":"d55be8c6","acceptBid((uint8,((uint8,address,uint256,uint256),(uint8,address,uint256,uint256),uint256,uint256)[],address,address,bytes32,uint256,bytes),uint256,uint256)":"bc2db5c4","assetTransferAgent()":"4715399c","batchMatchOrders((uint8,((uint8,address,uint256,uint256),(uint8,address,uint256,uint256),uint256,uint256)[],address,address,bytes32,uint256,bytes)[],(uint8,((uint8,address,uint256,uint256),(uint8,address,uint256,uint256),uint256,uint256)[],address,address,bytes32,uint256,bytes),uint256[],bytes32[][])":"1ef1c7d2","cancelOrder((uint8,((uint8,address,uint256,uint256),(uint8,address,uint256,uint256),uint256,uint256)[],address,address,bytes32,uint256,bytes),uint256)":"a83fb54f","eip712Domain()":"84b0196e","feeBps()":"24a9d853","feeRecipient()":"46904840","isOrderCancelled((uint8,((uint8,address,uint256,uint256),(uint8,address,uint256,uint256),uint256,uint256)[],address,address,bytes32,uint256,bytes),uint256)":"2e1cbea2","isOrderFullyFilled((uint8,((uint8,address,uint256,uint256),(uint8,address,uint256,uint256),uint256,uint256)[],address,address,bytes32,uint256,bytes),uint256)":"703cebfe","matchOrders((uint8,((uint8,address,uint256,uint256),(uint8,address,uint256,uint256),uint256,uint256)[],address,address,bytes32,uint256,bytes),(uint8,((uint8,address,uint256,uint256),(uint8,address,uint256,uint256),uint256,uint256)[],address,address,bytes32,uint256,bytes),uint256,bytes32[])":"bf76c032","orderFillAmount(bytes32,uint256)":"eded1f00","owner()":"8da5cb5b","renounceOwnership()":"715018a6","setAssetTransferAgent(address)":"ca200ad8","setFeeBps(uint256)":"72c27b62","setFeeRecipient(address)":"e74b981b","transferOwnership(address)":"f2fde38b","verifyMerkleProof(bytes32[],bytes32,bytes32)":"ada4fa18"}}}}}