{"contracts/libraries/LibAuction.sol":{"LibAuction":{"abi":[{"inputs":[{"components":[{"internalType":"address","name":"maker","type":"address"},{"components":[{"internalType":"enum LibAsset.AssetType","name":"assetType","type":"LibAsset.AssetType"},{"internalType":"address","name":"contractAddress","type":"address"},{"internalType":"uint256","name":"assetId","type":"uint256"},{"internalType":"uint256","name":"assetAmount","type":"uint256"}],"internalType":"struct LibAsset.Asset","name":"asset","type":"tuple"},{"internalType":"uint256","name":"startPrice","type":"uint256"},{"internalType":"uint256","name":"buyNowPrice","type":"uint256"},{"internalType":"uint256","name":"startTime","type":"uint256"},{"internalType":"uint256","name":"endTime","type":"uint256"},{"internalType":"uint256","name":"salt","type":"uint256"},{"internalType":"bytes","name":"signature","type":"bytes"}],"internalType":"struct LibAuction.Auction","name":"auction","type":"tuple"}],"name":"hash","outputs":[{"internalType":"bytes32","name":"","type":"bytes32"}],"stateMutability":"pure","type":"function"}],"evm":{"bytecode":{"linkReferences":{},"object":"6080806040523460195761032f908161001f823930815050f35b600080fdfe608080604052600436101561001357600080fd5b60003560e01c632689adb21461002857600080fd5b60203660031901126102a85760043567ffffffffffffffff81116102a8578036036101606003198201126102a85761010083019083821067ffffffffffffffff8311176102ad57608091604052610081836004016102e5565b845260231901126102a857604051906080820182811067ffffffffffffffff8211176102ad57604052602481013560048110156102a85782526100c6604482016102e5565b6020830152606481013560408301526084810135606083015260208301918252604083019060a48101358252606084019060c48101358252608085019460e4820135865260a0810190610104830135825260c081019261012481013584526101448101359067ffffffffffffffff82116102a85701366023820112156102a857600481013567ffffffffffffffff81116102ad5760405191610172601f8301601f1916602001846102c3565b81835236602482840101116102a85781600092602460209301838601378301015260e082015260018060a01b03905116945195865160048110156102925760209760018060a01b038982015116906060604082015191015190604051928b8401947f6e4f52e5739dbefd226dcbefef0e563115bc2b92726a648e213cb8cde30b11a6865260408501526060840152608083015260a082015260a0815261021960c0826102c3565b519020945193519051915192519360405195888701977f28afadf97d59fdbf835ed51fa5be1b9f9dbc4728e2c548df94c8d1a87aba23be895260408801526060870152608086015260a085015260c084015260e08301526101008201526101008152610287610120826102c3565b519020604051908152f35b634e487b7160e01b600052602160045260246000fd5b600080fd5b634e487b7160e01b600052604160045260246000fd5b90601f8019910116810190811067ffffffffffffffff8211176102ad57604052565b35906001600160a01b03821682036102a85756fea26469706673582212207ad4414b0ea9c31c1866ae5b1534221bf7e290ca88da56f8b54e0efd822a2fed64736f6c634300081c0033","opcodes":"PUSH1 0x80 DUP1 PUSH1 0x40 MSTORE CALLVALUE PUSH1 0x19 JUMPI PUSH2 0x32F SWAP1 DUP2 PUSH2 0x1F DUP3 CODECOPY ADDRESS DUP2 POP POP RETURN JUMPDEST PUSH1 0x0 DUP1 REVERT INVALID PUSH1 0x80 DUP1 PUSH1 0x40 MSTORE PUSH1 0x4 CALLDATASIZE LT ISZERO PUSH2 0x13 JUMPI PUSH1 0x0 DUP1 REVERT JUMPDEST PUSH1 0x0 CALLDATALOAD PUSH1 0xE0 SHR PUSH4 0x2689ADB2 EQ PUSH2 0x28 JUMPI PUSH1 0x0 DUP1 REVERT JUMPDEST PUSH1 0x20 CALLDATASIZE PUSH1 0x3 NOT ADD SLT PUSH2 0x2A8 JUMPI PUSH1 0x4 CALLDATALOAD PUSH8 0xFFFFFFFFFFFFFFFF DUP2 GT PUSH2 0x2A8 JUMPI DUP1 CALLDATASIZE SUB PUSH2 0x160 PUSH1 0x3 NOT DUP3 ADD SLT PUSH2 0x2A8 JUMPI PUSH2 0x100 DUP4 ADD SWAP1 DUP4 DUP3 LT PUSH8 0xFFFFFFFFFFFFFFFF DUP4 GT OR PUSH2 0x2AD JUMPI PUSH1 0x80 SWAP2 PUSH1 0x40 MSTORE PUSH2 0x81 DUP4 PUSH1 0x4 ADD PUSH2 0x2E5 JUMP JUMPDEST DUP5 MSTORE PUSH1 0x23 NOT ADD SLT PUSH2 0x2A8 JUMPI PUSH1 0x40 MLOAD SWAP1 PUSH1 0x80 DUP3 ADD DUP3 DUP2 LT PUSH8 0xFFFFFFFFFFFFFFFF DUP3 GT OR PUSH2 0x2AD JUMPI PUSH1 0x40 MSTORE PUSH1 0x24 DUP2 ADD CALLDATALOAD PUSH1 0x4 DUP2 LT ISZERO PUSH2 0x2A8 JUMPI DUP3 MSTORE PUSH2 0xC6 PUSH1 0x44 DUP3 ADD PUSH2 0x2E5 JUMP JUMPDEST PUSH1 0x20 DUP4 ADD MSTORE PUSH1 0x64 DUP2 ADD CALLDATALOAD PUSH1 0x40 DUP4 ADD MSTORE PUSH1 0x84 DUP2 ADD CALLDATALOAD PUSH1 0x60 DUP4 ADD MSTORE PUSH1 0x20 DUP4 ADD SWAP2 DUP3 MSTORE PUSH1 0x40 DUP4 ADD SWAP1 PUSH1 0xA4 DUP2 ADD CALLDATALOAD DUP3 MSTORE PUSH1 0x60 DUP5 ADD SWAP1 PUSH1 0xC4 DUP2 ADD CALLDATALOAD DUP3 MSTORE PUSH1 0x80 DUP6 ADD SWAP5 PUSH1 0xE4 DUP3 ADD CALLDATALOAD DUP7 MSTORE PUSH1 0xA0 DUP2 ADD SWAP1 PUSH2 0x104 DUP4 ADD CALLDATALOAD DUP3 MSTORE PUSH1 0xC0 DUP2 ADD SWAP3 PUSH2 0x124 DUP2 ADD CALLDATALOAD DUP5 MSTORE PUSH2 0x144 DUP2 ADD CALLDATALOAD SWAP1 PUSH8 0xFFFFFFFFFFFFFFFF DUP3 GT PUSH2 0x2A8 JUMPI ADD CALLDATASIZE PUSH1 0x23 DUP3 ADD SLT ISZERO PUSH2 0x2A8 JUMPI PUSH1 0x4 DUP2 ADD CALLDATALOAD PUSH8 0xFFFFFFFFFFFFFFFF DUP2 GT PUSH2 0x2AD JUMPI PUSH1 0x40 MLOAD SWAP2 PUSH2 0x172 PUSH1 0x1F DUP4 ADD PUSH1 0x1F NOT AND PUSH1 0x20 ADD DUP5 PUSH2 0x2C3 JUMP JUMPDEST DUP2 DUP4 MSTORE CALLDATASIZE PUSH1 0x24 DUP3 DUP5 ADD ADD GT PUSH2 0x2A8 JUMPI DUP2 PUSH1 0x0 SWAP3 PUSH1 0x24 PUSH1 0x20 SWAP4 ADD DUP4 DUP7 ADD CALLDATACOPY DUP4 ADD ADD MSTORE PUSH1 0xE0 DUP3 ADD MSTORE PUSH1 0x1 DUP1 PUSH1 0xA0 SHL SUB SWAP1 MLOAD AND SWAP5 MLOAD SWAP6 DUP7 MLOAD PUSH1 0x4 DUP2 LT ISZERO PUSH2 0x292 JUMPI PUSH1 0x20 SWAP8 PUSH1 0x1 DUP1 PUSH1 0xA0 SHL SUB DUP10 DUP3 ADD MLOAD AND SWAP1 PUSH1 0x60 PUSH1 0x40 DUP3 ADD MLOAD SWAP2 ADD MLOAD SWAP1 PUSH1 0x40 MLOAD SWAP3 DUP12 DUP5 ADD SWAP5 PUSH32 0x6E4F52E5739DBEFD226DCBEFEF0E563115BC2B92726A648E213CB8CDE30B11A6 DUP7 MSTORE PUSH1 0x40 DUP6 ADD MSTORE PUSH1 0x60 DUP5 ADD MSTORE PUSH1 0x80 DUP4 ADD MSTORE PUSH1 0xA0 DUP3 ADD MSTORE PUSH1 0xA0 DUP2 MSTORE PUSH2 0x219 PUSH1 0xC0 DUP3 PUSH2 0x2C3 JUMP JUMPDEST MLOAD SWAP1 KECCAK256 SWAP5 MLOAD SWAP4 MLOAD SWAP1 MLOAD SWAP2 MLOAD SWAP3 MLOAD SWAP4 PUSH1 0x40 MLOAD SWAP6 DUP9 DUP8 ADD SWAP8 PUSH32 0x28AFADF97D59FDBF835ED51FA5BE1B9F9DBC4728E2C548DF94C8D1A87ABA23BE DUP10 MSTORE PUSH1 0x40 DUP9 ADD MSTORE PUSH1 0x60 DUP8 ADD MSTORE PUSH1 0x80 DUP7 ADD MSTORE PUSH1 0xA0 DUP6 ADD MSTORE PUSH1 0xC0 DUP5 ADD MSTORE PUSH1 0xE0 DUP4 ADD MSTORE PUSH2 0x100 DUP3 ADD MSTORE PUSH2 0x100 DUP2 MSTORE PUSH2 0x287 PUSH2 0x120 DUP3 PUSH2 0x2C3 JUMP JUMPDEST MLOAD SWAP1 KECCAK256 PUSH1 0x40 MLOAD SWAP1 DUP2 MSTORE RETURN JUMPDEST PUSH4 0x4E487B71 PUSH1 0xE0 SHL PUSH1 0x0 MSTORE PUSH1 0x21 PUSH1 0x4 MSTORE PUSH1 0x24 PUSH1 0x0 REVERT JUMPDEST PUSH1 0x0 DUP1 REVERT JUMPDEST PUSH4 0x4E487B71 PUSH1 0xE0 SHL PUSH1 0x0 MSTORE PUSH1 0x41 PUSH1 0x4 MSTORE PUSH1 0x24 PUSH1 0x0 REVERT JUMPDEST SWAP1 PUSH1 0x1F DUP1 NOT SWAP2 ADD AND DUP2 ADD SWAP1 DUP2 LT PUSH8 0xFFFFFFFFFFFFFFFF DUP3 GT OR PUSH2 0x2AD JUMPI PUSH1 0x40 MSTORE JUMP JUMPDEST CALLDATALOAD SWAP1 PUSH1 0x1 PUSH1 0x1 PUSH1 0xA0 SHL SUB DUP3 AND DUP3 SUB PUSH2 0x2A8 JUMPI JUMP INVALID LOG2 PUSH5 0x6970667358 0x22 SLT KECCAK256 PUSH27 0xD4414B0EA9C31C1866AE5B1534221BF7E290CA88DA56F8B54E0EFD DUP3 0x2A 0x2F 0xED PUSH5 0x736F6C6343 STOP ADDMOD SHR STOP CALLER "},"methodIdentifiers":{"hash(LibAuction.Auction)":"2689adb2"}}}}}