{"contracts/Marketplace.sol":{"Marketplace":{"abi":[{"inputs":[{"internalType":"address","name":"_feeRecipient","type":"address"},{"internalType":"address","name":"_assetTransferAgent","type":"address"},{"internalType":"address","name":"_auctionVault","type":"address"},{"internalType":"uint256","name":"_feeBps","type":"uint256"}],"stateMutability":"nonpayable","type":"constructor"},{"inputs":[],"name":"InvalidShortString","type":"error"},{"inputs":[{"internalType":"string","name":"str","type":"string"}],"name":"StringTooLong","type":"error"},{"anonymous":false,"inputs":[{"indexed":true,"internalType":"address","name":"oldAgent","type":"address"},{"indexed":true,"internalType":"address","name":"newAgent","type":"address"}],"name":"AssetTransferAgentUpdated","type":"event"},{"anonymous":false,"inputs":[{"indexed":true,"internalType":"bytes32","name":"auctionHash","type":"bytes32"},{"indexed":true,"internalType":"address","name":"bidder","type":"address"},{"indexed":false,"internalType":"uint256","name":"amount","type":"uint256"},{"indexed":false,"internalType":"uint256","name":"timestamp","type":"uint256"}],"name":"AuctionBidSubmitted","type":"event"},{"anonymous":false,"inputs":[{"indexed":true,"internalType":"bytes32","name":"auctionHash","type":"bytes32"},{"indexed":true,"internalType":"address","name":"winner","type":"address"},{"indexed":false,"internalType":"uint256","name":"amount","type":"uint256"}],"name":"AuctionFinalized","type":"event"},{"anonymous":false,"inputs":[{"indexed":true,"internalType":"address","name":"oldAuctionVault","type":"address"},{"indexed":true,"internalType":"address","name":"newAuctionVault","type":"address"}],"name":"AuctionVaultUpdated","type":"event"},{"anonymous":false,"inputs":[{"indexed":true,"internalType":"bytes32","name":"orderHash","type":"bytes32"},{"indexed":true,"internalType":"address","name":"maker","type":"address"},{"indexed":false,"internalType":"uint256","name":"orderItemIndex","type":"uint256"}],"name":"CancelOrder","type":"event"},{"anonymous":false,"inputs":[],"name":"EIP712DomainChanged","type":"event"},{"anonymous":false,"inputs":[{"indexed":true,"internalType":"address","name":"recipient","type":"address"},{"indexed":false,"internalType":"uint256","name":"amount","type":"uint256"}],"name":"EmergencyWithdrawal","type":"event"},{"anonymous":false,"inputs":[{"indexed":false,"internalType":"uint256","name":"oldFeeBps","type":"uint256"},{"indexed":false,"internalType":"uint256","name":"newFeeBps","type":"uint256"}],"name":"FeeBpsUpdated","type":"event"},{"anonymous":false,"inputs":[{"indexed":true,"internalType":"address","name":"oldRecipient","type":"address"},{"indexed":true,"internalType":"address","name":"newRecipient","type":"address"}],"name":"FeeRecipientUpdated","type":"event"},{"anonymous":false,"inputs":[{"indexed":true,"internalType":"address","name":"operator","type":"address"}],"name":"MarketplacePaused","type":"event"},{"anonymous":false,"inputs":[{"indexed":true,"internalType":"address","name":"operator","type":"address"}],"name":"MarketplaceUnpaused","type":"event"},{"anonymous":false,"inputs":[{"indexed":true,"internalType":"bytes32","name":"orderHash","type":"bytes32"},{"indexed":true,"internalType":"address","name":"maker","type":"address"},{"indexed":true,"internalType":"address","name":"taker","type":"address"},{"indexed":false,"internalType":"uint256","name":"fillAmount","type":"uint256"}],"name":"OrderMatched","type":"event"},{"anonymous":false,"inputs":[{"indexed":true,"internalType":"address","name":"previousOwner","type":"address"},{"indexed":true,"internalType":"address","name":"newOwner","type":"address"}],"name":"OwnershipTransferred","type":"event"},{"anonymous":false,"inputs":[{"indexed":false,"internalType":"address","name":"account","type":"address"}],"name":"Paused","type":"event"},{"anonymous":false,"inputs":[{"indexed":false,"internalType":"address","name":"account","type":"address"}],"name":"Unpaused","type":"event"},{"inputs":[],"name":"MAX_AUCTION_DURATION","outputs":[{"internalType":"uint256","name":"","type":"uint256"}],"stateMutability":"view","type":"function"},{"inputs":[],"name":"MAX_FEE_BPS","outputs":[{"internalType":"uint256","name":"","type":"uint256"}],"stateMutability":"view","type":"function"},{"inputs":[],"name":"MIN_AUCTION_DURATION","outputs":[{"internalType":"uint256","name":"","type":"uint256"}],"stateMutability":"view","type":"function"},{"inputs":[],"name":"MIN_BID_INCREMENT_BPS","outputs":[{"internalType":"uint256","name":"","type":"uint256"}],"stateMutability":"view","type":"function"},{"inputs":[{"components":[{"internalType":"enum LibOrder.OrderType","name":"orderType","type":"uint8"},{"components":[{"components":[{"internalType":"enum LibAsset.AssetType","name":"assetType","type":"uint8"},{"internalType":"address","name":"contractAddress","type":"address"},{"internalType":"uint256","name":"assetId","type":"uint256"},{"internalType":"uint256","name":"assetAmount","type":"uint256"}],"internalType":"struct LibAsset.Asset","name":"makeAsset","type":"tuple"},{"components":[{"internalType":"enum LibAsset.AssetType","name":"assetType","type":"uint8"},{"internalType":"address","name":"contractAddress","type":"address"},{"internalType":"uint256","name":"assetId","type":"uint256"},{"internalType":"uint256","name":"assetAmount","type":"uint256"}],"internalType":"struct LibAsset.Asset","name":"takeAsset","type":"tuple"},{"internalType":"uint256","name":"start","type":"uint256"},{"internalType":"uint256","name":"end","type":"uint256"}],"internalType":"struct LibOrder.OrderItem[]","name":"items","type":"tuple[]"},{"internalType":"address","name":"maker","type":"address"},{"internalType":"address","name":"taker","type":"address"},{"internalType":"bytes32","name":"root","type":"bytes32"},{"internalType":"uint256","name":"salt","type":"uint256"},{"internalType":"bytes","name":"signature","type":"bytes"}],"internalType":"struct LibOrder.Order","name":"bidOrder","type":"tuple"},{"internalType":"uint256","name":"orderItemIndex","type":"uint256"},{"internalType":"uint256","name":"sellAmount","type":"uint256"}],"name":"acceptBid","outputs":[],"stateMutability":"nonpayable","type":"function"},{"inputs":[{"components":[{"internalType":"address","name":"bidder","type":"address"},{"components":[{"internalType":"enum LibAsset.AssetType","name":"assetType","type":"uint8"},{"internalType":"address","name":"contractAddress","type":"address"},{"internalType":"uint256","name":"assetId","type":"uint256"},{"internalType":"uint256","name":"assetAmount","type":"uint256"}],"internalType":"struct LibAsset.Asset","name":"makeAssetPerItem","type":"tuple"},{"internalType":"address","name":"collectionAddress","type":"address"},{"internalType":"uint256","name":"maxQuantity","type":"uint256"},{"internalType":"uint256","name":"start","type":"uint256"},{"internalType":"uint256","name":"end","type":"uint256"},{"internalType":"uint256","name":"salt","type":"uint256"},{"internalType":"bytes","name":"signature","type":"bytes"}],"internalType":"struct LibCollectionBid.CollectionBid","name":"bid","type":"tuple"},{"internalType":"uint256","name":"tokenId","type":"uint256"}],"name":"acceptCollectionBid","outputs":[],"stateMutability":"nonpayable","type":"function"},{"inputs":[],"name":"assetTransferAgent","outputs":[{"internalType":"address","name":"","type":"address"}],"stateMutability":"view","type":"function"},{"inputs":[{"internalType":"bytes32","name":"","type":"bytes32"}],"name":"auctionFinalized","outputs":[{"internalType":"bool","name":"","type":"bool"}],"stateMutability":"view","type":"function"},{"inputs":[],"name":"auctionVault","outputs":[{"internalType":"address","name":"","type":"address"}],"stateMutability":"view","type":"function"},{"inputs":[{"components":[{"internalType":"enum LibOrder.OrderType","name":"orderType","type":"uint8"},{"components":[{"components":[{"internalType":"enum LibAsset.AssetType","name":"assetType","type":"uint8"},{"internalType":"address","name":"contractAddress","type":"address"},{"internalType":"uint256","name":"assetId","type":"uint256"},{"internalType":"uint256","name":"assetAmount","type":"uint256"}],"internalType":"struct LibAsset.Asset","name":"makeAsset","type":"tuple"},{"components":[{"internalType":"enum LibAsset.AssetType","name":"assetType","type":"uint8"},{"internalType":"address","name":"contractAddress","type":"address"},{"internalType":"uint256","name":"assetId","type":"uint256"},{"internalType":"uint256","name":"assetAmount","type":"uint256"}],"internalType":"struct LibAsset.Asset","name":"takeAsset","type":"tuple"},{"internalType":"uint256","name":"start","type":"uint256"},{"internalType":"uint256","name":"end","type":"uint256"}],"internalType":"struct LibOrder.OrderItem[]","name":"items","type":"tuple[]"},{"internalType":"address","name":"maker","type":"address"},{"internalType":"address","name":"taker","type":"address"},{"internalType":"bytes32","name":"root","type":"bytes32"},{"internalType":"uint256","name":"salt","type":"uint256"},{"internalType":"bytes","name":"signature","type":"bytes"}],"internalType":"struct LibOrder.Order[]","name":"makerOrders","type":"tuple[]"},{"components":[{"internalType":"enum LibOrder.OrderType","name":"orderType","type":"uint8"},{"components":[{"components":[{"internalType":"enum LibAsset.AssetType","name":"assetType","type":"uint8"},{"internalType":"address","name":"contractAddress","type":"address"},{"internalType":"uint256","name":"assetId","type":"uint256"},{"internalType":"uint256","name":"assetAmount","type":"uint256"}],"internalType":"struct LibAsset.Asset","name":"makeAsset","type":"tuple"},{"components":[{"internalType":"enum LibAsset.AssetType","name":"assetType","type":"uint8"},{"internalType":"address","name":"contractAddress","type":"address"},{"internalType":"uint256","name":"assetId","type":"uint256"},{"internalType":"uint256","name":"assetAmount","type":"uint256"}],"internalType":"struct LibAsset.Asset","name":"takeAsset","type":"tuple"},{"internalType":"uint256","name":"start","type":"uint256"},{"internalType":"uint256","name":"end","type":"uint256"}],"internalType":"struct LibOrder.OrderItem[]","name":"items","type":"tuple[]"},{"internalType":"address","name":"maker","type":"address"},{"internalType":"address","name":"taker","type":"address"},{"internalType":"bytes32","name":"root","type":"bytes32"},{"internalType":"uint256","name":"salt","type":"uint256"},{"internalType":"bytes","name":"signature","type":"bytes"}],"internalType":"struct LibOrder.Order","name":"takerOrder","type":"tuple"},{"internalType":"uint256[]","name":"orderItemIndices","type":"uint256[]"},{"internalType":"bytes32[][]","name":"proofs","type":"bytes32[][]"}],"name":"batchMatchOrders","outputs":[],"stateMutability":"payable","type":"function"},{"inputs":[{"components":[{"internalType":"enum LibOrder.OrderType","name":"orderType","type":"uint8"},{"components":[{"components":[{"internalType":"enum LibAsset.AssetType","name":"assetType","type":"uint8"},{"internalType":"address","name":"contractAddress","type":"address"},{"internalType":"uint256","name":"assetId","type":"uint256"},{"internalType":"uint256","name":"assetAmount","type":"uint256"}],"internalType":"struct LibAsset.Asset","name":"makeAsset","type":"tuple"},{"components":[{"internalType":"enum LibAsset.AssetType","name":"assetType","type":"uint8"},{"internalType":"address","name":"contractAddress","type":"address"},{"internalType":"uint256","name":"assetId","type":"uint256"},{"internalType":"uint256","name":"assetAmount","type":"uint256"}],"internalType":"struct LibAsset.Asset","name":"takeAsset","type":"tuple"},{"internalType":"uint256","name":"start","type":"uint256"},{"internalType":"uint256","name":"end","type":"uint256"}],"internalType":"struct LibOrder.OrderItem[]","name":"items","type":"tuple[]"},{"internalType":"address","name":"maker","type":"address"},{"internalType":"address","name":"taker","type":"address"},{"internalType":"bytes32","name":"root","type":"bytes32"},{"internalType":"uint256","name":"salt","type":"uint256"},{"internalType":"bytes","name":"signature","type":"bytes"}],"internalType":"struct LibOrder.Order","name":"order","type":"tuple"},{"internalType":"uint256","name":"orderItemIndex","type":"uint256"}],"name":"cancelOrder","outputs":[],"stateMutability":"nonpayable","type":"function"},{"inputs":[{"internalType":"bytes32","name":"","type":"bytes32"}],"name":"collectionBidFillAmount","outputs":[{"internalType":"uint256","name":"","type":"uint256"}],"stateMutability":"view","type":"function"},{"inputs":[],"name":"eip712Domain","outputs":[{"internalType":"bytes1","name":"fields","type":"bytes1"},{"internalType":"string","name":"name","type":"string"},{"internalType":"string","name":"version","type":"string"},{"internalType":"uint256","name":"chainId","type":"uint256"},{"internalType":"address","name":"verifyingContract","type":"address"},{"internalType":"bytes32","name":"salt","type":"bytes32"},{"internalType":"uint256[]","name":"extensions","type":"uint256[]"}],"stateMutability":"view","type":"function"},{"inputs":[],"name":"emergencyWithdraw","outputs":[],"stateMutability":"nonpayable","type":"function"},{"inputs":[],"name":"feeBps","outputs":[{"internalType":"uint256","name":"","type":"uint256"}],"stateMutability":"view","type":"function"},{"inputs":[],"name":"feeRecipient","outputs":[{"internalType":"address","name":"","type":"address"}],"stateMutability":"view","type":"function"},{"inputs":[{"components":[{"internalType":"address","name":"maker","type":"address"},{"components":[{"internalType":"enum LibAsset.AssetType","name":"assetType","type":"uint8"},{"internalType":"address","name":"contractAddress","type":"address"},{"internalType":"uint256","name":"assetId","type":"uint256"},{"internalType":"uint256","name":"assetAmount","type":"uint256"}],"internalType":"struct LibAsset.Asset","name":"asset","type":"tuple"},{"internalType":"uint256","name":"startPrice","type":"uint256"},{"internalType":"uint256","name":"buyNowPrice","type":"uint256"},{"internalType":"uint256","name":"startTime","type":"uint256"},{"internalType":"uint256","name":"endTime","type":"uint256"},{"internalType":"uint256","name":"salt","type":"uint256"},{"internalType":"bytes","name":"signature","type":"bytes"}],"internalType":"struct LibAuction.Auction","name":"auction","type":"tuple"},{"internalType":"bytes","name":"signature","type":"bytes"}],"name":"finalizeAuction","outputs":[],"stateMutability":"nonpayable","type":"function"},{"inputs":[{"internalType":"bytes32","name":"","type":"bytes32"}],"name":"highestBids","outputs":[{"internalType":"address","name":"bidder","type":"address"},{"internalType":"uint256","name":"amount","type":"uint256"},{"internalType":"uint256","name":"timestamp","type":"uint256"}],"stateMutability":"view","type":"function"},{"inputs":[{"components":[{"internalType":"enum LibOrder.OrderType","name":"orderType","type":"uint8"},{"components":[{"components":[{"internalType":"enum LibAsset.AssetType","name":"assetType","type":"uint8"},{"internalType":"address","name":"contractAddress","type":"address"},{"internalType":"uint256","name":"assetId","type":"uint256"},{"internalType":"uint256","name":"assetAmount","type":"uint256"}],"internalType":"struct LibAsset.Asset","name":"makeAsset","type":"tuple"},{"components":[{"internalType":"enum LibAsset.AssetType","name":"assetType","type":"uint8"},{"internalType":"address","name":"contractAddress","type":"address"},{"internalType":"uint256","name":"assetId","type":"uint256"},{"internalType":"uint256","name":"assetAmount","type":"uint256"}],"internalType":"struct LibAsset.Asset","name":"takeAsset","type":"tuple"},{"internalType":"uint256","name":"start","type":"uint256"},{"internalType":"uint256","name":"end","type":"uint256"}],"internalType":"struct LibOrder.OrderItem[]","name":"items","type":"tuple[]"},{"internalType":"address","name":"maker","type":"address"},{"internalType":"address","name":"taker","type":"address"},{"internalType":"bytes32","name":"root","type":"bytes32"},{"internalType":"uint256","name":"salt","type":"uint256"},{"internalType":"bytes","name":"signature","type":"bytes"}],"internalType":"struct LibOrder.Order","name":"order","type":"tuple"},{"internalType":"uint256","name":"orderItemIndex","type":"uint256"}],"name":"isOrderCancelled","outputs":[{"internalType":"bool","name":"","type":"bool"}],"stateMutability":"view","type":"function"},{"inputs":[{"components":[{"internalType":"enum LibOrder.OrderType","name":"orderType","type":"uint8"},{"components":[{"components":[{"internalType":"enum LibAsset.AssetType","name":"assetType","type":"uint8"},{"internalType":"address","name":"contractAddress","type":"address"},{"internalType":"uint256","name":"assetId","type":"uint256"},{"internalType":"uint256","name":"assetAmount","type":"uint256"}],"internalType":"struct LibAsset.Asset","name":"makeAsset","type":"tuple"},{"components":[{"internalType":"enum LibAsset.AssetType","name":"assetType","type":"uint8"},{"internalType":"address","name":"contractAddress","type":"address"},{"internalType":"uint256","name":"assetId","type":"uint256"},{"internalType":"uint256","name":"assetAmount","type":"uint256"}],"internalType":"struct LibAsset.Asset","name":"takeAsset","type":"tuple"},{"internalType":"uint256","name":"start","type":"uint256"},{"internalType":"uint256","name":"end","type":"uint256"}],"internalType":"struct LibOrder.OrderItem[]","name":"items","type":"tuple[]"},{"internalType":"address","name":"maker","type":"address"},{"internalType":"address","name":"taker","type":"address"},{"internalType":"bytes32","name":"root","type":"bytes32"},{"internalType":"uint256","name":"salt","type":"uint256"},{"internalType":"bytes","name":"signature","type":"bytes"}],"internalType":"struct LibOrder.Order","name":"order","type":"tuple"},{"internalType":"uint256","name":"orderItemIndex","type":"uint256"}],"name":"isOrderFullyFilled","outputs":[{"internalType":"bool","name":"","type":"bool"}],"stateMutability":"view","type":"function"},{"inputs":[{"components":[{"internalType":"enum LibOrder.OrderType","name":"orderType","type":"uint8"},{"components":[{"components":[{"internalType":"enum LibAsset.AssetType","name":"assetType","type":"uint8"},{"internalType":"address","name":"contractAddress","type":"address"},{"internalType":"uint256","name":"assetId","type":"uint256"},{"internalType":"uint256","name":"assetAmount","type":"uint256"}],"internalType":"struct LibAsset.Asset","name":"makeAsset","type":"tuple"},{"components":[{"internalType":"enum LibAsset.AssetType","name":"assetType","type":"uint8"},{"internalType":"address","name":"contractAddress","type":"address"},{"internalType":"uint256","name":"assetId","type":"uint256"},{"internalType":"uint256","name":"assetAmount","type":"uint256"}],"internalType":"struct LibAsset.Asset","name":"takeAsset","type":"tuple"},{"internalType":"uint256","name":"start","type":"uint256"},{"internalType":"uint256","name":"end","type":"uint256"}],"internalType":"struct LibOrder.OrderItem[]","name":"items","type":"tuple[]"},{"internalType":"address","name":"maker","type":"address"},{"internalType":"address","name":"taker","type":"address"},{"internalType":"bytes32","name":"root","type":"bytes32"},{"internalType":"uint256","name":"salt","type":"uint256"},{"internalType":"bytes","name":"signature","type":"bytes"}],"internalType":"struct LibOrder.Order","name":"makerOrder","type":"tuple"},{"components":[{"internalType":"enum LibOrder.OrderType","name":"orderType","type":"uint8"},{"components":[{"components":[{"internalType":"enum LibAsset.AssetType","name":"assetType","type":"uint8"},{"internalType":"address","name":"contractAddress","type":"address"},{"internalType":"uint256","name":"assetId","type":"uint256"},{"internalType":"uint256","name":"assetAmount","type":"uint256"}],"internalType":"struct LibAsset.Asset","name":"makeAsset","type":"tuple"},{"components":[{"internalType":"enum LibAsset.AssetType","name":"assetType","type":"uint8"},{"internalType":"address","name":"contractAddress","type":"address"},{"internalType":"uint256","name":"assetId","type":"uint256"},{"internalType":"uint256","name":"assetAmount","type":"uint256"}],"internalType":"struct LibAsset.Asset","name":"takeAsset","type":"tuple"},{"internalType":"uint256","name":"start","type":"uint256"},{"internalType":"uint256","name":"end","type":"uint256"}],"internalType":"struct LibOrder.OrderItem[]","name":"items","type":"tuple[]"},{"internalType":"address","name":"maker","type":"address"},{"internalType":"address","name":"taker","type":"address"},{"internalType":"bytes32","name":"root","type":"bytes32"},{"internalType":"uint256","name":"salt","type":"uint256"},{"internalType":"bytes","name":"signature","type":"bytes"}],"internalType":"struct LibOrder.Order","name":"takerOrder","type":"tuple"},{"internalType":"uint256","name":"orderItemIndex","type":"uint256"},{"internalType":"bytes32[]","name":"proof","type":"bytes32[]"}],"name":"matchOrders","outputs":[],"stateMutability":"payable","type":"function"},{"inputs":[{"internalType":"bytes32","name":"","type":"bytes32"},{"internalType":"uint256","name":"","type":"uint256"}],"name":"orderFillAmount","outputs":[{"internalType":"uint256","name":"","type":"uint256"}],"stateMutability":"view","type":"function"},{"inputs":[],"name":"owner","outputs":[{"internalType":"address","name":"","type":"address"}],"stateMutability":"view","type":"function"},{"inputs":[],"name":"pause","outputs":[],"stateMutability":"nonpayable","type":"function"},{"inputs":[],"name":"paused","outputs":[{"internalType":"bool","name":"","type":"bool"}],"stateMutability":"view","type":"function"},{"inputs":[],"name":"renounceOwnership","outputs":[],"stateMutability":"nonpayable","type":"function"},{"inputs":[{"internalType":"address","name":"_agent","type":"address"}],"name":"setAssetTransferAgent","outputs":[],"stateMutability":"nonpayable","type":"function"},{"inputs":[{"internalType":"address","name":"_auctionVault","type":"address"}],"name":"setAuctionVault","outputs":[],"stateMutability":"nonpayable","type":"function"},{"inputs":[{"internalType":"uint256","name":"_feeBps","type":"uint256"}],"name":"setFeeBps","outputs":[],"stateMutability":"nonpayable","type":"function"},{"inputs":[{"internalType":"address","name":"_feeRecipient","type":"address"}],"name":"setFeeRecipient","outputs":[],"stateMutability":"nonpayable","type":"function"},{"inputs":[{"components":[{"internalType":"address","name":"maker","type":"address"},{"components":[{"internalType":"enum LibAsset.AssetType","name":"assetType","type":"uint8"},{"internalType":"address","name":"contractAddress","type":"address"},{"internalType":"uint256","name":"assetId","type":"uint256"},{"internalType":"uint256","name":"assetAmount","type":"uint256"}],"internalType":"struct LibAsset.Asset","name":"asset","type":"tuple"},{"internalType":"uint256","name":"startPrice","type":"uint256"},{"internalType":"uint256","name":"buyNowPrice","type":"uint256"},{"internalType":"uint256","name":"startTime","type":"uint256"},{"internalType":"uint256","name":"endTime","type":"uint256"},{"internalType":"uint256","name":"salt","type":"uint256"},{"internalType":"bytes","name":"signature","type":"bytes"}],"internalType":"struct LibAuction.Auction","name":"auction","type":"tuple"}],"name":"submitAuctionBid","outputs":[],"stateMutability":"payable","type":"function"},{"inputs":[{"internalType":"address","name":"newOwner","type":"address"}],"name":"transferOwnership","outputs":[],"stateMutability":"nonpayable","type":"function"},{"inputs":[],"name":"unpause","outputs":[],"stateMutability":"nonpayable","type":"function"},{"inputs":[{"internalType":"bytes32[]","name":"proof","type":"bytes32[]"},{"internalType":"bytes32","name":"root","type":"bytes32"},{"internalType":"bytes32","name":"leaf","type":"bytes32"}],"name":"verifyMerkleProof","outputs":[{"internalType":"bool","name":"","type":"bool"}],"stateMutability":"pure","type":"function"},{"stateMutability":"payable","type":"receive"}],"evm":{"bytecode":{"linkReferences":{"contracts/libraries/LibAuction.sol":{"LibAuction":[{"length":20,"start":6309},{"length":20,"start":16727}]}},"object":"6101608060405234610338576080816154bd8038038091610020828561033d565b8339810103126103385761003381610376565b61003f60208301610376565b91606061004e60408301610376565b9101519160405161006060408261033d565b601181526020810190704c61796572474d61726b6574506c61636560781b82526040519161008f60408461033d565b600183526020830191603160f81b835260016000556001543360018060a01b0382167f8be0079c531659141344cd1fd0a4f28419497f9722a3daafe3b4186f6b6457e0600080a36001600160a81b0319163360ff60a01b1916176001556100f58161038a565b610120526101028461054e565b61014052519020918260e05251902080610100524660a0526040519060208201927f8b73c3c69bb8fe3d512ecc4cf759cc79239f7b179b0ffacaa9a75d522b39400f8452604083015260608201524660808201523060a082015260a0815261016b60c08261033d565b5190206080523060c0526001600160a01b03169283156102f3576001600160a01b03169081156102ae576001600160a01b03169283156102695761271083116102325760018060a01b0319600454161760045560018060a01b0319600554161760055560075560018060a01b03196006541617600655604051614dd090816106ed823960805181614adb015260a05181614b92015260c05181614aa5015260e05181614b2a01526101005181614b50015261012051816108dd015261014051816109060152f35b60405162461bcd60e51b815260206004820152600f60248201526e496e76616c6964206665652042505360881b6044820152606490fd5b60405162461bcd60e51b815260206004820152601560248201527f496e76616c69642061756374696f6e207661756c7400000000000000000000006044820152606490fd5b60405162461bcd60e51b815260206004820152601c60248201527f496e76616c6964206173736574207472616e73666572206167656e74000000006044820152606490fd5b60405162461bcd60e51b815260206004820152601560248201527f496e76616c69642066656520726563697069656e7400000000000000000000006044820152606490fd5b600080fd5b601f909101601f19168101906001600160401b0382119082101761036057604052565b634e487b7160e01b600052604160045260246000fd5b51906001600160a01b038216820361033857565b90815160208110600014610422575090601f8151116103c65760208151910151602082106103b6571790565b6000198260200360031b1b161790565b6040519063305a27a960e01b8252602060048301528181519182602483015260005b83811061040a5750508160006044809484010152601f80199101168101030190fd5b602082820181015160448784010152859350016103e8565b6001600160401b03811161036057600254600181811c91168015610544575b602082101461052e57601f81116104f8575b50602092601f82116001146104935792819293600092610488575b50508160011b916000199060031b1c19161760025560ff90565b01519050388061046e565b601f198216936002600052806000209160005b8681106104e057508360019596106104c7575b505050811b0160025560ff90565b015160001960f88460031b161c191690553880806104b9565b919260206001819286850151815501940192016104a6565b6002600052601f6020600020910160051c810190601f830160051c015b8181106105225750610453565b60008155600101610515565b634e487b7160e01b600052602260045260246000fd5b90607f1690610441565b908151602081106000146105d6575090601f81511161057a5760208151910151602082106103b6571790565b6040519063305a27a960e01b8252602060048301528181519182602483015260005b8381106105be5750508160006044809484010152601f80199101168101030190fd5b6020828201810151604487840101528593500161059c565b6001600160401b03811161036057600354600181811c911680156106e2575b602082101461052e57601f81116106ac575b50602092601f8211600114610647579281929360009261063c575b50508160011b916000199060031b1c19161760035560ff90565b015190503880610622565b601f198216936003600052806000209160005b868110610694575083600195961061067b575b505050811b0160035560ff90565b015160001960f88460031b161c1916905538808061066d565b9192602060018192868501518155019401920161065a565b6003600052601f6020600020910160051c810190601f830160051c015b8181106106d65750610607565b600081556001016106c9565b90607f16906105f556fe6080604052600436101561001b575b361561001957600080fd5b005b60003560e01c806314414cc01461023b5780631ef1c7d21461023657806324a9d853146102315780632e1cbea21461022c57806336bacfd5146102275780633a9fae7c146102225780633f4ba83a1461021d5780633fb351781461021857806346904840146102135780634715399c1461020e57806348a220a4146102095780635c975abb146102045780635d704aea146101ff5780636199d280146101fa578063703cebfe146101f5578063715018a6146101f057806372c27b62146101eb5780638456cb59146101e657806384b0196e146101e1578063892987b5146101dc5780638da5cb5b146101d7578063a83fb54f146101d2578063ada4fa18146101cd578063bc2db5c4146101c8578063bf76c032146101c3578063c2f50a7a146101be578063ca200ad8146101b9578063d418fc42146101b4578063d55be8c6146101af578063db2e21bc146101aa578063e74b981b146101a5578063ecf66145146101a0578063eded1f001461019b5763f2fde38b0361000e5761190a565b6118ce565b6116f6565b611641565b61157a565b61155d565b61115b565b61109e565b611081565b610e1c565b610bf7565b610baa565b610a39565b610a10565b6109c5565b6108c4565b6107fb565b610762565b610705565b6106ec565b610672565b610637565b610611565b6105e8565b6105bf565b610596565b610578565b6104b6565b610485565b6103d0565b61038f565b610340565b6102aa565b610250565b600091031261024b57565b600080fd5b3461024b57600036600319011261024b57602060405160648152f35b9181601f8401121561024b578235916001600160401b03831161024b576020808501948460051b01011161024b57565b908160e091031261024b5790565b608036600319011261024b576004356001600160401b03811161024b576102d590369060040161026c565b6024356001600160401b03811161024b576102f490369060040161029c565b916044356001600160401b03811161024b5761031490369060040161026c565b90606435946001600160401b03861161024b5761033861001996369060040161026c565b9590946119db565b3461024b57600036600319011261024b576020600754604051908152f35b604060031982011261024b57600435906001600160401b03821161024b576103889160040161029c565b9060243590565b3461024b5760206103a86103a23661035e565b906121a6565b6040519015158152f35b6001600160a01b0381160361024b57565b35906103ce826103b2565b565b3461024b57602036600319011261024b576004356103ed816103b2565b6103f56139ee565b6001600160a01b0316801561044857600680546001600160a01b0319811683179091556001600160a01b03167ffff6ec843c076928bdba3d6b453f492a57d829b973c56036b5f7d30955d7b01b600080a3005b60405162461bcd60e51b8152602060048201526015602482015274125b9d985b1a5908185d58dd1a5bdb881d985d5b1d605a1b6044820152606490fd5b3461024b57602036600319011261024b57600435600052600b602052602060ff604060002054166040519015158152f35b3461024b57600036600319011261024b576104cf6139ee565b60015460ff8160a01c161561053c5760ff60a01b19166001556040513381527f5db9ee0a495bf2e6ff9c91a7834c1ba4fdd244a5e8aa4e537bd38aeae4b073aa90602090a1337f385a28cf4754bd62fde01bcce82b673bd45cb357f835cf679a756de5d8e93bcd600080a2005b60405162461bcd60e51b815260206004820152601460248201527314185d5cd8589b194e881b9bdd081c185d5cd95960621b6044820152606490fd5b3461024b57600036600319011261024b57602060405162278d008152f35b3461024b57600036600319011261024b576004546040516001600160a01b039091168152602090f35b3461024b57600036600319011261024b576005546040516001600160a01b039091168152602090f35b3461024b57600036600319011261024b576006546040516001600160a01b039091168152602090f35b3461024b57600036600319011261024b57602060ff60015460a01c166040519015158152f35b3461024b57602036600319011261024b57600435600052600c6020526020604060002054604051908152f35b908161016091031261024b5790565b3461024b57604036600319011261024b576004356001600160401b03811161024b576106a2903690600401610663565b602435906001600160401b03821161024b573660238301121561024b578160040135906001600160401b03821161024b57366024838501011161024b5760246100199301906121cf565b3461024b5760206103a86106ff3661035e565b906125b2565b3461024b57600036600319011261024b5761071e6139ee565b600180546001600160a01b031981169091556000906001600160a01b03167f8be0079c531659141344cd1fd0a4f28419497f9722a3daafe3b4186f6b6457e08280a3005b3461024b57602036600319011261024b5760043561077e6139ee565b61271081116107c45760078054908290556040805191825260208201929092527f5ec5620e288c4be955ccb6cfb3d55431a8fed5c4c96ffacc4b9506360695f64e9190a1005b60405162461bcd60e51b815260206004820152600f60248201526e496e76616c6964206665652042505360881b6044820152606490fd5b3461024b57600036600319011261024b576108146139ee565b61081c612ed5565b6001805460ff60a01b1916600160a01b1790556040513381527f62e78cea01bee320cd4e420270b5ea74000d11b0c9f74754ebdbfc544b05a25890602090a1337f720419d686e04979382078792dce127b7417b1f1b934573e9ae7a7d40eb86e87600080a2005b919082519283825260005b8481106108af575050826000602080949584010152601f8019910116010190565b8060208092840101518282860101520161088e565b3461024b57600036600319011261024b5761096a6109017f00000000000000000000000000000000000000000000000000000000000000006141d4565b61092a7f00000000000000000000000000000000000000000000000000000000000000006142be565b60206040516109398282612034565b600081528161097881830194601f198301368737604051978897600f60f81b895260e0858a015260e0890190610883565b908782036040890152610883565b91466060870152306080870152600060a087015285830360c0870152519182815201929160005b8281106109ae57505050500390f35b83518552869550938101939281019260010161099f565b3461024b57602036600319011261024b57600435600052600a6020526060604060002060018060a01b0381541690600260018201549101549060405192835260208301526040820152f35b3461024b57600036600319011261024b576001546040516001600160a01b039091168152602090f35b3461024b57610a473661035e565b90610a50612e7f565b610a58612ed5565b610a89610a6482613383565b610a6c614aa2565b6042916040519161190160f01b8352600283015260228201522090565b90610a9381614470565b60408101908135610aa3816103b2565b6001600160a01b03163303610b6d577f86fb430316545beabd846d7b2eb3e7238960c028d31125164851a3f2305f7c9b91610b05610b00610af28785610afb610af6610af284610b609a6125b2565b1590565b612608565b6121a6565b61264b565b610b3c610b2f86610b20876000526009602052604060002090565b90600052602052604060002090565b805460ff19166001179055565b6001600160a01b0390610b4e90611e69565b60405195865216939081906020820190565b0390a36100196001600055565b60405162461bcd60e51b815260206004820152601560248201527413db9b1e481b585ad95c8818d85b8818d85b98d95b605a1b6044820152606490fd5b3461024b57606036600319011261024b576004356001600160401b03811161024b576103a8610bdf602092369060040161026c565b90610bf260243591604435933691612697565b614558565b3461024b57606036600319011261024b576004356001600160401b03811161024b57610c2790369060040161029c565b60243560443591610c36612e7f565b610c3e612ed5565b610c59610c4a82611e06565b610c5381611df7565b156126e3565b610dd4610cf96040610c6a84613383565b93610c7481614470565b610ce6610c96610c9188610c8b6020860186611ec7565b90611f8b565b612772565b96610cd2610cc260608a510151610cbb84610b208c6000526008602052604060002090565b5490612112565b8a15159081610e11575b5061277d565b610b20876000526008602052604060002090565b610cf18882546120b9565b905501611e69565b6001600160a01b0381169390610d108515156127bf565b610d1b331515612804565b610dce6020610d2a845161209e565b845182810151919591610d68906040906001600160a01b031692015191610d59610d52612055565b9889612092565b6001600160a01b031687850152565b60408601528860608601520192610d7f845161209e565b93516020810151610dbc906040906001600160a01b031692015191610dac610da5612055565b9788612092565b6001600160a01b03166020870152565b604085015287606085015233836136ac565b336136ac565b60405192835233927f2b2be5bdc62aaf8dbe8a0ffac99e7335c8d1245aa56d1d50e01fc21177fb22779080602081015b0390a46100196001600055565b90508a111538610ccc565b608036600319011261024b576004356001600160401b03811161024b57610e4790369060040161029c565b6024356001600160401b03811161024b57610e6690369060040161029c565b906044356064356001600160401b03811161024b57610e8990369060040161026c565b9190610e93612e7f565b610e9b612ed5565b610eb7610ea785611e06565b610eb081611df7565b1515611e13565b610ec882610c8b6020870187611ec7565b90610edf610ed96020880188611ec7565b90611f82565b93610eeb848888613139565b6002610ef687611e06565b610eff81611df7565b1461106b575b5050610f1084613383565b9260e00135938460e083013590610f2691611fcd565b92610f379060608401358787613455565b604001610f4390611e69565b94604001610f5090611e69565b610f5982611ff4565b92610f6660208401611e69565b604084013590610f74612055565b95610f7f9087612092565b6001600160a01b03166020860152604085015285606085015260808301610fa590611ff4565b92610fb260a08201611e69565b9060c0013590610fc0612055565b94610fcb9086612092565b6001600160a01b0316602085015260408401528060608401528251610fef81611fea565b610ff881611fea565b1593611034610e049461103b937f2b2be5bdc62aaf8dbe8a0ffac99e7335c8d1245aa56d1d50e01fc21177fb227797611059575b5089856136ac565b82886136ac565b6040519485526001600160a01b039081169516939081906020820190565b61106590341015612849565b3861102c565b61107a91608087013584613249565b3880610f05565b3461024b57600036600319011261024b576020604051610e108152f35b3461024b57602036600319011261024b576004356110bb816103b2565b6110c36139ee565b6001600160a01b0316801561111657600580546001600160a01b0319811683179091556001600160a01b03167f6488517f0ed01887d76eb198684456f20dab9ab4dad305bd0c0247c7eaafdcf7600080a3005b60405162461bcd60e51b815260206004820152601c60248201527f496e76616c6964206173736574207472616e73666572206167656e74000000006044820152606490fd5b602036600319011261024b576004356001600160401b03811161024b57611186903690600401610663565b61118e612e7f565b611196612ed5565b604051631344d6d960e11b8152602081806111b48560048301612941565b038173__$9bf758efd8785ea888de3f7a696bc2dc09$__5af49081156114895760009161152e575b506111f96001600160a01b036111f184611e69565b1615156123b6565b6112043315156127bf565b61122761121f61121384611e69565b6001600160a01b031690565b3314156129d6565b61128162278d0061127a60e085013561124281421015612a22565b610100860135611253814210612a64565b61125e828211612aa0565b611275610e1061126e8484612112565b1015612aec565b612112565b1115612b2c565b6112aa6112a5610af261129e84600052600b602052604060002090565b5460ff1690565b612b6b565b6112b382614611565b6112c360a0830135341015612bb7565b6112e26112cf83611e69565b6112dc36602086016124bc565b90613c65565b6112f681600052600a602052604060002090565b61131760018201549182151592836114ff575b50546001600160a01b031690565b9061148e575b5060065461133590611213906001600160a01b031681565b61133e83611e69565b90803b1561024b5760405163397ae56160e21b8152600481018490526001600160a01b03929092166024830152336044830152346064830181905260009183916084918391905af180156114895761146e575b506113f561139d612064565b3381523460208201524260408201526113c083600052600a602052604060002090565b815181546001600160a01b0319166001600160a01b039190911617815560208201516001820155604090910151600290910155565b60408051348152426020820152339183917fa9d1969315752a4d63387f7972393f147be8c4662b0a2af2db8a4b0f0a953c659190a360c08201358015159081611463575b50611449575b6100196001600055565b61145761145c923690612525565b613f10565b388061143f565b905034101538611439565b8061147d600061148393612034565b80610240565b38611391565b6129ca565b6006546114a590611213906001600160a01b031681565b803b1561024b5760405163116d00cb60e21b8152600481018490526001600160a01b039290921660248301526000908290604490829084905af18015611489571561131d578061147d60006114f993612034565b3861131d565b6115208161151a61151261152894611fb2565b612710900490565b906120b9565b341015612bfb565b38611309565b611550915060203d602011611556575b6115488183612034565b81019061288e565b386111dc565b503d61153e565b3461024b57600036600319011261024b5760206040516127108152f35b3461024b57600036600319011261024b576115936139ee565b478015611605576115ca6000808080856115ba61121361121360015460018060a01b031690565b5af16115c461213a565b50612c47565b6001546040519182526001600160a01b0316907f23d6711a1d031134a36921253c75aa59e967d38e369ac625992824315e204f2090602090a2005b60405162461bcd60e51b81526020600482015260146024820152734e6f2066756e647320746f20776974686472617760601b6044820152606490fd5b3461024b57602036600319011261024b5760043561165e816103b2565b6116666139ee565b6001600160a01b031680156116b957600480546001600160a01b0319811683179091556001600160a01b03167faaebcf1bfa00580e41d966056b48521fa9f202645c86d4ddf28113e617c1b1d3600080a3005b60405162461bcd60e51b8152602060048201526015602482015274125b9d985b1a5908199959481c9958da5c1a595b9d605a1b6044820152606490fd5b3461024b57604036600319011261024b576004356001600160401b03811161024b57611726903690600401610663565b60243590611732612e7f565b61176d610dd461174183611e69565b9360a0840194610dce61175387611e69565b95611772611765610140830183612c93565b9790986146b7565b612cc5565b61179361178e610af26117853685612d11565b60a00151421190565b612d9e565b6001600160a01b0383169661181e90611801906117fb906117b6338c1415612dd8565b6117c76117c28661483a565b6147d7565b996117f46117e86117e28d600052600c602052604060002090565b546120ab565b60c08801351015612e24565b369161233f565b886147e3565b61180d61121384611e69565b6001600160a01b0390911614612376565b61182c608082013598611e69565b93611842611838612055565b6003815295610dac565b60408501526001606085015261185a60208201611ff4565b90611892606061186c60408401611e69565b9201359161188261187b612055565b9485612092565b6001600160a01b03166020840152565b60408201528760608201526118a78433613c65565b6118bb86600052600c602052604060002090565b6118c58154612e70565b905533836136ac565b3461024b57604036600319011261024b576004356024359060005260086020526040600020906000526020526020604060002054604051908152f35b3461024b57602036600319011261024b57600435611927816103b2565b61192f6139ee565b6001600160a01b0381161561198757600180546001600160a01b039283166001600160a01b0319821681179092559091167f8be0079c531659141344cd1fd0a4f28419497f9722a3daafe3b4186f6b6457e0600080a3005b60405162461bcd60e51b815260206004820152602660248201527f4f776e61626c653a206e6577206f776e657220697320746865207a65726f206160448201526564647265737360d01b6064820152608490fd5b959192949093946119ea612e7f565b6119f2612ed5565b6119fd868614611cd6565b611a08838614611d14565b611a13851515611d59565b600096875b868110611a7457505050505050505080611a38575b506103ce6001600055565b80611a48611a4e923410156120c6565b34612112565b8015611a2d576000808080611a6e94335af1611a6861213a565b5061216a565b38611a2d565b611a8a610ea7611a85838a86611db0565b611e06565b611aad611aa66112136040611aa0858c88611db0565b01611e69565b1515611e73565b611add611abb828a86611eb7565b35611ad4611aca848b87611db0565b6020810190611ec7565b91905010611efd565b611ae8818884611db0565b611af3828a86611eb7565b3590611b00838888611f3e565b90611b1284610c8b6020860186611ec7565b90611b2486610c8b60208e018e611ec7565b92611b30868d87613139565b6002611b3b86611e06565b611b4481611df7565b14611cc0575b5050611b7e604060e0611b5c86613383565b94013594611aa0611b718760e0870135611fcd565b9760608601358888613455565b93611b8b60408c01611e69565b91611b9581611ff4565b91611ba260208301611e69565b611bcd604084013591611bbd611bb6612055565b9687612092565b6001600160a01b03166020860152565b6040840152856060840152611be460808301611ff4565b91611c1c60c0611bf660a08401611e69565b92013591611c0c611c05612055565b9586612092565b6001600160a01b03166020850152565b60408301528060608301528151611c3281611fea565b611c3b81611fea565b15611ca3575b5082611c7c7f2b2be5bdc62aaf8dbe8a0ffac99e7335c8d1245aa56d1d50e01fc21177fb227793611034611c9a948a60019c9b9a99986136ac565b60405194855260a088901b8890039081169516939081906020820190565b0390a401611a18565b611cb3919f9796959493976120b9565b9d38969293949596611c41565b611ccf91608086013584613249565b3880611b4a565b15611cdd57565b60405162461bcd60e51b815260206004820152600f60248201526e098cadccee8d040dad2e6dac2e8c6d608b1b6044820152606490fd5b15611d1b57565b60405162461bcd60e51b81526020600482015260166024820152750a0e4dedecce640d8cadccee8d040dad2e6dac2e8c6d60531b6044820152606490fd5b15611d6057565b60405162461bcd60e51b8152602060048201526012602482015271456d707479206f726465727320617272617960701b6044820152606490fd5b634e487b7160e01b600052603260045260246000fd5b9190811015611dd25760051b8101359060de198136030182121561024b570190565b611d9a565b6003111561024b57565b634e487b7160e01b600052602160045260246000fd5b60031115611e0157565b611de1565b35611e1081611dd7565b90565b15611e1a57565b60405162461bcd60e51b815260206004820152602160248201527f6d617463684f7264657273206e6f7420737570706f7274656420666f722042496044820152601160fa1b6064820152608490fd5b35611e10816103b2565b15611e7a57565b60405162461bcd60e51b8152602060048201526015602482015274496e76616c6964206d616b6572206164647265737360581b6044820152606490fd5b9190811015611dd25760051b0190565b903590601e198136030182121561024b57018035906001600160401b03821161024b576020019161014082023603831361024b57565b15611f0457565b60405162461bcd60e51b8152602060048201526012602482015271092dcecc2d8d2c840d2e8cada40d2dcc8caf60731b6044820152606490fd5b9190811015611dd25760051b81013590601e198136030182121561024b5701908135916001600160401b03831161024b576020018260051b3603811361024b579190565b9015611dd25790565b9190811015611dd257610140020190565b634e487b7160e01b600052601160045260246000fd5b90606482029180830460641490151715611fc857565b611f9c565b81810292918115918404141715611fc857565b6004111561024b57565b60041115611e0157565b35611e1081611fe0565b634e487b7160e01b600052604160045260246000fd5b608081019081106001600160401b0382111761202f57604052565b611ffe565b90601f801991011681019081106001600160401b0382111761202f57604052565b604051906103ce608083612034565b604051906103ce606083612034565b604051906103ce61010083612034565b604051906103ce60e083612034565b6004821015611e015752565b516004811015611e015790565b9060018201809211611fc857565b91908201809211611fc857565b156120cd57565b60405162461bcd60e51b815260206004820152601c60248201527f496e73756666696369656e7420746f74616c206d73672e76616c7565000000006044820152606490fd5b91908203918211611fc857565b6001600160401b03811161202f57601f01601f191660200190565b3d15612165573d9061214b8261211f565b916121596040519384612034565b82523d6000602084013e565b606090565b1561217157565b60405162461bcd60e51b815260206004820152600d60248201526c1499599d5b990819985a5b1959609a1b6044820152606490fd5b6121af90613383565b600052600960205260406000209060005260205260ff6040600020541690565b6114579061223961223461222e6122b596956121e9612e7f565b6121f1612ed5565b6121fa85613a46565b9661221d612218610af261129e8b600052600b602052604060002090565b6122bf565b6117f46101008701354210156122ff565b83613ab9565b612376565b61224d6001600160a01b036111f183611e69565b61229561228e61121361227261226d87600052600a602052604060002090565b6123fa565b6122816020820151151561243a565b516001600160a01b031690565b1515612477565b6122ae6122a182611e69565b6112dc36602085016124bc565b3690612525565b6103ce6001600055565b156122c657565b60405162461bcd60e51b8152602060048201526011602482015270105b1c9958591e48199a5b985b1a5e9959607a1b6044820152606490fd5b1561230657565b60405162461bcd60e51b8152602060048201526011602482015270105d58dd1a5bdb881b9bdd08195b991959607a1b6044820152606490fd5b92919261234b8261211f565b916123596040519384612034565b82948184528183011161024b578281602093846000960137010152565b1561237d57565b60405162461bcd60e51b8152602060048201526011602482015270496e76616c6964207369676e617475726560781b6044820152606490fd5b156123bd57565b60405162461bcd60e51b815260206004820152601560248201527424b73b30b634b21030bab1ba34b7b71036b0b5b2b960591b6044820152606490fd5b90604051606081018181106001600160401b0382111761202f5760405260406002829460018060a01b038154168452600181015460208501520154910152565b1561244157565b60405162461bcd60e51b815260206004820152600e60248201526d139bc8189a591cc81c1b1858d95960921b6044820152606490fd5b1561247e57565b60405162461bcd60e51b815260206004820152601660248201527524b73b30b634b2103bb4b73734b733903134b23232b960511b6044820152606490fd5b919082608091031261024b576040516124d481612014565b606080829480356124e481611fe0565b845260208101356124f4816103b2565b6020850152604081013560408501520135910152565b9080601f8301121561024b57816020611e109335910161233f565b9190916101608184031261024b5761253b612073565b92612545826103c3565b845261255481602084016124bc565b602085015260a0820135604085015260c0820135606085015260e0820135608085015261010082013560a085015261012082013560c08501526101408201356001600160401b03811161024b576125ab920161250a565b60e0830152565b906125ea6060916125c284613383565b6000526008602052604060002081600052602052610c8b604060002054946020810190611ec7565b0135111590565b6001600160401b03811161202f5760051b60200190565b1561260f57565b60405162461bcd60e51b815260206004820152601460248201527313dc99195c88185b1c9958591e48199a5b1b195960621b6044820152606490fd5b1561265257565b60405162461bcd60e51b815260206004820152601760248201527f4f7264657220616c72656164792063616e63656c6c65640000000000000000006044820152606490fd5b9291906126a3816125f1565b936126b16040519586612034565b602085838152019160051b810192831161024b57905b8282106126d357505050565b81358152602091820191016126c7565b156126ea57565b60405162461bcd60e51b815260206004820152600f60248201526e2737ba1030903134b21037b93232b960891b6044820152606490fd5b9190916101408184031261024b5760606101206040519261274184612014565b61275b849661275081846124bc565b8652608083016124bc565b602085015261010081013560408501520135910152565b611e10903690612721565b1561278457565b60405162461bcd60e51b8152602060048201526013602482015272125b9d985b1a59081cd95b1b08185b5bdd5b9d606a1b6044820152606490fd5b156127c657565b60405162461bcd60e51b8152602060048201526016602482015275496e76616c696420626964646572206164647265737360501b6044820152606490fd5b1561280b57565b60405162461bcd60e51b8152602060048201526016602482015275496e76616c69642073656c6c6572206164647265737360501b6044820152606490fd5b1561285057565b60405162461bcd60e51b8152602060048201526016602482015275496e73756666696369656e74206d73672e76616c756560501b6044820152606490fd5b9081602091031261024b575190565b906004821015611e015752565b606080916128c28482356128bd81611fe0565b61289d565b60208101356128d0816103b2565b6001600160a01b03166020850152604081810135908501520135910152565b9035601e198236030181121561024b5701602081359101916001600160401b03821161024b57813603831361024b57565b908060209392818452848401376000828201840152601f01601f1916010190565b6101806129b9611e109360208452803561295a816103b2565b60018060a01b0316602085015261297760408501602083016128aa565b60a081013560c085015260c081013560e085015260e08101356101008501526101008101356101208501526101208101356101408501526101408101906128ef565b919092610160808201520191612920565b6040513d6000823e3d90fd5b156129dd57565b60405162461bcd60e51b815260206004820152601f60248201527f4d616b65722063616e6e6f7420626964206f6e206f776e2061756374696f6e006044820152606490fd5b15612a2957565b60405162461bcd60e51b8152602060048201526013602482015272105d58dd1a5bdb881b9bdd081cdd185c9d1959606a1b6044820152606490fd5b15612a6b57565b60405162461bcd60e51b815260206004820152600d60248201526c105d58dd1a5bdb88195b991959609a1b6044820152606490fd5b15612aa757565b60405162461bcd60e51b815260206004820152601860248201527f496e76616c69642061756374696f6e206475726174696f6e00000000000000006044820152606490fd5b15612af357565b60405162461bcd60e51b8152602060048201526011602482015270105d58dd1a5bdb881d1bdbc81cda1bdc9d607a1b6044820152606490fd5b15612b3357565b60405162461bcd60e51b815260206004820152601060248201526f41756374696f6e20746f6f206c6f6e6760801b6044820152606490fd5b15612b7257565b60405162461bcd60e51b815260206004820152601960248201527f41756374696f6e20616c72656164792066696e616c697a6564000000000000006044820152606490fd5b15612bbe57565b60405162461bcd60e51b81526020600482015260156024820152744269642062656c6f7720737461727420707269636560581b6044820152606490fd5b15612c0257565b60405162461bcd60e51b815260206004820152601760248201527f42696420696e6372656d656e7420746f6f20736d616c6c0000000000000000006044820152606490fd5b15612c4e57565b60405162461bcd60e51b815260206004820152601b60248201527f456d657267656e6379207769746864726177616c206661696c656400000000006044820152606490fd5b903590601e198136030182121561024b57018035906001600160401b03821161024b5760200191813603831361024b57565b15612ccc57565b60405162461bcd60e51b815260206004820152601c60248201527f42696420636f6c6c656374696f6e206973206e6f7420455243373231000000006044820152606490fd5b9190916101608184031261024b57612d27612073565b92612d31826103c3565b8452612d4081602084016124bc565b6020850152612d5160a083016103c3565b604085015260c0820135606085015260e0820135608085015261010082013560a085015261012082013560c08501526101408201356001600160401b03811161024b576125ab920161250a565b15612da557565b60405162461bcd60e51b815260206004820152600b60248201526a109a5908195e1c1a5c995960aa1b6044820152606490fd5b15612ddf57565b60405162461bcd60e51b815260206004820152601c60248201527f4269646465722063616e6e6f7420616363657074206f776e20626964000000006044820152606490fd5b15612e2b57565b60405162461bcd60e51b815260206004820152601960248201527f426964206d6178207175616e74697479206578636565646564000000000000006044820152606490fd5b6000198114611fc85760010190565b600260005414612e90576002600055565b60405162461bcd60e51b815260206004820152601f60248201527f5265656e7472616e637947756172643a207265656e7472616e742063616c6c006044820152606490fd5b60ff60015460a01c16612ee457565b60405162461bcd60e51b815260206004820152601060248201526f14185d5cd8589b194e881c185d5cd95960821b6044820152606490fd5b15612f2357565b60405162461bcd60e51b815260206004820152601360248201527229b2b73232b91034b9903737ba103a30b5b2b960691b6044820152606490fd5b15612f6557565b60405162461bcd60e51b815260206004820152601260248201527113585ad95c881bdc99195c88199a5b1b195960721b6044820152606490fd5b15612fa657565b60405162461bcd60e51b815260206004820152601560248201527413585ad95c881bdc99195c8818d85b98d95b1b1959605a1b6044820152606490fd5b35906103ce82611dd7565b81601f8201121561024b578035613004816125f1565b926130126040519485612034565b818452602061014081860193028401019281841161024b57602001915b83831061303d575050505090565b60206101409161304d8486612721565b81520192019161302f565b91909160e08184031261024b5761306d612083565b9261307782612fe3565b845260208201356001600160401b03811161024b5781613098918401612fee565b60208501526130a9604083016103c3565b60408501526130ba606083016103c3565b60608501526080820135608085015260a082013560a085015260c08201356001600160401b03811161024b576130f0920161250a565b60c0830152565b156130fe57565b60405162461bcd60e51b815260206004820152601360248201527213585ad95c881bdc99195c88195e1c1a5c9959606a1b6044820152606490fd5b919061314483614470565b61315582610c8b6020860186611ec7565b916131636020830183611ec7565b15611dd2576040850135613176816103b2565b6060840135613184816103b2565b6001600160a01b0390811691160361320b576103ce946131d06131c96112136040610af297611aa08a6080896131c26132019b6132069f840161497b565b019061497b565b3314612f1c565b6131e56131e0610af285846125b2565b612f5e565b6131fa6131f5610af285846121a6565b612f9f565b3690613058565b61473f565b6130f7565b60405162461bcd60e51b81526020600482015260166024820152752a30b5b2b91036bab9ba1036b0ba31b41036b0b5b2b960511b6044820152606490fd5b613262939261325a610bf292614757565b933691612697565b1561326957565b60405162461bcd60e51b815260206004820152601460248201527324b73b30b634b21026b2b935b63290383937b7b360611b6044820152606490fd5b906132af826125f1565b6132bc6040519182612034565b82815280926132cd601f19916125f1565b0190602036910137565b8051821015611dd25760209160051b010190565b805160209091019060005b8181106133035750505090565b82518452602093840193909201916001016132f6565b92969594919693909360e08401977f06c8ffd199dde1e3c1f0d71dae647c455e0da36831ccd370e21bb7d22d37095985526003861015611e015760c0956020860152604085015260018060a01b0316606084015260018060a01b0316608083015260a08201520152565b90602082019161339d6133968483611ec7565b90506132a5565b9060005b6133ab8583611ec7565b90508110156133de57806133cd6133c8600193610c8b8987611ec7565b614757565b6133d782866132d7565b52016133a1565b50919250604051613405816133f76020820180956132eb565b03601f198101835282612034565b5190209061344f61341582611e06565b926133f761342560408501611e69565b9361343260608201611e69565b9060a060808201359101359160405196879560208701998a613319565b51902090565b92908360005260086020526040600020826000526020526040600020549281151590816134db575b50156134a757613493610b20916134a4946120b9565b936000526008602052604060002090565b55565b60405162461bcd60e51b815260206004820152600c60248201526b125b9d985b1a5908199a5b1b60a21b6044820152606490fd5b9050818401808511611fc85711153861347d565b156134f657565b60405162461bcd60e51b8152602060048201526015602482015274119959481c9958da5c1a595b9d081b9bdd081cd95d605a1b6044820152606490fd5b1561353a57565b60405162461bcd60e51b8152602060048201526016602482015275151c985b9cd9995c881859d95b9d081b9bdd081cd95d60521b6044820152606490fd5b1561357f57565b60405162461bcd60e51b8152602060048201526011602482015270125b9d985b1a59081c9958da5c1a595b9d607a1b6044820152606490fd5b6001600160a01b039182168152918116602083015290911660408201526060810191909152608081019190915260c060a0820181905260009082015260e00190565b6001600160a01b03918216815291811660208301529091166040820152606081019190915260800190565b1561362c57565b60405162461bcd60e51b8152602060048201526013602482015272119959481d1c985b9cd9995c8819985a5b1959606a1b6044820152606490fd5b1561366e57565b60405162461bcd60e51b815260206004820152601660248201527513985d1a5d99481d1c985b9cd9995c8819985a5b195960521b6044820152606490fd5b600454919290916136c7906001600160a01b031615156134ef565b6005546136dc906001600160a01b0316611213565b926136e8841515613533565b6001600160a01b038116926136fe841515613578565b6060830191613714611512845160075490611fcd565b93613720858551612112565b96815161372c81611fea565b61373581611fea565b6137a1575050505060006103ce9481948294613755849551341015612849565b8061376c575b505af161376661213a565b50613667565b8380808061379b9461378b61121361121360045460018060a01b031690565b5af161379561213a565b50613625565b3861375b565b90939194929550600184516137b581611fea565b6137be81611fea565b036138ca57505080613845575b506005546137f9906020906137ea90611213906001600160a01b031681565b9201516001600160a01b031690565b92813b1561024b57600080946138256040519788968795869463368fa33960e21b8652600486016135fa565b03925af18015611489576138365750565b8061147d60006103ce93612034565b60055461385c90611213906001600160a01b031681565b60208301516001600160a01b03166004549091906001600160a01b031690803b1561024b5786600080946138a66040519788968795869463368fa33960e21b8652600486016135fa565b03925af1801561148957156137cb578061147d60006138c493612034565b386137cb565b915091939450600384516138dd81611fea565b6138e681611fea565b0361394457505060055461390490611213906001600160a01b031681565b60208301516040906001600160a01b031693015193813b1561024b576000809461382560405197889687958694633c4fc9fb60e11b8652600486016135fa565b6002849592955161395481611fea565b61395d81611fea565b036139b0576001600160a01b031660208401519091906040906001600160a01b03169401519451823b1561024b57600094613825869260405198899788968795633ab9e1f760e21b8752600487016135b8565b60405162461bcd60e51b8152602060048201526016602482015275556e737570706f72746564206173736574207479706560501b6044820152606490fd5b6001546001600160a01b03163303613a0257565b606460405162461bcd60e51b815260206004820152602060248201527f4f776e61626c653a2063616c6c6572206973206e6f7420746865206f776e65726044820152fd5b6020613a669160405180938192631344d6d960e11b835260048301612941565b038173__$9bf758efd8785ea888de3f7a696bc2dc09$__5af4801561148957611e1091600091613a9a575b50610a6c614aa2565b613ab3915060203d602011611556576115488183612034565b38613a91565b613ace613ad692613ac983613a46565b614bb8565b929092614bfa565b35613ae0816103b2565b6001600160a01b0391821691161490565b15613af857565b60405162461bcd60e51b815260206004820152600d60248201526c24b73b30b634b21037bbb732b960991b6044820152606490fd5b15613b3457565b60405162461bcd60e51b815260206004820152601b60248201527f496e73756666696369656e74206e61746976652062616c616e636500000000006044820152606490fd5b15613b8057565b60405162461bcd60e51b815260206004820152601a60248201527f496e73756666696369656e742045524332302062616c616e63650000000000006044820152606490fd5b15613bcc57565b60405162461bcd60e51b815260206004820152601c60248201527f496e73756666696369656e7420455243313135352062616c616e6365000000006044820152606490fd5b9081602091031261024b5751611e10816103b2565b15613c2d57565b60405162461bcd60e51b815260206004820152601060248201526f2737ba1022a9219b99189037bbb732b960811b6044820152606490fd5b6001600160a01b0381169190613c7c831515613af1565b60038251613c8981611fea565b613c9281611fea565b03613d345750602080820151613cdf939290604090613cbb90611213906001600160a01b031681565b9101519060405180809681946331a9108f60e11b8352600483019190602083019252565b03915afa8015611489576103ce92600091613d05575b506001600160a01b031614613c26565b613d27915060203d602011613d2d575b613d1f8183612034565b810190613c11565b38613cf5565b503d613d15565b915060028151613d4381611fea565b613d4c81611fea565b03613ded57602081810151613da69390613d7090611213906001600160a01b031681565b6040848101519051627eeac760e11b81526001600160a01b03909316600484015260248301529093849190829081906044820190565b03915afa908115611489576103ce92600092613dc9575b50606001511115613bc5565b6060919250613de69060203d602011611556576115488183612034565b9190613dbd565b60018151613dfa81611fea565b613e0381611fea565b03613e9b57602081810151613e549390613e2790611213906001600160a01b031681565b6040516370a0823160e01b81526001600160a01b0390921660048301529093849190829081906024820190565b03915afa908115611489576103ce92600092613e77575b50606001511115613b79565b6060919250613e949060203d602011611556576115488183612034565b9190613e6b565b8051613ea681611fea565b613eaf81611fea565b6139b05760606103ce92319101511115613b2d565b15613ecb57565b60405162461bcd60e51b815260206004820152601760248201527f5061796d656e74207472616e73666572206661696c65640000000000000000006044820152606490fd5b90613f28610b2f82600052600b602052604060002090565b613f3f61226d82600052600a602052604060002090565b916020830192613f518451151561243a565b8051613f67906001600160a01b03161515612477565b60208201906003613f78835161209e565b613f8181611fea565b036140d757600554613f9d90611213906001600160a01b031681565b9151602081015184518351604090930151946001600160a01b0392831693831692909116813b1561024b5760008094613fec60405198899687958694633c4fc9fb60e11b8652600486016135fa565b03925af19081156114895761228160008080808a61406b6112136112137fd5e3e604def17bd0c5b7b35a53a73dd0f20a6855f5672e207c4dade80e8b7b959c6140999c61407b9c6140c3575b505b61405661404e611512875160075490611fcd565b809651612112565b948061409e575b50516001600160a01b031690565b5af161407561213a565b50613ec4565b93516040519081526001600160a01b03909416939081906020820190565b0390a3565b868080806140bd9461378b61121361121360045460018060a01b031690565b3861405d565b8061147d886140d193612034565b38614038565b60026140e3835161209e565b6140ec81611fea565b036139b05760055461410890611213906001600160a01b031681565b915160208101519092906001600160a01b031684519091906001600160a01b031683519091906001600160a01b03169160606040870151960151823b1561024b5760009461416e8692604051998a9788968795633ab9e1f760e21b8752600487016135b8565b03925af19081156114895761228160008080808a61406b6112136112137fd5e3e604def17bd0c5b7b35a53a73dd0f20a6855f5672e207c4dade80e8b7b959c6140999c61407b9c6141c0575b5061403a565b8061147d886141ce93612034565b386141ba565b60ff81146141e557611e10906147f8565b506040516000600254908160011c91600181169081156142b4575b6020841082146142a057838552849291602084019181156142875750600114614231575b50611e1092500382612034565b6002600090815291507f405787fa12a823e0f2b7631cc41b3ba8828b3321ca811111fa75cd3aa3bb5ace5b8483106142705750611e1093500138614224565b80548284015285935060209092019160010161425c565b60ff1916825250611e1093151560051b01905038614224565b634e487b7160e01b83526022600452602483fd5b92607f1692614200565b60ff81146142cf57611e10906147f8565b506040516000600354908160011c9160018116908115614370575b6020841082146142a05783855284929160208401918115614287575060011461431a5750611e1092500382612034565b6003600090815291507fc2575a0e9e593c00f959f8c92f12db2869c3395a3b0502d05e2516446f71f85b5b8483106143595750611e1093500138614224565b805482840152859350602090920191600101614345565b92607f16926142ea565b1561438157565b60405162461bcd60e51b815260206004820152602a60248201527f496e76616c6964207369676e61747572652e204d616b6572206973206e6f74206044820152693a34329039b4b3b732b960b11b6064820152608490fd5b9081602091031261024b57516001600160e01b03198116810361024b5790565b604090611e10949281528160208201520191612920565b1561441757565b60405162461bcd60e51b815260206004820152602b60248201527f636f6e7472616374206f72646572207369676e6174757265207665726966696360448201526a30ba34b7b71032b93937b960a91b6064820152608490fd5b61447c60408201611e69565b61449661448b6117c284613383565b9260c0810190612c93565b92823b1561452b57604051630b135d3f60e11b81529360209385939092849283926144c492600485016143f9565b03916001600160a01b03165afa8015611489576103ce916000916144fc575b506001600160e01b031916630b135d3f60e11b14614410565b61451e915060203d602011614524575b6145168183612034565b8101906143d9565b386144e3565b503d61450c565b61121390614541614547936103ce96369161233f565b906147e3565b6001600160a01b039091161461437a565b929091906000915b84518310156145a75761457383866132d7565b51906000828210156145965750600052602052600160406000205b920191614560565b60409160019382526020522061458e565b915092501490565b156145b657565b60405162461bcd60e51b815260206004820152602d60248201527f636f6e74726163742061756374696f6e207369676e617475726520766572696660448201526c34b1b0ba34b7b71032b93937b960991b6064820152608490fd5b61461a81611e69565b61463261462683613a46565b92610140810190612c93565b92823b1561452b57604051630b135d3f60e11b815293602093859390928492839261466092600485016143f9565b03916001600160a01b03165afa8015611489576103ce91600091614698575b506001600160e01b031916630b135d3f60e11b146145af565b6146b1915060203d602011614524576145168183612034565b3861467f565b6040516301ffc9a760e01b81526380ac58cd60e01b600482015290602090829060249082906001600160a01b03165afa80916000916146fd575b5090611e105750600090565b6020813d602011614737575b8161471660209383612034565b8101031261473357519081151582036147305750386146f1565b80fd5b5080fd5b3d9150614709565b606091602061474f9201516132d7565b510151421190565b61476961476436836124bc565b614a26565b9061477a61476436608084016124bc565b90610120610100820135910135906040519260208401947fe28cfd2e1bcec04840c1ddb765a2c756cf3e42aef44e48ddda10af78ed9a1c44865260408501526060840152608083015260a082015260a0815261344f60c082612034565b611e1090610a6c614aa2565b611e10916147f091614bb8565b919091614bfa565b60ff811690601f82116148295760408051926148148285612034565b6020808552840191601f190136833783525290565b632cd44ac360e21b60005260046000fd5b803590614846826103b2565b61485661476436602084016124bc565b9060a081013590614866826103b2565b60c081013560e082013590610120610100840135930135936040519560208701977fa9d4367585bdf5ac5ed4070abdbb7c7b175c44ff9a30373a11d40e8c2ab95e86895260018060a01b03166040880152606087015260018060a01b0316608086015260a085015260c084015260e0830152610100820152610100815261344f61012082612034565b156148f657565b60405162461bcd60e51b815260206004820152601960248201527f436f6e74726163742061646472657373206d69736d61746368000000000000006044820152606490fd5b1561494257565b60405162461bcd60e51b8152602060048201526011602482015270082e6e6cae840928840dad2e6dac2e8c6d607b1b6044820152606490fd5b90813561498781611fe0565b81359061499382611fe0565b6004821015611e01576004811015611e0157036149eb57604080836149e06149c060206103ce9701611e69565b6149cf61121360208801611e69565b6001600160a01b03909116146148ef565b01359101351461493b565b60405162461bcd60e51b8152602060048201526013602482015272082e6e6cae840e8f2e0ca40dad2e6dac2e8c6d606b1b6044820152606490fd5b8051906004821015611e015760018060a01b0360208201511690606060408201519101519060405192614a8460208501957f6e4f52e5739dbefd226dcbefef0e563115bc2b92726a648e213cb8cde30b11a68752604086019061289d565b6060840152608083015260a082015260a0815261344f60c082612034565b307f00000000000000000000000000000000000000000000000000000000000000006001600160a01b03161480614b8f575b15614afd577f000000000000000000000000000000000000000000000000000000000000000090565b60405160208101907f8b73c3c69bb8fe3d512ecc4cf759cc79239f7b179b0ffacaa9a75d522b39400f82527f000000000000000000000000000000000000000000000000000000000000000060408201527f000000000000000000000000000000000000000000000000000000000000000060608201524660808201523060a082015260a0815261344f60c082612034565b507f00000000000000000000000000000000000000000000000000000000000000004614614ad4565b906041815114600014614be657614be2916020820151906060604084015193015160001a90614d1a565b9091565b5050600090600290565b60051115611e0157565b614c0381614bf0565b80614c0b5750565b614c1481614bf0565b60018103614c615760405162461bcd60e51b815260206004820152601860248201527f45434453413a20696e76616c6964207369676e617475726500000000000000006044820152606490fd5b614c6a81614bf0565b60028103614cb75760405162461bcd60e51b815260206004820152601f60248201527f45434453413a20696e76616c6964207369676e6174757265206c656e677468006044820152606490fd5b80614cc3600392614bf0565b14614cca57565b60405162461bcd60e51b815260206004820152602260248201527f45434453413a20696e76616c6964207369676e6174757265202773272076616c604482015261756560f01b6064820152608490fd5b7f7fffffffffffffffffffffffffffffff5d576e7357a4501ddfe92f46681b20a08411614d8e5760209360009360ff60809460405194855216868401526040830152606082015282805260015afa15611489576000516001600160a01b03811615614d855790600090565b50600090600190565b5050505060009060039056fea2646970667358221220ccf0e3dd18b6876c74d53657b52fded29a292702eb9ba6455429ce6f7f80fb5764736f6c634300081c0033","opcodes":"PUSH2 0x160 DUP1 PUSH1 0x40 MSTORE CALLVALUE PUSH2 0x338 JUMPI PUSH1 0x80 DUP2 PUSH2 0x54BD DUP1 CODESIZE SUB DUP1 SWAP2 PUSH2 0x20 DUP3 DUP6 PUSH2 0x33D JUMP JUMPDEST DUP4 CODECOPY DUP2 ADD SUB SLT PUSH2 0x338 JUMPI PUSH2 0x33 DUP2 PUSH2 0x376 JUMP JUMPDEST PUSH2 0x3F PUSH1 0x20 DUP4 ADD PUSH2 0x376 JUMP JUMPDEST SWAP2 PUSH1 0x60 PUSH2 0x4E PUSH1 0x40 DUP4 ADD PUSH2 0x376 JUMP JUMPDEST SWAP2 ADD MLOAD SWAP2 PUSH1 0x40 MLOAD PUSH2 0x60 PUSH1 0x40 DUP3 PUSH2 0x33D JUMP JUMPDEST PUSH1 0x11 DUP2 MSTORE PUSH1 0x20 DUP2 ADD SWAP1 PUSH17 0x4C61796572474D61726B6574506C616365 PUSH1 0x78 SHL DUP3 MSTORE PUSH1 0x40 MLOAD SWAP2 PUSH2 0x8F PUSH1 0x40 DUP5 PUSH2 0x33D JUMP JUMPDEST PUSH1 0x1 DUP4 MSTORE PUSH1 0x20 DUP4 ADD SWAP2 PUSH1 0x31 PUSH1 0xF8 SHL DUP4 MSTORE PUSH1 0x1 PUSH1 0x0 SSTORE PUSH1 0x1 SLOAD CALLER PUSH1 0x1 DUP1 PUSH1 0xA0 SHL SUB DUP3 AND PUSH32 0x8BE0079C531659141344CD1FD0A4F28419497F9722A3DAAFE3B4186F6B6457E0 PUSH1 0x0 DUP1 LOG3 PUSH1 0x1 PUSH1 0x1 PUSH1 0xA8 SHL SUB NOT AND CALLER PUSH1 0xFF PUSH1 0xA0 SHL NOT AND OR PUSH1 0x1 SSTORE PUSH2 0xF5 DUP2 PUSH2 0x38A JUMP JUMPDEST PUSH2 0x120 MSTORE PUSH2 0x102 DUP5 PUSH2 0x54E JUMP JUMPDEST PUSH2 0x140 MSTORE MLOAD SWAP1 KECCAK256 SWAP2 DUP3 PUSH1 0xE0 MSTORE MLOAD SWAP1 KECCAK256 DUP1 PUSH2 0x100 MSTORE CHAINID PUSH1 0xA0 MSTORE PUSH1 0x40 MLOAD SWAP1 PUSH1 0x20 DUP3 ADD SWAP3 PUSH32 0x8B73C3C69BB8FE3D512ECC4CF759CC79239F7B179B0FFACAA9A75D522B39400F DUP5 MSTORE PUSH1 0x40 DUP4 ADD MSTORE PUSH1 0x60 DUP3 ADD MSTORE CHAINID PUSH1 0x80 DUP3 ADD MSTORE ADDRESS PUSH1 0xA0 DUP3 ADD MSTORE PUSH1 0xA0 DUP2 MSTORE PUSH2 0x16B PUSH1 0xC0 DUP3 PUSH2 0x33D JUMP JUMPDEST MLOAD SWAP1 KECCAK256 PUSH1 0x80 MSTORE ADDRESS PUSH1 0xC0 MSTORE PUSH1 0x1 PUSH1 0x1 PUSH1 0xA0 SHL SUB AND SWAP3 DUP4 ISZERO PUSH2 0x2F3 JUMPI PUSH1 0x1 PUSH1 0x1 PUSH1 0xA0 SHL SUB AND SWAP1 DUP2 ISZERO PUSH2 0x2AE JUMPI PUSH1 0x1 PUSH1 0x1 PUSH1 0xA0 SHL SUB AND SWAP3 DUP4 ISZERO PUSH2 0x269 JUMPI PUSH2 0x2710 DUP4 GT PUSH2 0x232 JUMPI PUSH1 0x1 DUP1 PUSH1 0xA0 SHL SUB NOT PUSH1 0x4 SLOAD AND OR PUSH1 0x4 SSTORE PUSH1 0x1 DUP1 PUSH1 0xA0 SHL SUB NOT PUSH1 0x5 SLOAD AND OR PUSH1 0x5 SSTORE PUSH1 0x7 SSTORE PUSH1 0x1 DUP1 PUSH1 0xA0 SHL SUB NOT PUSH1 0x6 SLOAD AND OR PUSH1 0x6 SSTORE PUSH1 0x40 MLOAD PUSH2 0x4DD0 SWAP1 DUP2 PUSH2 0x6ED DUP3 CODECOPY PUSH1 0x80 MLOAD DUP2 PUSH2 0x4ADB ADD MSTORE PUSH1 0xA0 MLOAD DUP2 PUSH2 0x4B92 ADD MSTORE PUSH1 0xC0 MLOAD DUP2 PUSH2 0x4AA5 ADD MSTORE PUSH1 0xE0 MLOAD DUP2 PUSH2 0x4B2A ADD MSTORE PUSH2 0x100 MLOAD DUP2 PUSH2 0x4B50 ADD MSTORE PUSH2 0x120 MLOAD DUP2 PUSH2 0x8DD ADD MSTORE PUSH2 0x140 MLOAD DUP2 PUSH2 0x906 ADD MSTORE RETURN JUMPDEST PUSH1 0x40 MLOAD PUSH3 0x461BCD PUSH1 0xE5 SHL DUP2 MSTORE PUSH1 0x20 PUSH1 0x4 DUP3 ADD MSTORE PUSH1 0xF PUSH1 0x24 DUP3 ADD MSTORE PUSH15 0x496E76616C69642066656520425053 PUSH1 0x88 SHL PUSH1 0x44 DUP3 ADD MSTORE PUSH1 0x64 SWAP1 REVERT JUMPDEST PUSH1 0x40 MLOAD PUSH3 0x461BCD PUSH1 0xE5 SHL DUP2 MSTORE PUSH1 0x20 PUSH1 0x4 DUP3 ADD MSTORE PUSH1 0x15 PUSH1 0x24 DUP3 ADD MSTORE PUSH32 0x496E76616C69642061756374696F6E207661756C740000000000000000000000 PUSH1 0x44 DUP3 ADD MSTORE PUSH1 0x64 SWAP1 REVERT JUMPDEST PUSH1 0x40 MLOAD PUSH3 0x461BCD PUSH1 0xE5 SHL DUP2 MSTORE PUSH1 0x20 PUSH1 0x4 DUP3 ADD MSTORE PUSH1 0x1C PUSH1 0x24 DUP3 ADD MSTORE PUSH32 0x496E76616C6964206173736574207472616E73666572206167656E7400000000 PUSH1 0x44 DUP3 ADD MSTORE PUSH1 0x64 SWAP1 REVERT JUMPDEST PUSH1 0x40 MLOAD PUSH3 0x461BCD PUSH1 0xE5 SHL DUP2 MSTORE PUSH1 0x20 PUSH1 0x4 DUP3 ADD MSTORE PUSH1 0x15 PUSH1 0x24 DUP3 ADD MSTORE PUSH32 0x496E76616C69642066656520726563697069656E740000000000000000000000 PUSH1 0x44 DUP3 ADD MSTORE PUSH1 0x64 SWAP1 REVERT JUMPDEST PUSH1 0x0 DUP1 REVERT JUMPDEST PUSH1 0x1F SWAP1 SWAP2 ADD PUSH1 0x1F NOT AND DUP2 ADD SWAP1 PUSH1 0x1 PUSH1 0x1 PUSH1 0x40 SHL SUB DUP3 GT SWAP1 DUP3 LT OR PUSH2 0x360 JUMPI PUSH1 0x40 MSTORE JUMP JUMPDEST PUSH4 0x4E487B71 PUSH1 0xE0 SHL PUSH1 0x0 MSTORE PUSH1 0x41 PUSH1 0x4 MSTORE PUSH1 0x24 PUSH1 0x0 REVERT JUMPDEST MLOAD SWAP1 PUSH1 0x1 PUSH1 0x1 PUSH1 0xA0 SHL SUB DUP3 AND DUP3 SUB PUSH2 0x338 JUMPI JUMP JUMPDEST SWAP1 DUP2 MLOAD PUSH1 0x20 DUP2 LT PUSH1 0x0 EQ PUSH2 0x422 JUMPI POP SWAP1 PUSH1 0x1F DUP2 MLOAD GT PUSH2 0x3C6 JUMPI PUSH1 0x20 DUP2 MLOAD SWAP2 ADD MLOAD PUSH1 0x20 DUP3 LT PUSH2 0x3B6 JUMPI OR SWAP1 JUMP JUMPDEST PUSH1 0x0 NOT DUP3 PUSH1 0x20 SUB PUSH1 0x3 SHL SHL AND OR SWAP1 JUMP JUMPDEST PUSH1 0x40 MLOAD SWAP1 PUSH4 0x305A27A9 PUSH1 0xE0 SHL DUP3 MSTORE PUSH1 0x20 PUSH1 0x4 DUP4 ADD MSTORE DUP2 DUP2 MLOAD SWAP2 DUP3 PUSH1 0x24 DUP4 ADD MSTORE PUSH1 0x0 JUMPDEST DUP4 DUP2 LT PUSH2 0x40A JUMPI POP POP DUP2 PUSH1 0x0 PUSH1 0x44 DUP1 SWAP5 DUP5 ADD ADD MSTORE PUSH1 0x1F DUP1 NOT SWAP2 ADD AND DUP2 ADD SUB ADD SWAP1 REVERT JUMPDEST PUSH1 0x20 DUP3 DUP3 ADD DUP2 ADD MLOAD PUSH1 0x44 DUP8 DUP5 ADD ADD MSTORE DUP6 SWAP4 POP ADD PUSH2 0x3E8 JUMP JUMPDEST PUSH1 0x1 PUSH1 0x1 PUSH1 0x40 SHL SUB DUP2 GT PUSH2 0x360 JUMPI PUSH1 0x2 SLOAD PUSH1 0x1 DUP2 DUP2 SHR SWAP2 AND DUP1 ISZERO PUSH2 0x544 JUMPI JUMPDEST PUSH1 0x20 DUP3 LT EQ PUSH2 0x52E JUMPI PUSH1 0x1F DUP2 GT PUSH2 0x4F8 JUMPI JUMPDEST POP PUSH1 0x20 SWAP3 PUSH1 0x1F DUP3 GT PUSH1 0x1 EQ PUSH2 0x493 JUMPI SWAP3 DUP2 SWAP3 SWAP4 PUSH1 0x0 SWAP3 PUSH2 0x488 JUMPI JUMPDEST POP POP DUP2 PUSH1 0x1 SHL SWAP2 PUSH1 0x0 NOT SWAP1 PUSH1 0x3 SHL SHR NOT AND OR PUSH1 0x2 SSTORE PUSH1 0xFF SWAP1 JUMP JUMPDEST ADD MLOAD SWAP1 POP CODESIZE DUP1 PUSH2 0x46E JUMP JUMPDEST PUSH1 0x1F NOT DUP3 AND SWAP4 PUSH1 0x2 PUSH1 0x0 MSTORE DUP1 PUSH1 0x0 KECCAK256 SWAP2 PUSH1 0x0 JUMPDEST DUP7 DUP2 LT PUSH2 0x4E0 JUMPI POP DUP4 PUSH1 0x1 SWAP6 SWAP7 LT PUSH2 0x4C7 JUMPI JUMPDEST POP POP POP DUP2 SHL ADD PUSH1 0x2 SSTORE PUSH1 0xFF SWAP1 JUMP JUMPDEST ADD MLOAD PUSH1 0x0 NOT PUSH1 0xF8 DUP5 PUSH1 0x3 SHL AND SHR NOT AND SWAP1 SSTORE CODESIZE DUP1 DUP1 PUSH2 0x4B9 JUMP JUMPDEST SWAP2 SWAP3 PUSH1 0x20 PUSH1 0x1 DUP2 SWAP3 DUP7 DUP6 ADD MLOAD DUP2 SSTORE ADD SWAP5 ADD SWAP3 ADD PUSH2 0x4A6 JUMP JUMPDEST PUSH1 0x2 PUSH1 0x0 MSTORE PUSH1 0x1F PUSH1 0x20 PUSH1 0x0 KECCAK256 SWAP2 ADD PUSH1 0x5 SHR DUP2 ADD SWAP1 PUSH1 0x1F DUP4 ADD PUSH1 0x5 SHR ADD JUMPDEST DUP2 DUP2 LT PUSH2 0x522 JUMPI POP PUSH2 0x453 JUMP JUMPDEST PUSH1 0x0 DUP2 SSTORE PUSH1 0x1 ADD PUSH2 0x515 JUMP JUMPDEST PUSH4 0x4E487B71 PUSH1 0xE0 SHL PUSH1 0x0 MSTORE PUSH1 0x22 PUSH1 0x4 MSTORE PUSH1 0x24 PUSH1 0x0 REVERT JUMPDEST SWAP1 PUSH1 0x7F AND SWAP1 PUSH2 0x441 JUMP JUMPDEST SWAP1 DUP2 MLOAD PUSH1 0x20 DUP2 LT PUSH1 0x0 EQ PUSH2 0x5D6 JUMPI POP SWAP1 PUSH1 0x1F DUP2 MLOAD GT PUSH2 0x57A JUMPI PUSH1 0x20 DUP2 MLOAD SWAP2 ADD MLOAD PUSH1 0x20 DUP3 LT PUSH2 0x3B6 JUMPI OR SWAP1 JUMP JUMPDEST PUSH1 0x40 MLOAD SWAP1 PUSH4 0x305A27A9 PUSH1 0xE0 SHL DUP3 MSTORE PUSH1 0x20 PUSH1 0x4 DUP4 ADD MSTORE DUP2 DUP2 MLOAD SWAP2 DUP3 PUSH1 0x24 DUP4 ADD MSTORE PUSH1 0x0 JUMPDEST DUP4 DUP2 LT PUSH2 0x5BE JUMPI POP POP DUP2 PUSH1 0x0 PUSH1 0x44 DUP1 SWAP5 DUP5 ADD ADD MSTORE PUSH1 0x1F DUP1 NOT SWAP2 ADD AND DUP2 ADD SUB ADD SWAP1 REVERT JUMPDEST PUSH1 0x20 DUP3 DUP3 ADD DUP2 ADD MLOAD PUSH1 0x44 DUP8 DUP5 ADD ADD MSTORE DUP6 SWAP4 POP ADD PUSH2 0x59C JUMP JUMPDEST PUSH1 0x1 PUSH1 0x1 PUSH1 0x40 SHL SUB DUP2 GT PUSH2 0x360 JUMPI PUSH1 0x3 SLOAD PUSH1 0x1 DUP2 DUP2 SHR SWAP2 AND DUP1 ISZERO PUSH2 0x6E2 JUMPI JUMPDEST PUSH1 0x20 DUP3 LT EQ PUSH2 0x52E JUMPI PUSH1 0x1F DUP2 GT PUSH2 0x6AC JUMPI JUMPDEST POP PUSH1 0x20 SWAP3 PUSH1 0x1F DUP3 GT PUSH1 0x1 EQ PUSH2 0x647 JUMPI SWAP3 DUP2 SWAP3 SWAP4 PUSH1 0x0 SWAP3 PUSH2 0x63C JUMPI JUMPDEST POP POP DUP2 PUSH1 0x1 SHL SWAP2 PUSH1 0x0 NOT SWAP1 PUSH1 0x3 SHL SHR NOT AND OR PUSH1 0x3 SSTORE PUSH1 0xFF SWAP1 JUMP JUMPDEST ADD MLOAD SWAP1 POP CODESIZE DUP1 PUSH2 0x622 JUMP JUMPDEST PUSH1 0x1F NOT DUP3 AND SWAP4 PUSH1 0x3 PUSH1 0x0 MSTORE DUP1 PUSH1 0x0 KECCAK256 SWAP2 PUSH1 0x0 JUMPDEST DUP7 DUP2 LT PUSH2 0x694 JUMPI POP DUP4 PUSH1 0x1 SWAP6 SWAP7 LT PUSH2 0x67B JUMPI JUMPDEST POP POP POP DUP2 SHL ADD PUSH1 0x3 SSTORE PUSH1 0xFF SWAP1 JUMP JUMPDEST ADD MLOAD PUSH1 0x0 NOT PUSH1 0xF8 DUP5 PUSH1 0x3 SHL AND SHR NOT AND SWAP1 SSTORE CODESIZE DUP1 DUP1 PUSH2 0x66D JUMP JUMPDEST SWAP2 SWAP3 PUSH1 0x20 PUSH1 0x1 DUP2 SWAP3 DUP7 DUP6 ADD MLOAD DUP2 SSTORE ADD SWAP5 ADD SWAP3 ADD PUSH2 0x65A JUMP JUMPDEST PUSH1 0x3 PUSH1 0x0 MSTORE PUSH1 0x1F PUSH1 0x20 PUSH1 0x0 KECCAK256 SWAP2 ADD PUSH1 0x5 SHR DUP2 ADD SWAP1 PUSH1 0x1F DUP4 ADD PUSH1 0x5 SHR ADD JUMPDEST DUP2 DUP2 LT PUSH2 0x6D6 JUMPI POP PUSH2 0x607 JUMP JUMPDEST PUSH1 0x0 DUP2 SSTORE PUSH1 0x1 ADD PUSH2 0x6C9 JUMP JUMPDEST SWAP1 PUSH1 0x7F AND SWAP1 PUSH2 0x5F5 JUMP INVALID PUSH1 0x80 PUSH1 0x40 MSTORE PUSH1 0x4 CALLDATASIZE LT ISZERO PUSH2 0x1B JUMPI JUMPDEST CALLDATASIZE ISZERO PUSH2 0x19 JUMPI PUSH1 0x0 DUP1 REVERT JUMPDEST STOP JUMPDEST PUSH1 0x0 CALLDATALOAD PUSH1 0xE0 SHR DUP1 PUSH4 0x14414CC0 EQ PUSH2 0x23B JUMPI DUP1 PUSH4 0x1EF1C7D2 EQ PUSH2 0x236 JUMPI DUP1 PUSH4 0x24A9D853 EQ PUSH2 0x231 JUMPI DUP1 PUSH4 0x2E1CBEA2 EQ PUSH2 0x22C JUMPI DUP1 PUSH4 0x36BACFD5 EQ PUSH2 0x227 JUMPI DUP1 PUSH4 0x3A9FAE7C EQ PUSH2 0x222 JUMPI DUP1 PUSH4 0x3F4BA83A EQ PUSH2 0x21D JUMPI DUP1 PUSH4 0x3FB35178 EQ PUSH2 0x218 JUMPI DUP1 PUSH4 0x46904840 EQ PUSH2 0x213 JUMPI DUP1 PUSH4 0x4715399C EQ PUSH2 0x20E JUMPI DUP1 PUSH4 0x48A220A4 EQ PUSH2 0x209 JUMPI DUP1 PUSH4 0x5C975ABB EQ PUSH2 0x204 JUMPI DUP1 PUSH4 0x5D704AEA EQ PUSH2 0x1FF JUMPI DUP1 PUSH4 0x6199D280 EQ PUSH2 0x1FA JUMPI DUP1 PUSH4 0x703CEBFE EQ PUSH2 0x1F5 JUMPI DUP1 PUSH4 0x715018A6 EQ PUSH2 0x1F0 JUMPI DUP1 PUSH4 0x72C27B62 EQ PUSH2 0x1EB JUMPI DUP1 PUSH4 0x8456CB59 EQ PUSH2 0x1E6 JUMPI DUP1 PUSH4 0x84B0196E EQ PUSH2 0x1E1 JUMPI DUP1 PUSH4 0x892987B5 EQ PUSH2 0x1DC JUMPI DUP1 PUSH4 0x8DA5CB5B EQ PUSH2 0x1D7 JUMPI DUP1 PUSH4 0xA83FB54F EQ PUSH2 0x1D2 JUMPI DUP1 PUSH4 0xADA4FA18 EQ PUSH2 0x1CD JUMPI DUP1 PUSH4 0xBC2DB5C4 EQ PUSH2 0x1C8 JUMPI DUP1 PUSH4 0xBF76C032 EQ PUSH2 0x1C3 JUMPI DUP1 PUSH4 0xC2F50A7A EQ PUSH2 0x1BE JUMPI DUP1 PUSH4 0xCA200AD8 EQ PUSH2 0x1B9 JUMPI DUP1 PUSH4 0xD418FC42 EQ PUSH2 0x1B4 JUMPI DUP1 PUSH4 0xD55BE8C6 EQ PUSH2 0x1AF JUMPI DUP1 PUSH4 0xDB2E21BC EQ PUSH2 0x1AA JUMPI DUP1 PUSH4 0xE74B981B EQ PUSH2 0x1A5 JUMPI DUP1 PUSH4 0xECF66145 EQ PUSH2 0x1A0 JUMPI DUP1 PUSH4 0xEDED1F00 EQ PUSH2 0x19B JUMPI PUSH4 0xF2FDE38B SUB PUSH2 0xE JUMPI PUSH2 0x190A JUMP JUMPDEST PUSH2 0x18CE JUMP JUMPDEST PUSH2 0x16F6 JUMP JUMPDEST PUSH2 0x1641 JUMP JUMPDEST PUSH2 0x157A JUMP JUMPDEST PUSH2 0x155D JUMP JUMPDEST PUSH2 0x115B JUMP JUMPDEST PUSH2 0x109E JUMP JUMPDEST PUSH2 0x1081 JUMP JUMPDEST PUSH2 0xE1C JUMP JUMPDEST PUSH2 0xBF7 JUMP JUMPDEST PUSH2 0xBAA JUMP JUMPDEST PUSH2 0xA39 JUMP JUMPDEST PUSH2 0xA10 JUMP JUMPDEST PUSH2 0x9C5 JUMP JUMPDEST PUSH2 0x8C4 JUMP JUMPDEST PUSH2 0x7FB JUMP JUMPDEST PUSH2 0x762 JUMP JUMPDEST PUSH2 0x705 JUMP JUMPDEST PUSH2 0x6EC JUMP JUMPDEST PUSH2 0x672 JUMP JUMPDEST PUSH2 0x637 JUMP JUMPDEST PUSH2 0x611 JUMP JUMPDEST PUSH2 0x5E8 JUMP JUMPDEST PUSH2 0x5BF JUMP JUMPDEST PUSH2 0x596 JUMP JUMPDEST PUSH2 0x578 JUMP JUMPDEST PUSH2 0x4B6 JUMP JUMPDEST PUSH2 0x485 JUMP JUMPDEST PUSH2 0x3D0 JUMP JUMPDEST PUSH2 0x38F JUMP JUMPDEST PUSH2 0x340 JUMP JUMPDEST PUSH2 0x2AA JUMP JUMPDEST PUSH2 0x250 JUMP JUMPDEST PUSH1 0x0 SWAP2 SUB SLT PUSH2 0x24B JUMPI JUMP JUMPDEST PUSH1 0x0 DUP1 REVERT JUMPDEST CALLVALUE PUSH2 0x24B JUMPI PUSH1 0x0 CALLDATASIZE PUSH1 0x3 NOT ADD SLT PUSH2 0x24B JUMPI PUSH1 0x20 PUSH1 0x40 MLOAD PUSH1 0x64 DUP2 MSTORE RETURN JUMPDEST SWAP2 DUP2 PUSH1 0x1F DUP5 ADD SLT ISZERO PUSH2 0x24B JUMPI DUP3 CALLDATALOAD SWAP2 PUSH1 0x1 PUSH1 0x1 PUSH1 0x40 SHL SUB DUP4 GT PUSH2 0x24B JUMPI PUSH1 0x20 DUP1 DUP6 ADD SWAP5 DUP5 PUSH1 0x5 SHL ADD ADD GT PUSH2 0x24B JUMPI JUMP JUMPDEST SWAP1 DUP2 PUSH1 0xE0 SWAP2 SUB SLT PUSH2 0x24B JUMPI SWAP1 JUMP JUMPDEST PUSH1 0x80 CALLDATASIZE PUSH1 0x3 NOT ADD SLT PUSH2 0x24B JUMPI PUSH1 0x4 CALLDATALOAD PUSH1 0x1 PUSH1 0x1 PUSH1 0x40 SHL SUB DUP2 GT PUSH2 0x24B JUMPI PUSH2 0x2D5 SWAP1 CALLDATASIZE SWAP1 PUSH1 0x4 ADD PUSH2 0x26C JUMP JUMPDEST PUSH1 0x24 CALLDATALOAD PUSH1 0x1 PUSH1 0x1 PUSH1 0x40 SHL SUB DUP2 GT PUSH2 0x24B JUMPI PUSH2 0x2F4 SWAP1 CALLDATASIZE SWAP1 PUSH1 0x4 ADD PUSH2 0x29C JUMP JUMPDEST SWAP2 PUSH1 0x44 CALLDATALOAD PUSH1 0x1 PUSH1 0x1 PUSH1 0x40 SHL SUB DUP2 GT PUSH2 0x24B JUMPI PUSH2 0x314 SWAP1 CALLDATASIZE SWAP1 PUSH1 0x4 ADD PUSH2 0x26C JUMP JUMPDEST SWAP1 PUSH1 0x64 CALLDATALOAD SWAP5 PUSH1 0x1 PUSH1 0x1 PUSH1 0x40 SHL SUB DUP7 GT PUSH2 0x24B JUMPI PUSH2 0x338 PUSH2 0x19 SWAP7 CALLDATASIZE SWAP1 PUSH1 0x4 ADD PUSH2 0x26C JUMP JUMPDEST SWAP6 SWAP1 SWAP5 PUSH2 0x19DB JUMP JUMPDEST CALLVALUE PUSH2 0x24B JUMPI PUSH1 0x0 CALLDATASIZE PUSH1 0x3 NOT ADD SLT PUSH2 0x24B JUMPI PUSH1 0x20 PUSH1 0x7 SLOAD PUSH1 0x40 MLOAD SWAP1 DUP2 MSTORE RETURN JUMPDEST PUSH1 0x40 PUSH1 0x3 NOT DUP3 ADD SLT PUSH2 0x24B JUMPI PUSH1 0x4 CALLDATALOAD SWAP1 PUSH1 0x1 PUSH1 0x1 PUSH1 0x40 SHL SUB DUP3 GT PUSH2 0x24B JUMPI PUSH2 0x388 SWAP2 PUSH1 0x4 ADD PUSH2 0x29C JUMP JUMPDEST SWAP1 PUSH1 0x24 CALLDATALOAD SWAP1 JUMP JUMPDEST CALLVALUE PUSH2 0x24B JUMPI PUSH1 0x20 PUSH2 0x3A8 PUSH2 0x3A2 CALLDATASIZE PUSH2 0x35E JUMP JUMPDEST SWAP1 PUSH2 0x21A6 JUMP JUMPDEST PUSH1 0x40 MLOAD SWAP1 ISZERO ISZERO DUP2 MSTORE RETURN JUMPDEST PUSH1 0x1 PUSH1 0x1 PUSH1 0xA0 SHL SUB DUP2 AND SUB PUSH2 0x24B JUMPI JUMP JUMPDEST CALLDATALOAD SWAP1 PUSH2 0x3CE DUP3 PUSH2 0x3B2 JUMP JUMPDEST JUMP JUMPDEST CALLVALUE PUSH2 0x24B JUMPI PUSH1 0x20 CALLDATASIZE PUSH1 0x3 NOT ADD SLT PUSH2 0x24B JUMPI PUSH1 0x4 CALLDATALOAD PUSH2 0x3ED DUP2 PUSH2 0x3B2 JUMP JUMPDEST PUSH2 0x3F5 PUSH2 0x39EE JUMP JUMPDEST PUSH1 0x1 PUSH1 0x1 PUSH1 0xA0 SHL SUB AND DUP1 ISZERO PUSH2 0x448 JUMPI PUSH1 0x6 DUP1 SLOAD PUSH1 0x1 PUSH1 0x1 PUSH1 0xA0 SHL SUB NOT DUP2 AND DUP4 OR SWAP1 SWAP2 SSTORE PUSH1 0x1 PUSH1 0x1 PUSH1 0xA0 SHL SUB AND PUSH32 0xFFF6EC843C076928BDBA3D6B453F492A57D829B973C56036B5F7D30955D7B01B PUSH1 0x0 DUP1 LOG3 STOP JUMPDEST PUSH1 0x40 MLOAD PUSH3 0x461BCD PUSH1 0xE5 SHL DUP2 MSTORE PUSH1 0x20 PUSH1 0x4 DUP3 ADD MSTORE PUSH1 0x15 PUSH1 0x24 DUP3 ADD MSTORE PUSH21 0x125B9D985B1A5908185D58DD1A5BDB881D985D5B1D PUSH1 0x5A SHL PUSH1 0x44 DUP3 ADD MSTORE PUSH1 0x64 SWAP1 REVERT JUMPDEST CALLVALUE PUSH2 0x24B JUMPI PUSH1 0x20 CALLDATASIZE PUSH1 0x3 NOT ADD SLT PUSH2 0x24B JUMPI PUSH1 0x4 CALLDATALOAD PUSH1 0x0 MSTORE PUSH1 0xB PUSH1 0x20 MSTORE PUSH1 0x20 PUSH1 0xFF PUSH1 0x40 PUSH1 0x0 KECCAK256 SLOAD AND PUSH1 0x40 MLOAD SWAP1 ISZERO ISZERO DUP2 MSTORE RETURN JUMPDEST CALLVALUE PUSH2 0x24B JUMPI PUSH1 0x0 CALLDATASIZE PUSH1 0x3 NOT ADD SLT PUSH2 0x24B JUMPI PUSH2 0x4CF PUSH2 0x39EE JUMP JUMPDEST PUSH1 0x1 SLOAD PUSH1 0xFF DUP2 PUSH1 0xA0 SHR AND ISZERO PUSH2 0x53C JUMPI PUSH1 0xFF PUSH1 0xA0 SHL NOT AND PUSH1 0x1 SSTORE PUSH1 0x40 MLOAD CALLER DUP2 MSTORE PUSH32 0x5DB9EE0A495BF2E6FF9C91A7834C1BA4FDD244A5E8AA4E537BD38AEAE4B073AA SWAP1 PUSH1 0x20 SWAP1 LOG1 CALLER PUSH32 0x385A28CF4754BD62FDE01BCCE82B673BD45CB357F835CF679A756DE5D8E93BCD PUSH1 0x0 DUP1 LOG2 STOP JUMPDEST PUSH1 0x40 MLOAD PUSH3 0x461BCD PUSH1 0xE5 SHL DUP2 MSTORE PUSH1 0x20 PUSH1 0x4 DUP3 ADD MSTORE PUSH1 0x14 PUSH1 0x24 DUP3 ADD MSTORE PUSH20 0x14185D5CD8589B194E881B9BDD081C185D5CD959 PUSH1 0x62 SHL PUSH1 0x44 DUP3 ADD MSTORE PUSH1 0x64 SWAP1 REVERT JUMPDEST CALLVALUE PUSH2 0x24B JUMPI PUSH1 0x0 CALLDATASIZE PUSH1 0x3 NOT ADD SLT PUSH2 0x24B JUMPI PUSH1 0x20 PUSH1 0x40 MLOAD PUSH3 0x278D00 DUP2 MSTORE RETURN JUMPDEST CALLVALUE PUSH2 0x24B JUMPI PUSH1 0x0 CALLDATASIZE PUSH1 0x3 NOT ADD SLT PUSH2 0x24B JUMPI PUSH1 0x4 SLOAD PUSH1 0x40 MLOAD PUSH1 0x1 PUSH1 0x1 PUSH1 0xA0 SHL SUB SWAP1 SWAP2 AND DUP2 MSTORE PUSH1 0x20 SWAP1 RETURN JUMPDEST CALLVALUE PUSH2 0x24B JUMPI PUSH1 0x0 CALLDATASIZE PUSH1 0x3 NOT ADD SLT PUSH2 0x24B JUMPI PUSH1 0x5 SLOAD PUSH1 0x40 MLOAD PUSH1 0x1 PUSH1 0x1 PUSH1 0xA0 SHL SUB SWAP1 SWAP2 AND DUP2 MSTORE PUSH1 0x20 SWAP1 RETURN JUMPDEST CALLVALUE PUSH2 0x24B JUMPI PUSH1 0x0 CALLDATASIZE PUSH1 0x3 NOT ADD SLT PUSH2 0x24B JUMPI PUSH1 0x6 SLOAD PUSH1 0x40 MLOAD PUSH1 0x1 PUSH1 0x1 PUSH1 0xA0 SHL SUB SWAP1 SWAP2 AND DUP2 MSTORE PUSH1 0x20 SWAP1 RETURN JUMPDEST CALLVALUE PUSH2 0x24B JUMPI PUSH1 0x0 CALLDATASIZE PUSH1 0x3 NOT ADD SLT PUSH2 0x24B JUMPI PUSH1 0x20 PUSH1 0xFF PUSH1 0x1 SLOAD PUSH1 0xA0 SHR AND PUSH1 0x40 MLOAD SWAP1 ISZERO ISZERO DUP2 MSTORE RETURN JUMPDEST CALLVALUE PUSH2 0x24B JUMPI PUSH1 0x20 CALLDATASIZE PUSH1 0x3 NOT ADD SLT PUSH2 0x24B JUMPI PUSH1 0x4 CALLDATALOAD PUSH1 0x0 MSTORE PUSH1 0xC PUSH1 0x20 MSTORE PUSH1 0x20 PUSH1 0x40 PUSH1 0x0 KECCAK256 SLOAD PUSH1 0x40 MLOAD SWAP1 DUP2 MSTORE RETURN JUMPDEST SWAP1 DUP2 PUSH2 0x160 SWAP2 SUB SLT PUSH2 0x24B JUMPI SWAP1 JUMP JUMPDEST CALLVALUE PUSH2 0x24B JUMPI PUSH1 0x40 CALLDATASIZE PUSH1 0x3 NOT ADD SLT PUSH2 0x24B JUMPI PUSH1 0x4 CALLDATALOAD PUSH1 0x1 PUSH1 0x1 PUSH1 0x40 SHL SUB DUP2 GT PUSH2 0x24B JUMPI PUSH2 0x6A2 SWAP1 CALLDATASIZE SWAP1 PUSH1 0x4 ADD PUSH2 0x663 JUMP JUMPDEST PUSH1 0x24 CALLDATALOAD SWAP1 PUSH1 0x1 PUSH1 0x1 PUSH1 0x40 SHL SUB DUP3 GT PUSH2 0x24B JUMPI CALLDATASIZE PUSH1 0x23 DUP4 ADD SLT ISZERO PUSH2 0x24B JUMPI DUP2 PUSH1 0x4 ADD CALLDATALOAD SWAP1 PUSH1 0x1 PUSH1 0x1 PUSH1 0x40 SHL SUB DUP3 GT PUSH2 0x24B JUMPI CALLDATASIZE PUSH1 0x24 DUP4 DUP6 ADD ADD GT PUSH2 0x24B JUMPI PUSH1 0x24 PUSH2 0x19 SWAP4 ADD SWAP1 PUSH2 0x21CF JUMP JUMPDEST CALLVALUE PUSH2 0x24B JUMPI PUSH1 0x20 PUSH2 0x3A8 PUSH2 0x6FF CALLDATASIZE PUSH2 0x35E JUMP JUMPDEST SWAP1 PUSH2 0x25B2 JUMP JUMPDEST CALLVALUE PUSH2 0x24B JUMPI PUSH1 0x0 CALLDATASIZE PUSH1 0x3 NOT ADD SLT PUSH2 0x24B JUMPI PUSH2 0x71E PUSH2 0x39EE JUMP JUMPDEST PUSH1 0x1 DUP1 SLOAD PUSH1 0x1 PUSH1 0x1 PUSH1 0xA0 SHL SUB NOT DUP2 AND SWAP1 SWAP2 SSTORE PUSH1 0x0 SWAP1 PUSH1 0x1 PUSH1 0x1 PUSH1 0xA0 SHL SUB AND PUSH32 0x8BE0079C531659141344CD1FD0A4F28419497F9722A3DAAFE3B4186F6B6457E0 DUP3 DUP1 LOG3 STOP JUMPDEST CALLVALUE PUSH2 0x24B JUMPI PUSH1 0x20 CALLDATASIZE PUSH1 0x3 NOT ADD SLT PUSH2 0x24B JUMPI PUSH1 0x4 CALLDATALOAD PUSH2 0x77E PUSH2 0x39EE JUMP JUMPDEST PUSH2 0x2710 DUP2 GT PUSH2 0x7C4 JUMPI PUSH1 0x7 DUP1 SLOAD SWAP1 DUP3 SWAP1 SSTORE PUSH1 0x40 DUP1 MLOAD SWAP2 DUP3 MSTORE PUSH1 0x20 DUP3 ADD SWAP3 SWAP1 SWAP3 MSTORE PUSH32 0x5EC5620E288C4BE955CCB6CFB3D55431A8FED5C4C96FFACC4B9506360695F64E SWAP2 SWAP1 LOG1 STOP JUMPDEST PUSH1 0x40 MLOAD PUSH3 0x461BCD PUSH1 0xE5 SHL DUP2 MSTORE PUSH1 0x20 PUSH1 0x4 DUP3 ADD MSTORE PUSH1 0xF PUSH1 0x24 DUP3 ADD MSTORE PUSH15 0x496E76616C69642066656520425053 PUSH1 0x88 SHL PUSH1 0x44 DUP3 ADD MSTORE PUSH1 0x64 SWAP1 REVERT JUMPDEST CALLVALUE PUSH2 0x24B JUMPI PUSH1 0x0 CALLDATASIZE PUSH1 0x3 NOT ADD SLT PUSH2 0x24B JUMPI PUSH2 0x814 PUSH2 0x39EE JUMP JUMPDEST PUSH2 0x81C PUSH2 0x2ED5 JUMP JUMPDEST PUSH1 0x1 DUP1 SLOAD PUSH1 0xFF PUSH1 0xA0 SHL NOT AND PUSH1 0x1 PUSH1 0xA0 SHL OR SWAP1 SSTORE PUSH1 0x40 MLOAD CALLER DUP2 MSTORE PUSH32 0x62E78CEA01BEE320CD4E420270B5EA74000D11B0C9F74754EBDBFC544B05A258 SWAP1 PUSH1 0x20 SWAP1 LOG1 CALLER PUSH32 0x720419D686E04979382078792DCE127B7417B1F1B934573E9AE7A7D40EB86E87 PUSH1 0x0 DUP1 LOG2 STOP JUMPDEST SWAP2 SWAP1 DUP3 MLOAD SWAP3 DUP4 DUP3 MSTORE PUSH1 0x0 JUMPDEST DUP5 DUP2 LT PUSH2 0x8AF JUMPI POP POP DUP3 PUSH1 0x0 PUSH1 0x20 DUP1 SWAP5 SWAP6 DUP5 ADD ADD MSTORE PUSH1 0x1F DUP1 NOT SWAP2 ADD AND ADD ADD SWAP1 JUMP JUMPDEST DUP1 PUSH1 0x20 DUP1 SWAP3 DUP5 ADD ADD MLOAD DUP3 DUP3 DUP7 ADD ADD MSTORE ADD PUSH2 0x88E JUMP JUMPDEST CALLVALUE PUSH2 0x24B JUMPI PUSH1 0x0 CALLDATASIZE PUSH1 0x3 NOT ADD SLT PUSH2 0x24B JUMPI PUSH2 0x96A PUSH2 0x901 PUSH32 0x0 PUSH2 0x41D4 JUMP JUMPDEST PUSH2 0x92A PUSH32 0x0 PUSH2 0x42BE JUMP JUMPDEST PUSH1 0x20 PUSH1 0x40 MLOAD PUSH2 0x939 DUP3 DUP3 PUSH2 0x2034 JUMP JUMPDEST PUSH1 0x0 DUP2 MSTORE DUP2 PUSH2 0x978 DUP2 DUP4 ADD SWAP5 PUSH1 0x1F NOT DUP4 ADD CALLDATASIZE DUP8 CALLDATACOPY PUSH1 0x40 MLOAD SWAP8 DUP9 SWAP8 PUSH1 0xF PUSH1 0xF8 SHL DUP10 MSTORE PUSH1 0xE0 DUP6 DUP11 ADD MSTORE PUSH1 0xE0 DUP10 ADD SWAP1 PUSH2 0x883 JUMP JUMPDEST SWAP1 DUP8 DUP3 SUB PUSH1 0x40 DUP10 ADD MSTORE PUSH2 0x883 JUMP JUMPDEST SWAP2 CHAINID PUSH1 0x60 DUP8 ADD MSTORE ADDRESS PUSH1 0x80 DUP8 ADD MSTORE PUSH1 0x0 PUSH1 0xA0 DUP8 ADD MSTORE DUP6 DUP4 SUB PUSH1 0xC0 DUP8 ADD MSTORE MLOAD SWAP2 DUP3 DUP2 MSTORE ADD SWAP3 SWAP2 PUSH1 0x0 JUMPDEST DUP3 DUP2 LT PUSH2 0x9AE JUMPI POP POP POP POP SUB SWAP1 RETURN JUMPDEST DUP4 MLOAD DUP6 MSTORE DUP7 SWAP6 POP SWAP4 DUP2 ADD SWAP4 SWAP3 DUP2 ADD SWAP3 PUSH1 0x1 ADD PUSH2 0x99F JUMP JUMPDEST CALLVALUE PUSH2 0x24B JUMPI PUSH1 0x20 CALLDATASIZE PUSH1 0x3 NOT ADD SLT PUSH2 0x24B JUMPI PUSH1 0x4 CALLDATALOAD PUSH1 0x0 MSTORE PUSH1 0xA PUSH1 0x20 MSTORE PUSH1 0x60 PUSH1 0x40 PUSH1 0x0 KECCAK256 PUSH1 0x1 DUP1 PUSH1 0xA0 SHL SUB DUP2 SLOAD AND SWAP1 PUSH1 0x2 PUSH1 0x1 DUP3 ADD SLOAD SWAP2 ADD SLOAD SWAP1 PUSH1 0x40 MLOAD SWAP3 DUP4 MSTORE PUSH1 0x20 DUP4 ADD MSTORE PUSH1 0x40 DUP3 ADD MSTORE RETURN JUMPDEST CALLVALUE PUSH2 0x24B JUMPI PUSH1 0x0 CALLDATASIZE PUSH1 0x3 NOT ADD SLT PUSH2 0x24B JUMPI PUSH1 0x1 SLOAD PUSH1 0x40 MLOAD PUSH1 0x1 PUSH1 0x1 PUSH1 0xA0 SHL SUB SWAP1 SWAP2 AND DUP2 MSTORE PUSH1 0x20 SWAP1 RETURN JUMPDEST CALLVALUE PUSH2 0x24B JUMPI PUSH2 0xA47 CALLDATASIZE PUSH2 0x35E JUMP JUMPDEST SWAP1 PUSH2 0xA50 PUSH2 0x2E7F JUMP JUMPDEST PUSH2 0xA58 PUSH2 0x2ED5 JUMP JUMPDEST PUSH2 0xA89 PUSH2 0xA64 DUP3 PUSH2 0x3383 JUMP JUMPDEST PUSH2 0xA6C PUSH2 0x4AA2 JUMP JUMPDEST PUSH1 0x42 SWAP2 PUSH1 0x40 MLOAD SWAP2 PUSH2 0x1901 PUSH1 0xF0 SHL DUP4 MSTORE PUSH1 0x2 DUP4 ADD MSTORE PUSH1 0x22 DUP3 ADD MSTORE KECCAK256 SWAP1 JUMP JUMPDEST SWAP1 PUSH2 0xA93 DUP2 PUSH2 0x4470 JUMP JUMPDEST PUSH1 0x40 DUP2 ADD SWAP1 DUP2 CALLDATALOAD PUSH2 0xAA3 DUP2 PUSH2 0x3B2 JUMP JUMPDEST PUSH1 0x1 PUSH1 0x1 PUSH1 0xA0 SHL SUB AND CALLER SUB PUSH2 0xB6D JUMPI PUSH32 0x86FB430316545BEABD846D7B2EB3E7238960C028D31125164851A3F2305F7C9B SWAP2 PUSH2 0xB05 PUSH2 0xB00 PUSH2 0xAF2 DUP8 DUP6 PUSH2 0xAFB PUSH2 0xAF6 PUSH2 0xAF2 DUP5 PUSH2 0xB60 SWAP11 PUSH2 0x25B2 JUMP JUMPDEST ISZERO SWAP1 JUMP JUMPDEST PUSH2 0x2608 JUMP JUMPDEST PUSH2 0x21A6 JUMP JUMPDEST PUSH2 0x264B JUMP JUMPDEST PUSH2 0xB3C PUSH2 0xB2F DUP7 PUSH2 0xB20 DUP8 PUSH1 0x0 MSTORE PUSH1 0x9 PUSH1 0x20 MSTORE PUSH1 0x40 PUSH1 0x0 KECCAK256 SWAP1 JUMP JUMPDEST SWAP1 PUSH1 0x0 MSTORE PUSH1 0x20 MSTORE PUSH1 0x40 PUSH1 0x0 KECCAK256 SWAP1 JUMP JUMPDEST DUP1 SLOAD PUSH1 0xFF NOT AND PUSH1 0x1 OR SWAP1 SSTORE JUMP JUMPDEST PUSH1 0x1 PUSH1 0x1 PUSH1 0xA0 SHL SUB SWAP1 PUSH2 0xB4E SWAP1 PUSH2 0x1E69 JUMP JUMPDEST PUSH1 0x40 MLOAD SWAP6 DUP7 MSTORE AND SWAP4 SWAP1 DUP2 SWAP1 PUSH1 0x20 DUP3 ADD SWAP1 JUMP JUMPDEST SUB SWAP1 LOG3 PUSH2 0x19 PUSH1 0x1 PUSH1 0x0 SSTORE JUMP JUMPDEST PUSH1 0x40 MLOAD PUSH3 0x461BCD PUSH1 0xE5 SHL DUP2 MSTORE PUSH1 0x20 PUSH1 0x4 DUP3 ADD MSTORE PUSH1 0x15 PUSH1 0x24 DUP3 ADD MSTORE PUSH21 0x13DB9B1E481B585AD95C8818D85B8818D85B98D95B PUSH1 0x5A SHL PUSH1 0x44 DUP3 ADD MSTORE PUSH1 0x64 SWAP1 REVERT JUMPDEST CALLVALUE PUSH2 0x24B JUMPI PUSH1 0x60 CALLDATASIZE PUSH1 0x3 NOT ADD SLT PUSH2 0x24B JUMPI PUSH1 0x4 CALLDATALOAD PUSH1 0x1 PUSH1 0x1 PUSH1 0x40 SHL SUB DUP2 GT PUSH2 0x24B JUMPI PUSH2 0x3A8 PUSH2 0xBDF PUSH1 0x20 SWAP3 CALLDATASIZE SWAP1 PUSH1 0x4 ADD PUSH2 0x26C JUMP JUMPDEST SWAP1 PUSH2 0xBF2 PUSH1 0x24 CALLDATALOAD SWAP2 PUSH1 0x44 CALLDATALOAD SWAP4 CALLDATASIZE SWAP2 PUSH2 0x2697 JUMP JUMPDEST PUSH2 0x4558 JUMP JUMPDEST CALLVALUE PUSH2 0x24B JUMPI PUSH1 0x60 CALLDATASIZE PUSH1 0x3 NOT ADD SLT PUSH2 0x24B JUMPI PUSH1 0x4 CALLDATALOAD PUSH1 0x1 PUSH1 0x1 PUSH1 0x40 SHL SUB DUP2 GT PUSH2 0x24B JUMPI PUSH2 0xC27 SWAP1 CALLDATASIZE SWAP1 PUSH1 0x4 ADD PUSH2 0x29C JUMP JUMPDEST PUSH1 0x24 CALLDATALOAD PUSH1 0x44 CALLDATALOAD SWAP2 PUSH2 0xC36 PUSH2 0x2E7F JUMP JUMPDEST PUSH2 0xC3E PUSH2 0x2ED5 JUMP JUMPDEST PUSH2 0xC59 PUSH2 0xC4A DUP3 PUSH2 0x1E06 JUMP JUMPDEST PUSH2 0xC53 DUP2 PUSH2 0x1DF7 JUMP JUMPDEST ISZERO PUSH2 0x26E3 JUMP JUMPDEST PUSH2 0xDD4 PUSH2 0xCF9 PUSH1 0x40 PUSH2 0xC6A DUP5 PUSH2 0x3383 JUMP JUMPDEST SWAP4 PUSH2 0xC74 DUP2 PUSH2 0x4470 JUMP JUMPDEST PUSH2 0xCE6 PUSH2 0xC96 PUSH2 0xC91 DUP9 PUSH2 0xC8B PUSH1 0x20 DUP7 ADD DUP7 PUSH2 0x1EC7 JUMP JUMPDEST SWAP1 PUSH2 0x1F8B JUMP JUMPDEST PUSH2 0x2772 JUMP JUMPDEST SWAP7 PUSH2 0xCD2 PUSH2 0xCC2 PUSH1 0x60 DUP11 MLOAD ADD MLOAD PUSH2 0xCBB DUP5 PUSH2 0xB20 DUP13 PUSH1 0x0 MSTORE PUSH1 0x8 PUSH1 0x20 MSTORE PUSH1 0x40 PUSH1 0x0 KECCAK256 SWAP1 JUMP JUMPDEST SLOAD SWAP1 PUSH2 0x2112 JUMP JUMPDEST DUP11 ISZERO ISZERO SWAP1 DUP2 PUSH2 0xE11 JUMPI JUMPDEST POP PUSH2 0x277D JUMP JUMPDEST PUSH2 0xB20 DUP8 PUSH1 0x0 MSTORE PUSH1 0x8 PUSH1 0x20 MSTORE PUSH1 0x40 PUSH1 0x0 KECCAK256 SWAP1 JUMP JUMPDEST PUSH2 0xCF1 DUP9 DUP3 SLOAD PUSH2 0x20B9 JUMP JUMPDEST SWAP1 SSTORE ADD PUSH2 0x1E69 JUMP JUMPDEST PUSH1 0x1 PUSH1 0x1 PUSH1 0xA0 SHL SUB DUP2 AND SWAP4 SWAP1 PUSH2 0xD10 DUP6 ISZERO ISZERO PUSH2 0x27BF JUMP JUMPDEST PUSH2 0xD1B CALLER ISZERO ISZERO PUSH2 0x2804 JUMP JUMPDEST PUSH2 0xDCE PUSH1 0x20 PUSH2 0xD2A DUP5 MLOAD PUSH2 0x209E JUMP JUMPDEST DUP5 MLOAD DUP3 DUP2 ADD MLOAD SWAP2 SWAP6 SWAP2 PUSH2 0xD68 SWAP1 PUSH1 0x40 SWAP1 PUSH1 0x1 PUSH1 0x1 PUSH1 0xA0 SHL SUB AND SWAP3 ADD MLOAD SWAP2 PUSH2 0xD59 PUSH2 0xD52 PUSH2 0x2055 JUMP JUMPDEST SWAP9 DUP10 PUSH2 0x2092 JUMP JUMPDEST PUSH1 0x1 PUSH1 0x1 PUSH1 0xA0 SHL SUB AND DUP8 DUP6 ADD MSTORE JUMP JUMPDEST PUSH1 0x40 DUP7 ADD MSTORE DUP9 PUSH1 0x60 DUP7 ADD MSTORE ADD SWAP3 PUSH2 0xD7F DUP5 MLOAD PUSH2 0x209E JUMP JUMPDEST SWAP4 MLOAD PUSH1 0x20 DUP2 ADD MLOAD PUSH2 0xDBC SWAP1 PUSH1 0x40 SWAP1 PUSH1 0x1 PUSH1 0x1 PUSH1 0xA0 SHL SUB AND SWAP3 ADD MLOAD SWAP2 PUSH2 0xDAC PUSH2 0xDA5 PUSH2 0x2055 JUMP JUMPDEST SWAP8 DUP9 PUSH2 0x2092 JUMP JUMPDEST PUSH1 0x1 PUSH1 0x1 PUSH1 0xA0 SHL SUB AND PUSH1 0x20 DUP8 ADD MSTORE JUMP JUMPDEST PUSH1 0x40 DUP6 ADD MSTORE DUP8 PUSH1 0x60 DUP6 ADD MSTORE CALLER DUP4 PUSH2 0x36AC JUMP JUMPDEST CALLER PUSH2 0x36AC JUMP JUMPDEST PUSH1 0x40 MLOAD SWAP3 DUP4 MSTORE CALLER SWAP3 PUSH32 0x2B2BE5BDC62AAF8DBE8A0FFAC99E7335C8D1245AA56D1D50E01FC21177FB2277 SWAP1 DUP1 PUSH1 0x20 DUP2 ADD JUMPDEST SUB SWAP1 LOG4 PUSH2 0x19 PUSH1 0x1 PUSH1 0x0 SSTORE JUMP JUMPDEST SWAP1 POP DUP11 GT ISZERO CODESIZE PUSH2 0xCCC JUMP JUMPDEST PUSH1 0x80 CALLDATASIZE PUSH1 0x3 NOT ADD SLT PUSH2 0x24B JUMPI PUSH1 0x4 CALLDATALOAD PUSH1 0x1 PUSH1 0x1 PUSH1 0x40 SHL SUB DUP2 GT PUSH2 0x24B JUMPI PUSH2 0xE47 SWAP1 CALLDATASIZE SWAP1 PUSH1 0x4 ADD PUSH2 0x29C JUMP JUMPDEST PUSH1 0x24 CALLDATALOAD PUSH1 0x1 PUSH1 0x1 PUSH1 0x40 SHL SUB DUP2 GT PUSH2 0x24B JUMPI PUSH2 0xE66 SWAP1 CALLDATASIZE SWAP1 PUSH1 0x4 ADD PUSH2 0x29C JUMP JUMPDEST SWAP1 PUSH1 0x44 CALLDATALOAD PUSH1 0x64 CALLDATALOAD PUSH1 0x1 PUSH1 0x1 PUSH1 0x40 SHL SUB DUP2 GT PUSH2 0x24B JUMPI PUSH2 0xE89 SWAP1 CALLDATASIZE SWAP1 PUSH1 0x4 ADD PUSH2 0x26C JUMP JUMPDEST SWAP2 SWAP1 PUSH2 0xE93 PUSH2 0x2E7F JUMP JUMPDEST PUSH2 0xE9B PUSH2 0x2ED5 JUMP JUMPDEST PUSH2 0xEB7 PUSH2 0xEA7 DUP6 PUSH2 0x1E06 JUMP JUMPDEST PUSH2 0xEB0 DUP2 PUSH2 0x1DF7 JUMP JUMPDEST ISZERO ISZERO PUSH2 0x1E13 JUMP JUMPDEST PUSH2 0xEC8 DUP3 PUSH2 0xC8B PUSH1 0x20 DUP8 ADD DUP8 PUSH2 0x1EC7 JUMP JUMPDEST SWAP1 PUSH2 0xEDF PUSH2 0xED9 PUSH1 0x20 DUP9 ADD DUP9 PUSH2 0x1EC7 JUMP JUMPDEST SWAP1 PUSH2 0x1F82 JUMP JUMPDEST SWAP4 PUSH2 0xEEB DUP5 DUP9 DUP9 PUSH2 0x3139 JUMP JUMPDEST PUSH1 0x2 PUSH2 0xEF6 DUP8 PUSH2 0x1E06 JUMP JUMPDEST PUSH2 0xEFF DUP2 PUSH2 0x1DF7 JUMP JUMPDEST EQ PUSH2 0x106B JUMPI JUMPDEST POP POP PUSH2 0xF10 DUP5 PUSH2 0x3383 JUMP JUMPDEST SWAP3 PUSH1 0xE0 ADD CALLDATALOAD SWAP4 DUP5 PUSH1 0xE0 DUP4 ADD CALLDATALOAD SWAP1 PUSH2 0xF26 SWAP2 PUSH2 0x1FCD JUMP JUMPDEST SWAP3 PUSH2 0xF37 SWAP1 PUSH1 0x60 DUP5 ADD CALLDATALOAD DUP8 DUP8 PUSH2 0x3455 JUMP JUMPDEST PUSH1 0x40 ADD PUSH2 0xF43 SWAP1 PUSH2 0x1E69 JUMP JUMPDEST SWAP5 PUSH1 0x40 ADD PUSH2 0xF50 SWAP1 PUSH2 0x1E69 JUMP JUMPDEST PUSH2 0xF59 DUP3 PUSH2 0x1FF4 JUMP JUMPDEST SWAP3 PUSH2 0xF66 PUSH1 0x20 DUP5 ADD PUSH2 0x1E69 JUMP JUMPDEST PUSH1 0x40 DUP5 ADD CALLDATALOAD SWAP1 PUSH2 0xF74 PUSH2 0x2055 JUMP JUMPDEST SWAP6 PUSH2 0xF7F SWAP1 DUP8 PUSH2 0x2092 JUMP JUMPDEST PUSH1 0x1 PUSH1 0x1 PUSH1 0xA0 SHL SUB AND PUSH1 0x20 DUP7 ADD MSTORE PUSH1 0x40 DUP6 ADD MSTORE DUP6 PUSH1 0x60 DUP6 ADD MSTORE PUSH1 0x80 DUP4 ADD PUSH2 0xFA5 SWAP1 PUSH2 0x1FF4 JUMP JUMPDEST SWAP3 PUSH2 0xFB2 PUSH1 0xA0 DUP3 ADD PUSH2 0x1E69 JUMP JUMPDEST SWAP1 PUSH1 0xC0 ADD CALLDATALOAD SWAP1 PUSH2 0xFC0 PUSH2 0x2055 JUMP JUMPDEST SWAP5 PUSH2 0xFCB SWAP1 DUP7 PUSH2 0x2092 JUMP JUMPDEST PUSH1 0x1 PUSH1 0x1 PUSH1 0xA0 SHL SUB AND PUSH1 0x20 DUP6 ADD MSTORE PUSH1 0x40 DUP5 ADD MSTORE DUP1 PUSH1 0x60 DUP5 ADD MSTORE DUP3 MLOAD PUSH2 0xFEF DUP2 PUSH2 0x1FEA JUMP JUMPDEST PUSH2 0xFF8 DUP2 PUSH2 0x1FEA JUMP JUMPDEST ISZERO SWAP4 PUSH2 0x1034 PUSH2 0xE04 SWAP5 PUSH2 0x103B SWAP4 PUSH32 0x2B2BE5BDC62AAF8DBE8A0FFAC99E7335C8D1245AA56D1D50E01FC21177FB2277 SWAP8 PUSH2 0x1059 JUMPI JUMPDEST POP DUP10 DUP6 PUSH2 0x36AC JUMP JUMPDEST DUP3 DUP9 PUSH2 0x36AC JUMP JUMPDEST PUSH1 0x40 MLOAD SWAP5 DUP6 MSTORE PUSH1 0x1 PUSH1 0x1 PUSH1 0xA0 SHL SUB SWAP1 DUP2 AND SWAP6 AND SWAP4 SWAP1 DUP2 SWAP1 PUSH1 0x20 DUP3 ADD SWAP1 JUMP JUMPDEST PUSH2 0x1065 SWAP1 CALLVALUE LT ISZERO PUSH2 0x2849 JUMP JUMPDEST CODESIZE PUSH2 0x102C JUMP JUMPDEST PUSH2 0x107A SWAP2 PUSH1 0x80 DUP8 ADD CALLDATALOAD DUP5 PUSH2 0x3249 JUMP JUMPDEST CODESIZE DUP1 PUSH2 0xF05 JUMP JUMPDEST CALLVALUE PUSH2 0x24B JUMPI PUSH1 0x0 CALLDATASIZE PUSH1 0x3 NOT ADD SLT PUSH2 0x24B JUMPI PUSH1 0x20 PUSH1 0x40 MLOAD PUSH2 0xE10 DUP2 MSTORE RETURN JUMPDEST CALLVALUE PUSH2 0x24B JUMPI PUSH1 0x20 CALLDATASIZE PUSH1 0x3 NOT ADD SLT PUSH2 0x24B JUMPI PUSH1 0x4 CALLDATALOAD PUSH2 0x10BB DUP2 PUSH2 0x3B2 JUMP JUMPDEST PUSH2 0x10C3 PUSH2 0x39EE JUMP JUMPDEST PUSH1 0x1 PUSH1 0x1 PUSH1 0xA0 SHL SUB AND DUP1 ISZERO PUSH2 0x1116 JUMPI PUSH1 0x5 DUP1 SLOAD PUSH1 0x1 PUSH1 0x1 PUSH1 0xA0 SHL SUB NOT DUP2 AND DUP4 OR SWAP1 SWAP2 SSTORE PUSH1 0x1 PUSH1 0x1 PUSH1 0xA0 SHL SUB AND PUSH32 0x6488517F0ED01887D76EB198684456F20DAB9AB4DAD305BD0C0247C7EAAFDCF7 PUSH1 0x0 DUP1 LOG3 STOP JUMPDEST PUSH1 0x40 MLOAD PUSH3 0x461BCD PUSH1 0xE5 SHL DUP2 MSTORE PUSH1 0x20 PUSH1 0x4 DUP3 ADD MSTORE PUSH1 0x1C PUSH1 0x24 DUP3 ADD MSTORE PUSH32 0x496E76616C6964206173736574207472616E73666572206167656E7400000000 PUSH1 0x44 DUP3 ADD MSTORE PUSH1 0x64 SWAP1 REVERT JUMPDEST PUSH1 0x20 CALLDATASIZE PUSH1 0x3 NOT ADD SLT PUSH2 0x24B JUMPI PUSH1 0x4 CALLDATALOAD PUSH1 0x1 PUSH1 0x1 PUSH1 0x40 SHL SUB DUP2 GT PUSH2 0x24B JUMPI PUSH2 0x1186 SWAP1 CALLDATASIZE SWAP1 PUSH1 0x4 ADD PUSH2 0x663 JUMP JUMPDEST PUSH2 0x118E PUSH2 0x2E7F JUMP JUMPDEST PUSH2 0x1196 PUSH2 0x2ED5 JUMP JUMPDEST PUSH1 0x40 MLOAD PUSH4 0x1344D6D9 PUSH1 0xE1 SHL DUP2 MSTORE PUSH1 0x20 DUP2 DUP1 PUSH2 0x11B4 DUP6 PUSH1 0x4 DUP4 ADD PUSH2 0x2941 JUMP JUMPDEST SUB DUP2 PUSH20 0x0 GAS DELEGATECALL SWAP1 DUP2 ISZERO PUSH2 0x1489 JUMPI PUSH1 0x0 SWAP2 PUSH2 0x152E JUMPI JUMPDEST POP PUSH2 0x11F9 PUSH1 0x1 PUSH1 0x1 PUSH1 0xA0 SHL SUB PUSH2 0x11F1 DUP5 PUSH2 0x1E69 JUMP JUMPDEST AND ISZERO ISZERO PUSH2 0x23B6 JUMP JUMPDEST PUSH2 0x1204 CALLER ISZERO ISZERO PUSH2 0x27BF JUMP JUMPDEST PUSH2 0x1227 PUSH2 0x121F PUSH2 0x1213 DUP5 PUSH2 0x1E69 JUMP JUMPDEST PUSH1 0x1 PUSH1 0x1 PUSH1 0xA0 SHL SUB AND SWAP1 JUMP JUMPDEST CALLER EQ ISZERO PUSH2 0x29D6 JUMP JUMPDEST PUSH2 0x1281 PUSH3 0x278D00 PUSH2 0x127A PUSH1 0xE0 DUP6 ADD CALLDATALOAD PUSH2 0x1242 DUP2 TIMESTAMP LT ISZERO PUSH2 0x2A22 JUMP JUMPDEST PUSH2 0x100 DUP7 ADD CALLDATALOAD PUSH2 0x1253 DUP2 TIMESTAMP LT PUSH2 0x2A64 JUMP JUMPDEST PUSH2 0x125E DUP3 DUP3 GT PUSH2 0x2AA0 JUMP JUMPDEST PUSH2 0x1275 PUSH2 0xE10 PUSH2 0x126E DUP5 DUP5 PUSH2 0x2112 JUMP JUMPDEST LT ISZERO PUSH2 0x2AEC JUMP JUMPDEST PUSH2 0x2112 JUMP JUMPDEST GT ISZERO PUSH2 0x2B2C JUMP JUMPDEST PUSH2 0x12AA PUSH2 0x12A5 PUSH2 0xAF2 PUSH2 0x129E DUP5 PUSH1 0x0 MSTORE PUSH1 0xB PUSH1 0x20 MSTORE PUSH1 0x40 PUSH1 0x0 KECCAK256 SWAP1 JUMP JUMPDEST SLOAD PUSH1 0xFF AND SWAP1 JUMP JUMPDEST PUSH2 0x2B6B JUMP JUMPDEST PUSH2 0x12B3 DUP3 PUSH2 0x4611 JUMP JUMPDEST PUSH2 0x12C3 PUSH1 0xA0 DUP4 ADD CALLDATALOAD CALLVALUE LT ISZERO PUSH2 0x2BB7 JUMP JUMPDEST PUSH2 0x12E2 PUSH2 0x12CF DUP4 PUSH2 0x1E69 JUMP JUMPDEST PUSH2 0x12DC CALLDATASIZE PUSH1 0x20 DUP7 ADD PUSH2 0x24BC JUMP JUMPDEST SWAP1 PUSH2 0x3C65 JUMP JUMPDEST PUSH2 0x12F6 DUP2 PUSH1 0x0 MSTORE PUSH1 0xA PUSH1 0x20 MSTORE PUSH1 0x40 PUSH1 0x0 KECCAK256 SWAP1 JUMP JUMPDEST PUSH2 0x1317 PUSH1 0x1 DUP3 ADD SLOAD SWAP2 DUP3 ISZERO ISZERO SWAP3 DUP4 PUSH2 0x14FF JUMPI JUMPDEST POP SLOAD PUSH1 0x1 PUSH1 0x1 PUSH1 0xA0 SHL SUB AND SWAP1 JUMP JUMPDEST SWAP1 PUSH2 0x148E JUMPI JUMPDEST POP PUSH1 0x6 SLOAD PUSH2 0x1335 SWAP1 PUSH2 0x1213 SWAP1 PUSH1 0x1 PUSH1 0x1 PUSH1 0xA0 SHL SUB AND DUP2 JUMP JUMPDEST PUSH2 0x133E DUP4 PUSH2 0x1E69 JUMP JUMPDEST SWAP1 DUP1 EXTCODESIZE ISZERO PUSH2 0x24B JUMPI PUSH1 0x40 MLOAD PUSH4 0x397AE561 PUSH1 0xE2 SHL DUP2 MSTORE PUSH1 0x4 DUP2 ADD DUP5 SWAP1 MSTORE PUSH1 0x1 PUSH1 0x1 PUSH1 0xA0 SHL SUB SWAP3 SWAP1 SWAP3 AND PUSH1 0x24 DUP4 ADD MSTORE CALLER PUSH1 0x44 DUP4 ADD MSTORE CALLVALUE PUSH1 0x64 DUP4 ADD DUP2 SWAP1 MSTORE PUSH1 0x0 SWAP2 DUP4 SWAP2 PUSH1 0x84 SWAP2 DUP4 SWAP2 SWAP1 GAS CALL DUP1 ISZERO PUSH2 0x1489 JUMPI PUSH2 0x146E JUMPI JUMPDEST POP PUSH2 0x13F5 PUSH2 0x139D PUSH2 0x2064 JUMP JUMPDEST CALLER DUP2 MSTORE CALLVALUE PUSH1 0x20 DUP3 ADD MSTORE TIMESTAMP PUSH1 0x40 DUP3 ADD MSTORE PUSH2 0x13C0 DUP4 PUSH1 0x0 MSTORE PUSH1 0xA PUSH1 0x20 MSTORE PUSH1 0x40 PUSH1 0x0 KECCAK256 SWAP1 JUMP JUMPDEST DUP2 MLOAD DUP2 SLOAD PUSH1 0x1 PUSH1 0x1 PUSH1 0xA0 SHL SUB NOT AND PUSH1 0x1 PUSH1 0x1 PUSH1 0xA0 SHL SUB SWAP2 SWAP1 SWAP2 AND OR DUP2 SSTORE PUSH1 0x20 DUP3 ADD MLOAD PUSH1 0x1 DUP3 ADD SSTORE PUSH1 0x40 SWAP1 SWAP2 ADD MLOAD PUSH1 0x2 SWAP1 SWAP2 ADD SSTORE JUMP JUMPDEST PUSH1 0x40 DUP1 MLOAD CALLVALUE DUP2 MSTORE TIMESTAMP PUSH1 0x20 DUP3 ADD MSTORE CALLER SWAP2 DUP4 SWAP2 PUSH32 0xA9D1969315752A4D63387F7972393F147BE8C4662B0A2AF2DB8A4B0F0A953C65 SWAP2 SWAP1 LOG3 PUSH1 0xC0 DUP3 ADD CALLDATALOAD DUP1 ISZERO ISZERO SWAP1 DUP2 PUSH2 0x1463 JUMPI JUMPDEST POP PUSH2 0x1449 JUMPI JUMPDEST PUSH2 0x19 PUSH1 0x1 PUSH1 0x0 SSTORE JUMP JUMPDEST PUSH2 0x1457 PUSH2 0x145C SWAP3 CALLDATASIZE SWAP1 PUSH2 0x2525 JUMP JUMPDEST PUSH2 0x3F10 JUMP JUMPDEST CODESIZE DUP1 PUSH2 0x143F JUMP JUMPDEST SWAP1 POP CALLVALUE LT ISZERO CODESIZE PUSH2 0x1439 JUMP JUMPDEST DUP1 PUSH2 0x147D PUSH1 0x0 PUSH2 0x1483 SWAP4 PUSH2 0x2034 JUMP JUMPDEST DUP1 PUSH2 0x240 JUMP JUMPDEST CODESIZE PUSH2 0x1391 JUMP JUMPDEST PUSH2 0x29CA JUMP JUMPDEST PUSH1 0x6 SLOAD PUSH2 0x14A5 SWAP1 PUSH2 0x1213 SWAP1 PUSH1 0x1 PUSH1 0x1 PUSH1 0xA0 SHL SUB AND DUP2 JUMP JUMPDEST DUP1 EXTCODESIZE ISZERO PUSH2 0x24B JUMPI PUSH1 0x40 MLOAD PUSH4 0x116D00CB PUSH1 0xE2 SHL DUP2 MSTORE PUSH1 0x4 DUP2 ADD DUP5 SWAP1 MSTORE PUSH1 0x1 PUSH1 0x1 PUSH1 0xA0 SHL SUB SWAP3 SWAP1 SWAP3 AND PUSH1 0x24 DUP4 ADD MSTORE PUSH1 0x0 SWAP1 DUP3 SWAP1 PUSH1 0x44 SWAP1 DUP3 SWAP1 DUP5 SWAP1 GAS CALL DUP1 ISZERO PUSH2 0x1489 JUMPI ISZERO PUSH2 0x131D JUMPI DUP1 PUSH2 0x147D PUSH1 0x0 PUSH2 0x14F9 SWAP4 PUSH2 0x2034 JUMP JUMPDEST CODESIZE PUSH2 0x131D JUMP JUMPDEST PUSH2 0x1520 DUP2 PUSH2 0x151A PUSH2 0x1512 PUSH2 0x1528 SWAP5 PUSH2 0x1FB2 JUMP JUMPDEST PUSH2 0x2710 SWAP1 DIV SWAP1 JUMP JUMPDEST SWAP1 PUSH2 0x20B9 JUMP JUMPDEST CALLVALUE LT ISZERO PUSH2 0x2BFB JUMP JUMPDEST CODESIZE PUSH2 0x1309 JUMP JUMPDEST PUSH2 0x1550 SWAP2 POP PUSH1 0x20 RETURNDATASIZE PUSH1 0x20 GT PUSH2 0x1556 JUMPI JUMPDEST PUSH2 0x1548 DUP2 DUP4 PUSH2 0x2034 JUMP JUMPDEST DUP2 ADD SWAP1 PUSH2 0x288E JUMP JUMPDEST CODESIZE PUSH2 0x11DC JUMP JUMPDEST POP RETURNDATASIZE PUSH2 0x153E JUMP JUMPDEST CALLVALUE PUSH2 0x24B JUMPI PUSH1 0x0 CALLDATASIZE PUSH1 0x3 NOT ADD SLT PUSH2 0x24B JUMPI PUSH1 0x20 PUSH1 0x40 MLOAD PUSH2 0x2710 DUP2 MSTORE RETURN JUMPDEST CALLVALUE PUSH2 0x24B JUMPI PUSH1 0x0 CALLDATASIZE PUSH1 0x3 NOT ADD SLT PUSH2 0x24B JUMPI PUSH2 0x1593 PUSH2 0x39EE JUMP JUMPDEST SELFBALANCE DUP1 ISZERO PUSH2 0x1605 JUMPI PUSH2 0x15CA PUSH1 0x0 DUP1 DUP1 DUP1 DUP6 PUSH2 0x15BA PUSH2 0x1213 PUSH2 0x1213 PUSH1 0x1 SLOAD PUSH1 0x1 DUP1 PUSH1 0xA0 SHL SUB AND SWAP1 JUMP JUMPDEST GAS CALL PUSH2 0x15C4 PUSH2 0x213A JUMP JUMPDEST POP PUSH2 0x2C47 JUMP JUMPDEST PUSH1 0x1 SLOAD PUSH1 0x40 MLOAD SWAP2 DUP3 MSTORE PUSH1 0x1 PUSH1 0x1 PUSH1 0xA0 SHL SUB AND SWAP1 PUSH32 0x23D6711A1D031134A36921253C75AA59E967D38E369AC625992824315E204F20 SWAP1 PUSH1 0x20 SWAP1 LOG2 STOP JUMPDEST PUSH1 0x40 MLOAD PUSH3 0x461BCD PUSH1 0xE5 SHL DUP2 MSTORE PUSH1 0x20 PUSH1 0x4 DUP3 ADD MSTORE PUSH1 0x14 PUSH1 0x24 DUP3 ADD MSTORE PUSH20 0x4E6F2066756E647320746F207769746864726177 PUSH1 0x60 SHL PUSH1 0x44 DUP3 ADD MSTORE PUSH1 0x64 SWAP1 REVERT JUMPDEST CALLVALUE PUSH2 0x24B JUMPI PUSH1 0x20 CALLDATASIZE PUSH1 0x3 NOT ADD SLT PUSH2 0x24B JUMPI PUSH1 0x4 CALLDATALOAD PUSH2 0x165E DUP2 PUSH2 0x3B2 JUMP JUMPDEST PUSH2 0x1666 PUSH2 0x39EE JUMP JUMPDEST PUSH1 0x1 PUSH1 0x1 PUSH1 0xA0 SHL SUB AND DUP1 ISZERO PUSH2 0x16B9 JUMPI PUSH1 0x4 DUP1 SLOAD PUSH1 0x1 PUSH1 0x1 PUSH1 0xA0 SHL SUB NOT DUP2 AND DUP4 OR SWAP1 SWAP2 SSTORE PUSH1 0x1 PUSH1 0x1 PUSH1 0xA0 SHL SUB AND PUSH32 0xAAEBCF1BFA00580E41D966056B48521FA9F202645C86D4DDF28113E617C1B1D3 PUSH1 0x0 DUP1 LOG3 STOP JUMPDEST PUSH1 0x40 MLOAD PUSH3 0x461BCD PUSH1 0xE5 SHL DUP2 MSTORE PUSH1 0x20 PUSH1 0x4 DUP3 ADD MSTORE PUSH1 0x15 PUSH1 0x24 DUP3 ADD MSTORE PUSH21 0x125B9D985B1A5908199959481C9958DA5C1A595B9D PUSH1 0x5A SHL PUSH1 0x44 DUP3 ADD MSTORE PUSH1 0x64 SWAP1 REVERT JUMPDEST CALLVALUE PUSH2 0x24B JUMPI PUSH1 0x40 CALLDATASIZE PUSH1 0x3 NOT ADD SLT PUSH2 0x24B JUMPI PUSH1 0x4 CALLDATALOAD PUSH1 0x1 PUSH1 0x1 PUSH1 0x40 SHL SUB DUP2 GT PUSH2 0x24B JUMPI PUSH2 0x1726 SWAP1 CALLDATASIZE SWAP1 PUSH1 0x4 ADD PUSH2 0x663 JUMP JUMPDEST PUSH1 0x24 CALLDATALOAD SWAP1 PUSH2 0x1732 PUSH2 0x2E7F JUMP JUMPDEST PUSH2 0x176D PUSH2 0xDD4 PUSH2 0x1741 DUP4 PUSH2 0x1E69 JUMP JUMPDEST SWAP4 PUSH1 0xA0 DUP5 ADD SWAP5 PUSH2 0xDCE PUSH2 0x1753 DUP8 PUSH2 0x1E69 JUMP JUMPDEST SWAP6 PUSH2 0x1772 PUSH2 0x1765 PUSH2 0x140 DUP4 ADD DUP4 PUSH2 0x2C93 JUMP JUMPDEST SWAP8 SWAP1 SWAP9 PUSH2 0x46B7 JUMP JUMPDEST PUSH2 0x2CC5 JUMP JUMPDEST PUSH2 0x1793 PUSH2 0x178E PUSH2 0xAF2 PUSH2 0x1785 CALLDATASIZE DUP6 PUSH2 0x2D11 JUMP JUMPDEST PUSH1 0xA0 ADD MLOAD TIMESTAMP GT SWAP1 JUMP JUMPDEST PUSH2 0x2D9E JUMP JUMPDEST PUSH1 0x1 PUSH1 0x1 PUSH1 0xA0 SHL SUB DUP4 AND SWAP7 PUSH2 0x181E SWAP1 PUSH2 0x1801 SWAP1 PUSH2 0x17FB SWAP1 PUSH2 0x17B6 CALLER DUP13 EQ ISZERO PUSH2 0x2DD8 JUMP JUMPDEST PUSH2 0x17C7 PUSH2 0x17C2 DUP7 PUSH2 0x483A JUMP JUMPDEST PUSH2 0x47D7 JUMP JUMPDEST SWAP10 PUSH2 0x17F4 PUSH2 0x17E8 PUSH2 0x17E2 DUP14 PUSH1 0x0 MSTORE PUSH1 0xC PUSH1 0x20 MSTORE PUSH1 0x40 PUSH1 0x0 KECCAK256 SWAP1 JUMP JUMPDEST SLOAD PUSH2 0x20AB JUMP JUMPDEST PUSH1 0xC0 DUP9 ADD CALLDATALOAD LT ISZERO PUSH2 0x2E24 JUMP JUMPDEST CALLDATASIZE SWAP2 PUSH2 0x233F JUMP JUMPDEST DUP9 PUSH2 0x47E3 JUMP JUMPDEST PUSH2 0x180D PUSH2 0x1213 DUP5 PUSH2 0x1E69 JUMP JUMPDEST PUSH1 0x1 PUSH1 0x1 PUSH1 0xA0 SHL SUB SWAP1 SWAP2 AND EQ PUSH2 0x2376 JUMP JUMPDEST PUSH2 0x182C PUSH1 0x80 DUP3 ADD CALLDATALOAD SWAP9 PUSH2 0x1E69 JUMP JUMPDEST SWAP4 PUSH2 0x1842 PUSH2 0x1838 PUSH2 0x2055 JUMP JUMPDEST PUSH1 0x3 DUP2 MSTORE SWAP6 PUSH2 0xDAC JUMP JUMPDEST PUSH1 0x40 DUP6 ADD MSTORE PUSH1 0x1 PUSH1 0x60 DUP6 ADD MSTORE PUSH2 0x185A PUSH1 0x20 DUP3 ADD PUSH2 0x1FF4 JUMP JUMPDEST SWAP1 PUSH2 0x1892 PUSH1 0x60 PUSH2 0x186C PUSH1 0x40 DUP5 ADD PUSH2 0x1E69 JUMP JUMPDEST SWAP3 ADD CALLDATALOAD SWAP2 PUSH2 0x1882 PUSH2 0x187B PUSH2 0x2055 JUMP JUMPDEST SWAP5 DUP6 PUSH2 0x2092 JUMP JUMPDEST PUSH1 0x1 PUSH1 0x1 PUSH1 0xA0 SHL SUB AND PUSH1 0x20 DUP5 ADD MSTORE JUMP JUMPDEST PUSH1 0x40 DUP3 ADD MSTORE DUP8 PUSH1 0x60 DUP3 ADD MSTORE PUSH2 0x18A7 DUP5 CALLER PUSH2 0x3C65 JUMP JUMPDEST PUSH2 0x18BB DUP7 PUSH1 0x0 MSTORE PUSH1 0xC PUSH1 0x20 MSTORE PUSH1 0x40 PUSH1 0x0 KECCAK256 SWAP1 JUMP JUMPDEST PUSH2 0x18C5 DUP2 SLOAD PUSH2 0x2E70 JUMP JUMPDEST SWAP1 SSTORE CALLER DUP4 PUSH2 0x36AC JUMP JUMPDEST CALLVALUE PUSH2 0x24B JUMPI PUSH1 0x40 CALLDATASIZE PUSH1 0x3 NOT ADD SLT PUSH2 0x24B JUMPI PUSH1 0x4 CALLDATALOAD PUSH1 0x24 CALLDATALOAD SWAP1 PUSH1 0x0 MSTORE PUSH1 0x8 PUSH1 0x20 MSTORE PUSH1 0x40 PUSH1 0x0 KECCAK256 SWAP1 PUSH1 0x0 MSTORE PUSH1 0x20 MSTORE PUSH1 0x20 PUSH1 0x40 PUSH1 0x0 KECCAK256 SLOAD PUSH1 0x40 MLOAD SWAP1 DUP2 MSTORE RETURN JUMPDEST CALLVALUE PUSH2 0x24B JUMPI PUSH1 0x20 CALLDATASIZE PUSH1 0x3 NOT ADD SLT PUSH2 0x24B JUMPI PUSH1 0x4 CALLDATALOAD PUSH2 0x1927 DUP2 PUSH2 0x3B2 JUMP JUMPDEST PUSH2 0x192F PUSH2 0x39EE JUMP JUMPDEST PUSH1 0x1 PUSH1 0x1 PUSH1 0xA0 SHL SUB DUP2 AND ISZERO PUSH2 0x1987 JUMPI PUSH1 0x1 DUP1 SLOAD PUSH1 0x1 PUSH1 0x1 PUSH1 0xA0 SHL SUB SWAP3 DUP4 AND PUSH1 0x1 PUSH1 0x1 PUSH1 0xA0 SHL SUB NOT DUP3 AND DUP2 OR SWAP1 SWAP3 SSTORE SWAP1 SWAP2 AND PUSH32 0x8BE0079C531659141344CD1FD0A4F28419497F9722A3DAAFE3B4186F6B6457E0 PUSH1 0x0 DUP1 LOG3 STOP JUMPDEST PUSH1 0x40 MLOAD PUSH3 0x461BCD PUSH1 0xE5 SHL DUP2 MSTORE PUSH1 0x20 PUSH1 0x4 DUP3 ADD MSTORE PUSH1 0x26 PUSH1 0x24 DUP3 ADD MSTORE PUSH32 0x4F776E61626C653A206E6577206F776E657220697320746865207A65726F2061 PUSH1 0x44 DUP3 ADD MSTORE PUSH6 0x646472657373 PUSH1 0xD0 SHL PUSH1 0x64 DUP3 ADD MSTORE PUSH1 0x84 SWAP1 REVERT JUMPDEST SWAP6 SWAP2 SWAP3 SWAP5 SWAP1 SWAP4 SWAP5 PUSH2 0x19EA PUSH2 0x2E7F JUMP JUMPDEST PUSH2 0x19F2 PUSH2 0x2ED5 JUMP JUMPDEST PUSH2 0x19FD DUP7 DUP7 EQ PUSH2 0x1CD6 JUMP JUMPDEST PUSH2 0x1A08 DUP4 DUP7 EQ PUSH2 0x1D14 JUMP JUMPDEST PUSH2 0x1A13 DUP6 ISZERO ISZERO PUSH2 0x1D59 JUMP JUMPDEST PUSH1 0x0 SWAP7 DUP8 JUMPDEST DUP7 DUP2 LT PUSH2 0x1A74 JUMPI POP POP POP POP POP POP POP POP DUP1 PUSH2 0x1A38 JUMPI JUMPDEST POP PUSH2 0x3CE PUSH1 0x1 PUSH1 0x0 SSTORE JUMP JUMPDEST DUP1 PUSH2 0x1A48 PUSH2 0x1A4E SWAP3 CALLVALUE LT ISZERO PUSH2 0x20C6 JUMP JUMPDEST CALLVALUE PUSH2 0x2112 JUMP JUMPDEST DUP1 ISZERO PUSH2 0x1A2D JUMPI PUSH1 0x0 DUP1 DUP1 DUP1 PUSH2 0x1A6E SWAP5 CALLER GAS CALL PUSH2 0x1A68 PUSH2 0x213A JUMP JUMPDEST POP PUSH2 0x216A JUMP JUMPDEST CODESIZE PUSH2 0x1A2D JUMP JUMPDEST PUSH2 0x1A8A PUSH2 0xEA7 PUSH2 0x1A85 DUP4 DUP11 DUP7 PUSH2 0x1DB0 JUMP JUMPDEST PUSH2 0x1E06 JUMP JUMPDEST PUSH2 0x1AAD PUSH2 0x1AA6 PUSH2 0x1213 PUSH1 0x40 PUSH2 0x1AA0 DUP6 DUP13 DUP9 PUSH2 0x1DB0 JUMP JUMPDEST ADD PUSH2 0x1E69 JUMP JUMPDEST ISZERO ISZERO PUSH2 0x1E73 JUMP JUMPDEST PUSH2 0x1ADD PUSH2 0x1ABB DUP3 DUP11 DUP7 PUSH2 0x1EB7 JUMP JUMPDEST CALLDATALOAD PUSH2 0x1AD4 PUSH2 0x1ACA DUP5 DUP12 DUP8 PUSH2 0x1DB0 JUMP JUMPDEST PUSH1 0x20 DUP2 ADD SWAP1 PUSH2 0x1EC7 JUMP JUMPDEST SWAP2 SWAP1 POP LT PUSH2 0x1EFD JUMP JUMPDEST PUSH2 0x1AE8 DUP2 DUP9 DUP5 PUSH2 0x1DB0 JUMP JUMPDEST PUSH2 0x1AF3 DUP3 DUP11 DUP7 PUSH2 0x1EB7 JUMP JUMPDEST CALLDATALOAD SWAP1 PUSH2 0x1B00 DUP4 DUP9 DUP9 PUSH2 0x1F3E JUMP JUMPDEST SWAP1 PUSH2 0x1B12 DUP5 PUSH2 0xC8B PUSH1 0x20 DUP7 ADD DUP7 PUSH2 0x1EC7 JUMP JUMPDEST SWAP1 PUSH2 0x1B24 DUP7 PUSH2 0xC8B PUSH1 0x20 DUP15 ADD DUP15 PUSH2 0x1EC7 JUMP JUMPDEST SWAP3 PUSH2 0x1B30 DUP7 DUP14 DUP8 PUSH2 0x3139 JUMP JUMPDEST PUSH1 0x2 PUSH2 0x1B3B DUP7 PUSH2 0x1E06 JUMP JUMPDEST PUSH2 0x1B44 DUP2 PUSH2 0x1DF7 JUMP JUMPDEST EQ PUSH2 0x1CC0 JUMPI JUMPDEST POP POP PUSH2 0x1B7E PUSH1 0x40 PUSH1 0xE0 PUSH2 0x1B5C DUP7 PUSH2 0x3383 JUMP JUMPDEST SWAP5 ADD CALLDATALOAD SWAP5 PUSH2 0x1AA0 PUSH2 0x1B71 DUP8 PUSH1 0xE0 DUP8 ADD CALLDATALOAD PUSH2 0x1FCD JUMP JUMPDEST SWAP8 PUSH1 0x60 DUP7 ADD CALLDATALOAD DUP9 DUP9 PUSH2 0x3455 JUMP JUMPDEST SWAP4 PUSH2 0x1B8B PUSH1 0x40 DUP13 ADD PUSH2 0x1E69 JUMP JUMPDEST SWAP2 PUSH2 0x1B95 DUP2 PUSH2 0x1FF4 JUMP JUMPDEST SWAP2 PUSH2 0x1BA2 PUSH1 0x20 DUP4 ADD PUSH2 0x1E69 JUMP JUMPDEST PUSH2 0x1BCD PUSH1 0x40 DUP5 ADD CALLDATALOAD SWAP2 PUSH2 0x1BBD PUSH2 0x1BB6 PUSH2 0x2055 JUMP JUMPDEST SWAP7 DUP8 PUSH2 0x2092 JUMP JUMPDEST PUSH1 0x1 PUSH1 0x1 PUSH1 0xA0 SHL SUB AND PUSH1 0x20 DUP7 ADD MSTORE JUMP JUMPDEST PUSH1 0x40 DUP5 ADD MSTORE DUP6 PUSH1 0x60 DUP5 ADD MSTORE PUSH2 0x1BE4 PUSH1 0x80 DUP4 ADD PUSH2 0x1FF4 JUMP JUMPDEST SWAP2 PUSH2 0x1C1C PUSH1 0xC0 PUSH2 0x1BF6 PUSH1 0xA0 DUP5 ADD PUSH2 0x1E69 JUMP JUMPDEST SWAP3 ADD CALLDATALOAD SWAP2 PUSH2 0x1C0C PUSH2 0x1C05 PUSH2 0x2055 JUMP JUMPDEST SWAP6 DUP7 PUSH2 0x2092 JUMP JUMPDEST PUSH1 0x1 PUSH1 0x1 PUSH1 0xA0 SHL SUB AND PUSH1 0x20 DUP6 ADD MSTORE JUMP JUMPDEST PUSH1 0x40 DUP4 ADD MSTORE DUP1 PUSH1 0x60 DUP4 ADD MSTORE DUP2 MLOAD PUSH2 0x1C32 DUP2 PUSH2 0x1FEA JUMP JUMPDEST PUSH2 0x1C3B DUP2 PUSH2 0x1FEA JUMP JUMPDEST ISZERO PUSH2 0x1CA3 JUMPI JUMPDEST POP DUP3 PUSH2 0x1C7C PUSH32 0x2B2BE5BDC62AAF8DBE8A0FFAC99E7335C8D1245AA56D1D50E01FC21177FB2277 SWAP4 PUSH2 0x1034 PUSH2 0x1C9A SWAP5 DUP11 PUSH1 0x1 SWAP13 SWAP12 SWAP11 SWAP10 SWAP9 PUSH2 0x36AC JUMP JUMPDEST PUSH1 0x40 MLOAD SWAP5 DUP6 MSTORE PUSH1 0xA0 DUP9 SWAP1 SHL DUP9 SWAP1 SUB SWAP1 DUP2 AND SWAP6 AND SWAP4 SWAP1 DUP2 SWAP1 PUSH1 0x20 DUP3 ADD SWAP1 JUMP JUMPDEST SUB SWAP1 LOG4 ADD PUSH2 0x1A18 JUMP JUMPDEST PUSH2 0x1CB3 SWAP2 SWAP16 SWAP8 SWAP7 SWAP6 SWAP5 SWAP4 SWAP8 PUSH2 0x20B9 JUMP JUMPDEST SWAP14 CODESIZE SWAP7 SWAP3 SWAP4 SWAP5 SWAP6 SWAP7 PUSH2 0x1C41 JUMP JUMPDEST PUSH2 0x1CCF SWAP2 PUSH1 0x80 DUP7 ADD CALLDATALOAD DUP5 PUSH2 0x3249 JUMP JUMPDEST CODESIZE DUP1 PUSH2 0x1B4A JUMP JUMPDEST ISZERO PUSH2 0x1CDD JUMPI JUMP JUMPDEST PUSH1 0x40 MLOAD PUSH3 0x461BCD PUSH1 0xE5 SHL DUP2 MSTORE PUSH1 0x20 PUSH1 0x4 DUP3 ADD MSTORE PUSH1 0xF PUSH1 0x24 DUP3 ADD MSTORE PUSH15 0x98CADCCEE8D040DAD2E6DAC2E8C6D PUSH1 0x8B SHL PUSH1 0x44 DUP3 ADD MSTORE PUSH1 0x64 SWAP1 REVERT JUMPDEST ISZERO PUSH2 0x1D1B JUMPI JUMP JUMPDEST PUSH1 0x40 MLOAD PUSH3 0x461BCD PUSH1 0xE5 SHL DUP2 MSTORE PUSH1 0x20 PUSH1 0x4 DUP3 ADD MSTORE PUSH1 0x16 PUSH1 0x24 DUP3 ADD MSTORE PUSH22 0xA0E4DEDECCE640D8CADCCEE8D040DAD2E6DAC2E8C6D PUSH1 0x53 SHL PUSH1 0x44 DUP3 ADD MSTORE PUSH1 0x64 SWAP1 REVERT JUMPDEST ISZERO PUSH2 0x1D60 JUMPI JUMP JUMPDEST PUSH1 0x40 MLOAD PUSH3 0x461BCD PUSH1 0xE5 SHL DUP2 MSTORE PUSH1 0x20 PUSH1 0x4 DUP3 ADD MSTORE PUSH1 0x12 PUSH1 0x24 DUP3 ADD MSTORE PUSH18 0x456D707479206F7264657273206172726179 PUSH1 0x70 SHL PUSH1 0x44 DUP3 ADD MSTORE PUSH1 0x64 SWAP1 REVERT JUMPDEST PUSH4 0x4E487B71 PUSH1 0xE0 SHL PUSH1 0x0 MSTORE PUSH1 0x32 PUSH1 0x4 MSTORE PUSH1 0x24 PUSH1 0x0 REVERT JUMPDEST SWAP2 SWAP1 DUP2 LT ISZERO PUSH2 0x1DD2 JUMPI PUSH1 0x5 SHL DUP2 ADD CALLDATALOAD SWAP1 PUSH1 0xDE NOT DUP2 CALLDATASIZE SUB ADD DUP3 SLT ISZERO PUSH2 0x24B JUMPI ADD SWAP1 JUMP JUMPDEST PUSH2 0x1D9A JUMP JUMPDEST PUSH1 0x3 GT ISZERO PUSH2 0x24B JUMPI JUMP JUMPDEST PUSH4 0x4E487B71 PUSH1 0xE0 SHL PUSH1 0x0 MSTORE PUSH1 0x21 PUSH1 0x4 MSTORE PUSH1 0x24 PUSH1 0x0 REVERT JUMPDEST PUSH1 0x3 GT ISZERO PUSH2 0x1E01 JUMPI JUMP JUMPDEST PUSH2 0x1DE1 JUMP JUMPDEST CALLDATALOAD PUSH2 0x1E10 DUP2 PUSH2 0x1DD7 JUMP JUMPDEST SWAP1 JUMP JUMPDEST ISZERO PUSH2 0x1E1A JUMPI JUMP JUMPDEST PUSH1 0x40 MLOAD PUSH3 0x461BCD PUSH1 0xE5 SHL DUP2 MSTORE PUSH1 0x20 PUSH1 0x4 DUP3 ADD MSTORE PUSH1 0x21 PUSH1 0x24 DUP3 ADD MSTORE PUSH32 0x6D617463684F7264657273206E6F7420737570706F7274656420666F72204249 PUSH1 0x44 DUP3 ADD MSTORE PUSH1 0x11 PUSH1 0xFA SHL PUSH1 0x64 DUP3 ADD MSTORE PUSH1 0x84 SWAP1 REVERT JUMPDEST CALLDATALOAD PUSH2 0x1E10 DUP2 PUSH2 0x3B2 JUMP JUMPDEST ISZERO PUSH2 0x1E7A JUMPI JUMP JUMPDEST PUSH1 0x40 MLOAD PUSH3 0x461BCD PUSH1 0xE5 SHL DUP2 MSTORE PUSH1 0x20 PUSH1 0x4 DUP3 ADD MSTORE PUSH1 0x15 PUSH1 0x24 DUP3 ADD MSTORE PUSH21 0x496E76616C6964206D616B65722061646472657373 PUSH1 0x58 SHL PUSH1 0x44 DUP3 ADD MSTORE PUSH1 0x64 SWAP1 REVERT JUMPDEST SWAP2 SWAP1 DUP2 LT ISZERO PUSH2 0x1DD2 JUMPI PUSH1 0x5 SHL ADD SWAP1 JUMP JUMPDEST SWAP1 CALLDATALOAD SWAP1 PUSH1 0x1E NOT DUP2 CALLDATASIZE SUB ADD DUP3 SLT ISZERO PUSH2 0x24B JUMPI ADD DUP1 CALLDATALOAD SWAP1 PUSH1 0x1 PUSH1 0x1 PUSH1 0x40 SHL SUB DUP3 GT PUSH2 0x24B JUMPI PUSH1 0x20 ADD SWAP2 PUSH2 0x140 DUP3 MUL CALLDATASIZE SUB DUP4 SGT PUSH2 0x24B JUMPI JUMP JUMPDEST ISZERO PUSH2 0x1F04 JUMPI JUMP JUMPDEST PUSH1 0x40 MLOAD PUSH3 0x461BCD PUSH1 0xE5 SHL DUP2 MSTORE PUSH1 0x20 PUSH1 0x4 DUP3 ADD MSTORE PUSH1 0x12 PUSH1 0x24 DUP3 ADD MSTORE PUSH18 0x92DCECC2D8D2C840D2E8CADA40D2DCC8CAF PUSH1 0x73 SHL PUSH1 0x44 DUP3 ADD MSTORE PUSH1 0x64 SWAP1 REVERT JUMPDEST SWAP2 SWAP1 DUP2 LT ISZERO PUSH2 0x1DD2 JUMPI PUSH1 0x5 SHL DUP2 ADD CALLDATALOAD SWAP1 PUSH1 0x1E NOT DUP2 CALLDATASIZE SUB ADD DUP3 SLT ISZERO PUSH2 0x24B JUMPI ADD SWAP1 DUP2 CALLDATALOAD SWAP2 PUSH1 0x1 PUSH1 0x1 PUSH1 0x40 SHL SUB DUP4 GT PUSH2 0x24B JUMPI PUSH1 0x20 ADD DUP3 PUSH1 0x5 SHL CALLDATASIZE SUB DUP2 SGT PUSH2 0x24B JUMPI SWAP2 SWAP1 JUMP JUMPDEST SWAP1 ISZERO PUSH2 0x1DD2 JUMPI SWAP1 JUMP JUMPDEST SWAP2 SWAP1 DUP2 LT ISZERO PUSH2 0x1DD2 JUMPI PUSH2 0x140 MUL ADD SWAP1 JUMP JUMPDEST PUSH4 0x4E487B71 PUSH1 0xE0 SHL PUSH1 0x0 MSTORE PUSH1 0x11 PUSH1 0x4 MSTORE PUSH1 0x24 PUSH1 0x0 REVERT JUMPDEST SWAP1 PUSH1 0x64 DUP3 MUL SWAP2 DUP1 DUP4 DIV PUSH1 0x64 EQ SWAP1 ISZERO OR ISZERO PUSH2 0x1FC8 JUMPI JUMP JUMPDEST PUSH2 0x1F9C JUMP JUMPDEST DUP2 DUP2 MUL SWAP3 SWAP2 DUP2 ISZERO SWAP2 DUP5 DIV EQ OR ISZERO PUSH2 0x1FC8 JUMPI JUMP JUMPDEST PUSH1 0x4 GT ISZERO PUSH2 0x24B JUMPI JUMP JUMPDEST PUSH1 0x4 GT ISZERO PUSH2 0x1E01 JUMPI JUMP JUMPDEST CALLDATALOAD PUSH2 0x1E10 DUP2 PUSH2 0x1FE0 JUMP JUMPDEST PUSH4 0x4E487B71 PUSH1 0xE0 SHL PUSH1 0x0 MSTORE PUSH1 0x41 PUSH1 0x4 MSTORE PUSH1 0x24 PUSH1 0x0 REVERT JUMPDEST PUSH1 0x80 DUP2 ADD SWAP1 DUP2 LT PUSH1 0x1 PUSH1 0x1 PUSH1 0x40 SHL SUB DUP3 GT OR PUSH2 0x202F JUMPI PUSH1 0x40 MSTORE JUMP JUMPDEST PUSH2 0x1FFE JUMP JUMPDEST SWAP1 PUSH1 0x1F DUP1 NOT SWAP2 ADD AND DUP2 ADD SWAP1 DUP2 LT PUSH1 0x1 PUSH1 0x1 PUSH1 0x40 SHL SUB DUP3 GT OR PUSH2 0x202F JUMPI PUSH1 0x40 MSTORE JUMP JUMPDEST PUSH1 0x40 MLOAD SWAP1 PUSH2 0x3CE PUSH1 0x80 DUP4 PUSH2 0x2034 JUMP JUMPDEST PUSH1 0x40 MLOAD SWAP1 PUSH2 0x3CE PUSH1 0x60 DUP4 PUSH2 0x2034 JUMP JUMPDEST PUSH1 0x40 MLOAD SWAP1 PUSH2 0x3CE PUSH2 0x100 DUP4 PUSH2 0x2034 JUMP JUMPDEST PUSH1 0x40 MLOAD SWAP1 PUSH2 0x3CE PUSH1 0xE0 DUP4 PUSH2 0x2034 JUMP JUMPDEST PUSH1 0x4 DUP3 LT ISZERO PUSH2 0x1E01 JUMPI MSTORE JUMP JUMPDEST MLOAD PUSH1 0x4 DUP2 LT ISZERO PUSH2 0x1E01 JUMPI SWAP1 JUMP JUMPDEST SWAP1 PUSH1 0x1 DUP3 ADD DUP1 SWAP3 GT PUSH2 0x1FC8 JUMPI JUMP JUMPDEST SWAP2 SWAP1 DUP3 ADD DUP1 SWAP3 GT PUSH2 0x1FC8 JUMPI JUMP JUMPDEST ISZERO PUSH2 0x20CD JUMPI JUMP JUMPDEST PUSH1 0x40 MLOAD PUSH3 0x461BCD PUSH1 0xE5 SHL DUP2 MSTORE PUSH1 0x20 PUSH1 0x4 DUP3 ADD MSTORE PUSH1 0x1C PUSH1 0x24 DUP3 ADD MSTORE PUSH32 0x496E73756666696369656E7420746F74616C206D73672E76616C756500000000 PUSH1 0x44 DUP3 ADD MSTORE PUSH1 0x64 SWAP1 REVERT JUMPDEST SWAP2 SWAP1 DUP3 SUB SWAP2 DUP3 GT PUSH2 0x1FC8 JUMPI JUMP JUMPDEST PUSH1 0x1 PUSH1 0x1 PUSH1 0x40 SHL SUB DUP2 GT PUSH2 0x202F JUMPI PUSH1 0x1F ADD PUSH1 0x1F NOT AND PUSH1 0x20 ADD SWAP1 JUMP JUMPDEST RETURNDATASIZE ISZERO PUSH2 0x2165 JUMPI RETURNDATASIZE SWAP1 PUSH2 0x214B DUP3 PUSH2 0x211F JUMP JUMPDEST SWAP2 PUSH2 0x2159 PUSH1 0x40 MLOAD SWAP4 DUP5 PUSH2 0x2034 JUMP JUMPDEST DUP3 MSTORE RETURNDATASIZE PUSH1 0x0 PUSH1 0x20 DUP5 ADD RETURNDATACOPY JUMP JUMPDEST PUSH1 0x60 SWAP1 JUMP JUMPDEST ISZERO PUSH2 0x2171 JUMPI JUMP JUMPDEST PUSH1 0x40 MLOAD PUSH3 0x461BCD PUSH1 0xE5 SHL DUP2 MSTORE PUSH1 0x20 PUSH1 0x4 DUP3 ADD MSTORE PUSH1 0xD PUSH1 0x24 DUP3 ADD MSTORE PUSH13 0x1499599D5B990819985A5B1959 PUSH1 0x9A SHL PUSH1 0x44 DUP3 ADD MSTORE PUSH1 0x64 SWAP1 REVERT JUMPDEST PUSH2 0x21AF SWAP1 PUSH2 0x3383 JUMP JUMPDEST PUSH1 0x0 MSTORE PUSH1 0x9 PUSH1 0x20 MSTORE PUSH1 0x40 PUSH1 0x0 KECCAK256 SWAP1 PUSH1 0x0 MSTORE PUSH1 0x20 MSTORE PUSH1 0xFF PUSH1 0x40 PUSH1 0x0 KECCAK256 SLOAD AND SWAP1 JUMP JUMPDEST PUSH2 0x1457 SWAP1 PUSH2 0x2239 PUSH2 0x2234 PUSH2 0x222E PUSH2 0x22B5 SWAP7 SWAP6 PUSH2 0x21E9 PUSH2 0x2E7F JUMP JUMPDEST PUSH2 0x21F1 PUSH2 0x2ED5 JUMP JUMPDEST PUSH2 0x21FA DUP6 PUSH2 0x3A46 JUMP JUMPDEST SWAP7 PUSH2 0x221D PUSH2 0x2218 PUSH2 0xAF2 PUSH2 0x129E DUP12 PUSH1 0x0 MSTORE PUSH1 0xB PUSH1 0x20 MSTORE PUSH1 0x40 PUSH1 0x0 KECCAK256 SWAP1 JUMP JUMPDEST PUSH2 0x22BF JUMP JUMPDEST PUSH2 0x17F4 PUSH2 0x100 DUP8 ADD CALLDATALOAD TIMESTAMP LT ISZERO PUSH2 0x22FF JUMP JUMPDEST DUP4 PUSH2 0x3AB9 JUMP JUMPDEST PUSH2 0x2376 JUMP JUMPDEST PUSH2 0x224D PUSH1 0x1 PUSH1 0x1 PUSH1 0xA0 SHL SUB PUSH2 0x11F1 DUP4 PUSH2 0x1E69 JUMP JUMPDEST PUSH2 0x2295 PUSH2 0x228E PUSH2 0x1213 PUSH2 0x2272 PUSH2 0x226D DUP8 PUSH1 0x0 MSTORE PUSH1 0xA PUSH1 0x20 MSTORE PUSH1 0x40 PUSH1 0x0 KECCAK256 SWAP1 JUMP JUMPDEST PUSH2 0x23FA JUMP JUMPDEST PUSH2 0x2281 PUSH1 0x20 DUP3 ADD MLOAD ISZERO ISZERO PUSH2 0x243A JUMP JUMPDEST MLOAD PUSH1 0x1 PUSH1 0x1 PUSH1 0xA0 SHL SUB AND SWAP1 JUMP JUMPDEST ISZERO ISZERO PUSH2 0x2477 JUMP JUMPDEST PUSH2 0x22AE PUSH2 0x22A1 DUP3 PUSH2 0x1E69 JUMP JUMPDEST PUSH2 0x12DC CALLDATASIZE PUSH1 0x20 DUP6 ADD PUSH2 0x24BC JUMP JUMPDEST CALLDATASIZE SWAP1 PUSH2 0x2525 JUMP JUMPDEST PUSH2 0x3CE PUSH1 0x1 PUSH1 0x0 SSTORE JUMP JUMPDEST ISZERO PUSH2 0x22C6 JUMPI JUMP JUMPDEST PUSH1 0x40 MLOAD PUSH3 0x461BCD PUSH1 0xE5 SHL DUP2 MSTORE PUSH1 0x20 PUSH1 0x4 DUP3 ADD MSTORE PUSH1 0x11 PUSH1 0x24 DUP3 ADD MSTORE PUSH17 0x105B1C9958591E48199A5B985B1A5E9959 PUSH1 0x7A SHL PUSH1 0x44 DUP3 ADD MSTORE PUSH1 0x64 SWAP1 REVERT JUMPDEST ISZERO PUSH2 0x2306 JUMPI JUMP JUMPDEST PUSH1 0x40 MLOAD PUSH3 0x461BCD PUSH1 0xE5 SHL DUP2 MSTORE PUSH1 0x20 PUSH1 0x4 DUP3 ADD MSTORE PUSH1 0x11 PUSH1 0x24 DUP3 ADD MSTORE PUSH17 0x105D58DD1A5BDB881B9BDD08195B991959 PUSH1 0x7A SHL PUSH1 0x44 DUP3 ADD MSTORE PUSH1 0x64 SWAP1 REVERT JUMPDEST SWAP3 SWAP2 SWAP3 PUSH2 0x234B DUP3 PUSH2 0x211F JUMP JUMPDEST SWAP2 PUSH2 0x2359 PUSH1 0x40 MLOAD SWAP4 DUP5 PUSH2 0x2034 JUMP JUMPDEST DUP3 SWAP5 DUP2 DUP5 MSTORE DUP2 DUP4 ADD GT PUSH2 0x24B JUMPI DUP3 DUP2 PUSH1 0x20 SWAP4 DUP5 PUSH1 0x0 SWAP7 ADD CALLDATACOPY ADD ADD MSTORE JUMP JUMPDEST ISZERO PUSH2 0x237D JUMPI JUMP JUMPDEST PUSH1 0x40 MLOAD PUSH3 0x461BCD PUSH1 0xE5 SHL DUP2 MSTORE PUSH1 0x20 PUSH1 0x4 DUP3 ADD MSTORE PUSH1 0x11 PUSH1 0x24 DUP3 ADD MSTORE PUSH17 0x496E76616C6964207369676E6174757265 PUSH1 0x78 SHL PUSH1 0x44 DUP3 ADD MSTORE PUSH1 0x64 SWAP1 REVERT JUMPDEST ISZERO PUSH2 0x23BD JUMPI JUMP JUMPDEST PUSH1 0x40 MLOAD PUSH3 0x461BCD PUSH1 0xE5 SHL DUP2 MSTORE PUSH1 0x20 PUSH1 0x4 DUP3 ADD MSTORE PUSH1 0x15 PUSH1 0x24 DUP3 ADD MSTORE PUSH21 0x24B73B30B634B21030BAB1BA34B7B71036B0B5B2B9 PUSH1 0x59 SHL PUSH1 0x44 DUP3 ADD MSTORE PUSH1 0x64 SWAP1 REVERT JUMPDEST SWAP1 PUSH1 0x40 MLOAD PUSH1 0x60 DUP2 ADD DUP2 DUP2 LT PUSH1 0x1 PUSH1 0x1 PUSH1 0x40 SHL SUB DUP3 GT OR PUSH2 0x202F JUMPI PUSH1 0x40 MSTORE PUSH1 0x40 PUSH1 0x2 DUP3 SWAP5 PUSH1 0x1 DUP1 PUSH1 0xA0 SHL SUB DUP2 SLOAD AND DUP5 MSTORE PUSH1 0x1 DUP2 ADD SLOAD PUSH1 0x20 DUP6 ADD MSTORE ADD SLOAD SWAP2 ADD MSTORE JUMP JUMPDEST ISZERO PUSH2 0x2441 JUMPI JUMP JUMPDEST PUSH1 0x40 MLOAD PUSH3 0x461BCD PUSH1 0xE5 SHL DUP2 MSTORE PUSH1 0x20 PUSH1 0x4 DUP3 ADD MSTORE PUSH1 0xE PUSH1 0x24 DUP3 ADD MSTORE PUSH14 0x139BC8189A591CC81C1B1858D959 PUSH1 0x92 SHL PUSH1 0x44 DUP3 ADD MSTORE PUSH1 0x64 SWAP1 REVERT JUMPDEST ISZERO PUSH2 0x247E JUMPI JUMP JUMPDEST PUSH1 0x40 MLOAD PUSH3 0x461BCD PUSH1 0xE5 SHL DUP2 MSTORE PUSH1 0x20 PUSH1 0x4 DUP3 ADD MSTORE PUSH1 0x16 PUSH1 0x24 DUP3 ADD MSTORE PUSH22 0x24B73B30B634B2103BB4B73734B733903134B23232B9 PUSH1 0x51 SHL PUSH1 0x44 DUP3 ADD MSTORE PUSH1 0x64 SWAP1 REVERT JUMPDEST SWAP2 SWAP1 DUP3 PUSH1 0x80 SWAP2 SUB SLT PUSH2 0x24B JUMPI PUSH1 0x40 MLOAD PUSH2 0x24D4 DUP2 PUSH2 0x2014 JUMP JUMPDEST PUSH1 0x60 DUP1 DUP3 SWAP5 DUP1 CALLDATALOAD PUSH2 0x24E4 DUP2 PUSH2 0x1FE0 JUMP JUMPDEST DUP5 MSTORE PUSH1 0x20 DUP2 ADD CALLDATALOAD PUSH2 0x24F4 DUP2 PUSH2 0x3B2 JUMP JUMPDEST PUSH1 0x20 DUP6 ADD MSTORE PUSH1 0x40 DUP2 ADD CALLDATALOAD PUSH1 0x40 DUP6 ADD MSTORE ADD CALLDATALOAD SWAP2 ADD MSTORE JUMP JUMPDEST SWAP1 DUP1 PUSH1 0x1F DUP4 ADD SLT ISZERO PUSH2 0x24B JUMPI DUP2 PUSH1 0x20 PUSH2 0x1E10 SWAP4 CALLDATALOAD SWAP2 ADD PUSH2 0x233F JUMP JUMPDEST SWAP2 SWAP1 SWAP2 PUSH2 0x160 DUP2 DUP5 SUB SLT PUSH2 0x24B JUMPI PUSH2 0x253B PUSH2 0x2073 JUMP JUMPDEST SWAP3 PUSH2 0x2545 DUP3 PUSH2 0x3C3 JUMP JUMPDEST DUP5 MSTORE PUSH2 0x2554 DUP2 PUSH1 0x20 DUP5 ADD PUSH2 0x24BC JUMP JUMPDEST PUSH1 0x20 DUP6 ADD MSTORE PUSH1 0xA0 DUP3 ADD CALLDATALOAD PUSH1 0x40 DUP6 ADD MSTORE PUSH1 0xC0 DUP3 ADD CALLDATALOAD PUSH1 0x60 DUP6 ADD MSTORE PUSH1 0xE0 DUP3 ADD CALLDATALOAD PUSH1 0x80 DUP6 ADD MSTORE PUSH2 0x100 DUP3 ADD CALLDATALOAD PUSH1 0xA0 DUP6 ADD MSTORE PUSH2 0x120 DUP3 ADD CALLDATALOAD PUSH1 0xC0 DUP6 ADD MSTORE PUSH2 0x140 DUP3 ADD CALLDATALOAD PUSH1 0x1 PUSH1 0x1 PUSH1 0x40 SHL SUB DUP2 GT PUSH2 0x24B JUMPI PUSH2 0x25AB SWAP3 ADD PUSH2 0x250A JUMP JUMPDEST PUSH1 0xE0 DUP4 ADD MSTORE JUMP JUMPDEST SWAP1 PUSH2 0x25EA PUSH1 0x60 SWAP2 PUSH2 0x25C2 DUP5 PUSH2 0x3383 JUMP JUMPDEST PUSH1 0x0 MSTORE PUSH1 0x8 PUSH1 0x20 MSTORE PUSH1 0x40 PUSH1 0x0 KECCAK256 DUP2 PUSH1 0x0 MSTORE PUSH1 0x20 MSTORE PUSH2 0xC8B PUSH1 0x40 PUSH1 0x0 KECCAK256 SLOAD SWAP5 PUSH1 0x20 DUP2 ADD SWAP1 PUSH2 0x1EC7 JUMP JUMPDEST ADD CALLDATALOAD GT ISZERO SWAP1 JUMP JUMPDEST PUSH1 0x1 PUSH1 0x1 PUSH1 0x40 SHL SUB DUP2 GT PUSH2 0x202F JUMPI PUSH1 0x5 SHL PUSH1 0x20 ADD SWAP1 JUMP JUMPDEST ISZERO PUSH2 0x260F JUMPI JUMP JUMPDEST PUSH1 0x40 MLOAD PUSH3 0x461BCD PUSH1 0xE5 SHL DUP2 MSTORE PUSH1 0x20 PUSH1 0x4 DUP3 ADD MSTORE PUSH1 0x14 PUSH1 0x24 DUP3 ADD MSTORE PUSH20 0x13DC99195C88185B1C9958591E48199A5B1B1959 PUSH1 0x62 SHL PUSH1 0x44 DUP3 ADD MSTORE PUSH1 0x64 SWAP1 REVERT JUMPDEST ISZERO PUSH2 0x2652 JUMPI JUMP JUMPDEST PUSH1 0x40 MLOAD PUSH3 0x461BCD PUSH1 0xE5 SHL DUP2 MSTORE PUSH1 0x20 PUSH1 0x4 DUP3 ADD MSTORE PUSH1 0x17 PUSH1 0x24 DUP3 ADD MSTORE PUSH32 0x4F7264657220616C72656164792063616E63656C6C6564000000000000000000 PUSH1 0x44 DUP3 ADD MSTORE PUSH1 0x64 SWAP1 REVERT JUMPDEST SWAP3 SWAP2 SWAP1 PUSH2 0x26A3 DUP2 PUSH2 0x25F1 JUMP JUMPDEST SWAP4 PUSH2 0x26B1 PUSH1 0x40 MLOAD SWAP6 DUP7 PUSH2 0x2034 JUMP JUMPDEST PUSH1 0x20 DUP6 DUP4 DUP2 MSTORE ADD SWAP2 PUSH1 0x5 SHL DUP2 ADD SWAP3 DUP4 GT PUSH2 0x24B JUMPI SWAP1 JUMPDEST DUP3 DUP3 LT PUSH2 0x26D3 JUMPI POP POP POP JUMP JUMPDEST DUP2 CALLDATALOAD DUP2 MSTORE PUSH1 0x20 SWAP2 DUP3 ADD SWAP2 ADD PUSH2 0x26C7 JUMP JUMPDEST ISZERO PUSH2 0x26EA JUMPI JUMP JUMPDEST PUSH1 0x40 MLOAD PUSH3 0x461BCD PUSH1 0xE5 SHL DUP2 MSTORE PUSH1 0x20 PUSH1 0x4 DUP3 ADD MSTORE PUSH1 0xF PUSH1 0x24 DUP3 ADD MSTORE PUSH15 0x2737BA1030903134B21037B93232B9 PUSH1 0x89 SHL PUSH1 0x44 DUP3 ADD MSTORE PUSH1 0x64 SWAP1 REVERT JUMPDEST SWAP2 SWAP1 SWAP2 PUSH2 0x140 DUP2 DUP5 SUB SLT PUSH2 0x24B JUMPI PUSH1 0x60 PUSH2 0x120 PUSH1 0x40 MLOAD SWAP3 PUSH2 0x2741 DUP5 PUSH2 0x2014 JUMP JUMPDEST PUSH2 0x275B DUP5 SWAP7 PUSH2 0x2750 DUP2 DUP5 PUSH2 0x24BC JUMP JUMPDEST DUP7 MSTORE PUSH1 0x80 DUP4 ADD PUSH2 0x24BC JUMP JUMPDEST PUSH1 0x20 DUP6 ADD MSTORE PUSH2 0x100 DUP2 ADD CALLDATALOAD PUSH1 0x40 DUP6 ADD MSTORE ADD CALLDATALOAD SWAP2 ADD MSTORE JUMP JUMPDEST PUSH2 0x1E10 SWAP1 CALLDATASIZE SWAP1 PUSH2 0x2721 JUMP JUMPDEST ISZERO PUSH2 0x2784 JUMPI JUMP JUMPDEST PUSH1 0x40 MLOAD PUSH3 0x461BCD PUSH1 0xE5 SHL DUP2 MSTORE PUSH1 0x20 PUSH1 0x4 DUP3 ADD MSTORE PUSH1 0x13 PUSH1 0x24 DUP3 ADD MSTORE PUSH19 0x125B9D985B1A59081CD95B1B08185B5BDD5B9D PUSH1 0x6A SHL PUSH1 0x44 DUP3 ADD MSTORE PUSH1 0x64 SWAP1 REVERT JUMPDEST ISZERO PUSH2 0x27C6 JUMPI JUMP JUMPDEST PUSH1 0x40 MLOAD PUSH3 0x461BCD PUSH1 0xE5 SHL DUP2 MSTORE PUSH1 0x20 PUSH1 0x4 DUP3 ADD MSTORE PUSH1 0x16 PUSH1 0x24 DUP3 ADD MSTORE PUSH22 0x496E76616C6964206269646465722061646472657373 PUSH1 0x50 SHL PUSH1 0x44 DUP3 ADD MSTORE PUSH1 0x64 SWAP1 REVERT JUMPDEST ISZERO PUSH2 0x280B JUMPI JUMP JUMPDEST PUSH1 0x40 MLOAD PUSH3 0x461BCD PUSH1 0xE5 SHL DUP2 MSTORE PUSH1 0x20 PUSH1 0x4 DUP3 ADD MSTORE PUSH1 0x16 PUSH1 0x24 DUP3 ADD MSTORE PUSH22 0x496E76616C69642073656C6C65722061646472657373 PUSH1 0x50 SHL PUSH1 0x44 DUP3 ADD MSTORE PUSH1 0x64 SWAP1 REVERT JUMPDEST ISZERO PUSH2 0x2850 JUMPI JUMP JUMPDEST PUSH1 0x40 MLOAD PUSH3 0x461BCD PUSH1 0xE5 SHL DUP2 MSTORE PUSH1 0x20 PUSH1 0x4 DUP3 ADD MSTORE PUSH1 0x16 PUSH1 0x24 DUP3 ADD MSTORE PUSH22 0x496E73756666696369656E74206D73672E76616C7565 PUSH1 0x50 SHL PUSH1 0x44 DUP3 ADD MSTORE PUSH1 0x64 SWAP1 REVERT JUMPDEST SWAP1 DUP2 PUSH1 0x20 SWAP2 SUB SLT PUSH2 0x24B JUMPI MLOAD SWAP1 JUMP JUMPDEST SWAP1 PUSH1 0x4 DUP3 LT ISZERO PUSH2 0x1E01 JUMPI MSTORE JUMP JUMPDEST PUSH1 0x60 DUP1 SWAP2 PUSH2 0x28C2 DUP5 DUP3 CALLDATALOAD PUSH2 0x28BD DUP2 PUSH2 0x1FE0 JUMP JUMPDEST PUSH2 0x289D JUMP JUMPDEST PUSH1 0x20 DUP2 ADD CALLDATALOAD PUSH2 0x28D0 DUP2 PUSH2 0x3B2 JUMP JUMPDEST PUSH1 0x1 PUSH1 0x1 PUSH1 0xA0 SHL SUB AND PUSH1 0x20 DUP6 ADD MSTORE PUSH1 0x40 DUP2 DUP2 ADD CALLDATALOAD SWAP1 DUP6 ADD MSTORE ADD CALLDATALOAD SWAP2 ADD MSTORE JUMP JUMPDEST SWAP1 CALLDATALOAD PUSH1 0x1E NOT DUP3 CALLDATASIZE SUB ADD DUP2 SLT ISZERO PUSH2 0x24B JUMPI ADD PUSH1 0x20 DUP2 CALLDATALOAD SWAP2 ADD SWAP2 PUSH1 0x1 PUSH1 0x1 PUSH1 0x40 SHL SUB DUP3 GT PUSH2 0x24B JUMPI DUP2 CALLDATASIZE SUB DUP4 SGT PUSH2 0x24B JUMPI JUMP JUMPDEST SWAP1 DUP1 PUSH1 0x20 SWAP4 SWAP3 DUP2 DUP5 MSTORE DUP5 DUP5 ADD CALLDATACOPY PUSH1 0x0 DUP3 DUP3 ADD DUP5 ADD MSTORE PUSH1 0x1F ADD PUSH1 0x1F NOT AND ADD ADD SWAP1 JUMP JUMPDEST PUSH2 0x180 PUSH2 0x29B9 PUSH2 0x1E10 SWAP4 PUSH1 0x20 DUP5 MSTORE DUP1 CALLDATALOAD PUSH2 0x295A DUP2 PUSH2 0x3B2 JUMP JUMPDEST PUSH1 0x1 DUP1 PUSH1 0xA0 SHL SUB AND PUSH1 0x20 DUP6 ADD MSTORE PUSH2 0x2977 PUSH1 0x40 DUP6 ADD PUSH1 0x20 DUP4 ADD PUSH2 0x28AA JUMP JUMPDEST PUSH1 0xA0 DUP2 ADD CALLDATALOAD PUSH1 0xC0 DUP6 ADD MSTORE PUSH1 0xC0 DUP2 ADD CALLDATALOAD PUSH1 0xE0 DUP6 ADD MSTORE PUSH1 0xE0 DUP2 ADD CALLDATALOAD PUSH2 0x100 DUP6 ADD MSTORE PUSH2 0x100 DUP2 ADD CALLDATALOAD PUSH2 0x120 DUP6 ADD MSTORE PUSH2 0x120 DUP2 ADD CALLDATALOAD PUSH2 0x140 DUP6 ADD MSTORE PUSH2 0x140 DUP2 ADD SWAP1 PUSH2 0x28EF JUMP JUMPDEST SWAP2 SWAP1 SWAP3 PUSH2 0x160 DUP1 DUP3 ADD MSTORE ADD SWAP2 PUSH2 0x2920 JUMP JUMPDEST PUSH1 0x40 MLOAD RETURNDATASIZE PUSH1 0x0 DUP3 RETURNDATACOPY RETURNDATASIZE SWAP1 REVERT JUMPDEST ISZERO PUSH2 0x29DD JUMPI JUMP JUMPDEST PUSH1 0x40 MLOAD PUSH3 0x461BCD PUSH1 0xE5 SHL DUP2 MSTORE PUSH1 0x20 PUSH1 0x4 DUP3 ADD MSTORE PUSH1 0x1F PUSH1 0x24 DUP3 ADD MSTORE PUSH32 0x4D616B65722063616E6E6F7420626964206F6E206F776E2061756374696F6E00 PUSH1 0x44 DUP3 ADD MSTORE PUSH1 0x64 SWAP1 REVERT JUMPDEST ISZERO PUSH2 0x2A29 JUMPI JUMP JUMPDEST PUSH1 0x40 MLOAD PUSH3 0x461BCD PUSH1 0xE5 SHL DUP2 MSTORE PUSH1 0x20 PUSH1 0x4 DUP3 ADD MSTORE PUSH1 0x13 PUSH1 0x24 DUP3 ADD MSTORE PUSH19 0x105D58DD1A5BDB881B9BDD081CDD185C9D1959 PUSH1 0x6A SHL PUSH1 0x44 DUP3 ADD MSTORE PUSH1 0x64 SWAP1 REVERT JUMPDEST ISZERO PUSH2 0x2A6B JUMPI JUMP JUMPDEST PUSH1 0x40 MLOAD PUSH3 0x461BCD PUSH1 0xE5 SHL DUP2 MSTORE PUSH1 0x20 PUSH1 0x4 DUP3 ADD MSTORE PUSH1 0xD PUSH1 0x24 DUP3 ADD MSTORE PUSH13 0x105D58DD1A5BDB88195B991959 PUSH1 0x9A SHL PUSH1 0x44 DUP3 ADD MSTORE PUSH1 0x64 SWAP1 REVERT JUMPDEST ISZERO PUSH2 0x2AA7 JUMPI JUMP JUMPDEST PUSH1 0x40 MLOAD PUSH3 0x461BCD PUSH1 0xE5 SHL DUP2 MSTORE PUSH1 0x20 PUSH1 0x4 DUP3 ADD MSTORE PUSH1 0x18 PUSH1 0x24 DUP3 ADD MSTORE PUSH32 0x496E76616C69642061756374696F6E206475726174696F6E0000000000000000 PUSH1 0x44 DUP3 ADD MSTORE PUSH1 0x64 SWAP1 REVERT JUMPDEST ISZERO PUSH2 0x2AF3 JUMPI JUMP JUMPDEST PUSH1 0x40 MLOAD PUSH3 0x461BCD PUSH1 0xE5 SHL DUP2 MSTORE PUSH1 0x20 PUSH1 0x4 DUP3 ADD MSTORE PUSH1 0x11 PUSH1 0x24 DUP3 ADD MSTORE PUSH17 0x105D58DD1A5BDB881D1BDBC81CDA1BDC9D PUSH1 0x7A SHL PUSH1 0x44 DUP3 ADD MSTORE PUSH1 0x64 SWAP1 REVERT JUMPDEST ISZERO PUSH2 0x2B33 JUMPI JUMP JUMPDEST PUSH1 0x40 MLOAD PUSH3 0x461BCD PUSH1 0xE5 SHL DUP2 MSTORE PUSH1 0x20 PUSH1 0x4 DUP3 ADD MSTORE PUSH1 0x10 PUSH1 0x24 DUP3 ADD MSTORE PUSH16 0x41756374696F6E20746F6F206C6F6E67 PUSH1 0x80 SHL PUSH1 0x44 DUP3 ADD MSTORE PUSH1 0x64 SWAP1 REVERT JUMPDEST ISZERO PUSH2 0x2B72 JUMPI JUMP JUMPDEST PUSH1 0x40 MLOAD PUSH3 0x461BCD PUSH1 0xE5 SHL DUP2 MSTORE PUSH1 0x20 PUSH1 0x4 DUP3 ADD MSTORE PUSH1 0x19 PUSH1 0x24 DUP3 ADD MSTORE PUSH32 0x41756374696F6E20616C72656164792066696E616C697A656400000000000000 PUSH1 0x44 DUP3 ADD MSTORE PUSH1 0x64 SWAP1 REVERT JUMPDEST ISZERO PUSH2 0x2BBE JUMPI JUMP JUMPDEST PUSH1 0x40 MLOAD PUSH3 0x461BCD PUSH1 0xE5 SHL DUP2 MSTORE PUSH1 0x20 PUSH1 0x4 DUP3 ADD MSTORE PUSH1 0x15 PUSH1 0x24 DUP3 ADD MSTORE PUSH21 0x4269642062656C6F77207374617274207072696365 PUSH1 0x58 SHL PUSH1 0x44 DUP3 ADD MSTORE PUSH1 0x64 SWAP1 REVERT JUMPDEST ISZERO PUSH2 0x2C02 JUMPI JUMP JUMPDEST PUSH1 0x40 MLOAD PUSH3 0x461BCD PUSH1 0xE5 SHL DUP2 MSTORE PUSH1 0x20 PUSH1 0x4 DUP3 ADD MSTORE PUSH1 0x17 PUSH1 0x24 DUP3 ADD MSTORE PUSH32 0x42696420696E6372656D656E7420746F6F20736D616C6C000000000000000000 PUSH1 0x44 DUP3 ADD MSTORE PUSH1 0x64 SWAP1 REVERT JUMPDEST ISZERO PUSH2 0x2C4E JUMPI JUMP JUMPDEST PUSH1 0x40 MLOAD PUSH3 0x461BCD PUSH1 0xE5 SHL DUP2 MSTORE PUSH1 0x20 PUSH1 0x4 DUP3 ADD MSTORE PUSH1 0x1B PUSH1 0x24 DUP3 ADD MSTORE PUSH32 0x456D657267656E6379207769746864726177616C206661696C65640000000000 PUSH1 0x44 DUP3 ADD MSTORE PUSH1 0x64 SWAP1 REVERT JUMPDEST SWAP1 CALLDATALOAD SWAP1 PUSH1 0x1E NOT DUP2 CALLDATASIZE SUB ADD DUP3 SLT ISZERO PUSH2 0x24B JUMPI ADD DUP1 CALLDATALOAD SWAP1 PUSH1 0x1 PUSH1 0x1 PUSH1 0x40 SHL SUB DUP3 GT PUSH2 0x24B JUMPI PUSH1 0x20 ADD SWAP2 DUP2 CALLDATASIZE SUB DUP4 SGT PUSH2 0x24B JUMPI JUMP JUMPDEST ISZERO PUSH2 0x2CCC JUMPI JUMP JUMPDEST PUSH1 0x40 MLOAD PUSH3 0x461BCD PUSH1 0xE5 SHL DUP2 MSTORE PUSH1 0x20 PUSH1 0x4 DUP3 ADD MSTORE PUSH1 0x1C PUSH1 0x24 DUP3 ADD MSTORE PUSH32 0x42696420636F6C6C656374696F6E206973206E6F742045524337323100000000 PUSH1 0x44 DUP3 ADD MSTORE PUSH1 0x64 SWAP1 REVERT JUMPDEST SWAP2 SWAP1 SWAP2 PUSH2 0x160 DUP2 DUP5 SUB SLT PUSH2 0x24B JUMPI PUSH2 0x2D27 PUSH2 0x2073 JUMP JUMPDEST SWAP3 PUSH2 0x2D31 DUP3 PUSH2 0x3C3 JUMP JUMPDEST DUP5 MSTORE PUSH2 0x2D40 DUP2 PUSH1 0x20 DUP5 ADD PUSH2 0x24BC JUMP JUMPDEST PUSH1 0x20 DUP6 ADD MSTORE PUSH2 0x2D51 PUSH1 0xA0 DUP4 ADD PUSH2 0x3C3 JUMP JUMPDEST PUSH1 0x40 DUP6 ADD MSTORE PUSH1 0xC0 DUP3 ADD CALLDATALOAD PUSH1 0x60 DUP6 ADD MSTORE PUSH1 0xE0 DUP3 ADD CALLDATALOAD PUSH1 0x80 DUP6 ADD MSTORE PUSH2 0x100 DUP3 ADD CALLDATALOAD PUSH1 0xA0 DUP6 ADD MSTORE PUSH2 0x120 DUP3 ADD CALLDATALOAD PUSH1 0xC0 DUP6 ADD MSTORE PUSH2 0x140 DUP3 ADD CALLDATALOAD PUSH1 0x1 PUSH1 0x1 PUSH1 0x40 SHL SUB DUP2 GT PUSH2 0x24B JUMPI PUSH2 0x25AB SWAP3 ADD PUSH2 0x250A JUMP JUMPDEST ISZERO PUSH2 0x2DA5 JUMPI JUMP JUMPDEST PUSH1 0x40 MLOAD PUSH3 0x461BCD PUSH1 0xE5 SHL DUP2 MSTORE PUSH1 0x20 PUSH1 0x4 DUP3 ADD MSTORE PUSH1 0xB PUSH1 0x24 DUP3 ADD MSTORE PUSH11 0x109A5908195E1C1A5C9959 PUSH1 0xAA SHL PUSH1 0x44 DUP3 ADD MSTORE PUSH1 0x64 SWAP1 REVERT JUMPDEST ISZERO PUSH2 0x2DDF JUMPI JUMP JUMPDEST PUSH1 0x40 MLOAD PUSH3 0x461BCD PUSH1 0xE5 SHL DUP2 MSTORE PUSH1 0x20 PUSH1 0x4 DUP3 ADD MSTORE PUSH1 0x1C PUSH1 0x24 DUP3 ADD MSTORE PUSH32 0x4269646465722063616E6E6F7420616363657074206F776E2062696400000000 PUSH1 0x44 DUP3 ADD MSTORE PUSH1 0x64 SWAP1 REVERT JUMPDEST ISZERO PUSH2 0x2E2B JUMPI JUMP JUMPDEST PUSH1 0x40 MLOAD PUSH3 0x461BCD PUSH1 0xE5 SHL DUP2 MSTORE PUSH1 0x20 PUSH1 0x4 DUP3 ADD MSTORE PUSH1 0x19 PUSH1 0x24 DUP3 ADD MSTORE PUSH32 0x426964206D6178207175616E7469747920657863656564656400000000000000 PUSH1 0x44 DUP3 ADD MSTORE PUSH1 0x64 SWAP1 REVERT JUMPDEST PUSH1 0x0 NOT DUP2 EQ PUSH2 0x1FC8 JUMPI PUSH1 0x1 ADD SWAP1 JUMP JUMPDEST PUSH1 0x2 PUSH1 0x0 SLOAD EQ PUSH2 0x2E90 JUMPI PUSH1 0x2 PUSH1 0x0 SSTORE JUMP JUMPDEST PUSH1 0x40 MLOAD PUSH3 0x461BCD PUSH1 0xE5 SHL DUP2 MSTORE PUSH1 0x20 PUSH1 0x4 DUP3 ADD MSTORE PUSH1 0x1F PUSH1 0x24 DUP3 ADD MSTORE PUSH32 0x5265656E7472616E637947756172643A207265656E7472616E742063616C6C00 PUSH1 0x44 DUP3 ADD MSTORE PUSH1 0x64 SWAP1 REVERT JUMPDEST PUSH1 0xFF PUSH1 0x1 SLOAD PUSH1 0xA0 SHR AND PUSH2 0x2EE4 JUMPI JUMP JUMPDEST PUSH1 0x40 MLOAD PUSH3 0x461BCD PUSH1 0xE5 SHL DUP2 MSTORE PUSH1 0x20 PUSH1 0x4 DUP3 ADD MSTORE PUSH1 0x10 PUSH1 0x24 DUP3 ADD MSTORE PUSH16 0x14185D5CD8589B194E881C185D5CD959 PUSH1 0x82 SHL PUSH1 0x44 DUP3 ADD MSTORE PUSH1 0x64 SWAP1 REVERT JUMPDEST ISZERO PUSH2 0x2F23 JUMPI JUMP JUMPDEST PUSH1 0x40 MLOAD PUSH3 0x461BCD PUSH1 0xE5 SHL DUP2 MSTORE PUSH1 0x20 PUSH1 0x4 DUP3 ADD MSTORE PUSH1 0x13 PUSH1 0x24 DUP3 ADD MSTORE PUSH19 0x29B2B73232B91034B9903737BA103A30B5B2B9 PUSH1 0x69 SHL PUSH1 0x44 DUP3 ADD MSTORE PUSH1 0x64 SWAP1 REVERT JUMPDEST ISZERO PUSH2 0x2F65 JUMPI JUMP JUMPDEST PUSH1 0x40 MLOAD PUSH3 0x461BCD PUSH1 0xE5 SHL DUP2 MSTORE PUSH1 0x20 PUSH1 0x4 DUP3 ADD MSTORE PUSH1 0x12 PUSH1 0x24 DUP3 ADD MSTORE PUSH18 0x13585AD95C881BDC99195C88199A5B1B1959 PUSH1 0x72 SHL PUSH1 0x44 DUP3 ADD MSTORE PUSH1 0x64 SWAP1 REVERT JUMPDEST ISZERO PUSH2 0x2FA6 JUMPI JUMP JUMPDEST PUSH1 0x40 MLOAD PUSH3 0x461BCD PUSH1 0xE5 SHL DUP2 MSTORE PUSH1 0x20 PUSH1 0x4 DUP3 ADD MSTORE PUSH1 0x15 PUSH1 0x24 DUP3 ADD MSTORE PUSH21 0x13585AD95C881BDC99195C8818D85B98D95B1B1959 PUSH1 0x5A SHL PUSH1 0x44 DUP3 ADD MSTORE PUSH1 0x64 SWAP1 REVERT JUMPDEST CALLDATALOAD SWAP1 PUSH2 0x3CE DUP3 PUSH2 0x1DD7 JUMP JUMPDEST DUP2 PUSH1 0x1F DUP3 ADD SLT ISZERO PUSH2 0x24B JUMPI DUP1 CALLDATALOAD PUSH2 0x3004 DUP2 PUSH2 0x25F1 JUMP JUMPDEST SWAP3 PUSH2 0x3012 PUSH1 0x40 MLOAD SWAP5 DUP6 PUSH2 0x2034 JUMP JUMPDEST DUP2 DUP5 MSTORE PUSH1 0x20 PUSH2 0x140 DUP2 DUP7 ADD SWAP4 MUL DUP5 ADD ADD SWAP3 DUP2 DUP5 GT PUSH2 0x24B JUMPI PUSH1 0x20 ADD SWAP2 JUMPDEST DUP4 DUP4 LT PUSH2 0x303D JUMPI POP POP POP POP SWAP1 JUMP JUMPDEST PUSH1 0x20 PUSH2 0x140 SWAP2 PUSH2 0x304D DUP5 DUP7 PUSH2 0x2721 JUMP JUMPDEST DUP2 MSTORE ADD SWAP3 ADD SWAP2 PUSH2 0x302F JUMP JUMPDEST SWAP2 SWAP1 SWAP2 PUSH1 0xE0 DUP2 DUP5 SUB SLT PUSH2 0x24B JUMPI PUSH2 0x306D PUSH2 0x2083 JUMP JUMPDEST SWAP3 PUSH2 0x3077 DUP3 PUSH2 0x2FE3 JUMP JUMPDEST DUP5 MSTORE PUSH1 0x20 DUP3 ADD CALLDATALOAD PUSH1 0x1 PUSH1 0x1 PUSH1 0x40 SHL SUB DUP2 GT PUSH2 0x24B JUMPI DUP2 PUSH2 0x3098 SWAP2 DUP5 ADD PUSH2 0x2FEE JUMP JUMPDEST PUSH1 0x20 DUP6 ADD MSTORE PUSH2 0x30A9 PUSH1 0x40 DUP4 ADD PUSH2 0x3C3 JUMP JUMPDEST PUSH1 0x40 DUP6 ADD MSTORE PUSH2 0x30BA PUSH1 0x60 DUP4 ADD PUSH2 0x3C3 JUMP JUMPDEST PUSH1 0x60 DUP6 ADD MSTORE PUSH1 0x80 DUP3 ADD CALLDATALOAD PUSH1 0x80 DUP6 ADD MSTORE PUSH1 0xA0 DUP3 ADD CALLDATALOAD PUSH1 0xA0 DUP6 ADD MSTORE PUSH1 0xC0 DUP3 ADD CALLDATALOAD PUSH1 0x1 PUSH1 0x1 PUSH1 0x40 SHL SUB DUP2 GT PUSH2 0x24B JUMPI PUSH2 0x30F0 SWAP3 ADD PUSH2 0x250A JUMP JUMPDEST PUSH1 0xC0 DUP4 ADD MSTORE JUMP JUMPDEST ISZERO PUSH2 0x30FE JUMPI JUMP JUMPDEST PUSH1 0x40 MLOAD PUSH3 0x461BCD PUSH1 0xE5 SHL DUP2 MSTORE PUSH1 0x20 PUSH1 0x4 DUP3 ADD MSTORE PUSH1 0x13 PUSH1 0x24 DUP3 ADD MSTORE PUSH19 0x13585AD95C881BDC99195C88195E1C1A5C9959 PUSH1 0x6A SHL PUSH1 0x44 DUP3 ADD MSTORE PUSH1 0x64 SWAP1 REVERT JUMPDEST SWAP2 SWAP1 PUSH2 0x3144 DUP4 PUSH2 0x4470 JUMP JUMPDEST PUSH2 0x3155 DUP3 PUSH2 0xC8B PUSH1 0x20 DUP7 ADD DUP7 PUSH2 0x1EC7 JUMP JUMPDEST SWAP2 PUSH2 0x3163 PUSH1 0x20 DUP4 ADD DUP4 PUSH2 0x1EC7 JUMP JUMPDEST ISZERO PUSH2 0x1DD2 JUMPI PUSH1 0x40 DUP6 ADD CALLDATALOAD PUSH2 0x3176 DUP2 PUSH2 0x3B2 JUMP JUMPDEST PUSH1 0x60 DUP5 ADD CALLDATALOAD PUSH2 0x3184 DUP2 PUSH2 0x3B2 JUMP JUMPDEST PUSH1 0x1 PUSH1 0x1 PUSH1 0xA0 SHL SUB SWAP1 DUP2 AND SWAP2 AND SUB PUSH2 0x320B JUMPI PUSH2 0x3CE SWAP5 PUSH2 0x31D0 PUSH2 0x31C9 PUSH2 0x1213 PUSH1 0x40 PUSH2 0xAF2 SWAP8 PUSH2 0x1AA0 DUP11 PUSH1 0x80 DUP10 PUSH2 0x31C2 PUSH2 0x3201 SWAP12 PUSH2 0x3206 SWAP16 DUP5 ADD PUSH2 0x497B JUMP JUMPDEST ADD SWAP1 PUSH2 0x497B JUMP JUMPDEST CALLER EQ PUSH2 0x2F1C JUMP JUMPDEST PUSH2 0x31E5 PUSH2 0x31E0 PUSH2 0xAF2 DUP6 DUP5 PUSH2 0x25B2 JUMP JUMPDEST PUSH2 0x2F5E JUMP JUMPDEST PUSH2 0x31FA PUSH2 0x31F5 PUSH2 0xAF2 DUP6 DUP5 PUSH2 0x21A6 JUMP JUMPDEST PUSH2 0x2F9F JUMP JUMPDEST CALLDATASIZE SWAP1 PUSH2 0x3058 JUMP JUMPDEST PUSH2 0x473F JUMP JUMPDEST PUSH2 0x30F7 JUMP JUMPDEST PUSH1 0x40 MLOAD PUSH3 0x461BCD PUSH1 0xE5 SHL DUP2 MSTORE PUSH1 0x20 PUSH1 0x4 DUP3 ADD MSTORE PUSH1 0x16 PUSH1 0x24 DUP3 ADD MSTORE PUSH22 0x2A30B5B2B91036BAB9BA1036B0BA31B41036B0B5B2B9 PUSH1 0x51 SHL PUSH1 0x44 DUP3 ADD MSTORE PUSH1 0x64 SWAP1 REVERT JUMPDEST PUSH2 0x3262 SWAP4 SWAP3 PUSH2 0x325A PUSH2 0xBF2 SWAP3 PUSH2 0x4757 JUMP JUMPDEST SWAP4 CALLDATASIZE SWAP2 PUSH2 0x2697 JUMP JUMPDEST ISZERO PUSH2 0x3269 JUMPI JUMP JUMPDEST PUSH1 0x40 MLOAD PUSH3 0x461BCD PUSH1 0xE5 SHL DUP2 MSTORE PUSH1 0x20 PUSH1 0x4 DUP3 ADD MSTORE PUSH1 0x14 PUSH1 0x24 DUP3 ADD MSTORE PUSH20 0x24B73B30B634B21026B2B935B63290383937B7B3 PUSH1 0x61 SHL PUSH1 0x44 DUP3 ADD MSTORE PUSH1 0x64 SWAP1 REVERT JUMPDEST SWAP1 PUSH2 0x32AF DUP3 PUSH2 0x25F1 JUMP JUMPDEST PUSH2 0x32BC PUSH1 0x40 MLOAD SWAP2 DUP3 PUSH2 0x2034 JUMP JUMPDEST DUP3 DUP2 MSTORE DUP1 SWAP3 PUSH2 0x32CD PUSH1 0x1F NOT SWAP2 PUSH2 0x25F1 JUMP JUMPDEST ADD SWAP1 PUSH1 0x20 CALLDATASIZE SWAP2 ADD CALLDATACOPY JUMP JUMPDEST DUP1 MLOAD DUP3 LT ISZERO PUSH2 0x1DD2 JUMPI PUSH1 0x20 SWAP2 PUSH1 0x5 SHL ADD ADD SWAP1 JUMP JUMPDEST DUP1 MLOAD PUSH1 0x20 SWAP1 SWAP2 ADD SWAP1 PUSH1 0x0 JUMPDEST DUP2 DUP2 LT PUSH2 0x3303 JUMPI POP POP POP SWAP1 JUMP JUMPDEST DUP3 MLOAD DUP5 MSTORE PUSH1 0x20 SWAP4 DUP5 ADD SWAP4 SWAP1 SWAP3 ADD SWAP2 PUSH1 0x1 ADD PUSH2 0x32F6 JUMP JUMPDEST SWAP3 SWAP7 SWAP6 SWAP5 SWAP2 SWAP7 SWAP4 SWAP1 SWAP4 PUSH1 0xE0 DUP5 ADD SWAP8 PUSH32 0x6C8FFD199DDE1E3C1F0D71DAE647C455E0DA36831CCD370E21BB7D22D370959 DUP6 MSTORE PUSH1 0x3 DUP7 LT ISZERO PUSH2 0x1E01 JUMPI PUSH1 0xC0 SWAP6 PUSH1 0x20 DUP7 ADD MSTORE PUSH1 0x40 DUP6 ADD MSTORE PUSH1 0x1 DUP1 PUSH1 0xA0 SHL SUB AND PUSH1 0x60 DUP5 ADD MSTORE PUSH1 0x1 DUP1 PUSH1 0xA0 SHL SUB AND PUSH1 0x80 DUP4 ADD MSTORE PUSH1 0xA0 DUP3 ADD MSTORE ADD MSTORE JUMP JUMPDEST SWAP1 PUSH1 0x20 DUP3 ADD SWAP2 PUSH2 0x339D PUSH2 0x3396 DUP5 DUP4 PUSH2 0x1EC7 JUMP JUMPDEST SWAP1 POP PUSH2 0x32A5 JUMP JUMPDEST SWAP1 PUSH1 0x0 JUMPDEST PUSH2 0x33AB DUP6 DUP4 PUSH2 0x1EC7 JUMP JUMPDEST SWAP1 POP DUP2 LT ISZERO PUSH2 0x33DE JUMPI DUP1 PUSH2 0x33CD PUSH2 0x33C8 PUSH1 0x1 SWAP4 PUSH2 0xC8B DUP10 DUP8 PUSH2 0x1EC7 JUMP JUMPDEST PUSH2 0x4757 JUMP JUMPDEST PUSH2 0x33D7 DUP3 DUP7 PUSH2 0x32D7 JUMP JUMPDEST MSTORE ADD PUSH2 0x33A1 JUMP JUMPDEST POP SWAP2 SWAP3 POP PUSH1 0x40 MLOAD PUSH2 0x3405 DUP2 PUSH2 0x33F7 PUSH1 0x20 DUP3 ADD DUP1 SWAP6 PUSH2 0x32EB JUMP JUMPDEST SUB PUSH1 0x1F NOT DUP2 ADD DUP4 MSTORE DUP3 PUSH2 0x2034 JUMP JUMPDEST MLOAD SWAP1 KECCAK256 SWAP1 PUSH2 0x344F PUSH2 0x3415 DUP3 PUSH2 0x1E06 JUMP JUMPDEST SWAP3 PUSH2 0x33F7 PUSH2 0x3425 PUSH1 0x40 DUP6 ADD PUSH2 0x1E69 JUMP JUMPDEST SWAP4 PUSH2 0x3432 PUSH1 0x60 DUP3 ADD PUSH2 0x1E69 JUMP JUMPDEST SWAP1 PUSH1 0xA0 PUSH1 0x80 DUP3 ADD CALLDATALOAD SWAP2 ADD CALLDATALOAD SWAP2 PUSH1 0x40 MLOAD SWAP7 DUP8 SWAP6 PUSH1 0x20 DUP8 ADD SWAP10 DUP11 PUSH2 0x3319 JUMP JUMPDEST MLOAD SWAP1 KECCAK256 SWAP1 JUMP JUMPDEST SWAP3 SWAP1 DUP4 PUSH1 0x0 MSTORE PUSH1 0x8 PUSH1 0x20 MSTORE PUSH1 0x40 PUSH1 0x0 KECCAK256 DUP3 PUSH1 0x0 MSTORE PUSH1 0x20 MSTORE PUSH1 0x40 PUSH1 0x0 KECCAK256 SLOAD SWAP3 DUP2 ISZERO ISZERO SWAP1 DUP2 PUSH2 0x34DB JUMPI JUMPDEST POP ISZERO PUSH2 0x34A7 JUMPI PUSH2 0x3493 PUSH2 0xB20 SWAP2 PUSH2 0x34A4 SWAP5 PUSH2 0x20B9 JUMP JUMPDEST SWAP4 PUSH1 0x0 MSTORE PUSH1 0x8 PUSH1 0x20 MSTORE PUSH1 0x40 PUSH1 0x0 KECCAK256 SWAP1 JUMP JUMPDEST SSTORE JUMP JUMPDEST PUSH1 0x40 MLOAD PUSH3 0x461BCD PUSH1 0xE5 SHL DUP2 MSTORE PUSH1 0x20 PUSH1 0x4 DUP3 ADD MSTORE PUSH1 0xC PUSH1 0x24 DUP3 ADD MSTORE PUSH12 0x125B9D985B1A5908199A5B1B PUSH1 0xA2 SHL PUSH1 0x44 DUP3 ADD MSTORE PUSH1 0x64 SWAP1 REVERT JUMPDEST SWAP1 POP DUP2 DUP5 ADD DUP1 DUP6 GT PUSH2 0x1FC8 JUMPI GT ISZERO CODESIZE PUSH2 0x347D JUMP JUMPDEST ISZERO PUSH2 0x34F6 JUMPI JUMP JUMPDEST PUSH1 0x40 MLOAD PUSH3 0x461BCD PUSH1 0xE5 SHL DUP2 MSTORE PUSH1 0x20 PUSH1 0x4 DUP3 ADD MSTORE PUSH1 0x15 PUSH1 0x24 DUP3 ADD MSTORE PUSH21 0x119959481C9958DA5C1A595B9D081B9BDD081CD95D PUSH1 0x5A SHL PUSH1 0x44 DUP3 ADD MSTORE PUSH1 0x64 SWAP1 REVERT JUMPDEST ISZERO PUSH2 0x353A JUMPI JUMP JUMPDEST PUSH1 0x40 MLOAD PUSH3 0x461BCD PUSH1 0xE5 SHL DUP2 MSTORE PUSH1 0x20 PUSH1 0x4 DUP3 ADD MSTORE PUSH1 0x16 PUSH1 0x24 DUP3 ADD MSTORE PUSH22 0x151C985B9CD9995C881859D95B9D081B9BDD081CD95D PUSH1 0x52 SHL PUSH1 0x44 DUP3 ADD MSTORE PUSH1 0x64 SWAP1 REVERT JUMPDEST ISZERO PUSH2 0x357F JUMPI JUMP JUMPDEST PUSH1 0x40 MLOAD PUSH3 0x461BCD PUSH1 0xE5 SHL DUP2 MSTORE PUSH1 0x20 PUSH1 0x4 DUP3 ADD MSTORE PUSH1 0x11 PUSH1 0x24 DUP3 ADD MSTORE PUSH17 0x125B9D985B1A59081C9958DA5C1A595B9D PUSH1 0x7A SHL PUSH1 0x44 DUP3 ADD MSTORE PUSH1 0x64 SWAP1 REVERT JUMPDEST PUSH1 0x1 PUSH1 0x1 PUSH1 0xA0 SHL SUB SWAP2 DUP3 AND DUP2 MSTORE SWAP2 DUP2 AND PUSH1 0x20 DUP4 ADD MSTORE SWAP1 SWAP2 AND PUSH1 0x40 DUP3 ADD MSTORE PUSH1 0x60 DUP2 ADD SWAP2 SWAP1 SWAP2 MSTORE PUSH1 0x80 DUP2 ADD SWAP2 SWAP1 SWAP2 MSTORE PUSH1 0xC0 PUSH1 0xA0 DUP3 ADD DUP2 SWAP1 MSTORE PUSH1 0x0 SWAP1 DUP3 ADD MSTORE PUSH1 0xE0 ADD SWAP1 JUMP JUMPDEST PUSH1 0x1 PUSH1 0x1 PUSH1 0xA0 SHL SUB SWAP2 DUP3 AND DUP2 MSTORE SWAP2 DUP2 AND PUSH1 0x20 DUP4 ADD MSTORE SWAP1 SWAP2 AND PUSH1 0x40 DUP3 ADD MSTORE PUSH1 0x60 DUP2 ADD SWAP2 SWAP1 SWAP2 MSTORE PUSH1 0x80 ADD SWAP1 JUMP JUMPDEST ISZERO PUSH2 0x362C JUMPI JUMP JUMPDEST PUSH1 0x40 MLOAD PUSH3 0x461BCD PUSH1 0xE5 SHL DUP2 MSTORE PUSH1 0x20 PUSH1 0x4 DUP3 ADD MSTORE PUSH1 0x13 PUSH1 0x24 DUP3 ADD MSTORE PUSH19 0x119959481D1C985B9CD9995C8819985A5B1959 PUSH1 0x6A SHL PUSH1 0x44 DUP3 ADD MSTORE PUSH1 0x64 SWAP1 REVERT JUMPDEST ISZERO PUSH2 0x366E JUMPI JUMP JUMPDEST PUSH1 0x40 MLOAD PUSH3 0x461BCD PUSH1 0xE5 SHL DUP2 MSTORE PUSH1 0x20 PUSH1 0x4 DUP3 ADD MSTORE PUSH1 0x16 PUSH1 0x24 DUP3 ADD MSTORE PUSH22 0x13985D1A5D99481D1C985B9CD9995C8819985A5B1959 PUSH1 0x52 SHL PUSH1 0x44 DUP3 ADD MSTORE PUSH1 0x64 SWAP1 REVERT JUMPDEST PUSH1 0x4 SLOAD SWAP2 SWAP3 SWAP1 SWAP2 PUSH2 0x36C7 SWAP1 PUSH1 0x1 PUSH1 0x1 PUSH1 0xA0 SHL SUB AND ISZERO ISZERO PUSH2 0x34EF JUMP JUMPDEST PUSH1 0x5 SLOAD PUSH2 0x36DC SWAP1 PUSH1 0x1 PUSH1 0x1 PUSH1 0xA0 SHL SUB AND PUSH2 0x1213 JUMP JUMPDEST SWAP3 PUSH2 0x36E8 DUP5 ISZERO ISZERO PUSH2 0x3533 JUMP JUMPDEST PUSH1 0x1 PUSH1 0x1 PUSH1 0xA0 SHL SUB DUP2 AND SWAP3 PUSH2 0x36FE DUP5 ISZERO ISZERO PUSH2 0x3578 JUMP JUMPDEST PUSH1 0x60 DUP4 ADD SWAP2 PUSH2 0x3714 PUSH2 0x1512 DUP5 MLOAD PUSH1 0x7 SLOAD SWAP1 PUSH2 0x1FCD JUMP JUMPDEST SWAP4 PUSH2 0x3720 DUP6 DUP6 MLOAD PUSH2 0x2112 JUMP JUMPDEST SWAP7 DUP2 MLOAD PUSH2 0x372C DUP2 PUSH2 0x1FEA JUMP JUMPDEST PUSH2 0x3735 DUP2 PUSH2 0x1FEA JUMP JUMPDEST PUSH2 0x37A1 JUMPI POP POP POP POP PUSH1 0x0 PUSH2 0x3CE SWAP5 DUP2 SWAP5 DUP3 SWAP5 PUSH2 0x3755 DUP5 SWAP6 MLOAD CALLVALUE LT ISZERO PUSH2 0x2849 JUMP JUMPDEST DUP1 PUSH2 0x376C JUMPI JUMPDEST POP GAS CALL PUSH2 0x3766 PUSH2 0x213A JUMP JUMPDEST POP PUSH2 0x3667 JUMP JUMPDEST DUP4 DUP1 DUP1 DUP1 PUSH2 0x379B SWAP5 PUSH2 0x378B PUSH2 0x1213 PUSH2 0x1213 PUSH1 0x4 SLOAD PUSH1 0x1 DUP1 PUSH1 0xA0 SHL SUB AND SWAP1 JUMP JUMPDEST GAS CALL PUSH2 0x3795 PUSH2 0x213A JUMP JUMPDEST POP PUSH2 0x3625 JUMP JUMPDEST CODESIZE PUSH2 0x375B JUMP JUMPDEST SWAP1 SWAP4 SWAP2 SWAP5 SWAP3 SWAP6 POP PUSH1 0x1 DUP5 MLOAD PUSH2 0x37B5 DUP2 PUSH2 0x1FEA JUMP JUMPDEST PUSH2 0x37BE DUP2 PUSH2 0x1FEA JUMP JUMPDEST SUB PUSH2 0x38CA JUMPI POP POP DUP1 PUSH2 0x3845 JUMPI JUMPDEST POP PUSH1 0x5 SLOAD PUSH2 0x37F9 SWAP1 PUSH1 0x20 SWAP1 PUSH2 0x37EA SWAP1 PUSH2 0x1213 SWAP1 PUSH1 0x1 PUSH1 0x1 PUSH1 0xA0 SHL SUB AND DUP2 JUMP JUMPDEST SWAP3 ADD MLOAD PUSH1 0x1 PUSH1 0x1 PUSH1 0xA0 SHL SUB AND SWAP1 JUMP JUMPDEST SWAP3 DUP2 EXTCODESIZE ISZERO PUSH2 0x24B JUMPI PUSH1 0x0 DUP1 SWAP5 PUSH2 0x3825 PUSH1 0x40 MLOAD SWAP8 DUP9 SWAP7 DUP8 SWAP6 DUP7 SWAP5 PUSH4 0x368FA339 PUSH1 0xE2 SHL DUP7 MSTORE PUSH1 0x4 DUP7 ADD PUSH2 0x35FA JUMP JUMPDEST SUB SWAP3 GAS CALL DUP1 ISZERO PUSH2 0x1489 JUMPI PUSH2 0x3836 JUMPI POP JUMP JUMPDEST DUP1 PUSH2 0x147D PUSH1 0x0 PUSH2 0x3CE SWAP4 PUSH2 0x2034 JUMP JUMPDEST PUSH1 0x5 SLOAD PUSH2 0x385C SWAP1 PUSH2 0x1213 SWAP1 PUSH1 0x1 PUSH1 0x1 PUSH1 0xA0 SHL SUB AND DUP2 JUMP JUMPDEST PUSH1 0x20 DUP4 ADD MLOAD PUSH1 0x1 PUSH1 0x1 PUSH1 0xA0 SHL SUB AND PUSH1 0x4 SLOAD SWAP1 SWAP2 SWAP1 PUSH1 0x1 PUSH1 0x1 PUSH1 0xA0 SHL SUB AND SWAP1 DUP1 EXTCODESIZE ISZERO PUSH2 0x24B JUMPI DUP7 PUSH1 0x0 DUP1 SWAP5 PUSH2 0x38A6 PUSH1 0x40 MLOAD SWAP8 DUP9 SWAP7 DUP8 SWAP6 DUP7 SWAP5 PUSH4 0x368FA339 PUSH1 0xE2 SHL DUP7 MSTORE PUSH1 0x4 DUP7 ADD PUSH2 0x35FA JUMP JUMPDEST SUB SWAP3 GAS CALL DUP1 ISZERO PUSH2 0x1489 JUMPI ISZERO PUSH2 0x37CB JUMPI DUP1 PUSH2 0x147D PUSH1 0x0 PUSH2 0x38C4 SWAP4 PUSH2 0x2034 JUMP JUMPDEST CODESIZE PUSH2 0x37CB JUMP JUMPDEST SWAP2 POP SWAP2 SWAP4 SWAP5 POP PUSH1 0x3 DUP5 MLOAD PUSH2 0x38DD DUP2 PUSH2 0x1FEA JUMP JUMPDEST PUSH2 0x38E6 DUP2 PUSH2 0x1FEA JUMP JUMPDEST SUB PUSH2 0x3944 JUMPI POP POP PUSH1 0x5 SLOAD PUSH2 0x3904 SWAP1 PUSH2 0x1213 SWAP1 PUSH1 0x1 PUSH1 0x1 PUSH1 0xA0 SHL SUB AND DUP2 JUMP JUMPDEST PUSH1 0x20 DUP4 ADD MLOAD PUSH1 0x40 SWAP1 PUSH1 0x1 PUSH1 0x1 PUSH1 0xA0 SHL SUB AND SWAP4 ADD MLOAD SWAP4 DUP2 EXTCODESIZE ISZERO PUSH2 0x24B JUMPI PUSH1 0x0 DUP1 SWAP5 PUSH2 0x3825 PUSH1 0x40 MLOAD SWAP8 DUP9 SWAP7 DUP8 SWAP6 DUP7 SWAP5 PUSH4 0x3C4FC9FB PUSH1 0xE1 SHL DUP7 MSTORE PUSH1 0x4 DUP7 ADD PUSH2 0x35FA JUMP JUMPDEST PUSH1 0x2 DUP5 SWAP6 SWAP3 SWAP6 MLOAD PUSH2 0x3954 DUP2 PUSH2 0x1FEA JUMP JUMPDEST PUSH2 0x395D DUP2 PUSH2 0x1FEA JUMP JUMPDEST SUB PUSH2 0x39B0 JUMPI PUSH1 0x1 PUSH1 0x1 PUSH1 0xA0 SHL SUB AND PUSH1 0x20 DUP5 ADD MLOAD SWAP1 SWAP2 SWAP1 PUSH1 0x40 SWAP1 PUSH1 0x1 PUSH1 0x1 PUSH1 0xA0 SHL SUB AND SWAP5 ADD MLOAD SWAP5 MLOAD DUP3 EXTCODESIZE ISZERO PUSH2 0x24B JUMPI PUSH1 0x0 SWAP5 PUSH2 0x3825 DUP7 SWAP3 PUSH1 0x40 MLOAD SWAP9 DUP10 SWAP8 DUP9 SWAP7 DUP8 SWAP6 PUSH4 0x3AB9E1F7 PUSH1 0xE2 SHL DUP8 MSTORE PUSH1 0x4 DUP8 ADD PUSH2 0x35B8 JUMP JUMPDEST PUSH1 0x40 MLOAD PUSH3 0x461BCD PUSH1 0xE5 SHL DUP2 MSTORE PUSH1 0x20 PUSH1 0x4 DUP3 ADD MSTORE PUSH1 0x16 PUSH1 0x24 DUP3 ADD MSTORE PUSH22 0x556E737570706F727465642061737365742074797065 PUSH1 0x50 SHL PUSH1 0x44 DUP3 ADD MSTORE PUSH1 0x64 SWAP1 REVERT JUMPDEST PUSH1 0x1 SLOAD PUSH1 0x1 PUSH1 0x1 PUSH1 0xA0 SHL SUB AND CALLER SUB PUSH2 0x3A02 JUMPI JUMP JUMPDEST PUSH1 0x64 PUSH1 0x40 MLOAD PUSH3 0x461BCD PUSH1 0xE5 SHL DUP2 MSTORE PUSH1 0x20 PUSH1 0x4 DUP3 ADD MSTORE PUSH1 0x20 PUSH1 0x24 DUP3 ADD MSTORE PUSH32 0x4F776E61626C653A2063616C6C6572206973206E6F7420746865206F776E6572 PUSH1 0x44 DUP3 ADD MSTORE REVERT JUMPDEST PUSH1 0x20 PUSH2 0x3A66 SWAP2 PUSH1 0x40 MLOAD DUP1 SWAP4 DUP2 SWAP3 PUSH4 0x1344D6D9 PUSH1 0xE1 SHL DUP4 MSTORE PUSH1 0x4 DUP4 ADD PUSH2 0x2941 JUMP JUMPDEST SUB DUP2 PUSH20 0x0 GAS DELEGATECALL DUP1 ISZERO PUSH2 0x1489 JUMPI PUSH2 0x1E10 SWAP2 PUSH1 0x0 SWAP2 PUSH2 0x3A9A JUMPI JUMPDEST POP PUSH2 0xA6C PUSH2 0x4AA2 JUMP JUMPDEST PUSH2 0x3AB3 SWAP2 POP PUSH1 0x20 RETURNDATASIZE PUSH1 0x20 GT PUSH2 0x1556 JUMPI PUSH2 0x1548 DUP2 DUP4 PUSH2 0x2034 JUMP JUMPDEST CODESIZE PUSH2 0x3A91 JUMP JUMPDEST PUSH2 0x3ACE PUSH2 0x3AD6 SWAP3 PUSH2 0x3AC9 DUP4 PUSH2 0x3A46 JUMP JUMPDEST PUSH2 0x4BB8 JUMP JUMPDEST SWAP3 SWAP1 SWAP3 PUSH2 0x4BFA JUMP JUMPDEST CALLDATALOAD PUSH2 0x3AE0 DUP2 PUSH2 0x3B2 JUMP JUMPDEST PUSH1 0x1 PUSH1 0x1 PUSH1 0xA0 SHL SUB SWAP2 DUP3 AND SWAP2 AND EQ SWAP1 JUMP JUMPDEST ISZERO PUSH2 0x3AF8 JUMPI JUMP JUMPDEST PUSH1 0x40 MLOAD PUSH3 0x461BCD PUSH1 0xE5 SHL DUP2 MSTORE PUSH1 0x20 PUSH1 0x4 DUP3 ADD MSTORE PUSH1 0xD PUSH1 0x24 DUP3 ADD MSTORE PUSH13 0x24B73B30B634B21037BBB732B9 PUSH1 0x99 SHL PUSH1 0x44 DUP3 ADD MSTORE PUSH1 0x64 SWAP1 REVERT JUMPDEST ISZERO PUSH2 0x3B34 JUMPI JUMP JUMPDEST PUSH1 0x40 MLOAD PUSH3 0x461BCD PUSH1 0xE5 SHL DUP2 MSTORE PUSH1 0x20 PUSH1 0x4 DUP3 ADD MSTORE PUSH1 0x1B PUSH1 0x24 DUP3 ADD MSTORE PUSH32 0x496E73756666696369656E74206E61746976652062616C616E63650000000000 PUSH1 0x44 DUP3 ADD MSTORE PUSH1 0x64 SWAP1 REVERT JUMPDEST ISZERO PUSH2 0x3B80 JUMPI JUMP JUMPDEST PUSH1 0x40 MLOAD PUSH3 0x461BCD PUSH1 0xE5 SHL DUP2 MSTORE PUSH1 0x20 PUSH1 0x4 DUP3 ADD MSTORE PUSH1 0x1A PUSH1 0x24 DUP3 ADD MSTORE PUSH32 0x496E73756666696369656E742045524332302062616C616E6365000000000000 PUSH1 0x44 DUP3 ADD MSTORE PUSH1 0x64 SWAP1 REVERT JUMPDEST ISZERO PUSH2 0x3BCC JUMPI JUMP JUMPDEST PUSH1 0x40 MLOAD PUSH3 0x461BCD PUSH1 0xE5 SHL DUP2 MSTORE PUSH1 0x20 PUSH1 0x4 DUP3 ADD MSTORE PUSH1 0x1C PUSH1 0x24 DUP3 ADD MSTORE PUSH32 0x496E73756666696369656E7420455243313135352062616C616E636500000000 PUSH1 0x44 DUP3 ADD MSTORE PUSH1 0x64 SWAP1 REVERT JUMPDEST SWAP1 DUP2 PUSH1 0x20 SWAP2 SUB SLT PUSH2 0x24B JUMPI MLOAD PUSH2 0x1E10 DUP2 PUSH2 0x3B2 JUMP JUMPDEST ISZERO PUSH2 0x3C2D JUMPI JUMP JUMPDEST PUSH1 0x40 MLOAD PUSH3 0x461BCD PUSH1 0xE5 SHL DUP2 MSTORE PUSH1 0x20 PUSH1 0x4 DUP3 ADD MSTORE PUSH1 0x10 PUSH1 0x24 DUP3 ADD MSTORE PUSH16 0x2737BA1022A9219B99189037BBB732B9 PUSH1 0x81 SHL PUSH1 0x44 DUP3 ADD MSTORE PUSH1 0x64 SWAP1 REVERT JUMPDEST PUSH1 0x1 PUSH1 0x1 PUSH1 0xA0 SHL SUB DUP2 AND SWAP2 SWAP1 PUSH2 0x3C7C DUP4 ISZERO ISZERO PUSH2 0x3AF1 JUMP JUMPDEST PUSH1 0x3 DUP3 MLOAD PUSH2 0x3C89 DUP2 PUSH2 0x1FEA JUMP JUMPDEST PUSH2 0x3C92 DUP2 PUSH2 0x1FEA JUMP JUMPDEST SUB PUSH2 0x3D34 JUMPI POP PUSH1 0x20 DUP1 DUP3 ADD MLOAD PUSH2 0x3CDF SWAP4 SWAP3 SWAP1 PUSH1 0x40 SWAP1 PUSH2 0x3CBB SWAP1 PUSH2 0x1213 SWAP1 PUSH1 0x1 PUSH1 0x1 PUSH1 0xA0 SHL SUB AND DUP2 JUMP JUMPDEST SWAP2 ADD MLOAD SWAP1 PUSH1 0x40 MLOAD DUP1 DUP1 SWAP7 DUP2 SWAP5 PUSH4 0x31A9108F PUSH1 0xE1 SHL DUP4 MSTORE PUSH1 0x4 DUP4 ADD SWAP2 SWAP1 PUSH1 0x20 DUP4 ADD SWAP3 MSTORE JUMP JUMPDEST SUB SWAP2 GAS STATICCALL DUP1 ISZERO PUSH2 0x1489 JUMPI PUSH2 0x3CE SWAP3 PUSH1 0x0 SWAP2 PUSH2 0x3D05 JUMPI JUMPDEST POP PUSH1 0x1 PUSH1 0x1 PUSH1 0xA0 SHL SUB AND EQ PUSH2 0x3C26 JUMP JUMPDEST PUSH2 0x3D27 SWAP2 POP PUSH1 0x20 RETURNDATASIZE PUSH1 0x20 GT PUSH2 0x3D2D JUMPI JUMPDEST PUSH2 0x3D1F DUP2 DUP4 PUSH2 0x2034 JUMP JUMPDEST DUP2 ADD SWAP1 PUSH2 0x3C11 JUMP JUMPDEST CODESIZE PUSH2 0x3CF5 JUMP JUMPDEST POP RETURNDATASIZE PUSH2 0x3D15 JUMP JUMPDEST SWAP2 POP PUSH1 0x2 DUP2 MLOAD PUSH2 0x3D43 DUP2 PUSH2 0x1FEA JUMP JUMPDEST PUSH2 0x3D4C DUP2 PUSH2 0x1FEA JUMP JUMPDEST SUB PUSH2 0x3DED JUMPI PUSH1 0x20 DUP2 DUP2 ADD MLOAD PUSH2 0x3DA6 SWAP4 SWAP1 PUSH2 0x3D70 SWAP1 PUSH2 0x1213 SWAP1 PUSH1 0x1 PUSH1 0x1 PUSH1 0xA0 SHL SUB AND DUP2 JUMP JUMPDEST PUSH1 0x40 DUP5 DUP2 ADD MLOAD SWAP1 MLOAD PUSH3 0x7EEAC7 PUSH1 0xE1 SHL DUP2 MSTORE PUSH1 0x1 PUSH1 0x1 PUSH1 0xA0 SHL SUB SWAP1 SWAP4 AND PUSH1 0x4 DUP5 ADD MSTORE PUSH1 0x24 DUP4 ADD MSTORE SWAP1 SWAP4 DUP5 SWAP2 SWAP1 DUP3 SWAP1 DUP2 SWAP1 PUSH1 0x44 DUP3 ADD SWAP1 JUMP JUMPDEST SUB SWAP2 GAS STATICCALL SWAP1 DUP2 ISZERO PUSH2 0x1489 JUMPI PUSH2 0x3CE SWAP3 PUSH1 0x0 SWAP3 PUSH2 0x3DC9 JUMPI JUMPDEST POP PUSH1 0x60 ADD MLOAD GT ISZERO PUSH2 0x3BC5 JUMP JUMPDEST PUSH1 0x60 SWAP2 SWAP3 POP PUSH2 0x3DE6 SWAP1 PUSH1 0x20 RETURNDATASIZE PUSH1 0x20 GT PUSH2 0x1556 JUMPI PUSH2 0x1548 DUP2 DUP4 PUSH2 0x2034 JUMP JUMPDEST SWAP2 SWAP1 PUSH2 0x3DBD JUMP JUMPDEST PUSH1 0x1 DUP2 MLOAD PUSH2 0x3DFA DUP2 PUSH2 0x1FEA JUMP JUMPDEST PUSH2 0x3E03 DUP2 PUSH2 0x1FEA JUMP JUMPDEST SUB PUSH2 0x3E9B JUMPI PUSH1 0x20 DUP2 DUP2 ADD MLOAD PUSH2 0x3E54 SWAP4 SWAP1 PUSH2 0x3E27 SWAP1 PUSH2 0x1213 SWAP1 PUSH1 0x1 PUSH1 0x1 PUSH1 0xA0 SHL SUB AND DUP2 JUMP JUMPDEST PUSH1 0x40 MLOAD PUSH4 0x70A08231 PUSH1 0xE0 SHL DUP2 MSTORE PUSH1 0x1 PUSH1 0x1 PUSH1 0xA0 SHL SUB SWAP1 SWAP3 AND PUSH1 0x4 DUP4 ADD MSTORE SWAP1 SWAP4 DUP5 SWAP2 SWAP1 DUP3 SWAP1 DUP2 SWAP1 PUSH1 0x24 DUP3 ADD SWAP1 JUMP JUMPDEST SUB SWAP2 GAS STATICCALL SWAP1 DUP2 ISZERO PUSH2 0x1489 JUMPI PUSH2 0x3CE SWAP3 PUSH1 0x0 SWAP3 PUSH2 0x3E77 JUMPI JUMPDEST POP PUSH1 0x60 ADD MLOAD GT ISZERO PUSH2 0x3B79 JUMP JUMPDEST PUSH1 0x60 SWAP2 SWAP3 POP PUSH2 0x3E94 SWAP1 PUSH1 0x20 RETURNDATASIZE PUSH1 0x20 GT PUSH2 0x1556 JUMPI PUSH2 0x1548 DUP2 DUP4 PUSH2 0x2034 JUMP JUMPDEST SWAP2 SWAP1 PUSH2 0x3E6B JUMP JUMPDEST DUP1 MLOAD PUSH2 0x3EA6 DUP2 PUSH2 0x1FEA JUMP JUMPDEST PUSH2 0x3EAF DUP2 PUSH2 0x1FEA JUMP JUMPDEST PUSH2 0x39B0 JUMPI PUSH1 0x60 PUSH2 0x3CE SWAP3 BALANCE SWAP2 ADD MLOAD GT ISZERO PUSH2 0x3B2D JUMP JUMPDEST ISZERO PUSH2 0x3ECB JUMPI JUMP JUMPDEST PUSH1 0x40 MLOAD PUSH3 0x461BCD PUSH1 0xE5 SHL DUP2 MSTORE PUSH1 0x20 PUSH1 0x4 DUP3 ADD MSTORE PUSH1 0x17 PUSH1 0x24 DUP3 ADD MSTORE PUSH32 0x5061796D656E74207472616E73666572206661696C6564000000000000000000 PUSH1 0x44 DUP3 ADD MSTORE PUSH1 0x64 SWAP1 REVERT JUMPDEST SWAP1 PUSH2 0x3F28 PUSH2 0xB2F DUP3 PUSH1 0x0 MSTORE PUSH1 0xB PUSH1 0x20 MSTORE PUSH1 0x40 PUSH1 0x0 KECCAK256 SWAP1 JUMP JUMPDEST PUSH2 0x3F3F PUSH2 0x226D DUP3 PUSH1 0x0 MSTORE PUSH1 0xA PUSH1 0x20 MSTORE PUSH1 0x40 PUSH1 0x0 KECCAK256 SWAP1 JUMP JUMPDEST SWAP2 PUSH1 0x20 DUP4 ADD SWAP3 PUSH2 0x3F51 DUP5 MLOAD ISZERO ISZERO PUSH2 0x243A JUMP JUMPDEST DUP1 MLOAD PUSH2 0x3F67 SWAP1 PUSH1 0x1 PUSH1 0x1 PUSH1 0xA0 SHL SUB AND ISZERO ISZERO PUSH2 0x2477 JUMP JUMPDEST PUSH1 0x20 DUP3 ADD SWAP1 PUSH1 0x3 PUSH2 0x3F78 DUP4 MLOAD PUSH2 0x209E JUMP JUMPDEST PUSH2 0x3F81 DUP2 PUSH2 0x1FEA JUMP JUMPDEST SUB PUSH2 0x40D7 JUMPI PUSH1 0x5 SLOAD PUSH2 0x3F9D SWAP1 PUSH2 0x1213 SWAP1 PUSH1 0x1 PUSH1 0x1 PUSH1 0xA0 SHL SUB AND DUP2 JUMP JUMPDEST SWAP2 MLOAD PUSH1 0x20 DUP2 ADD MLOAD DUP5 MLOAD DUP4 MLOAD PUSH1 0x40 SWAP1 SWAP4 ADD MLOAD SWAP5 PUSH1 0x1 PUSH1 0x1 PUSH1 0xA0 SHL SUB SWAP3 DUP4 AND SWAP4 DUP4 AND SWAP3 SWAP1 SWAP2 AND DUP2 EXTCODESIZE ISZERO PUSH2 0x24B JUMPI PUSH1 0x0 DUP1 SWAP5 PUSH2 0x3FEC PUSH1 0x40 MLOAD SWAP9 DUP10 SWAP7 DUP8 SWAP6 DUP7 SWAP5 PUSH4 0x3C4FC9FB PUSH1 0xE1 SHL DUP7 MSTORE PUSH1 0x4 DUP7 ADD PUSH2 0x35FA JUMP JUMPDEST SUB SWAP3 GAS CALL SWAP1 DUP2 ISZERO PUSH2 0x1489 JUMPI PUSH2 0x2281 PUSH1 0x0 DUP1 DUP1 DUP1 DUP11 PUSH2 0x406B PUSH2 0x1213 PUSH2 0x1213 PUSH32 0xD5E3E604DEF17BD0C5B7B35A53A73DD0F20A6855F5672E207C4DADE80E8B7B95 SWAP13 PUSH2 0x4099 SWAP13 PUSH2 0x407B SWAP13 PUSH2 0x40C3 JUMPI JUMPDEST POP JUMPDEST PUSH2 0x4056 PUSH2 0x404E PUSH2 0x1512 DUP8 MLOAD PUSH1 0x7 SLOAD SWAP1 PUSH2 0x1FCD JUMP JUMPDEST DUP1 SWAP7 MLOAD PUSH2 0x2112 JUMP JUMPDEST SWAP5 DUP1 PUSH2 0x409E JUMPI JUMPDEST POP MLOAD PUSH1 0x1 PUSH1 0x1 PUSH1 0xA0 SHL SUB AND SWAP1 JUMP JUMPDEST GAS CALL PUSH2 0x4075 PUSH2 0x213A JUMP JUMPDEST POP PUSH2 0x3EC4 JUMP JUMPDEST SWAP4 MLOAD PUSH1 0x40 MLOAD SWAP1 DUP2 MSTORE PUSH1 0x1 PUSH1 0x1 PUSH1 0xA0 SHL SUB SWAP1 SWAP5 AND SWAP4 SWAP1 DUP2 SWAP1 PUSH1 0x20 DUP3 ADD SWAP1 JUMP JUMPDEST SUB SWAP1 LOG3 JUMP JUMPDEST DUP7 DUP1 DUP1 DUP1 PUSH2 0x40BD SWAP5 PUSH2 0x378B PUSH2 0x1213 PUSH2 0x1213 PUSH1 0x4 SLOAD PUSH1 0x1 DUP1 PUSH1 0xA0 SHL SUB AND SWAP1 JUMP JUMPDEST CODESIZE PUSH2 0x405D JUMP JUMPDEST DUP1 PUSH2 0x147D DUP9 PUSH2 0x40D1 SWAP4 PUSH2 0x2034 JUMP JUMPDEST CODESIZE PUSH2 0x4038 JUMP JUMPDEST PUSH1 0x2 PUSH2 0x40E3 DUP4 MLOAD PUSH2 0x209E JUMP JUMPDEST PUSH2 0x40EC DUP2 PUSH2 0x1FEA JUMP JUMPDEST SUB PUSH2 0x39B0 JUMPI PUSH1 0x5 SLOAD PUSH2 0x4108 SWAP1 PUSH2 0x1213 SWAP1 PUSH1 0x1 PUSH1 0x1 PUSH1 0xA0 SHL SUB AND DUP2 JUMP JUMPDEST SWAP2 MLOAD PUSH1 0x20 DUP2 ADD MLOAD SWAP1 SWAP3 SWAP1 PUSH1 0x1 PUSH1 0x1 PUSH1 0xA0 SHL SUB AND DUP5 MLOAD SWAP1 SWAP2 SWAP1 PUSH1 0x1 PUSH1 0x1 PUSH1 0xA0 SHL SUB AND DUP4 MLOAD SWAP1 SWAP2 SWAP1 PUSH1 0x1 PUSH1 0x1 PUSH1 0xA0 SHL SUB AND SWAP2 PUSH1 0x60 PUSH1 0x40 DUP8 ADD MLOAD SWAP7 ADD MLOAD DUP3 EXTCODESIZE ISZERO PUSH2 0x24B JUMPI PUSH1 0x0 SWAP5 PUSH2 0x416E DUP7 SWAP3 PUSH1 0x40 MLOAD SWAP10 DUP11 SWAP8 DUP9 SWAP7 DUP8 SWAP6 PUSH4 0x3AB9E1F7 PUSH1 0xE2 SHL DUP8 MSTORE PUSH1 0x4 DUP8 ADD PUSH2 0x35B8 JUMP JUMPDEST SUB SWAP3 GAS CALL SWAP1 DUP2 ISZERO PUSH2 0x1489 JUMPI PUSH2 0x2281 PUSH1 0x0 DUP1 DUP1 DUP1 DUP11 PUSH2 0x406B PUSH2 0x1213 PUSH2 0x1213 PUSH32 0xD5E3E604DEF17BD0C5B7B35A53A73DD0F20A6855F5672E207C4DADE80E8B7B95 SWAP13 PUSH2 0x4099 SWAP13 PUSH2 0x407B SWAP13 PUSH2 0x41C0 JUMPI JUMPDEST POP PUSH2 0x403A JUMP JUMPDEST DUP1 PUSH2 0x147D DUP9 PUSH2 0x41CE SWAP4 PUSH2 0x2034 JUMP JUMPDEST CODESIZE PUSH2 0x41BA JUMP JUMPDEST PUSH1 0xFF DUP2 EQ PUSH2 0x41E5 JUMPI PUSH2 0x1E10 SWAP1 PUSH2 0x47F8 JUMP JUMPDEST POP PUSH1 0x40 MLOAD PUSH1 0x0 PUSH1 0x2 SLOAD SWAP1 DUP2 PUSH1 0x1 SHR SWAP2 PUSH1 0x1 DUP2 AND SWAP1 DUP2 ISZERO PUSH2 0x42B4 JUMPI JUMPDEST PUSH1 0x20 DUP5 LT DUP3 EQ PUSH2 0x42A0 JUMPI DUP4 DUP6 MSTORE DUP5 SWAP3 SWAP2 PUSH1 0x20 DUP5 ADD SWAP2 DUP2 ISZERO PUSH2 0x4287 JUMPI POP PUSH1 0x1 EQ PUSH2 0x4231 JUMPI JUMPDEST POP PUSH2 0x1E10 SWAP3 POP SUB DUP3 PUSH2 0x2034 JUMP JUMPDEST PUSH1 0x2 PUSH1 0x0 SWAP1 DUP2 MSTORE SWAP2 POP PUSH32 0x405787FA12A823E0F2B7631CC41B3BA8828B3321CA811111FA75CD3AA3BB5ACE JUMPDEST DUP5 DUP4 LT PUSH2 0x4270 JUMPI POP PUSH2 0x1E10 SWAP4 POP ADD CODESIZE PUSH2 0x4224 JUMP JUMPDEST DUP1 SLOAD DUP3 DUP5 ADD MSTORE DUP6 SWAP4 POP PUSH1 0x20 SWAP1 SWAP3 ADD SWAP2 PUSH1 0x1 ADD PUSH2 0x425C JUMP JUMPDEST PUSH1 0xFF NOT AND DUP3 MSTORE POP PUSH2 0x1E10 SWAP4 ISZERO ISZERO PUSH1 0x5 SHL ADD SWAP1 POP CODESIZE PUSH2 0x4224 JUMP JUMPDEST PUSH4 0x4E487B71 PUSH1 0xE0 SHL DUP4 MSTORE PUSH1 0x22 PUSH1 0x4 MSTORE PUSH1 0x24 DUP4 REVERT JUMPDEST SWAP3 PUSH1 0x7F AND SWAP3 PUSH2 0x4200 JUMP JUMPDEST PUSH1 0xFF DUP2 EQ PUSH2 0x42CF JUMPI PUSH2 0x1E10 SWAP1 PUSH2 0x47F8 JUMP JUMPDEST POP PUSH1 0x40 MLOAD PUSH1 0x0 PUSH1 0x3 SLOAD SWAP1 DUP2 PUSH1 0x1 SHR SWAP2 PUSH1 0x1 DUP2 AND SWAP1 DUP2 ISZERO PUSH2 0x4370 JUMPI JUMPDEST PUSH1 0x20 DUP5 LT DUP3 EQ PUSH2 0x42A0 JUMPI DUP4 DUP6 MSTORE DUP5 SWAP3 SWAP2 PUSH1 0x20 DUP5 ADD SWAP2 DUP2 ISZERO PUSH2 0x4287 JUMPI POP PUSH1 0x1 EQ PUSH2 0x431A JUMPI POP PUSH2 0x1E10 SWAP3 POP SUB DUP3 PUSH2 0x2034 JUMP JUMPDEST PUSH1 0x3 PUSH1 0x0 SWAP1 DUP2 MSTORE SWAP2 POP PUSH32 0xC2575A0E9E593C00F959F8C92F12DB2869C3395A3B0502D05E2516446F71F85B JUMPDEST DUP5 DUP4 LT PUSH2 0x4359 JUMPI POP PUSH2 0x1E10 SWAP4 POP ADD CODESIZE PUSH2 0x4224 JUMP JUMPDEST DUP1 SLOAD DUP3 DUP5 ADD MSTORE DUP6 SWAP4 POP PUSH1 0x20 SWAP1 SWAP3 ADD SWAP2 PUSH1 0x1 ADD PUSH2 0x4345 JUMP JUMPDEST SWAP3 PUSH1 0x7F AND SWAP3 PUSH2 0x42EA JUMP JUMPDEST ISZERO PUSH2 0x4381 JUMPI JUMP JUMPDEST PUSH1 0x40 MLOAD PUSH3 0x461BCD PUSH1 0xE5 SHL DUP2 MSTORE PUSH1 0x20 PUSH1 0x4 DUP3 ADD MSTORE PUSH1 0x2A PUSH1 0x24 DUP3 ADD MSTORE PUSH32 0x496E76616C6964207369676E61747572652E204D616B6572206973206E6F7420 PUSH1 0x44 DUP3 ADD MSTORE PUSH10 0x3A34329039B4B3B732B9 PUSH1 0xB1 SHL PUSH1 0x64 DUP3 ADD MSTORE PUSH1 0x84 SWAP1 REVERT JUMPDEST SWAP1 DUP2 PUSH1 0x20 SWAP2 SUB SLT PUSH2 0x24B JUMPI MLOAD PUSH1 0x1 PUSH1 0x1 PUSH1 0xE0 SHL SUB NOT DUP2 AND DUP2 SUB PUSH2 0x24B JUMPI SWAP1 JUMP JUMPDEST PUSH1 0x40 SWAP1 PUSH2 0x1E10 SWAP5 SWAP3 DUP2 MSTORE DUP2 PUSH1 0x20 DUP3 ADD MSTORE ADD SWAP2 PUSH2 0x2920 JUMP JUMPDEST ISZERO PUSH2 0x4417 JUMPI JUMP JUMPDEST PUSH1 0x40 MLOAD PUSH3 0x461BCD PUSH1 0xE5 SHL DUP2 MSTORE PUSH1 0x20 PUSH1 0x4 DUP3 ADD MSTORE PUSH1 0x2B PUSH1 0x24 DUP3 ADD MSTORE PUSH32 0x636F6E7472616374206F72646572207369676E61747572652076657269666963 PUSH1 0x44 DUP3 ADD MSTORE PUSH11 0x30BA34B7B71032B93937B9 PUSH1 0xA9 SHL PUSH1 0x64 DUP3 ADD MSTORE PUSH1 0x84 SWAP1 REVERT JUMPDEST PUSH2 0x447C PUSH1 0x40 DUP3 ADD PUSH2 0x1E69 JUMP JUMPDEST PUSH2 0x4496 PUSH2 0x448B PUSH2 0x17C2 DUP5 PUSH2 0x3383 JUMP JUMPDEST SWAP3 PUSH1 0xC0 DUP2 ADD SWAP1 PUSH2 0x2C93 JUMP JUMPDEST SWAP3 DUP3 EXTCODESIZE ISZERO PUSH2 0x452B JUMPI PUSH1 0x40 MLOAD PUSH4 0xB135D3F PUSH1 0xE1 SHL DUP2 MSTORE SWAP4 PUSH1 0x20 SWAP4 DUP6 SWAP4 SWAP1 SWAP3 DUP5 SWAP3 DUP4 SWAP3 PUSH2 0x44C4 SWAP3 PUSH1 0x4 DUP6 ADD PUSH2 0x43F9 JUMP JUMPDEST SUB SWAP2 PUSH1 0x1 PUSH1 0x1 PUSH1 0xA0 SHL SUB AND GAS STATICCALL DUP1 ISZERO PUSH2 0x1489 JUMPI PUSH2 0x3CE SWAP2 PUSH1 0x0 SWAP2 PUSH2 0x44FC JUMPI JUMPDEST POP PUSH1 0x1 PUSH1 0x1 PUSH1 0xE0 SHL SUB NOT AND PUSH4 0xB135D3F PUSH1 0xE1 SHL EQ PUSH2 0x4410 JUMP JUMPDEST PUSH2 0x451E SWAP2 POP PUSH1 0x20 RETURNDATASIZE PUSH1 0x20 GT PUSH2 0x4524 JUMPI JUMPDEST PUSH2 0x4516 DUP2 DUP4 PUSH2 0x2034 JUMP JUMPDEST DUP2 ADD SWAP1 PUSH2 0x43D9 JUMP JUMPDEST CODESIZE PUSH2 0x44E3 JUMP JUMPDEST POP RETURNDATASIZE PUSH2 0x450C JUMP JUMPDEST PUSH2 0x1213 SWAP1 PUSH2 0x4541 PUSH2 0x4547 SWAP4 PUSH2 0x3CE SWAP7 CALLDATASIZE SWAP2 PUSH2 0x233F JUMP JUMPDEST SWAP1 PUSH2 0x47E3 JUMP JUMPDEST PUSH1 0x1 PUSH1 0x1 PUSH1 0xA0 SHL SUB SWAP1 SWAP2 AND EQ PUSH2 0x437A JUMP JUMPDEST SWAP3 SWAP1 SWAP2 SWAP1 PUSH1 0x0 SWAP2 JUMPDEST DUP5 MLOAD DUP4 LT ISZERO PUSH2 0x45A7 JUMPI PUSH2 0x4573 DUP4 DUP7 PUSH2 0x32D7 JUMP JUMPDEST MLOAD SWAP1 PUSH1 0x0 DUP3 DUP3 LT ISZERO PUSH2 0x4596 JUMPI POP PUSH1 0x0 MSTORE PUSH1 0x20 MSTORE PUSH1 0x1 PUSH1 0x40 PUSH1 0x0 KECCAK256 JUMPDEST SWAP3 ADD SWAP2 PUSH2 0x4560 JUMP JUMPDEST PUSH1 0x40 SWAP2 PUSH1 0x1 SWAP4 DUP3 MSTORE PUSH1 0x20 MSTORE KECCAK256 PUSH2 0x458E JUMP JUMPDEST SWAP2 POP SWAP3 POP EQ SWAP1 JUMP JUMPDEST ISZERO PUSH2 0x45B6 JUMPI JUMP JUMPDEST PUSH1 0x40 MLOAD PUSH3 0x461BCD PUSH1 0xE5 SHL DUP2 MSTORE PUSH1 0x20 PUSH1 0x4 DUP3 ADD MSTORE PUSH1 0x2D PUSH1 0x24 DUP3 ADD MSTORE PUSH32 0x636F6E74726163742061756374696F6E207369676E6174757265207665726966 PUSH1 0x44 DUP3 ADD MSTORE PUSH13 0x34B1B0BA34B7B71032B93937B9 PUSH1 0x99 SHL PUSH1 0x64 DUP3 ADD MSTORE PUSH1 0x84 SWAP1 REVERT JUMPDEST PUSH2 0x461A DUP2 PUSH2 0x1E69 JUMP JUMPDEST PUSH2 0x4632 PUSH2 0x4626 DUP4 PUSH2 0x3A46 JUMP JUMPDEST SWAP3 PUSH2 0x140 DUP2 ADD SWAP1 PUSH2 0x2C93 JUMP JUMPDEST SWAP3 DUP3 EXTCODESIZE ISZERO PUSH2 0x452B JUMPI PUSH1 0x40 MLOAD PUSH4 0xB135D3F PUSH1 0xE1 SHL DUP2 MSTORE SWAP4 PUSH1 0x20 SWAP4 DUP6 SWAP4 SWAP1 SWAP3 DUP5 SWAP3 DUP4 SWAP3 PUSH2 0x4660 SWAP3 PUSH1 0x4 DUP6 ADD PUSH2 0x43F9 JUMP JUMPDEST SUB SWAP2 PUSH1 0x1 PUSH1 0x1 PUSH1 0xA0 SHL SUB AND GAS STATICCALL DUP1 ISZERO PUSH2 0x1489 JUMPI PUSH2 0x3CE SWAP2 PUSH1 0x0 SWAP2 PUSH2 0x4698 JUMPI JUMPDEST POP PUSH1 0x1 PUSH1 0x1 PUSH1 0xE0 SHL SUB NOT AND PUSH4 0xB135D3F PUSH1 0xE1 SHL EQ PUSH2 0x45AF JUMP JUMPDEST PUSH2 0x46B1 SWAP2 POP PUSH1 0x20 RETURNDATASIZE PUSH1 0x20 GT PUSH2 0x4524 JUMPI PUSH2 0x4516 DUP2 DUP4 PUSH2 0x2034 JUMP JUMPDEST CODESIZE PUSH2 0x467F JUMP JUMPDEST PUSH1 0x40 MLOAD PUSH4 0x1FFC9A7 PUSH1 0xE0 SHL DUP2 MSTORE PUSH4 0x80AC58CD PUSH1 0xE0 SHL PUSH1 0x4 DUP3 ADD MSTORE SWAP1 PUSH1 0x20 SWAP1 DUP3 SWAP1 PUSH1 0x24 SWAP1 DUP3 SWAP1 PUSH1 0x1 PUSH1 0x1 PUSH1 0xA0 SHL SUB AND GAS STATICCALL DUP1 SWAP2 PUSH1 0x0 SWAP2 PUSH2 0x46FD JUMPI JUMPDEST POP SWAP1 PUSH2 0x1E10 JUMPI POP PUSH1 0x0 SWAP1 JUMP JUMPDEST PUSH1 0x20 DUP2 RETURNDATASIZE PUSH1 0x20 GT PUSH2 0x4737 JUMPI JUMPDEST DUP2 PUSH2 0x4716 PUSH1 0x20 SWAP4 DUP4 PUSH2 0x2034 JUMP JUMPDEST DUP2 ADD SUB SLT PUSH2 0x4733 JUMPI MLOAD SWAP1 DUP2 ISZERO ISZERO DUP3 SUB PUSH2 0x4730 JUMPI POP CODESIZE PUSH2 0x46F1 JUMP JUMPDEST DUP1 REVERT JUMPDEST POP DUP1 REVERT JUMPDEST RETURNDATASIZE SWAP2 POP PUSH2 0x4709 JUMP JUMPDEST PUSH1 0x60 SWAP2 PUSH1 0x20 PUSH2 0x474F SWAP3 ADD MLOAD PUSH2 0x32D7 JUMP JUMPDEST MLOAD ADD MLOAD TIMESTAMP GT SWAP1 JUMP JUMPDEST PUSH2 0x4769 PUSH2 0x4764 CALLDATASIZE DUP4 PUSH2 0x24BC JUMP JUMPDEST PUSH2 0x4A26 JUMP JUMPDEST SWAP1 PUSH2 0x477A PUSH2 0x4764 CALLDATASIZE PUSH1 0x80 DUP5 ADD PUSH2 0x24BC JUMP JUMPDEST SWAP1 PUSH2 0x120 PUSH2 0x100 DUP3 ADD CALLDATALOAD SWAP2 ADD CALLDATALOAD SWAP1 PUSH1 0x40 MLOAD SWAP3 PUSH1 0x20 DUP5 ADD SWAP5 PUSH32 0xE28CFD2E1BCEC04840C1DDB765A2C756CF3E42AEF44E48DDDA10AF78ED9A1C44 DUP7 MSTORE PUSH1 0x40 DUP6 ADD MSTORE PUSH1 0x60 DUP5 ADD MSTORE PUSH1 0x80 DUP4 ADD MSTORE PUSH1 0xA0 DUP3 ADD MSTORE PUSH1 0xA0 DUP2 MSTORE PUSH2 0x344F PUSH1 0xC0 DUP3 PUSH2 0x2034 JUMP JUMPDEST PUSH2 0x1E10 SWAP1 PUSH2 0xA6C PUSH2 0x4AA2 JUMP JUMPDEST PUSH2 0x1E10 SWAP2 PUSH2 0x47F0 SWAP2 PUSH2 0x4BB8 JUMP JUMPDEST SWAP2 SWAP1 SWAP2 PUSH2 0x4BFA JUMP JUMPDEST PUSH1 0xFF DUP2 AND SWAP1 PUSH1 0x1F DUP3 GT PUSH2 0x4829 JUMPI PUSH1 0x40 DUP1 MLOAD SWAP3 PUSH2 0x4814 DUP3 DUP6 PUSH2 0x2034 JUMP JUMPDEST PUSH1 0x20 DUP1 DUP6 MSTORE DUP5 ADD SWAP2 PUSH1 0x1F NOT ADD CALLDATASIZE DUP4 CALLDATACOPY DUP4 MSTORE MSTORE SWAP1 JUMP JUMPDEST PUSH4 0x2CD44AC3 PUSH1 0xE2 SHL PUSH1 0x0 MSTORE PUSH1 0x4 PUSH1 0x0 REVERT JUMPDEST DUP1 CALLDATALOAD SWAP1 PUSH2 0x4846 DUP3 PUSH2 0x3B2 JUMP JUMPDEST PUSH2 0x4856 PUSH2 0x4764 CALLDATASIZE PUSH1 0x20 DUP5 ADD PUSH2 0x24BC JUMP JUMPDEST SWAP1 PUSH1 0xA0 DUP2 ADD CALLDATALOAD SWAP1 PUSH2 0x4866 DUP3 PUSH2 0x3B2 JUMP JUMPDEST PUSH1 0xC0 DUP2 ADD CALLDATALOAD PUSH1 0xE0 DUP3 ADD CALLDATALOAD SWAP1 PUSH2 0x120 PUSH2 0x100 DUP5 ADD CALLDATALOAD SWAP4 ADD CALLDATALOAD SWAP4 PUSH1 0x40 MLOAD SWAP6 PUSH1 0x20 DUP8 ADD SWAP8 PUSH32 0xA9D4367585BDF5AC5ED4070ABDBB7C7B175C44FF9A30373A11D40E8C2AB95E86 DUP10 MSTORE PUSH1 0x1 DUP1 PUSH1 0xA0 SHL SUB AND PUSH1 0x40 DUP9 ADD MSTORE PUSH1 0x60 DUP8 ADD MSTORE PUSH1 0x1 DUP1 PUSH1 0xA0 SHL SUB AND PUSH1 0x80 DUP7 ADD MSTORE PUSH1 0xA0 DUP6 ADD MSTORE PUSH1 0xC0 DUP5 ADD MSTORE PUSH1 0xE0 DUP4 ADD MSTORE PUSH2 0x100 DUP3 ADD MSTORE PUSH2 0x100 DUP2 MSTORE PUSH2 0x344F PUSH2 0x120 DUP3 PUSH2 0x2034 JUMP JUMPDEST ISZERO PUSH2 0x48F6 JUMPI JUMP JUMPDEST PUSH1 0x40 MLOAD PUSH3 0x461BCD PUSH1 0xE5 SHL DUP2 MSTORE PUSH1 0x20 PUSH1 0x4 DUP3 ADD MSTORE PUSH1 0x19 PUSH1 0x24 DUP3 ADD MSTORE PUSH32 0x436F6E74726163742061646472657373206D69736D6174636800000000000000 PUSH1 0x44 DUP3 ADD MSTORE PUSH1 0x64 SWAP1 REVERT JUMPDEST ISZERO PUSH2 0x4942 JUMPI JUMP JUMPDEST PUSH1 0x40 MLOAD PUSH3 0x461BCD PUSH1 0xE5 SHL DUP2 MSTORE PUSH1 0x20 PUSH1 0x4 DUP3 ADD MSTORE PUSH1 0x11 PUSH1 0x24 DUP3 ADD MSTORE PUSH17 0x82E6E6CAE840928840DAD2E6DAC2E8C6D PUSH1 0x7B SHL PUSH1 0x44 DUP3 ADD MSTORE PUSH1 0x64 SWAP1 REVERT JUMPDEST SWAP1 DUP2 CALLDATALOAD PUSH2 0x4987 DUP2 PUSH2 0x1FE0 JUMP JUMPDEST DUP2 CALLDATALOAD SWAP1 PUSH2 0x4993 DUP3 PUSH2 0x1FE0 JUMP JUMPDEST PUSH1 0x4 DUP3 LT ISZERO PUSH2 0x1E01 JUMPI PUSH1 0x4 DUP2 LT ISZERO PUSH2 0x1E01 JUMPI SUB PUSH2 0x49EB JUMPI PUSH1 0x40 DUP1 DUP4 PUSH2 0x49E0 PUSH2 0x49C0 PUSH1 0x20 PUSH2 0x3CE SWAP8 ADD PUSH2 0x1E69 JUMP JUMPDEST PUSH2 0x49CF PUSH2 0x1213 PUSH1 0x20 DUP9 ADD PUSH2 0x1E69 JUMP JUMPDEST PUSH1 0x1 PUSH1 0x1 PUSH1 0xA0 SHL SUB SWAP1 SWAP2 AND EQ PUSH2 0x48EF JUMP JUMPDEST ADD CALLDATALOAD SWAP2 ADD CALLDATALOAD EQ PUSH2 0x493B JUMP JUMPDEST PUSH1 0x40 MLOAD PUSH3 0x461BCD PUSH1 0xE5 SHL DUP2 MSTORE PUSH1 0x20 PUSH1 0x4 DUP3 ADD MSTORE PUSH1 0x13 PUSH1 0x24 DUP3 ADD MSTORE PUSH19 0x82E6E6CAE840E8F2E0CA40DAD2E6DAC2E8C6D PUSH1 0x6B SHL PUSH1 0x44 DUP3 ADD MSTORE PUSH1 0x64 SWAP1 REVERT JUMPDEST DUP1 MLOAD SWAP1 PUSH1 0x4 DUP3 LT ISZERO PUSH2 0x1E01 JUMPI PUSH1 0x1 DUP1 PUSH1 0xA0 SHL SUB PUSH1 0x20 DUP3 ADD MLOAD AND SWAP1 PUSH1 0x60 PUSH1 0x40 DUP3 ADD MLOAD SWAP2 ADD MLOAD SWAP1 PUSH1 0x40 MLOAD SWAP3 PUSH2 0x4A84 PUSH1 0x20 DUP6 ADD SWAP6 PUSH32 0x6E4F52E5739DBEFD226DCBEFEF0E563115BC2B92726A648E213CB8CDE30B11A6 DUP8 MSTORE PUSH1 0x40 DUP7 ADD SWAP1 PUSH2 0x289D JUMP JUMPDEST PUSH1 0x60 DUP5 ADD MSTORE PUSH1 0x80 DUP4 ADD MSTORE PUSH1 0xA0 DUP3 ADD MSTORE PUSH1 0xA0 DUP2 MSTORE PUSH2 0x344F PUSH1 0xC0 DUP3 PUSH2 0x2034 JUMP JUMPDEST ADDRESS PUSH32 0x0 PUSH1 0x1 PUSH1 0x1 PUSH1 0xA0 SHL SUB AND EQ DUP1 PUSH2 0x4B8F JUMPI JUMPDEST ISZERO PUSH2 0x4AFD JUMPI PUSH32 0x0 SWAP1 JUMP JUMPDEST PUSH1 0x40 MLOAD PUSH1 0x20 DUP2 ADD SWAP1 PUSH32 0x8B73C3C69BB8FE3D512ECC4CF759CC79239F7B179B0FFACAA9A75D522B39400F DUP3 MSTORE PUSH32 0x0 PUSH1 0x40 DUP3 ADD MSTORE PUSH32 0x0 PUSH1 0x60 DUP3 ADD MSTORE CHAINID PUSH1 0x80 DUP3 ADD MSTORE ADDRESS PUSH1 0xA0 DUP3 ADD MSTORE PUSH1 0xA0 DUP2 MSTORE PUSH2 0x344F PUSH1 0xC0 DUP3 PUSH2 0x2034 JUMP JUMPDEST POP PUSH32 0x0 CHAINID EQ PUSH2 0x4AD4 JUMP JUMPDEST SWAP1 PUSH1 0x41 DUP2 MLOAD EQ PUSH1 0x0 EQ PUSH2 0x4BE6 JUMPI PUSH2 0x4BE2 SWAP2 PUSH1 0x20 DUP3 ADD MLOAD SWAP1 PUSH1 0x60 PUSH1 0x40 DUP5 ADD MLOAD SWAP4 ADD MLOAD PUSH1 0x0 BYTE SWAP1 PUSH2 0x4D1A JUMP JUMPDEST SWAP1 SWAP2 JUMP JUMPDEST POP POP PUSH1 0x0 SWAP1 PUSH1 0x2 SWAP1 JUMP JUMPDEST PUSH1 0x5 GT ISZERO PUSH2 0x1E01 JUMPI JUMP JUMPDEST PUSH2 0x4C03 DUP2 PUSH2 0x4BF0 JUMP JUMPDEST DUP1 PUSH2 0x4C0B JUMPI POP JUMP JUMPDEST PUSH2 0x4C14 DUP2 PUSH2 0x4BF0 JUMP JUMPDEST PUSH1 0x1 DUP2 SUB PUSH2 0x4C61 JUMPI PUSH1 0x40 MLOAD PUSH3 0x461BCD PUSH1 0xE5 SHL DUP2 MSTORE PUSH1 0x20 PUSH1 0x4 DUP3 ADD MSTORE PUSH1 0x18 PUSH1 0x24 DUP3 ADD MSTORE PUSH32 0x45434453413A20696E76616C6964207369676E61747572650000000000000000 PUSH1 0x44 DUP3 ADD MSTORE PUSH1 0x64 SWAP1 REVERT JUMPDEST PUSH2 0x4C6A DUP2 PUSH2 0x4BF0 JUMP JUMPDEST PUSH1 0x2 DUP2 SUB PUSH2 0x4CB7 JUMPI PUSH1 0x40 MLOAD PUSH3 0x461BCD PUSH1 0xE5 SHL DUP2 MSTORE PUSH1 0x20 PUSH1 0x4 DUP3 ADD MSTORE PUSH1 0x1F PUSH1 0x24 DUP3 ADD MSTORE PUSH32 0x45434453413A20696E76616C6964207369676E6174757265206C656E67746800 PUSH1 0x44 DUP3 ADD MSTORE PUSH1 0x64 SWAP1 REVERT JUMPDEST DUP1 PUSH2 0x4CC3 PUSH1 0x3 SWAP3 PUSH2 0x4BF0 JUMP JUMPDEST EQ PUSH2 0x4CCA JUMPI JUMP JUMPDEST PUSH1 0x40 MLOAD PUSH3 0x461BCD PUSH1 0xE5 SHL DUP2 MSTORE PUSH1 0x20 PUSH1 0x4 DUP3 ADD MSTORE PUSH1 0x22 PUSH1 0x24 DUP3 ADD MSTORE PUSH32 0x45434453413A20696E76616C6964207369676E6174757265202773272076616C PUSH1 0x44 DUP3 ADD MSTORE PUSH2 0x7565 PUSH1 0xF0 SHL PUSH1 0x64 DUP3 ADD MSTORE PUSH1 0x84 SWAP1 REVERT JUMPDEST PUSH32 0x7FFFFFFFFFFFFFFFFFFFFFFFFFFFFFFF5D576E7357A4501DDFE92F46681B20A0 DUP5 GT PUSH2 0x4D8E JUMPI PUSH1 0x20 SWAP4 PUSH1 0x0 SWAP4 PUSH1 0xFF PUSH1 0x80 SWAP5 PUSH1 0x40 MLOAD SWAP5 DUP6 MSTORE AND DUP7 DUP5 ADD MSTORE PUSH1 0x40 DUP4 ADD MSTORE PUSH1 0x60 DUP3 ADD MSTORE DUP3 DUP1 MSTORE PUSH1 0x1 GAS STATICCALL ISZERO PUSH2 0x1489 JUMPI PUSH1 0x0 MLOAD PUSH1 0x1 PUSH1 0x1 PUSH1 0xA0 SHL SUB DUP2 AND ISZERO PUSH2 0x4D85 JUMPI SWAP1 PUSH1 0x0 SWAP1 JUMP JUMPDEST POP PUSH1 0x0 SWAP1 PUSH1 0x1 SWAP1 JUMP JUMPDEST POP POP POP POP PUSH1 0x0 SWAP1 PUSH1 0x3 SWAP1 JUMP INVALID LOG2 PUSH5 0x6970667358 0x22 SLT KECCAK256 0xCC CREATE 0xE3 0xDD XOR 0xB6 DUP8 PUSH13 0x74D53657B52FDED29A292702EB SWAP12 0xA6 GASLIMIT SLOAD 0x29 0xCE PUSH16 0x7F80FB5764736F6C634300081C003300 "},"methodIdentifiers":{"MAX_AUCTION_DURATION()":"3fb35178","MAX_FEE_BPS()":"d55be8c6","MIN_AUCTION_DURATION()":"c2f50a7a","MIN_BID_INCREMENT_BPS()":"14414cc0","acceptBid((uint8,((uint8,address,uint256,uint256),(uint8,address,uint256,uint256),uint256,uint256)[],address,address,bytes32,uint256,bytes),uint256,uint256)":"bc2db5c4","acceptCollectionBid((address,(uint8,address,uint256,uint256),address,uint256,uint256,uint256,uint256,bytes),uint256)":"ecf66145","assetTransferAgent()":"4715399c","auctionFinalized(bytes32)":"3a9fae7c","auctionVault()":"48a220a4","batchMatchOrders((uint8,((uint8,address,uint256,uint256),(uint8,address,uint256,uint256),uint256,uint256)[],address,address,bytes32,uint256,bytes)[],(uint8,((uint8,address,uint256,uint256),(uint8,address,uint256,uint256),uint256,uint256)[],address,address,bytes32,uint256,bytes),uint256[],bytes32[][])":"1ef1c7d2","cancelOrder((uint8,((uint8,address,uint256,uint256),(uint8,address,uint256,uint256),uint256,uint256)[],address,address,bytes32,uint256,bytes),uint256)":"a83fb54f","collectionBidFillAmount(bytes32)":"5d704aea","eip712Domain()":"84b0196e","emergencyWithdraw()":"db2e21bc","feeBps()":"24a9d853","feeRecipient()":"46904840","finalizeAuction((address,(uint8,address,uint256,uint256),uint256,uint256,uint256,uint256,uint256,bytes),bytes)":"6199d280","highestBids(bytes32)":"892987b5","isOrderCancelled((uint8,((uint8,address,uint256,uint256),(uint8,address,uint256,uint256),uint256,uint256)[],address,address,bytes32,uint256,bytes),uint256)":"2e1cbea2","isOrderFullyFilled((uint8,((uint8,address,uint256,uint256),(uint8,address,uint256,uint256),uint256,uint256)[],address,address,bytes32,uint256,bytes),uint256)":"703cebfe","matchOrders((uint8,((uint8,address,uint256,uint256),(uint8,address,uint256,uint256),uint256,uint256)[],address,address,bytes32,uint256,bytes),(uint8,((uint8,address,uint256,uint256),(uint8,address,uint256,uint256),uint256,uint256)[],address,address,bytes32,uint256,bytes),uint256,bytes32[])":"bf76c032","orderFillAmount(bytes32,uint256)":"eded1f00","owner()":"8da5cb5b","pause()":"8456cb59","paused()":"5c975abb","renounceOwnership()":"715018a6","setAssetTransferAgent(address)":"ca200ad8","setAuctionVault(address)":"36bacfd5","setFeeBps(uint256)":"72c27b62","setFeeRecipient(address)":"e74b981b","submitAuctionBid((address,(uint8,address,uint256,uint256),uint256,uint256,uint256,uint256,uint256,bytes))":"d418fc42","transferOwnership(address)":"f2fde38b","unpause()":"3f4ba83a","verifyMerkleProof(bytes32[],bytes32,bytes32)":"ada4fa18"}}}}}