{"contracts/payment/SessionReceipt.sol":{"SessionReceipt":{"abi":[{"inputs":[{"internalType":"address","name":"_nodesStorage","type":"address"},{"internalType":"address","name":"_usageDepositor","type":"address"}],"stateMutability":"nonpayable","type":"constructor"},{"anonymous":false,"inputs":[{"indexed":true,"internalType":"address","name":"previousOwner","type":"address"},{"indexed":true,"internalType":"address","name":"newOwner","type":"address"}],"name":"OwnershipTransferred","type":"event"},{"anonymous":false,"inputs":[{"indexed":false,"internalType":"address","name":"client","type":"address"},{"indexed":false,"internalType":"address","name":"node","type":"address"},{"indexed":false,"internalType":"uint256","name":"nonce","type":"uint256"}],"name":"SessionReceiptConfirmed","type":"event"},{"anonymous":false,"inputs":[{"indexed":false,"internalType":"address","name":"client","type":"address"},{"indexed":false,"internalType":"address","name":"node","type":"address"},{"indexed":false,"internalType":"uint256","name":"totalSecondsServed","type":"uint256"},{"indexed":false,"internalType":"address","name":"tokenAddress","type":"address"},{"indexed":false,"internalType":"uint256","name":"totalPrice","type":"uint256"}],"name":"SessionReceiptCreated","type":"event"},{"inputs":[{"internalType":"uint256","name":"nonce","type":"uint256"}],"name":"confirmSessionReceipt","outputs":[],"stateMutability":"nonpayable","type":"function"},{"inputs":[{"internalType":"address","name":"client","type":"address"},{"internalType":"uint256","name":"totalSecondsServed","type":"uint256"},{"internalType":"address","name":"tokenAddress","type":"address"},{"internalType":"enum TokenType","name":"tokenType","type":"uint8"},{"internalType":"uint256","name":"pricePerSecond","type":"uint256"},{"internalType":"uint256","name":"nonce","type":"uint256"}],"name":"createSessionReceipt","outputs":[],"stateMutability":"nonpayable","type":"function"},{"inputs":[{"internalType":"address","name":"client","type":"address"}],"name":"getLatestReceipt","outputs":[{"components":[{"internalType":"address","name":"client","type":"address"},{"internalType":"address","name":"node","type":"address"},{"internalType":"uint256","name":"totalSecondsServed","type":"uint256"},{"internalType":"enum TokenType","name":"tokenType","type":"uint8"},{"internalType":"address","name":"tokenAddress","type":"address"},{"internalType":"uint256","name":"totalPrice","type":"uint256"},{"internalType":"enum LibSessionReceipt.SessionReceiptStatus","name":"status","type":"uint8"},{"internalType":"uint256","name":"nonce","type":"uint256"}],"internalType":"struct LibSessionReceipt.SessionReceipt","name":"receipt","type":"tuple"}],"stateMutability":"view","type":"function"},{"inputs":[{"internalType":"address","name":"client","type":"address"}],"name":"getNonce","outputs":[{"internalType":"uint256","name":"","type":"uint256"}],"stateMutability":"view","type":"function"},{"inputs":[{"internalType":"address","name":"client","type":"address"},{"internalType":"uint256","name":"nonce","type":"uint256"}],"name":"getSessionReceipt","outputs":[{"components":[{"internalType":"address","name":"client","type":"address"},{"internalType":"address","name":"node","type":"address"},{"internalType":"uint256","name":"totalSecondsServed","type":"uint256"},{"internalType":"enum TokenType","name":"tokenType","type":"uint8"},{"internalType":"address","name":"tokenAddress","type":"address"},{"internalType":"uint256","name":"totalPrice","type":"uint256"},{"internalType":"enum LibSessionReceipt.SessionReceiptStatus","name":"status","type":"uint8"},{"internalType":"uint256","name":"nonce","type":"uint256"}],"internalType":"struct LibSessionReceipt.SessionReceipt","name":"","type":"tuple"}],"stateMutability":"view","type":"function"},{"inputs":[],"name":"nodesStorage","outputs":[{"internalType":"contract INodesStorage","name":"","type":"address"}],"stateMutability":"view","type":"function"},{"inputs":[],"name":"owner","outputs":[{"internalType":"address","name":"","type":"address"}],"stateMutability":"view","type":"function"},{"inputs":[{"internalType":"address","name":"client","type":"address"},{"internalType":"uint256","name":"nonce","type":"uint256"}],"name":"redeemReceipt","outputs":[],"stateMutability":"nonpayable","type":"function"},{"inputs":[],"name":"renounceOwnership","outputs":[],"stateMutability":"nonpayable","type":"function"},{"inputs":[{"internalType":"address","name":"newOwner","type":"address"}],"name":"transferOwnership","outputs":[],"stateMutability":"nonpayable","type":"function"},{"inputs":[],"name":"usageDepositor","outputs":[{"internalType":"contract IUsageDepositor","name":"","type":"address"}],"stateMutability":"view","type":"function"}],"evm":{"bytecode":{"linkReferences":{},"object":"608060405234801561001057600080fd5b50604051610f8b380380610f8b83398101604081905261002f916100dc565b600160005561003d3361006e565b600280546001600160a01b039384166001600160a01b0319918216179091556003805492909316911617905561010f565b600180546001600160a01b038381166001600160a01b0319831681179093556040519116919082907f8be0079c531659141344cd1fd0a4f28419497f9722a3daafe3b4186f6b6457e090600090a35050565b80516001600160a01b03811681146100d757600080fd5b919050565b600080604083850312156100ef57600080fd5b6100f8836100c0565b9150610106602084016100c0565b90509250929050565b610e6d8061011e6000396000f3fe608060405234801561001057600080fd5b50600436106100a95760003560e01c80638da5cb5b116100715780638da5cb5b146101455780638eb59f8b14610156578063e244c4ff14610176578063e5483f5c14610189578063f2f8f9401461019c578063f2fde38b146101af57600080fd5b80632d0335ab146100ae57806345c19274146100ea57806355d3c58a146100ff57806364cf88c214610112578063715018a61461013d575b600080fd5b6100d76100bc366004610c3a565b6001600160a01b031660009081526005602052604090205490565b6040519081526020015b60405180910390f35b6100fd6100f8366004610c5c565b6101c2565b005b6100fd61010d366004610cc1565b6104e0565b600354610125906001600160a01b031681565b6040516001600160a01b0390911681526020016100e1565b6100fd61073f565b6001546001600160a01b0316610125565b610169610164366004610cc1565b610753565b6040516100e19190610d15565b600254610125906001600160a01b031681565b6100fd610197366004610da3565b610846565b6101696101aa366004610c3a565b610944565b6100fd6101bd366004610c3a565b610a5f565b6101ca610ad5565b600254604051639ebd11ef60e01b81523360048201526001600160a01b0390911690639ebd11ef90602401602060405180830381865afa158015610212573d6000803e3d6000fd5b505050506040513d601f19601f820116820180604052508101906102369190610dbc565b6102815760405162461bcd60e51b8152602060048201526017602482015276139bd919481a5cc81b9bdd081dda1a5d195b1a5cdd1959604a1b60448201526064015b60405180910390fd5b6001600160a01b03861660009081526005602052604090205481146102d85760405162461bcd60e51b815260206004820152600d60248201526c496e76616c6964206e6f6e636560981b6044820152606401610278565b60006102e48387610df4565b90506000604051806101000160405280896001600160a01b03168152602001336001600160a01b0316815260200188815260200186600181111561032a5761032a610ceb565b81526001600160a01b0388166020820152604081018490526060016001815260209081018590526001600160a01b038a81166000908152600483526040808220888352845290819020845181546001600160a01b0319908116918516919091178255938501516001808301805490961691909416179093558301516002830155606083015160038301805494955085949192909160ff19169083818111156103d4576103d4610ceb565b021790555060808201518160030160016101000a8154816001600160a01b0302191690836001600160a01b0316021790555060a0820151816004015560c08201518160050160006101000a81548160ff0219169083600381111561043a5761043a610ceb565b021790555060e091909101516006909101556001600160a01b038816600090815260056020526040812080549161047083610e0b565b9091555050604080516001600160a01b038a811682523360208301528183018a9052881660608201526080810184905290517f457553ab13c39b6f49a907120f176df56c556ece5dd4369cc2efb18cdbd5cb679181900360a00190a150506104d86001600055565b505050505050565b600254604051639ebd11ef60e01b81523360048201526001600160a01b0390911690639ebd11ef90602401602060405180830381865afa158015610528573d6000803e3d6000fd5b505050506040513d601f19601f8201168201806040525081019061054c9190610dbc565b6105925760405162461bcd60e51b8152602060048201526017602482015276139bd919481a5cc81b9bdd081dda1a5d195b1a5cdd1959604a1b6044820152606401610278565b61059a610ad5565b6001600160a01b038216600090815260046020908152604080832084845290915290206002600582015460ff1660038111156105d8576105d8610ceb565b146106255760405162461bcd60e51b815260206004820181905260248201527f53657373696f6e2072656365697074206973206e6f7420636f6e6669726d65646044820152606401610278565b60018101546001600160a01b031633146106915760405162461bcd60e51b815260206004820152602760248201527f53656e646572206973206e6f74206e6f646520696e2073657373696f6e2773206044820152661c9958d95a5c1d60ca1b6064820152608401610278565b6003805482546001840154600285015493850154600480870154604051630836590760e01b81526001600160a01b0395861692810192909252928416602482015260448101959095526101009004821660648501526084840152169063083659079060a401600060405180830381600087803b15801561071057600080fd5b505af1158015610724573d6000803e3d6000fd5b50505050600501805460ff1916600317905560016000555050565b610747610b2e565b6107516000610b88565b565b61075b610bda565b6001600160a01b0380841660009081526004602090815260408083208684528252918290208251610100810184528154851681526001808301549095169281019290925260028101549282019290925260038201549092606084019160ff16908111156107ca576107ca610ceb565b60018111156107db576107db610ceb565b815260038281015461010090046001600160a01b0316602083015260048301546040830152600583015460609092019160ff169081111561081e5761081e610ceb565b600381111561082f5761082f610ceb565b815260200160068201548152505090505b92915050565b61084e610ad5565b33600090815260046020908152604080832084845290915290206001600582015460ff16600381111561088357610883610ceb565b146108d05760405162461bcd60e51b815260206004820152601e60248201527f53657373696f6e2072656365697074206973206e6f742070656e64696e6700006044820152606401610278565b60058101805460ff19166002179055805460018201546006830154604080516001600160a01b039485168152939092166020840152908201527fd56648885e56047e04b1f631de6afaa1f1b81eeeb672ba27ebaafe44db00c1e69060600160405180910390a1506109416001600055565b50565b61094c610bda565b6001600160a01b03821660009081526005602052604081205461097190600190610e24565b6001600160a01b038085166000908152600460209081526040808320858452825291829020825161010081018452815485168152600180830154909516928101929092526002810154928201929092526003820154939450929091606084019160ff16908111156109e4576109e4610ceb565b60018111156109f5576109f5610ceb565b815260038281015461010090046001600160a01b0316602083015260048301546040830152600583015460609092019160ff1690811115610a3857610a38610ceb565b6003811115610a4957610a49610ceb565b8152602001600682015481525050915050919050565b610a67610b2e565b6001600160a01b038116610acc5760405162461bcd60e51b815260206004820152602660248201527f4f776e61626c653a206e6577206f776e657220697320746865207a65726f206160448201526564647265737360d01b6064820152608401610278565b61094181610b88565b600260005403610b275760405162461bcd60e51b815260206004820152601f60248201527f5265656e7472616e637947756172643a207265656e7472616e742063616c6c006044820152606401610278565b6002600055565b6001546001600160a01b031633146107515760405162461bcd60e51b815260206004820181905260248201527f4f776e61626c653a2063616c6c6572206973206e6f7420746865206f776e65726044820152606401610278565b600180546001600160a01b038381166001600160a01b0319831681179093556040519116919082907f8be0079c531659141344cd1fd0a4f28419497f9722a3daafe3b4186f6b6457e090600090a35050565b6040805161010081018252600080825260208201819052918101829052606081018290526080810182905260a0810182905260c0810182905260e081019190915290565b80356001600160a01b0381168114610c3557600080fd5b919050565b600060208284031215610c4c57600080fd5b610c5582610c1e565b9392505050565b60008060008060008060c08789031215610c7557600080fd5b610c7e87610c1e565b955060208701359450610c9360408801610c1e565b9350606087013560028110610ca757600080fd5b9598949750929560808101359460a0909101359350915050565b60008060408385031215610cd457600080fd5b610cdd83610c1e565b946020939093013593505050565b634e487b7160e01b600052602160045260246000fd5b60048110610d1157610d11610ceb565b9052565b81516001600160a01b0390811682526020808401519091169082015260408083015190820152606082015161010082019060028110610d5657610d56610ceb565b806060840152506080830151610d7760808401826001600160a01b03169052565b5060a083015160a083015260c0830151610d9460c0840182610d01565b5060e092830151919092015290565b600060208284031215610db557600080fd5b5035919050565b600060208284031215610dce57600080fd5b81518015158114610c5557600080fd5b634e487b7160e01b600052601160045260246000fd5b808202811582820484141761084057610840610dde565b600060018201610e1d57610e1d610dde565b5060010190565b8181038181111561084057610840610dde56fea26469706673582212207740de7584022d8a02ceb11a77edda38e5fe08a7f78f5d41e008d053bc13f93764736f6c634300081c0033","opcodes":"PUSH1 0x80 PUSH1 0x40 MSTORE CALLVALUE DUP1 ISZERO PUSH2 0x10 JUMPI PUSH1 0x0 DUP1 REVERT JUMPDEST POP PUSH1 0x40 MLOAD PUSH2 0xF8B CODESIZE SUB DUP1 PUSH2 0xF8B DUP4 CODECOPY DUP2 ADD PUSH1 0x40 DUP2 SWAP1 MSTORE PUSH2 0x2F SWAP2 PUSH2 0xDC JUMP JUMPDEST PUSH1 0x1 PUSH1 0x0 SSTORE PUSH2 0x3D CALLER PUSH2 0x6E JUMP JUMPDEST PUSH1 0x2 DUP1 SLOAD PUSH1 0x1 PUSH1 0x1 PUSH1 0xA0 SHL SUB SWAP4 DUP5 AND PUSH1 0x1 PUSH1 0x1 PUSH1 0xA0 SHL SUB NOT SWAP2 DUP3 AND OR SWAP1 SWAP2 SSTORE PUSH1 0x3 DUP1 SLOAD SWAP3 SWAP1 SWAP4 AND SWAP2 AND OR SWAP1 SSTORE PUSH2 0x10F JUMP JUMPDEST PUSH1 0x1 DUP1 SLOAD PUSH1 0x1 PUSH1 0x1 PUSH1 0xA0 SHL SUB DUP4 DUP2 AND PUSH1 0x1 PUSH1 0x1 PUSH1 0xA0 SHL SUB NOT DUP4 AND DUP2 OR SWAP1 SWAP4 SSTORE PUSH1 0x40 MLOAD SWAP2 AND SWAP2 SWAP1 DUP3 SWAP1 PUSH32 0x8BE0079C531659141344CD1FD0A4F28419497F9722A3DAAFE3B4186F6B6457E0 SWAP1 PUSH1 0x0 SWAP1 LOG3 POP POP JUMP JUMPDEST DUP1 MLOAD PUSH1 0x1 PUSH1 0x1 PUSH1 0xA0 SHL SUB DUP2 AND DUP2 EQ PUSH2 0xD7 JUMPI PUSH1 0x0 DUP1 REVERT JUMPDEST SWAP2 SWAP1 POP JUMP JUMPDEST PUSH1 0x0 DUP1 PUSH1 0x40 DUP4 DUP6 SUB SLT ISZERO PUSH2 0xEF JUMPI PUSH1 0x0 DUP1 REVERT JUMPDEST PUSH2 0xF8 DUP4 PUSH2 0xC0 JUMP JUMPDEST SWAP2 POP PUSH2 0x106 PUSH1 0x20 DUP5 ADD PUSH2 0xC0 JUMP JUMPDEST SWAP1 POP SWAP3 POP SWAP3 SWAP1 POP JUMP JUMPDEST PUSH2 0xE6D DUP1 PUSH2 0x11E PUSH1 0x0 CODECOPY PUSH1 0x0 RETURN INVALID PUSH1 0x80 PUSH1 0x40 MSTORE CALLVALUE DUP1 ISZERO PUSH2 0x10 JUMPI PUSH1 0x0 DUP1 REVERT JUMPDEST POP PUSH1 0x4 CALLDATASIZE LT PUSH2 0xA9 JUMPI PUSH1 0x0 CALLDATALOAD PUSH1 0xE0 SHR DUP1 PUSH4 0x8DA5CB5B GT PUSH2 0x71 JUMPI DUP1 PUSH4 0x8DA5CB5B EQ PUSH2 0x145 JUMPI DUP1 PUSH4 0x8EB59F8B EQ PUSH2 0x156 JUMPI DUP1 PUSH4 0xE244C4FF EQ PUSH2 0x176 JUMPI DUP1 PUSH4 0xE5483F5C EQ PUSH2 0x189 JUMPI DUP1 PUSH4 0xF2F8F940 EQ PUSH2 0x19C JUMPI DUP1 PUSH4 0xF2FDE38B EQ PUSH2 0x1AF JUMPI PUSH1 0x0 DUP1 REVERT JUMPDEST DUP1 PUSH4 0x2D0335AB EQ PUSH2 0xAE JUMPI DUP1 PUSH4 0x45C19274 EQ PUSH2 0xEA JUMPI DUP1 PUSH4 0x55D3C58A EQ PUSH2 0xFF JUMPI DUP1 PUSH4 0x64CF88C2 EQ PUSH2 0x112 JUMPI DUP1 PUSH4 0x715018A6 EQ PUSH2 0x13D JUMPI JUMPDEST PUSH1 0x0 DUP1 REVERT JUMPDEST PUSH2 0xD7 PUSH2 0xBC CALLDATASIZE PUSH1 0x4 PUSH2 0xC3A JUMP JUMPDEST PUSH1 0x1 PUSH1 0x1 PUSH1 0xA0 SHL SUB AND PUSH1 0x0 SWAP1 DUP2 MSTORE PUSH1 0x5 PUSH1 0x20 MSTORE PUSH1 0x40 SWAP1 KECCAK256 SLOAD SWAP1 JUMP JUMPDEST PUSH1 0x40 MLOAD SWAP1 DUP2 MSTORE PUSH1 0x20 ADD JUMPDEST PUSH1 0x40 MLOAD DUP1 SWAP2 SUB SWAP1 RETURN JUMPDEST PUSH2 0xFD PUSH2 0xF8 CALLDATASIZE PUSH1 0x4 PUSH2 0xC5C JUMP JUMPDEST PUSH2 0x1C2 JUMP JUMPDEST STOP JUMPDEST PUSH2 0xFD PUSH2 0x10D CALLDATASIZE PUSH1 0x4 PUSH2 0xCC1 JUMP JUMPDEST PUSH2 0x4E0 JUMP JUMPDEST PUSH1 0x3 SLOAD PUSH2 0x125 SWAP1 PUSH1 0x1 PUSH1 0x1 PUSH1 0xA0 SHL SUB AND DUP2 JUMP JUMPDEST PUSH1 0x40 MLOAD PUSH1 0x1 PUSH1 0x1 PUSH1 0xA0 SHL SUB SWAP1 SWAP2 AND DUP2 MSTORE PUSH1 0x20 ADD PUSH2 0xE1 JUMP JUMPDEST PUSH2 0xFD PUSH2 0x73F JUMP JUMPDEST PUSH1 0x1 SLOAD PUSH1 0x1 PUSH1 0x1 PUSH1 0xA0 SHL SUB AND PUSH2 0x125 JUMP JUMPDEST PUSH2 0x169 PUSH2 0x164 CALLDATASIZE PUSH1 0x4 PUSH2 0xCC1 JUMP JUMPDEST PUSH2 0x753 JUMP JUMPDEST PUSH1 0x40 MLOAD PUSH2 0xE1 SWAP2 SWAP1 PUSH2 0xD15 JUMP JUMPDEST PUSH1 0x2 SLOAD PUSH2 0x125 SWAP1 PUSH1 0x1 PUSH1 0x1 PUSH1 0xA0 SHL SUB AND DUP2 JUMP JUMPDEST PUSH2 0xFD PUSH2 0x197 CALLDATASIZE PUSH1 0x4 PUSH2 0xDA3 JUMP JUMPDEST PUSH2 0x846 JUMP JUMPDEST PUSH2 0x169 PUSH2 0x1AA CALLDATASIZE PUSH1 0x4 PUSH2 0xC3A JUMP JUMPDEST PUSH2 0x944 JUMP JUMPDEST PUSH2 0xFD PUSH2 0x1BD CALLDATASIZE PUSH1 0x4 PUSH2 0xC3A JUMP JUMPDEST PUSH2 0xA5F JUMP JUMPDEST PUSH2 0x1CA PUSH2 0xAD5 JUMP JUMPDEST PUSH1 0x2 SLOAD PUSH1 0x40 MLOAD PUSH4 0x9EBD11EF PUSH1 0xE0 SHL DUP2 MSTORE CALLER PUSH1 0x4 DUP3 ADD MSTORE PUSH1 0x1 PUSH1 0x1 PUSH1 0xA0 SHL SUB SWAP1 SWAP2 AND SWAP1 PUSH4 0x9EBD11EF SWAP1 PUSH1 0x24 ADD PUSH1 0x20 PUSH1 0x40 MLOAD DUP1 DUP4 SUB DUP2 DUP7 GAS STATICCALL ISZERO DUP1 ISZERO PUSH2 0x212 JUMPI RETURNDATASIZE PUSH1 0x0 DUP1 RETURNDATACOPY RETURNDATASIZE PUSH1 0x0 REVERT JUMPDEST POP POP POP POP PUSH1 0x40 MLOAD RETURNDATASIZE PUSH1 0x1F NOT PUSH1 0x1F DUP3 ADD AND DUP3 ADD DUP1 PUSH1 0x40 MSTORE POP DUP2 ADD SWAP1 PUSH2 0x236 SWAP2 SWAP1 PUSH2 0xDBC JUMP JUMPDEST PUSH2 0x281 JUMPI PUSH1 0x40 MLOAD PUSH3 0x461BCD PUSH1 0xE5 SHL DUP2 MSTORE PUSH1 0x20 PUSH1 0x4 DUP3 ADD MSTORE PUSH1 0x17 PUSH1 0x24 DUP3 ADD MSTORE PUSH23 0x139BD919481A5CC81B9BDD081DDA1A5D195B1A5CDD1959 PUSH1 0x4A SHL PUSH1 0x44 DUP3 ADD MSTORE PUSH1 0x64 ADD JUMPDEST PUSH1 0x40 MLOAD DUP1 SWAP2 SUB SWAP1 REVERT JUMPDEST PUSH1 0x1 PUSH1 0x1 PUSH1 0xA0 SHL SUB DUP7 AND PUSH1 0x0 SWAP1 DUP2 MSTORE PUSH1 0x5 PUSH1 0x20 MSTORE PUSH1 0x40 SWAP1 KECCAK256 SLOAD DUP2 EQ PUSH2 0x2D8 JUMPI PUSH1 0x40 MLOAD PUSH3 0x461BCD PUSH1 0xE5 SHL DUP2 MSTORE PUSH1 0x20 PUSH1 0x4 DUP3 ADD MSTORE PUSH1 0xD PUSH1 0x24 DUP3 ADD MSTORE PUSH13 0x496E76616C6964206E6F6E6365 PUSH1 0x98 SHL PUSH1 0x44 DUP3 ADD MSTORE PUSH1 0x64 ADD PUSH2 0x278 JUMP JUMPDEST PUSH1 0x0 PUSH2 0x2E4 DUP4 DUP8 PUSH2 0xDF4 JUMP JUMPDEST SWAP1 POP PUSH1 0x0 PUSH1 0x40 MLOAD DUP1 PUSH2 0x100 ADD PUSH1 0x40 MSTORE DUP1 DUP10 PUSH1 0x1 PUSH1 0x1 PUSH1 0xA0 SHL SUB AND DUP2 MSTORE PUSH1 0x20 ADD CALLER PUSH1 0x1 PUSH1 0x1 PUSH1 0xA0 SHL SUB AND DUP2 MSTORE PUSH1 0x20 ADD DUP9 DUP2 MSTORE PUSH1 0x20 ADD DUP7 PUSH1 0x1 DUP2 GT ISZERO PUSH2 0x32A JUMPI PUSH2 0x32A PUSH2 0xCEB JUMP JUMPDEST DUP2 MSTORE PUSH1 0x1 PUSH1 0x1 PUSH1 0xA0 SHL SUB DUP9 AND PUSH1 0x20 DUP3 ADD MSTORE PUSH1 0x40 DUP2 ADD DUP5 SWAP1 MSTORE PUSH1 0x60 ADD PUSH1 0x1 DUP2 MSTORE PUSH1 0x20 SWAP1 DUP2 ADD DUP6 SWAP1 MSTORE PUSH1 0x1 PUSH1 0x1 PUSH1 0xA0 SHL SUB DUP11 DUP2 AND PUSH1 0x0 SWAP1 DUP2 MSTORE PUSH1 0x4 DUP4 MSTORE PUSH1 0x40 DUP1 DUP3 KECCAK256 DUP9 DUP4 MSTORE DUP5 MSTORE SWAP1 DUP2 SWAP1 KECCAK256 DUP5 MLOAD DUP2 SLOAD PUSH1 0x1 PUSH1 0x1 PUSH1 0xA0 SHL SUB NOT SWAP1 DUP2 AND SWAP2 DUP6 AND SWAP2 SWAP1 SWAP2 OR DUP3 SSTORE SWAP4 DUP6 ADD MLOAD PUSH1 0x1 DUP1 DUP4 ADD DUP1 SLOAD SWAP1 SWAP7 AND SWAP2 SWAP1 SWAP5 AND OR SWAP1 SWAP4 SSTORE DUP4 ADD MLOAD PUSH1 0x2 DUP4 ADD SSTORE PUSH1 0x60 DUP4 ADD MLOAD PUSH1 0x3 DUP4 ADD DUP1 SLOAD SWAP5 SWAP6 POP DUP6 SWAP5 SWAP2 SWAP3 SWAP1 SWAP2 PUSH1 0xFF NOT AND SWAP1 DUP4 DUP2 DUP2 GT ISZERO PUSH2 0x3D4 JUMPI PUSH2 0x3D4 PUSH2 0xCEB JUMP JUMPDEST MUL OR SWAP1 SSTORE POP PUSH1 0x80 DUP3 ADD MLOAD DUP2 PUSH1 0x3 ADD PUSH1 0x1 PUSH2 0x100 EXP DUP2 SLOAD DUP2 PUSH1 0x1 PUSH1 0x1 PUSH1 0xA0 SHL SUB MUL NOT AND SWAP1 DUP4 PUSH1 0x1 PUSH1 0x1 PUSH1 0xA0 SHL SUB AND MUL OR SWAP1 SSTORE POP PUSH1 0xA0 DUP3 ADD MLOAD DUP2 PUSH1 0x4 ADD SSTORE PUSH1 0xC0 DUP3 ADD MLOAD DUP2 PUSH1 0x5 ADD PUSH1 0x0 PUSH2 0x100 EXP DUP2 SLOAD DUP2 PUSH1 0xFF MUL NOT AND SWAP1 DUP4 PUSH1 0x3 DUP2 GT ISZERO PUSH2 0x43A JUMPI PUSH2 0x43A PUSH2 0xCEB JUMP JUMPDEST MUL OR SWAP1 SSTORE POP PUSH1 0xE0 SWAP2 SWAP1 SWAP2 ADD MLOAD PUSH1 0x6 SWAP1 SWAP2 ADD SSTORE PUSH1 0x1 PUSH1 0x1 PUSH1 0xA0 SHL SUB DUP9 AND PUSH1 0x0 SWAP1 DUP2 MSTORE PUSH1 0x5 PUSH1 0x20 MSTORE PUSH1 0x40 DUP2 KECCAK256 DUP1 SLOAD SWAP2 PUSH2 0x470 DUP4 PUSH2 0xE0B JUMP JUMPDEST SWAP1 SWAP2 SSTORE POP POP PUSH1 0x40 DUP1 MLOAD PUSH1 0x1 PUSH1 0x1 PUSH1 0xA0 SHL SUB DUP11 DUP2 AND DUP3 MSTORE CALLER PUSH1 0x20 DUP4 ADD MSTORE DUP2 DUP4 ADD DUP11 SWAP1 MSTORE DUP9 AND PUSH1 0x60 DUP3 ADD MSTORE PUSH1 0x80 DUP2 ADD DUP5 SWAP1 MSTORE SWAP1 MLOAD PUSH32 0x457553AB13C39B6F49A907120F176DF56C556ECE5DD4369CC2EFB18CDBD5CB67 SWAP2 DUP2 SWAP1 SUB PUSH1 0xA0 ADD SWAP1 LOG1 POP POP PUSH2 0x4D8 PUSH1 0x1 PUSH1 0x0 SSTORE JUMP JUMPDEST POP POP POP POP POP POP JUMP JUMPDEST PUSH1 0x2 SLOAD PUSH1 0x40 MLOAD PUSH4 0x9EBD11EF PUSH1 0xE0 SHL DUP2 MSTORE CALLER PUSH1 0x4 DUP3 ADD MSTORE PUSH1 0x1 PUSH1 0x1 PUSH1 0xA0 SHL SUB SWAP1 SWAP2 AND SWAP1 PUSH4 0x9EBD11EF SWAP1 PUSH1 0x24 ADD PUSH1 0x20 PUSH1 0x40 MLOAD DUP1 DUP4 SUB DUP2 DUP7 GAS STATICCALL ISZERO DUP1 ISZERO PUSH2 0x528 JUMPI RETURNDATASIZE PUSH1 0x0 DUP1 RETURNDATACOPY RETURNDATASIZE PUSH1 0x0 REVERT JUMPDEST POP POP POP POP PUSH1 0x40 MLOAD RETURNDATASIZE PUSH1 0x1F NOT PUSH1 0x1F DUP3 ADD AND DUP3 ADD DUP1 PUSH1 0x40 MSTORE POP DUP2 ADD SWAP1 PUSH2 0x54C SWAP2 SWAP1 PUSH2 0xDBC JUMP JUMPDEST PUSH2 0x592 JUMPI PUSH1 0x40 MLOAD PUSH3 0x461BCD PUSH1 0xE5 SHL DUP2 MSTORE PUSH1 0x20 PUSH1 0x4 DUP3 ADD MSTORE PUSH1 0x17 PUSH1 0x24 DUP3 ADD MSTORE PUSH23 0x139BD919481A5CC81B9BDD081DDA1A5D195B1A5CDD1959 PUSH1 0x4A SHL PUSH1 0x44 DUP3 ADD MSTORE PUSH1 0x64 ADD PUSH2 0x278 JUMP JUMPDEST PUSH2 0x59A PUSH2 0xAD5 JUMP JUMPDEST PUSH1 0x1 PUSH1 0x1 PUSH1 0xA0 SHL SUB DUP3 AND PUSH1 0x0 SWAP1 DUP2 MSTORE PUSH1 0x4 PUSH1 0x20 SWAP1 DUP2 MSTORE PUSH1 0x40 DUP1 DUP4 KECCAK256 DUP5 DUP5 MSTORE SWAP1 SWAP2 MSTORE SWAP1 KECCAK256 PUSH1 0x2 PUSH1 0x5 DUP3 ADD SLOAD PUSH1 0xFF AND PUSH1 0x3 DUP2 GT ISZERO PUSH2 0x5D8 JUMPI PUSH2 0x5D8 PUSH2 0xCEB JUMP JUMPDEST EQ PUSH2 0x625 JUMPI PUSH1 0x40 MLOAD PUSH3 0x461BCD PUSH1 0xE5 SHL DUP2 MSTORE PUSH1 0x20 PUSH1 0x4 DUP3 ADD DUP2 SWAP1 MSTORE PUSH1 0x24 DUP3 ADD MSTORE PUSH32 0x53657373696F6E2072656365697074206973206E6F7420636F6E6669726D6564 PUSH1 0x44 DUP3 ADD MSTORE PUSH1 0x64 ADD PUSH2 0x278 JUMP JUMPDEST PUSH1 0x1 DUP2 ADD SLOAD PUSH1 0x1 PUSH1 0x1 PUSH1 0xA0 SHL SUB AND CALLER EQ PUSH2 0x691 JUMPI PUSH1 0x40 MLOAD PUSH3 0x461BCD PUSH1 0xE5 SHL DUP2 MSTORE PUSH1 0x20 PUSH1 0x4 DUP3 ADD MSTORE PUSH1 0x27 PUSH1 0x24 DUP3 ADD MSTORE PUSH32 0x53656E646572206973206E6F74206E6F646520696E2073657373696F6E277320 PUSH1 0x44 DUP3 ADD MSTORE PUSH7 0x1C9958D95A5C1D PUSH1 0xCA SHL PUSH1 0x64 DUP3 ADD MSTORE PUSH1 0x84 ADD PUSH2 0x278 JUMP JUMPDEST PUSH1 0x3 DUP1 SLOAD DUP3 SLOAD PUSH1 0x1 DUP5 ADD SLOAD PUSH1 0x2 DUP6 ADD SLOAD SWAP4 DUP6 ADD SLOAD PUSH1 0x4 DUP1 DUP8 ADD SLOAD PUSH1 0x40 MLOAD PUSH4 0x8365907 PUSH1 0xE0 SHL DUP2 MSTORE PUSH1 0x1 PUSH1 0x1 PUSH1 0xA0 SHL SUB SWAP6 DUP7 AND SWAP3 DUP2 ADD SWAP3 SWAP1 SWAP3 MSTORE SWAP3 DUP5 AND PUSH1 0x24 DUP3 ADD MSTORE PUSH1 0x44 DUP2 ADD SWAP6 SWAP1 SWAP6 MSTORE PUSH2 0x100 SWAP1 DIV DUP3 AND PUSH1 0x64 DUP6 ADD MSTORE PUSH1 0x84 DUP5 ADD MSTORE AND SWAP1 PUSH4 0x8365907 SWAP1 PUSH1 0xA4 ADD PUSH1 0x0 PUSH1 0x40 MLOAD DUP1 DUP4 SUB DUP2 PUSH1 0x0 DUP8 DUP1 EXTCODESIZE ISZERO DUP1 ISZERO PUSH2 0x710 JUMPI PUSH1 0x0 DUP1 REVERT JUMPDEST POP GAS CALL ISZERO DUP1 ISZERO PUSH2 0x724 JUMPI RETURNDATASIZE PUSH1 0x0 DUP1 RETURNDATACOPY RETURNDATASIZE PUSH1 0x0 REVERT JUMPDEST POP POP POP POP PUSH1 0x5 ADD DUP1 SLOAD PUSH1 0xFF NOT AND PUSH1 0x3 OR SWAP1 SSTORE PUSH1 0x1 PUSH1 0x0 SSTORE POP POP JUMP JUMPDEST PUSH2 0x747 PUSH2 0xB2E JUMP JUMPDEST PUSH2 0x751 PUSH1 0x0 PUSH2 0xB88 JUMP JUMPDEST JUMP JUMPDEST PUSH2 0x75B PUSH2 0xBDA JUMP JUMPDEST PUSH1 0x1 PUSH1 0x1 PUSH1 0xA0 SHL SUB DUP1 DUP5 AND PUSH1 0x0 SWAP1 DUP2 MSTORE PUSH1 0x4 PUSH1 0x20 SWAP1 DUP2 MSTORE PUSH1 0x40 DUP1 DUP4 KECCAK256 DUP7 DUP5 MSTORE DUP3 MSTORE SWAP2 DUP3 SWAP1 KECCAK256 DUP3 MLOAD PUSH2 0x100 DUP2 ADD DUP5 MSTORE DUP2 SLOAD DUP6 AND DUP2 MSTORE PUSH1 0x1 DUP1 DUP4 ADD SLOAD SWAP1 SWAP6 AND SWAP3 DUP2 ADD SWAP3 SWAP1 SWAP3 MSTORE PUSH1 0x2 DUP2 ADD SLOAD SWAP3 DUP3 ADD SWAP3 SWAP1 SWAP3 MSTORE PUSH1 0x3 DUP3 ADD SLOAD SWAP1 SWAP3 PUSH1 0x60 DUP5 ADD SWAP2 PUSH1 0xFF AND SWAP1 DUP2 GT ISZERO PUSH2 0x7CA JUMPI PUSH2 0x7CA PUSH2 0xCEB JUMP JUMPDEST PUSH1 0x1 DUP2 GT ISZERO PUSH2 0x7DB JUMPI PUSH2 0x7DB PUSH2 0xCEB JUMP JUMPDEST DUP2 MSTORE PUSH1 0x3 DUP3 DUP2 ADD SLOAD PUSH2 0x100 SWAP1 DIV PUSH1 0x1 PUSH1 0x1 PUSH1 0xA0 SHL SUB AND PUSH1 0x20 DUP4 ADD MSTORE PUSH1 0x4 DUP4 ADD SLOAD PUSH1 0x40 DUP4 ADD MSTORE PUSH1 0x5 DUP4 ADD SLOAD PUSH1 0x60 SWAP1 SWAP3 ADD SWAP2 PUSH1 0xFF AND SWAP1 DUP2 GT ISZERO PUSH2 0x81E JUMPI PUSH2 0x81E PUSH2 0xCEB JUMP JUMPDEST PUSH1 0x3 DUP2 GT ISZERO PUSH2 0x82F JUMPI PUSH2 0x82F PUSH2 0xCEB JUMP JUMPDEST DUP2 MSTORE PUSH1 0x20 ADD PUSH1 0x6 DUP3 ADD SLOAD DUP2 MSTORE POP POP SWAP1 POP JUMPDEST SWAP3 SWAP2 POP POP JUMP JUMPDEST PUSH2 0x84E PUSH2 0xAD5 JUMP JUMPDEST CALLER PUSH1 0x0 SWAP1 DUP2 MSTORE PUSH1 0x4 PUSH1 0x20 SWAP1 DUP2 MSTORE PUSH1 0x40 DUP1 DUP4 KECCAK256 DUP5 DUP5 MSTORE SWAP1 SWAP2 MSTORE SWAP1 KECCAK256 PUSH1 0x1 PUSH1 0x5 DUP3 ADD SLOAD PUSH1 0xFF AND PUSH1 0x3 DUP2 GT ISZERO PUSH2 0x883 JUMPI PUSH2 0x883 PUSH2 0xCEB JUMP JUMPDEST EQ PUSH2 0x8D0 JUMPI PUSH1 0x40 MLOAD PUSH3 0x461BCD PUSH1 0xE5 SHL DUP2 MSTORE PUSH1 0x20 PUSH1 0x4 DUP3 ADD MSTORE PUSH1 0x1E PUSH1 0x24 DUP3 ADD MSTORE PUSH32 0x53657373696F6E2072656365697074206973206E6F742070656E64696E670000 PUSH1 0x44 DUP3 ADD MSTORE PUSH1 0x64 ADD PUSH2 0x278 JUMP JUMPDEST PUSH1 0x5 DUP2 ADD DUP1 SLOAD PUSH1 0xFF NOT AND PUSH1 0x2 OR SWAP1 SSTORE DUP1 SLOAD PUSH1 0x1 DUP3 ADD SLOAD PUSH1 0x6 DUP4 ADD SLOAD PUSH1 0x40 DUP1 MLOAD PUSH1 0x1 PUSH1 0x1 PUSH1 0xA0 SHL SUB SWAP5 DUP6 AND DUP2 MSTORE SWAP4 SWAP1 SWAP3 AND PUSH1 0x20 DUP5 ADD MSTORE SWAP1 DUP3 ADD MSTORE PUSH32 0xD56648885E56047E04B1F631DE6AFAA1F1B81EEEB672BA27EBAAFE44DB00C1E6 SWAP1 PUSH1 0x60 ADD PUSH1 0x40 MLOAD DUP1 SWAP2 SUB SWAP1 LOG1 POP PUSH2 0x941 PUSH1 0x1 PUSH1 0x0 SSTORE JUMP JUMPDEST POP JUMP JUMPDEST PUSH2 0x94C PUSH2 0xBDA JUMP JUMPDEST PUSH1 0x1 PUSH1 0x1 PUSH1 0xA0 SHL SUB DUP3 AND PUSH1 0x0 SWAP1 DUP2 MSTORE PUSH1 0x5 PUSH1 0x20 MSTORE PUSH1 0x40 DUP2 KECCAK256 SLOAD PUSH2 0x971 SWAP1 PUSH1 0x1 SWAP1 PUSH2 0xE24 JUMP JUMPDEST PUSH1 0x1 PUSH1 0x1 PUSH1 0xA0 SHL SUB DUP1 DUP6 AND PUSH1 0x0 SWAP1 DUP2 MSTORE PUSH1 0x4 PUSH1 0x20 SWAP1 DUP2 MSTORE PUSH1 0x40 DUP1 DUP4 KECCAK256 DUP6 DUP5 MSTORE DUP3 MSTORE SWAP2 DUP3 SWAP1 KECCAK256 DUP3 MLOAD PUSH2 0x100 DUP2 ADD DUP5 MSTORE DUP2 SLOAD DUP6 AND DUP2 MSTORE PUSH1 0x1 DUP1 DUP4 ADD SLOAD SWAP1 SWAP6 AND SWAP3 DUP2 ADD SWAP3 SWAP1 SWAP3 MSTORE PUSH1 0x2 DUP2 ADD SLOAD SWAP3 DUP3 ADD SWAP3 SWAP1 SWAP3 MSTORE PUSH1 0x3 DUP3 ADD SLOAD SWAP4 SWAP5 POP SWAP3 SWAP1 SWAP2 PUSH1 0x60 DUP5 ADD SWAP2 PUSH1 0xFF AND SWAP1 DUP2 GT ISZERO PUSH2 0x9E4 JUMPI PUSH2 0x9E4 PUSH2 0xCEB JUMP JUMPDEST PUSH1 0x1 DUP2 GT ISZERO PUSH2 0x9F5 JUMPI PUSH2 0x9F5 PUSH2 0xCEB JUMP JUMPDEST DUP2 MSTORE PUSH1 0x3 DUP3 DUP2 ADD SLOAD PUSH2 0x100 SWAP1 DIV PUSH1 0x1 PUSH1 0x1 PUSH1 0xA0 SHL SUB AND PUSH1 0x20 DUP4 ADD MSTORE PUSH1 0x4 DUP4 ADD SLOAD PUSH1 0x40 DUP4 ADD MSTORE PUSH1 0x5 DUP4 ADD SLOAD PUSH1 0x60 SWAP1 SWAP3 ADD SWAP2 PUSH1 0xFF AND SWAP1 DUP2 GT ISZERO PUSH2 0xA38 JUMPI PUSH2 0xA38 PUSH2 0xCEB JUMP JUMPDEST PUSH1 0x3 DUP2 GT ISZERO PUSH2 0xA49 JUMPI PUSH2 0xA49 PUSH2 0xCEB JUMP JUMPDEST DUP2 MSTORE PUSH1 0x20 ADD PUSH1 0x6 DUP3 ADD SLOAD DUP2 MSTORE POP POP SWAP2 POP POP SWAP2 SWAP1 POP JUMP JUMPDEST PUSH2 0xA67 PUSH2 0xB2E JUMP JUMPDEST PUSH1 0x1 PUSH1 0x1 PUSH1 0xA0 SHL SUB DUP2 AND PUSH2 0xACC JUMPI PUSH1 0x40 MLOAD PUSH3 0x461BCD PUSH1 0xE5 SHL DUP2 MSTORE PUSH1 0x20 PUSH1 0x4 DUP3 ADD MSTORE PUSH1 0x26 PUSH1 0x24 DUP3 ADD MSTORE PUSH32 0x4F776E61626C653A206E6577206F776E657220697320746865207A65726F2061 PUSH1 0x44 DUP3 ADD MSTORE PUSH6 0x646472657373 PUSH1 0xD0 SHL PUSH1 0x64 DUP3 ADD MSTORE PUSH1 0x84 ADD PUSH2 0x278 JUMP JUMPDEST PUSH2 0x941 DUP2 PUSH2 0xB88 JUMP JUMPDEST PUSH1 0x2 PUSH1 0x0 SLOAD SUB PUSH2 0xB27 JUMPI PUSH1 0x40 MLOAD PUSH3 0x461BCD PUSH1 0xE5 SHL DUP2 MSTORE PUSH1 0x20 PUSH1 0x4 DUP3 ADD MSTORE PUSH1 0x1F PUSH1 0x24 DUP3 ADD MSTORE PUSH32 0x5265656E7472616E637947756172643A207265656E7472616E742063616C6C00 PUSH1 0x44 DUP3 ADD MSTORE PUSH1 0x64 ADD PUSH2 0x278 JUMP JUMPDEST PUSH1 0x2 PUSH1 0x0 SSTORE JUMP JUMPDEST PUSH1 0x1 SLOAD PUSH1 0x1 PUSH1 0x1 PUSH1 0xA0 SHL SUB AND CALLER EQ PUSH2 0x751 JUMPI PUSH1 0x40 MLOAD PUSH3 0x461BCD PUSH1 0xE5 SHL DUP2 MSTORE PUSH1 0x20 PUSH1 0x4 DUP3 ADD DUP2 SWAP1 MSTORE PUSH1 0x24 DUP3 ADD MSTORE PUSH32 0x4F776E61626C653A2063616C6C6572206973206E6F7420746865206F776E6572 PUSH1 0x44 DUP3 ADD MSTORE PUSH1 0x64 ADD PUSH2 0x278 JUMP JUMPDEST PUSH1 0x1 DUP1 SLOAD PUSH1 0x1 PUSH1 0x1 PUSH1 0xA0 SHL SUB DUP4 DUP2 AND PUSH1 0x1 PUSH1 0x1 PUSH1 0xA0 SHL SUB NOT DUP4 AND DUP2 OR SWAP1 SWAP4 SSTORE PUSH1 0x40 MLOAD SWAP2 AND SWAP2 SWAP1 DUP3 SWAP1 PUSH32 0x8BE0079C531659141344CD1FD0A4F28419497F9722A3DAAFE3B4186F6B6457E0 SWAP1 PUSH1 0x0 SWAP1 LOG3 POP POP JUMP JUMPDEST PUSH1 0x40 DUP1 MLOAD PUSH2 0x100 DUP2 ADD DUP3 MSTORE PUSH1 0x0 DUP1 DUP3 MSTORE PUSH1 0x20 DUP3 ADD DUP2 SWAP1 MSTORE SWAP2 DUP2 ADD DUP3 SWAP1 MSTORE PUSH1 0x60 DUP2 ADD DUP3 SWAP1 MSTORE PUSH1 0x80 DUP2 ADD DUP3 SWAP1 MSTORE PUSH1 0xA0 DUP2 ADD DUP3 SWAP1 MSTORE PUSH1 0xC0 DUP2 ADD DUP3 SWAP1 MSTORE PUSH1 0xE0 DUP2 ADD SWAP2 SWAP1 SWAP2 MSTORE SWAP1 JUMP JUMPDEST DUP1 CALLDATALOAD PUSH1 0x1 PUSH1 0x1 PUSH1 0xA0 SHL SUB DUP2 AND DUP2 EQ PUSH2 0xC35 JUMPI PUSH1 0x0 DUP1 REVERT JUMPDEST SWAP2 SWAP1 POP JUMP JUMPDEST PUSH1 0x0 PUSH1 0x20 DUP3 DUP5 SUB SLT ISZERO PUSH2 0xC4C JUMPI PUSH1 0x0 DUP1 REVERT JUMPDEST PUSH2 0xC55 DUP3 PUSH2 0xC1E JUMP JUMPDEST SWAP4 SWAP3 POP POP POP JUMP JUMPDEST PUSH1 0x0 DUP1 PUSH1 0x0 DUP1 PUSH1 0x0 DUP1 PUSH1 0xC0 DUP8 DUP10 SUB SLT ISZERO PUSH2 0xC75 JUMPI PUSH1 0x0 DUP1 REVERT JUMPDEST PUSH2 0xC7E DUP8 PUSH2 0xC1E JUMP JUMPDEST SWAP6 POP PUSH1 0x20 DUP8 ADD CALLDATALOAD SWAP5 POP PUSH2 0xC93 PUSH1 0x40 DUP9 ADD PUSH2 0xC1E JUMP JUMPDEST SWAP4 POP PUSH1 0x60 DUP8 ADD CALLDATALOAD PUSH1 0x2 DUP2 LT PUSH2 0xCA7 JUMPI PUSH1 0x0 DUP1 REVERT JUMPDEST SWAP6 SWAP9 SWAP5 SWAP8 POP SWAP3 SWAP6 PUSH1 0x80 DUP2 ADD CALLDATALOAD SWAP5 PUSH1 0xA0 SWAP1 SWAP2 ADD CALLDATALOAD SWAP4 POP SWAP2 POP POP JUMP JUMPDEST PUSH1 0x0 DUP1 PUSH1 0x40 DUP4 DUP6 SUB SLT ISZERO PUSH2 0xCD4 JUMPI PUSH1 0x0 DUP1 REVERT JUMPDEST PUSH2 0xCDD DUP4 PUSH2 0xC1E JUMP JUMPDEST SWAP5 PUSH1 0x20 SWAP4 SWAP1 SWAP4 ADD CALLDATALOAD SWAP4 POP POP POP JUMP JUMPDEST PUSH4 0x4E487B71 PUSH1 0xE0 SHL PUSH1 0x0 MSTORE PUSH1 0x21 PUSH1 0x4 MSTORE PUSH1 0x24 PUSH1 0x0 REVERT JUMPDEST PUSH1 0x4 DUP2 LT PUSH2 0xD11 JUMPI PUSH2 0xD11 PUSH2 0xCEB JUMP JUMPDEST SWAP1 MSTORE JUMP JUMPDEST DUP2 MLOAD PUSH1 0x1 PUSH1 0x1 PUSH1 0xA0 SHL SUB SWAP1 DUP2 AND DUP3 MSTORE PUSH1 0x20 DUP1 DUP5 ADD MLOAD SWAP1 SWAP2 AND SWAP1 DUP3 ADD MSTORE PUSH1 0x40 DUP1 DUP4 ADD MLOAD SWAP1 DUP3 ADD MSTORE PUSH1 0x60 DUP3 ADD MLOAD PUSH2 0x100 DUP3 ADD SWAP1 PUSH1 0x2 DUP2 LT PUSH2 0xD56 JUMPI PUSH2 0xD56 PUSH2 0xCEB JUMP JUMPDEST DUP1 PUSH1 0x60 DUP5 ADD MSTORE POP PUSH1 0x80 DUP4 ADD MLOAD PUSH2 0xD77 PUSH1 0x80 DUP5 ADD DUP3 PUSH1 0x1 PUSH1 0x1 PUSH1 0xA0 SHL SUB AND SWAP1 MSTORE JUMP JUMPDEST POP PUSH1 0xA0 DUP4 ADD MLOAD PUSH1 0xA0 DUP4 ADD MSTORE PUSH1 0xC0 DUP4 ADD MLOAD PUSH2 0xD94 PUSH1 0xC0 DUP5 ADD DUP3 PUSH2 0xD01 JUMP JUMPDEST POP PUSH1 0xE0 SWAP3 DUP4 ADD MLOAD SWAP2 SWAP1 SWAP3 ADD MSTORE SWAP1 JUMP JUMPDEST PUSH1 0x0 PUSH1 0x20 DUP3 DUP5 SUB SLT ISZERO PUSH2 0xDB5 JUMPI PUSH1 0x0 DUP1 REVERT JUMPDEST POP CALLDATALOAD SWAP2 SWAP1 POP JUMP JUMPDEST PUSH1 0x0 PUSH1 0x20 DUP3 DUP5 SUB SLT ISZERO PUSH2 0xDCE JUMPI PUSH1 0x0 DUP1 REVERT JUMPDEST DUP2 MLOAD DUP1 ISZERO ISZERO DUP2 EQ PUSH2 0xC55 JUMPI PUSH1 0x0 DUP1 REVERT JUMPDEST PUSH4 0x4E487B71 PUSH1 0xE0 SHL PUSH1 0x0 MSTORE PUSH1 0x11 PUSH1 0x4 MSTORE PUSH1 0x24 PUSH1 0x0 REVERT JUMPDEST DUP1 DUP3 MUL DUP2 ISZERO DUP3 DUP3 DIV DUP5 EQ OR PUSH2 0x840 JUMPI PUSH2 0x840 PUSH2 0xDDE JUMP JUMPDEST PUSH1 0x0 PUSH1 0x1 DUP3 ADD PUSH2 0xE1D JUMPI PUSH2 0xE1D PUSH2 0xDDE JUMP JUMPDEST POP PUSH1 0x1 ADD SWAP1 JUMP JUMPDEST DUP2 DUP2 SUB DUP2 DUP2 GT ISZERO PUSH2 0x840 JUMPI PUSH2 0x840 PUSH2 0xDDE JUMP INVALID LOG2 PUSH5 0x6970667358 0x22 SLT KECCAK256 PUSH24 0x40DE7584022D8A02CEB11A77EDDA38E5FE08A7F78F5D41E0 ADDMOD 0xD0 MSTORE8 0xBC SGT 0xF9 CALLDATACOPY PUSH5 0x736F6C6343 STOP ADDMOD SHR STOP CALLER "},"methodIdentifiers":{"confirmSessionReceipt(uint256)":"e5483f5c","createSessionReceipt(address,uint256,address,uint8,uint256,uint256)":"45c19274","getLatestReceipt(address)":"f2f8f940","getNonce(address)":"2d0335ab","getSessionReceipt(address,uint256)":"8eb59f8b","nodesStorage()":"e244c4ff","owner()":"8da5cb5b","redeemReceipt(address,uint256)":"55d3c58a","renounceOwnership()":"715018a6","transferOwnership(address)":"f2fde38b","usageDepositor()":"64cf88c2"}}}}}