{
  "_format": "hh-sol-artifact-1",
  "contractName": "AuctionVault",
  "sourceName": "contracts/AuctionVault.sol",
  "abi": [
    {
      "inputs": [
        {
          "internalType": "address",
          "name": "_operator",
          "type": "address"
        }
      ],
      "stateMutability": "nonpayable",
      "type": "constructor"
    },
    {
      "anonymous": false,
      "inputs": [
        {
          "indexed": true,
          "internalType": "bytes32",
          "name": "auctionHash",
          "type": "bytes32"
        },
        {
          "indexed": true,
          "internalType": "address",
          "name": "bidder",
          "type": "address"
        },
        {
          "indexed": false,
          "internalType": "uint256",
          "name": "amount",
          "type": "uint256"
        },
        {
          "indexed": false,
          "internalType": "address",
          "name": "token",
          "type": "address"
        }
      ],
      "name": "Deposited",
      "type": "event"
    },
    {
      "anonymous": false,
      "inputs": [
        {
          "indexed": true,
          "internalType": "bytes32",
          "name": "auctionHash",
          "type": "bytes32"
        },
        {
          "indexed": true,
          "internalType": "address",
          "name": "bidder",
          "type": "address"
        },
        {
          "indexed": false,
          "internalType": "uint256",
          "name": "amount",
          "type": "uint256"
        },
        {
          "indexed": false,
          "internalType": "address",
          "name": "token",
          "type": "address"
        }
      ],
      "name": "EmergencyWithdrawal",
      "type": "event"
    },
    {
      "anonymous": false,
      "inputs": [
        {
          "indexed": true,
          "internalType": "bytes32",
          "name": "auctionHash",
          "type": "bytes32"
        },
        {
          "indexed": true,
          "internalType": "address",
          "name": "seller",
          "type": "address"
        },
        {
          "indexed": false,
          "internalType": "uint256",
          "name": "amount",
          "type": "uint256"
        },
        {
          "indexed": false,
          "internalType": "address",
          "name": "token",
          "type": "address"
        }
      ],
      "name": "Finalized",
      "type": "event"
    },
    {
      "anonymous": false,
      "inputs": [
        {
          "indexed": true,
          "internalType": "address",
          "name": "previousOwner",
          "type": "address"
        },
        {
          "indexed": true,
          "internalType": "address",
          "name": "newOwner",
          "type": "address"
        }
      ],
      "name": "OwnershipTransferred",
      "type": "event"
    },
    {
      "anonymous": false,
      "inputs": [
        {
          "indexed": false,
          "internalType": "address",
          "name": "account",
          "type": "address"
        }
      ],
      "name": "Paused",
      "type": "event"
    },
    {
      "anonymous": false,
      "inputs": [
        {
          "indexed": true,
          "internalType": "bytes32",
          "name": "auctionHash",
          "type": "bytes32"
        },
        {
          "indexed": true,
          "internalType": "address",
          "name": "bidder",
          "type": "address"
        },
        {
          "indexed": false,
          "internalType": "uint256",
          "name": "amount",
          "type": "uint256"
        },
        {
          "indexed": false,
          "internalType": "address",
          "name": "token",
          "type": "address"
        }
      ],
      "name": "Refunded",
      "type": "event"
    },
    {
      "anonymous": false,
      "inputs": [
        {
          "indexed": false,
          "internalType": "address",
          "name": "account",
          "type": "address"
        }
      ],
      "name": "Unpaused",
      "type": "event"
    },
    {
      "anonymous": false,
      "inputs": [
        {
          "indexed": false,
          "internalType": "address",
          "name": "oldoperator",
          "type": "address"
        },
        {
          "indexed": false,
          "internalType": "address",
          "name": "newoperator",
          "type": "address"
        }
      ],
      "name": "operatorUpdated",
      "type": "event"
    },
    {
      "inputs": [
        {
          "internalType": "bytes32",
          "name": "auctionHash",
          "type": "bytes32"
        },
        {
          "internalType": "address",
          "name": "bidder",
          "type": "address"
        },
        {
          "internalType": "address",
          "name": "token",
          "type": "address"
        },
        {
          "internalType": "uint256",
          "name": "amount",
          "type": "uint256"
        }
      ],
      "name": "deposit",
      "outputs": [],
      "stateMutability": "payable",
      "type": "function"
    },
    {
      "inputs": [
        {
          "internalType": "address",
          "name": "",
          "type": "address"
        },
        {
          "internalType": "bytes32",
          "name": "",
          "type": "bytes32"
        }
      ],
      "name": "deposits",
      "outputs": [
        {
          "internalType": "address",
          "name": "bidder",
          "type": "address"
        },
        {
          "internalType": "address",
          "name": "token",
          "type": "address"
        },
        {
          "internalType": "uint256",
          "name": "amount",
          "type": "uint256"
        },
        {
          "internalType": "bool",
          "name": "refunded",
          "type": "bool"
        },
        {
          "internalType": "uint256",
          "name": "depositTime",
          "type": "uint256"
        }
      ],
      "stateMutability": "view",
      "type": "function"
    },
    {
      "inputs": [
        {
          "internalType": "bytes32",
          "name": "auctionHash",
          "type": "bytes32"
        }
      ],
      "name": "emergencyWithdraw",
      "outputs": [],
      "stateMutability": "nonpayable",
      "type": "function"
    },
    {
      "inputs": [],
      "name": "emergencyWithdrawalDelay",
      "outputs": [
        {
          "internalType": "uint256",
          "name": "",
          "type": "uint256"
        }
      ],
      "stateMutability": "view",
      "type": "function"
    },
    {
      "inputs": [
        {
          "internalType": "bytes32",
          "name": "auctionHash",
          "type": "bytes32"
        },
        {
          "internalType": "address",
          "name": "seller",
          "type": "address"
        },
        {
          "internalType": "address",
          "name": "bidder",
          "type": "address"
        }
      ],
      "name": "finalize",
      "outputs": [],
      "stateMutability": "nonpayable",
      "type": "function"
    },
    {
      "inputs": [
        {
          "internalType": "address",
          "name": "bidder",
          "type": "address"
        },
        {
          "internalType": "bytes32",
          "name": "auctionHash",
          "type": "bytes32"
        }
      ],
      "name": "getDeposit",
      "outputs": [
        {
          "internalType": "address",
          "name": "_bidder",
          "type": "address"
        },
        {
          "internalType": "address",
          "name": "_token",
          "type": "address"
        },
        {
          "internalType": "uint256",
          "name": "_amount",
          "type": "uint256"
        },
        {
          "internalType": "bool",
          "name": "_refunded",
          "type": "bool"
        },
        {
          "internalType": "uint256",
          "name": "_depositTime",
          "type": "uint256"
        }
      ],
      "stateMutability": "view",
      "type": "function"
    },
    {
      "inputs": [
        {
          "internalType": "address",
          "name": "bidder",
          "type": "address"
        },
        {
          "internalType": "bytes32",
          "name": "auctionHash",
          "type": "bytes32"
        }
      ],
      "name": "hasDeposit",
      "outputs": [
        {
          "internalType": "bool",
          "name": "",
          "type": "bool"
        }
      ],
      "stateMutability": "view",
      "type": "function"
    },
    {
      "inputs": [],
      "name": "operator",
      "outputs": [
        {
          "internalType": "address",
          "name": "",
          "type": "address"
        }
      ],
      "stateMutability": "view",
      "type": "function"
    },
    {
      "inputs": [],
      "name": "owner",
      "outputs": [
        {
          "internalType": "address",
          "name": "",
          "type": "address"
        }
      ],
      "stateMutability": "view",
      "type": "function"
    },
    {
      "inputs": [],
      "name": "pause",
      "outputs": [],
      "stateMutability": "nonpayable",
      "type": "function"
    },
    {
      "inputs": [],
      "name": "paused",
      "outputs": [
        {
          "internalType": "bool",
          "name": "",
          "type": "bool"
        }
      ],
      "stateMutability": "view",
      "type": "function"
    },
    {
      "inputs": [
        {
          "internalType": "bytes32",
          "name": "auctionHash",
          "type": "bytes32"
        },
        {
          "internalType": "address",
          "name": "bidder",
          "type": "address"
        }
      ],
      "name": "refund",
      "outputs": [],
      "stateMutability": "nonpayable",
      "type": "function"
    },
    {
      "inputs": [],
      "name": "renounceOwnership",
      "outputs": [],
      "stateMutability": "nonpayable",
      "type": "function"
    },
    {
      "inputs": [
        {
          "internalType": "uint256",
          "name": "_delay",
          "type": "uint256"
        }
      ],
      "name": "setEmergencyWithdrawalDelay",
      "outputs": [],
      "stateMutability": "nonpayable",
      "type": "function"
    },
    {
      "inputs": [
        {
          "internalType": "address",
          "name": "_operator",
          "type": "address"
        }
      ],
      "name": "setOperator",
      "outputs": [],
      "stateMutability": "nonpayable",
      "type": "function"
    },
    {
      "inputs": [
        {
          "internalType": "address",
          "name": "newOwner",
          "type": "address"
        }
      ],
      "name": "transferOwnership",
      "outputs": [],
      "stateMutability": "nonpayable",
      "type": "function"
    },
    {
      "inputs": [],
      "name": "unpause",
      "outputs": [],
      "stateMutability": "nonpayable",
      "type": "function"
    }
  ],
  "bytecode": "0x60803461011257601f6112a938819003918201601f19168301916001600160401b038311848410176101175780849260209460405283398101031261011257516001600160a01b038116908181036101125760008054336001600160a01b03198216811783556040519290916001600160a01b0316907f8be0079c531659141344cd1fd0a4f28419497f9722a3daafe3b4186f6b6457e09080a3600180556002549262278d00600355156100dd57506001600160a81b031990911660089190911b610100600160a81b03161760025560405161117b908161012e8239f35b62461bcd60e51b815260206004820152601060248201526f24b73b30b634b21037b832b930ba37b960811b6044820152606490fd5b600080fd5b634e487b7160e01b600052604160045260246000fdfe608080604052600436101561001357600080fd5b60003560e01c9081631485d29714610c73575080632260a9c214610be85780633f4ba83a14610b5457806345b4032c14610a045780634a7958f414610980578063570ca735146109535780635b6e1b99146109325780635c975abb1461090f578063705e6267146107c0578063715018a61461076757806375870d65146105cc5780638456cb59146105725780638da5cb5b14610549578063b3ab15fb1461047d578063b4f740311461045f578063e5eb9584146101a65763f2fde38b146100da57600080fd5b346101a15760203660031901126101a1576100f3610cfa565b6100fb610e17565b6001600160a01b0316801561014d57600080546001600160a01b03198116831782556001600160a01b0316907f8be0079c531659141344cd1fd0a4f28419497f9722a3daafe3b4186f6b6457e09080a3005b60405162461bcd60e51b815260206004820152602660248201527f4f776e61626c653a206e6577206f776e657220697320746865207a65726f206160448201526564647265737360d01b6064820152608490fd5b600080fd5b60803660031901126101a1576004356101bd610d10565b906101c6610d26565b91606435906101e360018060a01b0360025460081c163314610d3c565b6101eb610e6f565b6101f3610f07565b6001600160a01b03169283156104295781156103f6578360005260046020526040600020836000526020526002604060002001546103c0576001600160a01b038116918261038157803403610346575b60405160a0810181811067ffffffffffffffff821117610330576040908152868252602080830195865282820184815260006060850181815242608087019081528b835260048086528684208c8552865292869020965187546001600160a01b039182166001600160a01b03199182161789559a5160018901805491831691909c1617909a55925160028701555160038601805460ff191691151560ff169190911790559051930192909255805192835292909316928101929092527fcf76814c80fa0eff10d850b9e71cc4fd19f769cf953ac349a62982bfea63299d9190819081015b0390a360018055005b634e487b7160e01b600052604160045260246000fd5b60405162461bcd60e51b8152602060048201526013602482015272496e636f7272656374206d73672e76616c756560681b6044820152606490fd5b6103bb6040516323b872dd60e01b6020820152866024820152306044820152826064820152606481526103b5608482610df5565b84610f4b565b610243565b60405162461bcd60e51b815260206004820152600e60248201526d4465706f7369742065786973747360901b6044820152606490fd5b60405162461bcd60e51b815260206004820152600b60248201526a16995c9bc8185b5bdd5b9d60aa1b6044820152606490fd5b60405162461bcd60e51b815260206004820152600e60248201526d24b73b30b634b2103134b23232b960911b6044820152606490fd5b346101a15760003660031901126101a1576020600354604051908152f35b346101a15760203660031901126101a157610496610cfa565b61049e610e17565b6001600160a01b03811680156105125760028054610100600160a81b03198116600894851b610100600160a81b031617909155604080519190931c6001600160a01b0316815260208101919091527f167d9c7dda9513a9a3d7fe7eed4c93154b31865c9e274d6a439dadac791ee26e9190a1005b60405162461bcd60e51b815260206004820152600f60248201526e496e76616c6964206164647265737360881b6044820152606490fd5b346101a15760003660031901126101a1576000546040516001600160a01b039091168152602090f35b346101a15760003660031901126101a15761058b610e17565b610593610f07565b600160ff1960025416176002557f62e78cea01bee320cd4e420270b5ea74000d11b0c9f74754ebdbfc544b05a2586020604051338152a1005b346101a15760203660031901126101a1576004356105e8610e6f565b3360005260046020526040600020816000526020526040600020906002820154918215906106168215610d77565b600381019081549161062b60ff841615610db6565b600482015460035481018091116107515742111561070c57600160ff19939093168317905501546001600160a01b0316908390826106d6576000906106cd575b600080809381933390f1156106c1576103277fce3c897bf99cce2515c97e97bb6b27843b0867f9207c37ce6a59450b9ea79955915b604080519586526001600160a01b0390911660208601523394918291820190565b6040513d6000823e3d90fd5b506108fc61066b565b507fce3c897bf99cce2515c97e97bb6b27843b0867f9207c37ce6a59450b9ea7995591610707610327923383610ec5565b6106a0565b60405162461bcd60e51b815260206004820152601860248201527f5769746864726177616c2064656c6179206e6f74206d657400000000000000006044820152606490fd5b634e487b7160e01b600052601160045260246000fd5b346101a15760003660031901126101a157610780610e17565b600080546001600160a01b0319811682556001600160a01b03167f8be0079c531659141344cd1fd0a4f28419497f9722a3daafe3b4186f6b6457e08280a3005b346101a15760603660031901126101a1576004356107dc610d10565b906107e5610d26565b6107fd60018060a01b0360025460081c163314610d3c565b610805610e6f565b60018060a01b031660005260046020526040600020816000526020526040600020916002830154928380159161083b8315610d77565b600381016001815461085060ff821615610db6565b60ff1916179055600101546001600160a01b031691826108dc576000906108d3575b6000918291829182916001600160a01b03881690f1156106c1577ff4ff05db8b6657b9925a354bd371d2cbf3230a45e89c356f1c6ab10125ed2269915b604080519586526001600160a01b0392831660208701529116939081908101610327565b506108fc610872565b509161090a7ff4ff05db8b6657b9925a354bd371d2cbf3230a45e89c356f1c6ab10125ed2269938284610ec5565b6108af565b346101a15760003660031901126101a157602060ff600254166040519015158152f35b346101a15760203660031901126101a15761094b610e17565b600435600355005b346101a15760003660031901126101a15760025460405160089190911c6001600160a01b03168152602090f35b346101a15760403660031901126101a157610999610cfa565b6024359060018060a01b0316806000526004602052604060002082600052602052600260406000200154151590816109d9575b6020826040519015158152f35b90506000526004602052604060002090600052602052602060ff6003604060002001541615826109cc565b346101a15760403660031901126101a157600435610a20610d10565b610a3860018060a01b0360025460081c163314610d3c565b610a40610e6f565b60018060a01b031660005260046020526040600020816000526020526040600020906002820154918215610a748115610d77565b6003820160018154610a8960ff821615610db6565b60ff191617905560018201546001600160a01b031690849082610b16576000808093819360018060a01b03885416908390610b0d575bf1156106c1577f684124fe07c7e7d736370cfbc8905ea5ae8cc20708f029683464a4d4e8e0631e915b54604080519586526001600160a01b0392831660208701529116939081908101610327565b506108fc610abf565b5082547f684124fe07c7e7d736370cfbc8905ea5ae8cc20708f029683464a4d4e8e0631e9391610b4f916001600160a01b031684610ec5565b610ae8565b346101a15760003660031901126101a157610b6d610e17565b60025460ff811615610bac5760ff19166002557f5db9ee0a495bf2e6ff9c91a7834c1ba4fdd244a5e8aa4e537bd38aeae4b073aa6020604051338152a1005b60405162461bcd60e51b815260206004820152601460248201527314185d5cd8589b194e881b9bdd081c185d5cd95960621b6044820152606490fd5b346101a15760403660031901126101a1576001600160a01b03610c09610cfa565b16600090815260046020818152604080842060243585528252928390208054600182015460028301546003840154939095015486516001600160a01b03938416815292909116938201939093529384019290925260ff90911615156060830152608082015260a090f35b346101a15760403660031901126101a1576001600160a01b03610c94610cfa565b1660009081526004602081815260408084206024358552825292839020805460018201546002830154600384015493909501546001600160a01b0392831688529116928601929092529284019190915260ff90911615156060830152608082015260a090f35b600435906001600160a01b03821682036101a157565b602435906001600160a01b03821682036101a157565b604435906001600160a01b03821682036101a157565b15610d4357565b60405162461bcd60e51b815260206004820152600c60248201526b2737ba1037b832b930ba37b960a11b6044820152606490fd5b15610d7e57565b60405162461bcd60e51b815260206004820152601060248201526f139bc819195c1bdcda5d08199bdd5b9960821b6044820152606490fd5b15610dbd57565b60405162461bcd60e51b815260206004820152601060248201526f105b1c9958591e481c99599d5b99195960821b6044820152606490fd5b90601f8019910116810190811067ffffffffffffffff82111761033057604052565b6000546001600160a01b03163303610e2b57565b606460405162461bcd60e51b815260206004820152602060248201527f4f776e61626c653a2063616c6c6572206973206e6f7420746865206f776e65726044820152fd5b600260015414610e80576002600155565b60405162461bcd60e51b815260206004820152601f60248201527f5265656e7472616e637947756172643a207265656e7472616e742063616c6c006044820152606490fd5b60405163a9059cbb60e01b60208201526001600160a01b039092166024830152604480830193909352918152610f0591610f00606483610df5565b610f4b565b565b60ff60025416610f1357565b60405162461bcd60e51b815260206004820152601060248201526f14185d5cd8589b194e881c185d5cd95960821b6044820152606490fd5b60018060a01b0316604091600080845192610f668685610df5565b602084527f5361666545524332303a206c6f772d6c6576656c2063616c6c206661696c6564602085015260208151910182865af13d1561106c573d9067ffffffffffffffff8211610330578451610fdc949092610fcd601f8201601f191660200185610df5565b83523d6000602085013e611075565b8051908115918215611049575b505015610ff35750565b5162461bcd60e51b815260206004820152602a60248201527f5361666545524332303a204552433230206f7065726174696f6e20646964206e6044820152691bdd081cdd58d8d9595960b21b6064820152608490fd5b81925090602091810103126101a1576020015180151581036101a1573880610fe9565b91610fdc926060915b919290156110d75750815115611089575090565b3b156110925790565b60405162461bcd60e51b815260206004820152601d60248201527f416464726573733a2063616c6c20746f206e6f6e2d636f6e74726163740000006044820152606490fd5b8251909150156110ea5750805190602001fd5b6040519062461bcd60e51b8252602060048301528181519182602483015260005b83811061112d5750508160006044809484010152601f80199101168101030190fd5b6020828201810151604487840101528593500161110b56fea264697066735822122043b5e826c918f543e29df30a7732a25224a6952c66840ca444050d49b881314f64736f6c634300081c0033",
  "linkReferences": {},
  "deployedLinkReferences": {}
}