{
  "_format": "hh-sol-artifact-1",
  "contractName": "NodesStorage",
  "sourceName": "contracts/nodes storage/NodesStorage.sol",
  "abi": [
    {
      "inputs": [
        {
          "internalType": "address[]",
          "name": "initialNodes",
          "type": "address[]"
        }
      ],
      "stateMutability": "nonpayable",
      "type": "constructor"
    },
    {
      "anonymous": false,
      "inputs": [
        {
          "indexed": true,
          "internalType": "address",
          "name": "node",
          "type": "address"
        }
      ],
      "name": "NodeAdded",
      "type": "event"
    },
    {
      "anonymous": false,
      "inputs": [
        {
          "indexed": true,
          "internalType": "address",
          "name": "node",
          "type": "address"
        }
      ],
      "name": "NodeRemoved",
      "type": "event"
    },
    {
      "anonymous": false,
      "inputs": [
        {
          "indexed": true,
          "internalType": "address",
          "name": "previousOwner",
          "type": "address"
        },
        {
          "indexed": true,
          "internalType": "address",
          "name": "newOwner",
          "type": "address"
        }
      ],
      "name": "OwnershipTransferred",
      "type": "event"
    },
    {
      "inputs": [
        {
          "internalType": "address[]",
          "name": "newNodes",
          "type": "address[]"
        }
      ],
      "name": "addNodes",
      "outputs": [],
      "stateMutability": "nonpayable",
      "type": "function"
    },
    {
      "inputs": [],
      "name": "getTotalValidNodes",
      "outputs": [
        {
          "internalType": "uint256",
          "name": "total",
          "type": "uint256"
        }
      ],
      "stateMutability": "view",
      "type": "function"
    },
    {
      "inputs": [],
      "name": "getValidNodes",
      "outputs": [
        {
          "internalType": "address[]",
          "name": "validNodes",
          "type": "address[]"
        }
      ],
      "stateMutability": "view",
      "type": "function"
    },
    {
      "inputs": [
        {
          "internalType": "address",
          "name": "node",
          "type": "address"
        }
      ],
      "name": "isValidNode",
      "outputs": [
        {
          "internalType": "bool",
          "name": "",
          "type": "bool"
        }
      ],
      "stateMutability": "view",
      "type": "function"
    },
    {
      "inputs": [],
      "name": "owner",
      "outputs": [
        {
          "internalType": "address",
          "name": "",
          "type": "address"
        }
      ],
      "stateMutability": "view",
      "type": "function"
    },
    {
      "inputs": [
        {
          "internalType": "address",
          "name": "node",
          "type": "address"
        }
      ],
      "name": "removeNode",
      "outputs": [],
      "stateMutability": "nonpayable",
      "type": "function"
    },
    {
      "inputs": [],
      "name": "renounceOwnership",
      "outputs": [],
      "stateMutability": "nonpayable",
      "type": "function"
    },
    {
      "inputs": [
        {
          "internalType": "address",
          "name": "newOwner",
          "type": "address"
        }
      ],
      "name": "transferOwnership",
      "outputs": [],
      "stateMutability": "nonpayable",
      "type": "function"
    }
  ],
  "bytecode": "0x608060405234801561001057600080fd5b50604051610be8380380610be883398101604081905261002f91610283565b6100383361007b565b60005b81518110156100745761006c82828151811061005957610059610352565b60200260200101516100cb60201b60201c565b60010161003b565b5050610368565b600080546001600160a01b038381166001600160a01b0319831681178455604051919092169283917f8be0079c531659141344cd1fd0a4f28419497f9722a3daafe3b4186f6b6457e09190a35050565b6001600160a01b03811660009081526001602052604090205460ff16156101385760405162461bcd60e51b815260206004820152601f60248201527f4e6f646553746f726167653a204e6f646520616c726561647920616464656400604482015260640160405180910390fd5b6001600160a01b03811660009081526002602052604090205460ff166101e1576001600160a01b03811660009081526003602052604090205460ff166101dc576004805460018082019092557f8a35acfbc15ff81a39ae7d344fd709f28e8600b4aa8c65c6b64bfe7fe36bd19b0180546001600160a01b0319166001600160a01b0384169081179091556000908152600360205260409020805460ff191690911790555b610202565b6001600160a01b0381166000908152600260205260409020805460ff191690555b6001600160a01b0381166000818152600160208190526040808320805460ff1916909217909155517fb25d03aaf308d7291709be1ea28b800463cf3a9a4c4a5555d7333a964c1dfebd9190a250565b634e487b7160e01b600052604160045260246000fd5b80516001600160a01b038116811461027e57600080fd5b919050565b60006020828403121561029557600080fd5b81516001600160401b038111156102ab57600080fd5b8201601f810184136102bc57600080fd5b80516001600160401b038111156102d5576102d5610251565b604051600582901b90603f8201601f191681016001600160401b038111828210171561030357610303610251565b60405291825260208184018101929081018784111561032157600080fd5b6020850194505b838510156103475761033985610267565b815260209485019401610328565b509695505050505050565b634e487b7160e01b600052603260045260246000fd5b610871806103776000396000f3fe608060405234801561001057600080fd5b50600436106100885760003560e01c80639ebd11ef1161005b5780639ebd11ef146100e6578063b2b99ec914610122578063df9620eb14610135578063f2fde38b1461014857600080fd5b806311f1ba391461008d578063715018a6146100ab57806382fc2857146100b55780638da5cb5b146100cb575b600080fd5b61009561015b565b6040516100a291906106f5565b60405180910390f35b6100b36102ac565b005b6100bd6102c0565b6040519081526020016100a2565b6000546040516001600160a01b0390911681526020016100a2565b6101126100f4366004610741565b6001600160a01b031660009081526001602052604090205460ff1690565b60405190151581526020016100a2565b6100b3610130366004610741565b61032c565b6100b3610143366004610771565b610401565b6100b3610156366004610741565b610450565b60606000805b6004548110156101c5576001600060048381548110610182576101826107e8565b60009182526020808320909101546001600160a01b0316835282019290925260400190205460ff16156101bd57816101b9816107fe565b9250505b600101610161565b508067ffffffffffffffff8111156101df576101df610825565b604051908082528060200260200182016040528015610208578160200160208202803683370190505b5091506000805b6004548110156102a65760006004828154811061022e5761022e6107e8565b60009182526020808320909101546001600160a01b0316808352600190915260409091205490915060ff161561029d5780858461026a816107fe565b95508151811061027c5761027c6107e8565b60200260200101906001600160a01b031690816001600160a01b0316815250505b5060010161020f565b50505090565b6102b46104c9565b6102be6000610523565b565b6000805b6004548110156103285760016000600483815481106102e5576102e56107e8565b60009182526020808320909101546001600160a01b0316835282019290925260400190205460ff1615610320578161031c816107fe565b9250505b6001016102c4565b5090565b6103346104c9565b6001600160a01b03811660009081526001602052604090205460ff166103a15760405162461bcd60e51b815260206004820152601b60248201527f4e6f646553746f726167653a204e6f6465206e6f7420666f756e64000000000060448201526064015b60405180910390fd5b6001600160a01b0381166000818152600160208181526040808420805460ff19908116909155600290925280842080549092169092179055517fcfc24166db4bb677e857cacabd1541fb2b30645021b27c5130419589b84db52b9190a250565b6104096104c9565b60005b8181101561044b57610443838383818110610429576104296107e8565b905060200201602081019061043e9190610741565b610573565b60010161040c565b505050565b6104586104c9565b6001600160a01b0381166104bd5760405162461bcd60e51b815260206004820152602660248201527f4f776e61626c653a206e6577206f776e657220697320746865207a65726f206160448201526564647265737360d01b6064820152608401610398565b6104c681610523565b50565b6000546001600160a01b031633146102be5760405162461bcd60e51b815260206004820181905260248201527f4f776e61626c653a2063616c6c6572206973206e6f7420746865206f776e65726044820152606401610398565b600080546001600160a01b038381166001600160a01b0319831681178455604051919092169283917f8be0079c531659141344cd1fd0a4f28419497f9722a3daafe3b4186f6b6457e09190a35050565b6001600160a01b03811660009081526001602052604090205460ff16156105dc5760405162461bcd60e51b815260206004820152601f60248201527f4e6f646553746f726167653a204e6f646520616c7265616479206164646564006044820152606401610398565b6001600160a01b03811660009081526002602052604090205460ff16610685576001600160a01b03811660009081526003602052604090205460ff16610680576004805460018082019092557f8a35acfbc15ff81a39ae7d344fd709f28e8600b4aa8c65c6b64bfe7fe36bd19b0180546001600160a01b0319166001600160a01b0384169081179091556000908152600360205260409020805460ff191690911790555b6106a6565b6001600160a01b0381166000908152600260205260409020805460ff191690555b6001600160a01b0381166000818152600160208190526040808320805460ff1916909217909155517fb25d03aaf308d7291709be1ea28b800463cf3a9a4c4a5555d7333a964c1dfebd9190a250565b602080825282518282018190526000918401906040840190835b818110156107365783516001600160a01b031683526020938401939092019160010161070f565b509095945050505050565b60006020828403121561075357600080fd5b81356001600160a01b038116811461076a57600080fd5b9392505050565b6000806020838503121561078457600080fd5b823567ffffffffffffffff81111561079b57600080fd5b8301601f810185136107ac57600080fd5b803567ffffffffffffffff8111156107c357600080fd5b8560208260051b84010111156107d857600080fd5b6020919091019590945092505050565b634e487b7160e01b600052603260045260246000fd5b60006001820161081e57634e487b7160e01b600052601160045260246000fd5b5060010190565b634e487b7160e01b600052604160045260246000fdfea26469706673582212205b4b36c97914be762f8b14cc2a5b2d9e2c41d1421f4ba8cd538453c5e75678a064736f6c634300081c0033",
  "linkReferences": {},
  "deployedLinkReferences": {}
}