{
  "_format": "hh-sol-artifact-1",
  "contractName": "UsageDepositor",
  "sourceName": "contracts/payment/UsageDepositor.sol",
  "abi": [
    {
      "inputs": [
        {
          "internalType": "address",
          "name": "_usageBillingAdmin",
          "type": "address"
        },
        {
          "internalType": "address",
          "name": "_sessionReceiptContract",
          "type": "address"
        },
        {
          "internalType": "address",
          "name": "_nodesStorage",
          "type": "address"
        }
      ],
      "stateMutability": "nonpayable",
      "type": "constructor"
    },
    {
      "inputs": [],
      "name": "InvalidShortString",
      "type": "error"
    },
    {
      "inputs": [
        {
          "internalType": "string",
          "name": "str",
          "type": "string"
        }
      ],
      "name": "StringTooLong",
      "type": "error"
    },
    {
      "anonymous": false,
      "inputs": [],
      "name": "EIP712DomainChanged",
      "type": "event"
    },
    {
      "anonymous": false,
      "inputs": [
        {
          "indexed": true,
          "internalType": "address",
          "name": "previousOwner",
          "type": "address"
        },
        {
          "indexed": true,
          "internalType": "address",
          "name": "newOwner",
          "type": "address"
        }
      ],
      "name": "OwnershipTransferred",
      "type": "event"
    },
    {
      "anonymous": false,
      "inputs": [
        {
          "indexed": false,
          "internalType": "address",
          "name": "client",
          "type": "address"
        },
        {
          "indexed": false,
          "internalType": "uint256",
          "name": "totalPrice",
          "type": "uint256"
        },
        {
          "indexed": false,
          "internalType": "uint256",
          "name": "usage",
          "type": "uint256"
        }
      ],
      "name": "UsagePurchased",
      "type": "event"
    },
    {
      "anonymous": false,
      "inputs": [
        {
          "indexed": false,
          "internalType": "address",
          "name": "client",
          "type": "address"
        },
        {
          "indexed": false,
          "internalType": "address",
          "name": "node",
          "type": "address"
        },
        {
          "indexed": false,
          "internalType": "uint256",
          "name": "totalServedUsage",
          "type": "uint256"
        },
        {
          "indexed": false,
          "internalType": "uint256",
          "name": "totalToken",
          "type": "uint256"
        }
      ],
      "name": "UsageSettledToNode",
      "type": "event"
    },
    {
      "inputs": [
        {
          "internalType": "address[]",
          "name": "tokens",
          "type": "address[]"
        }
      ],
      "name": "addWhitelistedTokens",
      "outputs": [],
      "stateMutability": "nonpayable",
      "type": "function"
    },
    {
      "inputs": [],
      "name": "eip712Domain",
      "outputs": [
        {
          "internalType": "bytes1",
          "name": "fields",
          "type": "bytes1"
        },
        {
          "internalType": "string",
          "name": "name",
          "type": "string"
        },
        {
          "internalType": "string",
          "name": "version",
          "type": "string"
        },
        {
          "internalType": "uint256",
          "name": "chainId",
          "type": "uint256"
        },
        {
          "internalType": "address",
          "name": "verifyingContract",
          "type": "address"
        },
        {
          "internalType": "bytes32",
          "name": "salt",
          "type": "bytes32"
        },
        {
          "internalType": "uint256[]",
          "name": "extensions",
          "type": "uint256[]"
        }
      ],
      "stateMutability": "view",
      "type": "function"
    },
    {
      "inputs": [
        {
          "internalType": "address",
          "name": "client",
          "type": "address"
        }
      ],
      "name": "getClientUsage",
      "outputs": [
        {
          "internalType": "uint256",
          "name": "",
          "type": "uint256"
        }
      ],
      "stateMutability": "view",
      "type": "function"
    },
    {
      "inputs": [
        {
          "internalType": "address",
          "name": "client",
          "type": "address"
        }
      ],
      "name": "getNonce",
      "outputs": [
        {
          "internalType": "uint256",
          "name": "",
          "type": "uint256"
        }
      ],
      "stateMutability": "view",
      "type": "function"
    },
    {
      "inputs": [
        {
          "internalType": "address",
          "name": "token",
          "type": "address"
        }
      ],
      "name": "getRewardPerSecond",
      "outputs": [
        {
          "internalType": "uint256",
          "name": "",
          "type": "uint256"
        }
      ],
      "stateMutability": "view",
      "type": "function"
    },
    {
      "inputs": [],
      "name": "owner",
      "outputs": [
        {
          "internalType": "address",
          "name": "",
          "type": "address"
        }
      ],
      "stateMutability": "view",
      "type": "function"
    },
    {
      "inputs": [
        {
          "components": [
            {
              "internalType": "address",
              "name": "client",
              "type": "address"
            },
            {
              "internalType": "enum TokenType",
              "name": "tokenType",
              "type": "uint8"
            },
            {
              "internalType": "address",
              "name": "tokenAddress",
              "type": "address"
            },
            {
              "internalType": "uint256",
              "name": "requestedSeconds",
              "type": "uint256"
            },
            {
              "internalType": "uint256",
              "name": "nonce",
              "type": "uint256"
            },
            {
              "internalType": "bytes",
              "name": "usageBillingAdminSig",
              "type": "bytes"
            }
          ],
          "internalType": "struct LibUsageOrder.UsageOrder",
          "name": "usageOrder",
          "type": "tuple"
        }
      ],
      "name": "purchaseUsage",
      "outputs": [],
      "stateMutability": "payable",
      "type": "function"
    },
    {
      "inputs": [
        {
          "internalType": "address",
          "name": "token",
          "type": "address"
        }
      ],
      "name": "removeWhitelistedToken",
      "outputs": [],
      "stateMutability": "nonpayable",
      "type": "function"
    },
    {
      "inputs": [],
      "name": "renounceOwnership",
      "outputs": [],
      "stateMutability": "nonpayable",
      "type": "function"
    },
    {
      "inputs": [
        {
          "internalType": "address",
          "name": "_nodesStorage",
          "type": "address"
        }
      ],
      "name": "setNodesStorage",
      "outputs": [],
      "stateMutability": "nonpayable",
      "type": "function"
    },
    {
      "inputs": [
        {
          "internalType": "address",
          "name": "token",
          "type": "address"
        },
        {
          "internalType": "uint256",
          "name": "tokenAmount",
          "type": "uint256"
        }
      ],
      "name": "setRewardPerSecond",
      "outputs": [],
      "stateMutability": "nonpayable",
      "type": "function"
    },
    {
      "inputs": [
        {
          "internalType": "address",
          "name": "_sessionReceiptContract",
          "type": "address"
        }
      ],
      "name": "setSessionReceiptContract",
      "outputs": [],
      "stateMutability": "nonpayable",
      "type": "function"
    },
    {
      "inputs": [
        {
          "internalType": "address",
          "name": "_usageBillingAdmin",
          "type": "address"
        }
      ],
      "name": "setUsageBillingAdmin",
      "outputs": [],
      "stateMutability": "nonpayable",
      "type": "function"
    },
    {
      "inputs": [
        {
          "internalType": "address",
          "name": "client",
          "type": "address"
        },
        {
          "internalType": "address",
          "name": "node",
          "type": "address"
        },
        {
          "internalType": "uint256",
          "name": "totalServedUsage",
          "type": "uint256"
        },
        {
          "internalType": "address",
          "name": "tokenAddress",
          "type": "address"
        }
      ],
      "name": "settleUsageToNode",
      "outputs": [],
      "stateMutability": "nonpayable",
      "type": "function"
    },
    {
      "inputs": [
        {
          "internalType": "address",
          "name": "newOwner",
          "type": "address"
        }
      ],
      "name": "transferOwnership",
      "outputs": [],
      "stateMutability": "nonpayable",
      "type": "function"
    }
  ],
  "bytecode": "0x61016060405234801561001157600080fd5b506040516123e83803806123e883398101604081905261003091610271565b6040518060400160405280600e81526020016d2ab9b0b3b2a232b837b9b4ba37b960911b815250604051806040016040528060018152602001603160f81b8152508181600160008190555061009161008c61018560201b60201c565b610189565b61009c8260026101db565b610120526100ab8160036101db565b61014052815160208084019190912060e052815190820120610100524660a05261013860e05161010051604080517f8b73c3c69bb8fe3d512ecc4cf759cc79239f7b179b0ffacaa9a75d522b39400f60208201529081019290925260608201524660808201523060a082015260009060c00160405160208183030381529060405280519060200120905090565b60805250503060c0525050600580546001600160a01b039485166001600160a01b031991821617909155600680549385169382169390931790925560048054919093169116179055610483565b3390565b600180546001600160a01b038381166001600160a01b0319831681179093556040519116919082907f8be0079c531659141344cd1fd0a4f28419497f9722a3daafe3b4186f6b6457e090600090a35050565b60006020835110156101f7576101f08361020e565b9050610208565b816102028482610353565b5060ff90505b92915050565b600080829050601f81511115610242578260405163305a27a960e01b81526004016102399190610411565b60405180910390fd5b805161024d8261045f565b179392505050565b80516001600160a01b038116811461026c57600080fd5b919050565b60008060006060848603121561028657600080fd5b61028f84610255565b925061029d60208501610255565b91506102ab60408501610255565b90509250925092565b634e487b7160e01b600052604160045260246000fd5b600181811c908216806102de57607f821691505b6020821081036102fe57634e487b7160e01b600052602260045260246000fd5b50919050565b601f82111561034e57806000526020600020601f840160051c8101602085101561032b5750805b601f840160051c820191505b8181101561034b5760008155600101610337565b50505b505050565b81516001600160401b0381111561036c5761036c6102b4565b6103808161037a84546102ca565b84610304565b6020601f8211600181146103b4576000831561039c5750848201515b600019600385901b1c1916600184901b17845561034b565b600084815260208120601f198516915b828110156103e457878501518255602094850194600190920191016103c4565b50848210156104025786840151600019600387901b60f8161c191681555b50505050600190811b01905550565b602081526000825180602084015260005b8181101561043f5760208186018101516040868401015201610422565b506000604082850101526040601f19601f83011684010191505092915050565b805160208083015191908110156102fe5760001960209190910360031b1b16919050565b60805160a05160c05160e051610100516101205161014051611f0b6104dd6000396000610daa01526000610d7f0152600061162e01526000611606015260006115610152600061158b015260006115b50152611f0b6000f3fe6080604052600436106100e85760003560e01c806371c175f61161008a578063ae73ccbf11610059578063ae73ccbf14610286578063cd698e69146102a6578063d7357d34146102c6578063f2fde38b146102fc57600080fd5b806371c175f6146101f657806384b0196e146102165780638da5cb5b1461023e57806392bc5f4e1461026657600080fd5b806322b5c821116100c657806322b5c821146101785780632d0335ab146101985780634ff44bf4146101ce578063715018a6146101e157600080fd5b80631959a3e9146100ed5780631c88705d1461010f5780631f622e0d1461012f575b600080fd5b3480156100f957600080fd5b5061010d61010836600461191c565b61031c565b005b34801561011b57600080fd5b5061010d61012a36600461191c565b6103a1565b34801561013b57600080fd5b5061016561014a36600461191c565b6001600160a01b03166000908152600a602052604090205490565b6040519081526020015b60405180910390f35b34801561018457600080fd5b5061010d61019336600461193e565b6103d5565b3480156101a457600080fd5b506101656101b336600461191c565b6001600160a01b03166000908152600b602052604090205490565b61010d6101dc366004611968565b610431565b3480156101ed57600080fd5b5061010d61094a565b34801561020257600080fd5b5061010d6102113660046119a3565b61095e565b34801561022257600080fd5b5061022b610d71565b60405161016f9796959493929190611a40565b34801561024a57600080fd5b506001546040516001600160a01b03909116815260200161016f565b34801561027257600080fd5b5061010d61028136600461191c565b610dfa565b34801561029257600080fd5b5061010d6102a136600461191c565b610e24565b3480156102b257600080fd5b5061010d6102c1366004611ad8565b610ea4565b3480156102d257600080fd5b506101656102e136600461191c565b6001600160a01b031660009081526008602052604090205490565b34801561030857600080fd5b5061010d61031736600461191c565b610f19565b610324610f8f565b6001600160a01b03811661037f5760405162461bcd60e51b815260206004820152601d60248201527f496e76616c6964206e6f6465732073746f72616765206164647265737300000060448201526064015b60405180910390fd5b600480546001600160a01b0319166001600160a01b0392909216919091179055565b6103a9610f8f565b6001600160a01b03166000908152600760209081526040808320805460ff191690556008909152812055565b6103dd610f8f565b6001600160a01b03821660009081526007602052604090205460ff166104155760405162461bcd60e51b815260040161037690611b4f565b6001600160a01b03909116600090815260086020526040902055565b610439610fe9565b6000610448602083018361191c565b9050606082013560006104616040850160208601611b95565b90506000610475606086016040870161191c565b9050600061048660a0870187611bb0565b8080601f01602080910402602001604051908101604052809392919081815260200183838082843760009201829052506001600160a01b03871681526008602090815260408083205460079092529091205494955060808b01359490935060ff16915061050790505760405162461bcd60e51b815260040161037690611b4f565b600081116105575760405162461bcd60e51b815260206004820152601c60248201527f52657761726420706572207365636f6e64206973206e6f7420736574000000006044820152606401610376565b6001600160a01b03871633146105af5760405162461bcd60e51b815260206004820152601860248201527f436c69656e74206973206e6f74207468652063616c6c657200000000000000006044820152606401610376565b600086116106105760405162461bcd60e51b815260206004820152602860248201527f526571756573746564207365636f6e6473206d75737420626520677265617465604482015267072207468616e20360c41b6064820152608401610376565b336000908152600b6020526040902054821461065e5760405162461bcd60e51b815260206004820152600d60248201526c496e76616c6964206e6f6e636560981b6044820152606401610376565b336000908152600b6020526040812080549161067983611c0d565b909155506000905061068b8288611c26565b905060006106a061069b8b611cad565b611042565b905060006106ae828761105b565b6005549091506001600160a01b038083169116146107185760405162461bcd60e51b815260206004820152602160248201527f5369676e6572206973206e6f742075736167652062696c6c696e672061646d696044820152603760f91b6064820152608401610376565b600088600181111561072c5761072c611d97565b036107dc576001600160a01b038716156107885760405162461bcd60e51b815260206004820152601c60248201527f496e76616c6964206e617469766520746f6b656e2061646472657373000000006044820152606401610376565b8234146107d75760405162461bcd60e51b815260206004820152601f60248201527f496e636f727265637420616d6f756e74206f66206e61746976652073656e74006044820152606401610376565b6108a1565b6001600160a01b0387166108325760405162461bcd60e51b815260206004820152601b60248201527f496e76616c696420455243323020746f6b656e206164647265737300000000006044820152606401610376565b341561088c5760405162461bcd60e51b8152602060048201526024808201527f4e617469766520746f6b656e206e6f74206163636570746564207769746820456044820152630524332360e41b6064820152608401610376565b6108a16001600160a01b03881633308661107f565b6001600160a01b038716600090815260096020526040812080548592906108c9908490611dad565b9091555050336000908152600a6020526040812080548b92906108ed908490611dad565b909155505060408051338152602081018590529081018a90527f217a46649e8f2829b287a6fa4249a3ed73f49f10f27cdce8aebe786807ce46509060600160405180910390a1505050505050505050506109476001600055565b50565b610952610f8f565b61095c60006110ea565b565b6006546001600160a01b031633146109d35760405162461bcd60e51b815260206004820152603260248201527f4f6e6c792053657373696f6e52656365697074436f6e74726163742063616e2060448201527131b0b636103a3434b990333ab731ba34b7b760711b6064820152608401610376565b6109db610fe9565b6001600160a01b03811660009081526008602090815260408083205460079092529091205460ff16610a1f5760405162461bcd60e51b815260040161037690611b4f565b60008111610a6f5760405162461bcd60e51b815260206004820152601c60248201527f52657761726420706572207365636f6e64206973206e6f7420736574000000006044820152606401610376565b60048054604051639ebd11ef60e01b81526001600160a01b0387811693820193909352911690639ebd11ef90602401602060405180830381865afa158015610abb573d6000803e3d6000fd5b505050506040513d601f19601f82011682018060405250810190610adf9190611dc0565b610b225760405162461bcd60e51b8152602060048201526014602482015273496e76616c6964206e6f6465206164647265737360601b6044820152606401610376565b6001600160a01b0385166000908152600a6020526040902054831115610b7f5760405162461bcd60e51b8152602060048201526012602482015271496e73756666696369656e7420757361676560701b6044820152606401610376565b6000610b8b8285611c26565b6001600160a01b038416600090815260096020526040902054909150811115610bf65760405162461bcd60e51b815260206004820152601a60248201527f496e73756666696369656e7420746f6b656e2062616c616e63650000000000006044820152606401610376565b6001600160a01b0386166000908152600a602052604081208054869290610c1e908490611de2565b90915550506001600160a01b03831660009081526009602052604081208054839290610c4b908490611de2565b90915550506001600160a01b038316610cf9576000856001600160a01b03168260405160006040518083038185875af1925050503d8060008114610cab576040519150601f19603f3d011682016040523d82523d6000602084013e610cb0565b606091505b5050905080610cf35760405162461bcd60e51b815260206004820152600f60248201526e151c985b9cd9995c8819985a5b1959608a1b6044820152606401610376565b50610d0d565b610d0d6001600160a01b038416868361113c565b604080516001600160a01b03808916825287166020820152908101859052606081018290527fb6549ebbc93f49adc72924fdfd092255b86b8a194a30a7debb90d7baf0e551bc9060800160405180910390a15050610d6b6001600055565b50505050565b600060608082808083610da57f0000000000000000000000000000000000000000000000000000000000000000600261116c565b610dd07f0000000000000000000000000000000000000000000000000000000000000000600361116c565b60408051600080825260208201909252600f60f81b9b939a50919850469750309650945092509050565b610e02610f8f565b600680546001600160a01b0319166001600160a01b0392909216919091179055565b610e2c610f8f565b6001600160a01b038116610e825760405162461bcd60e51b815260206004820152601b60248201527f496e76616c69642075736167652062696c6c696e672061646d696e00000000006044820152606401610376565b600580546001600160a01b0319166001600160a01b0392909216919091179055565b610eac610f8f565b60005b81811015610f1457600160076000858585818110610ecf57610ecf611df5565b9050602002016020810190610ee4919061191c565b6001600160a01b031681526020810191909152604001600020805460ff1916911515919091179055600101610eaf565b505050565b610f21610f8f565b6001600160a01b038116610f865760405162461bcd60e51b815260206004820152602660248201527f4f776e61626c653a206e6577206f776e657220697320746865207a65726f206160448201526564647265737360d01b6064820152608401610376565b610947816110ea565b6001546001600160a01b0316331461095c5760405162461bcd60e51b815260206004820181905260248201527f4f776e61626c653a2063616c6c6572206973206e6f7420746865206f776e65726044820152606401610376565b60026000540361103b5760405162461bcd60e51b815260206004820152601f60248201527f5265656e7472616e637947756172643a207265656e7472616e742063616c6c006044820152606401610376565b6002600055565b600061105561105083611217565b611284565b92915050565b600080600061106a85856112b1565b91509150611077816112f6565b509392505050565b6040516001600160a01b0380851660248301528316604482015260648101829052610d6b9085906323b872dd60e01b906084015b60408051601f198184030181529190526020810180516001600160e01b03166001600160e01b031990931692909217909152611440565b600180546001600160a01b038381166001600160a01b0319831681179093556040519116919082907f8be0079c531659141344cd1fd0a4f28419497f9722a3daafe3b4186f6b6457e090600090a35050565b6040516001600160a01b038316602482015260448101829052610f1490849063a9059cbb60e01b906064016110b3565b606060ff83146111865761117f83611515565b9050611055565b81805461119290611e0b565b80601f01602080910402602001604051908101604052809291908181526020018280546111be90611e0b565b801561120b5780601f106111e05761010080835404028352916020019161120b565b820191906000526020600020905b8154815290600101906020018083116111ee57829003601f168201915b50505050509050611055565b60007e5fda09a89d10b098ff1bd5bcc138273b5ea5db8776172bd23ae63396a4346e8260000151836020015184604001518560600151866080015160405160200161126796959493929190611e45565b604051602081830303815290604052805190602001209050919050565b6000611055611291611554565b8360405161190160f01b8152600281019290925260228201526042902090565b60008082516041036112e75760208301516040840151606085015160001a6112db87828585611684565b945094505050506112ef565b506000905060025b9250929050565b600081600481111561130a5761130a611d97565b036113125750565b600181600481111561132657611326611d97565b036113735760405162461bcd60e51b815260206004820152601860248201527f45434453413a20696e76616c6964207369676e617475726500000000000000006044820152606401610376565b600281600481111561138757611387611d97565b036113d45760405162461bcd60e51b815260206004820152601f60248201527f45434453413a20696e76616c6964207369676e6174757265206c656e677468006044820152606401610376565b60038160048111156113e8576113e8611d97565b036109475760405162461bcd60e51b815260206004820152602260248201527f45434453413a20696e76616c6964207369676e6174757265202773272076616c604482015261756560f01b6064820152608401610376565b6000611495826040518060400160405280602081526020017f5361666545524332303a206c6f772d6c6576656c2063616c6c206661696c6564815250856001600160a01b03166117489092919063ffffffff16565b90508051600014806114b65750808060200190518101906114b69190611dc0565b610f145760405162461bcd60e51b815260206004820152602a60248201527f5361666545524332303a204552433230206f7065726174696f6e20646964206e6044820152691bdd081cdd58d8d9595960b21b6064820152608401610376565b606060006115228361175f565b604080516020808252818301909252919250600091906020820181803683375050509182525060208101929092525090565b6000306001600160a01b037f0000000000000000000000000000000000000000000000000000000000000000161480156115ad57507f000000000000000000000000000000000000000000000000000000000000000046145b156115d757507f000000000000000000000000000000000000000000000000000000000000000090565b61167f604080517f8b73c3c69bb8fe3d512ecc4cf759cc79239f7b179b0ffacaa9a75d522b39400f60208201527f0000000000000000000000000000000000000000000000000000000000000000918101919091527f000000000000000000000000000000000000000000000000000000000000000060608201524660808201523060a082015260009060c00160405160208183030381529060405280519060200120905090565b905090565b6000807f7fffffffffffffffffffffffffffffff5d576e7357a4501ddfe92f46681b20a08311156116bb575060009050600361173f565b6040805160008082526020820180845289905260ff881692820192909252606081018690526080810185905260019060a0016020604051602081039080840390855afa15801561170f573d6000803e3d6000fd5b5050604051601f1901519150506001600160a01b0381166117385760006001925092505061173f565b9150600090505b94509492505050565b60606117578484600085611787565b949350505050565b600060ff8216601f81111561105557604051632cd44ac360e21b815260040160405180910390fd5b6060824710156117e85760405162461bcd60e51b815260206004820152602660248201527f416464726573733a20696e73756666696369656e742062616c616e636520666f6044820152651c8818d85b1b60d21b6064820152608401610376565b600080866001600160a01b031685876040516118049190611ea6565b60006040518083038185875af1925050503d8060008114611841576040519150601f19603f3d011682016040523d82523d6000602084013e611846565b606091505b509150915061185787838387611862565b979650505050505050565b606083156118d15782516000036118ca576001600160a01b0385163b6118ca5760405162461bcd60e51b815260206004820152601d60248201527f416464726573733a2063616c6c20746f206e6f6e2d636f6e74726163740000006044820152606401610376565b5081611757565b61175783838151156118e65781518083602001fd5b8060405162461bcd60e51b81526004016103769190611ec2565b80356001600160a01b038116811461191757600080fd5b919050565b60006020828403121561192e57600080fd5b61193782611900565b9392505050565b6000806040838503121561195157600080fd5b61195a83611900565b946020939093013593505050565b60006020828403121561197a57600080fd5b813567ffffffffffffffff81111561199157600080fd5b820160c0818503121561193757600080fd5b600080600080608085870312156119b957600080fd5b6119c285611900565b93506119d060208601611900565b9250604085013591506119e560608601611900565b905092959194509250565b60005b83811015611a0b5781810151838201526020016119f3565b50506000910152565b60008151808452611a2c8160208601602086016119f0565b601f01601f19169290920160200192915050565b60ff60f81b8816815260e060208201526000611a5f60e0830189611a14565b8281036040840152611a718189611a14565b606084018890526001600160a01b038716608085015260a0840186905283810360c08501528451808252602080870193509091019060005b81811015611ac7578351835260209384019390920191600101611aa9565b50909b9a5050505050505050505050565b60008060208385031215611aeb57600080fd5b823567ffffffffffffffff811115611b0257600080fd5b8301601f81018513611b1357600080fd5b803567ffffffffffffffff811115611b2a57600080fd5b8560208260051b8401011115611b3f57600080fd5b6020919091019590945092505050565b60208082526018908201527f546f6b656e206973206e6f742077686974656c69737465640000000000000000604082015260600190565b80356002811061191757600080fd5b600060208284031215611ba757600080fd5b61193782611b86565b6000808335601e19843603018112611bc757600080fd5b83018035915067ffffffffffffffff821115611be257600080fd5b6020019150368190038213156112ef57600080fd5b634e487b7160e01b600052601160045260246000fd5b600060018201611c1f57611c1f611bf7565b5060010190565b808202811582820484141761105557611055611bf7565b634e487b7160e01b600052604160045260246000fd5b60405160c0810167ffffffffffffffff81118282101715611c7657611c76611c3d565b60405290565b604051601f8201601f1916810167ffffffffffffffff81118282101715611ca557611ca5611c3d565b604052919050565b600060c08236031215611cbf57600080fd5b611cc7611c53565b611cd083611900565b8152611cde60208401611b86565b6020820152611cef60408401611900565b6040820152606083810135908201526080808401359082015260a083013567ffffffffffffffff811115611d2257600080fd5b830136601f820112611d3357600080fd5b803567ffffffffffffffff811115611d4d57611d4d611c3d565b611d60601f8201601f1916602001611c7c565b818152366020838501011115611d7557600080fd5b8160208401602083013760009181016020019190915260a08301525092915050565b634e487b7160e01b600052602160045260246000fd5b8082018082111561105557611055611bf7565b600060208284031215611dd257600080fd5b8151801515811461193757600080fd5b8181038181111561105557611055611bf7565b634e487b7160e01b600052603260045260246000fd5b600181811c90821680611e1f57607f821691505b602082108103611e3f57634e487b7160e01b600052602260045260246000fd5b50919050565b8681526001600160a01b038616602082015260c0810160028610611e7957634e487b7160e01b600052602160045260246000fd5b60408201959095526001600160a01b03939093166060840152608083019190915260a09091015292915050565b60008251611eb88184602087016119f0565b9190910192915050565b6020815260006119376020830184611a1456fea264697066735822122084a7dbbf265e6bb8ce7313298963fc6178fdf14626ce83a9826c2cf193c7e24664736f6c634300081c0033",
  "linkReferences": {},
  "deployedLinkReferences": {}
}