{
  "_format": "hh-sol-artifact-1",
  "contractName": "AssetTransferAgent",
  "sourceName": "contracts/AssetTransferAgent.sol",
  "abi": [
    {
      "inputs": [],
      "stateMutability": "nonpayable",
      "type": "constructor"
    },
    {
      "anonymous": false,
      "inputs": [
        {
          "indexed": true,
          "internalType": "address",
          "name": "token",
          "type": "address"
        },
        {
          "indexed": true,
          "internalType": "address",
          "name": "from",
          "type": "address"
        },
        {
          "indexed": true,
          "internalType": "address",
          "name": "to",
          "type": "address"
        },
        {
          "indexed": false,
          "internalType": "uint256[]",
          "name": "tokenIds",
          "type": "uint256[]"
        },
        {
          "indexed": false,
          "internalType": "uint256[]",
          "name": "amounts",
          "type": "uint256[]"
        }
      ],
      "name": "ERC1155BatchTransferred",
      "type": "event"
    },
    {
      "anonymous": false,
      "inputs": [
        {
          "indexed": true,
          "internalType": "address",
          "name": "token",
          "type": "address"
        },
        {
          "indexed": true,
          "internalType": "address",
          "name": "from",
          "type": "address"
        },
        {
          "indexed": true,
          "internalType": "address",
          "name": "to",
          "type": "address"
        },
        {
          "indexed": false,
          "internalType": "uint256",
          "name": "tokenId",
          "type": "uint256"
        },
        {
          "indexed": false,
          "internalType": "uint256",
          "name": "amount",
          "type": "uint256"
        }
      ],
      "name": "ERC1155Transferred",
      "type": "event"
    },
    {
      "anonymous": false,
      "inputs": [
        {
          "indexed": true,
          "internalType": "address",
          "name": "token",
          "type": "address"
        },
        {
          "indexed": true,
          "internalType": "address",
          "name": "from",
          "type": "address"
        },
        {
          "indexed": true,
          "internalType": "address",
          "name": "to",
          "type": "address"
        },
        {
          "indexed": false,
          "internalType": "uint256",
          "name": "amount",
          "type": "uint256"
        }
      ],
      "name": "ERC20Transferred",
      "type": "event"
    },
    {
      "anonymous": false,
      "inputs": [
        {
          "indexed": true,
          "internalType": "address",
          "name": "token",
          "type": "address"
        },
        {
          "indexed": true,
          "internalType": "address",
          "name": "from",
          "type": "address"
        },
        {
          "indexed": true,
          "internalType": "address",
          "name": "to",
          "type": "address"
        },
        {
          "indexed": false,
          "internalType": "uint256",
          "name": "tokenId",
          "type": "uint256"
        }
      ],
      "name": "ERC721Transferred",
      "type": "event"
    },
    {
      "anonymous": false,
      "inputs": [
        {
          "indexed": true,
          "internalType": "address",
          "name": "previousOwner",
          "type": "address"
        },
        {
          "indexed": true,
          "internalType": "address",
          "name": "newOwner",
          "type": "address"
        }
      ],
      "name": "OwnershipTransferred",
      "type": "event"
    },
    {
      "inputs": [],
      "name": "marketplace",
      "outputs": [
        {
          "internalType": "address",
          "name": "",
          "type": "address"
        }
      ],
      "stateMutability": "view",
      "type": "function"
    },
    {
      "inputs": [],
      "name": "owner",
      "outputs": [
        {
          "internalType": "address",
          "name": "",
          "type": "address"
        }
      ],
      "stateMutability": "view",
      "type": "function"
    },
    {
      "inputs": [],
      "name": "renounceOwnership",
      "outputs": [],
      "stateMutability": "nonpayable",
      "type": "function"
    },
    {
      "inputs": [
        {
          "internalType": "address",
          "name": "_marketplace",
          "type": "address"
        }
      ],
      "name": "setMarketplace",
      "outputs": [],
      "stateMutability": "nonpayable",
      "type": "function"
    },
    {
      "inputs": [
        {
          "internalType": "address",
          "name": "token",
          "type": "address"
        },
        {
          "internalType": "address",
          "name": "from",
          "type": "address"
        },
        {
          "internalType": "address",
          "name": "to",
          "type": "address"
        },
        {
          "internalType": "uint256",
          "name": "id",
          "type": "uint256"
        },
        {
          "internalType": "uint256",
          "name": "amount",
          "type": "uint256"
        },
        {
          "internalType": "bytes",
          "name": "data",
          "type": "bytes"
        }
      ],
      "name": "transferERC1155",
      "outputs": [],
      "stateMutability": "nonpayable",
      "type": "function"
    },
    {
      "inputs": [
        {
          "internalType": "address",
          "name": "token",
          "type": "address"
        },
        {
          "internalType": "address",
          "name": "from",
          "type": "address"
        },
        {
          "internalType": "address",
          "name": "to",
          "type": "address"
        },
        {
          "internalType": "uint256",
          "name": "amount",
          "type": "uint256"
        }
      ],
      "name": "transferERC20",
      "outputs": [],
      "stateMutability": "nonpayable",
      "type": "function"
    },
    {
      "inputs": [
        {
          "internalType": "address",
          "name": "token",
          "type": "address"
        },
        {
          "internalType": "address",
          "name": "from",
          "type": "address"
        },
        {
          "internalType": "address",
          "name": "to",
          "type": "address"
        },
        {
          "internalType": "uint256",
          "name": "tokenId",
          "type": "uint256"
        }
      ],
      "name": "transferERC721",
      "outputs": [],
      "stateMutability": "nonpayable",
      "type": "function"
    },
    {
      "inputs": [
        {
          "internalType": "address",
          "name": "newOwner",
          "type": "address"
        }
      ],
      "name": "transferOwnership",
      "outputs": [],
      "stateMutability": "nonpayable",
      "type": "function"
    }
  ],
  "bytecode": "0x60808060405234605a5760008054336001600160a01b0319821681178355916001600160a01b03909116907f8be0079c531659141344cd1fd0a4f28419497f9722a3daafe3b4186f6b6457e09080a361091790816100608239f35b600080fdfe6080604052600436101561001257600080fd5b6000803560e01c8063715018a61461067257806373ad6c2d146105e1578063789f93f6146104e75780638da5cb5b146104c0578063abc8c7af14610497578063da3e8ce4146102b7578063eae787dc1461013d5763f2fde38b1461007557600080fd5b3461013a57602036600319011261013a5761008e6106cc565b6100966107b9565b6001600160a01b031680156100e65781546001600160a01b03198116821783556001600160a01b03167f8be0079c531659141344cd1fd0a4f28419497f9722a3daafe3b4186f6b6457e08380a380f35b60405162461bcd60e51b815260206004820152602660248201527f4f776e61626c653a206e6577206f776e657220697320746865207a65726f206160448201526564647265737360d01b6064820152608490fd5b80fd5b503461013a5760c036600319011261013a576101576106cc565b6024356001600160a01b038116908190036102ab576044356001600160a01b03811692908390036102b3576064356084358560a43567ffffffffffffffff81116102af57366023820112156102af5780600401359467ffffffffffffffff86116102ab5736602487840101116102ab576101dc60018060a01b03600154163314610735565b6001600160a01b031694853b156102ab578760c48883869460246040519788968795637921219560e11b87526004870152828601528b60448601528a606486015260a060848601528260a486015201848401378181018301859052601f01601f1916810103018183895af180156102a057610287575b50507fc9e961ede50ae118725ee30349faceaa91b11400bcd9e190dd3d2a5ad1da6b869160409182519182526020820152a480f35b8161029191610781565b61029c578538610252565b8580fd5b6040513d84823e3d90fd5b8280fd5b5080fd5b8380fd5b503461013a576102c6366106e7565b91926102dd60018060a01b03600154163314610735565b6040516323b872dd60e01b602082019081526001600160a01b03868116602484015284811660448401526064808401879052835292909216929190610323608482610781565b86806040938451936103358686610781565b602085527f5361666545524332303a206c6f772d6c6576656c2063616c6c206661696c65646020860152519082885af13d1561048a573d9067ffffffffffffffff82116104765783516103aa939290919061039a601f8201601f191660200184610781565b82523d8a602084013e5b86610811565b805190811591821561044f575b5050156103f957519283526001600160a01b039081169316917f8dfac83616afc4a99a89fe63243ae807798d10eb5a1449e5472853efc3c022cf90602090a480f35b5162461bcd60e51b815260206004820152602a60248201527f5361666545524332303a204552433230206f7065726174696f6e20646964206e6044820152691bdd081cdd58d8d9595960b21b6064820152608490fd5b8192509060209181010312610472576020015180151581036104725738806103b7565b8680fd5b634e487b7160e01b89526041600452602489fd5b906103aa916060906103a4565b503461013a578060031936011261013a576001546040516001600160a01b039091168152602090f35b503461013a578060031936011261013a57546040516001600160a01b039091168152602090f35b503461013a576104f6366106e7565b919261050d60018060a01b03600154163314610735565b6001600160a01b031690813b156105dd57604051632142170760e11b81526001600160a01b0385811660048301528216602482015260448101849052858160648183875af180156105d25761059b575b506040519283526001600160a01b039081169316917f0d51cb9153ff678c00c10a9a9365be8d1dce6eb4d8a0181a613da760afda4e2890602090a480f35b856105ca7f0d51cb9153ff678c00c10a9a9365be8d1dce6eb4d8a0181a613da760afda4e289397602093610781565b95915061055d565b6040513d88823e3d90fd5b8480fd5b503461013a57602036600319011261013a576105fb6106cc565b6106036107b9565b6001600160a01b0316801561062d576bffffffffffffffffffffffff60a01b600154161760015580f35b60405162461bcd60e51b815260206004820152601b60248201527f496e76616c6964206d61726b6574706c616365206164647265737300000000006044820152606490fd5b503461013a578060031936011261013a5761068b6107b9565b80546001600160a01b03198116825581906001600160a01b03167f8be0079c531659141344cd1fd0a4f28419497f9722a3daafe3b4186f6b6457e08280a380f35b600435906001600160a01b03821682036106e257565b600080fd5b60809060031901126106e2576004356001600160a01b03811681036106e257906024356001600160a01b03811681036106e257906044356001600160a01b03811681036106e2579060643590565b1561073c57565b60405162461bcd60e51b815260206004820152601960248201527f4f6e6c79206d61726b6574706c6163652063616e2063616c6c000000000000006044820152606490fd5b90601f8019910116810190811067ffffffffffffffff8211176107a357604052565b634e487b7160e01b600052604160045260246000fd5b6000546001600160a01b031633036107cd57565b606460405162461bcd60e51b815260206004820152602060248201527f4f776e61626c653a2063616c6c6572206973206e6f7420746865206f776e65726044820152fd5b919290156108735750815115610825575090565b3b1561082e5790565b60405162461bcd60e51b815260206004820152601d60248201527f416464726573733a2063616c6c20746f206e6f6e2d636f6e74726163740000006044820152606490fd5b8251909150156108865750805190602001fd5b6040519062461bcd60e51b8252602060048301528181519182602483015260005b8381106108c95750508160006044809484010152601f80199101168101030190fd5b602082820181015160448784010152859350016108a756fea264697066735822122024ec2bd4625aa7cd17fab12780e0e498671d3df9b2d37d37293db04e695f7f8b64736f6c634300081c0033",
  "linkReferences": {},
  "deployedLinkReferences": {}
}