{
  "_format": "hh-sol-artifact-1",
  "contractName": "Marketplace",
  "sourceName": "contracts/Marketplace.sol",
  "abi": [
    {
      "inputs": [
        {
          "internalType": "address",
          "name": "_feeRecipient",
          "type": "address"
        },
        {
          "internalType": "address",
          "name": "_assetTransferAgent",
          "type": "address"
        },
        {
          "internalType": "uint256",
          "name": "_feeBps",
          "type": "uint256"
        }
      ],
      "stateMutability": "nonpayable",
      "type": "constructor"
    },
    {
      "inputs": [],
      "name": "InvalidShortString",
      "type": "error"
    },
    {
      "inputs": [
        {
          "internalType": "string",
          "name": "str",
          "type": "string"
        }
      ],
      "name": "StringTooLong",
      "type": "error"
    },
    {
      "anonymous": false,
      "inputs": [
        {
          "indexed": true,
          "internalType": "bytes32",
          "name": "orderHash",
          "type": "bytes32"
        }
      ],
      "name": "CancelOrder",
      "type": "event"
    },
    {
      "anonymous": false,
      "inputs": [],
      "name": "EIP712DomainChanged",
      "type": "event"
    },
    {
      "anonymous": false,
      "inputs": [
        {
          "indexed": true,
          "internalType": "bytes32",
          "name": "orderHash",
          "type": "bytes32"
        },
        {
          "indexed": true,
          "internalType": "address",
          "name": "maker",
          "type": "address"
        },
        {
          "indexed": true,
          "internalType": "address",
          "name": "taker",
          "type": "address"
        },
        {
          "indexed": false,
          "internalType": "uint256",
          "name": "fillAmount",
          "type": "uint256"
        }
      ],
      "name": "OrderMatched",
      "type": "event"
    },
    {
      "anonymous": false,
      "inputs": [
        {
          "indexed": true,
          "internalType": "address",
          "name": "previousOwner",
          "type": "address"
        },
        {
          "indexed": true,
          "internalType": "address",
          "name": "newOwner",
          "type": "address"
        }
      ],
      "name": "OwnershipTransferred",
      "type": "event"
    },
    {
      "inputs": [],
      "name": "MAX_FEE_BPS",
      "outputs": [
        {
          "internalType": "uint256",
          "name": "",
          "type": "uint256"
        }
      ],
      "stateMutability": "view",
      "type": "function"
    },
    {
      "inputs": [
        {
          "components": [
            {
              "internalType": "enum LibOrder.OrderType",
              "name": "orderType",
              "type": "uint8"
            },
            {
              "components": [
                {
                  "components": [
                    {
                      "internalType": "enum LibAsset.AssetType",
                      "name": "assetType",
                      "type": "uint8"
                    },
                    {
                      "internalType": "address",
                      "name": "contractAddress",
                      "type": "address"
                    },
                    {
                      "internalType": "uint256",
                      "name": "assetId",
                      "type": "uint256"
                    },
                    {
                      "internalType": "uint256",
                      "name": "assetAmount",
                      "type": "uint256"
                    }
                  ],
                  "internalType": "struct LibAsset.Asset",
                  "name": "makeAsset",
                  "type": "tuple"
                },
                {
                  "components": [
                    {
                      "internalType": "enum LibAsset.AssetType",
                      "name": "assetType",
                      "type": "uint8"
                    },
                    {
                      "internalType": "address",
                      "name": "contractAddress",
                      "type": "address"
                    },
                    {
                      "internalType": "uint256",
                      "name": "assetId",
                      "type": "uint256"
                    },
                    {
                      "internalType": "uint256",
                      "name": "assetAmount",
                      "type": "uint256"
                    }
                  ],
                  "internalType": "struct LibAsset.Asset",
                  "name": "takeAsset",
                  "type": "tuple"
                },
                {
                  "internalType": "uint256",
                  "name": "start",
                  "type": "uint256"
                },
                {
                  "internalType": "uint256",
                  "name": "end",
                  "type": "uint256"
                }
              ],
              "internalType": "struct LibOrder.OrderItem[]",
              "name": "items",
              "type": "tuple[]"
            },
            {
              "internalType": "address",
              "name": "maker",
              "type": "address"
            },
            {
              "internalType": "address",
              "name": "taker",
              "type": "address"
            },
            {
              "internalType": "bytes32",
              "name": "root",
              "type": "bytes32"
            },
            {
              "internalType": "uint256",
              "name": "salt",
              "type": "uint256"
            },
            {
              "internalType": "bytes",
              "name": "signature",
              "type": "bytes"
            }
          ],
          "internalType": "struct LibOrder.Order",
          "name": "bidOrder",
          "type": "tuple"
        },
        {
          "internalType": "uint256",
          "name": "orderItemIndex",
          "type": "uint256"
        },
        {
          "internalType": "uint256",
          "name": "sellAmount",
          "type": "uint256"
        }
      ],
      "name": "acceptBid",
      "outputs": [],
      "stateMutability": "payable",
      "type": "function"
    },
    {
      "inputs": [],
      "name": "assetTransferAgent",
      "outputs": [
        {
          "internalType": "address",
          "name": "",
          "type": "address"
        }
      ],
      "stateMutability": "view",
      "type": "function"
    },
    {
      "inputs": [
        {
          "components": [
            {
              "internalType": "enum LibOrder.OrderType",
              "name": "orderType",
              "type": "uint8"
            },
            {
              "components": [
                {
                  "components": [
                    {
                      "internalType": "enum LibAsset.AssetType",
                      "name": "assetType",
                      "type": "uint8"
                    },
                    {
                      "internalType": "address",
                      "name": "contractAddress",
                      "type": "address"
                    },
                    {
                      "internalType": "uint256",
                      "name": "assetId",
                      "type": "uint256"
                    },
                    {
                      "internalType": "uint256",
                      "name": "assetAmount",
                      "type": "uint256"
                    }
                  ],
                  "internalType": "struct LibAsset.Asset",
                  "name": "makeAsset",
                  "type": "tuple"
                },
                {
                  "components": [
                    {
                      "internalType": "enum LibAsset.AssetType",
                      "name": "assetType",
                      "type": "uint8"
                    },
                    {
                      "internalType": "address",
                      "name": "contractAddress",
                      "type": "address"
                    },
                    {
                      "internalType": "uint256",
                      "name": "assetId",
                      "type": "uint256"
                    },
                    {
                      "internalType": "uint256",
                      "name": "assetAmount",
                      "type": "uint256"
                    }
                  ],
                  "internalType": "struct LibAsset.Asset",
                  "name": "takeAsset",
                  "type": "tuple"
                },
                {
                  "internalType": "uint256",
                  "name": "start",
                  "type": "uint256"
                },
                {
                  "internalType": "uint256",
                  "name": "end",
                  "type": "uint256"
                }
              ],
              "internalType": "struct LibOrder.OrderItem[]",
              "name": "items",
              "type": "tuple[]"
            },
            {
              "internalType": "address",
              "name": "maker",
              "type": "address"
            },
            {
              "internalType": "address",
              "name": "taker",
              "type": "address"
            },
            {
              "internalType": "bytes32",
              "name": "root",
              "type": "bytes32"
            },
            {
              "internalType": "uint256",
              "name": "salt",
              "type": "uint256"
            },
            {
              "internalType": "bytes",
              "name": "signature",
              "type": "bytes"
            }
          ],
          "internalType": "struct LibOrder.Order[]",
          "name": "makerOrders",
          "type": "tuple[]"
        },
        {
          "components": [
            {
              "internalType": "enum LibOrder.OrderType",
              "name": "orderType",
              "type": "uint8"
            },
            {
              "components": [
                {
                  "components": [
                    {
                      "internalType": "enum LibAsset.AssetType",
                      "name": "assetType",
                      "type": "uint8"
                    },
                    {
                      "internalType": "address",
                      "name": "contractAddress",
                      "type": "address"
                    },
                    {
                      "internalType": "uint256",
                      "name": "assetId",
                      "type": "uint256"
                    },
                    {
                      "internalType": "uint256",
                      "name": "assetAmount",
                      "type": "uint256"
                    }
                  ],
                  "internalType": "struct LibAsset.Asset",
                  "name": "makeAsset",
                  "type": "tuple"
                },
                {
                  "components": [
                    {
                      "internalType": "enum LibAsset.AssetType",
                      "name": "assetType",
                      "type": "uint8"
                    },
                    {
                      "internalType": "address",
                      "name": "contractAddress",
                      "type": "address"
                    },
                    {
                      "internalType": "uint256",
                      "name": "assetId",
                      "type": "uint256"
                    },
                    {
                      "internalType": "uint256",
                      "name": "assetAmount",
                      "type": "uint256"
                    }
                  ],
                  "internalType": "struct LibAsset.Asset",
                  "name": "takeAsset",
                  "type": "tuple"
                },
                {
                  "internalType": "uint256",
                  "name": "start",
                  "type": "uint256"
                },
                {
                  "internalType": "uint256",
                  "name": "end",
                  "type": "uint256"
                }
              ],
              "internalType": "struct LibOrder.OrderItem[]",
              "name": "items",
              "type": "tuple[]"
            },
            {
              "internalType": "address",
              "name": "maker",
              "type": "address"
            },
            {
              "internalType": "address",
              "name": "taker",
              "type": "address"
            },
            {
              "internalType": "bytes32",
              "name": "root",
              "type": "bytes32"
            },
            {
              "internalType": "uint256",
              "name": "salt",
              "type": "uint256"
            },
            {
              "internalType": "bytes",
              "name": "signature",
              "type": "bytes"
            }
          ],
          "internalType": "struct LibOrder.Order",
          "name": "takerOrder",
          "type": "tuple"
        },
        {
          "internalType": "uint256[]",
          "name": "orderItemIndices",
          "type": "uint256[]"
        },
        {
          "internalType": "bytes32[][]",
          "name": "proofs",
          "type": "bytes32[][]"
        }
      ],
      "name": "batchMatchOrders",
      "outputs": [],
      "stateMutability": "payable",
      "type": "function"
    },
    {
      "inputs": [
        {
          "components": [
            {
              "internalType": "enum LibOrder.OrderType",
              "name": "orderType",
              "type": "uint8"
            },
            {
              "components": [
                {
                  "components": [
                    {
                      "internalType": "enum LibAsset.AssetType",
                      "name": "assetType",
                      "type": "uint8"
                    },
                    {
                      "internalType": "address",
                      "name": "contractAddress",
                      "type": "address"
                    },
                    {
                      "internalType": "uint256",
                      "name": "assetId",
                      "type": "uint256"
                    },
                    {
                      "internalType": "uint256",
                      "name": "assetAmount",
                      "type": "uint256"
                    }
                  ],
                  "internalType": "struct LibAsset.Asset",
                  "name": "makeAsset",
                  "type": "tuple"
                },
                {
                  "components": [
                    {
                      "internalType": "enum LibAsset.AssetType",
                      "name": "assetType",
                      "type": "uint8"
                    },
                    {
                      "internalType": "address",
                      "name": "contractAddress",
                      "type": "address"
                    },
                    {
                      "internalType": "uint256",
                      "name": "assetId",
                      "type": "uint256"
                    },
                    {
                      "internalType": "uint256",
                      "name": "assetAmount",
                      "type": "uint256"
                    }
                  ],
                  "internalType": "struct LibAsset.Asset",
                  "name": "takeAsset",
                  "type": "tuple"
                },
                {
                  "internalType": "uint256",
                  "name": "start",
                  "type": "uint256"
                },
                {
                  "internalType": "uint256",
                  "name": "end",
                  "type": "uint256"
                }
              ],
              "internalType": "struct LibOrder.OrderItem[]",
              "name": "items",
              "type": "tuple[]"
            },
            {
              "internalType": "address",
              "name": "maker",
              "type": "address"
            },
            {
              "internalType": "address",
              "name": "taker",
              "type": "address"
            },
            {
              "internalType": "bytes32",
              "name": "root",
              "type": "bytes32"
            },
            {
              "internalType": "uint256",
              "name": "salt",
              "type": "uint256"
            },
            {
              "internalType": "bytes",
              "name": "signature",
              "type": "bytes"
            }
          ],
          "internalType": "struct LibOrder.Order",
          "name": "order",
          "type": "tuple"
        },
        {
          "internalType": "uint256",
          "name": "orderItemIndex",
          "type": "uint256"
        }
      ],
      "name": "cancelOrder",
      "outputs": [],
      "stateMutability": "nonpayable",
      "type": "function"
    },
    {
      "inputs": [],
      "name": "eip712Domain",
      "outputs": [
        {
          "internalType": "bytes1",
          "name": "fields",
          "type": "bytes1"
        },
        {
          "internalType": "string",
          "name": "name",
          "type": "string"
        },
        {
          "internalType": "string",
          "name": "version",
          "type": "string"
        },
        {
          "internalType": "uint256",
          "name": "chainId",
          "type": "uint256"
        },
        {
          "internalType": "address",
          "name": "verifyingContract",
          "type": "address"
        },
        {
          "internalType": "bytes32",
          "name": "salt",
          "type": "bytes32"
        },
        {
          "internalType": "uint256[]",
          "name": "extensions",
          "type": "uint256[]"
        }
      ],
      "stateMutability": "view",
      "type": "function"
    },
    {
      "inputs": [],
      "name": "feeBps",
      "outputs": [
        {
          "internalType": "uint256",
          "name": "",
          "type": "uint256"
        }
      ],
      "stateMutability": "view",
      "type": "function"
    },
    {
      "inputs": [],
      "name": "feeRecipient",
      "outputs": [
        {
          "internalType": "address",
          "name": "",
          "type": "address"
        }
      ],
      "stateMutability": "view",
      "type": "function"
    },
    {
      "inputs": [
        {
          "components": [
            {
              "internalType": "enum LibOrder.OrderType",
              "name": "orderType",
              "type": "uint8"
            },
            {
              "components": [
                {
                  "components": [
                    {
                      "internalType": "enum LibAsset.AssetType",
                      "name": "assetType",
                      "type": "uint8"
                    },
                    {
                      "internalType": "address",
                      "name": "contractAddress",
                      "type": "address"
                    },
                    {
                      "internalType": "uint256",
                      "name": "assetId",
                      "type": "uint256"
                    },
                    {
                      "internalType": "uint256",
                      "name": "assetAmount",
                      "type": "uint256"
                    }
                  ],
                  "internalType": "struct LibAsset.Asset",
                  "name": "makeAsset",
                  "type": "tuple"
                },
                {
                  "components": [
                    {
                      "internalType": "enum LibAsset.AssetType",
                      "name": "assetType",
                      "type": "uint8"
                    },
                    {
                      "internalType": "address",
                      "name": "contractAddress",
                      "type": "address"
                    },
                    {
                      "internalType": "uint256",
                      "name": "assetId",
                      "type": "uint256"
                    },
                    {
                      "internalType": "uint256",
                      "name": "assetAmount",
                      "type": "uint256"
                    }
                  ],
                  "internalType": "struct LibAsset.Asset",
                  "name": "takeAsset",
                  "type": "tuple"
                },
                {
                  "internalType": "uint256",
                  "name": "start",
                  "type": "uint256"
                },
                {
                  "internalType": "uint256",
                  "name": "end",
                  "type": "uint256"
                }
              ],
              "internalType": "struct LibOrder.OrderItem[]",
              "name": "items",
              "type": "tuple[]"
            },
            {
              "internalType": "address",
              "name": "maker",
              "type": "address"
            },
            {
              "internalType": "address",
              "name": "taker",
              "type": "address"
            },
            {
              "internalType": "bytes32",
              "name": "root",
              "type": "bytes32"
            },
            {
              "internalType": "uint256",
              "name": "salt",
              "type": "uint256"
            },
            {
              "internalType": "bytes",
              "name": "signature",
              "type": "bytes"
            }
          ],
          "internalType": "struct LibOrder.Order",
          "name": "order",
          "type": "tuple"
        },
        {
          "internalType": "uint256",
          "name": "orderItemIndex",
          "type": "uint256"
        }
      ],
      "name": "isOrderCancelled",
      "outputs": [
        {
          "internalType": "bool",
          "name": "",
          "type": "bool"
        }
      ],
      "stateMutability": "view",
      "type": "function"
    },
    {
      "inputs": [
        {
          "components": [
            {
              "internalType": "enum LibOrder.OrderType",
              "name": "orderType",
              "type": "uint8"
            },
            {
              "components": [
                {
                  "components": [
                    {
                      "internalType": "enum LibAsset.AssetType",
                      "name": "assetType",
                      "type": "uint8"
                    },
                    {
                      "internalType": "address",
                      "name": "contractAddress",
                      "type": "address"
                    },
                    {
                      "internalType": "uint256",
                      "name": "assetId",
                      "type": "uint256"
                    },
                    {
                      "internalType": "uint256",
                      "name": "assetAmount",
                      "type": "uint256"
                    }
                  ],
                  "internalType": "struct LibAsset.Asset",
                  "name": "makeAsset",
                  "type": "tuple"
                },
                {
                  "components": [
                    {
                      "internalType": "enum LibAsset.AssetType",
                      "name": "assetType",
                      "type": "uint8"
                    },
                    {
                      "internalType": "address",
                      "name": "contractAddress",
                      "type": "address"
                    },
                    {
                      "internalType": "uint256",
                      "name": "assetId",
                      "type": "uint256"
                    },
                    {
                      "internalType": "uint256",
                      "name": "assetAmount",
                      "type": "uint256"
                    }
                  ],
                  "internalType": "struct LibAsset.Asset",
                  "name": "takeAsset",
                  "type": "tuple"
                },
                {
                  "internalType": "uint256",
                  "name": "start",
                  "type": "uint256"
                },
                {
                  "internalType": "uint256",
                  "name": "end",
                  "type": "uint256"
                }
              ],
              "internalType": "struct LibOrder.OrderItem[]",
              "name": "items",
              "type": "tuple[]"
            },
            {
              "internalType": "address",
              "name": "maker",
              "type": "address"
            },
            {
              "internalType": "address",
              "name": "taker",
              "type": "address"
            },
            {
              "internalType": "bytes32",
              "name": "root",
              "type": "bytes32"
            },
            {
              "internalType": "uint256",
              "name": "salt",
              "type": "uint256"
            },
            {
              "internalType": "bytes",
              "name": "signature",
              "type": "bytes"
            }
          ],
          "internalType": "struct LibOrder.Order",
          "name": "order",
          "type": "tuple"
        },
        {
          "internalType": "uint256",
          "name": "orderItemIndex",
          "type": "uint256"
        }
      ],
      "name": "isOrderFullyFilled",
      "outputs": [
        {
          "internalType": "bool",
          "name": "",
          "type": "bool"
        }
      ],
      "stateMutability": "view",
      "type": "function"
    },
    {
      "inputs": [
        {
          "components": [
            {
              "internalType": "enum LibOrder.OrderType",
              "name": "orderType",
              "type": "uint8"
            },
            {
              "components": [
                {
                  "components": [
                    {
                      "internalType": "enum LibAsset.AssetType",
                      "name": "assetType",
                      "type": "uint8"
                    },
                    {
                      "internalType": "address",
                      "name": "contractAddress",
                      "type": "address"
                    },
                    {
                      "internalType": "uint256",
                      "name": "assetId",
                      "type": "uint256"
                    },
                    {
                      "internalType": "uint256",
                      "name": "assetAmount",
                      "type": "uint256"
                    }
                  ],
                  "internalType": "struct LibAsset.Asset",
                  "name": "makeAsset",
                  "type": "tuple"
                },
                {
                  "components": [
                    {
                      "internalType": "enum LibAsset.AssetType",
                      "name": "assetType",
                      "type": "uint8"
                    },
                    {
                      "internalType": "address",
                      "name": "contractAddress",
                      "type": "address"
                    },
                    {
                      "internalType": "uint256",
                      "name": "assetId",
                      "type": "uint256"
                    },
                    {
                      "internalType": "uint256",
                      "name": "assetAmount",
                      "type": "uint256"
                    }
                  ],
                  "internalType": "struct LibAsset.Asset",
                  "name": "takeAsset",
                  "type": "tuple"
                },
                {
                  "internalType": "uint256",
                  "name": "start",
                  "type": "uint256"
                },
                {
                  "internalType": "uint256",
                  "name": "end",
                  "type": "uint256"
                }
              ],
              "internalType": "struct LibOrder.OrderItem[]",
              "name": "items",
              "type": "tuple[]"
            },
            {
              "internalType": "address",
              "name": "maker",
              "type": "address"
            },
            {
              "internalType": "address",
              "name": "taker",
              "type": "address"
            },
            {
              "internalType": "bytes32",
              "name": "root",
              "type": "bytes32"
            },
            {
              "internalType": "uint256",
              "name": "salt",
              "type": "uint256"
            },
            {
              "internalType": "bytes",
              "name": "signature",
              "type": "bytes"
            }
          ],
          "internalType": "struct LibOrder.Order",
          "name": "makerOrder",
          "type": "tuple"
        },
        {
          "components": [
            {
              "internalType": "enum LibOrder.OrderType",
              "name": "orderType",
              "type": "uint8"
            },
            {
              "components": [
                {
                  "components": [
                    {
                      "internalType": "enum LibAsset.AssetType",
                      "name": "assetType",
                      "type": "uint8"
                    },
                    {
                      "internalType": "address",
                      "name": "contractAddress",
                      "type": "address"
                    },
                    {
                      "internalType": "uint256",
                      "name": "assetId",
                      "type": "uint256"
                    },
                    {
                      "internalType": "uint256",
                      "name": "assetAmount",
                      "type": "uint256"
                    }
                  ],
                  "internalType": "struct LibAsset.Asset",
                  "name": "makeAsset",
                  "type": "tuple"
                },
                {
                  "components": [
                    {
                      "internalType": "enum LibAsset.AssetType",
                      "name": "assetType",
                      "type": "uint8"
                    },
                    {
                      "internalType": "address",
                      "name": "contractAddress",
                      "type": "address"
                    },
                    {
                      "internalType": "uint256",
                      "name": "assetId",
                      "type": "uint256"
                    },
                    {
                      "internalType": "uint256",
                      "name": "assetAmount",
                      "type": "uint256"
                    }
                  ],
                  "internalType": "struct LibAsset.Asset",
                  "name": "takeAsset",
                  "type": "tuple"
                },
                {
                  "internalType": "uint256",
                  "name": "start",
                  "type": "uint256"
                },
                {
                  "internalType": "uint256",
                  "name": "end",
                  "type": "uint256"
                }
              ],
              "internalType": "struct LibOrder.OrderItem[]",
              "name": "items",
              "type": "tuple[]"
            },
            {
              "internalType": "address",
              "name": "maker",
              "type": "address"
            },
            {
              "internalType": "address",
              "name": "taker",
              "type": "address"
            },
            {
              "internalType": "bytes32",
              "name": "root",
              "type": "bytes32"
            },
            {
              "internalType": "uint256",
              "name": "salt",
              "type": "uint256"
            },
            {
              "internalType": "bytes",
              "name": "signature",
              "type": "bytes"
            }
          ],
          "internalType": "struct LibOrder.Order",
          "name": "takerOrder",
          "type": "tuple"
        },
        {
          "internalType": "uint256",
          "name": "orderItemIndex",
          "type": "uint256"
        },
        {
          "internalType": "bytes32[]",
          "name": "proof",
          "type": "bytes32[]"
        }
      ],
      "name": "matchOrders",
      "outputs": [],
      "stateMutability": "payable",
      "type": "function"
    },
    {
      "inputs": [
        {
          "internalType": "bytes32",
          "name": "",
          "type": "bytes32"
        },
        {
          "internalType": "uint256",
          "name": "",
          "type": "uint256"
        }
      ],
      "name": "orderFillAmount",
      "outputs": [
        {
          "internalType": "uint256",
          "name": "",
          "type": "uint256"
        }
      ],
      "stateMutability": "view",
      "type": "function"
    },
    {
      "inputs": [],
      "name": "owner",
      "outputs": [
        {
          "internalType": "address",
          "name": "",
          "type": "address"
        }
      ],
      "stateMutability": "view",
      "type": "function"
    },
    {
      "inputs": [],
      "name": "renounceOwnership",
      "outputs": [],
      "stateMutability": "nonpayable",
      "type": "function"
    },
    {
      "inputs": [
        {
          "internalType": "address",
          "name": "_agent",
          "type": "address"
        }
      ],
      "name": "setAssetTransferAgent",
      "outputs": [],
      "stateMutability": "nonpayable",
      "type": "function"
    },
    {
      "inputs": [
        {
          "internalType": "uint256",
          "name": "_feeBps",
          "type": "uint256"
        }
      ],
      "name": "setFeeBps",
      "outputs": [],
      "stateMutability": "nonpayable",
      "type": "function"
    },
    {
      "inputs": [
        {
          "internalType": "address",
          "name": "_feeRecipient",
          "type": "address"
        }
      ],
      "name": "setFeeRecipient",
      "outputs": [],
      "stateMutability": "nonpayable",
      "type": "function"
    },
    {
      "inputs": [
        {
          "internalType": "address",
          "name": "newOwner",
          "type": "address"
        }
      ],
      "name": "transferOwnership",
      "outputs": [],
      "stateMutability": "nonpayable",
      "type": "function"
    },
    {
      "inputs": [
        {
          "internalType": "bytes32[]",
          "name": "proof",
          "type": "bytes32[]"
        },
        {
          "internalType": "bytes32",
          "name": "root",
          "type": "bytes32"
        },
        {
          "internalType": "bytes32",
          "name": "leaf",
          "type": "bytes32"
        }
      ],
      "name": "verifyMerkleProof",
      "outputs": [
        {
          "internalType": "bool",
          "name": "",
          "type": "bool"
        }
      ],
      "stateMutability": "pure",
      "type": "function"
    }
  ],
  "bytecode": "0x610160806040523461022a5760608161314e8038038091610020828561022f565b83398101031261022a5761003381610268565b90604061004260208301610268565b9101519160405161005460408261022f565b601181526020810190704c61796572474d61726b6574506c61636560781b82526040519161008360408461022f565b6001808452603160f81b6020850190815260008281558254336001600160a01b031982168117909455919492916001600160a01b0316907f8be0079c531659141344cd1fd0a4f28419497f9722a3daafe3b4186f6b6457e09080a36100e78161027c565b610120526100f484610440565b61014052519020918260e05251902080610100524660a0526040519060208201927f8b73c3c69bb8fe3d512ecc4cf759cc79239f7b179b0ffacaa9a75d522b39400f8452604083015260608201524660808201523060a082015260a0815261015d60c08261022f565b5190206080523060c052600480546001600160a01b039283166001600160a01b0319918216179091556005805493909216921691909117905561271081116101f357600655604051612b6f90816105df82396080518161287a015260a05181612931015260c05181612844015260e051816128c9015261010051816128ef01526101205181610427015261014051816104500152f35b60405162461bcd60e51b815260206004820152600f60248201526e496e76616c6964206665652042505360881b6044820152606490fd5b600080fd5b601f909101601f19168101906001600160401b0382119082101761025257604052565b634e487b7160e01b600052604160045260246000fd5b51906001600160a01b038216820361022a57565b90815160208110600014610314575090601f8151116102b85760208151910151602082106102a8571790565b6000198260200360031b1b161790565b6040519063305a27a960e01b8252602060048301528181519182602483015260005b8381106102fc5750508160006044809484010152601f80199101168101030190fd5b602082820181015160448784010152859350016102da565b6001600160401b03811161025257600254600181811c91168015610436575b602082101461042057601f81116103ea575b50602092601f8211600114610385579281929360009261037a575b50508160011b916000199060031b1c19161760025560ff90565b015190503880610360565b601f198216936002600052806000209160005b8681106103d257508360019596106103b9575b505050811b0160025560ff90565b015160001960f88460031b161c191690553880806103ab565b91926020600181928685015181550194019201610398565b6002600052601f6020600020910160051c810190601f830160051c015b8181106104145750610345565b60008155600101610407565b634e487b7160e01b600052602260045260246000fd5b90607f1690610333565b908151602081106000146104c8575090601f81511161046c5760208151910151602082106102a8571790565b6040519063305a27a960e01b8252602060048301528181519182602483015260005b8381106104b05750508160006044809484010152601f80199101168101030190fd5b6020828201810151604487840101528593500161048e565b6001600160401b03811161025257600354600181811c911680156105d4575b602082101461042057601f811161059e575b50602092601f8211600114610539579281929360009261052e575b50508160011b916000199060031b1c19161760035560ff90565b015190503880610514565b601f198216936003600052806000209160005b868110610586575083600195961061056d575b505050811b0160035560ff90565b015160001960f88460031b161c1916905538808061055f565b9192602060018192868501518155019401920161054c565b6003600052601f6020600020910160051c810190601f830160051c015b8181106105c857506104f9565b600081556001016105bb565b90607f16906104e756fe6080604052600436101561001257600080fd5b60003560e01c80631ef1c7d21461014757806324a9d853146101425780632e1cbea21461013d57806346904840146101385780634715399c14610133578063703cebfe1461012e578063715018a61461012957806372c27b621461012457806384b0196e1461011f5780638da5cb5b1461011a578063a83fb54f14610115578063ada4fa1814610110578063bc2db5c41461010b578063bf76c03214610106578063ca200ad814610101578063d55be8c6146100fc578063e74b981b146100f7578063eded1f00146100f25763f2fde38b146100ed57600080fd5b610c30565b610bf4565b610b66565b610b49565b610ab3565b6108a7565b6106a4565b610657565b610538565b61050f565b61040e565b61036c565b61030f565b6102f6565b6102cd565b6102a4565b610281565b610232565b61018f565b9181601f8401121561017c578235916001600160401b03831161017c576020808501948460051b01011161017c57565b600080fd5b908160e091031261017c5790565b608036600319011261017c576004356001600160401b03811161017c576101ba90369060040161014c565b6024356001600160401b03811161017c576101d9903690600401610181565b916044356001600160401b03811161017c576101f990369060040161014c565b90606435946001600160401b03861161017c5761021d61022596369060040161014c565b959094610d01565b005b600091031261017c57565b3461017c57600036600319011261017c576020600654604051908152f35b604060031982011261017c57600435906001600160401b03821161017c5761027a91600401610181565b9060243590565b3461017c57602061029a61029436610250565b906111f1565b6040519015158152f35b3461017c57600036600319011261017c576004546040516001600160a01b039091168152602090f35b3461017c57600036600319011261017c576005546040516001600160a01b039091168152602090f35b3461017c57602061029a61030936610250565b9061121a565b3461017c57600036600319011261017c5761032861206e565b600180546001600160a01b031981169091556000906001600160a01b03167f8be0079c531659141344cd1fd0a4f28419497f9722a3daafe3b4186f6b6457e08280a3005b3461017c57602036600319011261017c5760043561038861206e565b612710811161039657600655005b60405162461bcd60e51b815260206004820152600f60248201526e496e76616c6964206665652042505360881b6044820152606490fd5b919082519283825260005b8481106103f9575050826000602080949584010152601f8019910116010190565b806020809284010151828286010152016103d8565b3461017c57600036600319011261017c576104b461044b7f00000000000000000000000000000000000000000000000000000000000000006120c6565b6104747f00000000000000000000000000000000000000000000000000000000000000006121b0565b60206040516104838282611125565b60008152816104c281830194601f198301368737604051978897600f60f81b895260e0858a015260e08901906103cd565b9087820360408901526103cd565b91466060870152306080870152600060a087015285830360c0870152519182815201929160005b8281106104f857505050500390f35b8351855286955093810193928101926001016104e9565b3461017c57600036600319011261017c576001546040516001600160a01b039091168152602090f35b3461017c5761054636610250565b61054e611482565b61055f61055a836119b8565b6125c4565b91610569816123ab565b604081013561057781610a95565b6001600160a01b0316330361061a57816105bb6105b66105a883856105b16105ac6105a86105eb9a6105de9a61121a565b1590565b611270565b6111f1565b6112b3565b6105cf846000526008602052604060002090565b90600052602052604060002090565b805460ff19166001179055565b7f42c76c81a7cba1b9c861353909a184e20747ab960332628dabcbb5852fc5cbb5600080a26102256001600055565b60405162461bcd60e51b815260206004820152601560248201527413db9b1e481b585ad95c8818d85b8818d85b98d95b605a1b6044820152606490fd5b3461017c57606036600319011261017c576004356001600160401b03811161017c5761029a61068c602092369060040161014c565b9061069f602435916044359336916112ff565b612493565b606036600319011261017c576004356001600160401b03811161017c576106cf903690600401610181565b60243590604435906106df611482565b6106fa6106eb826110ba565b6106f4816110ab565b1561134b565b61085561079a604061070b846119b8565b93610715816123ab565b6107876107376107328961072c602086018661103b565b9061107a565b611428565b9761077361076360608b51015161075c846105cf8c6000526007602052604060002090565b5490611433565b891515908161089c575b50611440565b6105cf876000526007602052604060002090565b610792878254611193565b9055016110c7565b9361084e60206107aa8351611170565b8351828101519194916107e8906040906001600160a01b0316920151916107d96107d2611146565b9788611164565b6001600160a01b031686850152565b604085015286606085015201916107ff8351611170565b9251602081015161083c906040906001600160a01b03169201519161082c610825611146565b9687611164565b6001600160a01b03166020860152565b60408401528560608401523387611cf3565b8433611cf3565b60405191825233926001600160a01b0316917f2b2be5bdc62aaf8dbe8a0ffac99e7335c8d1245aa56d1d50e01fc21177fb22779080602081015b0390a46102256001600055565b90508911153861076d565b608036600319011261017c576004356001600160401b03811161017c576108d2903690600401610181565b6024356001600160401b03811161017c576108f1903690600401610181565b9060443590606435906001600160401b03821161017c5761088f84610a616109cb60406109c4817f2b2be5bdc62aaf8dbe8a0ffac99e7335c8d1245aa56d1d50e01fc21177fb227797610949879a369060040161014c565b610951611482565b6109848d61097d61097761096c8361072c60208a018a61103b565b9c602081019061103b565b90611071565b9d85611762565b600261098f846110ba565b610998816110ab565b14610a7f575b50506109be60e06109ae836119b8565b9b01359b60608901358d8d611a8a565b016110c7565b98016110c7565b91610a5a6109d8826110e5565b916109e5602082016110c7565b6109f960408301359161082c610825611146565b6040840152886060840152610a10608082016110e5565b90610a4860c0610a2260a084016110c7565b92013591610a38610a31611146565b9485611164565b6001600160a01b03166020840152565b60408201528860608201528985611cf3565b8288611cf3565b6040519485526001600160a01b039081169516939081906020820190565b610a8e9160808401358a61187e565b388061099e565b6001600160a01b0381160361017c57565b3590610ab182610a95565b565b3461017c57602036600319011261017c57600435610ad081610a95565b610ad861206e565b6001600160a01b03168015610b04576bffffffffffffffffffffffff60a01b6005541617600555600080f35b60405162461bcd60e51b815260206004820152601c60248201527f496e76616c6964206173736574207472616e73666572206167656e74000000006044820152606490fd5b3461017c57600036600319011261017c5760206040516127108152f35b3461017c57602036600319011261017c57600435610b8381610a95565b610b8b61206e565b6001600160a01b03168015610bb7576bffffffffffffffffffffffff60a01b6004541617600455600080f35b60405162461bcd60e51b8152602060048201526015602482015274125b9d985b1a5908199959481c9958da5c1a595b9d605a1b6044820152606490fd5b3461017c57604036600319011261017c576004356024359060005260076020526040600020906000526020526020604060002054604051908152f35b3461017c57602036600319011261017c57600435610c4d81610a95565b610c5561206e565b6001600160a01b03811615610cad57600180546001600160a01b039283166001600160a01b0319821681179092559091167f8be0079c531659141344cd1fd0a4f28419497f9722a3daafe3b4186f6b6457e0600080a3005b60405162461bcd60e51b815260206004820152602660248201527f4f776e61626c653a206e6577206f776e657220697320746865207a65726f206160448201526564647265737360d01b6064820152608490fd5b94959091939295610d10611482565b610d1b848414610f27565b610d26828414610f65565b6000966020860193885b818110610d635750505050505050505080610d51575b50610ab16001600055565b610d5d903410156111a5565b38610d46565b85610d6f82848c610fc0565b89610df16040610d80868d8a610fe7565b3593610d8d878c8c610ff7565b610db787610db08b61072c610da98461072c60208b018b61103b565b9c8b61103b565b9785611762565b6002610dc2846110ba565b610dcb816110ab565b14610f11575b50506109be60e0610de1836119b8565b9501359560608801358787611a8a565b92610dfe60408d016110c7565b90610e08816110e5565b90610e15602082016110c7565b610e40604083013591610e30610e29611146565b9586611164565b6001600160a01b03166020850152565b6040830152846060830152610e57608082016110e5565b90610e6960c0610a2260a084016110c7565b60408201528460608201528051610e7f816110db565b610e88816110db565b15610eef575b82610ec87f2b2be5bdc62aaf8dbe8a0ffac99e7335c8d1245aa56d1d50e01fc21177fb227793610a5a610ee6948a60019c9b9a9998611cf3565b60405194855260a088901b8890039081169516939081906020820190565b0390a401610d30565b9e8f6060909796959493970151610f0591611193565b9e959192939495610e8e565b610f209160808401358961187e565b3880610dd1565b15610f2e57565b60405162461bcd60e51b815260206004820152600f60248201526e098cadccee8d040dad2e6dac2e8c6d608b1b6044820152606490fd5b15610f6c57565b60405162461bcd60e51b81526020600482015260166024820152750a0e4dedecce640d8cadccee8d040dad2e6dac2e8c6d60531b6044820152606490fd5b634e487b7160e01b600052603260045260246000fd5b9190811015610fe25760051b8101359060de198136030182121561017c570190565b610faa565b9190811015610fe25760051b0190565b9190811015610fe25760051b81013590601e198136030182121561017c5701908135916001600160401b03831161017c576020018260051b3603811361017c579190565b903590601e198136030182121561017c57018035906001600160401b03821161017c576020019161014082023603831361017c57565b9015610fe25790565b9190811015610fe257610140020190565b6003111561017c57565b634e487b7160e01b600052602160045260246000fd5b600311156110b557565b611095565b356110c48161108b565b90565b356110c481610a95565b6004111561017c57565b600411156110b557565b356110c4816110d1565b634e487b7160e01b600052604160045260246000fd5b608081019081106001600160401b0382111761112057604052565b6110ef565b90601f801991011681019081106001600160401b0382111761112057604052565b60405190610ab1608083611125565b60405190610ab160e083611125565b60048210156110b55752565b5160048110156110b55790565b634e487b7160e01b600052601160045260246000fd5b919082018092116111a057565b61117d565b156111ac57565b60405162461bcd60e51b815260206004820152601c60248201527f496e73756666696369656e7420746f74616c206d73672e76616c7565000000006044820152606490fd5b6111fa906119b8565b600052600860205260406000209060005260205260ff6040600020541690565b9061125260609161122a846119b8565b600052600760205260406000208160005260205261072c60406000205494602081019061103b565b0135111590565b6001600160401b0381116111205760051b60200190565b1561127757565b60405162461bcd60e51b815260206004820152601460248201527313dc99195c88185b1c9958591e48199a5b1b195960621b6044820152606490fd5b156112ba57565b60405162461bcd60e51b815260206004820152601760248201527f4f7264657220616c72656164792063616e63656c6c65640000000000000000006044820152606490fd5b92919061130b81611259565b936113196040519586611125565b602085838152019160051b810192831161017c57905b82821061133b57505050565b813581526020918201910161132f565b1561135257565b60405162461bcd60e51b815260206004820152600f60248201526e2737ba1030903134b21037b93232b960891b6044820152606490fd5b919082608091031261017c576040516113a181611105565b606080829480356113b1816110d1565b845260208101356113c181610a95565b6020850152604081013560408501520135910152565b9190916101408184031261017c576060610120604051926113f784611105565b61141184966114068184611389565b865260808301611389565b602085015261010081013560408501520135910152565b6110c49036906113d7565b919082039182116111a057565b1561144757565b60405162461bcd60e51b8152602060048201526013602482015272125b9d985b1a59081cd95b1b08185b5bdd5b9d606a1b6044820152606490fd5b600260005414611493576002600055565b60405162461bcd60e51b815260206004820152601f60248201527f5265656e7472616e637947756172643a207265656e7472616e742063616c6c006044820152606490fd5b156114df57565b60405162461bcd60e51b815260206004820152601360248201527229b2b73232b91034b9903737ba103a30b5b2b960691b6044820152606490fd5b1561152157565b60405162461bcd60e51b815260206004820152601260248201527113585ad95c881bdc99195c88199a5b1b195960721b6044820152606490fd5b1561156257565b60405162461bcd60e51b815260206004820152601560248201527413585ad95c881bdc99195c8818d85b98d95b1b1959605a1b6044820152606490fd5b3590610ab18261108b565b81601f8201121561017c5780356115c081611259565b926115ce6040519485611125565b818452602061014081860193028401019281841161017c57602001915b8383106115f9575050505090565b60206101409161160984866113d7565b8152019201916115eb565b6001600160401b03811161112057601f01601f191660200190565b92919261163b82611614565b916116496040519384611125565b82948184528183011161017c578281602093846000960137010152565b9080601f8301121561017c578160206110c49335910161162f565b91909160e08184031261017c57611696611155565b926116a08261159f565b845260208201356001600160401b03811161017c57816116c19184016115aa565b60208501526116d260408301610aa6565b60408501526116e360608301610aa6565b60608501526080820135608085015260a082013560a085015260c08201356001600160401b03811161017c576117199201611666565b60c0830152565b1561172757565b60405162461bcd60e51b815260206004820152601360248201527213585ad95c881bdc99195c88195e1c1a5c9959606a1b6044820152606490fd5b919061176d836123ab565b61177e8261072c602086018661103b565b9161178c602083018361103b565b15610fe257604085013561179f81610a95565b60608401356117ad81610a95565b6001600160a01b0390811691160361184057610ab1946118056117fe6117f260406105a8976109be8a6080896117eb6118369b61183b9f8401612744565b0190612744565b6001600160a01b031690565b33146114d8565b61181a6118156105a8858461121a565b61151a565b61182f61182a6105a885846111f1565b61155b565b3690611681565b6124ea565b611720565b60405162461bcd60e51b81526020600482015260166024820152752a30b5b2b91036bab9ba1036b0ba31b41036b0b5b2b960511b6044820152606490fd5b611897939261188f61069f92612502565b9336916112ff565b1561189e57565b60405162461bcd60e51b815260206004820152601460248201527324b73b30b634b21026b2b935b63290383937b7b360611b6044820152606490fd5b906118e482611259565b6118f16040519182611125565b8281528092611902601f1991611259565b0190602036910137565b8051821015610fe25760209160051b010190565b805160209091019060005b8181106119385750505090565b825184526020938401939092019160010161192b565b92969594919693909360e08401977f06c8ffd199dde1e3c1f0d71dae647c455e0da36831ccd370e21bb7d22d370959855260038610156110b55760c0956020860152604085015260018060a01b0316606084015260018060a01b0316608083015260a08201520152565b9060208201916119d26119cb848361103b565b90506118da565b9060005b6119e0858361103b565b9050811015611a135780611a026119fd60019361072c898761103b565b612502565b611a0c828661190c565b52016119d6565b50919250604051611a3a81611a2c602082018095611920565b03601f198101835282611125565b51902090611a84611a4a826110ba565b92611a2c611a5a604085016110c7565b93611a67606082016110c7565b9060a060808201359101359160405196879560208701998a61194e565b51902090565b9290836000526007602052604060002082600052602052604060002054928115159081611b10575b5015611adc57611ac86105cf91611ad994611193565b936000526007602052604060002090565b55565b60405162461bcd60e51b815260206004820152600c60248201526b125b9d985b1a5908199a5b1b60a21b6044820152606490fd5b90508184018085116111a057111538611ab2565b15611b2b57565b60405162461bcd60e51b8152602060048201526015602482015274119959481c9958da5c1a595b9d081b9bdd081cd95d605a1b6044820152606490fd5b15611b6f57565b60405162461bcd60e51b8152602060048201526016602482015275151c985b9cd9995c881859d95b9d081b9bdd081cd95d60521b6044820152606490fd5b6040513d6000823e3d90fd5b6001600160a01b03918216815291811660208301529091166040820152606081019190915260800190565b818102929181159184041417156111a057565b15611bfe57565b60405162461bcd60e51b8152602060048201526016602482015275496e73756666696369656e74206d73672e76616c756560501b6044820152606490fd5b3d15611c67573d90611c4d82611614565b91611c5b6040519384611125565b82523d6000602084013e565b606090565b15611c7357565b60405162461bcd60e51b8152602060048201526013602482015272119959481d1c985b9cd9995c8819985a5b1959606a1b6044820152606490fd5b15611cb557565b60405162461bcd60e51b815260206004820152601660248201527513985d1a5d99481d1c985b9cd9995c8819985a5b195960521b6044820152606490fd5b600454611d0a906001600160a01b03161515611b24565b600554611d1f906001600160a01b03166117f2565b611d2a811515611b68565b8351611d35816110db565b611d3e816110db565b611dc95750506000808080936060610ab1960190611d6b611d63835160065490611be4565b612710900490565b611d83611d79828551611433565b9351341015611bf7565b80611d9a575b505af1611d94611c3c565b50611cae565b83808080611dc394611db360045460018060a01b031690565b5af1611dbd611c3c565b50611c6c565b38611d89565b60018493929351611dd9816110db565b611de2816110db565b03611f1a57506060830192611e09611e01611d63865160065490611be4565b809551611433565b9380611e95575b50600554611e3e90602090611e2f906117f2906001600160a01b031681565b9201516001600160a01b031690565b92813b1561017c5760008094611e6a6040519788968795869463368fa33960e21b865260048601611bb9565b03925af18015611e9057611e7b5750565b80611e8a6000610ab193611125565b80610227565b611bad565b600554611eac906117f2906001600160a01b031681565b60208301516001600160a01b03166004549091906001600160a01b031690803b1561017c578660008094611ef66040519788968795869463368fa33960e21b865260048601611bb9565b03925af18015611e905715611e105780611e8a6000611f1493611125565b38611e10565b600384939451611f29816110db565b611f32816110db565b03611f8f5750600554611f4f906117f2906001600160a01b031681565b60208301516040906001600160a01b031693015193813b1561017c5760008094611e6a60405197889687958694633c4fc9fb60e11b865260048601611bb9565b600283949351611f9e816110db565b611fa7816110db565b03612030576001600160a01b031660208401516001600160a01b03169260606040860151950151823b1561017c57604051633ab9e1f760e21b81526001600160a01b03958616600482015291851660248301529290931660448401526064830193909352608482015260c060a4820152600060c482018190529091829081838160e48101611e6a565b60405162461bcd60e51b8152602060048201526016602482015275556e737570706f72746564206173736574207479706560501b6044820152606490fd5b6001546001600160a01b0316330361208257565b606460405162461bcd60e51b815260206004820152602060248201527f4f776e61626c653a2063616c6c6572206973206e6f7420746865206f776e65726044820152fd5b60ff81146120d7576110c490612582565b506040516000600254908160011c91600181169081156121a6575b60208410821461219257838552849291602084019181156121795750600114612123575b506110c492500382611125565b6002600090815291507f405787fa12a823e0f2b7631cc41b3ba8828b3321ca811111fa75cd3aa3bb5ace5b84831061216257506110c493500138612116565b80548284015285935060209092019160010161214e565b60ff19168252506110c493151560051b01905038612116565b634e487b7160e01b83526022600452602483fd5b92607f16926120f2565b60ff81146121c1576110c490612582565b506040516000600354908160011c9160018116908115612262575b6020841082146121925783855284929160208401918115612179575060011461220c57506110c492500382611125565b6003600090815291507fc2575a0e9e593c00f959f8c92f12db2869c3395a3b0502d05e2516446f71f85b5b84831061224b57506110c493500138612116565b805482840152859350602090920191600101612237565b92607f16926121dc565b903590601e198136030182121561017c57018035906001600160401b03821161017c5760200191813603831361017c57565b156122a557565b60405162461bcd60e51b815260206004820152602a60248201527f496e76616c6964207369676e61747572652e204d616b6572206973206e6f74206044820152693a34329039b4b3b732b960b11b6064820152608490fd5b9081602091031261017c57516001600160e01b03198116810361017c5790565b91926060938192845260406020850152816040850152848401376000828201840152601f01601f1916010190565b1561235257565b60405162461bcd60e51b815260206004820152602b60248201527f636f6e7472616374206f72646572207369676e6174757265207665726966696360448201526a30ba34b7b71032b93937b960a91b6064820152608490fd5b6123b7604082016110c7565b6123d16123c661055a846119b8565b9260c081019061226c565b92823b1561246657604051630b135d3f60e11b81529360209385939092849283926123ff926004850161231d565b03916001600160a01b03165afa8015611e9057610ab191600091612437575b506001600160e01b031916630b135d3f60e11b1461234b565b612459915060203d60201161245f575b6124518183611125565b8101906122fd565b3861241e565b503d612447565b6117f29061247c61248293610ab196369161162f565b906125ea565b6001600160a01b039091161461229e565b929091906000915b84518310156124e2576124ae838661190c565b51906000828210156124d15750600052602052600160406000205b92019161249b565b6040916001938252602052206124c9565b915092501490565b60609160206124fa92015161190c565b510151421190565b61251461250f3683611389565b6127cd565b9061252561250f3660808401611389565b90610120610100820135910135906040519260208401947fe28cfd2e1bcec04840c1ddb765a2c756cf3e42aef44e48ddda10af78ed9a1c44865260408501526060840152608083015260a082015260a08152611a8460c082611125565b60ff811690601f82116125b357604080519261259e8285611125565b6020808552840191601f190136833783525290565b632cd44ac360e21b60005260046000fd5b6042906125cf612841565b906040519161190160f01b8352600283015260228201522090565b6110c491612623917f19457468657265756d205369676e6564204d6573736167653a0a333200000000600052601c52603c600020612957565b919091612999565b1561263257565b60405162461bcd60e51b8152602060048201526013602482015272082e6e6cae840e8f2e0ca40dad2e6dac2e8c6d606b1b6044820152606490fd5b1561267457565b60405162461bcd60e51b815260206004820152601960248201527f436f6e74726163742061646472657373206d69736d61746368000000000000006044820152606490fd5b156126c057565b60405162461bcd60e51b8152602060048201526011602482015270082e6e6cae840928840dad2e6dac2e8c6d607b1b6044820152606490fd5b1561270057565b606460405162461bcd60e51b815260206004820152602060248201527f4f66666572656420616d6f756e742065786365656473207265717565737465646044820152fd5b803561274f816110d1565b823561275a816110d1565b60048110156110b55760048210156110b557610ab19361277f6060939284931461262b565b6127ae61278e602086016110c7565b61279d6117f2602085016110c7565b6001600160a01b039091161461266d565b6127c160408501356040830135146126b9565b013591013510156126f9565b80519060048210156110b55760018060a01b036020820151169060606040820151910151906040519260208401947f6e4f52e5739dbefd226dcbefef0e563115bc2b92726a648e213cb8cde30b11a6865260408501526060840152608083015260a082015260a08152611a8460c082611125565b307f00000000000000000000000000000000000000000000000000000000000000006001600160a01b0316148061292e575b1561289c577f000000000000000000000000000000000000000000000000000000000000000090565b60405160208101907f8b73c3c69bb8fe3d512ecc4cf759cc79239f7b179b0ffacaa9a75d522b39400f82527f000000000000000000000000000000000000000000000000000000000000000060408201527f000000000000000000000000000000000000000000000000000000000000000060608201524660808201523060a082015260a08152611a8460c082611125565b507f00000000000000000000000000000000000000000000000000000000000000004614612873565b90604181511460001461298557612981916020820151906060604084015193015160001a90612ab9565b9091565b5050600090600290565b600511156110b557565b6129a28161298f565b806129aa5750565b6129b38161298f565b60018103612a005760405162461bcd60e51b815260206004820152601860248201527f45434453413a20696e76616c6964207369676e617475726500000000000000006044820152606490fd5b612a098161298f565b60028103612a565760405162461bcd60e51b815260206004820152601f60248201527f45434453413a20696e76616c6964207369676e6174757265206c656e677468006044820152606490fd5b80612a6260039261298f565b14612a6957565b60405162461bcd60e51b815260206004820152602260248201527f45434453413a20696e76616c6964207369676e6174757265202773272076616c604482015261756560f01b6064820152608490fd5b7f7fffffffffffffffffffffffffffffff5d576e7357a4501ddfe92f46681b20a08411612b2d5760209360009360ff60809460405194855216868401526040830152606082015282805260015afa15611e90576000516001600160a01b03811615612b245790600090565b50600090600190565b5050505060009060039056fea264697066735822122084985d88def2f0ccbf473a83accfde07249773dc1cff6cc855eb0ae7d683269e64736f6c634300081c0033",
  "linkReferences": {},
  "deployedLinkReferences": {}
}