{
  "_format": "hh-sol-artifact-1",
  "contractName": "LibAuction",
  "sourceName": "contracts/libraries/LibAuction.sol",
  "abi": [
    {
      "inputs": [
        {
          "components": [
            {
              "internalType": "address",
              "name": "maker",
              "type": "address"
            },
            {
              "components": [
                {
                  "internalType": "enum LibAsset.AssetType",
                  "name": "assetType",
                  "type": "LibAsset.AssetType"
                },
                {
                  "internalType": "address",
                  "name": "contractAddress",
                  "type": "address"
                },
                {
                  "internalType": "uint256",
                  "name": "assetId",
                  "type": "uint256"
                },
                {
                  "internalType": "uint256",
                  "name": "assetAmount",
                  "type": "uint256"
                }
              ],
              "internalType": "struct LibAsset.Asset",
              "name": "asset",
              "type": "tuple"
            },
            {
              "internalType": "uint256",
              "name": "startPrice",
              "type": "uint256"
            },
            {
              "internalType": "uint256",
              "name": "buyNowPrice",
              "type": "uint256"
            },
            {
              "internalType": "uint256",
              "name": "startTime",
              "type": "uint256"
            },
            {
              "internalType": "uint256",
              "name": "endTime",
              "type": "uint256"
            },
            {
              "internalType": "uint256",
              "name": "salt",
              "type": "uint256"
            },
            {
              "internalType": "bytes",
              "name": "signature",
              "type": "bytes"
            }
          ],
          "internalType": "struct LibAuction.Auction",
          "name": "auction",
          "type": "tuple"
        }
      ],
      "name": "hash",
      "outputs": [
        {
          "internalType": "bytes32",
          "name": "",
          "type": "bytes32"
        }
      ],
      "stateMutability": "pure",
      "type": "function"
    }
  ],
  "bytecode": "0x608080604052346019576101f5908161001f823930815050f35b600080fdfe608080604052600436101561001357600080fd5b60003560e01c632689adb21461002857600080fd5b602036600319011261016e5760043567ffffffffffffffff811161016e57610160600319823603011261016e5761006181600401610173565b90602481013592600484101561016e576020936101249161008460448501610173565b868201927f6e4f52e5739dbefd226dcbefef0e563115bc2b92726a648e213cb8cde30b11a68452604083015260018060a01b0316606082015260648401356080820152608484013560a082015260a081526100e060c082610187565b5190209160405192858401947f28afadf97d59fdbf835ed51fa5be1b9f9dbc4728e2c548df94c8d1a87aba23be865260018060a01b03166040850152606084015260a4810135608084015260c481013560a084015260e481013560c084015261010481013560e08401520135610100820152610100815261016361012082610187565b519020604051908152f35b600080fd5b356001600160a01b038116810361016e5790565b90601f8019910116810190811067ffffffffffffffff8211176101a957604052565b634e487b7160e01b600052604160045260246000fdfea2646970667358221220e30c741c71961c0c331429a4a50127dc87ea7ae0429e99d2604cbe78c4db497c64736f6c634300081c0033",
  "linkReferences": {},
  "deployedLinkReferences": {}
}