{
  "_format": "hh-sol-artifact-1",
  "contractName": "LibAuction",
  "sourceName": "contracts/libraries/LibAuction.sol",
  "abi": [
    {
      "inputs": [
        {
          "components": [
            {
              "internalType": "address",
              "name": "maker",
              "type": "address"
            },
            {
              "components": [
                {
                  "internalType": "enum LibAsset.AssetType",
                  "name": "assetType",
                  "type": "LibAsset.AssetType"
                },
                {
                  "internalType": "address",
                  "name": "contractAddress",
                  "type": "address"
                },
                {
                  "internalType": "uint256",
                  "name": "assetId",
                  "type": "uint256"
                },
                {
                  "internalType": "uint256",
                  "name": "assetAmount",
                  "type": "uint256"
                }
              ],
              "internalType": "struct LibAsset.Asset",
              "name": "asset",
              "type": "tuple"
            },
            {
              "internalType": "uint256",
              "name": "startPrice",
              "type": "uint256"
            },
            {
              "internalType": "uint256",
              "name": "buyNowPrice",
              "type": "uint256"
            },
            {
              "internalType": "uint256",
              "name": "startTime",
              "type": "uint256"
            },
            {
              "internalType": "uint256",
              "name": "endTime",
              "type": "uint256"
            },
            {
              "internalType": "uint256",
              "name": "salt",
              "type": "uint256"
            },
            {
              "internalType": "bytes",
              "name": "signature",
              "type": "bytes"
            }
          ],
          "internalType": "struct LibAuction.Auction",
          "name": "auction",
          "type": "tuple"
        }
      ],
      "name": "hash",
      "outputs": [
        {
          "internalType": "bytes32",
          "name": "",
          "type": "bytes32"
        }
      ],
      "stateMutability": "pure",
      "type": "function"
    }
  ],
  "bytecode": "0x6080806040523460195761032f908161001f823930815050f35b600080fdfe608080604052600436101561001357600080fd5b60003560e01c632689adb21461002857600080fd5b60203660031901126102a85760043567ffffffffffffffff81116102a8578036036101606003198201126102a85761010083019083821067ffffffffffffffff8311176102ad57608091604052610081836004016102e5565b845260231901126102a857604051906080820182811067ffffffffffffffff8211176102ad57604052602481013560048110156102a85782526100c6604482016102e5565b6020830152606481013560408301526084810135606083015260208301918252604083019060a48101358252606084019060c48101358252608085019460e4820135865260a0810190610104830135825260c081019261012481013584526101448101359067ffffffffffffffff82116102a85701366023820112156102a857600481013567ffffffffffffffff81116102ad5760405191610172601f8301601f1916602001846102c3565b81835236602482840101116102a85781600092602460209301838601378301015260e082015260018060a01b03905116945195865160048110156102925760209760018060a01b038982015116906060604082015191015190604051928b8401947f6e4f52e5739dbefd226dcbefef0e563115bc2b92726a648e213cb8cde30b11a6865260408501526060840152608083015260a082015260a0815261021960c0826102c3565b519020945193519051915192519360405195888701977f28afadf97d59fdbf835ed51fa5be1b9f9dbc4728e2c548df94c8d1a87aba23be895260408801526060870152608086015260a085015260c084015260e08301526101008201526101008152610287610120826102c3565b519020604051908152f35b634e487b7160e01b600052602160045260246000fd5b600080fd5b634e487b7160e01b600052604160045260246000fd5b90601f8019910116810190811067ffffffffffffffff8211176102ad57604052565b35906001600160a01b03821682036102a85756fea26469706673582212207ad4414b0ea9c31c1866ae5b1534221bf7e290ca88da56f8b54e0efd822a2fed64736f6c634300081c0033",
  "linkReferences": {},
  "deployedLinkReferences": {}
}