{
  "_format": "hh-sol-artifact-1",
  "contractName": "NodeAdmin",
  "sourceName": "contracts/admin/NodeAdmin.sol",
  "abi": [
    {
      "anonymous": false,
      "inputs": [
        {
          "indexed": true,
          "internalType": "address",
          "name": "previousOwner",
          "type": "address"
        },
        {
          "indexed": true,
          "internalType": "address",
          "name": "newOwner",
          "type": "address"
        }
      ],
      "name": "OwnershipTransferred",
      "type": "event"
    },
    {
      "inputs": [],
      "name": "owner",
      "outputs": [
        {
          "internalType": "address",
          "name": "",
          "type": "address"
        }
      ],
      "stateMutability": "view",
      "type": "function"
    },
    {
      "inputs": [
        {
          "internalType": "address",
          "name": "node",
          "type": "address"
        }
      ],
      "name": "remove",
      "outputs": [],
      "stateMutability": "nonpayable",
      "type": "function"
    },
    {
      "inputs": [],
      "name": "renounceOwnership",
      "outputs": [],
      "stateMutability": "nonpayable",
      "type": "function"
    },
    {
      "inputs": [
        {
          "internalType": "address",
          "name": "_storage",
          "type": "address"
        }
      ],
      "name": "setNodesStorage",
      "outputs": [],
      "stateMutability": "nonpayable",
      "type": "function"
    },
    {
      "inputs": [
        {
          "internalType": "address",
          "name": "_voting",
          "type": "address"
        }
      ],
      "name": "setVoting",
      "outputs": [],
      "stateMutability": "nonpayable",
      "type": "function"
    },
    {
      "inputs": [],
      "name": "storageContract",
      "outputs": [
        {
          "internalType": "contract INodesStorage",
          "name": "",
          "type": "address"
        }
      ],
      "stateMutability": "view",
      "type": "function"
    },
    {
      "inputs": [
        {
          "internalType": "address",
          "name": "newOwner",
          "type": "address"
        }
      ],
      "name": "transferOwnership",
      "outputs": [],
      "stateMutability": "nonpayable",
      "type": "function"
    },
    {
      "inputs": [],
      "name": "voting",
      "outputs": [
        {
          "internalType": "address",
          "name": "",
          "type": "address"
        }
      ],
      "stateMutability": "view",
      "type": "function"
    }
  ],
  "bytecode": "0x6080604052348015600f57600080fd5b50601733601b565b606b565b600080546001600160a01b038381166001600160a01b0319831681178455604051919092169283917f8be0079c531659141344cd1fd0a4f28419497f9722a3daafe3b4186f6b6457e09190a35050565b6104698061007a6000396000f3fe608060405234801561001057600080fd5b50600436106100885760003560e01c80638da5cb5b1161005b5780638da5cb5b146100ec578063c4d07951146100fd578063f2fde38b14610110578063fce1ccca1461012357600080fd5b806311ce02671461008d5780631959a3e9146100bc57806329092d0e146100d1578063715018a6146100e4575b600080fd5b6002546100a0906001600160a01b031681565b6040516001600160a01b03909116815260200160405180910390f35b6100cf6100ca366004610403565b610136565b005b6100cf6100df366004610403565b6101aa565b6100cf61025d565b6000546001600160a01b03166100a0565b6100cf61010b366004610403565b610271565b6100cf61011e366004610403565b6102e0565b6001546100a0906001600160a01b031681565b61013e610359565b6001600160a01b0381166101885760405162461bcd60e51b815260206004820152600c60248201526b5a65726f206164647265737360a01b60448201526064015b60405180910390fd5b600280546001600160a01b0319166001600160a01b0392909216919091179055565b6001546001600160a01b031633146101fb5760405162461bcd60e51b815260206004820152601460248201527313db9b1e481d9bdd1a5b99c818d85b8818d85b1b60621b604482015260640161017f565b60025460405163b2b99ec960e01b81526001600160a01b0383811660048301529091169063b2b99ec990602401600060405180830381600087803b15801561024257600080fd5b505af1158015610256573d6000803e3d6000fd5b5050505050565b610265610359565b61026f60006103b3565b565b610279610359565b6001600160a01b0381166102be5760405162461bcd60e51b815260206004820152600c60248201526b5a65726f206164647265737360a01b604482015260640161017f565b600180546001600160a01b0319166001600160a01b0392909216919091179055565b6102e8610359565b6001600160a01b03811661034d5760405162461bcd60e51b815260206004820152602660248201527f4f776e61626c653a206e6577206f776e657220697320746865207a65726f206160448201526564647265737360d01b606482015260840161017f565b610356816103b3565b50565b6000546001600160a01b0316331461026f5760405162461bcd60e51b815260206004820181905260248201527f4f776e61626c653a2063616c6c6572206973206e6f7420746865206f776e6572604482015260640161017f565b600080546001600160a01b038381166001600160a01b0319831681178455604051919092169283917f8be0079c531659141344cd1fd0a4f28419497f9722a3daafe3b4186f6b6457e09190a35050565b60006020828403121561041557600080fd5b81356001600160a01b038116811461042c57600080fd5b939250505056fea26469706673582212206eed9c2111c3603674a246c742fa26cf5fd568a26612bf0b0867ae4c0cc8dc8964736f6c634300081c0033",
  "linkReferences": {},
  "deployedLinkReferences": {}
}